{"abi":[{"type":"constructor","inputs":[],"stateMutability":"nonpayable"},{"type":"function","name":"DEFAULT_ADMIN_ROLE","inputs":[],"outputs":[{"name":"","type":"bytes32","internalType":"bytes32"}],"stateMutability":"view"},{"type":"function","name":"UPGRADE_INTERFACE_VERSION","inputs":[],"outputs":[{"name":"","type":"string","internalType":"string"}],"stateMutability":"view"},{"type":"function","name":"getRoleAdmin","inputs":[{"name":"role","type":"bytes32","internalType":"bytes32"}],"outputs":[{"name":"","type":"bytes32","internalType":"bytes32"}],"stateMutability":"view"},{"type":"function","name":"grantRole","inputs":[{"name":"role","type":"bytes32","internalType":"bytes32"},{"name":"account","type":"address","internalType":"address"}],"outputs":[],"stateMutability":"nonpayable"},{"type":"function","name":"hasRole","inputs":[{"name":"role","type":"bytes32","internalType":"bytes32"},{"name":"account","type":"address","internalType":"address"}],"outputs":[{"name":"","type":"bool","internalType":"bool"}],"stateMutability":"view"},{"type":"function","name":"honeyFactory","inputs":[],"outputs":[{"name":"","type":"address","internalType":"contract HoneyFactory"}],"stateMutability":"view"},{"type":"function","name":"initialize","inputs":[{"name":"admin","type":"address","internalType":"address"},{"name":"honeyFactory_","type":"address","internalType":"address"}],"outputs":[],"stateMutability":"nonpayable"},{"type":"function","name":"previewMintCollaterals","inputs":[{"name":"asset","type":"address","internalType":"address"},{"name":"honey","type":"uint256","internalType":"uint256"}],"outputs":[{"name":"amounts","type":"uint256[]","internalType":"uint256[]"}],"stateMutability":"view"},{"type":"function","name":"previewMintHoney","inputs":[{"name":"asset","type":"address","internalType":"address"},{"name":"amount","type":"uint256","internalType":"uint256"}],"outputs":[{"name":"collaterals","type":"uint256[]","internalType":"uint256[]"},{"name":"honey","type":"uint256","internalType":"uint256"}],"stateMutability":"view"},{"type":"function","name":"previewRedeemCollaterals","inputs":[{"name":"asset","type":"address","internalType":"address"},{"name":"honey","type":"uint256","internalType":"uint256"}],"outputs":[{"name":"collaterals","type":"uint256[]","internalType":"uint256[]"}],"stateMutability":"view"},{"type":"function","name":"previewRedeemHoney","inputs":[{"name":"asset","type":"address","internalType":"address"},{"name":"amount","type":"uint256","internalType":"uint256"}],"outputs":[{"name":"collaterals","type":"uint256[]","internalType":"uint256[]"},{"name":"honey","type":"uint256","internalType":"uint256"}],"stateMutability":"view"},{"type":"function","name":"proxiableUUID","inputs":[],"outputs":[{"name":"","type":"bytes32","internalType":"bytes32"}],"stateMutability":"view"},{"type":"function","name":"renounceRole","inputs":[{"name":"role","type":"bytes32","internalType":"bytes32"},{"name":"callerConfirmation","type":"address","internalType":"address"}],"outputs":[],"stateMutability":"nonpayable"},{"type":"function","name":"revokeRole","inputs":[{"name":"role","type":"bytes32","internalType":"bytes32"},{"name":"account","type":"address","internalType":"address"}],"outputs":[],"stateMutability":"nonpayable"},{"type":"function","name":"supportsInterface","inputs":[{"name":"interfaceId","type":"bytes4","internalType":"bytes4"}],"outputs":[{"name":"","type":"bool","internalType":"bool"}],"stateMutability":"view"},{"type":"function","name":"upgradeToAndCall","inputs":[{"name":"newImplementation","type":"address","internalType":"address"},{"name":"data","type":"bytes","internalType":"bytes"}],"outputs":[],"stateMutability":"payable"},{"type":"event","name":"Initialized","inputs":[{"name":"version","type":"uint64","indexed":false,"internalType":"uint64"}],"anonymous":false},{"type":"event","name":"RoleAdminChanged","inputs":[{"name":"role","type":"bytes32","indexed":true,"internalType":"bytes32"},{"name":"previousAdminRole","type":"bytes32","indexed":true,"internalType":"bytes32"},{"name":"newAdminRole","type":"bytes32","indexed":true,"internalType":"bytes32"}],"anonymous":false},{"type":"event","name":"RoleGranted","inputs":[{"name":"role","type":"bytes32","indexed":true,"internalType":"bytes32"},{"name":"account","type":"address","indexed":true,"internalType":"address"},{"name":"sender","type":"address","indexed":true,"internalType":"address"}],"anonymous":false},{"type":"event","name":"RoleRevoked","inputs":[{"name":"role","type":"bytes32","indexed":true,"internalType":"bytes32"},{"name":"account","type":"address","indexed":true,"internalType":"address"},{"name":"sender","type":"address","indexed":true,"internalType":"address"}],"anonymous":false},{"type":"event","name":"Upgraded","inputs":[{"name":"implementation","type":"address","indexed":true,"internalType":"address"}],"anonymous":false},{"type":"error","name":"AccessControlBadConfirmation","inputs":[]},{"type":"error","name":"AccessControlUnauthorizedAccount","inputs":[{"name":"account","type":"address","internalType":"address"},{"name":"neededRole","type":"bytes32","internalType":"bytes32"}]},{"type":"error","name":"AddressEmptyCode","inputs":[{"name":"target","type":"address","internalType":"address"}]},{"type":"error","name":"AmountOutOfRange","inputs":[]},{"type":"error","name":"AssetIsBadCollateral","inputs":[{"name":"asset","type":"address","internalType":"address"}]},{"type":"error","name":"AssetIsNotBadCollateral","inputs":[{"name":"asset","type":"address","internalType":"address"}]},{"type":"error","name":"AssetNotRegistered","inputs":[{"name":"asset","type":"address","internalType":"address"}]},{"type":"error","name":"CapCanCauseDenialOfService","inputs":[]},{"type":"error","name":"ERC1967InvalidImplementation","inputs":[{"name":"implementation","type":"address","internalType":"address"}]},{"type":"error","name":"ERC1967NonPayable","inputs":[]},{"type":"error","name":"ExceedGlobalCap","inputs":[]},{"type":"error","name":"ExceedRelativeCap","inputs":[]},{"type":"error","name":"FailedCall","inputs":[]},{"type":"error","name":"InsufficientAssets","inputs":[{"name":"assets","type":"uint256","internalType":"uint256"},{"name":"shares","type":"uint256","internalType":"uint256"}]},{"type":"error","name":"InsufficientRecapitalizeAmount","inputs":[{"name":"amount","type":"uint256","internalType":"uint256"}]},{"type":"error","name":"InvalidCustodyInfoInput","inputs":[]},{"type":"error","name":"InvalidInitialization","inputs":[]},{"type":"error","name":"LiquidationDisabled","inputs":[]},{"type":"error","name":"LiquidationWithReferenceCollateral","inputs":[]},{"type":"error","name":"MismatchedOwner","inputs":[{"name":"owner","type":"address","internalType":"address"},{"name":"expectedOwner","type":"address","internalType":"address"}]},{"type":"error","name":"NotFactory","inputs":[]},{"type":"error","name":"NotInitializing","inputs":[]},{"type":"error","name":"NotPegged","inputs":[{"name":"asset","type":"address","internalType":"address"}]},{"type":"error","name":"OverOneHundredPercentRate","inputs":[{"name":"rate","type":"uint256","internalType":"uint256"}]},{"type":"error","name":"RecapitalizeNotNeeded","inputs":[{"name":"asset","type":"address","internalType":"address"}]},{"type":"error","name":"UUPSUnauthorizedCallContext","inputs":[]},{"type":"error","name":"UUPSUnsupportedProxiableUUID","inputs":[{"name":"slot","type":"bytes32","internalType":"bytes32"}]},{"type":"error","name":"UnauthorizedCaller","inputs":[{"name":"caller","type":"address","internalType":"address"},{"name":"expectedCaller","type":"address","internalType":"address"}]},{"type":"error","name":"UnderNinetyEightPercentRate","inputs":[{"name":"rate","type":"uint256","internalType":"uint256"}]},{"type":"error","name":"UnexpectedBasketModeStatus","inputs":[]},{"type":"error","name":"VaultAlreadyRegistered","inputs":[{"name":"asset","type":"address","internalType":"address"}]},{"type":"error","name":"VaultPaused","inputs":[]},{"type":"error","name":"ZeroAddress","inputs":[]},{"type":"error","name":"ZeroAmount","inputs":[]},{"type":"error","name":"ZeroWeight","inputs":[{"name":"asset","type":"address","internalType":"address"}]}],"bytecode":{"object":"0x60a060405230608052348015610013575f80fd5b5061001c610021565b6100d3565b7ff0c57e16840df040f15088dc2f81fe391c3923bec73e23a9662efc9c229c6a00805468010000000000000000900460ff16156100715760405163f92ee8a960e01b815260040160405180910390fd5b80546001600160401b03908116146100d05780546001600160401b0319166001600160401b0390811782556040519081527fc7f505b2f371ae2175ee4913f4499e1f2633a7b5936321eed1cdaeb6115181d29060200160405180910390a15b50565b608051612bc56100f95f395f8181611c1301528181611c3c0152611e5f0152612bc55ff3fe6080604052600436106100ef575f3560e01c806352d1902d11610087578063ad3cb1cc11610057578063ad3cb1cc14610303578063b0c1e00514610358578063ce160037146103a8578063d547741f146103c7575f80fd5b806352d1902d1461024057806391d1485414610254578063a217fddf146102c4578063a5e8b8c5146102d7575f80fd5b806336568abe116100c257806336568abe146101d05780633a9895f0146101ef578063485cc9551461020e5780634f1ef2861461022d575f80fd5b806301ffc9a7146100f3578063248a9ca3146101275780632c2967bd146101825780632f2ff15d146101af575b5f80fd5b3480156100fe575f80fd5b5061011261010d366004612585565b6103e6565b60405190151581526020015b60405180910390f35b348015610132575f80fd5b506101746101413660046125c4565b5f9081527f02dd7bc7dec4dceedda775e58dd541e08a116c6c53815c0bd028192f7b626800602052604090206001015490565b60405190815260200161011e565b34801561018d575f80fd5b506101a161019c3660046125fc565b61047e565b60405161011e929190612660565b3480156101ba575f80fd5b506101ce6101c9366004612681565b610597565b005b3480156101db575f80fd5b506101ce6101ea366004612681565b6105e0565b3480156101fa575f80fd5b506101a16102093660046125fc565b61063e565b348015610219575f80fd5b506101ce6102283660046126af565b61074c565b6101ce61023b366004612757565b61094b565b34801561024b575f80fd5b5061017461096a565b34801561025f575f80fd5b5061011261026e366004612681565b5f9182527f02dd7bc7dec4dceedda775e58dd541e08a116c6c53815c0bd028192f7b6268006020908152604080842073ffffffffffffffffffffffffffffffffffffffff93909316845291905290205460ff1690565b3480156102cf575f80fd5b506101745f81565b3480156102e2575f80fd5b506102f66102f13660046125fc565b610998565b60405161011e919061281c565b34801561030e575f80fd5b5061034b6040518060400160405280600581526020017f352e302e3000000000000000000000000000000000000000000000000000000081525081565b60405161011e919061282e565b348015610363575f80fd5b505f546103839073ffffffffffffffffffffffffffffffffffffffff1681565b60405173ffffffffffffffffffffffffffffffffffffffff909116815260200161011e565b3480156103b3575f80fd5b506102f66103c23660046125fc565b610c0c565b3480156103d2575f80fd5b506101ce6103e1366004612681565b6110f9565b5f7fffffffff0000000000000000000000000000000000000000000000000000000082167f7965db0b00000000000000000000000000000000000000000000000000000000148061047857507f01ffc9a7000000000000000000000000000000000000000000000000000000007fffffffff000000000000000000000000000000000000000000000000000000008316145b92915050565b5f80546040517fde4bc6400000000000000000000000000000000000000000000000000000000081526001600482015260609291829173ffffffffffffffffffffffffffffffffffffffff9091169063de4bc64090602401602060405180830381865afa1580156104f1573d5f803e3d5ffd5b505050506040513d601f19601f820116820180604052508101906105159190612881565b905061052285858361113c565b92505f8061052e6114e7565b915091505f5b8181101561058c57610578838281518110610551576105516128a0565b602002602001015187838151811061056b5761056b6128a0565b602002602001015161169f565b61058290866128fa565b9450600101610534565b505050509250929050565b5f8281527f02dd7bc7dec4dceedda775e58dd541e08a116c6c53815c0bd028192f7b62680060205260409020600101546105d0816117d8565b6105da83836117e5565b50505050565b73ffffffffffffffffffffffffffffffffffffffff8116331461062f576040517f6697b23200000000000000000000000000000000000000000000000000000000815260040160405180910390fd5b6106398282611903565b505050565b5f80546040517fde4bc6400000000000000000000000000000000000000000000000000000000081526004810183905260609291829173ffffffffffffffffffffffffffffffffffffffff9091169063de4bc64090602401602060405180830381865afa1580156106b1573d5f803e3d5ffd5b505050506040513d601f19601f820116820180604052508101906106d59190612881565b90506106e285858361113c565b92505f806106ee6114e7565b915091505f5b8181101561058c57610738838281518110610711576107116128a0565b602002602001015187838151811061072b5761072b6128a0565b60200260200101516119df565b61074290866128fa565b94506001016106f4565b5f610755611bc1565b805490915060ff68010000000000000000820416159067ffffffffffffffff165f811580156107815750825b90505f8267ffffffffffffffff16600114801561079d5750303b155b9050811580156107ab575080155b156107e2576040517ff92ee8a900000000000000000000000000000000000000000000000000000000815260040160405180910390fd5b84547fffffffffffffffffffffffffffffffffffffffffffffffff000000000000000016600117855583156108435784547fffffffffffffffffffffffffffffffffffffffffffffff00ffffffffffffffff16680100000000000000001785555b61084b611be9565b610853611be9565b73ffffffffffffffffffffffffffffffffffffffff8616610897576108977fd92e233d00000000000000000000000000000000000000000000000000000000611bf3565b5f80547fffffffffffffffffffffffff00000000000000000000000000000000000000001673ffffffffffffffffffffffffffffffffffffffff88161781556108e090886117e5565b5083156109425784547fffffffffffffffffffffffffffffffffffffffffffffff00ffffffffffffffff168555604051600181527fc7f505b2f371ae2175ee4913f4499e1f2633a7b5936321eed1cdaeb6115181d29060200160405180910390a15b50505050505050565b610953611bfb565b61095c82611cff565b6109668282611d09565b5050565b5f610973611e47565b507f360894a13ba1a3210667c828492db98dca3e2076cc3735a920a3ca505d382bbc90565b60605f806109a46114e7565b915091508067ffffffffffffffff8111156109c1576109c16126db565b6040519080825280602002602001820160405280156109ea578160200160208202803683370190505b505f80546040517fde4bc64000000000000000000000000000000000000000000000000000000000815260048101839052929550909173ffffffffffffffffffffffffffffffffffffffff9091169063de4bc64090602401602060405180830381865afa158015610a5d573d5f803e3d5ffd5b505050506040513d601f19601f82011682018060405250810190610a819190612881565b905080610ac8575f610a94848489611eb6565b509050610aa18787611f2b565b858281518110610ab357610ab36128a0565b60200260200101818152505050505050610478565b5f805f9054906101000a900473ffffffffffffffffffffffffffffffffffffffff1673ffffffffffffffffffffffffffffffffffffffff166322acb8676040518163ffffffff1660e01b81526004015f60405180830381865afa158015610b31573d5f803e3d5ffd5b505050506040513d5f823e601f3d9081017fffffffffffffffffffffffffffffffffffffffffffffffffffffffffffffffe0168201604052610b76919081019061290d565b90505f5b83811015610c0157610bdc858281518110610b9757610b976128a0565b6020026020010151670de0b6b3a7640000848481518110610bba57610bba6128a0565b60200260200101518a610bcd91906129b9565b610bd791906129d0565b611f2b565b868281518110610bee57610bee6128a0565b6020908102919091010152600101610b7a565b505050505092915050565b60605f80610c186114e7565b915091508067ffffffffffffffff811115610c3557610c356126db565b604051908082528060200260200182016040528015610c5e578160200160208202803683370190505b5092505f805f9054906101000a900473ffffffffffffffffffffffffffffffffffffffff1673ffffffffffffffffffffffffffffffffffffffff166322acb8676040518163ffffffff1660e01b81526004015f60405180830381865afa158015610cca573d5f803e3d5ffd5b505050506040513d5f823e601f3d9081017fffffffffffffffffffffffffffffffffffffffffffffffffffffffffffffffe0168201604052610d0f919081019061290d565b5f80546040517fde4bc64000000000000000000000000000000000000000000000000000000000815260016004820152929350909173ffffffffffffffffffffffffffffffffffffffff9091169063de4bc64090602401602060405180830381865afa158015610d81573d5f803e3d5ffd5b505050506040513d601f19601f82011682018060405250810190610da59190612881565b90505f5b83811015610c015781158015610e0457508773ffffffffffffffffffffffffffffffffffffffff16858281518110610de357610de36128a0565b602002602001015173ffffffffffffffffffffffffffffffffffffffff1614155b6110f15781158015610e5a57508773ffffffffffffffffffffffffffffffffffffffff16858281518110610e3a57610e3a6128a0565b602002602001015173ffffffffffffffffffffffffffffffffffffffff16145b15610e8757670de0b6b3a7640000838281518110610e7a57610e7a6128a0565b6020026020010181815250505b5f8054865173ffffffffffffffffffffffffffffffffffffffff9091169063a622ee7c90889085908110610ebd57610ebd6128a0565b60200260200101516040518263ffffffff1660e01b8152600401610efd919073ffffffffffffffffffffffffffffffffffffffff91909116815260200190565b602060405180830381865afa158015610f18573d5f803e3d5ffd5b505050506040513d601f19601f82011682018060405250810190610f3c9190612a08565b90505f805f9054906101000a900473ffffffffffffffffffffffffffffffffffffffff1673ffffffffffffffffffffffffffffffffffffffff1663ad1567c7888581518110610f8d57610f8d6128a0565b60200260200101516040518263ffffffff1660e01b8152600401610fcd919073ffffffffffffffffffffffffffffffffffffffff91909116815260200190565b602060405180830381865afa158015610fe8573d5f803e3d5ffd5b505050506040513d601f19601f8201168201806040525081019061100c9190612a23565b90505f81868581518110611022576110226128a0565b60200260200101518b61103591906129b9565b61103f91906129d0565b6040517f07a2d13a0000000000000000000000000000000000000000000000000000000081526004810182905290915073ffffffffffffffffffffffffffffffffffffffff8416906307a2d13a90602401602060405180830381865afa1580156110ab573d5f803e3d5ffd5b505050506040513d601f19601f820116820180604052508101906110cf9190612a23565b8985815181106110e1576110e16128a0565b6020026020010181815250505050505b600101610da9565b5f8281527f02dd7bc7dec4dceedda775e58dd541e08a116c6c53815c0bd028192f7b6268006020526040902060010154611132816117d8565b6105da8383611903565b60605f806111486114e7565b915091508067ffffffffffffffff811115611165576111656126db565b60405190808252806020026020018201604052801561118e578160200160208202803683370190505b5092505f8061119e84848a611eb6565b91509150856111d65780156111cd57868583815181106111c0576111c06128a0565b6020026020010181815250505b505050506114e0565b5f805f9054906101000a900473ffffffffffffffffffffffffffffffffffffffff1673ffffffffffffffffffffffffffffffffffffffff166322acb8676040518163ffffffff1660e01b81526004015f60405180830381865afa15801561123f573d5f803e3d5ffd5b505050506040513d5f823e601f3d9081017fffffffffffffffffffffffffffffffffffffffffffffffffffffffffffffffe0168201604052611284919081019061290d565b90505f8973ffffffffffffffffffffffffffffffffffffffff1663313ce5676040518163ffffffff1660e01b8152600401602060405180830381865afa1580156112d0573d5f803e3d5ffd5b505050506040513d601f19601f820116820180604052508101906112f49190612a3a565b90505f6113038a83601261205a565b9050828581518110611317576113176128a0565b602002602001015181670de0b6b3a764000061133391906129b9565b61133d91906129d0565b90505f5b868110156114d7575f8054895173ffffffffffffffffffffffffffffffffffffffff9091169063a622ee7c908b908590811061137f5761137f6128a0565b60200260200101516040518263ffffffff1660e01b81526004016113bf919073ffffffffffffffffffffffffffffffffffffffff91909116815260200190565b602060405180830381865afa1580156113da573d5f803e3d5ffd5b505050506040513d601f19601f820116820180604052508101906113fe9190612a08565b90508073ffffffffffffffffffffffffffffffffffffffff166307a2d13a670de0b6b3a7640000878581518110611437576114376128a0565b60200260200101518661144a91906129b9565b61145491906129d0565b6040518263ffffffff1660e01b815260040161147291815260200190565b602060405180830381865afa15801561148d573d5f803e3d5ffd5b505050506040513d601f19601f820116820180604052508101906114b19190612a23565b8a83815181106114c3576114c36128a0565b602090810291909101015250600101611341565b50505050505050505b9392505050565b5f8054604080517fbb85d15b00000000000000000000000000000000000000000000000000000000815290516060939273ffffffffffffffffffffffffffffffffffffffff169163bb85d15b9160048083019260209291908290030181865afa158015611556573d5f803e3d5ffd5b505050506040513d601f19601f8201168201806040525081019061157a9190612a23565b90508067ffffffffffffffff811115611595576115956126db565b6040519080825280602002602001820160405280156115be578160200160208202803683370190505b5091505f5b8181101561169a575f546040517fa083bd3c0000000000000000000000000000000000000000000000000000000081526004810183905273ffffffffffffffffffffffffffffffffffffffff9091169063a083bd3c90602401602060405180830381865afa158015611637573d5f803e3d5ffd5b505050506040513d601f19601f8201168201806040525081019061165b9190612a08565b83828151811061166d5761166d6128a0565b73ffffffffffffffffffffffffffffffffffffffff909216602092830291909101909101526001016115c3565b509091565b5f80546040517fa622ee7c00000000000000000000000000000000000000000000000000000000815273ffffffffffffffffffffffffffffffffffffffff85811660048301528392169063a622ee7c90602401602060405180830381865afa15801561170d573d5f803e3d5ffd5b505050506040513d601f19601f820116820180604052508101906117319190612a08565b6040517fef8b30f7000000000000000000000000000000000000000000000000000000008152600481018590529091505f9073ffffffffffffffffffffffffffffffffffffffff83169063ef8b30f790602401602060405180830381865afa15801561179f573d5f803e3d5ffd5b505050506040513d601f19601f820116820180604052508101906117c39190612a23565b90506117cf85826120c2565b95945050505050565b6117e2813361217c565b50565b5f8281527f02dd7bc7dec4dceedda775e58dd541e08a116c6c53815c0bd028192f7b6268006020818152604080842073ffffffffffffffffffffffffffffffffffffffff8616855290915282205460ff166118fa575f8481526020828152604080832073ffffffffffffffffffffffffffffffffffffffff87168452909152902080547fffffffffffffffffffffffffffffffffffffffffffffffffffffffffffffff001660011790556118963390565b73ffffffffffffffffffffffffffffffffffffffff168373ffffffffffffffffffffffffffffffffffffffff16857f2f8788117e7eff1d82e926ec794901d17c78024a50270940304540a733656f0d60405160405180910390a46001915050610478565b5f915050610478565b5f8281527f02dd7bc7dec4dceedda775e58dd541e08a116c6c53815c0bd028192f7b6268006020818152604080842073ffffffffffffffffffffffffffffffffffffffff8616855290915282205460ff16156118fa575f8481526020828152604080832073ffffffffffffffffffffffffffffffffffffffff8716808552925280832080547fffffffffffffffffffffffffffffffffffffffffffffffffffffffffffffff0016905551339287917ff6391f5c32d9c69d2a47ea670b442974b53935d1edc7fd64eb21e047a839171b9190a46001915050610478565b5f80546040517fa622ee7c00000000000000000000000000000000000000000000000000000000815273ffffffffffffffffffffffffffffffffffffffff85811660048301528392169063a622ee7c90602401602060405180830381865afa158015611a4d573d5f803e3d5ffd5b505050506040513d601f19601f82011682018060405250810190611a719190612a08565b6040517f0a28a477000000000000000000000000000000000000000000000000000000008152600481018590529091505f9073ffffffffffffffffffffffffffffffffffffffff831690630a28a47790602401602060405180830381865afa158015611adf573d5f803e3d5ffd5b505050506040513d601f19601f82011682018060405250810190611b039190612a23565b5f80546040517f2cfb0e1000000000000000000000000000000000000000000000000000000000815273ffffffffffffffffffffffffffffffffffffffff898116600483015293945091921690632cfb0e1090602401602060405180830381865afa158015611b74573d5f803e3d5ffd5b505050506040513d601f19601f82011682018060405250810190611b989190612a23565b905080611bad83670de0b6b3a76400006129b9565b611bb791906129d0565b9695505050505050565b5f807ff0c57e16840df040f15088dc2f81fe391c3923bec73e23a9662efc9c229c6a00610478565b611bf1612222565b565b805f5260045ffd5b3073ffffffffffffffffffffffffffffffffffffffff7f0000000000000000000000000000000000000000000000000000000000000000161480611cc857507f000000000000000000000000000000000000000000000000000000000000000073ffffffffffffffffffffffffffffffffffffffff16611caf7f360894a13ba1a3210667c828492db98dca3e2076cc3735a920a3ca505d382bbc5473ffffffffffffffffffffffffffffffffffffffff1690565b73ffffffffffffffffffffffffffffffffffffffff1614155b15611bf1576040517fe07c8dba00000000000000000000000000000000000000000000000000000000815260040160405180910390fd5b5f610966816117d8565b8173ffffffffffffffffffffffffffffffffffffffff166352d1902d6040518163ffffffff1660e01b8152600401602060405180830381865afa925050508015611d8e575060408051601f3d9081017fffffffffffffffffffffffffffffffffffffffffffffffffffffffffffffffe0168201909252611d8b91810190612a23565b60015b611de1576040517f4c9c8ce300000000000000000000000000000000000000000000000000000000815273ffffffffffffffffffffffffffffffffffffffff831660048201526024015b60405180910390fd5b7f360894a13ba1a3210667c828492db98dca3e2076cc3735a920a3ca505d382bbc8114611e3d576040517faa1d49a400000000000000000000000000000000000000000000000000000000815260048101829052602401611dd8565b6106398383612260565b3073ffffffffffffffffffffffffffffffffffffffff7f00000000000000000000000000000000000000000000000000000000000000001614611bf1576040517fe07c8dba00000000000000000000000000000000000000000000000000000000815260040160405180910390fd5b5f80805b84811015611f22578373ffffffffffffffffffffffffffffffffffffffff16868281518110611eeb57611eeb6128a0565b602002602001015173ffffffffffffffffffffffffffffffffffffffff1603611f1a5760019150809250611f22565b600101611eba565b50935093915050565b5f80546040517fa622ee7c00000000000000000000000000000000000000000000000000000000815273ffffffffffffffffffffffffffffffffffffffff85811660048301528392169063a622ee7c90602401602060405180830381865afa158015611f99573d5f803e3d5ffd5b505050506040513d601f19601f82011682018060405250810190611fbd9190612a08565b90505f611fca85856122c2565b6040517f4cdad5060000000000000000000000000000000000000000000000000000000081526004810182905290915073ffffffffffffffffffffffffffffffffffffffff831690634cdad50690602401602060405180830381865afa158015612036573d5f803e3d5ffd5b505050506040513d601f19601f820116820180604052508101906117cf9190612a23565b5f8160ff168360ff160361206f5750826114e0565b8160ff168360ff1611156120a3576120878284612a5a565b61209290600a612b94565b61209c90856129d0565b90506114e0565b6120ad8383612a5a565b6120b890600a612b94565b61209c90856129b9565b5f80546040517fad1567c700000000000000000000000000000000000000000000000000000000815273ffffffffffffffffffffffffffffffffffffffff85811660048301528392169063ad1567c7906024015b602060405180830381865afa158015612131573d5f803e3d5ffd5b505050506040513d601f19601f820116820180604052508101906121559190612a23565b9050670de0b6b3a764000061216a82856129b9565b61217491906129d0565b949350505050565b5f8281527f02dd7bc7dec4dceedda775e58dd541e08a116c6c53815c0bd028192f7b6268006020908152604080832073ffffffffffffffffffffffffffffffffffffffff8516845290915290205460ff16610966576040517fe2517d3f00000000000000000000000000000000000000000000000000000000815273ffffffffffffffffffffffffffffffffffffffff8216600482015260248101839052604401611dd8565b61222a61231a565b611bf1576040517fd7e6bcf800000000000000000000000000000000000000000000000000000000815260040160405180910390fd5b61226982612338565b60405173ffffffffffffffffffffffffffffffffffffffff8316907fbc7cd75a20ee27fd9adebab32041f755214dbc6bffa90cc0225b39da2e5c2d3b905f90a28051156122ba576106398282612406565b61096661247c565b5f80546040517f2cfb0e1000000000000000000000000000000000000000000000000000000000815273ffffffffffffffffffffffffffffffffffffffff858116600483015283921690632cfb0e1090602401612116565b5f612323611bc1565b5468010000000000000000900460ff16919050565b8073ffffffffffffffffffffffffffffffffffffffff163b5f036123a0576040517f4c9c8ce300000000000000000000000000000000000000000000000000000000815273ffffffffffffffffffffffffffffffffffffffff82166004820152602401611dd8565b7f360894a13ba1a3210667c828492db98dca3e2076cc3735a920a3ca505d382bbc80547fffffffffffffffffffffffff00000000000000000000000000000000000000001673ffffffffffffffffffffffffffffffffffffffff92909216919091179055565b60605f808473ffffffffffffffffffffffffffffffffffffffff168460405161242f9190612ba2565b5f60405180830381855af49150503d805f8114612467576040519150601f19603f3d011682016040523d82523d5f602084013e61246c565b606091505b50915091506117cf8583836124b4565b3415611bf1576040517fb398979f00000000000000000000000000000000000000000000000000000000815260040160405180910390fd5b6060826124c9576124c482612543565b6114e0565b81511580156124ed575073ffffffffffffffffffffffffffffffffffffffff84163b155b1561253c576040517f9996b31500000000000000000000000000000000000000000000000000000000815273ffffffffffffffffffffffffffffffffffffffff85166004820152602401611dd8565b50806114e0565b8051156125535780518082602001fd5b6040517fd6bda27500000000000000000000000000000000000000000000000000000000815260040160405180910390fd5b5f60208284031215612595575f80fd5b81357fffffffff00000000000000000000000000000000000000000000000000000000811681146114e0575f80fd5b5f602082840312156125d4575f80fd5b5035919050565b73ffffffffffffffffffffffffffffffffffffffff811681146117e2575f80fd5b5f806040838503121561260d575f80fd5b8235612618816125db565b946020939093013593505050565b5f8151808452602084019350602083015f5b82811015612656578151865260209586019590910190600101612638565b5093949350505050565b604081525f6126726040830185612626565b90508260208301529392505050565b5f8060408385031215612692575f80fd5b8235915060208301356126a4816125db565b809150509250929050565b5f80604083850312156126c0575f80fd5b82356126cb816125db565b915060208301356126a4816125db565b7f4e487b71000000000000000000000000000000000000000000000000000000005f52604160045260245ffd5b604051601f82017fffffffffffffffffffffffffffffffffffffffffffffffffffffffffffffffe016810167ffffffffffffffff8111828210171561274f5761274f6126db565b604052919050565b5f8060408385031215612768575f80fd5b8235612773816125db565b9150602083013567ffffffffffffffff81111561278e575f80fd5b8301601f8101851361279e575f80fd5b803567ffffffffffffffff8111156127b8576127b86126db565b6127e960207fffffffffffffffffffffffffffffffffffffffffffffffffffffffffffffffe0601f84011601612708565b8181528660208385010111156127fd575f80fd5b816020840160208301375f602083830101528093505050509250929050565b602081525f6114e06020830184612626565b602081525f82518060208401528060208501604085015e5f6040828501015260407fffffffffffffffffffffffffffffffffffffffffffffffffffffffffffffffe0601f83011684010191505092915050565b5f60208284031215612891575f80fd5b815180151581146114e0575f80fd5b7f4e487b71000000000000000000000000000000000000000000000000000000005f52603260045260245ffd5b7f4e487b71000000000000000000000000000000000000000000000000000000005f52601160045260245ffd5b80820180821115610478576104786128cd565b5f6020828403121561291d575f80fd5b815167ffffffffffffffff811115612933575f80fd5b8201601f81018413612943575f80fd5b805167ffffffffffffffff81111561295d5761295d6126db565b8060051b61296d60208201612708565b91825260208184018101929081019087841115612988575f80fd5b6020850194505b838510156129ae5784518083526020958601959093509091019061298f565b979650505050505050565b8082028115828204841417610478576104786128cd565b5f82612a03577f4e487b71000000000000000000000000000000000000000000000000000000005f52601260045260245ffd5b500490565b5f60208284031215612a18575f80fd5b81516114e0816125db565b5f60208284031215612a33575f80fd5b5051919050565b5f60208284031215612a4a575f80fd5b815160ff811681146114e0575f80fd5b60ff8281168282160390811115610478576104786128cd565b6001815b6001841115612aae57808504811115612a9257612a926128cd565b6001841615612aa057908102905b60019390931c928002612a77565b935093915050565b5f82612ac457506001610478565b81612ad057505f610478565b8160018114612ae65760028114612af057612b0c565b6001915050610478565b60ff841115612b0157612b016128cd565b50506001821b610478565b5060208310610133831016604e8410600b8410161715612b2f575081810a610478565b612b5a7fffffffffffffffffffffffffffffffffffffffffffffffffffffffffffffffff8484612a73565b807fffffffffffffffffffffffffffffffffffffffffffffffffffffffffffffffff04821115612b8c57612b8c6128cd565b029392505050565b5f6114e060ff841683612ab6565b5f82518060208501845e5f92019182525091905056fea164736f6c634300081a000a","linkReferences":{}},"methodIdentifiers":{"DEFAULT_ADMIN_ROLE()":"a217fddf","UPGRADE_INTERFACE_VERSION()":"ad3cb1cc","getRoleAdmin(bytes32)":"248a9ca3","grantRole(bytes32,address)":"2f2ff15d","hasRole(bytes32,address)":"91d14854","honeyFactory()":"b0c1e005","initialize(address,address)":"485cc955","previewMintCollaterals(address,uint256)":"ce160037","previewMintHoney(address,uint256)":"2c2967bd","previewRedeemCollaterals(address,uint256)":"a5e8b8c5","previewRedeemHoney(address,uint256)":"3a9895f0","proxiableUUID()":"52d1902d","renounceRole(bytes32,address)":"36568abe","revokeRole(bytes32,address)":"d547741f","supportsInterface(bytes4)":"01ffc9a7","upgradeToAndCall(address,bytes)":"4f1ef286"},"storageLayout":{"storage":[{"astId":75004,"contract":"src/honey/HoneyFactoryReader.sol:HoneyFactoryReader","label":"honeyFactory","offset":0,"slot":"0","type":"t_contract(HoneyFactory)74974"}],"types":{"t_contract(HoneyFactory)74974":{"encoding":"inplace","label":"contract HoneyFactory","numberOfBytes":"20"}}},"id":124}