{"abi":[{"type":"constructor","inputs":[{"name":"governance","type":"address","internalType":"address"},{"name":"oracleSalt","type":"uint256","internalType":"uint256"}],"stateMutability":"nonpayable"},{"type":"function","name":"_CREATE2_FACTORY","inputs":[],"outputs":[{"name":"","type":"address","internalType":"address"}],"stateMutability":"view"},{"type":"function","name":"oracle","inputs":[],"outputs":[{"name":"","type":"address","internalType":"contract PythPriceOracle"}],"stateMutability":"view"},{"type":"error","name":"DeploymentFailed","inputs":[]}],"bytecode":{"object":"0x60a060405234801561000f575f80fd5b5060405161225f38038061225f83398101604081905261002e916101b5565b5f61005b5f604051806020016100439061019b565b601f1982820381018352601f909101166040526100cb565b9050610067818361010f565b6001600160a01b03908116608081905260405163189acdbd60e31b815291851660048301529063c4d66de8906024015f604051808303815f87803b1580156100ad575f80fd5b505af11580156100bf573d5f803e3d5ffd5b50505050505050610263565b5f815183835260145f60208301855f734e59b44847b379578588920ca78fbf26c0b4956c5af16101025763301164255f526004601cfd5b5f5192525060601c919050565b5f6101228261011d85610129565b6100cb565b9392505050565b60606040518060200161013b906101a8565b601f1982820381018352601f90910116602081810160409081525f8352516101679286929091016101ec565b60408051601f19818403018152908290526101859291602001610247565b6040516020818303038152906040529050919050565b611b898061032283390190565b6103b480611eab83390190565b5f80604083850312156101c6575f80fd5b82516001600160a01b03811681146101dc575f80fd5b6020939093015192949293505050565b60018060a01b0383168152604060208201525f82518060408401528060208501606085015e5f606082850101526060601f19601f8301168401019150509392505050565b5f81518060208401855e5f93019283525090919050565b5f61025b6102558386610230565b84610230565b949350505050565b60805160aa6102785f395f6038015260aa5ff3fe6080604052348015600e575f80fd5b50600436106030575f3560e01c80637dc0d1d0146034578063ecef2533146083575b5f80fd5b605a7f000000000000000000000000000000000000000000000000000000000000000081565b60405173ffffffffffffffffffffffffffffffffffffffff909116815260200160405180910390f35b605a734e59b44847b379578588920ca78fbf26c0b4956c8156fea164736f6c634300081a000a60a060405230608052348015610013575f80fd5b5061001c610021565b6100d3565b7ff0c57e16840df040f15088dc2f81fe391c3923bec73e23a9662efc9c229c6a00805468010000000000000000900460ff16156100715760405163f92ee8a960e01b815260040160405180910390fd5b80546001600160401b03908116146100d05780546001600160401b0319166001600160401b0390811782556040519081527fc7f505b2f371ae2175ee4913f4499e1f2633a7b5936321eed1cdaeb6115181d29060200160405180910390a15b50565b608051611a906100f95f395f818161104f01528181611078015261129c0152611a905ff3fe608060405260043610610157575f3560e01c8063a3c86ecc116100bb578063c4d66de811610071578063ec87621c11610057578063ec87621c14610448578063f989568d1461047b578063f98d06f01461049a575f80fd5b8063c4d66de81461040a578063d547741f14610429575f80fd5b8063adcb085a116100a1578063adcb085a146103ad578063b5641f3a146103cc578063c442b439146103eb575f80fd5b8063a3c86ecc14610339578063ad3cb1cc14610358575f80fd5b806341976e091161011057806352d1902d116100f657806352d1902d146102a257806391d14854146102b6578063a217fddf14610326575f80fd5b806341976e09146102555780634f1ef2861461028f575f80fd5b80632f2ff15d116101405780632f2ff15d146101ea5780632fba4aa91461020b57806336568abe14610236575f80fd5b806301ffc9a71461015b578063248a9ca31461018f575b5f80fd5b348015610166575f80fd5b5061017a61017536600461173b565b6104ea565b60405190151581526020015b60405180910390f35b34801561019a575f80fd5b506101dc6101a936600461177a565b5f9081527f02dd7bc7dec4dceedda775e58dd541e08a116c6c53815c0bd028192f7b626800602052604090206001015490565b604051908152602001610186565b3480156101f5575f80fd5b506102096102043660046117b9565b610582565b005b348015610216575f80fd5b506101dc6102253660046117e3565b60016020525f908152604090205481565b348015610241575f80fd5b506102096102503660046117b9565b6105cb565b348015610260575f80fd5b5061027461026f3660046117e3565b610629565b60408051825181526020928301519281019290925201610186565b61020961029d3660046118a1565b610726565b3480156102ad575f80fd5b506101dc610745565b3480156102c1575f80fd5b5061017a6102d03660046117b9565b5f9182527f02dd7bc7dec4dceedda775e58dd541e08a116c6c53815c0bd028192f7b6268006020908152604080842073ffffffffffffffffffffffffffffffffffffffff93909316845291905290205460ff1690565b348015610331575f80fd5b506101dc5f81565b348015610344575f80fd5b506102096103533660046117e3565b610773565b348015610363575f80fd5b506103a06040518060400160405280600581526020017f352e302e3000000000000000000000000000000000000000000000000000000081525081565b6040516101869190611964565b3480156103b8575f80fd5b506102096103c73660046119b7565b610838565b3480156103d7575f80fd5b5061017a6103e63660046117e3565b610958565b3480156103f6575f80fd5b506102746104053660046119b7565b610984565b348015610415575f80fd5b506102096104243660046117e3565b610a88565b348015610434575f80fd5b506102096104433660046117b9565b610c01565b348015610453575f80fd5b506101dc7f241ecf16d79d0f8dbfb92cbc07fe17840425976cf0667f022fe9877caa831b0881565b348015610486575f80fd5b506102746104953660046117e3565b610c44565b3480156104a5575f80fd5b505f546104c59073ffffffffffffffffffffffffffffffffffffffff1681565b60405173ffffffffffffffffffffffffffffffffffffffff9091168152602001610186565b5f7fffffffff0000000000000000000000000000000000000000000000000000000082167f7965db0b00000000000000000000000000000000000000000000000000000000148061057c57507f01ffc9a7000000000000000000000000000000000000000000000000000000007fffffffff000000000000000000000000000000000000000000000000000000008316145b92915050565b5f8281527f02dd7bc7dec4dceedda775e58dd541e08a116c6c53815c0bd028192f7b62680060205260409020600101546105bb81610cf4565b6105c58383610d01565b50505050565b73ffffffffffffffffffffffffffffffffffffffff8116331461061a576040517f6697b23200000000000000000000000000000000000000000000000000000000815260040160405180910390fd5b6106248282610e1f565b505050565b604080518082019091525f808252602082015261064582610efb565b610673576106737ffd0869010000000000000000000000000000000000000000000000000000000083610f57565b5f805473ffffffffffffffffffffffffffffffffffffffff8481168352600160205260408084205490517f31d98b3f00000000000000000000000000000000000000000000000000000000815260048101919091529116906331d98b3f906024015b608060405180830381865afa1580156106f0573d5f803e3d5ffd5b505050506040513d601f19601f8201168201806040525081019061071491906119df565b905061071f81610f63565b9392505050565b61072e611037565b6107378261113d565b6107418282611146565b5050565b5f61074e611284565b507f360894a13ba1a3210667c828492db98dca3e2076cc3735a920a3ca505d382bbc90565b61077c5f610cf4565b73ffffffffffffffffffffffffffffffffffffffff81166107c0576107c07fd92e233d000000000000000000000000000000000000000000000000000000006112f3565b5f80547fffffffffffffffffffffffff00000000000000000000000000000000000000001673ffffffffffffffffffffffffffffffffffffffff83169081179091556040519081527f0e05ae75e8b926552cf6fcd744d19f422561e3ced1e426868730852702dbe4189060200160405180910390a150565b6108617f241ecf16d79d0f8dbfb92cbc07fe17840425976cf0667f022fe9877caa831b08610cf4565b73ffffffffffffffffffffffffffffffffffffffff82166108a5576108a57fd92e233d000000000000000000000000000000000000000000000000000000006112f3565b806108d3576108d37f45423193000000000000000000000000000000000000000000000000000000006112f3565b73ffffffffffffffffffffffffffffffffffffffff82165f90815260016020526040902081905561090382610629565b508173ffffffffffffffffffffffffffffffffffffffff167f7e3c2d246cbe7b2f3dad3ac4b00123f59b6e0f3938c9b8eec598a6cf08e8bbda8260405161094c91815260200190565b60405180910390a25050565b5f61096282610efb565b61096d57505f919050565b5f61097783610c44565b6020015115159392505050565b604080518082019091525f80825260208201526109a083610efb565b6109ce576109ce7ffd0869010000000000000000000000000000000000000000000000000000000084610f57565b5f805473ffffffffffffffffffffffffffffffffffffffff8581168352600160205260408084205490517fa4ae35e000000000000000000000000000000000000000000000000000000000815260048101919091526024810186905291169063a4ae35e090604401608060405180830381865afa158015610a51573d5f803e3d5ffd5b505050506040513d601f19601f82011682018060405250810190610a7591906119df565b9050610a8081610f63565b949350505050565b5f610a916112fb565b805490915060ff68010000000000000000820416159067ffffffffffffffff165f81158015610abd5750825b90505f8267ffffffffffffffff166001148015610ad95750303b155b905081158015610ae7575080155b15610b1e576040517ff92ee8a900000000000000000000000000000000000000000000000000000000815260040160405180910390fd5b84547fffffffffffffffffffffffffffffffffffffffffffffffff00000000000000001660011785558315610b7f5784547fffffffffffffffffffffffffffffffffffffffffffffff00ffffffffffffffff16680100000000000000001785555b610b87611323565b610b8f611323565b610b988661132b565b8315610bf95784547fffffffffffffffffffffffffffffffffffffffffffffff00ffffffffffffffff168555604051600181527fc7f505b2f371ae2175ee4913f4499e1f2633a7b5936321eed1cdaeb6115181d29060200160405180910390a15b505050505050565b5f8281527f02dd7bc7dec4dceedda775e58dd541e08a116c6c53815c0bd028192f7b6268006020526040902060010154610c3a81610cf4565b6105c58383610e1f565b604080518082019091525f8082526020820152610c6082610efb565b610c8e57610c8e7ffd0869010000000000000000000000000000000000000000000000000000000083610f57565b5f805473ffffffffffffffffffffffffffffffffffffffff8481168352600160205260408084205490517f96834ad300000000000000000000000000000000000000000000000000000000815260048101919091529116906396834ad3906024016106d5565b610cfe8133611381565b50565b5f8281527f02dd7bc7dec4dceedda775e58dd541e08a116c6c53815c0bd028192f7b6268006020818152604080842073ffffffffffffffffffffffffffffffffffffffff8616855290915282205460ff16610e16575f8481526020828152604080832073ffffffffffffffffffffffffffffffffffffffff87168452909152902080547fffffffffffffffffffffffffffffffffffffffffffffffffffffffffffffff00166001179055610db23390565b73ffffffffffffffffffffffffffffffffffffffff168373ffffffffffffffffffffffffffffffffffffffff16857f2f8788117e7eff1d82e926ec794901d17c78024a50270940304540a733656f0d60405160405180910390a4600191505061057c565b5f91505061057c565b5f8281527f02dd7bc7dec4dceedda775e58dd541e08a116c6c53815c0bd028192f7b6268006020818152604080842073ffffffffffffffffffffffffffffffffffffffff8616855290915282205460ff1615610e16575f8481526020828152604080832073ffffffffffffffffffffffffffffffffffffffff8716808552925280832080547fffffffffffffffffffffffffffffffffffffffffffffffffffffffffffffff0016905551339287917ff6391f5c32d9c69d2a47ea670b442974b53935d1edc7fd64eb21e047a839171b9190a4600191505061057c565b5f805473ffffffffffffffffffffffffffffffffffffffff16610f1f57505f919050565b73ffffffffffffffffffffffffffffffffffffffff82165f90815260016020526040902054610f4f57505f919050565b506001919050565b815f528060045260245ffd5b6040805180820182525f808252602082015281518083018084528451938501517fb55522b20000000000000000000000000000000000000000000000000000000090915260079390930b604482015260039290920b606483015260126084830152908073__$65759db3abb9c68754ca4eab7e42deed6d$__63b55522b260a48301602060405180830381865af4158015610fff573d5f803e3d5ffd5b505050506040513d601f19601f820116820180604052508101906110239190611a56565b815260200183606001518152509050919050565b3073ffffffffffffffffffffffffffffffffffffffff7f000000000000000000000000000000000000000000000000000000000000000016148061110457507f000000000000000000000000000000000000000000000000000000000000000073ffffffffffffffffffffffffffffffffffffffff166110eb7f360894a13ba1a3210667c828492db98dca3e2076cc3735a920a3ca505d382bbc5473ffffffffffffffffffffffffffffffffffffffff1690565b73ffffffffffffffffffffffffffffffffffffffff1614155b1561113b576040517fe07c8dba00000000000000000000000000000000000000000000000000000000815260040160405180910390fd5b565b610cfe5f610cf4565b8173ffffffffffffffffffffffffffffffffffffffff166352d1902d6040518163ffffffff1660e01b8152600401602060405180830381865afa9250505080156111cb575060408051601f3d9081017fffffffffffffffffffffffffffffffffffffffffffffffffffffffffffffffe01682019092526111c891810190611a56565b60015b61121e576040517f4c9c8ce300000000000000000000000000000000000000000000000000000000815273ffffffffffffffffffffffffffffffffffffffff831660048201526024015b60405180910390fd5b7f360894a13ba1a3210667c828492db98dca3e2076cc3735a920a3ca505d382bbc811461127a576040517faa1d49a400000000000000000000000000000000000000000000000000000000815260048101829052602401611215565b6106248383611427565b3073ffffffffffffffffffffffffffffffffffffffff7f0000000000000000000000000000000000000000000000000000000000000000161461113b576040517fe07c8dba00000000000000000000000000000000000000000000000000000000815260040160405180910390fd5b805f5260045ffd5b5f807ff0c57e16840df040f15088dc2f81fe391c3923bec73e23a9662efc9c229c6a0061057c565b61113b611489565b611333611489565b73ffffffffffffffffffffffffffffffffffffffff8116611377576113777fd92e233d000000000000000000000000000000000000000000000000000000006112f3565b6107415f82610d01565b5f8281527f02dd7bc7dec4dceedda775e58dd541e08a116c6c53815c0bd028192f7b6268006020908152604080832073ffffffffffffffffffffffffffffffffffffffff8516845290915290205460ff16610741576040517fe2517d3f00000000000000000000000000000000000000000000000000000000815273ffffffffffffffffffffffffffffffffffffffff8216600482015260248101839052604401611215565b611430826114c7565b60405173ffffffffffffffffffffffffffffffffffffffff8316907fbc7cd75a20ee27fd9adebab32041f755214dbc6bffa90cc0225b39da2e5c2d3b905f90a2805115611481576106248282611595565b610741611614565b61149161164c565b61113b576040517fd7e6bcf800000000000000000000000000000000000000000000000000000000815260040160405180910390fd5b8073ffffffffffffffffffffffffffffffffffffffff163b5f0361152f576040517f4c9c8ce300000000000000000000000000000000000000000000000000000000815273ffffffffffffffffffffffffffffffffffffffff82166004820152602401611215565b7f360894a13ba1a3210667c828492db98dca3e2076cc3735a920a3ca505d382bbc80547fffffffffffffffffffffffff00000000000000000000000000000000000000001673ffffffffffffffffffffffffffffffffffffffff92909216919091179055565b60605f808473ffffffffffffffffffffffffffffffffffffffff16846040516115be9190611a6d565b5f60405180830381855af49150503d805f81146115f6576040519150601f19603f3d011682016040523d82523d5f602084013e6115fb565b606091505b509150915061160b85838361166a565b95945050505050565b341561113b576040517fb398979f00000000000000000000000000000000000000000000000000000000815260040160405180910390fd5b5f6116556112fb565b5468010000000000000000900460ff16919050565b60608261167f5761167a826116f9565b61071f565b81511580156116a3575073ffffffffffffffffffffffffffffffffffffffff84163b155b156116f2576040517f9996b31500000000000000000000000000000000000000000000000000000000815273ffffffffffffffffffffffffffffffffffffffff85166004820152602401611215565b5092915050565b8051156117095780518082602001fd5b6040517fd6bda27500000000000000000000000000000000000000000000000000000000815260040160405180910390fd5b5f6020828403121561174b575f80fd5b81357fffffffff000000000000000000000000000000000000000000000000000000008116811461071f575f80fd5b5f6020828403121561178a575f80fd5b5035919050565b803573ffffffffffffffffffffffffffffffffffffffff811681146117b4575f80fd5b919050565b5f80604083850312156117ca575f80fd5b823591506117da60208401611791565b90509250929050565b5f602082840312156117f3575f80fd5b61071f82611791565b7f4e487b71000000000000000000000000000000000000000000000000000000005f52604160045260245ffd5b6040516080810167ffffffffffffffff8111828210171561184c5761184c6117fc565b60405290565b604051601f82017fffffffffffffffffffffffffffffffffffffffffffffffffffffffffffffffe016810167ffffffffffffffff81118282101715611899576118996117fc565b604052919050565b5f80604083850312156118b2575f80fd5b6118bb83611791565b9150602083013567ffffffffffffffff8111156118d6575f80fd5b8301601f810185136118e6575f80fd5b803567ffffffffffffffff811115611900576119006117fc565b61193160207fffffffffffffffffffffffffffffffffffffffffffffffffffffffffffffffe0601f84011601611852565b818152866020838501011115611945575f80fd5b816020840160208301375f602083830101528093505050509250929050565b602081525f82518060208401528060208501604085015e5f6040828501015260407fffffffffffffffffffffffffffffffffffffffffffffffffffffffffffffffe0601f83011684010191505092915050565b5f80604083850312156119c8575f80fd5b6119d183611791565b946020939093013593505050565b5f60808284031280156119f0575f80fd5b506119f9611829565b82518060070b8114611a09575f80fd5b8152602083015167ffffffffffffffff81168114611a25575f80fd5b60208201526040830151600381900b8114611a3e575f80fd5b60408201526060928301519281019290925250919050565b5f60208284031215611a66575f80fd5b5051919050565b5f82518060208501845e5f92019182525091905056fea164736f6c634300081a000a60806040526040516103b43803806103b48339810160408190526100229161023c565b61002c8282610033565b5050610321565b61003c82610091565b6040516001600160a01b038316907fbc7cd75a20ee27fd9adebab32041f755214dbc6bffa90cc0225b39da2e5c2d3b905f90a280511561008557610080828261010c565b505050565b61008d61017f565b5050565b806001600160a01b03163b5f036100cb57604051634c9c8ce360e01b81526001600160a01b03821660048201526024015b60405180910390fd5b7f360894a13ba1a3210667c828492db98dca3e2076cc3735a920a3ca505d382bbc80546001600160a01b0319166001600160a01b0392909216919091179055565b60605f80846001600160a01b031684604051610128919061030b565b5f60405180830381855af49150503d805f8114610160576040519150601f19603f3d011682016040523d82523d5f602084013e610165565b606091505b5090925090506101768583836101a0565b95945050505050565b341561019e5760405163b398979f60e01b815260040160405180910390fd5b565b6060826101b5576101b0826101ff565b6101f8565b81511580156101cc57506001600160a01b0384163b155b156101f557604051639996b31560e01b81526001600160a01b03851660048201526024016100c2565b50805b9392505050565b80511561020f5780518082602001fd5b60405163d6bda27560e01b815260040160405180910390fd5b634e487b7160e01b5f52604160045260245ffd5b5f806040838503121561024d575f80fd5b82516001600160a01b0381168114610263575f80fd5b60208401519092506001600160401b0381111561027e575f80fd5b8301601f8101851361028e575f80fd5b80516001600160401b038111156102a7576102a7610228565b604051601f8201601f19908116603f011681016001600160401b03811182821017156102d5576102d5610228565b6040528181528282016020018710156102ec575f80fd5b8160208401602083015e5f602083830101528093505050509250929050565b5f82518060208501845e5f920191825250919050565b60878061032d5f395ff3fe6080604052600a600c565b005b60186014601a565b605d565b565b5f60587f360894a13ba1a3210667c828492db98dca3e2076cc3735a920a3ca505d382bbc5473ffffffffffffffffffffffffffffffffffffffff1690565b905090565b365f80375f80365f845af43d5f803e8080156076573d5ff35b3d5ffdfea164736f6c634300081a000a","linkReferences":{"node_modules/@pythnetwork/pyth-sdk-solidity/PythUtils.sol":{"PythUtils":[{"start":5091,"length":20}]}}},"methodIdentifiers":{"_CREATE2_FACTORY()":"ecef2533","oracle()":"7dc0d1d0"},"storageLayout":{"storage":[],"types":{}},"id":114}