{"abi":[{"type":"constructor","inputs":[],"stateMutability":"nonpayable"},{"type":"function","name":"DEFAULT_ADMIN_ROLE","inputs":[],"outputs":[{"name":"","type":"bytes32","internalType":"bytes32"}],"stateMutability":"view"},{"type":"function","name":"MANAGER_ROLE","inputs":[],"outputs":[{"name":"","type":"bytes32","internalType":"bytes32"}],"stateMutability":"view"},{"type":"function","name":"MAX_REWARD_CLAIM_DELAY","inputs":[],"outputs":[{"name":"","type":"uint64","internalType":"uint64"}],"stateMutability":"view"},{"type":"function","name":"PAUSER_ROLE","inputs":[],"outputs":[{"name":"","type":"bytes32","internalType":"bytes32"}],"stateMutability":"view"},{"type":"function","name":"UPGRADE_INTERFACE_VERSION","inputs":[],"outputs":[{"name":"","type":"string","internalType":"string"}],"stateMutability":"view"},{"type":"function","name":"claim","inputs":[{"name":"_claims","type":"tuple[]","internalType":"struct IBGTIncentiveDistributor.Claim[]","components":[{"name":"identifier","type":"bytes32","internalType":"bytes32"},{"name":"account","type":"address","internalType":"address"},{"name":"amount","type":"uint256","internalType":"uint256"},{"name":"merkleProof","type":"bytes32[]","internalType":"bytes32[]"}]}],"outputs":[],"stateMutability":"nonpayable"},{"type":"function","name":"claimed","inputs":[{"name":"","type":"bytes32","internalType":"bytes32"},{"name":"","type":"address","internalType":"address"}],"outputs":[{"name":"","type":"uint256","internalType":"uint256"}],"stateMutability":"view"},{"type":"function","name":"getRoleAdmin","inputs":[{"name":"role","type":"bytes32","internalType":"bytes32"}],"outputs":[{"name":"","type":"bytes32","internalType":"bytes32"}],"stateMutability":"view"},{"type":"function","name":"grantRole","inputs":[{"name":"role","type":"bytes32","internalType":"bytes32"},{"name":"account","type":"address","internalType":"address"}],"outputs":[],"stateMutability":"nonpayable"},{"type":"function","name":"hasRole","inputs":[{"name":"role","type":"bytes32","internalType":"bytes32"},{"name":"account","type":"address","internalType":"address"}],"outputs":[{"name":"","type":"bool","internalType":"bool"}],"stateMutability":"view"},{"type":"function","name":"incentiveTokensPerValidator","inputs":[{"name":"","type":"bytes","internalType":"bytes"},{"name":"","type":"address","internalType":"address"}],"outputs":[{"name":"","type":"uint256","internalType":"uint256"}],"stateMutability":"view"},{"type":"function","name":"initialize","inputs":[{"name":"_governance","type":"address","internalType":"address"}],"outputs":[],"stateMutability":"nonpayable"},{"type":"function","name":"paused","inputs":[],"outputs":[{"name":"","type":"bool","internalType":"bool"}],"stateMutability":"view"},{"type":"function","name":"proxiableUUID","inputs":[],"outputs":[{"name":"","type":"bytes32","internalType":"bytes32"}],"stateMutability":"view"},{"type":"function","name":"receiveIncentive","inputs":[{"name":"pubkey","type":"bytes","internalType":"bytes"},{"name":"token","type":"address","internalType":"address"},{"name":"_amount","type":"uint256","internalType":"uint256"}],"outputs":[],"stateMutability":"nonpayable"},{"type":"function","name":"renounceRole","inputs":[{"name":"role","type":"bytes32","internalType":"bytes32"},{"name":"callerConfirmation","type":"address","internalType":"address"}],"outputs":[],"stateMutability":"nonpayable"},{"type":"function","name":"revokeRole","inputs":[{"name":"role","type":"bytes32","internalType":"bytes32"},{"name":"account","type":"address","internalType":"address"}],"outputs":[],"stateMutability":"nonpayable"},{"type":"function","name":"rewardClaimDelay","inputs":[],"outputs":[{"name":"","type":"uint64","internalType":"uint64"}],"stateMutability":"view"},{"type":"function","name":"rewards","inputs":[{"name":"","type":"bytes32","internalType":"bytes32"}],"outputs":[{"name":"token","type":"address","internalType":"address"},{"name":"merkleRoot","type":"bytes32","internalType":"bytes32"},{"name":"proof","type":"bytes32","internalType":"bytes32"},{"name":"activeAt","type":"uint256","internalType":"uint256"},{"name":"pubkey","type":"bytes","internalType":"bytes"}],"stateMutability":"view"},{"type":"function","name":"setPauseState","inputs":[{"name":"state","type":"bool","internalType":"bool"}],"outputs":[],"stateMutability":"nonpayable"},{"type":"function","name":"setRewardClaimDelay","inputs":[{"name":"_delay","type":"uint64","internalType":"uint64"}],"outputs":[],"stateMutability":"nonpayable"},{"type":"function","name":"supportsInterface","inputs":[{"name":"interfaceId","type":"bytes4","internalType":"bytes4"}],"outputs":[{"name":"","type":"bool","internalType":"bool"}],"stateMutability":"view"},{"type":"function","name":"updateRewardsMetadata","inputs":[{"name":"_distributions","type":"tuple[]","internalType":"struct IBGTIncentiveDistributor.Distribution[]","components":[{"name":"identifier","type":"bytes32","internalType":"bytes32"},{"name":"pubkey","type":"bytes","internalType":"bytes"},{"name":"token","type":"address","internalType":"address"},{"name":"merkleRoot","type":"bytes32","internalType":"bytes32"},{"name":"proof","type":"bytes32","internalType":"bytes32"}]}],"outputs":[],"stateMutability":"nonpayable"},{"type":"function","name":"upgradeToAndCall","inputs":[{"name":"newImplementation","type":"address","internalType":"address"},{"name":"data","type":"bytes","internalType":"bytes"}],"outputs":[],"stateMutability":"payable"},{"type":"event","name":"IncentiveReceived","inputs":[{"name":"pubkey","type":"bytes","indexed":true,"internalType":"bytes"},{"name":"token","type":"address","indexed":true,"internalType":"address"},{"name":"amount","type":"uint256","indexed":false,"internalType":"uint256"}],"anonymous":false},{"type":"event","name":"Initialized","inputs":[{"name":"version","type":"uint64","indexed":false,"internalType":"uint64"}],"anonymous":false},{"type":"event","name":"Paused","inputs":[{"name":"account","type":"address","indexed":false,"internalType":"address"}],"anonymous":false},{"type":"event","name":"RewardClaimDelaySet","inputs":[{"name":"delay","type":"uint64","indexed":false,"internalType":"uint64"}],"anonymous":false},{"type":"event","name":"RewardClaimed","inputs":[{"name":"identifier","type":"bytes32","indexed":true,"internalType":"bytes32"},{"name":"token","type":"address","indexed":true,"internalType":"address"},{"name":"account","type":"address","indexed":true,"internalType":"address"},{"name":"pubkey","type":"bytes","indexed":false,"internalType":"bytes"},{"name":"amount","type":"uint256","indexed":false,"internalType":"uint256"}],"anonymous":false},{"type":"event","name":"RewardMetadataUpdated","inputs":[{"name":"identifier","type":"bytes32","indexed":true,"internalType":"bytes32"},{"name":"pubkey","type":"bytes","indexed":true,"internalType":"bytes"},{"name":"token","type":"address","indexed":true,"internalType":"address"},{"name":"merkleRoot","type":"bytes32","indexed":false,"internalType":"bytes32"},{"name":"proof","type":"bytes32","indexed":false,"internalType":"bytes32"},{"name":"activeAt","type":"uint256","indexed":false,"internalType":"uint256"}],"anonymous":false},{"type":"event","name":"RoleAdminChanged","inputs":[{"name":"role","type":"bytes32","indexed":true,"internalType":"bytes32"},{"name":"previousAdminRole","type":"bytes32","indexed":true,"internalType":"bytes32"},{"name":"newAdminRole","type":"bytes32","indexed":true,"internalType":"bytes32"}],"anonymous":false},{"type":"event","name":"RoleGranted","inputs":[{"name":"role","type":"bytes32","indexed":true,"internalType":"bytes32"},{"name":"account","type":"address","indexed":true,"internalType":"address"},{"name":"sender","type":"address","indexed":true,"internalType":"address"}],"anonymous":false},{"type":"event","name":"RoleRevoked","inputs":[{"name":"role","type":"bytes32","indexed":true,"internalType":"bytes32"},{"name":"account","type":"address","indexed":true,"internalType":"address"},{"name":"sender","type":"address","indexed":true,"internalType":"address"}],"anonymous":false},{"type":"event","name":"Unpaused","inputs":[{"name":"account","type":"address","indexed":false,"internalType":"address"}],"anonymous":false},{"type":"event","name":"Upgraded","inputs":[{"name":"implementation","type":"address","indexed":true,"internalType":"address"}],"anonymous":false},{"type":"error","name":"AccessControlBadConfirmation","inputs":[]},{"type":"error","name":"AccessControlUnauthorizedAccount","inputs":[{"name":"account","type":"address","internalType":"address"},{"name":"neededRole","type":"bytes32","internalType":"bytes32"}]},{"type":"error","name":"AddressEmptyCode","inputs":[{"name":"target","type":"address","internalType":"address"}]},{"type":"error","name":"AmountLessThanMinIncentiveRate","inputs":[]},{"type":"error","name":"CannotRecoverIncentiveToken","inputs":[]},{"type":"error","name":"CannotRecoverRewardToken","inputs":[]},{"type":"error","name":"CannotRecoverStakingToken","inputs":[]},{"type":"error","name":"CommissionChangeAlreadyQueued","inputs":[]},{"type":"error","name":"CommissionNotQueuedOrDelayNotPassed","inputs":[]},{"type":"error","name":"DepositNotMultipleOfGwei","inputs":[]},{"type":"error","name":"DepositValueTooHigh","inputs":[]},{"type":"error","name":"DonateAmountLessThanPayoutAmount","inputs":[]},{"type":"error","name":"ERC1967InvalidImplementation","inputs":[{"name":"implementation","type":"address","internalType":"address"}]},{"type":"error","name":"ERC1967NonPayable","inputs":[]},{"type":"error","name":"EnforcedPause","inputs":[]},{"type":"error","name":"ExpectedPause","inputs":[]},{"type":"error","name":"FailedCall","inputs":[]},{"type":"error","name":"IncentiveRateTooHigh","inputs":[]},{"type":"error","name":"IndexOutOfRange","inputs":[]},{"type":"error","name":"InsolventReward","inputs":[]},{"type":"error","name":"InsufficientDelegateStake","inputs":[]},{"type":"error","name":"InsufficientDeposit","inputs":[]},{"type":"error","name":"InsufficientIncentiveTokens","inputs":[]},{"type":"error","name":"InsufficientSelfStake","inputs":[]},{"type":"error","name":"InsufficientStake","inputs":[]},{"type":"error","name":"InvalidActivateBoostDelay","inputs":[]},{"type":"error","name":"InvalidArray","inputs":[]},{"type":"error","name":"InvalidBaseRate","inputs":[]},{"type":"error","name":"InvalidBoostMultiplier","inputs":[]},{"type":"error","name":"InvalidCommissionChangeDelay","inputs":[]},{"type":"error","name":"InvalidCommissionValue","inputs":[]},{"type":"error","name":"InvalidCredentialsLength","inputs":[]},{"type":"error","name":"InvalidDistribution","inputs":[]},{"type":"error","name":"InvalidDropBoostDelay","inputs":[]},{"type":"error","name":"InvalidIncentiveRate","inputs":[]},{"type":"error","name":"InvalidInitialization","inputs":[]},{"type":"error","name":"InvalidMaxIncentiveTokensCount","inputs":[]},{"type":"error","name":"InvalidMaxWeightPerVault","inputs":[]},{"type":"error","name":"InvalidMerkleRoot","inputs":[]},{"type":"error","name":"InvalidMinBoostedRewardRate","inputs":[]},{"type":"error","name":"InvalidProof","inputs":[]},{"type":"error","name":"InvalidPubKeyLength","inputs":[]},{"type":"error","name":"InvalidRewardAllocationWeights","inputs":[]},{"type":"error","name":"InvalidRewardClaimDelay","inputs":[]},{"type":"error","name":"InvalidRewardConvexity","inputs":[]},{"type":"error","name":"InvalidRewardRate","inputs":[]},{"type":"error","name":"InvalidSignatureLength","inputs":[]},{"type":"error","name":"InvalidStartBlock","inputs":[]},{"type":"error","name":"InvalidToken","inputs":[]},{"type":"error","name":"InvalidWeight","inputs":[]},{"type":"error","name":"InvalidateDefaultRewardAllocation","inputs":[]},{"type":"error","name":"InvariantCheckFailed","inputs":[]},{"type":"error","name":"MaxNumWeightsPerRewardAllocationIsZero","inputs":[]},{"type":"error","name":"MinIncentiveRateIsZero","inputs":[]},{"type":"error","name":"NotAContract","inputs":[]},{"type":"error","name":"NotApprovedSender","inputs":[]},{"type":"error","name":"NotBGT","inputs":[]},{"type":"error","name":"NotBlockRewardController","inputs":[]},{"type":"error","name":"NotDelegate","inputs":[]},{"type":"error","name":"NotDistributor","inputs":[]},{"type":"error","name":"NotEnoughBalance","inputs":[]},{"type":"error","name":"NotEnoughBoostedBalance","inputs":[]},{"type":"error","name":"NotEnoughTime","inputs":[]},{"type":"error","name":"NotFactoryVault","inputs":[]},{"type":"error","name":"NotFeeCollector","inputs":[]},{"type":"error","name":"NotIncentiveManager","inputs":[]},{"type":"error","name":"NotInitializing","inputs":[]},{"type":"error","name":"NotNewOperator","inputs":[]},{"type":"error","name":"NotOperator","inputs":[]},{"type":"error","name":"NotWhitelistedVault","inputs":[]},{"type":"error","name":"OperatorAlreadySet","inputs":[]},{"type":"error","name":"PayoutAmountIsZero","inputs":[]},{"type":"error","name":"ReentrancyGuardReentrantCall","inputs":[]},{"type":"error","name":"RewardAllocationAlreadyQueued","inputs":[]},{"type":"error","name":"RewardAllocationBlockDelayTooLarge","inputs":[]},{"type":"error","name":"RewardCycleNotEnded","inputs":[]},{"type":"error","name":"RewardInactive","inputs":[]},{"type":"error","name":"RewardsDurationIsZero","inputs":[]},{"type":"error","name":"SafeERC20FailedOperation","inputs":[{"name":"token","type":"address","internalType":"address"}]},{"type":"error","name":"StakeAmountIsZero","inputs":[]},{"type":"error","name":"TimestampAlreadyProcessed","inputs":[]},{"type":"error","name":"TokenAlreadyWhitelistedOrLimitReached","inputs":[]},{"type":"error","name":"TokenNotWhitelisted","inputs":[]},{"type":"error","name":"TooManyWeights","inputs":[]},{"type":"error","name":"TotalSupplyOverflow","inputs":[]},{"type":"error","name":"UUPSUnauthorizedCallContext","inputs":[]},{"type":"error","name":"UUPSUnsupportedProxiableUUID","inputs":[{"name":"slot","type":"bytes32","internalType":"bytes32"}]},{"type":"error","name":"WithdrawAmountIsZero","inputs":[]},{"type":"error","name":"ZeroAddress","inputs":[]},{"type":"error","name":"ZeroOperatorOnFirstDeposit","inputs":[]},{"type":"error","name":"ZeroPercentageWeight","inputs":[]}],"bytecode":{"object":"0x60a060405230608052348015610013575f80fd5b5061001c610021565b6100d3565b7ff0c57e16840df040f15088dc2f81fe391c3923bec73e23a9662efc9c229c6a00805468010000000000000000900460ff16156100715760405163f92ee8a960e01b815260040160405180910390fd5b80546001600160401b03908116146100d05780546001600160401b0319166001600160401b0390811782556040519081527fc7f505b2f371ae2175ee4913f4499e1f2633a7b5936321eed1cdaeb6115181d29060200160405180910390a15b50565b60805161287f6100f95f395f81816111430152818161116c0152611391015261287f5ff3fe608060405260043610610183575f3560e01c8063938d967a116100d1578063cdb88ad11161007c578063e63ab1e911610057578063e63ab1e91461053e578063e6f4626f14610571578063ec87621c14610590575f80fd5b8063cdb88ad1146104ca578063d547741f146104e9578063dfcae62214610508575f80fd5b8063ae486b70116100ac578063ae486b7014610446578063bf2fd42e1461048c578063c4d66de8146104ab575f80fd5b8063938d967a146103ae578063a217fddf146103de578063ad3cb1cc146103f1575f80fd5b806352d1902d116101315780635c975abb1161010c5780635c975abb146102e95780635f5243241461031f57806391d148541461033e575f80fd5b806352d1902d146102a157806356853398146102b55780635bd568c6146102d4575f80fd5b806336568abe1161016157806336568abe1461023757806346582583146102565780634f1ef2861461028e575f80fd5b806301ffc9a714610187578063248a9ca3146101bb5780632f2ff15d14610216575b5f80fd5b348015610192575f80fd5b506101a66101a136600461208e565b6105c3565b60405190151581526020015b60405180910390f35b3480156101c6575f80fd5b506102086101d53660046120cd565b5f9081527f02dd7bc7dec4dceedda775e58dd541e08a116c6c53815c0bd028192f7b626800602052604090206001015490565b6040519081526020016101b2565b348015610221575f80fd5b5061023561023036600461210c565b61065b565b005b348015610242575f80fd5b5061023561025136600461210c565b6106a4565b348015610261575f80fd5b505f546102759067ffffffffffffffff1681565b60405167ffffffffffffffff90911681526020016101b2565b61023561029c36600461222b565b610702565b3480156102ac575f80fd5b50610208610721565b3480156102c0575f80fd5b506102356102cf3660046122be565b61074f565b3480156102df575f80fd5b50610275612a3081565b3480156102f4575f80fd5b507fcd5ed15c6e187e77e9aee88184c21f4f2182ab5827cb3b7e07fbedcd63f033005460ff166101a6565b34801561032a575f80fd5b506102356103393660046122fd565b61088a565b348015610349575f80fd5b506101a661035836600461210c565b5f9182527f02dd7bc7dec4dceedda775e58dd541e08a116c6c53815c0bd028192f7b6268006020908152604080842073ffffffffffffffffffffffffffffffffffffffff93909316845291905290205460ff1690565b3480156103b9575f80fd5b506103cd6103c83660046120cd565b61089d565b6040516101b2959493929190612370565b3480156103e9575f80fd5b506102085f81565b3480156103fc575f80fd5b506104396040518060400160405280600581526020017f352e302e3000000000000000000000000000000000000000000000000000000081525081565b6040516101b291906123bb565b348015610451575f80fd5b506102086104603660046123cd565b81516020818401810180516003825292820194820194909420919093529091525f908152604090205481565b348015610497575f80fd5b506102356104a63660046122be565b61096d565b3480156104b6575f80fd5b506102356104c536600461240f565b610bcf565b3480156104d5575f80fd5b506102356104e4366004612428565b610da8565b3480156104f4575f80fd5b5061023561050336600461210c565b610de8565b348015610513575f80fd5b5061020861052236600461210c565b600260209081525f928352604080842090915290825290205481565b348015610549575f80fd5b506102087f65d7a28e3265b37a6474929f336521b332c1681b933f6cb9f3376673440d862a81565b34801561057c575f80fd5b5061023561058b366004612447565b610e2b565b34801561059b575f80fd5b506102087f241ecf16d79d0f8dbfb92cbc07fe17840425976cf0667f022fe9877caa831b0881565b5f7fffffffff0000000000000000000000000000000000000000000000000000000082167f7965db0b00000000000000000000000000000000000000000000000000000000148061065557507f01ffc9a7000000000000000000000000000000000000000000000000000000007fffffffff000000000000000000000000000000000000000000000000000000008316145b92915050565b5f8281527f02dd7bc7dec4dceedda775e58dd541e08a116c6c53815c0bd028192f7b626800602052604090206001015461069481610f24565b61069e8383610f31565b50505050565b73ffffffffffffffffffffffffffffffffffffffff811633146106f3576040517f6697b23200000000000000000000000000000000000000000000000000000000815260040160405180910390fd5b6106fd828261104f565b505050565b61070a61112b565b61071382611231565b61071d828261123b565b5050565b5f61072a611379565b507f360894a13ba1a3210667c828492db98dca3e2076cc3735a920a3ca505d382bbc90565b6107576113e8565b61075f611469565b805f819003610791576107917f1ec5aa51000000000000000000000000000000000000000000000000000000006114c5565b5f5b8181101561085f576108578484838181106107b0576107b06124cb565b90506020028101906107c291906124f8565b358585848181106107d5576107d56124cb565b90506020028101906107e791906124f8565b6107f890604081019060200161240f565b86868581811061080a5761080a6124cb565b905060200281019061081c91906124f8565b60400135878786818110610832576108326124cb565b905060200281019061084491906124f8565b610852906060810190612534565b6114cd565b600101610793565b505061071d60017f9b779b17422d0df92223018b32b4d1fa46e071723d6817e2486d003becc55f0055565b5f61089481610f24565b61071d8261188e565b600160208190525f91825260409091208054918101546002820154600383015460048401805473ffffffffffffffffffffffffffffffffffffffff90961695939492939192916108ec90612598565b80601f016020809104026020016040519081016040528092919081815260200182805461091890612598565b80156109635780601f1061093a57610100808354040283529160200191610963565b820191905f5260205f20905b81548152906001019060200180831161094657829003601f168201915b5050505050905085565b7f241ecf16d79d0f8dbfb92cbc07fe17840425976cf0667f022fe9877caa831b0861099781610f24565b815f8190036109c9576109c97f68b5c198000000000000000000000000000000000000000000000000000000006114c5565b5f80546109e09067ffffffffffffffff16426125e9565b90505f5b82811015610bc757368686838181106109ff576109ff6124cb565b9050602002810190610a119190612621565b80355f9081526001602081815260409092206060840135918101919091556080830135600282015560038101869055919250610a4f90830183612653565b6004830191610a5f9190836126ff565b50805473ffffffffffffffffffffffffffffffffffffffff16610ad157610a8c606083016040840161240f565b81547fffffffffffffffffffffffff00000000000000000000000000000000000000001673ffffffffffffffffffffffffffffffffffffffff91909116178155610b2b565b610ae1606083016040840161240f565b815473ffffffffffffffffffffffffffffffffffffffff908116911614610b2b57610b2b7fc1ab6dc1000000000000000000000000000000000000000000000000000000006114c5565b610b3b606083016040840161240f565b73ffffffffffffffffffffffffffffffffffffffff16610b5e6020840184612653565b604051610b6c929190612815565b60408051918290038220606080870135845260808701356020850152918301889052918535917f0495aef925ff595e99f0245f2341f7981b6f5cb9249767bd3fdc2fbd832cfc13910160405180910390a450506001016109e4565b505050505050565b5f610bd8611938565b805490915060ff68010000000000000000820416159067ffffffffffffffff165f81158015610c045750825b90505f8267ffffffffffffffff166001148015610c205750303b155b905081158015610c2e575080155b15610c65576040517ff92ee8a900000000000000000000000000000000000000000000000000000000815260040160405180910390fd5b84547fffffffffffffffffffffffffffffffffffffffffffffffff00000000000000001660011785558315610cc65784547fffffffffffffffffffffffffffffffffffffffffffffff00ffffffffffffffff16680100000000000000001785555b610cce611960565b610cd6611960565b610cde611968565b610ce6611960565b73ffffffffffffffffffffffffffffffffffffffff8616610d2a57610d2a7fd92e233d000000000000000000000000000000000000000000000000000000006114c5565b610d345f87610f31565b50610d40612a3061188e565b8315610bc75784547fffffffffffffffffffffffffffffffffffffffffffffff00ffffffffffffffff168555604051600181527fc7f505b2f371ae2175ee4913f4499e1f2633a7b5936321eed1cdaeb6115181d29060200160405180910390a1505050505050565b7f65d7a28e3265b37a6474929f336521b332c1681b933f6cb9f3376673440d862a610dd281610f24565b8115610de05761071d611978565b61071d611a12565b5f8281527f02dd7bc7dec4dceedda775e58dd541e08a116c6c53815c0bd028192f7b6268006020526040902060010154610e2181610f24565b61069e838361104f565b610e4d73ffffffffffffffffffffffffffffffffffffffff8316333084611a88565b8060038585604051610e60929190612815565b90815260200160405180910390205f8473ffffffffffffffffffffffffffffffffffffffff1673ffffffffffffffffffffffffffffffffffffffff1681526020019081526020015f205f828254610eb791906125e9565b909155505060405173ffffffffffffffffffffffffffffffffffffffff831690610ee49086908690612815565b604051908190038120838252907f203d29f14e204a4dec54868e69c8e5e1194cab97dfd58477745a055ce95462959060200160405180910390a350505050565b610f2e8133611b11565b50565b5f8281527f02dd7bc7dec4dceedda775e58dd541e08a116c6c53815c0bd028192f7b6268006020818152604080842073ffffffffffffffffffffffffffffffffffffffff8616855290915282205460ff16611046575f8481526020828152604080832073ffffffffffffffffffffffffffffffffffffffff87168452909152902080547fffffffffffffffffffffffffffffffffffffffffffffffffffffffffffffff00166001179055610fe23390565b73ffffffffffffffffffffffffffffffffffffffff168373ffffffffffffffffffffffffffffffffffffffff16857f2f8788117e7eff1d82e926ec794901d17c78024a50270940304540a733656f0d60405160405180910390a46001915050610655565b5f915050610655565b5f8281527f02dd7bc7dec4dceedda775e58dd541e08a116c6c53815c0bd028192f7b6268006020818152604080842073ffffffffffffffffffffffffffffffffffffffff8616855290915282205460ff1615611046575f8481526020828152604080832073ffffffffffffffffffffffffffffffffffffffff8716808552925280832080547fffffffffffffffffffffffffffffffffffffffffffffffffffffffffffffff0016905551339287917ff6391f5c32d9c69d2a47ea670b442974b53935d1edc7fd64eb21e047a839171b9190a46001915050610655565b3073ffffffffffffffffffffffffffffffffffffffff7f00000000000000000000000000000000000000000000000000000000000000001614806111f857507f000000000000000000000000000000000000000000000000000000000000000073ffffffffffffffffffffffffffffffffffffffff166111df7f360894a13ba1a3210667c828492db98dca3e2076cc3735a920a3ca505d382bbc5473ffffffffffffffffffffffffffffffffffffffff1690565b73ffffffffffffffffffffffffffffffffffffffff1614155b1561122f576040517fe07c8dba00000000000000000000000000000000000000000000000000000000815260040160405180910390fd5b565b5f61071d81610f24565b8173ffffffffffffffffffffffffffffffffffffffff166352d1902d6040518163ffffffff1660e01b8152600401602060405180830381865afa9250505080156112c0575060408051601f3d9081017fffffffffffffffffffffffffffffffffffffffffffffffffffffffffffffffe01682019092526112bd91810190612824565b60015b611313576040517f4c9c8ce300000000000000000000000000000000000000000000000000000000815273ffffffffffffffffffffffffffffffffffffffff831660048201526024015b60405180910390fd5b7f360894a13ba1a3210667c828492db98dca3e2076cc3735a920a3ca505d382bbc811461136f576040517faa1d49a40000000000000000000000000000000000000000000000000000000081526004810182905260240161130a565b6106fd8383611bb7565b3073ffffffffffffffffffffffffffffffffffffffff7f0000000000000000000000000000000000000000000000000000000000000000161461122f576040517fe07c8dba00000000000000000000000000000000000000000000000000000000815260040160405180910390fd5b7f9b779b17422d0df92223018b32b4d1fa46e071723d6817e2486d003becc55f0080547ffffffffffffffffffffffffffffffffffffffffffffffffffffffffffffffffe01611463576040517f3ee5aeb500000000000000000000000000000000000000000000000000000000815260040160405180910390fd5b60029055565b7fcd5ed15c6e187e77e9aee88184c21f4f2182ab5827cb3b7e07fbedcd63f033005460ff161561122f576040517fd93c066500000000000000000000000000000000000000000000000000000000815260040160405180910390fd5b805f5260045ffd5b5f858152600160208181526040808420815160a081018352815473ffffffffffffffffffffffffffffffffffffffff16815293810154928401929092526002820154908301526003810154606083015260048101805460808401919061153290612598565b80601f016020809104026020016040519081016040528092919081815260200182805461155e90612598565b80156115a95780601f10611580576101008083540402835291602001916115a9565b820191905f5260205f20905b81548152906001019060200180831161158c57829003601f168201915b505050505081525050905080602001515f801b036115ea576115ea7f9dd854d3000000000000000000000000000000000000000000000000000000006114c5565b428160600151111561161f5761161f7f0995309b000000000000000000000000000000000000000000000000000000006114c5565b5f86815260026020908152604080832073ffffffffffffffffffffffffffffffffffffffff891684529091528120546116599086906125e9565b90506116c38484846020015189856040516020016116a892919060609290921b7fffffffffffffffffffffffffffffffffffffffff000000000000000000000000168252601482015260340190565b60405160208183030381529060405280519060200120611c19565b6116f0576116f07f09bde339000000000000000000000000000000000000000000000000000000006114c5565b5f87815260026020908152604080832073ffffffffffffffffffffffffffffffffffffffff8a16845290915290819020829055825160808401519151909190879060039061173f90849061283b565b908152604080516020928190038301902073ffffffffffffffffffffffffffffffffffffffff86165f9081529252902054101561179f5761179f7f75f9d00c000000000000000000000000000000000000000000000000000000006114c5565b866003826040516117b0919061283b565b908152604080516020928190038301902073ffffffffffffffffffffffffffffffffffffffff86165f81815291909352208054929092039091556117f5908989611c30565b8773ffffffffffffffffffffffffffffffffffffffff168273ffffffffffffffffffffffffffffffffffffffff168a7f7ce8a4ec16112388f8056494493886e21d9175ffdd781c0a995afe12333a681e848b604051611855929190612851565b60405180910390a4505050505050505050565b60017f9b779b17422d0df92223018b32b4d1fa46e071723d6817e2486d003becc55f0055565b612a3067ffffffffffffffff821611156118cb576118cb7f5958c647000000000000000000000000000000000000000000000000000000006114c5565b5f80547fffffffffffffffffffffffffffffffffffffffffffffffff00000000000000001667ffffffffffffffff83169081179091556040519081527fa8ddab1848b9916d3b7865d5d8d6e2f332399422e700dfa6bbc3db256c0cf502906020015b60405180910390a150565b5f807ff0c57e16840df040f15088dc2f81fe391c3923bec73e23a9662efc9c229c6a00610655565b61122f611c6e565b611970611c6e565b61122f611cac565b611980611469565b7fcd5ed15c6e187e77e9aee88184c21f4f2182ab5827cb3b7e07fbedcd63f0330080547fffffffffffffffffffffffffffffffffffffffffffffffffffffffffffffff001660011781557f62e78cea01bee320cd4e420270b5ea74000d11b0c9f74754ebdbfc544b05a258335b60405173ffffffffffffffffffffffffffffffffffffffff909116815260200161192d565b611a1a611cb4565b7fcd5ed15c6e187e77e9aee88184c21f4f2182ab5827cb3b7e07fbedcd63f0330080547fffffffffffffffffffffffffffffffffffffffffffffffffffffffffffffff001681557f5db9ee0a495bf2e6ff9c91a7834c1ba4fdd244a5e8aa4e537bd38aeae4b073aa336119ed565b60405173ffffffffffffffffffffffffffffffffffffffff848116602483015283811660448301526064820183905261069e9186918216906323b872dd906084015b604051602081830303815290604052915060e01b6020820180517bffffffffffffffffffffffffffffffffffffffffffffffffffffffff8381831617835250505050611d0f565b5f8281527f02dd7bc7dec4dceedda775e58dd541e08a116c6c53815c0bd028192f7b6268006020908152604080832073ffffffffffffffffffffffffffffffffffffffff8516845290915290205460ff1661071d576040517fe2517d3f00000000000000000000000000000000000000000000000000000000815273ffffffffffffffffffffffffffffffffffffffff821660048201526024810183905260440161130a565b611bc082611dae565b60405173ffffffffffffffffffffffffffffffffffffffff8316907fbc7cd75a20ee27fd9adebab32041f755214dbc6bffa90cc0225b39da2e5c2d3b905f90a2805115611c11576106fd8282611e7c565b61071d611efb565b5f82611c26868685611f33565b1495945050505050565b60405173ffffffffffffffffffffffffffffffffffffffff8381166024830152604482018390526106fd91859182169063a9059cbb90606401611aca565b611c76611f76565b61122f576040517fd7e6bcf800000000000000000000000000000000000000000000000000000000815260040160405180910390fd5b611868611c6e565b7fcd5ed15c6e187e77e9aee88184c21f4f2182ab5827cb3b7e07fbedcd63f033005460ff1661122f576040517f8dfc202b00000000000000000000000000000000000000000000000000000000815260040160405180910390fd5b5f8060205f8451602086015f885af180611d2e576040513d5f823e3d81fd5b50505f513d91508115611d45578060011415611d5f565b73ffffffffffffffffffffffffffffffffffffffff84163b155b1561069e576040517f5274afe700000000000000000000000000000000000000000000000000000000815273ffffffffffffffffffffffffffffffffffffffff8516600482015260240161130a565b8073ffffffffffffffffffffffffffffffffffffffff163b5f03611e16576040517f4c9c8ce300000000000000000000000000000000000000000000000000000000815273ffffffffffffffffffffffffffffffffffffffff8216600482015260240161130a565b7f360894a13ba1a3210667c828492db98dca3e2076cc3735a920a3ca505d382bbc80547fffffffffffffffffffffffff00000000000000000000000000000000000000001673ffffffffffffffffffffffffffffffffffffffff92909216919091179055565b60605f808473ffffffffffffffffffffffffffffffffffffffff1684604051611ea5919061283b565b5f60405180830381855af49150503d805f8114611edd576040519150601f19603f3d011682016040523d82523d5f602084013e611ee2565b606091505b5091509150611ef2858383611f94565b95945050505050565b341561122f576040517fb398979f00000000000000000000000000000000000000000000000000000000815260040160405180910390fd5b5f81815b84811015611f6b57611f6182878784818110611f5557611f556124cb565b90506020020135612023565b9150600101611f37565b5090505b9392505050565b5f611f7f611938565b5468010000000000000000900460ff16919050565b606082611fa957611fa48261204c565b611f6f565b8151158015611fcd575073ffffffffffffffffffffffffffffffffffffffff84163b155b1561201c576040517f9996b31500000000000000000000000000000000000000000000000000000000815273ffffffffffffffffffffffffffffffffffffffff8516600482015260240161130a565b5080611f6f565b5f81831061203d575f828152602084905260409020611f6f565b505f9182526020526040902090565b80511561205c5780518082602001fd5b6040517fd6bda27500000000000000000000000000000000000000000000000000000000815260040160405180910390fd5b5f6020828403121561209e575f80fd5b81357fffffffff0000000000000000000000000000000000000000000000000000000081168114611f6f575f80fd5b5f602082840312156120dd575f80fd5b5035919050565b803573ffffffffffffffffffffffffffffffffffffffff81168114612107575f80fd5b919050565b5f806040838503121561211d575f80fd5b8235915061212d602084016120e4565b90509250929050565b7f4e487b71000000000000000000000000000000000000000000000000000000005f52604160045260245ffd5b5f82601f830112612172575f80fd5b813567ffffffffffffffff81111561218c5761218c612136565b6040517fffffffffffffffffffffffffffffffffffffffffffffffffffffffffffffffe0603f7fffffffffffffffffffffffffffffffffffffffffffffffffffffffffffffffe0601f8501160116810181811067ffffffffffffffff821117156121f8576121f8612136565b60405281815283820160200185101561220f575f80fd5b816020850160208301375f918101602001919091529392505050565b5f806040838503121561223c575f80fd5b612245836120e4565b9150602083013567ffffffffffffffff811115612260575f80fd5b61226c85828601612163565b9150509250929050565b5f8083601f840112612286575f80fd5b50813567ffffffffffffffff81111561229d575f80fd5b6020830191508360208260051b85010111156122b7575f80fd5b9250929050565b5f80602083850312156122cf575f80fd5b823567ffffffffffffffff8111156122e5575f80fd5b6122f185828601612276565b90969095509350505050565b5f6020828403121561230d575f80fd5b813567ffffffffffffffff81168114611f6f575f80fd5b5f81518084528060208401602086015e5f6020828601015260207fffffffffffffffffffffffffffffffffffffffffffffffffffffffffffffffe0601f83011685010191505092915050565b73ffffffffffffffffffffffffffffffffffffffff8616815284602082015283604082015282606082015260a060808201525f6123b060a0830184612324565b979650505050505050565b602081525f611f6f6020830184612324565b5f80604083850312156123de575f80fd5b823567ffffffffffffffff8111156123f4575f80fd5b61240085828601612163565b92505061212d602084016120e4565b5f6020828403121561241f575f80fd5b611f6f826120e4565b5f60208284031215612438575f80fd5b81358015158114611f6f575f80fd5b5f805f806060858703121561245a575f80fd5b843567ffffffffffffffff811115612470575f80fd5b8501601f81018713612480575f80fd5b803567ffffffffffffffff811115612496575f80fd5b8760208284010111156124a7575f80fd5b6020918201955093506124bb9086016120e4565b9396929550929360400135925050565b7f4e487b71000000000000000000000000000000000000000000000000000000005f52603260045260245ffd5b5f82357fffffffffffffffffffffffffffffffffffffffffffffffffffffffffffffff8183360301811261252a575f80fd5b9190910192915050565b5f8083357fffffffffffffffffffffffffffffffffffffffffffffffffffffffffffffffe1843603018112612567575f80fd5b83018035915067ffffffffffffffff821115612581575f80fd5b6020019150600581901b36038213156122b7575f80fd5b600181811c908216806125ac57607f821691505b6020821081036125e3577f4e487b71000000000000000000000000000000000000000000000000000000005f52602260045260245ffd5b50919050565b80820180821115610655577f4e487b71000000000000000000000000000000000000000000000000000000005f52601160045260245ffd5b5f82357fffffffffffffffffffffffffffffffffffffffffffffffffffffffffffffff6183360301811261252a575f80fd5b5f8083357fffffffffffffffffffffffffffffffffffffffffffffffffffffffffffffffe1843603018112612686575f80fd5b83018035915067ffffffffffffffff8211156126a0575f80fd5b6020019150368190038213156122b7575f80fd5b601f8211156106fd57805f5260205f20601f840160051c810160208510156126d95750805b601f840160051c820191505b818110156126f8575f81556001016126e5565b5050505050565b67ffffffffffffffff83111561271757612717612136565b61272b836127258354612598565b836126b4565b5f601f84116001811461277b575f85156127455750838201355b7fffffffffffffffffffffffffffffffffffffffffffffffffffffffffffffffff600387901b1c1916600186901b1783556126f8565b5f838152602081207fffffffffffffffffffffffffffffffffffffffffffffffffffffffffffffffe08716915b828110156127c857868501358255602094850194600190920191016127a8565b5086821015612803577fffffffffffffffffffffffffffffffffffffffffffffffffffffffffffffffff60f88860031b161c19848701351681555b505060018560011b0183555050505050565b818382375f9101908152919050565b5f60208284031215612834575f80fd5b5051919050565b5f82518060208501845e5f920191825250919050565b604081525f6128636040830185612324565b9050826020830152939250505056fea164736f6c634300081a000a","linkReferences":{}},"methodIdentifiers":{"DEFAULT_ADMIN_ROLE()":"a217fddf","MANAGER_ROLE()":"ec87621c","MAX_REWARD_CLAIM_DELAY()":"5bd568c6","PAUSER_ROLE()":"e63ab1e9","UPGRADE_INTERFACE_VERSION()":"ad3cb1cc","claim((bytes32,address,uint256,bytes32[])[])":"56853398","claimed(bytes32,address)":"dfcae622","getRoleAdmin(bytes32)":"248a9ca3","grantRole(bytes32,address)":"2f2ff15d","hasRole(bytes32,address)":"91d14854","incentiveTokensPerValidator(bytes,address)":"ae486b70","initialize(address)":"c4d66de8","paused()":"5c975abb","proxiableUUID()":"52d1902d","receiveIncentive(bytes,address,uint256)":"e6f4626f","renounceRole(bytes32,address)":"36568abe","revokeRole(bytes32,address)":"d547741f","rewardClaimDelay()":"46582583","rewards(bytes32)":"938d967a","setPauseState(bool)":"cdb88ad1","setRewardClaimDelay(uint64)":"5f524324","supportsInterface(bytes4)":"01ffc9a7","updateRewardsMetadata((bytes32,bytes,address,bytes32,bytes32)[])":"bf2fd42e","upgradeToAndCall(address,bytes)":"4f1ef286"},"storageLayout":{"storage":[{"astId":81872,"contract":"src/pol/rewards/BGTIncentiveDistributor.sol:BGTIncentiveDistributor","label":"rewardClaimDelay","offset":0,"slot":"0","type":"t_uint64"},{"astId":81878,"contract":"src/pol/rewards/BGTIncentiveDistributor.sol:BGTIncentiveDistributor","label":"rewards","offset":0,"slot":"1","type":"t_mapping(t_bytes32,t_struct(Reward)80434_storage)"},{"astId":81885,"contract":"src/pol/rewards/BGTIncentiveDistributor.sol:BGTIncentiveDistributor","label":"claimed","offset":0,"slot":"2","type":"t_mapping(t_bytes32,t_mapping(t_address,t_uint256))"},{"astId":81892,"contract":"src/pol/rewards/BGTIncentiveDistributor.sol:BGTIncentiveDistributor","label":"incentiveTokensPerValidator","offset":0,"slot":"3","type":"t_mapping(t_bytes_memory_ptr,t_mapping(t_address,t_uint256))"}],"types":{"t_address":{"encoding":"inplace","label":"address","numberOfBytes":"20"},"t_bytes32":{"encoding":"inplace","label":"bytes32","numberOfBytes":"32"},"t_bytes_memory_ptr":{"encoding":"bytes","label":"bytes","numberOfBytes":"32"},"t_bytes_storage":{"encoding":"bytes","label":"bytes","numberOfBytes":"32"},"t_mapping(t_address,t_uint256)":{"encoding":"mapping","key":"t_address","label":"mapping(address => uint256)","numberOfBytes":"32","value":"t_uint256"},"t_mapping(t_bytes32,t_mapping(t_address,t_uint256))":{"encoding":"mapping","key":"t_bytes32","label":"mapping(bytes32 => mapping(address => uint256))","numberOfBytes":"32","value":"t_mapping(t_address,t_uint256)"},"t_mapping(t_bytes32,t_struct(Reward)80434_storage)":{"encoding":"mapping","key":"t_bytes32","label":"mapping(bytes32 => struct IBGTIncentiveDistributor.Reward)","numberOfBytes":"32","value":"t_struct(Reward)80434_storage"},"t_mapping(t_bytes_memory_ptr,t_mapping(t_address,t_uint256))":{"encoding":"mapping","key":"t_bytes_memory_ptr","label":"mapping(bytes => mapping(address => uint256))","numberOfBytes":"32","value":"t_mapping(t_address,t_uint256)"},"t_struct(Reward)80434_storage":{"encoding":"inplace","label":"struct IBGTIncentiveDistributor.Reward","numberOfBytes":"160","members":[{"astId":80425,"contract":"src/pol/rewards/BGTIncentiveDistributor.sol:BGTIncentiveDistributor","label":"token","offset":0,"slot":"0","type":"t_address"},{"astId":80427,"contract":"src/pol/rewards/BGTIncentiveDistributor.sol:BGTIncentiveDistributor","label":"merkleRoot","offset":0,"slot":"1","type":"t_bytes32"},{"astId":80429,"contract":"src/pol/rewards/BGTIncentiveDistributor.sol:BGTIncentiveDistributor","label":"proof","offset":0,"slot":"2","type":"t_bytes32"},{"astId":80431,"contract":"src/pol/rewards/BGTIncentiveDistributor.sol:BGTIncentiveDistributor","label":"activeAt","offset":0,"slot":"3","type":"t_uint256"},{"astId":80433,"contract":"src/pol/rewards/BGTIncentiveDistributor.sol:BGTIncentiveDistributor","label":"pubkey","offset":0,"slot":"4","type":"t_bytes_storage"}]},"t_uint256":{"encoding":"inplace","label":"uint256","numberOfBytes":"32"},"t_uint64":{"encoding":"inplace","label":"uint64","numberOfBytes":"8"}}},"id":150}