{"abi":[{"type":"function","name":"ADDRESS","inputs":[],"outputs":[{"name":"","type":"address","internalType":"address"}],"stateMutability":"view"},{"type":"error","name":"RootNotFound","inputs":[]}],"bytecode":{"object":"0x60856032600b8282823980515f1a607314602657634e487b7160e01b5f525f60045260245ffd5b305f52607381538281f3fe73000000000000000000000000000000000000000030146080604052600436106032575f3560e01c8063b51ce63d146036575b5f80fd5b604f720f3df6d732807ef1319fb7b8bb8522d0beac0281565b60405173ffffffffffffffffffffffffffffffffffffffff909116815260200160405180910390f3fea164736f6c634300081a000a","linkReferences":{}},"methodIdentifiers":{"ADDRESS()":"b51ce63d"},"storageLayout":{"storage":[],"types":{}},"id":128}