{"abi":[{"type":"receive","stateMutability":"payable"},{"type":"function","name":"CANCELLER_ROLE","inputs":[],"outputs":[{"name":"","type":"bytes32","internalType":"bytes32"}],"stateMutability":"view"},{"type":"function","name":"DEFAULT_ADMIN_ROLE","inputs":[],"outputs":[{"name":"","type":"bytes32","internalType":"bytes32"}],"stateMutability":"view"},{"type":"function","name":"EXECUTOR_ROLE","inputs":[],"outputs":[{"name":"","type":"bytes32","internalType":"bytes32"}],"stateMutability":"view"},{"type":"function","name":"PROPOSER_ROLE","inputs":[],"outputs":[{"name":"","type":"bytes32","internalType":"bytes32"}],"stateMutability":"view"},{"type":"function","name":"cancel","inputs":[{"name":"id","type":"bytes32","internalType":"bytes32"}],"outputs":[],"stateMutability":"nonpayable"},{"type":"function","name":"execute","inputs":[{"name":"target","type":"address","internalType":"address"},{"name":"value","type":"uint256","internalType":"uint256"},{"name":"payload","type":"bytes","internalType":"bytes"},{"name":"predecessor","type":"bytes32","internalType":"bytes32"},{"name":"salt","type":"bytes32","internalType":"bytes32"}],"outputs":[],"stateMutability":"payable"},{"type":"function","name":"executeBatch","inputs":[{"name":"targets","type":"address[]","internalType":"address[]"},{"name":"values","type":"uint256[]","internalType":"uint256[]"},{"name":"payloads","type":"bytes[]","internalType":"bytes[]"},{"name":"predecessor","type":"bytes32","internalType":"bytes32"},{"name":"salt","type":"bytes32","internalType":"bytes32"}],"outputs":[],"stateMutability":"payable"},{"type":"function","name":"getMinDelay","inputs":[],"outputs":[{"name":"","type":"uint256","internalType":"uint256"}],"stateMutability":"view"},{"type":"function","name":"getOperationState","inputs":[{"name":"id","type":"bytes32","internalType":"bytes32"}],"outputs":[{"name":"","type":"uint8","internalType":"enum TimelockControllerUpgradeable.OperationState"}],"stateMutability":"view"},{"type":"function","name":"getRoleAdmin","inputs":[{"name":"role","type":"bytes32","internalType":"bytes32"}],"outputs":[{"name":"","type":"bytes32","internalType":"bytes32"}],"stateMutability":"view"},{"type":"function","name":"getTimestamp","inputs":[{"name":"id","type":"bytes32","internalType":"bytes32"}],"outputs":[{"name":"","type":"uint256","internalType":"uint256"}],"stateMutability":"view"},{"type":"function","name":"grantRole","inputs":[{"name":"role","type":"bytes32","internalType":"bytes32"},{"name":"account","type":"address","internalType":"address"}],"outputs":[],"stateMutability":"nonpayable"},{"type":"function","name":"hasRole","inputs":[{"name":"role","type":"bytes32","internalType":"bytes32"},{"name":"account","type":"address","internalType":"address"}],"outputs":[{"name":"","type":"bool","internalType":"bool"}],"stateMutability":"view"},{"type":"function","name":"hashOperation","inputs":[{"name":"target","type":"address","internalType":"address"},{"name":"value","type":"uint256","internalType":"uint256"},{"name":"data","type":"bytes","internalType":"bytes"},{"name":"predecessor","type":"bytes32","internalType":"bytes32"},{"name":"salt","type":"bytes32","internalType":"bytes32"}],"outputs":[{"name":"","type":"bytes32","internalType":"bytes32"}],"stateMutability":"pure"},{"type":"function","name":"hashOperationBatch","inputs":[{"name":"targets","type":"address[]","internalType":"address[]"},{"name":"values","type":"uint256[]","internalType":"uint256[]"},{"name":"payloads","type":"bytes[]","internalType":"bytes[]"},{"name":"predecessor","type":"bytes32","internalType":"bytes32"},{"name":"salt","type":"bytes32","internalType":"bytes32"}],"outputs":[{"name":"","type":"bytes32","internalType":"bytes32"}],"stateMutability":"pure"},{"type":"function","name":"initialize","inputs":[{"name":"minDelay","type":"uint256","internalType":"uint256"},{"name":"proposers","type":"address[]","internalType":"address[]"},{"name":"executors","type":"address[]","internalType":"address[]"},{"name":"admin","type":"address","internalType":"address"}],"outputs":[],"stateMutability":"nonpayable"},{"type":"function","name":"isOperation","inputs":[{"name":"id","type":"bytes32","internalType":"bytes32"}],"outputs":[{"name":"","type":"bool","internalType":"bool"}],"stateMutability":"view"},{"type":"function","name":"isOperationDone","inputs":[{"name":"id","type":"bytes32","internalType":"bytes32"}],"outputs":[{"name":"","type":"bool","internalType":"bool"}],"stateMutability":"view"},{"type":"function","name":"isOperationPending","inputs":[{"name":"id","type":"bytes32","internalType":"bytes32"}],"outputs":[{"name":"","type":"bool","internalType":"bool"}],"stateMutability":"view"},{"type":"function","name":"isOperationReady","inputs":[{"name":"id","type":"bytes32","internalType":"bytes32"}],"outputs":[{"name":"","type":"bool","internalType":"bool"}],"stateMutability":"view"},{"type":"function","name":"onERC1155BatchReceived","inputs":[{"name":"","type":"address","internalType":"address"},{"name":"","type":"address","internalType":"address"},{"name":"","type":"uint256[]","internalType":"uint256[]"},{"name":"","type":"uint256[]","internalType":"uint256[]"},{"name":"","type":"bytes","internalType":"bytes"}],"outputs":[{"name":"","type":"bytes4","internalType":"bytes4"}],"stateMutability":"nonpayable"},{"type":"function","name":"onERC1155Received","inputs":[{"name":"","type":"address","internalType":"address"},{"name":"","type":"address","internalType":"address"},{"name":"","type":"uint256","internalType":"uint256"},{"name":"","type":"uint256","internalType":"uint256"},{"name":"","type":"bytes","internalType":"bytes"}],"outputs":[{"name":"","type":"bytes4","internalType":"bytes4"}],"stateMutability":"nonpayable"},{"type":"function","name":"onERC721Received","inputs":[{"name":"","type":"address","internalType":"address"},{"name":"","type":"address","internalType":"address"},{"name":"","type":"uint256","internalType":"uint256"},{"name":"","type":"bytes","internalType":"bytes"}],"outputs":[{"name":"","type":"bytes4","internalType":"bytes4"}],"stateMutability":"nonpayable"},{"type":"function","name":"renounceRole","inputs":[{"name":"role","type":"bytes32","internalType":"bytes32"},{"name":"callerConfirmation","type":"address","internalType":"address"}],"outputs":[],"stateMutability":"nonpayable"},{"type":"function","name":"revokeRole","inputs":[{"name":"role","type":"bytes32","internalType":"bytes32"},{"name":"account","type":"address","internalType":"address"}],"outputs":[],"stateMutability":"nonpayable"},{"type":"function","name":"schedule","inputs":[{"name":"target","type":"address","internalType":"address"},{"name":"value","type":"uint256","internalType":"uint256"},{"name":"data","type":"bytes","internalType":"bytes"},{"name":"predecessor","type":"bytes32","internalType":"bytes32"},{"name":"salt","type":"bytes32","internalType":"bytes32"},{"name":"delay","type":"uint256","internalType":"uint256"}],"outputs":[],"stateMutability":"nonpayable"},{"type":"function","name":"scheduleBatch","inputs":[{"name":"targets","type":"address[]","internalType":"address[]"},{"name":"values","type":"uint256[]","internalType":"uint256[]"},{"name":"payloads","type":"bytes[]","internalType":"bytes[]"},{"name":"predecessor","type":"bytes32","internalType":"bytes32"},{"name":"salt","type":"bytes32","internalType":"bytes32"},{"name":"delay","type":"uint256","internalType":"uint256"}],"outputs":[],"stateMutability":"nonpayable"},{"type":"function","name":"supportsInterface","inputs":[{"name":"interfaceId","type":"bytes4","internalType":"bytes4"}],"outputs":[{"name":"","type":"bool","internalType":"bool"}],"stateMutability":"view"},{"type":"function","name":"updateDelay","inputs":[{"name":"newDelay","type":"uint256","internalType":"uint256"}],"outputs":[],"stateMutability":"nonpayable"},{"type":"event","name":"CallExecuted","inputs":[{"name":"id","type":"bytes32","indexed":true,"internalType":"bytes32"},{"name":"index","type":"uint256","indexed":true,"internalType":"uint256"},{"name":"target","type":"address","indexed":false,"internalType":"address"},{"name":"value","type":"uint256","indexed":false,"internalType":"uint256"},{"name":"data","type":"bytes","indexed":false,"internalType":"bytes"}],"anonymous":false},{"type":"event","name":"CallSalt","inputs":[{"name":"id","type":"bytes32","indexed":true,"internalType":"bytes32"},{"name":"salt","type":"bytes32","indexed":false,"internalType":"bytes32"}],"anonymous":false},{"type":"event","name":"CallScheduled","inputs":[{"name":"id","type":"bytes32","indexed":true,"internalType":"bytes32"},{"name":"index","type":"uint256","indexed":true,"internalType":"uint256"},{"name":"target","type":"address","indexed":false,"internalType":"address"},{"name":"value","type":"uint256","indexed":false,"internalType":"uint256"},{"name":"data","type":"bytes","indexed":false,"internalType":"bytes"},{"name":"predecessor","type":"bytes32","indexed":false,"internalType":"bytes32"},{"name":"delay","type":"uint256","indexed":false,"internalType":"uint256"}],"anonymous":false},{"type":"event","name":"Cancelled","inputs":[{"name":"id","type":"bytes32","indexed":true,"internalType":"bytes32"}],"anonymous":false},{"type":"event","name":"Initialized","inputs":[{"name":"version","type":"uint64","indexed":false,"internalType":"uint64"}],"anonymous":false},{"type":"event","name":"MinDelayChange","inputs":[{"name":"oldDuration","type":"uint256","indexed":false,"internalType":"uint256"},{"name":"newDuration","type":"uint256","indexed":false,"internalType":"uint256"}],"anonymous":false},{"type":"event","name":"RoleAdminChanged","inputs":[{"name":"role","type":"bytes32","indexed":true,"internalType":"bytes32"},{"name":"previousAdminRole","type":"bytes32","indexed":true,"internalType":"bytes32"},{"name":"newAdminRole","type":"bytes32","indexed":true,"internalType":"bytes32"}],"anonymous":false},{"type":"event","name":"RoleGranted","inputs":[{"name":"role","type":"bytes32","indexed":true,"internalType":"bytes32"},{"name":"account","type":"address","indexed":true,"internalType":"address"},{"name":"sender","type":"address","indexed":true,"internalType":"address"}],"anonymous":false},{"type":"event","name":"RoleRevoked","inputs":[{"name":"role","type":"bytes32","indexed":true,"internalType":"bytes32"},{"name":"account","type":"address","indexed":true,"internalType":"address"},{"name":"sender","type":"address","indexed":true,"internalType":"address"}],"anonymous":false},{"type":"error","name":"AccessControlBadConfirmation","inputs":[]},{"type":"error","name":"AccessControlUnauthorizedAccount","inputs":[{"name":"account","type":"address","internalType":"address"},{"name":"neededRole","type":"bytes32","internalType":"bytes32"}]},{"type":"error","name":"FailedCall","inputs":[]},{"type":"error","name":"InvalidInitialization","inputs":[]},{"type":"error","name":"NotInitializing","inputs":[]},{"type":"error","name":"TimelockInsufficientDelay","inputs":[{"name":"delay","type":"uint256","internalType":"uint256"},{"name":"minDelay","type":"uint256","internalType":"uint256"}]},{"type":"error","name":"TimelockInvalidOperationLength","inputs":[{"name":"targets","type":"uint256","internalType":"uint256"},{"name":"payloads","type":"uint256","internalType":"uint256"},{"name":"values","type":"uint256","internalType":"uint256"}]},{"type":"error","name":"TimelockUnauthorizedCaller","inputs":[{"name":"caller","type":"address","internalType":"address"}]},{"type":"error","name":"TimelockUnexecutedPredecessor","inputs":[{"name":"predecessorId","type":"bytes32","internalType":"bytes32"}]},{"type":"error","name":"TimelockUnexpectedOperationState","inputs":[{"name":"operationId","type":"bytes32","internalType":"bytes32"},{"name":"expectedStates","type":"bytes32","internalType":"bytes32"}]}],"bytecode":{"object":"0x6080604052348015600e575f80fd5b506125358061001c5f395ff3fe6080604052600436106101bd575f3560e01c80638065657f116100f2578063bc197c8111610092578063d547741f11610062578063d547741f14610649578063e38335e514610668578063f23a6e611461067b578063f27a0c92146106bf575f80fd5b8063bc197c811461057d578063c4c4c7b3146105c1578063c4d252f5146105e0578063d45c4435146105ff575f80fd5b806391d14854116100cd57806391d14854146104a8578063a217fddf14610518578063b08e51c01461052b578063b1c5f4271461055e575f80fd5b80638065657f146104375780638f2a0bb0146104565780638f61f4f514610475575f80fd5b80632ab0f5291161015d57806336568abe1161013857806336568abe146103ae578063584b153e146103cd57806364d62353146103ec5780637958004c1461040b575f80fd5b80632ab0f529146103515780632f2ff15d1461037057806331d507501461038f575f80fd5b8063134008d311610198578063134008d31461025e57806313bc9f2014610271578063150b7a0214610290578063248a9ca314610304575f80fd5b806301d5062a146101c857806301ffc9a7146101e957806307bd02651461021d575f80fd5b366101c457005b5f80fd5b3480156101d3575f80fd5b506101e76101e2366004611a96565b6106f2565b005b3480156101f4575f80fd5b50610208610203366004611b05565b6107c6565b60405190151581526020015b60405180910390f35b348015610228575f80fd5b506102507fd8aa0f3194971a2a116679f7c2090f6939c8d4e01a2a8d7e41d55e5351469e6381565b604051908152602001610214565b6101e761026c366004611b44565b6107d6565b34801561027c575f80fd5b5061020861028b366004611bab565b6108cb565b34801561029b575f80fd5b506102d36102aa366004611cc8565b7f150b7a0200000000000000000000000000000000000000000000000000000000949350505050565b6040517fffffffff000000000000000000000000000000000000000000000000000000009091168152602001610214565b34801561030f575f80fd5b5061025061031e366004611bab565b5f9081527f02dd7bc7dec4dceedda775e58dd541e08a116c6c53815c0bd028192f7b626800602052604090206001015490565b34801561035c575f80fd5b5061020861036b366004611bab565b6108f0565b34801561037b575f80fd5b506101e761038a366004611d2c565b6108f8565b34801561039a575f80fd5b506102086103a9366004611bab565b610941565b3480156103b9575f80fd5b506101e76103c8366004611d2c565b610965565b3480156103d8575f80fd5b506102086103e7366004611bab565b6109c3565b3480156103f7575f80fd5b506101e7610406366004611bab565b610a08565b348015610416575f80fd5b5061042a610425366004611bab565b610ac5565b6040516102149190611d83565b348015610442575f80fd5b50610250610451366004611b44565b610b2c565b348015610461575f80fd5b506101e7610470366004611e03565b610b6a565b348015610480575f80fd5b506102507fb09aa5aeb3702cfd50b6b62bc4532604938f21248a27a1d5ca736082b6819cc181565b3480156104b3575f80fd5b506102086104c2366004611d2c565b5f9182527f02dd7bc7dec4dceedda775e58dd541e08a116c6c53815c0bd028192f7b6268006020908152604080842073ffffffffffffffffffffffffffffffffffffffff93909316845291905290205460ff1690565b348015610523575f80fd5b506102505f81565b348015610536575f80fd5b506102507ffd643c72710c63c0180259aba6b2d05451e3591a24e58b62239378085726f78381565b348015610569575f80fd5b50610250610578366004611eb8565b610d0c565b348015610588575f80fd5b506102d3610597366004611ff2565b7fbc197c810000000000000000000000000000000000000000000000000000000095945050505050565b3480156105cc575f80fd5b506101e76105db366004612103565b610d50565b3480156105eb575f80fd5b506101e76105fa366004611bab565b610ebe565b34801561060a575f80fd5b50610250610619366004611bab565b5f9081527f9a37c2aa9d186a0969ff8a8267bf4e07e864c2f2768f5040949e28a624fb3600602052604090205490565b348015610654575f80fd5b506101e7610663366004611d2c565b610fa3565b6101e7610676366004611eb8565b610fe6565b348015610686575f80fd5b506102d3610695366004612181565b7ff23a6e610000000000000000000000000000000000000000000000000000000095945050505050565b3480156106ca575f80fd5b507f9a37c2aa9d186a0969ff8a8267bf4e07e864c2f2768f5040949e28a624fb360154610250565b7fb09aa5aeb3702cfd50b6b62bc4532604938f21248a27a1d5ca736082b6819cc161071c816111c0565b5f61072b898989898989610b2c565b905061073781846111cd565b5f817f4cf4410cc57040e44862ef0f45f3dd5a5e02db8eb8add648d4b0e236f1d07dca8b8b8b8b8b8a6040516107729695949392919061221c565b60405180910390a383156107bb57807f20fda5fd27a1ea7bf5b9567f143ac5470bb059374a27e8f67cb44f946f6d0387856040516107b291815260200190565b60405180910390a25b505050505050505050565b5f6107d0826112d1565b92915050565b5f80527f52fce5e8a5d0d9e8d1ea29f4525e512e9c27bf92cae50374d497f918ab48f3826020527fdd1864c1ab258d549957f6a4d7e3a5005661df58241dbbc1700fb170ef061546547fd8aa0f3194971a2a116679f7c2090f6939c8d4e01a2a8d7e41d55e5351469e639060ff16610852576108528133611326565b5f610861888888888888610b2c565b905061086d81856113d0565b61087988888888611437565b5f817fc2617efa69bab66782fa219543714338489c4e9e178271560a91b82c3f612b588a8a8a8a6040516108b09493929190612266565b60405180910390a36108c1816114b8565b5050505050505050565b5f60025b6108d883610ac5565b60038111156108e9576108e9611d56565b1492915050565b5f60036108cf565b5f8281527f02dd7bc7dec4dceedda775e58dd541e08a116c6c53815c0bd028192f7b6268006020526040902060010154610931816111c0565b61093b8383611502565b50505050565b5f8061094c83610ac5565b600381111561095d5761095d611d56565b141592915050565b73ffffffffffffffffffffffffffffffffffffffff811633146109b4576040517f6697b23200000000000000000000000000000000000000000000000000000000815260040160405180910390fd5b6109be8282611620565b505050565b5f806109ce83610ac5565b905060018160038111156109e4576109e4611d56565b1480610a01575060028160038111156109ff576109ff611d56565b145b9392505050565b7f9a37c2aa9d186a0969ff8a8267bf4e07e864c2f2768f5040949e28a624fb360033308114610a80576040517fe2850c5900000000000000000000000000000000000000000000000000000000815273ffffffffffffffffffffffffffffffffffffffff821660048201526024015b60405180910390fd5b600182015460408051918252602082018590527f11c24f4ead16507c69ac467fbd5e4eed5fb5c699626d2cc6d66421df253886d5910160405180910390a15060010155565b5f8181527f9a37c2aa9d186a0969ff8a8267bf4e07e864c2f2768f5040949e28a624fb36006020526040812054805f03610b0157505f92915050565b60018103610b125750600392915050565b42811115610b235750600192915050565b50600292915050565b5f868686868686604051602001610b489695949392919061221c565b6040516020818303038152906040528051906020012090509695505050505050565b7fb09aa5aeb3702cfd50b6b62bc4532604938f21248a27a1d5ca736082b6819cc1610b94816111c0565b8887141580610ba35750888514155b15610beb576040517fffb03211000000000000000000000000000000000000000000000000000000008152600481018a90526024810186905260448101889052606401610a77565b5f610bfc8b8b8b8b8b8b8b8b610d0c565b9050610c0881846111cd565b5f5b8a811015610cbd5780827f4cf4410cc57040e44862ef0f45f3dd5a5e02db8eb8add648d4b0e236f1d07dca8e8e85818110610c4757610c476122a5565b9050602002016020810190610c5c91906122d2565b8d8d86818110610c6e57610c6e6122a5565b905060200201358c8c87818110610c8757610c876122a5565b9050602002810190610c9991906122eb565b8c8b604051610cad9695949392919061221c565b60405180910390a3600101610c0a565b508315610cff57807f20fda5fd27a1ea7bf5b9567f143ac5470bb059374a27e8f67cb44f946f6d038785604051610cf691815260200190565b60405180910390a25b5050505050505050505050565b5f8888888888888888604051602001610d2c98979695949392919061241c565b60405160208183030381529060405280519060200120905098975050505050505050565b5f610d596116fc565b805490915060ff68010000000000000000820416159067ffffffffffffffff165f81158015610d855750825b90505f8267ffffffffffffffff166001148015610da15750303b155b905081158015610daf575080155b15610de6576040517ff92ee8a900000000000000000000000000000000000000000000000000000000815260040160405180910390fd5b84547fffffffffffffffffffffffffffffffffffffffffffffffff00000000000000001660011785558315610e475784547fffffffffffffffffffffffffffffffffffffffffffffff00ffffffffffffffff16680100000000000000001785555b610e5389898989611724565b83156107bb5784547fffffffffffffffffffffffffffffffffffffffffffffff00ffffffffffffffff168555604051600181527fc7f505b2f371ae2175ee4913f4499e1f2633a7b5936321eed1cdaeb6115181d29060200160405180910390a1505050505050505050565b7ffd643c72710c63c0180259aba6b2d05451e3591a24e58b62239378085726f783610ee8816111c0565b7f9a37c2aa9d186a0969ff8a8267bf4e07e864c2f2768f5040949e28a624fb3600610f12836109c3565b610f675782610f216002611738565b610f2b6001611738565b6040517f5ead8eb50000000000000000000000000000000000000000000000000000000081526004810193909352176024820152604401610a77565b5f838152602082905260408082208290555184917fbaa1eb22f2a492ba1a5fea61b8df4d27c6c8b5f3971e63bb58fa14ff72eedb7091a2505050565b5f8281527f02dd7bc7dec4dceedda775e58dd541e08a116c6c53815c0bd028192f7b6268006020526040902060010154610fdc816111c0565b61093b8383611620565b5f80527f52fce5e8a5d0d9e8d1ea29f4525e512e9c27bf92cae50374d497f918ab48f3826020527fdd1864c1ab258d549957f6a4d7e3a5005661df58241dbbc1700fb170ef061546547fd8aa0f3194971a2a116679f7c2090f6939c8d4e01a2a8d7e41d55e5351469e639060ff16611062576110628133611326565b87861415806110715750878414155b156110b9576040517fffb03211000000000000000000000000000000000000000000000000000000008152600481018990526024810185905260448101879052606401610a77565b5f6110ca8a8a8a8a8a8a8a8a610d0c565b90506110d681856113d0565b5f5b898110156111aa575f8b8b838181106110f3576110f36122a5565b905060200201602081019061110891906122d2565b90505f8a8a8481811061111d5761111d6122a5565b905060200201359050365f8a8a8681811061113a5761113a6122a5565b905060200281019061114c91906122eb565b9150915061115c84848484611437565b84867fc2617efa69bab66782fa219543714338489c4e9e178271560a91b82c3f612b58868686866040516111939493929190612266565b60405180910390a3505050508060010190506110d8565b506111b4816114b8565b50505050505050505050565b6111ca8133611326565b50565b7f9a37c2aa9d186a0969ff8a8267bf4e07e864c2f2768f5040949e28a624fb36006111f783610941565b1561124157826112065f611738565b6040517f5ead8eb500000000000000000000000000000000000000000000000000000000815260048101929092526024820152604401610a77565b5f61126a7f9a37c2aa9d186a0969ff8a8267bf4e07e864c2f2768f5040949e28a624fb36015490565b9050808310156112b0576040517f543366090000000000000000000000000000000000000000000000000000000081526004810184905260248101829052604401610a77565b6112ba83426124e1565b5f9485526020929092525060409092209190915550565b5f7fffffffff0000000000000000000000000000000000000000000000000000000082167f4e2312e00000000000000000000000000000000000000000000000000000000014806107d057506107d08261175a565b5f8281527f02dd7bc7dec4dceedda775e58dd541e08a116c6c53815c0bd028192f7b6268006020908152604080832073ffffffffffffffffffffffffffffffffffffffff8516845290915290205460ff166113cc576040517fe2517d3f00000000000000000000000000000000000000000000000000000000815273ffffffffffffffffffffffffffffffffffffffff8216600482015260248101839052604401610a77565b5050565b6113d9826108cb565b6113e857816112066002611738565b80158015906113fd57506113fb816108f0565b155b156113cc576040517f90a9a61800000000000000000000000000000000000000000000000000000000815260048101829052602401610a77565b5f808573ffffffffffffffffffffffffffffffffffffffff16858585604051611461929190612519565b5f6040518083038185875af1925050503d805f811461149b576040519150601f19603f3d011682016040523d82523d5f602084013e6114a0565b606091505b50915091506114af82826117f0565b50505050505050565b7f9a37c2aa9d186a0969ff8a8267bf4e07e864c2f2768f5040949e28a624fb36006114e2826108cb565b6114f157816112066002611738565b5f9182526020526040902060019055565b5f8281527f02dd7bc7dec4dceedda775e58dd541e08a116c6c53815c0bd028192f7b6268006020818152604080842073ffffffffffffffffffffffffffffffffffffffff8616855290915282205460ff16611617575f8481526020828152604080832073ffffffffffffffffffffffffffffffffffffffff87168452909152902080547fffffffffffffffffffffffffffffffffffffffffffffffffffffffffffffff001660011790556115b33390565b73ffffffffffffffffffffffffffffffffffffffff168373ffffffffffffffffffffffffffffffffffffffff16857f2f8788117e7eff1d82e926ec794901d17c78024a50270940304540a733656f0d60405160405180910390a460019150506107d0565b5f9150506107d0565b5f8281527f02dd7bc7dec4dceedda775e58dd541e08a116c6c53815c0bd028192f7b6268006020818152604080842073ffffffffffffffffffffffffffffffffffffffff8616855290915282205460ff1615611617575f8481526020828152604080832073ffffffffffffffffffffffffffffffffffffffff8716808552925280832080547fffffffffffffffffffffffffffffffffffffffffffffffffffffffffffffff0016905551339287917ff6391f5c32d9c69d2a47ea670b442974b53935d1edc7fd64eb21e047a839171b9190a460019150506107d0565b5f807ff0c57e16840df040f15088dc2f81fe391c3923bec73e23a9662efc9c229c6a006107d0565b61172c61180c565b61093b8484848461184c565b5f81600381111561174b5761174b611d56565b600160ff919091161b92915050565b5f7fffffffff0000000000000000000000000000000000000000000000000000000082167f7965db0b0000000000000000000000000000000000000000000000000000000014806107d057507f01ffc9a7000000000000000000000000000000000000000000000000000000007fffffffff000000000000000000000000000000000000000000000000000000008316146107d0565b60608261180557611800826119c9565b6107d0565b50806107d0565b611814611a0b565b61184a576040517fd7e6bcf800000000000000000000000000000000000000000000000000000000815260040160405180910390fd5b565b61185461180c565b7f9a37c2aa9d186a0969ff8a8267bf4e07e864c2f2768f5040949e28a624fb360061187f5f30611502565b5073ffffffffffffffffffffffffffffffffffffffff8216156118a8576118a65f83611502565b505b5f5b8451811015611936576118f67fb09aa5aeb3702cfd50b6b62bc4532604938f21248a27a1d5ca736082b6819cc18683815181106118e9576118e96122a5565b6020026020010151611502565b5061192d7ffd643c72710c63c0180259aba6b2d05451e3591a24e58b62239378085726f7838683815181106118e9576118e96122a5565b506001016118aa565b505f5b8351811015611981576119787fd8aa0f3194971a2a116679f7c2090f6939c8d4e01a2a8d7e41d55e5351469e638583815181106118e9576118e96122a5565b50600101611939565b5060018101859055604080515f8152602081018790527f11c24f4ead16507c69ac467fbd5e4eed5fb5c699626d2cc6d66421df253886d5910160405180910390a15050505050565b8051156119d95780518082602001fd5b6040517fd6bda27500000000000000000000000000000000000000000000000000000000815260040160405180910390fd5b5f611a146116fc565b5468010000000000000000900460ff16919050565b803573ffffffffffffffffffffffffffffffffffffffff81168114611a4c575f80fd5b919050565b5f8083601f840112611a61575f80fd5b50813567ffffffffffffffff811115611a78575f80fd5b602083019150836020828501011115611a8f575f80fd5b9250929050565b5f805f805f805f60c0888a031215611aac575f80fd5b611ab588611a29565b965060208801359550604088013567ffffffffffffffff811115611ad7575f80fd5b611ae38a828b01611a51565b989b979a50986060810135976080820135975060a09091013595509350505050565b5f60208284031215611b15575f80fd5b81357fffffffff0000000000000000000000000000000000000000000000000000000081168114610a01575f80fd5b5f805f805f8060a08789031215611b59575f80fd5b611b6287611a29565b955060208701359450604087013567ffffffffffffffff811115611b84575f80fd5b611b9089828a01611a51565b979a9699509760608101359660809091013595509350505050565b5f60208284031215611bbb575f80fd5b5035919050565b7f4e487b71000000000000000000000000000000000000000000000000000000005f52604160045260245ffd5b604051601f82017fffffffffffffffffffffffffffffffffffffffffffffffffffffffffffffffe016810167ffffffffffffffff81118282101715611c3657611c36611bc2565b604052919050565b5f82601f830112611c4d575f80fd5b813567ffffffffffffffff811115611c6757611c67611bc2565b611c9860207fffffffffffffffffffffffffffffffffffffffffffffffffffffffffffffffe0601f84011601611bef565b818152846020838601011115611cac575f80fd5b816020850160208301375f918101602001919091529392505050565b5f805f8060808587031215611cdb575f80fd5b611ce485611a29565b9350611cf260208601611a29565b925060408501359150606085013567ffffffffffffffff811115611d14575f80fd5b611d2087828801611c3e565b91505092959194509250565b5f8060408385031215611d3d575f80fd5b82359150611d4d60208401611a29565b90509250929050565b7f4e487b71000000000000000000000000000000000000000000000000000000005f52602160045260245ffd5b6020810160048310611dbc577f4e487b71000000000000000000000000000000000000000000000000000000005f52602160045260245ffd5b91905290565b5f8083601f840112611dd2575f80fd5b50813567ffffffffffffffff811115611de9575f80fd5b6020830191508360208260051b8501011115611a8f575f80fd5b5f805f805f805f805f60c08a8c031215611e1b575f80fd5b893567ffffffffffffffff811115611e31575f80fd5b611e3d8c828d01611dc2565b909a5098505060208a013567ffffffffffffffff811115611e5c575f80fd5b611e688c828d01611dc2565b90985096505060408a013567ffffffffffffffff811115611e87575f80fd5b611e938c828d01611dc2565b9a9d999c50979a969997986060880135976080810135975060a0013595509350505050565b5f805f805f805f8060a0898b031215611ecf575f80fd5b883567ffffffffffffffff811115611ee5575f80fd5b611ef18b828c01611dc2565b909950975050602089013567ffffffffffffffff811115611f10575f80fd5b611f1c8b828c01611dc2565b909750955050604089013567ffffffffffffffff811115611f3b575f80fd5b611f478b828c01611dc2565b999c989b509699959896976060870135966080013595509350505050565b5f67ffffffffffffffff821115611f7e57611f7e611bc2565b5060051b60200190565b5f82601f830112611f97575f80fd5b8135611faa611fa582611f65565b611bef565b8082825260208201915060208360051b860101925085831115611fcb575f80fd5b602085015b83811015611fe8578035835260209283019201611fd0565b5095945050505050565b5f805f805f60a08688031215612006575f80fd5b61200f86611a29565b945061201d60208701611a29565b9350604086013567ffffffffffffffff811115612038575f80fd5b61204488828901611f88565b935050606086013567ffffffffffffffff811115612060575f80fd5b61206c88828901611f88565b925050608086013567ffffffffffffffff811115612088575f80fd5b61209488828901611c3e565b9150509295509295909350565b5f82601f8301126120b0575f80fd5b81356120be611fa582611f65565b8082825260208201915060208360051b8601019250858311156120df575f80fd5b602085015b83811015611fe8576120f581611a29565b8352602092830192016120e4565b5f805f8060808587031215612116575f80fd5b84359350602085013567ffffffffffffffff811115612133575f80fd5b61213f878288016120a1565b935050604085013567ffffffffffffffff81111561215b575f80fd5b612167878288016120a1565b92505061217660608601611a29565b905092959194509250565b5f805f805f60a08688031215612195575f80fd5b61219e86611a29565b94506121ac60208701611a29565b93506040860135925060608601359150608086013567ffffffffffffffff811115612088575f80fd5b81835281816020850137505f602082840101525f60207fffffffffffffffffffffffffffffffffffffffffffffffffffffffffffffffe0601f840116840101905092915050565b73ffffffffffffffffffffffffffffffffffffffff8716815285602082015260a060408201525f61225160a0830186886121d5565b60608301949094525060800152949350505050565b73ffffffffffffffffffffffffffffffffffffffff85168152836020820152606060408201525f61229b6060830184866121d5565b9695505050505050565b7f4e487b71000000000000000000000000000000000000000000000000000000005f52603260045260245ffd5b5f602082840312156122e2575f80fd5b610a0182611a29565b5f8083357fffffffffffffffffffffffffffffffffffffffffffffffffffffffffffffffe184360301811261231e575f80fd5b83018035915067ffffffffffffffff821115612338575f80fd5b602001915036819003821315611a8f575f80fd5b5f8383855260208501945060208460051b820101835f5b86811015612410577fffffffffffffffffffffffffffffffffffffffffffffffffffffffffffffffe084840301885281357fffffffffffffffffffffffffffffffffffffffffffffffffffffffffffffffe18736030181126123c3575f80fd5b860160208101903567ffffffffffffffff8111156123df575f80fd5b8036038213156123ed575f80fd5b6123f88582846121d5565b60209a8b019a90955093909301925050600101612363565b50909695505050505050565b60a080825281018890525f8960c08301825b8b8110156124695773ffffffffffffffffffffffffffffffffffffffff61245484611a29565b1682526020928301929091019060010161242e565b5083810360208501528881527f07ffffffffffffffffffffffffffffffffffffffffffffffffffffffffffffff8911156124a1575f80fd5b8860051b9150818a602083013701828103602090810160408501526124c9908201878961234c565b60608401959095525050608001529695505050505050565b808201808211156107d0577f4e487b71000000000000000000000000000000000000000000000000000000005f52601160045260245ffd5b818382375f910190815291905056fea164736f6c634300081a000a","linkReferences":{}},"methodIdentifiers":{"CANCELLER_ROLE()":"b08e51c0","DEFAULT_ADMIN_ROLE()":"a217fddf","EXECUTOR_ROLE()":"07bd0265","PROPOSER_ROLE()":"8f61f4f5","cancel(bytes32)":"c4d252f5","execute(address,uint256,bytes,bytes32,bytes32)":"134008d3","executeBatch(address[],uint256[],bytes[],bytes32,bytes32)":"e38335e5","getMinDelay()":"f27a0c92","getOperationState(bytes32)":"7958004c","getRoleAdmin(bytes32)":"248a9ca3","getTimestamp(bytes32)":"d45c4435","grantRole(bytes32,address)":"2f2ff15d","hasRole(bytes32,address)":"91d14854","hashOperation(address,uint256,bytes,bytes32,bytes32)":"8065657f","hashOperationBatch(address[],uint256[],bytes[],bytes32,bytes32)":"b1c5f427","initialize(uint256,address[],address[],address)":"c4c4c7b3","isOperation(bytes32)":"31d50750","isOperationDone(bytes32)":"2ab0f529","isOperationPending(bytes32)":"584b153e","isOperationReady(bytes32)":"13bc9f20","onERC1155BatchReceived(address,address,uint256[],uint256[],bytes)":"bc197c81","onERC1155Received(address,address,uint256,uint256,bytes)":"f23a6e61","onERC721Received(address,address,uint256,bytes)":"150b7a02","renounceRole(bytes32,address)":"36568abe","revokeRole(bytes32,address)":"d547741f","schedule(address,uint256,bytes,bytes32,bytes32,uint256)":"01d5062a","scheduleBatch(address[],uint256[],bytes[],bytes32,bytes32,uint256)":"8f2a0bb0","supportsInterface(bytes4)":"01ffc9a7","updateDelay(uint256)":"64d62353"},"storageLayout":{"storage":[],"types":{}},"id":30}