{"abi":[{"type":"constructor","inputs":[],"stateMutability":"nonpayable"},{"type":"function","name":"DEFAULT_ADMIN_ROLE","inputs":[],"outputs":[{"name":"","type":"bytes32","internalType":"bytes32"}],"stateMutability":"view"},{"type":"function","name":"UPGRADE_INTERFACE_VERSION","inputs":[],"outputs":[{"name":"","type":"string","internalType":"string"}],"stateMutability":"view"},{"type":"function","name":"VAULT_MANAGER_ROLE","inputs":[],"outputs":[{"name":"","type":"bytes32","internalType":"bytes32"}],"stateMutability":"view"},{"type":"function","name":"VAULT_PAUSER_ROLE","inputs":[],"outputs":[{"name":"","type":"bytes32","internalType":"bytes32"}],"stateMutability":"view"},{"type":"function","name":"allVaults","inputs":[{"name":"","type":"uint256","internalType":"uint256"}],"outputs":[{"name":"","type":"address","internalType":"address"}],"stateMutability":"view"},{"type":"function","name":"allVaultsLength","inputs":[],"outputs":[{"name":"","type":"uint256","internalType":"uint256"}],"stateMutability":"view"},{"type":"function","name":"beacon","inputs":[],"outputs":[{"name":"","type":"address","internalType":"address"}],"stateMutability":"view"},{"type":"function","name":"beaconDepositContract","inputs":[],"outputs":[{"name":"","type":"address","internalType":"address"}],"stateMutability":"view"},{"type":"function","name":"bgt","inputs":[],"outputs":[{"name":"","type":"address","internalType":"address"}],"stateMutability":"view"},{"type":"function","name":"bgtIncentiveDistributor","inputs":[],"outputs":[{"name":"","type":"address","internalType":"address"}],"stateMutability":"view"},{"type":"function","name":"createRewardVault","inputs":[{"name":"stakingToken","type":"address","internalType":"address"}],"outputs":[{"name":"","type":"address","internalType":"address"}],"stateMutability":"nonpayable"},{"type":"function","name":"distributor","inputs":[],"outputs":[{"name":"","type":"address","internalType":"address"}],"stateMutability":"view"},{"type":"function","name":"getRoleAdmin","inputs":[{"name":"role","type":"bytes32","internalType":"bytes32"}],"outputs":[{"name":"","type":"bytes32","internalType":"bytes32"}],"stateMutability":"view"},{"type":"function","name":"getVault","inputs":[{"name":"stakingToken","type":"address","internalType":"address"}],"outputs":[{"name":"vault","type":"address","internalType":"address"}],"stateMutability":"view"},{"type":"function","name":"grantRole","inputs":[{"name":"role","type":"bytes32","internalType":"bytes32"},{"name":"account","type":"address","internalType":"address"}],"outputs":[],"stateMutability":"nonpayable"},{"type":"function","name":"hasRole","inputs":[{"name":"role","type":"bytes32","internalType":"bytes32"},{"name":"account","type":"address","internalType":"address"}],"outputs":[{"name":"","type":"bool","internalType":"bool"}],"stateMutability":"view"},{"type":"function","name":"initialize","inputs":[{"name":"_bgt","type":"address","internalType":"address"},{"name":"_distributor","type":"address","internalType":"address"},{"name":"_beaconDepositContract","type":"address","internalType":"address"},{"name":"_governance","type":"address","internalType":"address"},{"name":"_vaultImpl","type":"address","internalType":"address"}],"outputs":[],"stateMutability":"nonpayable"},{"type":"function","name":"predictRewardVaultAddress","inputs":[{"name":"stakingToken","type":"address","internalType":"address"}],"outputs":[{"name":"","type":"address","internalType":"address"}],"stateMutability":"view"},{"type":"function","name":"proxiableUUID","inputs":[],"outputs":[{"name":"","type":"bytes32","internalType":"bytes32"}],"stateMutability":"view"},{"type":"function","name":"renounceRole","inputs":[{"name":"role","type":"bytes32","internalType":"bytes32"},{"name":"callerConfirmation","type":"address","internalType":"address"}],"outputs":[],"stateMutability":"nonpayable"},{"type":"function","name":"revokeRole","inputs":[{"name":"role","type":"bytes32","internalType":"bytes32"},{"name":"account","type":"address","internalType":"address"}],"outputs":[],"stateMutability":"nonpayable"},{"type":"function","name":"setBGTIncentiveDistributor","inputs":[{"name":"_bgtIncentiveDistributor","type":"address","internalType":"address"}],"outputs":[],"stateMutability":"nonpayable"},{"type":"function","name":"supportsInterface","inputs":[{"name":"interfaceId","type":"bytes4","internalType":"bytes4"}],"outputs":[{"name":"","type":"bool","internalType":"bool"}],"stateMutability":"view"},{"type":"function","name":"upgradeToAndCall","inputs":[{"name":"newImplementation","type":"address","internalType":"address"},{"name":"data","type":"bytes","internalType":"bytes"}],"outputs":[],"stateMutability":"payable"},{"type":"event","name":"BGTIncentiveDistributorSet","inputs":[{"name":"newBGTIncentiveDistributor","type":"address","indexed":true,"internalType":"address"},{"name":"oldBGTIncentiveDistributor","type":"address","indexed":true,"internalType":"address"}],"anonymous":false},{"type":"event","name":"Initialized","inputs":[{"name":"version","type":"uint64","indexed":false,"internalType":"uint64"}],"anonymous":false},{"type":"event","name":"RoleAdminChanged","inputs":[{"name":"role","type":"bytes32","indexed":true,"internalType":"bytes32"},{"name":"previousAdminRole","type":"bytes32","indexed":true,"internalType":"bytes32"},{"name":"newAdminRole","type":"bytes32","indexed":true,"internalType":"bytes32"}],"anonymous":false},{"type":"event","name":"RoleGranted","inputs":[{"name":"role","type":"bytes32","indexed":true,"internalType":"bytes32"},{"name":"account","type":"address","indexed":true,"internalType":"address"},{"name":"sender","type":"address","indexed":true,"internalType":"address"}],"anonymous":false},{"type":"event","name":"RoleRevoked","inputs":[{"name":"role","type":"bytes32","indexed":true,"internalType":"bytes32"},{"name":"account","type":"address","indexed":true,"internalType":"address"},{"name":"sender","type":"address","indexed":true,"internalType":"address"}],"anonymous":false},{"type":"event","name":"Upgraded","inputs":[{"name":"implementation","type":"address","indexed":true,"internalType":"address"}],"anonymous":false},{"type":"event","name":"VaultCreated","inputs":[{"name":"stakingToken","type":"address","indexed":true,"internalType":"address"},{"name":"vault","type":"address","indexed":true,"internalType":"address"}],"anonymous":false},{"type":"error","name":"AccessControlBadConfirmation","inputs":[]},{"type":"error","name":"AccessControlUnauthorizedAccount","inputs":[{"name":"account","type":"address","internalType":"address"},{"name":"neededRole","type":"bytes32","internalType":"bytes32"}]},{"type":"error","name":"AddressEmptyCode","inputs":[{"name":"target","type":"address","internalType":"address"}]},{"type":"error","name":"AmountLessThanMinIncentiveRate","inputs":[]},{"type":"error","name":"CannotRecoverIncentiveToken","inputs":[]},{"type":"error","name":"CannotRecoverRewardToken","inputs":[]},{"type":"error","name":"CannotRecoverStakingToken","inputs":[]},{"type":"error","name":"CommissionChangeAlreadyQueued","inputs":[]},{"type":"error","name":"CommissionNotQueuedOrDelayNotPassed","inputs":[]},{"type":"error","name":"DepositNotMultipleOfGwei","inputs":[]},{"type":"error","name":"DepositValueTooHigh","inputs":[]},{"type":"error","name":"DonateAmountLessThanPayoutAmount","inputs":[]},{"type":"error","name":"ERC1967InvalidImplementation","inputs":[{"name":"implementation","type":"address","internalType":"address"}]},{"type":"error","name":"ERC1967NonPayable","inputs":[]},{"type":"error","name":"FailedCall","inputs":[]},{"type":"error","name":"IncentiveRateTooHigh","inputs":[]},{"type":"error","name":"IndexOutOfRange","inputs":[]},{"type":"error","name":"InsolventReward","inputs":[]},{"type":"error","name":"InsufficientDelegateStake","inputs":[]},{"type":"error","name":"InsufficientDeposit","inputs":[]},{"type":"error","name":"InsufficientIncentiveTokens","inputs":[]},{"type":"error","name":"InsufficientSelfStake","inputs":[]},{"type":"error","name":"InsufficientStake","inputs":[]},{"type":"error","name":"InvalidActivateBoostDelay","inputs":[]},{"type":"error","name":"InvalidArray","inputs":[]},{"type":"error","name":"InvalidBaseRate","inputs":[]},{"type":"error","name":"InvalidBoostMultiplier","inputs":[]},{"type":"error","name":"InvalidCommissionChangeDelay","inputs":[]},{"type":"error","name":"InvalidCommissionValue","inputs":[]},{"type":"error","name":"InvalidCredentialsLength","inputs":[]},{"type":"error","name":"InvalidDistribution","inputs":[]},{"type":"error","name":"InvalidDropBoostDelay","inputs":[]},{"type":"error","name":"InvalidIncentiveRate","inputs":[]},{"type":"error","name":"InvalidInitialization","inputs":[]},{"type":"error","name":"InvalidMaxIncentiveTokensCount","inputs":[]},{"type":"error","name":"InvalidMaxWeightPerVault","inputs":[]},{"type":"error","name":"InvalidMerkleRoot","inputs":[]},{"type":"error","name":"InvalidMinBoostedRewardRate","inputs":[]},{"type":"error","name":"InvalidProof","inputs":[]},{"type":"error","name":"InvalidPubKeyLength","inputs":[]},{"type":"error","name":"InvalidRewardAllocationWeights","inputs":[]},{"type":"error","name":"InvalidRewardClaimDelay","inputs":[]},{"type":"error","name":"InvalidRewardConvexity","inputs":[]},{"type":"error","name":"InvalidRewardRate","inputs":[]},{"type":"error","name":"InvalidSignatureLength","inputs":[]},{"type":"error","name":"InvalidStartBlock","inputs":[]},{"type":"error","name":"InvalidToken","inputs":[]},{"type":"error","name":"InvalidWeight","inputs":[]},{"type":"error","name":"InvalidateDefaultRewardAllocation","inputs":[]},{"type":"error","name":"InvariantCheckFailed","inputs":[]},{"type":"error","name":"MaxNumWeightsPerRewardAllocationIsZero","inputs":[]},{"type":"error","name":"MinIncentiveRateIsZero","inputs":[]},{"type":"error","name":"NotAContract","inputs":[]},{"type":"error","name":"NotApprovedSender","inputs":[]},{"type":"error","name":"NotBGT","inputs":[]},{"type":"error","name":"NotBlockRewardController","inputs":[]},{"type":"error","name":"NotDelegate","inputs":[]},{"type":"error","name":"NotDistributor","inputs":[]},{"type":"error","name":"NotEnoughBalance","inputs":[]},{"type":"error","name":"NotEnoughBoostedBalance","inputs":[]},{"type":"error","name":"NotEnoughTime","inputs":[]},{"type":"error","name":"NotFactoryVault","inputs":[]},{"type":"error","name":"NotFeeCollector","inputs":[]},{"type":"error","name":"NotIncentiveManager","inputs":[]},{"type":"error","name":"NotInitializing","inputs":[]},{"type":"error","name":"NotNewOperator","inputs":[]},{"type":"error","name":"NotOperator","inputs":[]},{"type":"error","name":"NotWhitelistedVault","inputs":[]},{"type":"error","name":"OperatorAlreadySet","inputs":[]},{"type":"error","name":"PayoutAmountIsZero","inputs":[]},{"type":"error","name":"RewardAllocationAlreadyQueued","inputs":[]},{"type":"error","name":"RewardAllocationBlockDelayTooLarge","inputs":[]},{"type":"error","name":"RewardCycleNotEnded","inputs":[]},{"type":"error","name":"RewardInactive","inputs":[]},{"type":"error","name":"RewardsDurationIsZero","inputs":[]},{"type":"error","name":"StakeAmountIsZero","inputs":[]},{"type":"error","name":"TimestampAlreadyProcessed","inputs":[]},{"type":"error","name":"TokenAlreadyWhitelistedOrLimitReached","inputs":[]},{"type":"error","name":"TokenNotWhitelisted","inputs":[]},{"type":"error","name":"TooManyWeights","inputs":[]},{"type":"error","name":"TotalSupplyOverflow","inputs":[]},{"type":"error","name":"UUPSUnauthorizedCallContext","inputs":[]},{"type":"error","name":"UUPSUnsupportedProxiableUUID","inputs":[{"name":"slot","type":"bytes32","internalType":"bytes32"}]},{"type":"error","name":"WithdrawAmountIsZero","inputs":[]},{"type":"error","name":"ZeroAddress","inputs":[]},{"type":"error","name":"ZeroOperatorOnFirstDeposit","inputs":[]},{"type":"error","name":"ZeroPercentageWeight","inputs":[]}],"bytecode":{"object":"0x60a060405230608052348015610013575f80fd5b5061001c610021565b6100d3565b7ff0c57e16840df040f15088dc2f81fe391c3923bec73e23a9662efc9c229c6a00805468010000000000000000900460ff16156100715760405163f92ee8a960e01b815260040160405180910390fd5b80546001600160401b03908116146100d05780546001600160401b0319166001600160401b0390811782556040519081527fc7f505b2f371ae2175ee4913f4499e1f2633a7b5936321eed1cdaeb6115181d29060200160405180910390a15b50565b608051611f0e6100f95f395f818161109b015281816110c401526112e70152611f0e5ff3fe608060405260043610610183575f3560e01c80635b3b9a18116100d1578063a217fddf1161007c578063c209bca211610057578063c209bca21461054c578063d547741f1461057f578063eafe0f4c1461059e575f80fd5b8063a217fddf146104b8578063ad3cb1cc146104cb578063bfe1092814610520575f80fd5b80639094a91e116100ac5780639094a91e146103fd57806391d148541461041c5780639a6c31c41461048c575f80fd5b80635b3b9a181461037f5780635e5a24a41461039e5780636cb9f230146103d1575f80fd5b806336568abe1161013157806352d1902d1161010c57806352d1902d14610321578063577ee5c71461033557806359659e9014610354575f80fd5b806336568abe146102db5780634cd18577146102fa5780634f1ef2861461030e575f80fd5b8063248a9ca311610161578063248a9ca3146102425780632f2ff15d1461029d578063349de329146102bc575f80fd5b806301ffc9a7146101875780630eb9af38146101bb5780631459457a14610221575b5f80fd5b348015610192575f80fd5b506101a66101a13660046118b5565b6105ca565b60405190151581526020015b60405180910390f35b3480156101c6575f80fd5b506101fc6101d536600461191c565b60046020525f908152604090205473ffffffffffffffffffffffffffffffffffffffff1681565b60405173ffffffffffffffffffffffffffffffffffffffff90911681526020016101b2565b34801561022c575f80fd5b5061024061023b366004611935565b610662565b005b34801561024d575f80fd5b5061028f61025c366004611996565b5f9081527f02dd7bc7dec4dceedda775e58dd541e08a116c6c53815c0bd028192f7b626800602052604090206001015490565b6040519081526020016101b2565b3480156102a8575f80fd5b506102406102b73660046119ad565b61091f565b3480156102c7575f80fd5b506102406102d636600461191c565b610968565b3480156102e6575f80fd5b506102406102f53660046119ad565b610a45565b348015610305575f80fd5b5060055461028f565b61024061031c366004611a04565b610aa3565b34801561032c575f80fd5b5061028f610ac2565b348015610340575f80fd5b506101fc61034f36600461191c565b610af0565b34801561035f575f80fd5b505f546101fc9073ffffffffffffffffffffffffffffffffffffffff1681565b34801561038a575f80fd5b506101fc61039936600461191c565b610cf7565b3480156103a9575f80fd5b5061028f7fd1473398bb66596de5d1ea1fc8e303ff2ac23265adc9144b1b52065dc4f0934b81565b3480156103dc575f80fd5b506006546101fc9073ffffffffffffffffffffffffffffffffffffffff1681565b348015610408575f80fd5b506101fc610417366004611996565b610d29565b348015610427575f80fd5b506101a66104363660046119ad565b5f9182527f02dd7bc7dec4dceedda775e58dd541e08a116c6c53815c0bd028192f7b6268006020908152604080842073ffffffffffffffffffffffffffffffffffffffff93909316845291905290205460ff1690565b348015610497575f80fd5b506001546101fc9073ffffffffffffffffffffffffffffffffffffffff1681565b3480156104c3575f80fd5b5061028f5f81565b3480156104d6575f80fd5b506105136040518060400160405280600581526020017f352e302e3000000000000000000000000000000000000000000000000000000081525081565b6040516101b29190611b05565b34801561052b575f80fd5b506002546101fc9073ffffffffffffffffffffffffffffffffffffffff1681565b348015610557575f80fd5b5061028f7f0b265ba7b18bf719914a9314c2cc6df88826c97fd1060e2bce9f59cf47fe4ba181565b34801561058a575f80fd5b506102406105993660046119ad565b610d5e565b3480156105a9575f80fd5b506003546101fc9073ffffffffffffffffffffffffffffffffffffffff1681565b5f7fffffffff0000000000000000000000000000000000000000000000000000000082167f7965db0b00000000000000000000000000000000000000000000000000000000148061065c57507f01ffc9a7000000000000000000000000000000000000000000000000000000007fffffffff000000000000000000000000000000000000000000000000000000008316145b92915050565b5f61066b610da1565b805490915060ff68010000000000000000820416159067ffffffffffffffff165f811580156106975750825b90505f8267ffffffffffffffff1660011480156106b35750303b155b9050811580156106c1575080155b156106f8576040517ff92ee8a900000000000000000000000000000000000000000000000000000000815260040160405180910390fd5b84547fffffffffffffffffffffffffffffffffffffffffffffffff000000000000000016600117855583156107595784547fffffffffffffffffffffffffffffffffffffffffffffff00ffffffffffffffff16680100000000000000001785555b610761610dc9565b610769610dc9565b6107735f88610dd3565b506107be7f0b265ba7b18bf719914a9314c2cc6df88826c97fd1060e2bce9f59cf47fe4ba17fd1473398bb66596de5d1ea1fc8e303ff2ac23265adc9144b1b52065dc4f0934b610ef1565b6001805473ffffffffffffffffffffffffffffffffffffffff808d167fffffffffffffffffffffffff000000000000000000000000000000000000000092831617909255600280548c841690831617905560038054928b169290911691909117905560405187908790610830906118a8565b73ffffffffffffffffffffffffffffffffffffffff928316815291166020820152604001604051809103905ff08015801561086d573d5f803e3d5ffd5b505f80547fffffffffffffffffffffffff00000000000000000000000000000000000000001673ffffffffffffffffffffffffffffffffffffffff9290921691909117905583156109135784547fffffffffffffffffffffffffffffffffffffffffffffff00ffffffffffffffff168555604051600181527fc7f505b2f371ae2175ee4913f4499e1f2633a7b5936321eed1cdaeb6115181d29060200160405180910390a15b50505050505050505050565b5f8281527f02dd7bc7dec4dceedda775e58dd541e08a116c6c53815c0bd028192f7b626800602052604090206001015461095881610f92565b6109628383610dd3565b50505050565b5f61097281610f92565b73ffffffffffffffffffffffffffffffffffffffff82166109b6576109b67fd92e233d00000000000000000000000000000000000000000000000000000000610f9f565b60065460405173ffffffffffffffffffffffffffffffffffffffff918216918416907f38bffcf8509d63333ad84013d433268a1d044bf5f68fdc7ffea76c73b737eda0905f90a350600680547fffffffffffffffffffffffff00000000000000000000000000000000000000001673ffffffffffffffffffffffffffffffffffffffff92909216919091179055565b73ffffffffffffffffffffffffffffffffffffffff81163314610a94576040517f6697b23200000000000000000000000000000000000000000000000000000000815260040160405180910390fd5b610a9e8282610fa7565b505050565b610aab611083565b610ab482611187565b610abe8282611191565b5050565b5f610acb6112cf565b507f360894a13ba1a3210667c828492db98dca3e2076cc3735a920a3ca505d382bbc90565b73ffffffffffffffffffffffffffffffffffffffff8082165f908152600460205260408120549091168015610b255792915050565b8273ffffffffffffffffffffffffffffffffffffffff163b5f03610b6c57610b6c7f09ee12d500000000000000000000000000000000000000000000000000000000610f9f565b5f838152602081208154909190610b999073ffffffffffffffffffffffffffffffffffffffff168361133e565b73ffffffffffffffffffffffffffffffffffffffff8087165f8181526004602052604080822080549486167fffffffffffffffffffffffff00000000000000000000000000000000000000009586168117909155600580546001810182559084527f036b6384b5eca791c62761152d0c79bb0604c104a5fb6f4eb0703f3154bb3db0018054909516811790945551939450919290917f5d9c31ffa0fecffd7cf379989a3c7af252f0335e0d2a1320b55245912c781f5391a36003546001546002546040517ff8c8765e00000000000000000000000000000000000000000000000000000000815273ffffffffffffffffffffffffffffffffffffffff938416600482015291831660248301528216604482015286821660648201529082169063f8c8765e906084015f604051808303815f87803b158015610cd8575f80fd5b505af1158015610cea573d5f803e3d5ffd5b5092979650505050505050565b5f818152602081208154610d229073ffffffffffffffffffffffffffffffffffffffff16823061134a565b9392505050565b60058181548110610d38575f80fd5b5f9182526020909120015473ffffffffffffffffffffffffffffffffffffffff16905081565b5f8281527f02dd7bc7dec4dceedda775e58dd541e08a116c6c53815c0bd028192f7b6268006020526040902060010154610d9781610f92565b6109628383610fa7565b5f807ff0c57e16840df040f15088dc2f81fe391c3923bec73e23a9662efc9c229c6a0061065c565b610dd161140d565b565b5f8281527f02dd7bc7dec4dceedda775e58dd541e08a116c6c53815c0bd028192f7b6268006020818152604080842073ffffffffffffffffffffffffffffffffffffffff8616855290915282205460ff16610ee8575f8481526020828152604080832073ffffffffffffffffffffffffffffffffffffffff87168452909152902080547fffffffffffffffffffffffffffffffffffffffffffffffffffffffffffffff00166001179055610e843390565b73ffffffffffffffffffffffffffffffffffffffff168373ffffffffffffffffffffffffffffffffffffffff16857f2f8788117e7eff1d82e926ec794901d17c78024a50270940304540a733656f0d60405160405180910390a4600191505061065c565b5f91505061065c565b7f02dd7bc7dec4dceedda775e58dd541e08a116c6c53815c0bd028192f7b6268005f610f4a845f9081527f02dd7bc7dec4dceedda775e58dd541e08a116c6c53815c0bd028192f7b626800602052604090206001015490565b5f85815260208490526040808220600101869055519192508491839187917fbd79b86ffe0ab8e8776151514217cd7cacd52c909f66475c3af44e129f0b00ff9190a450505050565b610f9c813361144b565b50565b805f5260045ffd5b5f8281527f02dd7bc7dec4dceedda775e58dd541e08a116c6c53815c0bd028192f7b6268006020818152604080842073ffffffffffffffffffffffffffffffffffffffff8616855290915282205460ff1615610ee8575f8481526020828152604080832073ffffffffffffffffffffffffffffffffffffffff8716808552925280832080547fffffffffffffffffffffffffffffffffffffffffffffffffffffffffffffff0016905551339287917ff6391f5c32d9c69d2a47ea670b442974b53935d1edc7fd64eb21e047a839171b9190a4600191505061065c565b3073ffffffffffffffffffffffffffffffffffffffff7f000000000000000000000000000000000000000000000000000000000000000016148061115057507f000000000000000000000000000000000000000000000000000000000000000073ffffffffffffffffffffffffffffffffffffffff166111377f360894a13ba1a3210667c828492db98dca3e2076cc3735a920a3ca505d382bbc5473ffffffffffffffffffffffffffffffffffffffff1690565b73ffffffffffffffffffffffffffffffffffffffff1614155b15610dd1576040517fe07c8dba00000000000000000000000000000000000000000000000000000000815260040160405180910390fd5b5f610abe81610f92565b8173ffffffffffffffffffffffffffffffffffffffff166352d1902d6040518163ffffffff1660e01b8152600401602060405180830381865afa925050508015611216575060408051601f3d9081017fffffffffffffffffffffffffffffffffffffffffffffffffffffffffffffffe016820190925261121391810190611b58565b60015b611269576040517f4c9c8ce300000000000000000000000000000000000000000000000000000000815273ffffffffffffffffffffffffffffffffffffffff831660048201526024015b60405180910390fd5b7f360894a13ba1a3210667c828492db98dca3e2076cc3735a920a3ca505d382bbc81146112c5576040517faa1d49a400000000000000000000000000000000000000000000000000000000815260048101829052602401611260565b610a9e83836114f1565b3073ffffffffffffffffffffffffffffffffffffffff7f00000000000000000000000000000000000000000000000000000000000000001614610dd1576040517fe07c8dba00000000000000000000000000000000000000000000000000000000815260040160405180910390fd5b5f610d225f8484611553565b604080517fb3582b35133d50545afa5036515af43d6000803e604d573d6000fd5b3d6000f360609081527f1b60e01b36527fa3f0ad74e5423aebfd80d3ef4346578335a9a72aeaee59ff6c83527660195155f3363d3d373d3d363d602036600436635c60da60205273ffffffffffffffffffffffffffffffffffffffff86167c60523d8160223d39730000000000000000000000000000000000000000176009526074600c20919092525f9182905261140481858561161e565b95945050505050565b61141561163d565b610dd1576040517fd7e6bcf800000000000000000000000000000000000000000000000000000000815260040160405180910390fd5b5f8281527f02dd7bc7dec4dceedda775e58dd541e08a116c6c53815c0bd028192f7b6268006020908152604080832073ffffffffffffffffffffffffffffffffffffffff8516845290915290205460ff16610abe576040517fe2517d3f00000000000000000000000000000000000000000000000000000000815273ffffffffffffffffffffffffffffffffffffffff8216600482015260248101839052604401611260565b6114fa8261165b565b60405173ffffffffffffffffffffffffffffffffffffffff8316907fbc7cd75a20ee27fd9adebab32041f755214dbc6bffa90cc0225b39da2e5c2d3b905f90a280511561154b57610a9e8282611729565b610abe61179f565b604080517fb3582b35133d50545afa5036515af43d6000803e604d573d6000fd5b3d6000f36060527f1b60e01b36527fa3f0ad74e5423aebfd80d3ef4346578335a9a72aeaee59ff6c9091527660195155f3363d3d373d3d363d602036600436635c60da6020527c60523d8160223d3973000000000000000000000000000000000000000073ffffffffffffffffffffffffffffffffffffffff8416176009525f90826074600c87f59150816116105763301164255f526004601cfd5b6040525f6060529392505050565b5f60ff5f5350603592835260601b60015260155260555f908120915290565b5f611646610da1565b5468010000000000000000900460ff16919050565b8073ffffffffffffffffffffffffffffffffffffffff163b5f036116c3576040517f4c9c8ce300000000000000000000000000000000000000000000000000000000815273ffffffffffffffffffffffffffffffffffffffff82166004820152602401611260565b7f360894a13ba1a3210667c828492db98dca3e2076cc3735a920a3ca505d382bbc80547fffffffffffffffffffffffff00000000000000000000000000000000000000001673ffffffffffffffffffffffffffffffffffffffff92909216919091179055565b60605f808473ffffffffffffffffffffffffffffffffffffffff16846040516117529190611b6f565b5f60405180830381855af49150503d805f811461178a576040519150601f19603f3d011682016040523d82523d5f602084013e61178f565b606091505b50915091506114048583836117d7565b3415610dd1576040517fb398979f00000000000000000000000000000000000000000000000000000000815260040160405180910390fd5b6060826117ec576117e782611866565b610d22565b8151158015611810575073ffffffffffffffffffffffffffffffffffffffff84163b155b1561185f576040517f9996b31500000000000000000000000000000000000000000000000000000000815273ffffffffffffffffffffffffffffffffffffffff85166004820152602401611260565b5092915050565b8051156118765780518082602001fd5b6040517fd6bda27500000000000000000000000000000000000000000000000000000000815260040160405180910390fd5b61037c80611b8683390190565b5f602082840312156118c5575f80fd5b81357fffffffff0000000000000000000000000000000000000000000000000000000081168114610d22575f80fd5b803573ffffffffffffffffffffffffffffffffffffffff81168114611917575f80fd5b919050565b5f6020828403121561192c575f80fd5b610d22826118f4565b5f805f805f60a08688031215611949575f80fd5b611952866118f4565b9450611960602087016118f4565b935061196e604087016118f4565b925061197c606087016118f4565b915061198a608087016118f4565b90509295509295909350565b5f602082840312156119a6575f80fd5b5035919050565b5f80604083850312156119be575f80fd5b823591506119ce602084016118f4565b90509250929050565b7f4e487b71000000000000000000000000000000000000000000000000000000005f52604160045260245ffd5b5f8060408385031215611a15575f80fd5b611a1e836118f4565b9150602083013567ffffffffffffffff811115611a39575f80fd5b8301601f81018513611a49575f80fd5b803567ffffffffffffffff811115611a6357611a636119d7565b6040517fffffffffffffffffffffffffffffffffffffffffffffffffffffffffffffffe0603f7fffffffffffffffffffffffffffffffffffffffffffffffffffffffffffffffe0601f8501160116810181811067ffffffffffffffff82111715611acf57611acf6119d7565b604052818152828201602001871015611ae6575f80fd5b816020840160208301375f602083830101528093505050509250929050565b602081525f82518060208401528060208501604085015e5f6040828501015260407fffffffffffffffffffffffffffffffffffffffffffffffffffffffffffffffe0601f83011684010191505092915050565b5f60208284031215611b68575f80fd5b5051919050565b5f82518060208501845e5f92019182525091905056fe608060405260405161037c38038061037c83398101604081905261002291610108565b61002c8282610033565b5050610139565b61003d8282610041565b5050565b61004a82610053565b61003d8161009d565b8060601b60601c9050684343a0dc92ed22dbfc5481684343a0dc92ed22dbfc5581817f8be0079c531659141344cd1fd0a4f28419497f9722a3daafe3b4186f6b6457e05f38a35050565b6001600160a01b0316803b6100b957636d3e283b5f526004601cfd5b8068911c5a209f08d5ec5e55807fbc7cd75a20ee27fd9adebab32041f755214dbc6bffa90cc0225b39da2e5c2d3b5f38a250565b80516001600160a01b0381168114610103575f80fd5b919050565b5f8060408385031215610119575f80fd5b610122836100ed565b9150610130602084016100ed565b90509250929050565b610236806101465f395ff3fe608060405234801561000f575f80fd5b5060043610610064575f3560e01c8063715018a61161004d578063715018a6146100b25780638da5cb5b146100ba578063f2fde38b146100ca575f80fd5b80633659cfe6146100685780635c60da1b1461007d575b5f80fd5b61007b6100763660046101ef565b6100dd565b005b68911c5a209f08d5ec5e545b60405173ffffffffffffffffffffffffffffffffffffffff909116815260200160405180910390f35b61007b6100f1565b684343a0dc92ed22dbfc54610089565b61007b6100d83660046101ef565b610104565b6100e561012a565b6100ee81610148565b50565b6100f961012a565b6101025f6101a5565b565b61010c61012a565b8060601b61012157637448fbae5f526004601cfd5b6100ee816101a5565b684343a0dc92ed22dbfc543314610102576382b429005f526004601cfd5b73ffffffffffffffffffffffffffffffffffffffff16803b61017157636d3e283b5f526004601cfd5b8068911c5a209f08d5ec5e55807fbc7cd75a20ee27fd9adebab32041f755214dbc6bffa90cc0225b39da2e5c2d3b5f38a250565b8060601b60601c9050684343a0dc92ed22dbfc5481684343a0dc92ed22dbfc5581817f8be0079c531659141344cd1fd0a4f28419497f9722a3daafe3b4186f6b6457e05f38a35050565b5f602082840312156101ff575f80fd5b813573ffffffffffffffffffffffffffffffffffffffff81168114610222575f80fd5b939250505056fea164736f6c634300081a000aa164736f6c634300081a000a","linkReferences":{}},"methodIdentifiers":{"DEFAULT_ADMIN_ROLE()":"a217fddf","UPGRADE_INTERFACE_VERSION()":"ad3cb1cc","VAULT_MANAGER_ROLE()":"5e5a24a4","VAULT_PAUSER_ROLE()":"c209bca2","allVaults(uint256)":"9094a91e","allVaultsLength()":"4cd18577","beacon()":"59659e90","beaconDepositContract()":"eafe0f4c","bgt()":"9a6c31c4","bgtIncentiveDistributor()":"6cb9f230","createRewardVault(address)":"577ee5c7","distributor()":"bfe10928","getRoleAdmin(bytes32)":"248a9ca3","getVault(address)":"0eb9af38","grantRole(bytes32,address)":"2f2ff15d","hasRole(bytes32,address)":"91d14854","initialize(address,address,address,address,address)":"1459457a","predictRewardVaultAddress(address)":"5b3b9a18","proxiableUUID()":"52d1902d","renounceRole(bytes32,address)":"36568abe","revokeRole(bytes32,address)":"d547741f","setBGTIncentiveDistributor(address)":"349de329","supportsInterface(bytes4)":"01ffc9a7","upgradeToAndCall(address,bytes)":"4f1ef286"},"storageLayout":{"storage":[{"astId":85999,"contract":"src/pol/rewards/RewardVaultFactory.sol:RewardVaultFactory","label":"beacon","offset":0,"slot":"0","type":"t_address"},{"astId":86002,"contract":"src/pol/rewards/RewardVaultFactory.sol:RewardVaultFactory","label":"bgt","offset":0,"slot":"1","type":"t_address"},{"astId":86005,"contract":"src/pol/rewards/RewardVaultFactory.sol:RewardVaultFactory","label":"distributor","offset":0,"slot":"2","type":"t_address"},{"astId":86008,"contract":"src/pol/rewards/RewardVaultFactory.sol:RewardVaultFactory","label":"beaconDepositContract","offset":0,"slot":"3","type":"t_address"},{"astId":86013,"contract":"src/pol/rewards/RewardVaultFactory.sol:RewardVaultFactory","label":"getVault","offset":0,"slot":"4","type":"t_mapping(t_address,t_address)"},{"astId":86017,"contract":"src/pol/rewards/RewardVaultFactory.sol:RewardVaultFactory","label":"allVaults","offset":0,"slot":"5","type":"t_array(t_address)dyn_storage"},{"astId":86020,"contract":"src/pol/rewards/RewardVaultFactory.sol:RewardVaultFactory","label":"bgtIncentiveDistributor","offset":0,"slot":"6","type":"t_address"}],"types":{"t_address":{"encoding":"inplace","label":"address","numberOfBytes":"20"},"t_array(t_address)dyn_storage":{"encoding":"dynamic_array","label":"address[]","numberOfBytes":"32","base":"t_address"},"t_mapping(t_address,t_address)":{"encoding":"mapping","key":"t_address","label":"mapping(address => address)","numberOfBytes":"32","value":"t_address"}}},"id":155}