{"abi":[{"type":"constructor","inputs":[],"stateMutability":"nonpayable"},{"type":"function","name":"DEFAULT_ADMIN_ROLE","inputs":[],"outputs":[{"name":"","type":"bytes32","internalType":"bytes32"}],"stateMutability":"view"},{"type":"function","name":"MANAGER_ROLE","inputs":[],"outputs":[{"name":"","type":"bytes32","internalType":"bytes32"}],"stateMutability":"view"},{"type":"function","name":"PAUSER_ROLE","inputs":[],"outputs":[{"name":"","type":"bytes32","internalType":"bytes32"}],"stateMutability":"view"},{"type":"function","name":"UPGRADE_INTERFACE_VERSION","inputs":[],"outputs":[{"name":"","type":"string","internalType":"string"}],"stateMutability":"view"},{"type":"function","name":"beacon","inputs":[],"outputs":[{"name":"","type":"address","internalType":"address"}],"stateMutability":"view"},{"type":"function","name":"collectedFees","inputs":[{"name":"receiver","type":"address","internalType":"address"},{"name":"asset","type":"address","internalType":"address"}],"outputs":[{"name":"collectedFee","type":"uint256","internalType":"uint256"}],"stateMutability":"view"},{"type":"function","name":"createVault","inputs":[{"name":"asset","type":"address","internalType":"address"}],"outputs":[{"name":"vault","type":"address","internalType":"contract ERC4626"}],"stateMutability":"nonpayable"},{"type":"function","name":"feeReceiver","inputs":[],"outputs":[{"name":"","type":"address","internalType":"address"}],"stateMutability":"view"},{"type":"function","name":"forcedBasketMode","inputs":[],"outputs":[{"name":"","type":"bool","internalType":"bool"}],"stateMutability":"view"},{"type":"function","name":"getRoleAdmin","inputs":[{"name":"role","type":"bytes32","internalType":"bytes32"}],"outputs":[{"name":"","type":"bytes32","internalType":"bytes32"}],"stateMutability":"view"},{"type":"function","name":"getWeights","inputs":[],"outputs":[{"name":"w","type":"uint256[]","internalType":"uint256[]"}],"stateMutability":"view"},{"type":"function","name":"globalCap","inputs":[],"outputs":[{"name":"","type":"uint256","internalType":"uint256"}],"stateMutability":"view"},{"type":"function","name":"grantRole","inputs":[{"name":"role","type":"bytes32","internalType":"bytes32"},{"name":"account","type":"address","internalType":"address"}],"outputs":[],"stateMutability":"nonpayable"},{"type":"function","name":"hasRole","inputs":[{"name":"role","type":"bytes32","internalType":"bytes32"},{"name":"account","type":"address","internalType":"address"}],"outputs":[{"name":"","type":"bool","internalType":"bool"}],"stateMutability":"view"},{"type":"function","name":"honey","inputs":[],"outputs":[{"name":"","type":"address","internalType":"contract Honey"}],"stateMutability":"view"},{"type":"function","name":"initialize","inputs":[{"name":"_governance","type":"address","internalType":"address"},{"name":"_honey","type":"address","internalType":"address"},{"name":"_polFeeCollector","type":"address","internalType":"address"},{"name":"_feeReceiver","type":"address","internalType":"address"},{"name":"_priceOracle","type":"address","internalType":"address"}],"outputs":[],"stateMutability":"nonpayable"},{"type":"function","name":"isBadCollateralAsset","inputs":[{"name":"asset","type":"address","internalType":"address"}],"outputs":[{"name":"badCollateral","type":"bool","internalType":"bool"}],"stateMutability":"view"},{"type":"function","name":"isBasketModeEnabled","inputs":[{"name":"isMint","type":"bool","internalType":"bool"}],"outputs":[{"name":"basketMode","type":"bool","internalType":"bool"}],"stateMutability":"view"},{"type":"function","name":"isPegged","inputs":[{"name":"asset","type":"address","internalType":"address"}],"outputs":[{"name":"","type":"bool","internalType":"bool"}],"stateMutability":"view"},{"type":"function","name":"liquidate","inputs":[{"name":"badCollateral","type":"address","internalType":"address"},{"name":"goodCollateral","type":"address","internalType":"address"},{"name":"goodAmount","type":"uint256","internalType":"uint256"}],"outputs":[{"name":"badAmount","type":"uint256","internalType":"uint256"}],"stateMutability":"nonpayable"},{"type":"function","name":"liquidationEnabled","inputs":[],"outputs":[{"name":"","type":"bool","internalType":"bool"}],"stateMutability":"view"},{"type":"function","name":"minSharesToRecapitalize","inputs":[],"outputs":[{"name":"","type":"uint256","internalType":"uint256"}],"stateMutability":"view"},{"type":"function","name":"mint","inputs":[{"name":"asset","type":"address","internalType":"address"},{"name":"amount","type":"uint256","internalType":"uint256"},{"name":"receiver","type":"address","internalType":"address"},{"name":"expectBasketMode","type":"bool","internalType":"bool"}],"outputs":[{"name":"honeyToMint","type":"uint256","internalType":"uint256"}],"stateMutability":"nonpayable"},{"type":"function","name":"mintRates","inputs":[{"name":"asset","type":"address","internalType":"address"}],"outputs":[{"name":"rate","type":"uint256","internalType":"uint256"}],"stateMutability":"view"},{"type":"function","name":"numRegisteredAssets","inputs":[],"outputs":[{"name":"","type":"uint256","internalType":"uint256"}],"stateMutability":"view"},{"type":"function","name":"pause","inputs":[],"outputs":[],"stateMutability":"nonpayable"},{"type":"function","name":"pauseVault","inputs":[{"name":"asset","type":"address","internalType":"address"}],"outputs":[],"stateMutability":"nonpayable"},{"type":"function","name":"paused","inputs":[],"outputs":[{"name":"","type":"bool","internalType":"bool"}],"stateMutability":"view"},{"type":"function","name":"polFeeCollector","inputs":[],"outputs":[{"name":"","type":"address","internalType":"address"}],"stateMutability":"view"},{"type":"function","name":"polFeeCollectorFeeRate","inputs":[],"outputs":[{"name":"","type":"uint256","internalType":"uint256"}],"stateMutability":"view"},{"type":"function","name":"priceFeedMaxDelay","inputs":[],"outputs":[{"name":"","type":"uint256","internalType":"uint256"}],"stateMutability":"view"},{"type":"function","name":"priceOracle","inputs":[],"outputs":[{"name":"","type":"address","internalType":"contract IPriceOracle"}],"stateMutability":"view"},{"type":"function","name":"proxiableUUID","inputs":[],"outputs":[{"name":"","type":"bytes32","internalType":"bytes32"}],"stateMutability":"view"},{"type":"function","name":"recapitalize","inputs":[{"name":"asset","type":"address","internalType":"address"},{"name":"amount","type":"uint256","internalType":"uint256"}],"outputs":[],"stateMutability":"nonpayable"},{"type":"function","name":"recapitalizeBalanceThreshold","inputs":[{"name":"asset","type":"address","internalType":"address"}],"outputs":[{"name":"targetBalance","type":"uint256","internalType":"uint256"}],"stateMutability":"view"},{"type":"function","name":"redeem","inputs":[{"name":"asset","type":"address","internalType":"address"},{"name":"honeyAmount","type":"uint256","internalType":"uint256"},{"name":"receiver","type":"address","internalType":"address"},{"name":"expectBasketMode","type":"bool","internalType":"bool"}],"outputs":[{"name":"redeemed","type":"uint256[]","internalType":"uint256[]"}],"stateMutability":"nonpayable"},{"type":"function","name":"redeemRates","inputs":[{"name":"asset","type":"address","internalType":"address"}],"outputs":[{"name":"rate","type":"uint256","internalType":"uint256"}],"stateMutability":"view"},{"type":"function","name":"referenceCollateral","inputs":[],"outputs":[{"name":"","type":"address","internalType":"address"}],"stateMutability":"view"},{"type":"function","name":"registeredAssets","inputs":[{"name":"","type":"uint256","internalType":"uint256"}],"outputs":[{"name":"","type":"address","internalType":"address"}],"stateMutability":"view"},{"type":"function","name":"relativeCap","inputs":[{"name":"asset","type":"address","internalType":"address"}],"outputs":[{"name":"limit","type":"uint256","internalType":"uint256"}],"stateMutability":"view"},{"type":"function","name":"renounceRole","inputs":[{"name":"role","type":"bytes32","internalType":"bytes32"},{"name":"callerConfirmation","type":"address","internalType":"address"}],"outputs":[],"stateMutability":"nonpayable"},{"type":"function","name":"revokeRole","inputs":[{"name":"role","type":"bytes32","internalType":"bytes32"},{"name":"account","type":"address","internalType":"address"}],"outputs":[],"stateMutability":"nonpayable"},{"type":"function","name":"setCollateralAssetStatus","inputs":[{"name":"asset","type":"address","internalType":"address"},{"name":"_isBadCollateral","type":"bool","internalType":"bool"}],"outputs":[],"stateMutability":"nonpayable"},{"type":"function","name":"setDepegOffsets","inputs":[{"name":"asset","type":"address","internalType":"address"},{"name":"lowerOffset","type":"uint256","internalType":"uint256"},{"name":"upperOffset","type":"uint256","internalType":"uint256"}],"outputs":[],"stateMutability":"nonpayable"},{"type":"function","name":"setFeeReceiver","inputs":[{"name":"_feeReceiver","type":"address","internalType":"address"}],"outputs":[],"stateMutability":"nonpayable"},{"type":"function","name":"setForcedBasketMode","inputs":[{"name":"forced","type":"bool","internalType":"bool"}],"outputs":[],"stateMutability":"nonpayable"},{"type":"function","name":"setGlobalCap","inputs":[{"name":"limit","type":"uint256","internalType":"uint256"}],"outputs":[],"stateMutability":"nonpayable"},{"type":"function","name":"setLiquidationEnabled","inputs":[{"name":"enabled","type":"bool","internalType":"bool"}],"outputs":[],"stateMutability":"nonpayable"},{"type":"function","name":"setLiquidationRate","inputs":[{"name":"asset","type":"address","internalType":"address"},{"name":"extraRate","type":"uint256","internalType":"uint256"}],"outputs":[],"stateMutability":"nonpayable"},{"type":"function","name":"setMaxFeedDelay","inputs":[{"name":"maxTolerance","type":"uint256","internalType":"uint256"}],"outputs":[],"stateMutability":"nonpayable"},{"type":"function","name":"setMinSharesToRecapitalize","inputs":[{"name":"minSharesAmount","type":"uint256","internalType":"uint256"}],"outputs":[],"stateMutability":"nonpayable"},{"type":"function","name":"setMintRate","inputs":[{"name":"asset","type":"address","internalType":"address"},{"name":"mintRate","type":"uint256","internalType":"uint256"}],"outputs":[],"stateMutability":"nonpayable"},{"type":"function","name":"setPOLFeeCollector","inputs":[{"name":"_polFeeCollector","type":"address","internalType":"address"}],"outputs":[],"stateMutability":"nonpayable"},{"type":"function","name":"setPOLFeeCollectorFeeRate","inputs":[{"name":"_polFeeCollectorFeeRate","type":"uint256","internalType":"uint256"}],"outputs":[],"stateMutability":"nonpayable"},{"type":"function","name":"setPriceOracle","inputs":[{"name":"priceOracle_","type":"address","internalType":"address"}],"outputs":[],"stateMutability":"nonpayable"},{"type":"function","name":"setRecapitalizeBalanceThreshold","inputs":[{"name":"asset","type":"address","internalType":"address"},{"name":"target","type":"uint256","internalType":"uint256"}],"outputs":[],"stateMutability":"nonpayable"},{"type":"function","name":"setRedeemRate","inputs":[{"name":"asset","type":"address","internalType":"address"},{"name":"redeemRate","type":"uint256","internalType":"uint256"}],"outputs":[],"stateMutability":"nonpayable"},{"type":"function","name":"setReferenceCollateral","inputs":[{"name":"asset","type":"address","internalType":"address"}],"outputs":[],"stateMutability":"nonpayable"},{"type":"function","name":"setRelativeCap","inputs":[{"name":"asset","type":"address","internalType":"address"},{"name":"limit","type":"uint256","internalType":"uint256"}],"outputs":[],"stateMutability":"nonpayable"},{"type":"function","name":"supportsInterface","inputs":[{"name":"interfaceId","type":"bytes4","internalType":"bytes4"}],"outputs":[{"name":"","type":"bool","internalType":"bool"}],"stateMutability":"view"},{"type":"function","name":"unpause","inputs":[],"outputs":[],"stateMutability":"nonpayable"},{"type":"function","name":"unpauseVault","inputs":[{"name":"asset","type":"address","internalType":"address"}],"outputs":[],"stateMutability":"nonpayable"},{"type":"function","name":"upgradeToAndCall","inputs":[{"name":"newImplementation","type":"address","internalType":"address"},{"name":"data","type":"bytes","internalType":"bytes"}],"outputs":[],"stateMutability":"payable"},{"type":"function","name":"vaults","inputs":[{"name":"asset","type":"address","internalType":"address"}],"outputs":[{"name":"vault","type":"address","internalType":"contract CollateralVault_V0"}],"stateMutability":"view"},{"type":"function","name":"withdrawAllFees","inputs":[{"name":"receiver","type":"address","internalType":"address"}],"outputs":[],"stateMutability":"nonpayable"},{"type":"function","name":"withdrawFee","inputs":[{"name":"asset","type":"address","internalType":"address"},{"name":"receiver","type":"address","internalType":"address"}],"outputs":[{"name":"assets","type":"uint256","internalType":"uint256"}],"stateMutability":"nonpayable"},{"type":"event","name":"BasketModeForced","inputs":[{"name":"forced","type":"bool","indexed":false,"internalType":"bool"}],"anonymous":false},{"type":"event","name":"CollateralAssetStatusSet","inputs":[{"name":"asset","type":"address","indexed":true,"internalType":"address"},{"name":"isBadCollateral","type":"bool","indexed":false,"internalType":"bool"}],"anonymous":false},{"type":"event","name":"CollectedFeeWithdrawn","inputs":[{"name":"asset","type":"address","indexed":true,"internalType":"address"},{"name":"receiver","type":"address","indexed":true,"internalType":"address"},{"name":"shares","type":"uint256","indexed":false,"internalType":"uint256"},{"name":"assets","type":"uint256","indexed":false,"internalType":"uint256"}],"anonymous":false},{"type":"event","name":"DepegOffsetsSet","inputs":[{"name":"asset","type":"address","indexed":false,"internalType":"address"},{"name":"lower","type":"uint256","indexed":false,"internalType":"uint256"},{"name":"upper","type":"uint256","indexed":false,"internalType":"uint256"}],"anonymous":false},{"type":"event","name":"FeeReceiverSet","inputs":[{"name":"feeReceiver","type":"address","indexed":true,"internalType":"address"}],"anonymous":false},{"type":"event","name":"GlobalCapSet","inputs":[{"name":"globalCap","type":"uint256","indexed":false,"internalType":"uint256"}],"anonymous":false},{"type":"event","name":"HoneyMinted","inputs":[{"name":"from","type":"address","indexed":true,"internalType":"address"},{"name":"to","type":"address","indexed":true,"internalType":"address"},{"name":"asset","type":"address","indexed":true,"internalType":"address"},{"name":"assetAmount","type":"uint256","indexed":false,"internalType":"uint256"},{"name":"mintAmount","type":"uint256","indexed":false,"internalType":"uint256"}],"anonymous":false},{"type":"event","name":"HoneyRedeemed","inputs":[{"name":"from","type":"address","indexed":true,"internalType":"address"},{"name":"to","type":"address","indexed":true,"internalType":"address"},{"name":"asset","type":"address","indexed":true,"internalType":"address"},{"name":"assetAmount","type":"uint256","indexed":false,"internalType":"uint256"},{"name":"redeemAmount","type":"uint256","indexed":false,"internalType":"uint256"}],"anonymous":false},{"type":"event","name":"Initialized","inputs":[{"name":"version","type":"uint64","indexed":false,"internalType":"uint64"}],"anonymous":false},{"type":"event","name":"Liquidated","inputs":[{"name":"badAsset","type":"address","indexed":false,"internalType":"address"},{"name":"goodAsset","type":"address","indexed":false,"internalType":"address"},{"name":"amount","type":"uint256","indexed":false,"internalType":"uint256"},{"name":"sender","type":"address","indexed":false,"internalType":"address"}],"anonymous":false},{"type":"event","name":"LiquidationRateSet","inputs":[{"name":"asset","type":"address","indexed":false,"internalType":"address"},{"name":"rate","type":"uint256","indexed":false,"internalType":"uint256"}],"anonymous":false},{"type":"event","name":"LiquidationStatusSet","inputs":[{"name":"enabled","type":"bool","indexed":false,"internalType":"bool"}],"anonymous":false},{"type":"event","name":"MaxFeedDelaySet","inputs":[{"name":"maxFeedDelay","type":"uint256","indexed":false,"internalType":"uint256"}],"anonymous":false},{"type":"event","name":"MinSharesToRecapitalizeSet","inputs":[{"name":"minShareAmount","type":"uint256","indexed":false,"internalType":"uint256"}],"anonymous":false},{"type":"event","name":"MintRateSet","inputs":[{"name":"asset","type":"address","indexed":true,"internalType":"address"},{"name":"rate","type":"uint256","indexed":false,"internalType":"uint256"}],"anonymous":false},{"type":"event","name":"POLFeeCollectorFeeRateSet","inputs":[{"name":"rate","type":"uint256","indexed":false,"internalType":"uint256"}],"anonymous":false},{"type":"event","name":"POLFeeCollectorSet","inputs":[{"name":"polFeeCollector","type":"address","indexed":true,"internalType":"address"}],"anonymous":false},{"type":"event","name":"Paused","inputs":[{"name":"account","type":"address","indexed":false,"internalType":"address"}],"anonymous":false},{"type":"event","name":"PriceFeedChanged","inputs":[{"name":"asset","type":"address","indexed":true,"internalType":"address"},{"name":"id","type":"bytes32","indexed":false,"internalType":"bytes32"}],"anonymous":false},{"type":"event","name":"PriceOracleSet","inputs":[{"name":"oracle","type":"address","indexed":false,"internalType":"address"}],"anonymous":false},{"type":"event","name":"RecapitalizeBalanceThresholdSet","inputs":[{"name":"asset","type":"address","indexed":false,"internalType":"address"},{"name":"target","type":"uint256","indexed":false,"internalType":"uint256"}],"anonymous":false},{"type":"event","name":"Recapitalized","inputs":[{"name":"asset","type":"address","indexed":false,"internalType":"address"},{"name":"amount","type":"uint256","indexed":false,"internalType":"uint256"},{"name":"sender","type":"address","indexed":false,"internalType":"address"}],"anonymous":false},{"type":"event","name":"RedeemRateSet","inputs":[{"name":"asset","type":"address","indexed":true,"internalType":"address"},{"name":"rate","type":"uint256","indexed":false,"internalType":"uint256"}],"anonymous":false},{"type":"event","name":"ReferenceCollateralSet","inputs":[{"name":"old","type":"address","indexed":false,"internalType":"address"},{"name":"asset","type":"address","indexed":false,"internalType":"address"}],"anonymous":false},{"type":"event","name":"RelativeCapSet","inputs":[{"name":"asset","type":"address","indexed":false,"internalType":"address"},{"name":"relativeCap","type":"uint256","indexed":false,"internalType":"uint256"}],"anonymous":false},{"type":"event","name":"RoleAdminChanged","inputs":[{"name":"role","type":"bytes32","indexed":true,"internalType":"bytes32"},{"name":"previousAdminRole","type":"bytes32","indexed":true,"internalType":"bytes32"},{"name":"newAdminRole","type":"bytes32","indexed":true,"internalType":"bytes32"}],"anonymous":false},{"type":"event","name":"RoleGranted","inputs":[{"name":"role","type":"bytes32","indexed":true,"internalType":"bytes32"},{"name":"account","type":"address","indexed":true,"internalType":"address"},{"name":"sender","type":"address","indexed":true,"internalType":"address"}],"anonymous":false},{"type":"event","name":"RoleRevoked","inputs":[{"name":"role","type":"bytes32","indexed":true,"internalType":"bytes32"},{"name":"account","type":"address","indexed":true,"internalType":"address"},{"name":"sender","type":"address","indexed":true,"internalType":"address"}],"anonymous":false},{"type":"event","name":"Unpaused","inputs":[{"name":"account","type":"address","indexed":false,"internalType":"address"}],"anonymous":false},{"type":"event","name":"Upgraded","inputs":[{"name":"implementation","type":"address","indexed":true,"internalType":"address"}],"anonymous":false},{"type":"event","name":"VaultCreated","inputs":[{"name":"vault","type":"address","indexed":true,"internalType":"address"},{"name":"asset","type":"address","indexed":true,"internalType":"address"}],"anonymous":false},{"type":"error","name":"AccessControlBadConfirmation","inputs":[]},{"type":"error","name":"AccessControlUnauthorizedAccount","inputs":[{"name":"account","type":"address","internalType":"address"},{"name":"neededRole","type":"bytes32","internalType":"bytes32"}]},{"type":"error","name":"AddressEmptyCode","inputs":[{"name":"target","type":"address","internalType":"address"}]},{"type":"error","name":"AmountOutOfRange","inputs":[]},{"type":"error","name":"AssetIsBadCollateral","inputs":[{"name":"asset","type":"address","internalType":"address"}]},{"type":"error","name":"AssetIsNotBadCollateral","inputs":[{"name":"asset","type":"address","internalType":"address"}]},{"type":"error","name":"AssetNotRegistered","inputs":[{"name":"asset","type":"address","internalType":"address"}]},{"type":"error","name":"CapCanCauseDenialOfService","inputs":[]},{"type":"error","name":"ERC1967InvalidImplementation","inputs":[{"name":"implementation","type":"address","internalType":"address"}]},{"type":"error","name":"ERC1967NonPayable","inputs":[]},{"type":"error","name":"EnforcedPause","inputs":[]},{"type":"error","name":"ExceedGlobalCap","inputs":[]},{"type":"error","name":"ExceedRelativeCap","inputs":[]},{"type":"error","name":"ExpectedPause","inputs":[]},{"type":"error","name":"FailedCall","inputs":[]},{"type":"error","name":"InsufficientAssets","inputs":[{"name":"assets","type":"uint256","internalType":"uint256"},{"name":"shares","type":"uint256","internalType":"uint256"}]},{"type":"error","name":"InsufficientRecapitalizeAmount","inputs":[{"name":"amount","type":"uint256","internalType":"uint256"}]},{"type":"error","name":"InvalidCustodyInfoInput","inputs":[]},{"type":"error","name":"InvalidInitialization","inputs":[]},{"type":"error","name":"LiquidationDisabled","inputs":[]},{"type":"error","name":"LiquidationWithReferenceCollateral","inputs":[]},{"type":"error","name":"MismatchedOwner","inputs":[{"name":"owner","type":"address","internalType":"address"},{"name":"expectedOwner","type":"address","internalType":"address"}]},{"type":"error","name":"NotFactory","inputs":[]},{"type":"error","name":"NotInitializing","inputs":[]},{"type":"error","name":"NotPegged","inputs":[{"name":"asset","type":"address","internalType":"address"}]},{"type":"error","name":"OverOneHundredPercentRate","inputs":[{"name":"rate","type":"uint256","internalType":"uint256"}]},{"type":"error","name":"RecapitalizeNotNeeded","inputs":[{"name":"asset","type":"address","internalType":"address"}]},{"type":"error","name":"UUPSUnauthorizedCallContext","inputs":[]},{"type":"error","name":"UUPSUnsupportedProxiableUUID","inputs":[{"name":"slot","type":"bytes32","internalType":"bytes32"}]},{"type":"error","name":"UnauthorizedCaller","inputs":[{"name":"caller","type":"address","internalType":"address"},{"name":"expectedCaller","type":"address","internalType":"address"}]},{"type":"error","name":"UnderNinetyEightPercentRate","inputs":[{"name":"rate","type":"uint256","internalType":"uint256"}]},{"type":"error","name":"UnexpectedBasketModeStatus","inputs":[]},{"type":"error","name":"VaultAlreadyRegistered","inputs":[{"name":"asset","type":"address","internalType":"address"}]},{"type":"error","name":"VaultPaused","inputs":[]},{"type":"error","name":"ZeroAddress","inputs":[]},{"type":"error","name":"ZeroAmount","inputs":[]},{"type":"error","name":"ZeroWeight","inputs":[{"name":"asset","type":"address","internalType":"address"}]}],"bytecode":{"object":"0x60a060405230608052348015610013575f80fd5b5061001c610021565b6100d3565b7ff0c57e16840df040f15088dc2f81fe391c3923bec73e23a9662efc9c229c6a00805468010000000000000000900460ff16156100715760405163f92ee8a960e01b815260040160405180910390fd5b80546001600160401b03908116146100d05780546001600160401b0319166001600160401b0390811782556040519081527fc7f505b2f371ae2175ee4913f4499e1f2633a7b5936321eed1cdaeb6115181d29060200160405180910390a15b50565b608051617f8b6100f95f395f81816145410152818161456a015261478c0152617f8b5ff3fe6080604052600436106103e6575f3560e01c806399a2af7511610203578063bc7c290211610122578063e2a02536116100b7578063ed59631511610087578063f0f151321161006d578063f0f1513214610d16578063f68f0c6914610d35578063f91d65af14610d61575f80fd5b8063ed59631514610cd8578063efdcd97414610cf7575f80fd5b8063e2a0253614610c3e578063e63ab1e914610c5d578063ebaa654514610c90578063ec87621c14610ca5575f80fd5b8063c879c6d8116100f2578063c879c6d814610bc2578063d547741f14610be1578063de4bc64014610c00578063e0cda5da14610c1f575f80fd5b8063bc7c290214610b3a578063bdb912f314610b59578063c0bd6f9e14610b84578063c1a7b2af14610ba3575f80fd5b8063aba1f54111610198578063ae574a9011610168578063ae574a9014610abd578063b3f0067414610adb578063b4bd6f4614610b07578063bb85d15b14610b26575f80fd5b8063aba1f541146109ff578063abab398a14610a1e578063ad1567c714610a3d578063ad3cb1cc14610a68575f80fd5b8063a3bc2385116101d3578063a3bc238514610961578063a622ee7c14610980578063a71f6f5f146109c1578063ab6636ec146109e0575f80fd5b806399a2af75146109055780639ee61d561461091a578063a083bd3c1461092f578063a217fddf1461094e575f80fd5b80633f4ba83a1161030957806355c7aaff1161029e5780636fe7f9831161026e5780638456cb59116102545780638456cb591461085657806391d148541461086a57806393df0018146108da575f80fd5b80636fe7f9831461081e5780637b34b5d81461083d575f80fd5b806355c7aaff1461078957806359659e901461079e5780635c975abb146107c95780635f0ccdc2146107ff575f80fd5b80634f1ef286116102d95780634f1ef28614610724578063503b9e591461073757806352d1902d14610756578063530e784f1461076a575f80fd5b80633f4ba83a1461069c5780634af471be146106b05780634c179042146106cf5780634c97f766146106ee575f80fd5b80632630c12f1161037f5780632f2ff15d1161034f5780632f2ff15d14610613578063328ebaf71461063257806336568abe1461065157806336b2c4b214610670575f80fd5b80632630c12f1461057857806326c01303146105aa5780632cfb0e10146105c95780632efbab2c146105f4575f80fd5b80631e17e57c116103ba5780631e17e57c1461047d5780631e704c63146104ab57806322acb867146104fc578063248a9ca31461051d575f80fd5b8062271801146103ea57806301ffc9a71461040b5780630aa4f4cd1461043f5780631459457a1461045e575b5f80fd5b3480156103f5575f80fd5b506104096104043660046155e8565b610d80565b005b348015610416575f80fd5b5061042a610425366004615618565b610e72565b60405190151581526020015b60405180910390f35b34801561044a575f80fd5b50610409610459366004615657565b610f0a565b348015610469575f80fd5b5061040961047836600461567f565b610f78565b348015610488575f80fd5b5061042a6104973660046156e0565b60056020525f908152604090205460ff1681565b3480156104b6575f80fd5b506002546104d79073ffffffffffffffffffffffffffffffffffffffff1681565b60405173ffffffffffffffffffffffffffffffffffffffff9091168152602001610436565b348015610507575f80fd5b5061051061122c565b60405161043691906156f9565b348015610528575f80fd5b5061056a61053736600461573b565b5f9081527f02dd7bc7dec4dceedda775e58dd541e08a116c6c53815c0bd028192f7b626800602052604090206001015490565b604051908152602001610436565b348015610583575f80fd5b506040546104d79062010000900473ffffffffffffffffffffffffffffffffffffffff1681565b3480156105b5575f80fd5b5061056a6105c4366004615752565b61123e565b3480156105d4575f80fd5b5061056a6105e33660046156e0565b603c6020525f908152604090205481565b3480156105ff575f80fd5b5061040961060e3660046156e0565b611582565b34801561061e575f80fd5b5061040961062d36600461578c565b611640565b34801561063d575f80fd5b5061056a61064c3660046157c3565b611689565b34801561065c575f80fd5b5061040961066b36600461578c565b6119dd565b34801561067b575f80fd5b506039546104d79073ffffffffffffffffffffffffffffffffffffffff1681565b3480156106a7575f80fd5b50610409611a3b565b3480156106bb575f80fd5b506104096106ca3660046156e0565b611a6e565b3480156106da575f80fd5b506104096106e93660046156e0565b611b1f565b3480156106f9575f80fd5b5061056a61070836600461580f565b600660209081525f928352604080842090915290825290205481565b6104096107323660046158b3565b611b80565b348015610742575f80fd5b5061040961075136600461573b565b611b9f565b348015610761575f80fd5b5061056a611c1e565b348015610775575f80fd5b506104096107843660046156e0565b611c4c565b348015610794575f80fd5b5061056a60465481565b3480156107a9575f80fd5b505f546104d79073ffffffffffffffffffffffffffffffffffffffff1681565b3480156107d4575f80fd5b507fcd5ed15c6e187e77e9aee88184c21f4f2182ab5827cb3b7e07fbedcd63f033005460ff1661042a565b34801561080a575f80fd5b50610409610819366004615976565b611d12565b348015610829575f80fd5b50610409610838366004615976565b611d7f565b348015610848575f80fd5b5060405461042a9060ff1681565b348015610861575f80fd5b50610409611e05565b348015610875575f80fd5b5061042a61088436600461578c565b5f9182527f02dd7bc7dec4dceedda775e58dd541e08a116c6c53815c0bd028192f7b6268006020908152604080842073ffffffffffffffffffffffffffffffffffffffff93909316845291905290205460ff1690565b3480156108e5575f80fd5b5061056a6108f43660046156e0565b60456020525f908152604090205481565b348015610910575f80fd5b5061056a60445481565b348015610925575f80fd5b5061056a603a5481565b34801561093a575f80fd5b506104d761094936600461573b565b611e36565b348015610959575f80fd5b5061056a5f81565b34801561096c575f80fd5b5061040961097b366004615657565b611e6b565b34801561098b575f80fd5b506104d761099a3660046156e0565b60046020525f908152604090205473ffffffffffffffffffffffffffffffffffffffff1681565b3480156109cc575f80fd5b506104096109db36600461573b565b611eda565b3480156109eb575f80fd5b506104096109fa36600461573b565b611fcb565b348015610a0a575f80fd5b50610409610a1936600461573b565b61205b565b348015610a29575f80fd5b50610409610a38366004615657565b6120d3565b348015610a48575f80fd5b5061056a610a573660046156e0565b603b6020525f908152604090205481565b348015610a73575f80fd5b50610ab06040518060400160405280600581526020017f352e302e3000000000000000000000000000000000000000000000000000000081525081565b6040516104369190615991565b348015610ac8575f80fd5b5060405461042a90610100900460ff1681565b348015610ae6575f80fd5b506001546104d79073ffffffffffffffffffffffffffffffffffffffff1681565b348015610b12575f80fd5b506104d7610b213660046156e0565b6121d5565b348015610b31575f80fd5b5060035461056a565b348015610b45575f80fd5b5061042a610b543660046156e0565b612312565b348015610b64575f80fd5b5061056a610b733660046156e0565b60436020525f908152604090205481565b348015610b8f575f80fd5b50610409610b9e3660046156e0565b6124f4565b348015610bae575f80fd5b50610409610bbd3660046159e4565b612599565b348015610bcd575f80fd5b5061056a610bdc36600461580f565b61264d565b348015610bec575f80fd5b50610409610bfb36600461578c565b612661565b348015610c0b575f80fd5b5061042a610c1a366004615976565b6126a4565b348015610c2a575f80fd5b50610409610c39366004615657565b6127ec565b348015610c49575f80fd5b50610409610c58366004615657565b612bab565b348015610c68575f80fd5b5061056a7f65d7a28e3265b37a6474929f336521b332c1681b933f6cb9f3376673440d862a81565b348015610c9b575f80fd5b5061056a60415481565b348015610cb0575f80fd5b5061056a7f241ecf16d79d0f8dbfb92cbc07fe17840425976cf0667f022fe9877caa831b0881565b348015610ce3575f80fd5b50610510610cf23660046157c3565b612c31565b348015610d02575f80fd5b50610409610d113660046156e0565b612f41565b348015610d21575f80fd5b50610409610d303660046156e0565b612ffc565b348015610d40575f80fd5b506042546104d79073ffffffffffffffffffffffffffffffffffffffff1681565b348015610d6c575f80fd5b50610409610d7b366004615657565b6130b7565b610da97f241ecf16d79d0f8dbfb92cbc07fe17840425976cf0667f022fe9877caa831b086131ad565b610db2836131ba565b66470de4df820000821180610dcd575066470de4df82000081115b15610dfb57610dfb7fc64200e90000000000000000000000000000000000000000000000000000000061320f565b73ffffffffffffffffffffffffffffffffffffffff83165f818152603d60209081526040808320869055603e8252918290208490558151928352820184905281018290527fb360fe75f417722278b8ed353f0abcd3c5a6776faaa82a07b12047fa2ef3926e906060015b60405180910390a1505050565b5f7fffffffff0000000000000000000000000000000000000000000000000000000082167f7965db0b000000000000000000000000000000000000000000000000000000001480610f0457507f01ffc9a7000000000000000000000000000000000000000000000000000000007fffffffff000000000000000000000000000000000000000000000000000000008316145b92915050565b610f135f6131ad565b73ffffffffffffffffffffffffffffffffffffffff82165f81815260456020908152604091829020849055815192835282018390527f4ace5cf0f475b119f5f67f29290bd198e42143b7934b17986fc5c06d00beae7a91015b60405180910390a15050565b5f610f81613217565b805490915060ff68010000000000000000820416159067ffffffffffffffff165f81158015610fad5750825b90505f8267ffffffffffffffff166001148015610fc95750303b155b905081158015610fd7575080155b1561100e576040517ff92ee8a900000000000000000000000000000000000000000000000000000000815260040160405180910390fd5b84547fffffffffffffffffffffffffffffffffffffffffffffffff0000000000000000166001178555831561106f5784547fffffffffffffffffffffffffffffffffffffffffffffff00ffffffffffffffff16680100000000000000001785555b61107a8a898961323f565b73ffffffffffffffffffffffffffffffffffffffff89166110be576110be7fd92e233d0000000000000000000000000000000000000000000000000000000061320f565b73ffffffffffffffffffffffffffffffffffffffff8616611102576111027fd92e233d0000000000000000000000000000000000000000000000000000000061320f565b6039805473ffffffffffffffffffffffffffffffffffffffff808c167fffffffffffffffffffffffff000000000000000000000000000000000000000090921691909117909155670de0b6b3a7640000603a819055600a6041556046819055604080546044929092557fffffffffffffffffffffffffffffffffffffffffffffffffffffffffffff00ff9289166201000002929092167fffffffffffffffffffff000000000000000000000000000000000000000000ff90911617905583156112205784547fffffffffffffffffffffffffffffffffffffffffffffff00ffffffffffffffff168555604051600181527fc7f505b2f371ae2175ee4913f4499e1f2633a7b5936321eed1cdaeb6115181d29060200160405180910390a15b50505050505050505050565b60606112395f60016132b4565b905090565b5f611247613511565b611250846131ba565b611259836131ba565b6112628361356d565b604054610100900460ff1661129a5761129a7f070913310000000000000000000000000000000000000000000000000000000061320f565b73ffffffffffffffffffffffffffffffffffffffff84165f9081526005602052604090205460ff166112ef576112ef7f867344a80000000000000000000000000000000000000000000000000000000061320f565b60425473ffffffffffffffffffffffffffffffffffffffff9081169085160361133b5761133b7f0dc86ad30000000000000000000000000000000000000000000000000000000061320f565b5f61134684846135c4565b90505f611352866136ab565b90505f61135e866136ab565b73ffffffffffffffffffffffffffffffffffffffff88165f908152603f6020526040902054909150670de0b6b3a76400009061139a9082615a46565b836113a58487615a59565b6113af9190615a70565b6113b99190615a59565b6113c39190615a70565b93505f6113cf88613757565b90508085111561145d5773ffffffffffffffffffffffffffffffffffffffff88165f908152603f602052604081205461141090670de0b6b3a7640000615a46565b8361141b8685615a59565b6114259190615a70565b61143790670de0b6b3a7640000615a59565b6114419190615a70565b9050611457886114518388615aa8565b3361380d565b50819550505b611466876138bf565b611493576114937f2595dbe70000000000000000000000000000000000000000000000000000000061320f565b61149d5f8961398c565b6114ca576114ca7f6dabf61e0000000000000000000000000000000000000000000000000000000061320f565b6114d588863361380d565b9450845f03611507576115077f1f2a20050000000000000000000000000000000000000000000000000000000061320f565b61151088613a90565b61151987613a90565b6040805173ffffffffffffffffffffffffffffffffffffffff808b168252891660208201529081018790523360608201527fbf8c93ffab42c7a8745e30d00eef080c6704962d26f0b42a0e9d9589b7417af19060800160405180910390a1505050509392505050565b6115ab7f241ecf16d79d0f8dbfb92cbc07fe17840425976cf0667f022fe9877caa831b086131ad565b6115b4816131ba565b73ffffffffffffffffffffffffffffffffffffffff8082165f9081526004602081905260408083205481517f3f4ba83a0000000000000000000000000000000000000000000000000000000081529151941693633f4ba83a9382840193909282900301818387803b158015611627575f80fd5b505af1158015611639573d5f803e3d5ffd5b5050505050565b5f8281527f02dd7bc7dec4dceedda775e58dd541e08a116c6c53815c0bd028192f7b6268006020526040902060010154611679816131ad565b6116838383613e05565b50505050565b5f611692613511565b61169b856131ba565b5f6116a660016126a4565b9050821515811515146116dc576116dc7f6ce14a8b0000000000000000000000000000000000000000000000000000000061320f565b8061176c576116ea8661356d565b6116f386612312565b611721576117217f2201a6c30000000000000000000000000000000000000000000000000000000087613f23565b61172d8686865f613f2f565b915061173a60018761398c565b611767576117677f6dabf61e0000000000000000000000000000000000000000000000000000000061320f565b6119d4565b5f6117785f60016132b4565b90505f81611785896140a0565b8151811061179557611795615abb565b60200260200101519050805f036117d0576117d07f168cecf70000000000000000000000000000000000000000000000000000000089613f23565b5f8873ffffffffffffffffffffffffffffffffffffffff1663313ce5676040518163ffffffff1660e01b8152600401602060405180830381865afa15801561181a573d5f803e3d5ffd5b505050506040513d601f19601f8201168201806040525081019061183e9190615ae8565b90505f61184d89836012614111565b90508261186282670de0b6b3a7640000615a59565b61186c9190615a70565b90505f5b6003548110156119ce57670de0b6b3a764000085828151811061189557611895615abb565b6020026020010151836118a89190615a59565b6118b29190615a70565b995060045f600383815481106118ca576118ca615abb565b5f9182526020808320919091015473ffffffffffffffffffffffffffffffffffffffff908116845290830193909352604091820190205490517f07a2d13a000000000000000000000000000000000000000000000000000000008152600481018d90529116906307a2d13a90602401602060405180830381865afa158015611954573d5f803e3d5ffd5b505050506040513d601f19601f820116820180604052508101906119789190615b08565b99506119ba6003828154811061199057611990615abb565b5f9182526020909120015473ffffffffffffffffffffffffffffffffffffffff168b8b6001613f2f565b6119c49088615a46565b9650600101611870565b50505050505b50949350505050565b73ffffffffffffffffffffffffffffffffffffffff81163314611a2c576040517f6697b23200000000000000000000000000000000000000000000000000000000815260040160405180910390fd5b611a368282614179565b505050565b611a647f241ecf16d79d0f8dbfb92cbc07fe17840425976cf0667f022fe9877caa831b086131ad565b611a6c614255565b565b611a977f241ecf16d79d0f8dbfb92cbc07fe17840425976cf0667f022fe9877caa831b086131ad565b611aa0816131ba565b6042805473ffffffffffffffffffffffffffffffffffffffff8381167fffffffffffffffffffffffff000000000000000000000000000000000000000083168117909355604080519190921680825260208201939093527f2815e73179b9e71c24920f952681b17cd56ed8c3970196d013d9fb781fd0ff669101610f6c565b5f611b2960035490565b90505f5b81811015611a36575f60038281548110611b4957611b49615abb565b5f9182526020909120015473ffffffffffffffffffffffffffffffffffffffff169050611b7681856142ec565b5050600101611b2d565b611b88614529565b611b918261462d565b611b9b8282614636565b5050565b611ba85f6131ad565b670de0b6b3a7640000811115611be257611be27fada46d160000000000000000000000000000000000000000000000000000000082613f23565b603a8190556040518181527fcc74da27ce2b4310d9585b17dba33f9102c597a23fcc53e11f22587eb44054ab906020015b60405180910390a150565b5f611c27614774565b507f360894a13ba1a3210667c828492db98dca3e2076cc3735a920a3ca505d382bbc90565b611c555f6131ad565b73ffffffffffffffffffffffffffffffffffffffff8116611c9957611c997fd92e233d0000000000000000000000000000000000000000000000000000000061320f565b604080547fffffffffffffffffffff0000000000000000000000000000000000000000ffff166201000073ffffffffffffffffffffffffffffffffffffffff841690810291909117825590519081527f6536690106168bdf4ba72c128a053d817999b1db90cae23f139b293bf862cb7590602001611c13565b611d1b5f6131ad565b60408054821515610100027fffffffffffffffffffffffffffffffffffffffffffffffffffffffffffff00ff909116178155517fc8332d2a93ce8abef42d90f9a25582b80404fddf4ead3d8252bc63606fc33c6b90611c1390831515815260200190565b611da87f241ecf16d79d0f8dbfb92cbc07fe17840425976cf0667f022fe9877caa831b086131ad565b604080547fffffffffffffffffffffffffffffffffffffffffffffffffffffffffffffff0016821515908117825590519081527f6878ba22919d474f18a1cf56ab9f49ca783696ab22be08ae3b69494c432ec2cc90602001611c13565b611e2e7f65d7a28e3265b37a6474929f336521b332c1681b933f6cb9f3376673440d862a6131ad565b611a6c6147e3565b60038181548110611e45575f80fd5b5f9182526020909120015473ffffffffffffffffffffffffffffffffffffffff16905081565b611e745f6131ad565b611e7d826131ba565b73ffffffffffffffffffffffffffffffffffffffff82165f818152603f6020908152604091829020849055815192835282018390527fd4c474e9a2bd23d03ea76706eac0368ed31c4fc6c606a2b300c3a031be9ca7969101610f6c565b611f037f241ecf16d79d0f8dbfb92cbc07fe17840425976cf0667f022fe9877caa831b086131ad565b5f611f0f60015f6132b4565b90505f805b600354811015611f645781838281518110611f3157611f31615abb565b60200260200101511115611f5c57828181518110611f5157611f51615abb565b602002602001015191505b600101611f14565b5080831015611f9657611f967f5419864a0000000000000000000000000000000000000000000000000000000061320f565b60448390556040518381527fc11aa203f3c2e8b31d562bf3a9147fd82d486434a853f17239394afb0bd6bea390602001610e65565b611ff47f241ecf16d79d0f8dbfb92cbc07fe17840425976cf0667f022fe9877caa831b086131ad565b6078811115612026576120267fc64200e90000000000000000000000000000000000000000000000000000000061320f565b60418190556040518181527f8709833a517536698a10ba6401c14e6097aec681a3c756b82ee835e91f16bd1390602001611c13565b6120645f6131ad565b670de0b6b3a764000081101561209e5761209e7fc64200e90000000000000000000000000000000000000000000000000000000082613f23565b60468190556040518181527f8059a180b8ab782dfd848148b9824ec038f2b14545fa4f7d345afb4366b15bd790602001611c13565b6120fc7f241ecf16d79d0f8dbfb92cbc07fe17840425976cf0667f022fe9877caa831b086131ad565b670de0b6b3a7640000811115612136576121367fada46d160000000000000000000000000000000000000000000000000000000082613f23565b670d99a8cec7e20000811015612170576121707f71fba9d00000000000000000000000000000000000000000000000000000000082613f23565b73ffffffffffffffffffffffffffffffffffffffff82165f818152603c602052604090819020839055517f9ca91ac1ea5ea1d9cbec9ef13e20f58608deb72b1ec4c959e9deef3b844ef113906121c99084815260200190565b60405180910390a25050565b5f6121df60035490565b5f0361222657604280547fffffffffffffffffffffffff00000000000000000000000000000000000000001673ffffffffffffffffffffffffffffffffffffffff84161790555b61222f8261485c565b73ffffffffffffffffffffffffffffffffffffffff83165f908152604360209081526040808320670de0b6b3a76400009055603b8252808320670ddeeff45500c00090819055603c835281842055603d825280832066470de4df82000090819055603e9092529091205590506122a482612312565b6122d2576122d27f2201a6c30000000000000000000000000000000000000000000000000000000083613f23565b73ffffffffffffffffffffffffffffffffffffffff9091165f908152603d6020908152604080832066071afd498d000090819055603e9092529091205590565b6040805490517fb5641f3a00000000000000000000000000000000000000000000000000000000815273ffffffffffffffffffffffffffffffffffffffff83811660048301525f92620100009004169063b5641f3a90602401602060405180830381865afa158015612386573d5f803e3d5ffd5b505050506040513d601f19601f820116820180604052508101906123aa9190615b1f565b6123b557505f919050565b6040805490517ff989568d00000000000000000000000000000000000000000000000000000000815273ffffffffffffffffffffffffffffffffffffffff84811660048301525f92620100009004169063f989568d906024016040805180830381865afa158015612428573d5f803e3d5ffd5b505050506040513d601f19601f8201168201806040525081019061244c9190615b3a565b90506041544261245c9190615aa8565b8160200151101561246f57505f92915050565b805173ffffffffffffffffffffffffffffffffffffffff84165f908152603d60205260409020546124a890670de0b6b3a7640000615aa8565b111580156124ed575073ffffffffffffffffffffffffffffffffffffffff83165f908152603e60205260409020546124e890670de0b6b3a7640000615a46565b815111155b9392505050565b61251d7f65d7a28e3265b37a6474929f336521b332c1681b933f6cb9f3376673440d862a6131ad565b612526816131ba565b73ffffffffffffffffffffffffffffffffffffffff8082165f9081526004602081905260408083205481517f8456cb590000000000000000000000000000000000000000000000000000000081529151941693638456cb599382840193909282900301818387803b158015611627575f80fd5b6125c27f241ecf16d79d0f8dbfb92cbc07fe17840425976cf0667f022fe9877caa831b086131ad565b6125cb826131ba565b73ffffffffffffffffffffffffffffffffffffffff82165f8181526005602090815260409182902080547fffffffffffffffffffffffffffffffffffffffffffffffffffffffffffffff001685151590811790915591519182527fd2f5128538548a810c4735697cdd8ea509b0d233102362e242063283126400b891016121c9565b5f612657836131ba565b6124ed83836142ec565b5f8281527f02dd7bc7dec4dceedda775e58dd541e08a116c6c53815c0bd028192f7b626800602052604090206001015461269a816131ad565b6116838383614179565b6040545f9060ff16156126b957506001919050565b5f5b6003548110156127d8575f612702600383815481106126dc576126dc615abb565b5f9182526020909120015473ffffffffffffffffffffffffffffffffffffffff16612312565b905083156127715780801561275e575060055f6003848154811061272857612728615abb565b5f91825260208083209091015473ffffffffffffffffffffffffffffffffffffffff16835282019290925260400190205460ff16155b1561276c57505f9392505050565b6127ce565b806127ce575f806127b46003858154811061278e5761278e615abb565b5f9182526020909120015473ffffffffffffffffffffffffffffffffffffffff16613757565b119050806127c35750506127d0565b506001949350505050565b505b6001016126bb565b50816127e4575f610f04565b600192915050565b6127f4613511565b6127fd826131ba565b6128068261356d565b73ffffffffffffffffffffffffffffffffffffffff8281165f9081526045602090815260408083205460048084528285205460079094528285205492517f07a2d13a000000000000000000000000000000000000000000000000000000008152908101929092529391909116906307a2d13a90602401602060405180830381865afa158015612897573d5f803e3d5ffd5b505050506040513d601f19601f820116820180604052508101906128bb9190615b08565b73ffffffffffffffffffffffffffffffffffffffff8086165f9081526004602081815260408084205481517f01e1d11400000000000000000000000000000000000000000000000000000000815291519697509395879594909416936301e1d1149382810193928290030181865afa158015612939573d5f803e3d5ffd5b505050506040513d601f19601f8201168201806040525081019061295d9190615b08565b6129679190615aa8565b905082811061299a5761299a7f10e4809e0000000000000000000000000000000000000000000000000000000086613f23565b6129a385612312565b6129d1576129d17f2201a6c30000000000000000000000000000000000000000000000000000000086613f23565b826129dc8583615a46565b11156129ef576129ec8184615aa8565b93505b73ffffffffffffffffffffffffffffffffffffffff8086165f9081526004602081905260408083205490517fc6e6f5920000000000000000000000000000000000000000000000000000000081529293169163c6e6f59291612a579189910190815260200190565b602060405180830381865afa158015612a72573d5f803e3d5ffd5b505050506040513d601f19601f82011682018060405250810190612a969190615b08565b9050604654811015612acc57612acc7f2dd78c7e0000000000000000000000000000000000000000000000000000000086613f23565b612ad686866135c4565b50612ae0866138bf565b612b0d57612b0d7f2595dbe70000000000000000000000000000000000000000000000000000000061320f565b612b1860018761398c565b612b4557612b457f6dabf61e0000000000000000000000000000000000000000000000000000000061320f565b612b4e86613a90565b6040805173ffffffffffffffffffffffffffffffffffffffff8816815260208101879052338183015290517f1bb1edfe5e334d503d0dce0cd3185491ce674afad9ecfe52601c10c8c7c08d289181900360600190a1505050505050565b612bd47f241ecf16d79d0f8dbfb92cbc07fe17840425976cf0667f022fe9877caa831b086131ad565b73ffffffffffffffffffffffffffffffffffffffff82165f81815260436020908152604091829020849055815192835282018390527f2e04b29851c22c48f29b5bbcd5092f95d0907b7700d4aaa2341f95fc931e78709101610f6c565b6060612c3b613511565b612c44856131ba565b5f612c4e5f6126a4565b905082151581151514612c8457612c847f6ce14a8b0000000000000000000000000000000000000000000000000000000061320f565b80612e345760035467ffffffffffffffff811115612ca457612ca4615837565b604051908082528060200260200182016040528015612ccd578160200160208202803683370190505b5091505f612cda876140a0565b9050612ce7878787614a48565b838281518110612cf957612cf9615abb565b602090810291909101015260425473ffffffffffffffffffffffffffffffffffffffff90811690881603612df6575f5b600354811015612df4578773ffffffffffffffffffffffffffffffffffffffff1660038281548110612d5d57612d5d615abb565b5f9182526020909120015473ffffffffffffffffffffffffffffffffffffffff1614612dec57612dbf60038281548110612d9957612d99615abb565b5f9182526020909120015473ffffffffffffffffffffffffffffffffffffffff166138bf565b612dec57612dec7f2595dbe70000000000000000000000000000000000000000000000000000000061320f565b600101612d29565b505b612e005f8861398c565b612e2d57612e2d7f6dabf61e0000000000000000000000000000000000000000000000000000000061320f565b5050612f39565b5f612e405f60016132b4565b60035490915067ffffffffffffffff811115612e5e57612e5e615837565b604051908082528060200260200182016040528015612e87578160200160208202803683370190505b5092505f5b600354811015612f35575f670de0b6b3a7640000838381518110612eb257612eb2615abb565b602002602001015189612ec59190615a59565b612ecf9190615a70565b9050612f0f60038381548110612ee757612ee7615abb565b5f9182526020909120015473ffffffffffffffffffffffffffffffffffffffff168289614a48565b858381518110612f2157612f21615abb565b602090810291909101015250600101612e8c565b5050505b949350505050565b612f4a5f6131ad565b73ffffffffffffffffffffffffffffffffffffffff8116612f8e57612f8e7fd92e233d0000000000000000000000000000000000000000000000000000000061320f565b600180547fffffffffffffffffffffffff00000000000000000000000000000000000000001673ffffffffffffffffffffffffffffffffffffffff83169081179091556040517fbdf37c276f641820b141429d245add2552b4118c0866e5a78638e3de5ef18d9d905f90a250565b6130055f6131ad565b73ffffffffffffffffffffffffffffffffffffffff8116613049576130497fd92e233d0000000000000000000000000000000000000000000000000000000061320f565b600280547fffffffffffffffffffffffff00000000000000000000000000000000000000001673ffffffffffffffffffffffffffffffffffffffff83169081179091556040517fba4a603fbc52c5350922457bcd71f2287f1a67c8eabd5ec9a01f1dbd7ace4a7c905f90a250565b6130e07f241ecf16d79d0f8dbfb92cbc07fe17840425976cf0667f022fe9877caa831b086131ad565b670de0b6b3a764000081111561311a5761311a7fada46d160000000000000000000000000000000000000000000000000000000082613f23565b670d99a8cec7e20000811015613154576131547f71fba9d00000000000000000000000000000000000000000000000000000000082613f23565b73ffffffffffffffffffffffffffffffffffffffff82165f818152603b602052604090819020839055517f2efe6880df7ccb94a2aa093e54fd1f13f69ac2d50436d6a558a7c639697d1ea3906121c99084815260200190565b6131b78133614b72565b50565b73ffffffffffffffffffffffffffffffffffffffff8181165f90815260046020526040902054166131b7576131b77f1a2a9e870000000000000000000000000000000000000000000000000000000082613f23565b805f5260045ffd5b5f807ff0c57e16840df040f15088dc2f81fe391c3923bec73e23a9662efc9c229c6a00610f04565b613247614c18565b61324f614c56565b613257614c56565b61325f614c56565b61326a838383614c5e565b611a367f65d7a28e3265b37a6474929f336521b332c1681b933f6cb9f3376673440d862a7f241ecf16d79d0f8dbfb92cbc07fe17840425976cf0667f022fe9877caa831b08614eb2565b60035460609067ffffffffffffffff8111156132d2576132d2615837565b6040519080825280602002602001820160405280156132fb578160200160208202803683370190505b5090505f805b6003548110156134925784801561335e575060055f6003838154811061332957613329615abb565b5f91825260208083209091015473ffffffffffffffffffffffffffffffffffffffff16835282019290925260400190205460ff165b61348a5783801561342a575060045f6003838154811061338057613380615abb565b5f91825260208083209091015473ffffffffffffffffffffffffffffffffffffffff90811684528382019490945260409283019091205482517f5c975abb0000000000000000000000000000000000000000000000000000000081529251931692635c975abb9260048082019392918290030181865afa158015613406573d5f803e3d5ffd5b505050506040513d601f19601f8201168201806040525081019061342a9190615b1f565b61348a576134446003828154811061278e5761278e615abb565b83828151811061345657613456615abb565b60200260200101818152505082818151811061347457613474615abb565b6020026020010151826134879190615a46565b91505b600101613301565b50805f036134a05750610f04565b5f5b60035481101561350957818382815181106134bf576134bf615abb565b6020026020010151670de0b6b3a76400006134da9190615a59565b6134e49190615a70565b8382815181106134f6576134f6615abb565b60209081029190910101526001016134a2565b505092915050565b7fcd5ed15c6e187e77e9aee88184c21f4f2182ab5827cb3b7e07fbedcd63f033005460ff1615611a6c576040517fd93c066500000000000000000000000000000000000000000000000000000000815260040160405180910390fd5b73ffffffffffffffffffffffffffffffffffffffff81165f9081526005602052604090205460ff16156131b7576131b77f6ba2e4180000000000000000000000000000000000000000000000000000000082613f23565b5f6135d183333085614f53565b73ffffffffffffffffffffffffffffffffffffffff8084165f908152600460205260409020546136049185911684614fb5565b73ffffffffffffffffffffffffffffffffffffffff8381165f908152600460208190526040918290205491517f6e553f65000000000000000000000000000000000000000000000000000000008152908101859052306024820152911690636e553f65906044016020604051808303815f875af1158015613687573d5f803e3d5ffd5b505050506040513d601f19601f820116820180604052508101906124ed9190615b08565b6040805460415491517fc442b43900000000000000000000000000000000000000000000000000000000815273ffffffffffffffffffffffffffffffffffffffff848116600483015260248201939093525f928392620100009004169063c442b439906044016040805180830381865afa15801561372b573d5f803e3d5ffd5b505050506040513d601f19601f8201168201806040525081019061374f9190615b3a565b519392505050565b73ffffffffffffffffffffffffffffffffffffffff8181165f908152600760209081526040808320546004928390528184205491517f70a082310000000000000000000000000000000000000000000000000000000081523093810193909352929316906370a0823190602401602060405180830381865afa1580156137df573d5f803e3d5ffd5b505050506040513d601f19601f820116820180604052508101906138039190615b08565b610f049190615aa8565b73ffffffffffffffffffffffffffffffffffffffff8381165f9081526004602081905260408083205490517fba08765200000000000000000000000000000000000000000000000000000000815291820186905284841660248301523060448301529192919091169063ba087652906064016020604051808303815f875af115801561389b573d5f803e3d5ffd5b505050506040513d601f19601f82011682018060405250810190612f399190615b08565b6042545f9073ffffffffffffffffffffffffffffffffffffffff908116908316036138ec57506001919050565b5f6138f683613757565b6042549091505f9061391d9073ffffffffffffffffffffffffffffffffffffffff16613757565b9050805f0361393c578115613932575f612f39565b6001949350505050565b5f8161395084670de0b6b3a7640000615a59565b61395a9190615a70565b73ffffffffffffffffffffffffffffffffffffffff9095165f9081526043602052604090205490941115949350505050565b5f8061399960015f6132b4565b90505f5b6003548110156127c3578480156139fd57508373ffffffffffffffffffffffffffffffffffffffff16600382815481106139d9576139d9615abb565b5f9182526020909120015473ffffffffffffffffffffffffffffffffffffffff1614155b613a885784158015613a5757508373ffffffffffffffffffffffffffffffffffffffff1660038281548110613a3457613a34615abb565b5f9182526020909120015473ffffffffffffffffffffffffffffffffffffffff16145b613a8857604454828281518110613a7057613a70615abb565b60200260200101511115613a88575f92505050610f04565b60010161399d565b73ffffffffffffffffffffffffffffffffffffffff8082165f9081526004602081815260408084205481517f18160ddd000000000000000000000000000000000000000000000000000000008152915195169485936318160ddd9383820193909291908290030181865afa158015613b0a573d5f803e3d5ffd5b505050506040513d601f19601f82011682018060405250810190613b2e9190615b08565b6040517f70a0823100000000000000000000000000000000000000000000000000000000815273ffffffffffffffffffffffffffffffffffffffff84811660048301529192505f918516906370a0823190602401602060405180830381865afa158015613b9d573d5f803e3d5ffd5b505050506040513d601f19601f82011682018060405250810190613bc19190615b08565b6040517f07a2d13a00000000000000000000000000000000000000000000000000000000815260048101849052909150819073ffffffffffffffffffffffffffffffffffffffff8516906307a2d13a90602401602060405180830381865afa158015613c2f573d5f803e3d5ffd5b505050506040513d601f19601f82011682018060405250810190613c539190615b08565b1115613c8457613c847fb97fded1000000000000000000000000000000000000000000000000000000008284615008565b6040517f70a082310000000000000000000000000000000000000000000000000000000081523060048201525f9073ffffffffffffffffffffffffffffffffffffffff8516906370a0823190602401602060405180830381865afa158015613cee573d5f803e3d5ffd5b505050506040513d601f19601f82011682018060405250810190613d129190615b08565b73ffffffffffffffffffffffffffffffffffffffff86165f90815260076020526040902054909150811015611639576040517f07a2d13a000000000000000000000000000000000000000000000000000000008152600481018290525f9073ffffffffffffffffffffffffffffffffffffffff8616906307a2d13a90602401602060405180830381865afa158015613dac573d5f803e3d5ffd5b505050506040513d601f19601f82011682018060405250810190613dd09190615b08565b9050613dfd7fb97fded1000000000000000000000000000000000000000000000000000000008284615008565b505050505050565b5f8281527f02dd7bc7dec4dceedda775e58dd541e08a116c6c53815c0bd028192f7b6268006020818152604080842073ffffffffffffffffffffffffffffffffffffffff8616855290915282205460ff16613f1a575f8481526020828152604080832073ffffffffffffffffffffffffffffffffffffffff87168452909152902080547fffffffffffffffffffffffffffffffffffffffffffffffffffffffffffffff00166001179055613eb63390565b73ffffffffffffffffffffffffffffffffffffffff168373ffffffffffffffffffffffffffffffffffffffff16857f2f8788117e7eff1d82e926ec794901d17c78024a50270940304540a733656f0d60405160405180910390a46001915050610f04565b5f915050610f04565b815f528060045260245ffd5b5f835f03613f3e57505f612f39565b5f613f4986866135c4565b90505f805f613f588985615018565b925092509250613f698982846150a5565b85158015613f7d5750613f7b896138bf565b155b15613fab57613fab7f2595dbe70000000000000000000000000000000000000000000000000000000061320f565b6039546040517f40c10f1900000000000000000000000000000000000000000000000000000000815273ffffffffffffffffffffffffffffffffffffffff898116600483015260248201869052909116906340c10f19906044015f604051808303815f87803b15801561401c575f80fd5b505af115801561402e573d5f803e3d5ffd5b5050505061403b89613a90565b604080518981526020810185905273ffffffffffffffffffffffffffffffffffffffff808c1692908a169133917f5bf1ae7c4c81d8f51bd6f74471f2622d4952dfeca98ba4f9f0da428b2f84edf5910160405180910390a45090979650505050505050565b5f805b60035481101561410b578273ffffffffffffffffffffffffffffffffffffffff16600382815481106140d7576140d7615abb565b5f9182526020909120015473ffffffffffffffffffffffffffffffffffffffff16036141035792915050565b6001016140a3565b50919050565b5f8160ff168360ff16036141265750826124ed565b8160ff168360ff16111561415a5761413e8284615b89565b61414990600a615cc3565b6141539085615a70565b90506124ed565b6141648383615b89565b61416f90600a615cc3565b6141539085615a59565b5f8281527f02dd7bc7dec4dceedda775e58dd541e08a116c6c53815c0bd028192f7b6268006020818152604080842073ffffffffffffffffffffffffffffffffffffffff8616855290915282205460ff1615613f1a575f8481526020828152604080832073ffffffffffffffffffffffffffffffffffffffff8716808552925280832080547fffffffffffffffffffffffffffffffffffffffffffffffffffffffffffffff0016905551339287917ff6391f5c32d9c69d2a47ea670b442974b53935d1edc7fd64eb21e047a839171b9190a46001915050610f04565b61425d615162565b7fcd5ed15c6e187e77e9aee88184c21f4f2182ab5827cb3b7e07fbedcd63f0330080547fffffffffffffffffffffffffffffffffffffffffffffffffffffffffffffff001681557f5db9ee0a495bf2e6ff9c91a7834c1ba4fdd244a5e8aa4e537bd38aeae4b073aa335b60405173ffffffffffffffffffffffffffffffffffffffff9091168152602001611c13565b73ffffffffffffffffffffffffffffffffffffffff8181165f90815260066020908152604080832086851684528252808320546004928390528184205491517f07a2d13a000000000000000000000000000000000000000000000000000000008152928301819052929316906307a2d13a90602401602060405180830381865afa15801561437c573d5f803e3d5ffd5b505050506040513d601f19601f820116820180604052508101906143a09190615b08565b5f036143af575f915050610f04565b73ffffffffffffffffffffffffffffffffffffffff8084165f90815260066020908152604080832093881683529281528282208290556007905290812080548392906143fc908490615aa8565b909155505073ffffffffffffffffffffffffffffffffffffffff8481165f908152600460208190526040918290205491517fba087652000000000000000000000000000000000000000000000000000000008152908101849052858316602482015230604482015291169063ba087652906064016020604051808303815f875af115801561448c573d5f803e3d5ffd5b505050506040513d601f19601f820116820180604052508101906144b09190615b08565b91508273ffffffffffffffffffffffffffffffffffffffff168473ffffffffffffffffffffffffffffffffffffffff167fd7df942c87bc524ccb17249639699aa79ede0bfadd2bea503ce279f993479150838560405161451a929190918252602082015260400190565b60405180910390a35092915050565b3073ffffffffffffffffffffffffffffffffffffffff7f00000000000000000000000000000000000000000000000000000000000000001614806145f657507f000000000000000000000000000000000000000000000000000000000000000073ffffffffffffffffffffffffffffffffffffffff166145dd7f360894a13ba1a3210667c828492db98dca3e2076cc3735a920a3ca505d382bbc5473ffffffffffffffffffffffffffffffffffffffff1690565b73ffffffffffffffffffffffffffffffffffffffff1614155b15611a6c576040517fe07c8dba00000000000000000000000000000000000000000000000000000000815260040160405180910390fd5b6131b75f6131ad565b8173ffffffffffffffffffffffffffffffffffffffff166352d1902d6040518163ffffffff1660e01b8152600401602060405180830381865afa9250505080156146bb575060408051601f3d9081017fffffffffffffffffffffffffffffffffffffffffffffffffffffffffffffffe01682019092526146b891810190615b08565b60015b61470e576040517f4c9c8ce300000000000000000000000000000000000000000000000000000000815273ffffffffffffffffffffffffffffffffffffffff831660048201526024015b60405180910390fd5b7f360894a13ba1a3210667c828492db98dca3e2076cc3735a920a3ca505d382bbc811461476a576040517faa1d49a400000000000000000000000000000000000000000000000000000000815260048101829052602401614705565b611a3683836151bd565b3073ffffffffffffffffffffffffffffffffffffffff7f00000000000000000000000000000000000000000000000000000000000000001614611a6c576040517fe07c8dba00000000000000000000000000000000000000000000000000000000815260040160405180910390fd5b6147eb613511565b7fcd5ed15c6e187e77e9aee88184c21f4f2182ab5827cb3b7e07fbedcd63f0330080547fffffffffffffffffffffffffffffffffffffffffffffffffffffffffffffff001660011781557f62e78cea01bee320cd4e420270b5ea74000d11b0c9f74754ebdbfc544b05a258336142c7565b5f614866816131ad565b73ffffffffffffffffffffffffffffffffffffffff8281165f9081526004602052604090205416156148bc576148bc7f38bfcc160000000000000000000000000000000000000000000000000000000083613f23565b60038054600181019091557fc2575a0e9e593c00f959f8c92f12db2869c3395a3b0502d05e2516446f71f85b0180547fffffffffffffffffffffffff00000000000000000000000000000000000000001673ffffffffffffffffffffffffffffffffffffffff8481169182179092555f908152602081208154909261494291168361521f565b6040517f485cc95500000000000000000000000000000000000000000000000000000000815273ffffffffffffffffffffffffffffffffffffffff86811660048301523060248301529192509082169063485cc955906044015f604051808303815f87803b1580156149b2575f80fd5b505af11580156149c4573d5f803e3d5ffd5b50505073ffffffffffffffffffffffffffffffffffffffff8086165f8181526004602052604080822080549487167fffffffffffffffffffffffff000000000000000000000000000000000000000090951685179055519193507f5d9c31ffa0fecffd7cf379989a3c7af252f0335e0d2a1320b55245912c781f5391a39392505050565b5f825f03614a5757505f6124ed565b5f805f614a64878761522b565b6039546040517f9dc29fac000000000000000000000000000000000000000000000000000000008152336004820152602481018b9052939650919450925073ffffffffffffffffffffffffffffffffffffffff1690639dc29fac906044015f604051808303815f87803b158015614ad9575f80fd5b505af1158015614aeb573d5f803e3d5ffd5b50505050614afa8782846150a5565b614b0587848761380d565b9350505050614b1384613a90565b604080518281526020810185905273ffffffffffffffffffffffffffffffffffffffff808716929085169133917f86a824fd3cfb472a44138f5f76db0a4642f87a88cee775c39d3f865f4c03bdaa910160405180910390a49392505050565b5f8281527f02dd7bc7dec4dceedda775e58dd541e08a116c6c53815c0bd028192f7b6268006020908152604080832073ffffffffffffffffffffffffffffffffffffffff8516845290915290205460ff16611b9b576040517fe2517d3f00000000000000000000000000000000000000000000000000000000815273ffffffffffffffffffffffffffffffffffffffff8216600482015260248101839052604401614705565b614c20615267565b611a6c576040517fd7e6bcf800000000000000000000000000000000000000000000000000000000815260040160405180910390fd5b611a6c614c18565b614c66614c18565b73ffffffffffffffffffffffffffffffffffffffff8316614caa57614caa7fd92e233d0000000000000000000000000000000000000000000000000000000061320f565b73ffffffffffffffffffffffffffffffffffffffff8216614cee57614cee7fd92e233d0000000000000000000000000000000000000000000000000000000061320f565b73ffffffffffffffffffffffffffffffffffffffff8116614d3257614d327fd92e233d0000000000000000000000000000000000000000000000000000000061320f565b82604051614d3f906155a6565b604051809103905ff080158015614d58573d5f803e3d5ffd5b50604051614d65906155b3565b73ffffffffffffffffffffffffffffffffffffffff928316815291166020820152604001604051809103905ff080158015614da2573d5f803e3d5ffd5b505f80547fffffffffffffffffffffffff00000000000000000000000000000000000000001673ffffffffffffffffffffffffffffffffffffffff92909216919091178155614df19084613e05565b506001805473ffffffffffffffffffffffffffffffffffffffff8084167fffffffffffffffffffffffff0000000000000000000000000000000000000000928316811790935560028054918616919092161790556040517fbdf37c276f641820b141429d245add2552b4118c0866e5a78638e3de5ef18d9d905f90a260405173ffffffffffffffffffffffffffffffffffffffff8316907fba4a603fbc52c5350922457bcd71f2287f1a67c8eabd5ec9a01f1dbd7ace4a7c905f90a2505050565b7f02dd7bc7dec4dceedda775e58dd541e08a116c6c53815c0bd028192f7b6268005f614f0b845f9081527f02dd7bc7dec4dceedda775e58dd541e08a116c6c53815c0bd028192f7b626800602052604090206001015490565b5f85815260208490526040808220600101869055519192508491839187917fbd79b86ffe0ab8e8776151514217cd7cacd52c909f66475c3af44e129f0b00ff9190a450505050565b60405181606052826040528360601b602c526f23b872dd000000000000000000000000600c5260205f6064601c5f895af18060015f511416614fa757803d873b151710614fa757637939f4245f526004601cfd5b505f60605260405250505050565b81601452806034526f095ea7b30000000000000000000000005f5260205f604460105f875af18060015f511416614ffe57803d853b151710614ffe57633e3f8f735f526004601cfd5b505f603452505050565b825f52816004528060245260445ffd5b73ffffffffffffffffffffffffffffffffffffffff82165f908152603b602052604081205481908190670de0b6b3a76400006150548287615a59565b61505e9190615a70565b93505f61506b8587615aa8565b9050670de0b6b3a7640000603a54826150849190615a59565b61508e9190615a70565b925061509a8382615aa8565b935050509250925092565b81156150d3576002546150d1908490849073ffffffffffffffffffffffffffffffffffffffff1661380d565b505b8015611a365760015473ffffffffffffffffffffffffffffffffffffffff9081165f9081526006602090815260408083209387168352929052908120805483929061511f908490615a46565b909155505073ffffffffffffffffffffffffffffffffffffffff83165f9081526007602052604081208054839290615158908490615a46565b9091555050505050565b7fcd5ed15c6e187e77e9aee88184c21f4f2182ab5827cb3b7e07fbedcd63f033005460ff16611a6c576040517f8dfc202b00000000000000000000000000000000000000000000000000000000815260040160405180910390fd5b6151c682615285565b60405173ffffffffffffffffffffffffffffffffffffffff8316907fbc7cd75a20ee27fd9adebab32041f755214dbc6bffa90cc0225b39da2e5c2d3b905f90a280511561521757611a368282615353565b611b9b6153d2565b5f6124ed5f848461540a565b73ffffffffffffffffffffffffffffffffffffffff82165f908152603c602052604081205481908190670de0b6b3a76400006150548287615a59565b5f615270613217565b5468010000000000000000900460ff16919050565b8073ffffffffffffffffffffffffffffffffffffffff163b5f036152ed576040517f4c9c8ce300000000000000000000000000000000000000000000000000000000815273ffffffffffffffffffffffffffffffffffffffff82166004820152602401614705565b7f360894a13ba1a3210667c828492db98dca3e2076cc3735a920a3ca505d382bbc80547fffffffffffffffffffffffff00000000000000000000000000000000000000001673ffffffffffffffffffffffffffffffffffffffff92909216919091179055565b60605f808473ffffffffffffffffffffffffffffffffffffffff168460405161537c9190615cd1565b5f60405180830381855af49150503d805f81146153b4576040519150601f19603f3d011682016040523d82523d5f602084013e6153b9565b606091505b50915091506153c98583836154d5565b95945050505050565b3415611a6c576040517fb398979f00000000000000000000000000000000000000000000000000000000815260040160405180910390fd5b604080517fb3582b35133d50545afa5036515af43d6000803e604d573d6000fd5b3d6000f36060527f1b60e01b36527fa3f0ad74e5423aebfd80d3ef4346578335a9a72aeaee59ff6c9091527660195155f3363d3d373d3d363d602036600436635c60da6020527c60523d8160223d3973000000000000000000000000000000000000000073ffffffffffffffffffffffffffffffffffffffff8416176009525f90826074600c87f59150816154c75763301164255f526004601cfd5b6040525f6060529392505050565b6060826154ea576154e582615564565b6124ed565b815115801561550e575073ffffffffffffffffffffffffffffffffffffffff84163b155b1561555d576040517f9996b31500000000000000000000000000000000000000000000000000000000815273ffffffffffffffffffffffffffffffffffffffff85166004820152602401614705565b50806124ed565b8051156155745780518082602001fd5b6040517fd6bda27500000000000000000000000000000000000000000000000000000000815260040160405180910390fd5b611f1b80615ce883390190565b61037c80617c0383390190565b803573ffffffffffffffffffffffffffffffffffffffff811681146155e3575f80fd5b919050565b5f805f606084860312156155fa575f80fd5b615603846155c0565b95602085013595506040909401359392505050565b5f60208284031215615628575f80fd5b81357fffffffff00000000000000000000000000000000000000000000000000000000811681146124ed575f80fd5b5f8060408385031215615668575f80fd5b615671836155c0565b946020939093013593505050565b5f805f805f60a08688031215615693575f80fd5b61569c866155c0565b94506156aa602087016155c0565b93506156b8604087016155c0565b92506156c6606087016155c0565b91506156d4608087016155c0565b90509295509295909350565b5f602082840312156156f0575f80fd5b6124ed826155c0565b602080825282518282018190525f918401906040840190835b81811015615730578351835260209384019390920191600101615712565b509095945050505050565b5f6020828403121561574b575f80fd5b5035919050565b5f805f60608486031215615764575f80fd5b61576d846155c0565b925061577b602085016155c0565b929592945050506040919091013590565b5f806040838503121561579d575f80fd5b823591506157ad602084016155c0565b90509250929050565b80151581146131b7575f80fd5b5f805f80608085870312156157d6575f80fd5b6157df856155c0565b9350602085013592506157f4604086016155c0565b91506060850135615804816157b6565b939692955090935050565b5f8060408385031215615820575f80fd5b615829836155c0565b91506157ad602084016155c0565b7f4e487b71000000000000000000000000000000000000000000000000000000005f52604160045260245ffd5b604051601f82017fffffffffffffffffffffffffffffffffffffffffffffffffffffffffffffffe016810167ffffffffffffffff811182821017156158ab576158ab615837565b604052919050565b5f80604083850312156158c4575f80fd5b6158cd836155c0565b9150602083013567ffffffffffffffff8111156158e8575f80fd5b8301601f810185136158f8575f80fd5b803567ffffffffffffffff81111561591257615912615837565b61594360207fffffffffffffffffffffffffffffffffffffffffffffffffffffffffffffffe0601f84011601615864565b818152866020838501011115615957575f80fd5b816020840160208301375f602083830101528093505050509250929050565b5f60208284031215615986575f80fd5b81356124ed816157b6565b602081525f82518060208401528060208501604085015e5f6040828501015260407fffffffffffffffffffffffffffffffffffffffffffffffffffffffffffffffe0601f83011684010191505092915050565b5f80604083850312156159f5575f80fd5b6159fe836155c0565b91506020830135615a0e816157b6565b809150509250929050565b7f4e487b71000000000000000000000000000000000000000000000000000000005f52601160045260245ffd5b80820180821115610f0457610f04615a19565b8082028115828204841417610f0457610f04615a19565b5f82615aa3577f4e487b71000000000000000000000000000000000000000000000000000000005f52601260045260245ffd5b500490565b81810381811115610f0457610f04615a19565b7f4e487b71000000000000000000000000000000000000000000000000000000005f52603260045260245ffd5b5f60208284031215615af8575f80fd5b815160ff811681146124ed575f80fd5b5f60208284031215615b18575f80fd5b5051919050565b5f60208284031215615b2f575f80fd5b81516124ed816157b6565b5f6040828403128015615b4b575f80fd5b506040805190810167ffffffffffffffff81118282101715615b6f57615b6f615837565b604052825181526020928301519281019290925250919050565b60ff8281168282160390811115610f0457610f04615a19565b6001815b6001841115615bdd57808504811115615bc157615bc1615a19565b6001841615615bcf57908102905b60019390931c928002615ba6565b935093915050565b5f82615bf357506001610f04565b81615bff57505f610f04565b8160018114615c155760028114615c1f57615c3b565b6001915050610f04565b60ff841115615c3057615c30615a19565b50506001821b610f04565b5060208310610133831016604e8410600b8410161715615c5e575081810a610f04565b615c897fffffffffffffffffffffffffffffffffffffffffffffffffffffffffffffffff8484615ba2565b807fffffffffffffffffffffffffffffffffffffffffffffffffffffffffffffffff04821115615cbb57615cbb615a19565b029392505050565b5f6124ed60ff841683615be5565b5f82518060208501845e5f92019182525091905056fe6080604052348015600e575f80fd5b5060156019565b60c9565b7ff0c57e16840df040f15088dc2f81fe391c3923bec73e23a9662efc9c229c6a00805468010000000000000000900460ff161560685760405163f92ee8a960e01b815260040160405180910390fd5b80546001600160401b039081161460c65780546001600160401b0319166001600160401b0390811782556040519081527fc7f505b2f371ae2175ee4913f4499e1f2633a7b5936321eed1cdaeb6115181d29060200160405180910390a15b50565b611e45806100d65f395ff3fe608060405234801561000f575f80fd5b5060043610610201575f3560e01c806370a0823111610123578063ba087652116100b8578063ce96cb7711610088578063d905777e1161006e578063d905777e146104a8578063dd62ed3e146104bb578063ef8b30f7146104e3575f80fd5b8063ce96cb7714610482578063d505accf14610495575f80fd5b8063ba0876521461043c578063c45a01551461044f578063c63d75b614610300578063c6e6f5921461046f575f80fd5b806395d89b41116100f357806395d89b41146103fb578063a9059cbb14610403578063b3d7f6b914610416578063b460af9414610429575f80fd5b806370a08231146103965780637ecebe00146103bb5780638456cb59146103e057806394bf804d146103e8575f80fd5b80633644e51511610199578063485cc95511610169578063485cc955146103335780634cdad506146103465780635c975abb146103595780636e553f6514610383575f80fd5b80633644e515146102b057806338d52e0f146102b85780633f4ba83a146102f6578063402d267d14610300575f80fd5b80630a28a477116101d45780630a28a4771461026b57806318160ddd1461027e57806323b872dd1461028e578063313ce567146102a1575f80fd5b806301e1d1141461020557806306fdde031461022057806307a2d13a14610235578063095ea7b314610248575b5f80fd5b61020d6104f6565b6040519081526020015b60405180910390f35b610228610515565b6040516102179190611762565b61020d6102433660046117b5565b6105a5565b61025b6102563660046117f4565b6105b5565b6040519015158152602001610217565b61020d6102793660046117b5565b610604565b6805345cdf77eb68f44c5461020d565b61025b61029c36600461181c565b610649565b60405160128152602001610217565b61020d610701565b5f5473ffffffffffffffffffffffffffffffffffffffff165b60405173ffffffffffffffffffffffffffffffffffffffff9091168152602001610217565b6102fe61077d565b005b61020d61030e366004611856565b507fffffffffffffffffffffffffffffffffffffffffffffffffffffffffffffffff90565b6102fe61034136600461186f565b61078f565b61020d6103543660046117b5565b610902565b7fcd5ed15c6e187e77e9aee88184c21f4f2182ab5827cb3b7e07fbedcd63f033005460ff1661025b565b61020d6103913660046118a0565b61090c565b61020d6103a4366004611856565b6387a211a2600c9081525f91909152602090205490565b61020d6103c9366004611856565b6338377508600c9081525f91909152602090205490565b6102fe610927565b61020d6103f63660046118a0565b610937565b610228610952565b61025b6104113660046117f4565b610961565b61020d6104243660046117b5565b6109d8565b61020d6104373660046118c1565b610a0e565b61020d61044a3660046118c1565b610a32565b6003546102d19073ffffffffffffffffffffffffffffffffffffffff1681565b61020d61047d3660046117b5565b610a4e565b61020d610490366004611856565b610a58565b6102fe6104a336600461190b565b610a75565b61020d6104b6366004611856565b610c0a565b61020d6104c936600461186f565b602052637f5e9f20600c9081525f91909152603490205490565b61020d6104f13660046117b5565b610c23565b5f61051061050b6805345cdf77eb68f44c5490565b610c2d565b905090565b60606001805461052490611973565b80601f016020809104026020016040519081016040528092919081815260200182805461055090611973565b801561059b5780601f106105725761010080835404028352916020019161059b565b820191905f5260205f20905b81548152906001019060200180831161057e57829003601f168201915b5050505050905090565b5f6105af82610c2d565b92915050565b5f82602052637f5e9f20600c52335f52816034600c2055815f52602c5160601c337f8c5be1e5ebec7d5bd14f71427d1e84f3dd0314c0f7b2291e5b200ac8c7c3b92560205fa350600192915050565b5f806106176805345cdf77eb68f44c5490565b9050801583151761063957610634838261062f6104f6565b610d15565b610642565b61064283610a4e565b9392505050565b5f8360601b33602052637f5e9f208117600c526034600c208054801915610685578085111561067f576313be252b5f526004601cfd5b84810382555b50506387a211a28117600c526020600c208054808511156106ad5763f4d678b85f526004601cfd5b84810382555050835f526020600c208381540181555082602052600c5160601c8160601c7fddf252ad1be2c89b69c2b068fc378daa952ba7f163c4a11628f55a4df523b3ef602080a3505060019392505050565b5f8061070b610515565b805190602001209050604080517f8b73c3c69bb8fe3d512ecc4cf759cc79239f7b179b0ffacaa9a75d522b39400f815260208101929092527fc89efdaa54c0f20c7adf612882df0950f5a951637e0307cdcb4c672f298b8bc69082015246606082015230608082015260a09020919050565b610785610d46565b61078d610d8e565b565b5f610798610e2b565b805490915060ff68010000000000000000820416159067ffffffffffffffff165f811580156107c45750825b90505f8267ffffffffffffffff1660011480156107e05750303b155b9050811580156107ee575080155b15610825576040517ff92ee8a900000000000000000000000000000000000000000000000000000000815260040160405180910390fd5b84547fffffffffffffffffffffffffffffffffffffffffffffffff000000000000000016600117855583156108865784547fffffffffffffffffffffffffffffffffffffffffffffff00ffffffffffffffff16680100000000000000001785555b61088e610e53565b6108988787610e5b565b83156108f95784547fffffffffffffffffffffffffffffffffffffffffffffff00ffffffffffffffff168555604051600181527fc7f505b2f371ae2175ee4913f4499e1f2633a7b5936321eed1cdaeb6115181d29060200160405180910390a15b50505050505050565b5f6105af826105a5565b5f610915610d46565b61091d61107c565b61064283836110ee565b61092f610d46565b61078d611106565b5f610940610d46565b61094861107c565b610642838361117f565b60606002805461052490611973565b5f6387a211a2600c52335f526020600c208054808411156109895763f4d678b85f526004601cfd5b83810382555050825f526020600c208281540181555081602052600c5160601c337fddf252ad1be2c89b69c2b068fc378daa952ba7f163c4a11628f55a4df523b3ef602080a350600192915050565b5f806109eb6805345cdf77eb68f44c5490565b90508015610a0557610634836109ff6104f6565b83610d15565b610642836105a5565b5f610a17610d46565b610a1f61107c565b610a2a848484611197565b949350505050565b5f610a3b610d46565b610a4361107c565b610a2a8484846111cd565b5f6105af82611203565b6387a211a2600c9081525f8281526020909120546105af906105a5565b5f610a7e610515565b8051906020012090507fc89efdaa54c0f20c7adf612882df0950f5a951637e0307cdcb4c672f298b8bc642861015610abd57631a15a3cc5f526004601cfd5b6040518960601b60601c99508860601b60601c985065383775081901600e52895f526020600c2080547f8b73c3c69bb8fe3d512ecc4cf759cc79239f7b179b0ffacaa9a75d522b39400f835284602084015283604084015246606084015230608084015260a08320602e527f6e71edae12b1b97f4d1f60370fef10105fa2faae0126114a169c64845d6126c983528b60208401528a60408401528960608401528060808401528860a084015260c08320604e526042602c205f528760ff16602052866040528560605260208060805f60015afa8c3d5114610ba55763ddafbaef5f526004601cfd5b019055777f5e9f20000000000000000000000000000000000000000089176040526034602c20889055888a7f8c5be1e5ebec7d5bd14f71427d1e84f3dd0314c0f7b2291e5b200ac8c7c3b925602060608501a360405250505f60605250505050505050565b6387a211a2600c9081525f8281526020909120546105af565b5f6105af82610a4e565b5f8054604080517f313ce5670000000000000000000000000000000000000000000000000000000081529051601292849273ffffffffffffffffffffffffffffffffffffffff9091169163313ce567916004808201926020929091908290030181865afa158015610ca0573d5f803e3d5ffd5b505050506040513d601f19601f82011682018060405250810190610cc49190611b1d565b90505f8160ff168360ff1610610cf9575060ff81830316610ce681600a611b12565b610cf09086611b38565b95945050505050565b5060ff82820316610d0b81600a611b12565b610cf09086611b70565b5f610d218484846112ce565b9050818385091561064257600101806106425763ae47f7025f526004601cfd5b505050565b60035473ffffffffffffffffffffffffffffffffffffffff16331461078d5761078d7f32cc72360000000000000000000000000000000000000000000000000000000061137b565b610d96611383565b7fcd5ed15c6e187e77e9aee88184c21f4f2182ab5827cb3b7e07fbedcd63f0330080547fffffffffffffffffffffffffffffffffffffffffffffffffffffffffffffff001681557f5db9ee0a495bf2e6ff9c91a7834c1ba4fdd244a5e8aa4e537bd38aeae4b073aa335b60405173ffffffffffffffffffffffffffffffffffffffff909116815260200160405180910390a150565b5f807ff0c57e16840df040f15088dc2f81fe391c3923bec73e23a9662efc9c229c6a006105af565b61078d6113de565b610e636113de565b73ffffffffffffffffffffffffffffffffffffffff8116610ea757610ea77fd92e233d0000000000000000000000000000000000000000000000000000000061137b565b6003805473ffffffffffffffffffffffffffffffffffffffff8084167fffffffffffffffffffffffff0000000000000000000000000000000000000000928316179092555f80549285169290911682178155604080517f06fdde0300000000000000000000000000000000000000000000000000000000815290518593926306fdde0392600480820193918290030181865afa158015610f49573d5f803e3d5ffd5b505050506040513d5f823e601f3d9081017fffffffffffffffffffffffffffffffffffffffffffffffffffffffffffffffe0168201604052610f8e9190810190611bb4565b604051602001610f9e9190611ca4565b60405160208183030381529060405260019081610fbb9190611d21565b508073ffffffffffffffffffffffffffffffffffffffff166395d89b416040518163ffffffff1660e01b81526004015f60405180830381865afa158015611004573d5f803e3d5ffd5b505050506040513d5f823e601f3d9081017fffffffffffffffffffffffffffffffffffffffffffffffffffffffffffffffe01682016040526110499190810190611bb4565b6040516020016110599190611ca4565b604051602081830303815290604052600290816110769190611d21565b50505050565b7fcd5ed15c6e187e77e9aee88184c21f4f2182ab5827cb3b7e07fbedcd63f033005460ff161561078d5761078d6110c75f5473ffffffffffffffffffffffffffffffffffffffff1690565b7fda9f8b34000000000000000000000000000000000000000000000000000000009061141c565b5f6110f883610c23565b90506105af33838584611431565b61110e61107c565b7fcd5ed15c6e187e77e9aee88184c21f4f2182ab5827cb3b7e07fbedcd63f0330080547fffffffffffffffffffffffffffffffffffffffffffffffffffffffffffffff001660011781557f62e78cea01bee320cd4e420270b5ea74000d11b0c9f74754ebdbfc544b05a25833610e00565b5f611189836109d8565b90506105af33838386611431565b5f6111a182610a58565b8411156111b5576111b563936941fc611428565b6111be84610604565b905061064233848487856114a1565b5f6111d782610c0a565b8411156111eb576111eb634656425a611428565b6111f484610902565b905061064233848484886114a1565b5f8054604080517f313ce5670000000000000000000000000000000000000000000000000000000081529051601292849273ffffffffffffffffffffffffffffffffffffffff9091169163313ce567916004808201926020929091908290030181865afa158015611276573d5f803e3d5ffd5b505050506040513d601f19601f8201168201806040525081019061129a9190611b1d565b90505f8160ff168360ff16106112bc575060ff81830316610d0b81600a611b12565b5060ff82820316610ce681600a611b12565b82820281838583041485151702611374577fffffffffffffffffffffffffffffffffffffffffffffffffffffffffffffffff8385098181108201900382848609835f0384168285116113275763ae47f7025f526004601cfd5b93849004938382119092035f839003839004600101029203041760026003830281188084028203028084028203028084028203028084028203028084028203028084029091030202610642565b0492915050565b805f5260045ffd5b7fcd5ed15c6e187e77e9aee88184c21f4f2182ab5827cb3b7e07fbedcd63f033005460ff1661078d576040517f8dfc202b00000000000000000000000000000000000000000000000000000000815260040160405180910390fd5b6113e6611553565b61078d576040517fd7e6bcf800000000000000000000000000000000000000000000000000000000815260040160405180910390fd5b815f528060045260245ffd5b805f526004601cfd5b61145a6114525f5473ffffffffffffffffffffffffffffffffffffffff1690565b853085611571565b61146483826115d3565b815f52806020525f1960601c8381168582167fdcbc1c05240f31ff3ad067ef1ee35ce4997762752e3a095284754544f4c709d760405fa350611076565b8273ffffffffffffffffffffffffffffffffffffffff168573ffffffffffffffffffffffffffffffffffffffff16146114df576114df83868361164f565b6114e9838261168e565b61151161150a5f5473ffffffffffffffffffffffffffffffffffffffff1690565b858461170f565b815f52806020525f1960601c8381168582168783167ffbde797d201c681b91056529119e0b02407c7bb96a4a2c75c01fc9667232c8db60405fa4505050505050565b5f61155c610e2b565b5468010000000000000000900460ff16919050565b60405181606052826040528360601b602c526f23b872dd000000000000000000000000600c5260205f6064601c5f895af18060015f5114166115c557803d873b1517106115c557637939f4245f526004601cfd5b505f60605260405250505050565b6805345cdf77eb68f44c54818101818110156115f65763e5cfe9575f526004601cfd5b806805345cdf77eb68f44c5550506387a211a2600c52815f526020600c208181540181555080602052600c5160601c5f7fddf252ad1be2c89b69c2b068fc378daa952ba7f163c4a11628f55a4df523b3ef602080a35050565b81602052637f5e9f20600c52825f526034600c2080548019156116875780831115611681576313be252b5f526004601cfd5b82810382555b5050505050565b6387a211a2600c52815f526020600c208054808311156116b55763f4d678b85f526004601cfd5b82900390556805345cdf77eb68f44c805482900390555f81815273ffffffffffffffffffffffffffffffffffffffff83167fddf252ad1be2c89b69c2b068fc378daa952ba7f163c4a11628f55a4df523b3ef602083a35050565b81601452806034526fa9059cbb0000000000000000000000005f5260205f604460105f875af18060015f51141661175857803d853b151710611758576390b8ec185f526004601cfd5b505f603452505050565b602081525f82518060208401528060208501604085015e5f6040828501015260407fffffffffffffffffffffffffffffffffffffffffffffffffffffffffffffffe0601f83011684010191505092915050565b5f602082840312156117c5575f80fd5b5035919050565b803573ffffffffffffffffffffffffffffffffffffffff811681146117ef575f80fd5b919050565b5f8060408385031215611805575f80fd5b61180e836117cc565b946020939093013593505050565b5f805f6060848603121561182e575f80fd5b611837846117cc565b9250611845602085016117cc565b929592945050506040919091013590565b5f60208284031215611866575f80fd5b610642826117cc565b5f8060408385031215611880575f80fd5b611889836117cc565b9150611897602084016117cc565b90509250929050565b5f80604083850312156118b1575f80fd5b82359150611897602084016117cc565b5f805f606084860312156118d3575f80fd5b833592506118e3602085016117cc565b91506118f1604085016117cc565b90509250925092565b60ff81168114611908575f80fd5b50565b5f805f805f805f60e0888a031215611921575f80fd5b61192a886117cc565b9650611938602089016117cc565b955060408801359450606088013593506080880135611956816118fa565b9699959850939692959460a0840135945060c09093013592915050565b600181811c9082168061198757607f821691505b6020821081036119be577f4e487b71000000000000000000000000000000000000000000000000000000005f52602260045260245ffd5b50919050565b7f4e487b71000000000000000000000000000000000000000000000000000000005f52601160045260245ffd5b6001815b6001841115611a2c57808504811115611a1057611a106119c4565b6001841615611a1e57908102905b60019390931c9280026119f5565b935093915050565b5f82611a42575060016105af565b81611a4e57505f6105af565b8160018114611a645760028114611a6e57611a8a565b60019150506105af565b60ff841115611a7f57611a7f6119c4565b50506001821b6105af565b5060208310610133831016604e8410600b8410161715611aad575081810a6105af565b611ad87fffffffffffffffffffffffffffffffffffffffffffffffffffffffffffffffff84846119f1565b807fffffffffffffffffffffffffffffffffffffffffffffffffffffffffffffffff04821115611b0a57611b0a6119c4565b029392505050565b5f6106428383611a34565b5f60208284031215611b2d575f80fd5b8151610642816118fa565b5f82611b6b577f4e487b71000000000000000000000000000000000000000000000000000000005f52601260045260245ffd5b500490565b80820281158282048414176105af576105af6119c4565b7f4e487b71000000000000000000000000000000000000000000000000000000005f52604160045260245ffd5b5f60208284031215611bc4575f80fd5b815167ffffffffffffffff811115611bda575f80fd5b8201601f81018413611bea575f80fd5b805167ffffffffffffffff811115611c0457611c04611b87565b6040517fffffffffffffffffffffffffffffffffffffffffffffffffffffffffffffffe0603f7fffffffffffffffffffffffffffffffffffffffffffffffffffffffffffffffe0601f8501160116810181811067ffffffffffffffff82111715611c7057611c70611b87565b604052818152828201602001861015611c87575f80fd5b8160208401602083015e5f91810160200191909152949350505050565b5f82518060208501845e7f5661756c74000000000000000000000000000000000000000000000000000000920191825250600501919050565b601f821115610d4157805f5260205f20601f840160051c81016020851015611d025750805b601f840160051c820191505b81811015611687575f8155600101611d0e565b815167ffffffffffffffff811115611d3b57611d3b611b87565b611d4f81611d498454611973565b84611cdd565b6020601f821160018114611da0575f8315611d6a5750848201515b7fffffffffffffffffffffffffffffffffffffffffffffffffffffffffffffffff600385901b1c1916600184901b178455611687565b5f848152602081207fffffffffffffffffffffffffffffffffffffffffffffffffffffffffffffffe08516915b82811015611ded5787850151825560209485019460019092019101611dcd565b5084821015611e2957868401517fffffffffffffffffffffffffffffffffffffffffffffffffffffffffffffffff600387901b60f8161c191681555b50505050600190811b0190555056fea164736f6c634300081a000a608060405260405161037c38038061037c83398101604081905261002291610108565b61002c8282610033565b5050610139565b61003d8282610041565b5050565b61004a82610053565b61003d8161009d565b8060601b60601c9050684343a0dc92ed22dbfc5481684343a0dc92ed22dbfc5581817f8be0079c531659141344cd1fd0a4f28419497f9722a3daafe3b4186f6b6457e05f38a35050565b6001600160a01b0316803b6100b957636d3e283b5f526004601cfd5b8068911c5a209f08d5ec5e55807fbc7cd75a20ee27fd9adebab32041f755214dbc6bffa90cc0225b39da2e5c2d3b5f38a250565b80516001600160a01b0381168114610103575f80fd5b919050565b5f8060408385031215610119575f80fd5b610122836100ed565b9150610130602084016100ed565b90509250929050565b610236806101465f395ff3fe608060405234801561000f575f80fd5b5060043610610064575f3560e01c8063715018a61161004d578063715018a6146100b25780638da5cb5b146100ba578063f2fde38b146100ca575f80fd5b80633659cfe6146100685780635c60da1b1461007d575b5f80fd5b61007b6100763660046101ef565b6100dd565b005b68911c5a209f08d5ec5e545b60405173ffffffffffffffffffffffffffffffffffffffff909116815260200160405180910390f35b61007b6100f1565b684343a0dc92ed22dbfc54610089565b61007b6100d83660046101ef565b610104565b6100e561012a565b6100ee81610148565b50565b6100f961012a565b6101025f6101a5565b565b61010c61012a565b8060601b61012157637448fbae5f526004601cfd5b6100ee816101a5565b684343a0dc92ed22dbfc543314610102576382b429005f526004601cfd5b73ffffffffffffffffffffffffffffffffffffffff16803b61017157636d3e283b5f526004601cfd5b8068911c5a209f08d5ec5e55807fbc7cd75a20ee27fd9adebab32041f755214dbc6bffa90cc0225b39da2e5c2d3b5f38a250565b8060601b60601c9050684343a0dc92ed22dbfc5481684343a0dc92ed22dbfc5581817f8be0079c531659141344cd1fd0a4f28419497f9722a3daafe3b4186f6b6457e05f38a35050565b5f602082840312156101ff575f80fd5b813573ffffffffffffffffffffffffffffffffffffffff81168114610222575f80fd5b939250505056fea164736f6c634300081a000aa164736f6c634300081a000a","linkReferences":{}},"methodIdentifiers":{"DEFAULT_ADMIN_ROLE()":"a217fddf","MANAGER_ROLE()":"ec87621c","PAUSER_ROLE()":"e63ab1e9","UPGRADE_INTERFACE_VERSION()":"ad3cb1cc","beacon()":"59659e90","collectedFees(address,address)":"4c97f766","createVault(address)":"b4bd6f46","feeReceiver()":"b3f00674","forcedBasketMode()":"7b34b5d8","getRoleAdmin(bytes32)":"248a9ca3","getWeights()":"22acb867","globalCap()":"99a2af75","grantRole(bytes32,address)":"2f2ff15d","hasRole(bytes32,address)":"91d14854","honey()":"36b2c4b2","initialize(address,address,address,address,address)":"1459457a","isBadCollateralAsset(address)":"1e17e57c","isBasketModeEnabled(bool)":"de4bc640","isPegged(address)":"bc7c2902","liquidate(address,address,uint256)":"26c01303","liquidationEnabled()":"ae574a90","minSharesToRecapitalize()":"55c7aaff","mint(address,uint256,address,bool)":"328ebaf7","mintRates(address)":"ad1567c7","numRegisteredAssets()":"bb85d15b","pause()":"8456cb59","pauseVault(address)":"c0bd6f9e","paused()":"5c975abb","polFeeCollector()":"1e704c63","polFeeCollectorFeeRate()":"9ee61d56","priceFeedMaxDelay()":"ebaa6545","priceOracle()":"2630c12f","proxiableUUID()":"52d1902d","recapitalize(address,uint256)":"e0cda5da","recapitalizeBalanceThreshold(address)":"93df0018","redeem(address,uint256,address,bool)":"ed596315","redeemRates(address)":"2cfb0e10","referenceCollateral()":"f68f0c69","registeredAssets(uint256)":"a083bd3c","relativeCap(address)":"bdb912f3","renounceRole(bytes32,address)":"36568abe","revokeRole(bytes32,address)":"d547741f","setCollateralAssetStatus(address,bool)":"c1a7b2af","setDepegOffsets(address,uint256,uint256)":"00271801","setFeeReceiver(address)":"efdcd974","setForcedBasketMode(bool)":"6fe7f983","setGlobalCap(uint256)":"a71f6f5f","setLiquidationEnabled(bool)":"5f0ccdc2","setLiquidationRate(address,uint256)":"a3bc2385","setMaxFeedDelay(uint256)":"ab6636ec","setMinSharesToRecapitalize(uint256)":"aba1f541","setMintRate(address,uint256)":"f91d65af","setPOLFeeCollector(address)":"f0f15132","setPOLFeeCollectorFeeRate(uint256)":"503b9e59","setPriceOracle(address)":"530e784f","setRecapitalizeBalanceThreshold(address,uint256)":"0aa4f4cd","setRedeemRate(address,uint256)":"abab398a","setReferenceCollateral(address)":"4af471be","setRelativeCap(address,uint256)":"e2a02536","supportsInterface(bytes4)":"01ffc9a7","unpause()":"3f4ba83a","unpauseVault(address)":"2efbab2c","upgradeToAndCall(address,bytes)":"4f1ef286","vaults(address)":"a622ee7c","withdrawAllFees(address)":"4c179042","withdrawFee(address,address)":"c879c6d8"},"storageLayout":{"storage":[{"astId":91496,"contract":"src/v0_Contracts/HoneyFactory_V0.sol:HoneyFactory_V0","label":"beacon","offset":0,"slot":"0","type":"t_address"},{"astId":91499,"contract":"src/v0_Contracts/HoneyFactory_V0.sol:HoneyFactory_V0","label":"feeReceiver","offset":0,"slot":"1","type":"t_address"},{"astId":91502,"contract":"src/v0_Contracts/HoneyFactory_V0.sol:HoneyFactory_V0","label":"polFeeCollector","offset":0,"slot":"2","type":"t_address"},{"astId":91506,"contract":"src/v0_Contracts/HoneyFactory_V0.sol:HoneyFactory_V0","label":"registeredAssets","offset":0,"slot":"3","type":"t_array(t_address)dyn_storage"},{"astId":91512,"contract":"src/v0_Contracts/HoneyFactory_V0.sol:HoneyFactory_V0","label":"vaults","offset":0,"slot":"4","type":"t_mapping(t_address,t_contract(CollateralVault_V0)87507)"},{"astId":91517,"contract":"src/v0_Contracts/HoneyFactory_V0.sol:HoneyFactory_V0","label":"isBadCollateralAsset","offset":0,"slot":"5","type":"t_mapping(t_address,t_bool)"},{"astId":91524,"contract":"src/v0_Contracts/HoneyFactory_V0.sol:HoneyFactory_V0","label":"collectedFees","offset":0,"slot":"6","type":"t_mapping(t_address,t_mapping(t_address,t_uint256))"},{"astId":91529,"contract":"src/v0_Contracts/HoneyFactory_V0.sol:HoneyFactory_V0","label":"collectedAssetFees","offset":0,"slot":"7","type":"t_mapping(t_address,t_uint256)"},{"astId":91534,"contract":"src/v0_Contracts/HoneyFactory_V0.sol:HoneyFactory_V0","label":"__gap","offset":0,"slot":"8","type":"t_array(t_uint256)49_storage"},{"astId":87565,"contract":"src/v0_Contracts/HoneyFactory_V0.sol:HoneyFactory_V0","label":"honey","offset":0,"slot":"57","type":"t_contract(Honey)72425"},{"astId":87568,"contract":"src/v0_Contracts/HoneyFactory_V0.sol:HoneyFactory_V0","label":"polFeeCollectorFeeRate","offset":0,"slot":"58","type":"t_uint256"},{"astId":87573,"contract":"src/v0_Contracts/HoneyFactory_V0.sol:HoneyFactory_V0","label":"mintRates","offset":0,"slot":"59","type":"t_mapping(t_address,t_uint256)"},{"astId":87578,"contract":"src/v0_Contracts/HoneyFactory_V0.sol:HoneyFactory_V0","label":"redeemRates","offset":0,"slot":"60","type":"t_mapping(t_address,t_uint256)"},{"astId":87583,"contract":"src/v0_Contracts/HoneyFactory_V0.sol:HoneyFactory_V0","label":"lowerPegOffsets","offset":0,"slot":"61","type":"t_mapping(t_address,t_uint256)"},{"astId":87587,"contract":"src/v0_Contracts/HoneyFactory_V0.sol:HoneyFactory_V0","label":"upperPegOffsets","offset":0,"slot":"62","type":"t_mapping(t_address,t_uint256)"},{"astId":87592,"contract":"src/v0_Contracts/HoneyFactory_V0.sol:HoneyFactory_V0","label":"liquidationRates","offset":0,"slot":"63","type":"t_mapping(t_address,t_uint256)"},{"astId":87595,"contract":"src/v0_Contracts/HoneyFactory_V0.sol:HoneyFactory_V0","label":"forcedBasketMode","offset":0,"slot":"64","type":"t_bool"},{"astId":87598,"contract":"src/v0_Contracts/HoneyFactory_V0.sol:HoneyFactory_V0","label":"liquidationEnabled","offset":1,"slot":"64","type":"t_bool"},{"astId":87602,"contract":"src/v0_Contracts/HoneyFactory_V0.sol:HoneyFactory_V0","label":"priceOracle","offset":2,"slot":"64","type":"t_contract(IPriceOracle)69752"},{"astId":87605,"contract":"src/v0_Contracts/HoneyFactory_V0.sol:HoneyFactory_V0","label":"priceFeedMaxDelay","offset":0,"slot":"65","type":"t_uint256"},{"astId":87607,"contract":"src/v0_Contracts/HoneyFactory_V0.sol:HoneyFactory_V0","label":"referenceCollateral","offset":0,"slot":"66","type":"t_address"},{"astId":87611,"contract":"src/v0_Contracts/HoneyFactory_V0.sol:HoneyFactory_V0","label":"relativeCap","offset":0,"slot":"67","type":"t_mapping(t_address,t_uint256)"},{"astId":87613,"contract":"src/v0_Contracts/HoneyFactory_V0.sol:HoneyFactory_V0","label":"globalCap","offset":0,"slot":"68","type":"t_uint256"},{"astId":87618,"contract":"src/v0_Contracts/HoneyFactory_V0.sol:HoneyFactory_V0","label":"recapitalizeBalanceThreshold","offset":0,"slot":"69","type":"t_mapping(t_address,t_uint256)"},{"astId":87621,"contract":"src/v0_Contracts/HoneyFactory_V0.sol:HoneyFactory_V0","label":"minSharesToRecapitalize","offset":0,"slot":"70","type":"t_uint256"}],"types":{"t_address":{"encoding":"inplace","label":"address","numberOfBytes":"20"},"t_array(t_address)dyn_storage":{"encoding":"dynamic_array","label":"address[]","numberOfBytes":"32","base":"t_address"},"t_array(t_uint256)49_storage":{"encoding":"inplace","label":"uint256[49]","numberOfBytes":"1568","base":"t_uint256"},"t_bool":{"encoding":"inplace","label":"bool","numberOfBytes":"1"},"t_contract(CollateralVault_V0)87507":{"encoding":"inplace","label":"contract CollateralVault_V0","numberOfBytes":"20"},"t_contract(Honey)72425":{"encoding":"inplace","label":"contract Honey","numberOfBytes":"20"},"t_contract(IPriceOracle)69752":{"encoding":"inplace","label":"contract IPriceOracle","numberOfBytes":"20"},"t_mapping(t_address,t_bool)":{"encoding":"mapping","key":"t_address","label":"mapping(address => bool)","numberOfBytes":"32","value":"t_bool"},"t_mapping(t_address,t_contract(CollateralVault_V0)87507)":{"encoding":"mapping","key":"t_address","label":"mapping(address => contract CollateralVault_V0)","numberOfBytes":"32","value":"t_contract(CollateralVault_V0)87507"},"t_mapping(t_address,t_mapping(t_address,t_uint256))":{"encoding":"mapping","key":"t_address","label":"mapping(address => mapping(address => uint256))","numberOfBytes":"32","value":"t_mapping(t_address,t_uint256)"},"t_mapping(t_address,t_uint256)":{"encoding":"mapping","key":"t_address","label":"mapping(address => uint256)","numberOfBytes":"32","value":"t_uint256"},"t_uint256":{"encoding":"inplace","label":"uint256","numberOfBytes":"32"}}},"id":158}