{"abi":[{"type":"constructor","inputs":[],"stateMutability":"nonpayable"},{"type":"function","name":"accountIncentives","inputs":[{"name":"token","type":"address","internalType":"address"},{"name":"amount","type":"uint256","internalType":"uint256"}],"outputs":[],"stateMutability":"nonpayable"},{"type":"function","name":"addIncentive","inputs":[{"name":"token","type":"address","internalType":"address"},{"name":"amount","type":"uint256","internalType":"uint256"},{"name":"incentiveRate","type":"uint256","internalType":"uint256"}],"outputs":[],"stateMutability":"nonpayable"},{"type":"function","name":"balanceOf","inputs":[{"name":"account","type":"address","internalType":"address"}],"outputs":[{"name":"","type":"uint256","internalType":"uint256"}],"stateMutability":"view"},{"type":"function","name":"beaconDepositContract","inputs":[],"outputs":[{"name":"","type":"address","internalType":"contract IBeaconDeposit"}],"stateMutability":"view"},{"type":"function","name":"delegateStake","inputs":[{"name":"account","type":"address","internalType":"address"},{"name":"amount","type":"uint256","internalType":"uint256"}],"outputs":[],"stateMutability":"nonpayable"},{"type":"function","name":"delegateWithdraw","inputs":[{"name":"account","type":"address","internalType":"address"},{"name":"amount","type":"uint256","internalType":"uint256"}],"outputs":[],"stateMutability":"nonpayable"},{"type":"function","name":"distributor","inputs":[],"outputs":[{"name":"","type":"address","internalType":"address"}],"stateMutability":"view"},{"type":"function","name":"earned","inputs":[{"name":"account","type":"address","internalType":"address"}],"outputs":[{"name":"","type":"uint256","internalType":"uint256"}],"stateMutability":"view"},{"type":"function","name":"exit","inputs":[{"name":"recipient","type":"address","internalType":"address"}],"outputs":[],"stateMutability":"nonpayable"},{"type":"function","name":"factory","inputs":[],"outputs":[{"name":"","type":"address","internalType":"address"}],"stateMutability":"view"},{"type":"function","name":"getDelegateStake","inputs":[{"name":"account","type":"address","internalType":"address"},{"name":"delegate","type":"address","internalType":"address"}],"outputs":[{"name":"","type":"uint256","internalType":"uint256"}],"stateMutability":"view"},{"type":"function","name":"getReward","inputs":[{"name":"account","type":"address","internalType":"address"},{"name":"recipient","type":"address","internalType":"address"}],"outputs":[{"name":"","type":"uint256","internalType":"uint256"}],"stateMutability":"nonpayable"},{"type":"function","name":"getRewardForDuration","inputs":[],"outputs":[{"name":"","type":"uint256","internalType":"uint256"}],"stateMutability":"view"},{"type":"function","name":"getTotalDelegateStaked","inputs":[{"name":"account","type":"address","internalType":"address"}],"outputs":[{"name":"","type":"uint256","internalType":"uint256"}],"stateMutability":"view"},{"type":"function","name":"getWhitelistedTokens","inputs":[],"outputs":[{"name":"","type":"address[]","internalType":"address[]"}],"stateMutability":"view"},{"type":"function","name":"getWhitelistedTokensCount","inputs":[],"outputs":[{"name":"","type":"uint256","internalType":"uint256"}],"stateMutability":"view"},{"type":"function","name":"incentives","inputs":[{"name":"token","type":"address","internalType":"address"}],"outputs":[{"name":"minIncentiveRate","type":"uint256","internalType":"uint256"},{"name":"incentiveRate","type":"uint256","internalType":"uint256"},{"name":"amountRemaining","type":"uint256","internalType":"uint256"},{"name":"manager","type":"address","internalType":"address"}],"stateMutability":"view"},{"type":"function","name":"initialize","inputs":[{"name":"_beaconDepositContract","type":"address","internalType":"address"},{"name":"_bgt","type":"address","internalType":"address"},{"name":"_distributor","type":"address","internalType":"address"},{"name":"_stakingToken","type":"address","internalType":"address"}],"outputs":[],"stateMutability":"nonpayable"},{"type":"function","name":"isFactoryOwner","inputs":[{"name":"user","type":"address","internalType":"address"}],"outputs":[{"name":"","type":"bool","internalType":"bool"}],"stateMutability":"view"},{"type":"function","name":"isFactoryVaultManager","inputs":[{"name":"user","type":"address","internalType":"address"}],"outputs":[{"name":"","type":"bool","internalType":"bool"}],"stateMutability":"view"},{"type":"function","name":"isFactoryVaultPauser","inputs":[{"name":"user","type":"address","internalType":"address"}],"outputs":[{"name":"","type":"bool","internalType":"bool"}],"stateMutability":"view"},{"type":"function","name":"lastTimeRewardApplicable","inputs":[],"outputs":[{"name":"","type":"uint256","internalType":"uint256"}],"stateMutability":"view"},{"type":"function","name":"lastUpdateTime","inputs":[],"outputs":[{"name":"","type":"uint256","internalType":"uint256"}],"stateMutability":"view"},{"type":"function","name":"maxIncentiveTokensCount","inputs":[],"outputs":[{"name":"","type":"uint8","internalType":"uint8"}],"stateMutability":"view"},{"type":"function","name":"notifyRewardAmount","inputs":[{"name":"pubkey","type":"bytes","internalType":"bytes"},{"name":"reward","type":"uint256","internalType":"uint256"}],"outputs":[],"stateMutability":"nonpayable"},{"type":"function","name":"operator","inputs":[{"name":"account","type":"address","internalType":"address"}],"outputs":[{"name":"","type":"address","internalType":"address"}],"stateMutability":"view"},{"type":"function","name":"pause","inputs":[],"outputs":[],"stateMutability":"nonpayable"},{"type":"function","name":"paused","inputs":[],"outputs":[{"name":"","type":"bool","internalType":"bool"}],"stateMutability":"view"},{"type":"function","name":"periodFinish","inputs":[],"outputs":[{"name":"","type":"uint256","internalType":"uint256"}],"stateMutability":"view"},{"type":"function","name":"recoverERC20","inputs":[{"name":"tokenAddress","type":"address","internalType":"address"},{"name":"tokenAmount","type":"uint256","internalType":"uint256"}],"outputs":[],"stateMutability":"nonpayable"},{"type":"function","name":"removeIncentiveToken","inputs":[{"name":"token","type":"address","internalType":"address"}],"outputs":[],"stateMutability":"nonpayable"},{"type":"function","name":"rewardPerToken","inputs":[],"outputs":[{"name":"","type":"uint256","internalType":"uint256"}],"stateMutability":"view"},{"type":"function","name":"rewardPerTokenStored","inputs":[],"outputs":[{"name":"","type":"uint256","internalType":"uint256"}],"stateMutability":"view"},{"type":"function","name":"rewardRate","inputs":[],"outputs":[{"name":"","type":"uint256","internalType":"uint256"}],"stateMutability":"view"},{"type":"function","name":"rewardToken","inputs":[],"outputs":[{"name":"","type":"address","internalType":"contract IERC20"}],"stateMutability":"view"},{"type":"function","name":"rewards","inputs":[{"name":"account","type":"address","internalType":"address"}],"outputs":[{"name":"","type":"uint256","internalType":"uint256"}],"stateMutability":"view"},{"type":"function","name":"rewardsDuration","inputs":[],"outputs":[{"name":"","type":"uint256","internalType":"uint256"}],"stateMutability":"view"},{"type":"function","name":"setDistributor","inputs":[{"name":"_rewardDistribution","type":"address","internalType":"address"}],"outputs":[],"stateMutability":"nonpayable"},{"type":"function","name":"setMaxIncentiveTokensCount","inputs":[{"name":"_maxIncentiveTokensCount","type":"uint8","internalType":"uint8"}],"outputs":[],"stateMutability":"nonpayable"},{"type":"function","name":"setOperator","inputs":[{"name":"_operator","type":"address","internalType":"address"}],"outputs":[],"stateMutability":"nonpayable"},{"type":"function","name":"setRewardsDuration","inputs":[{"name":"_rewardsDuration","type":"uint256","internalType":"uint256"}],"outputs":[],"stateMutability":"nonpayable"},{"type":"function","name":"stake","inputs":[{"name":"amount","type":"uint256","internalType":"uint256"}],"outputs":[],"stateMutability":"nonpayable"},{"type":"function","name":"stakeToken","inputs":[],"outputs":[{"name":"","type":"address","internalType":"contract IERC20"}],"stateMutability":"view"},{"type":"function","name":"totalSupply","inputs":[],"outputs":[{"name":"","type":"uint256","internalType":"uint256"}],"stateMutability":"view"},{"type":"function","name":"undistributedRewards","inputs":[],"outputs":[{"name":"","type":"uint256","internalType":"uint256"}],"stateMutability":"view"},{"type":"function","name":"unpause","inputs":[],"outputs":[],"stateMutability":"nonpayable"},{"type":"function","name":"updateIncentiveManager","inputs":[{"name":"token","type":"address","internalType":"address"},{"name":"newManager","type":"address","internalType":"address"}],"outputs":[],"stateMutability":"nonpayable"},{"type":"function","name":"userRewardPerTokenPaid","inputs":[{"name":"account","type":"address","internalType":"address"}],"outputs":[{"name":"","type":"uint256","internalType":"uint256"}],"stateMutability":"view"},{"type":"function","name":"whitelistIncentiveToken","inputs":[{"name":"token","type":"address","internalType":"address"},{"name":"minIncentiveRate","type":"uint256","internalType":"uint256"},{"name":"manager","type":"address","internalType":"address"}],"outputs":[],"stateMutability":"nonpayable"},{"type":"function","name":"whitelistedTokens","inputs":[{"name":"","type":"uint256","internalType":"uint256"}],"outputs":[{"name":"","type":"address","internalType":"address"}],"stateMutability":"view"},{"type":"function","name":"withdraw","inputs":[{"name":"amount","type":"uint256","internalType":"uint256"}],"outputs":[],"stateMutability":"nonpayable"},{"type":"event","name":"BGTBoosterIncentivesProcessFailed","inputs":[{"name":"pubkey","type":"bytes","indexed":true,"internalType":"bytes"},{"name":"token","type":"address","indexed":true,"internalType":"address"},{"name":"bgtEmitted","type":"uint256","indexed":false,"internalType":"uint256"},{"name":"amount","type":"uint256","indexed":false,"internalType":"uint256"}],"anonymous":false},{"type":"event","name":"BGTBoosterIncentivesProcessed","inputs":[{"name":"pubkey","type":"bytes","indexed":true,"internalType":"bytes"},{"name":"token","type":"address","indexed":true,"internalType":"address"},{"name":"bgtEmitted","type":"uint256","indexed":false,"internalType":"uint256"},{"name":"amount","type":"uint256","indexed":false,"internalType":"uint256"}],"anonymous":false},{"type":"event","name":"DelegateStaked","inputs":[{"name":"account","type":"address","indexed":true,"internalType":"address"},{"name":"delegate","type":"address","indexed":true,"internalType":"address"},{"name":"amount","type":"uint256","indexed":false,"internalType":"uint256"}],"anonymous":false},{"type":"event","name":"DelegateWithdrawn","inputs":[{"name":"account","type":"address","indexed":true,"internalType":"address"},{"name":"delegate","type":"address","indexed":true,"internalType":"address"},{"name":"amount","type":"uint256","indexed":false,"internalType":"uint256"}],"anonymous":false},{"type":"event","name":"DistributorSet","inputs":[{"name":"distributor","type":"address","indexed":true,"internalType":"address"}],"anonymous":false},{"type":"event","name":"IncentiveAdded","inputs":[{"name":"token","type":"address","indexed":true,"internalType":"address"},{"name":"sender","type":"address","indexed":false,"internalType":"address"},{"name":"amount","type":"uint256","indexed":false,"internalType":"uint256"},{"name":"incentiveRate","type":"uint256","indexed":false,"internalType":"uint256"}],"anonymous":false},{"type":"event","name":"IncentiveManagerChanged","inputs":[{"name":"token","type":"address","indexed":true,"internalType":"address"},{"name":"newManager","type":"address","indexed":false,"internalType":"address"},{"name":"oldManager","type":"address","indexed":false,"internalType":"address"}],"anonymous":false},{"type":"event","name":"IncentiveTokenRemoved","inputs":[{"name":"token","type":"address","indexed":true,"internalType":"address"}],"anonymous":false},{"type":"event","name":"IncentiveTokenWhitelisted","inputs":[{"name":"token","type":"address","indexed":true,"internalType":"address"},{"name":"minIncentiveRate","type":"uint256","indexed":false,"internalType":"uint256"},{"name":"manager","type":"address","indexed":false,"internalType":"address"}],"anonymous":false},{"type":"event","name":"IncentivesProcessFailed","inputs":[{"name":"pubkey","type":"bytes","indexed":true,"internalType":"bytes"},{"name":"token","type":"address","indexed":true,"internalType":"address"},{"name":"bgtEmitted","type":"uint256","indexed":false,"internalType":"uint256"},{"name":"amount","type":"uint256","indexed":false,"internalType":"uint256"}],"anonymous":false},{"type":"event","name":"IncentivesProcessed","inputs":[{"name":"pubkey","type":"bytes","indexed":true,"internalType":"bytes"},{"name":"token","type":"address","indexed":true,"internalType":"address"},{"name":"bgtEmitted","type":"uint256","indexed":false,"internalType":"uint256"},{"name":"amount","type":"uint256","indexed":false,"internalType":"uint256"}],"anonymous":false},{"type":"event","name":"Initialized","inputs":[{"name":"version","type":"uint64","indexed":false,"internalType":"uint64"}],"anonymous":false},{"type":"event","name":"MaxIncentiveTokensCountUpdated","inputs":[{"name":"maxIncentiveTokensCount","type":"uint8","indexed":false,"internalType":"uint8"}],"anonymous":false},{"type":"event","name":"OperatorSet","inputs":[{"name":"account","type":"address","indexed":false,"internalType":"address"},{"name":"operator","type":"address","indexed":false,"internalType":"address"}],"anonymous":false},{"type":"event","name":"Paused","inputs":[{"name":"account","type":"address","indexed":false,"internalType":"address"}],"anonymous":false},{"type":"event","name":"Recovered","inputs":[{"name":"token","type":"address","indexed":false,"internalType":"address"},{"name":"amount","type":"uint256","indexed":false,"internalType":"uint256"}],"anonymous":false},{"type":"event","name":"RewardAdded","inputs":[{"name":"reward","type":"uint256","indexed":false,"internalType":"uint256"}],"anonymous":false},{"type":"event","name":"RewardPaid","inputs":[{"name":"account","type":"address","indexed":true,"internalType":"address"},{"name":"to","type":"address","indexed":false,"internalType":"address"},{"name":"reward","type":"uint256","indexed":false,"internalType":"uint256"}],"anonymous":false},{"type":"event","name":"RewardsDurationUpdated","inputs":[{"name":"newDuration","type":"uint256","indexed":false,"internalType":"uint256"}],"anonymous":false},{"type":"event","name":"Staked","inputs":[{"name":"account","type":"address","indexed":true,"internalType":"address"},{"name":"amount","type":"uint256","indexed":false,"internalType":"uint256"}],"anonymous":false},{"type":"event","name":"Unpaused","inputs":[{"name":"account","type":"address","indexed":false,"internalType":"address"}],"anonymous":false},{"type":"event","name":"Withdrawn","inputs":[{"name":"account","type":"address","indexed":true,"internalType":"address"},{"name":"amount","type":"uint256","indexed":false,"internalType":"uint256"}],"anonymous":false},{"type":"error","name":"AmountLessThanMinIncentiveRate","inputs":[]},{"type":"error","name":"CannotRecoverIncentiveToken","inputs":[]},{"type":"error","name":"CannotRecoverRewardToken","inputs":[]},{"type":"error","name":"CannotRecoverStakingToken","inputs":[]},{"type":"error","name":"CommissionChangeAlreadyQueued","inputs":[]},{"type":"error","name":"CommissionNotQueuedOrDelayNotPassed","inputs":[]},{"type":"error","name":"DepositNotMultipleOfGwei","inputs":[]},{"type":"error","name":"DepositValueTooHigh","inputs":[]},{"type":"error","name":"DonateAmountLessThanPayoutAmount","inputs":[]},{"type":"error","name":"EnforcedPause","inputs":[]},{"type":"error","name":"ExpectedPause","inputs":[]},{"type":"error","name":"IncentiveRateTooHigh","inputs":[]},{"type":"error","name":"IndexOutOfRange","inputs":[]},{"type":"error","name":"InsolventReward","inputs":[]},{"type":"error","name":"InsufficientDelegateStake","inputs":[]},{"type":"error","name":"InsufficientDeposit","inputs":[]},{"type":"error","name":"InsufficientIncentiveTokens","inputs":[]},{"type":"error","name":"InsufficientSelfStake","inputs":[]},{"type":"error","name":"InsufficientStake","inputs":[]},{"type":"error","name":"InvalidActivateBoostDelay","inputs":[]},{"type":"error","name":"InvalidArray","inputs":[]},{"type":"error","name":"InvalidBaseRate","inputs":[]},{"type":"error","name":"InvalidBoostMultiplier","inputs":[]},{"type":"error","name":"InvalidCommissionChangeDelay","inputs":[]},{"type":"error","name":"InvalidCommissionValue","inputs":[]},{"type":"error","name":"InvalidCredentialsLength","inputs":[]},{"type":"error","name":"InvalidDistribution","inputs":[]},{"type":"error","name":"InvalidDropBoostDelay","inputs":[]},{"type":"error","name":"InvalidIncentiveRate","inputs":[]},{"type":"error","name":"InvalidInitialization","inputs":[]},{"type":"error","name":"InvalidMaxIncentiveTokensCount","inputs":[]},{"type":"error","name":"InvalidMaxWeightPerVault","inputs":[]},{"type":"error","name":"InvalidMerkleRoot","inputs":[]},{"type":"error","name":"InvalidMinBoostedRewardRate","inputs":[]},{"type":"error","name":"InvalidProof","inputs":[]},{"type":"error","name":"InvalidPubKeyLength","inputs":[]},{"type":"error","name":"InvalidRewardAllocationWeights","inputs":[]},{"type":"error","name":"InvalidRewardClaimDelay","inputs":[]},{"type":"error","name":"InvalidRewardConvexity","inputs":[]},{"type":"error","name":"InvalidRewardRate","inputs":[]},{"type":"error","name":"InvalidSignatureLength","inputs":[]},{"type":"error","name":"InvalidStartBlock","inputs":[]},{"type":"error","name":"InvalidToken","inputs":[]},{"type":"error","name":"InvalidWeight","inputs":[]},{"type":"error","name":"InvalidateDefaultRewardAllocation","inputs":[]},{"type":"error","name":"InvariantCheckFailed","inputs":[]},{"type":"error","name":"MaxNumWeightsPerRewardAllocationIsZero","inputs":[]},{"type":"error","name":"MinIncentiveRateIsZero","inputs":[]},{"type":"error","name":"NotAContract","inputs":[]},{"type":"error","name":"NotApprovedSender","inputs":[]},{"type":"error","name":"NotBGT","inputs":[]},{"type":"error","name":"NotBlockRewardController","inputs":[]},{"type":"error","name":"NotDelegate","inputs":[]},{"type":"error","name":"NotDistributor","inputs":[]},{"type":"error","name":"NotEnoughBalance","inputs":[]},{"type":"error","name":"NotEnoughBoostedBalance","inputs":[]},{"type":"error","name":"NotEnoughTime","inputs":[]},{"type":"error","name":"NotFactoryVault","inputs":[]},{"type":"error","name":"NotFeeCollector","inputs":[]},{"type":"error","name":"NotIncentiveManager","inputs":[]},{"type":"error","name":"NotInitializing","inputs":[]},{"type":"error","name":"NotNewOperator","inputs":[]},{"type":"error","name":"NotOperator","inputs":[]},{"type":"error","name":"NotWhitelistedVault","inputs":[]},{"type":"error","name":"OperatorAlreadySet","inputs":[]},{"type":"error","name":"OwnableUnauthorizedAccount","inputs":[{"name":"account","type":"address","internalType":"address"}]},{"type":"error","name":"PayoutAmountIsZero","inputs":[]},{"type":"error","name":"ReentrancyGuardReentrantCall","inputs":[]},{"type":"error","name":"RewardAllocationAlreadyQueued","inputs":[]},{"type":"error","name":"RewardAllocationBlockDelayTooLarge","inputs":[]},{"type":"error","name":"RewardCycleNotEnded","inputs":[]},{"type":"error","name":"RewardInactive","inputs":[]},{"type":"error","name":"RewardsDurationIsZero","inputs":[]},{"type":"error","name":"SafeERC20FailedOperation","inputs":[{"name":"token","type":"address","internalType":"address"}]},{"type":"error","name":"StakeAmountIsZero","inputs":[]},{"type":"error","name":"TimestampAlreadyProcessed","inputs":[]},{"type":"error","name":"TokenAlreadyWhitelistedOrLimitReached","inputs":[]},{"type":"error","name":"TokenNotWhitelisted","inputs":[]},{"type":"error","name":"TooManyWeights","inputs":[]},{"type":"error","name":"TotalSupplyOverflow","inputs":[]},{"type":"error","name":"WithdrawAmountIsZero","inputs":[]},{"type":"error","name":"ZeroAddress","inputs":[]},{"type":"error","name":"ZeroOperatorOnFirstDeposit","inputs":[]},{"type":"error","name":"ZeroPercentageWeight","inputs":[]}],"bytecode":{"object":"0x6080604052348015600e575f80fd5b5060156019565b60c9565b7ff0c57e16840df040f15088dc2f81fe391c3923bec73e23a9662efc9c229c6a00805468010000000000000000900460ff161560685760405163f92ee8a960e01b815260040160405180910390fd5b80546001600160401b039081161460c65780546001600160401b0319166001600160401b0390811782556040519081527fc7f505b2f371ae2175ee4913f4499e1f2633a7b5936321eed1cdaeb6115181d29060200160405180910390a15b50565b613c46806100d65f395ff3fe608060405234801561000f575f80fd5b506004361061032f575f3560e01c80638456cb59116101b3578063c45a0155116100f3578063e26f79001161009e578063eafe0f4c11610079578063eafe0f4c1461083f578063ebe2b12b1461085f578063f7c618c114610868578063f8c8765e14610888575f80fd5b8063e26f790014610804578063e434eee014610819578063e7d379a91461082c575f80fd5b8063cd3daf9d116100ce578063cd3daf9d146107e0578063cfbde346146107e8578063df136d65146107fb575f80fd5b8063c45a015514610787578063c8f33c91146107c4578063cc1a378f146107cd575f80fd5b80639cd3f3841161015e578063b3ab15fb11610139578063b3ab15fb14610729578063b42652e91461073c578063b42f60db1461074f578063bfe1092814610762575f80fd5b80639cd3f384146106d9578063a4dbda3c146106e1578063a694fc3a14610716575f80fd5b80638eb3f35c1161018e5780638eb3f35c146106455780638f650f9c146106585780639a307391146106a1575f80fd5b80638456cb59146105f25780638980f11f146105fa5780638b8763471461060d575f80fd5b8063433e8e411161027e57806367df5e011161022957806375619ab51161020457806375619ab51461054e578063774e900b146105615780637b0a47ee146105e157806380faa57d146105ea575f80fd5b806367df5e01146104e75780636b0916951461050657806370a0823114610519575f80fd5b806354659b941161025957806354659b94146104975780635820bee0146104aa5780635c975abb146104bd575f80fd5b8063433e8e411461045257806351ed6a30146104655780635281244f14610484575f80fd5b80632154bc44116102de578063386a9525116102b9578063386a95251461042e5780633c323a1b146104375780633f4ba83a1461044a575f80fd5b80632154bc44146103da5780632e1a7d4d14610412578063319ce2bb14610425575f80fd5b8063166496181161030e57806316649618146103b457806318160ddd146103c95780631c1f78eb146103d2575f80fd5b80628cc262146103335780630700037d14610359578063078f7fd314610391575b5f80fd5b6103466103413660046137bf565b61089b565b6040519081526020015b60405180910390f35b6103466103673660046137bf565b73ffffffffffffffffffffffffffffffffffffffff165f9081526009602052604090206001015490565b6103a461039f3660046137bf565b610900565b6040519015158152602001610350565b6103c76103c23660046137da565b6109e2565b005b61034660055481565b610346610bf8565b6103ed6103e8366004613819565b610c15565b60405173ffffffffffffffffffffffffffffffffffffffff9091168152602001610350565b6103c7610420366004613819565b610c4a565b61034660035481565b61034660075481565b6103c7610445366004613830565b610c96565b6103c7610d98565b6103a46104603660046137bf565b610daa565b5f546103ed9073ffffffffffffffffffffffffffffffffffffffff1681565b6103c7610492366004613830565b610df3565b6103c76104a536600461385a565b610f18565b6103c76104b8366004613830565b610fbd565b7fcd5ed15c6e187e77e9aee88184c21f4f2182ab5827cb3b7e07fbedcd63f033005460ff166103a4565b603c546104f49060ff1681565b60405160ff9091168152602001610350565b61034661051436600461387a565b611225565b6103466105273660046137bf565b73ffffffffffffffffffffffffffffffffffffffff165f9081526009602052604090205490565b6103c761055c3660046137bf565b6112de565b6105ab61056f3660046137bf565b604060208190525f91825290208054600182015460028301546003909301549192909173ffffffffffffffffffffffffffffffffffffffff1684565b6040805194855260208501939093529183015273ffffffffffffffffffffffffffffffffffffffff166060820152608001610350565b61034660025481565b61034661139f565b6103c76113b2565b6103c7610608366004613830565b6113c2565b61034661061b3660046137bf565b73ffffffffffffffffffffffffffffffffffffffff165f9081526009602052604090206002015490565b6103c761065336600461387a565b6114dd565b61034661066636600461387a565b73ffffffffffffffffffffffffffffffffffffffff9182165f908152603e602090815260408083209390941682526001909201909152205490565b6103ed6106af3660046137bf565b73ffffffffffffffffffffffffffffffffffffffff9081165f908152603f60205260409020541690565b604154610346565b6103466106ef3660046137bf565b73ffffffffffffffffffffffffffffffffffffffff165f908152603e602052604090205490565b6103c7610724366004613819565b61161a565b6103c76107373660046137bf565b61165d565b6103c761074a3660046137bf565b6116e1565b6103c761075d3660046138b1565b611723565b603c546103ed90610100900473ffffffffffffffffffffffffffffffffffffffff1681565b7f4e32a932fdd4658a66f9586d8955a0d0a795a01bd8251335b4fae29d972acc005473ffffffffffffffffffffffffffffffffffffffff166103ed565b61034660085481565b6103c76107db366004613819565b6119a5565b6103466119b6565b6103a46107f63660046137bf565b6119ff565b61034660045481565b61080c611a48565b60405161035091906138e3565b6103c761082736600461393b565b611ab5565b6103c761083a3660046137bf565b611b16565b603d546103ed9073ffffffffffffffffffffffffffffffffffffffff1681565b61034660065481565b6001546103ed9073ffffffffffffffffffffffffffffffffffffffff1681565b6103c76108963660046139ad565b611c1f565b73ffffffffffffffffffffffffffffffffffffffff81165f90815260096020526040812080546001820154600283015484816108d56119b6565b0390506108eb8482670de0b6b3a7640000611e8c565b6108f59084613a33565b979650505050505050565b7f4e32a932fdd4658a66f9586d8955a0d0a795a01bd8251335b4fae29d972acc0080545f919073ffffffffffffffffffffffffffffffffffffffff166391d14854610949611f39565b6040517fffffffff0000000000000000000000000000000000000000000000000000000060e084901b168152600481019190915273ffffffffffffffffffffffffffffffffffffffff86166024820152604401602060405180830381865afa1580156109b7573d5f803e3d5ffd5b505050506040513d601f19601f820116820180604052508101906109db9190613a46565b9392505050565b6109ea611ff1565b815f03610a1a57610a1a7f0b5c3aff00000000000000000000000000000000000000000000000000000000612028565b6ec097ce7bc90715b34b9f1000000000821115610a5a57610a5a7f38432c8900000000000000000000000000000000000000000000000000000000612028565b73ffffffffffffffffffffffffffffffffffffffff83161580610a91575073ffffffffffffffffffffffffffffffffffffffff8116155b15610abf57610abf7fd92e233d00000000000000000000000000000000000000000000000000000000612028565b73ffffffffffffffffffffffffffffffffffffffff83165f908152604060208190529020603c5460415460ff9091161480610afa5750805415155b15610b2857610b287ffbf97e0700000000000000000000000000000000000000000000000000000000612028565b60418054600180820183555f929092527f7c9785e8241615bc80415d89775984a1337d15dc1bf4ce50f41988b2a2b336a70180547fffffffffffffffffffffffff000000000000000000000000000000000000000090811673ffffffffffffffffffffffffffffffffffffffff88811691821790935592840186905585845560038401805490911691851691821790556040805186815260208101929092527fc672b9cba50e3745edbd6cfb6512bc2165f66d47f686401223bc515cc933d9e0910160405180910390a250505050565b5f610c10600254600754670de0b6b3a7640000611e8c565b905090565b60418181548110610c24575f80fd5b5f9182526020909120015473ffffffffffffffffffffffffffffffffffffffff16905081565b610c52612030565b3381610c5e82826120b1565b610c683384612114565b5050610c9360017f9b779b17422d0df92223018b32b4d1fa46e071723d6817e2486d003becc55f0055565b50565b610c9e612030565b610ca6612269565b73ffffffffffffffffffffffffffffffffffffffff82163303610cec57610cec7f1db3b85900000000000000000000000000000000000000000000000000000000612028565b610cf682826122c5565b73ffffffffffffffffffffffffffffffffffffffff82165f818152603e60209081526040808320805486018155338085526001909101835292819020805486019055518481529192917f5d84fd7efe2fd5203970924007f1f56ec874f1fdbe6acec5f208000a72c7045691015b60405180910390a3610d9460017f9b779b17422d0df92223018b32b4d1fa46e071723d6817e2486d003becc55f0055565b5050565b610da06123d2565b610da86123db565b565b7f4e32a932fdd4658a66f9586d8955a0d0a795a01bd8251335b4fae29d972acc0080545f919073ffffffffffffffffffffffffffffffffffffffff166391d14854610949612472565b610dfb612030565b73ffffffffffffffffffffffffffffffffffffffff82163303610e4157610e417f1db3b85900000000000000000000000000000000000000000000000000000000612028565b73ffffffffffffffffffffffffffffffffffffffff82165f908152603e60209081526040808320338452600181019092529091205482811015610ea757610ea77f8d1473a600000000000000000000000000000000000000000000000000000000612028565b335f908152600183016020526040902090839003905580548290039055610ece8282612114565b604051818152339073ffffffffffffffffffffffffffffffffffffffff8416907fb1296e59c4148d97ce0bf24c50bb4bd58367005c1871eef38c03187f3cff850490602001610d63565b610f20611ff1565b60415460ff82161015610f5657610f567ffbf1123c00000000000000000000000000000000000000000000000000000000612028565b603c80547fffffffffffffffffffffffffffffffffffffffffffffffffffffffffffffff001660ff83169081179091556040519081527f8d31d8a650a75f6978e9d7331686f948e5fddeaa4940eddb941d4129459d8bf3906020015b60405180910390a150565b610fc5612030565b73ffffffffffffffffffffffffffffffffffffffff82165f9081526040602081905281205483910361101a5761101a7ff84835a000000000000000000000000000000000000000000000000000000000612028565b73ffffffffffffffffffffffffffffffffffffffff8084165f9081526040602081905290208054600182015460028301546003840154939492939192909116338114611089576110897f5ee4de0e00000000000000000000000000000000000000000000000000000000612028565b838710156110ba576110ba7fad57d95d00000000000000000000000000000000000000000000000000000000612028565b6040517f70a082310000000000000000000000000000000000000000000000000000000081523060048201525f9073ffffffffffffffffffffffffffffffffffffffff8a16906370a0823190602401602060405180830381865afa158015611124573d5f803e3d5ffd5b505050506040513d601f19601f820116820180604052508101906111489190613a65565b90506111548382613a7c565b881115611184576111847fad3a8b9e00000000000000000000000000000000000000000000000000000000612028565b87866002015f8282546111979190613a33565b909155505060408051338152602081018a905290810185905273ffffffffffffffffffffffffffffffffffffffff8a16907f8bf110a87db594cedb42356a9ca4b64a0d26fb09909292e842c614823e41d3379060600160405180910390a250505050505050610d9460017f9b779b17422d0df92223018b32b4d1fa46e071723d6817e2486d003becc55f0055565b5f61122e612030565b823373ffffffffffffffffffffffffffffffffffffffff8216146112a25773ffffffffffffffffffffffffffffffffffffffff8181165f908152603f60205260409020541633146112a2576112a27f7c214f0400000000000000000000000000000000000000000000000000000000612028565b6112ac8484612500565b9150506112d860017f9b779b17422d0df92223018b32b4d1fa46e071723d6817e2486d003becc55f0055565b92915050565b6112e6611ff1565b73ffffffffffffffffffffffffffffffffffffffff811661132a5761132a7fd92e233d00000000000000000000000000000000000000000000000000000000612028565b603c80547fffffffffffffffffffffff0000000000000000000000000000000000000000ff1661010073ffffffffffffffffffffffffffffffffffffffff8416908102919091179091556040517f86719c518c7d99ac94b3d405d462ea876ba5cd0a978461dc9a7c9862a9485886905f90a250565b5f610c1042600654808218908211021890565b6113ba6125a7565b610da86125b0565b6113ca611ff1565b5f5473ffffffffffffffffffffffffffffffffffffffff90811690831603611415576114157f1b81380300000000000000000000000000000000000000000000000000000000612028565b73ffffffffffffffffffffffffffffffffffffffff82165f9081526040602081905290205415611468576114687f2899103f00000000000000000000000000000000000000000000000000000000612028565b61148973ffffffffffffffffffffffffffffffffffffffff83163383612629565b6040805173ffffffffffffffffffffffffffffffffffffffff84168152602081018390527f8c1256b8896378cd5044f80c202f9772b9d77dc85c8a6eb51967210b09bfaa2891015b60405180910390a15050565b6114e5611ff1565b73ffffffffffffffffffffffffffffffffffffffff82165f9081526040602081905281205483910361153a5761153a7ff84835a000000000000000000000000000000000000000000000000000000000612028565b73ffffffffffffffffffffffffffffffffffffffff821661157e5761157e7fd92e233d00000000000000000000000000000000000000000000000000000000612028565b73ffffffffffffffffffffffffffffffffffffffff8381165f81815260406020818152918190206003810180548887167fffffffffffffffffffffffff0000000000000000000000000000000000000000821681179092558351918252909516928501839052939192917fde0b08e9133c988b532b66a2067bcb23214f588d9d4f4e2dd869bc7ddf16ee11910160405180910390a25050505050565b611622612030565b61162a612269565b61163433826122c5565b610c9360017f9b779b17422d0df92223018b32b4d1fa46e071723d6817e2486d003becc55f0055565b335f818152603f602090815260409182902080547fffffffffffffffffffffffff00000000000000000000000000000000000000001673ffffffffffffffffffffffffffffffffffffffff86169081179091558251938452908301527ffd489696792cc4c5d5b226c46f008e459c8ec9b746c49191d74bb92c19fd18679101610fb2565b6116e9612030565b335f908152603e6020908152604080832054600990925282205461170d9190613a7c565b90506117193382612114565b610c683383612500565b61172b612030565b73ffffffffffffffffffffffffffffffffffffffff83165f90815260406020819052812054849103611780576117807ff84835a000000000000000000000000000000000000000000000000000000000612028565b6ec097ce7bc90715b34b9f10000000008211156117c0576117c07f38432c8900000000000000000000000000000000000000000000000000000000612028565b73ffffffffffffffffffffffffffffffffffffffff8085165f908152604060208190529020805460018201546002830154600384015493949293919290911633811461182f5761182f7f5ee4de0e00000000000000000000000000000000000000000000000000000000612028565b83881015611860576118607fad57d95d00000000000000000000000000000000000000000000000000000000612028565b83871015611891576118917f451fa03600000000000000000000000000000000000000000000000000000000612028565b6118b373ffffffffffffffffffffffffffffffffffffffff8a1633308b6126aa565b6118bd8883613a33565b60028601555f8290036118d65760018501879055611912565b8287106118e95760018501879055611912565b6119127f451fa03600000000000000000000000000000000000000000000000000000000612028565b600185015460408051338152602081018b90529081019190915273ffffffffffffffffffffffffffffffffffffffff8a16907f8bf110a87db594cedb42356a9ca4b64a0d26fb09909292e842c614823e41d3379060600160405180910390a25050505050506119a060017f9b779b17422d0df92223018b32b4d1fa46e071723d6817e2486d003becc55f0055565b505050565b6119ad611ff1565b610c93816126f6565b6005545f908082036119ca57505060045490565b5f6008546119d661139f565b0390505f6119e76002548385611e8c565b9050806004546119f79190613a33565b935050505090565b7f4e32a932fdd4658a66f9586d8955a0d0a795a01bd8251335b4fae29d972acc0080545f919073ffffffffffffffffffffffffffffffffffffffff166391d1485461094961275b565b60606041805480602002602001604051908101604052809291908181526020018280548015611aab57602002820191905f5260205f20905b815473ffffffffffffffffffffffffffffffffffffffff168152600190910190602001808311611a80575b5050505050905090565b603c54610100900473ffffffffffffffffffffffffffffffffffffffff163314611b0257611b027f385296d500000000000000000000000000000000000000000000000000000000612028565b611b0b816127e9565b6119a0838383612898565b611b1e6123d2565b73ffffffffffffffffffffffffffffffffffffffff81165f90815260406020819052812054829103611b7357611b737ff84835a000000000000000000000000000000000000000000000000000000000612028565b73ffffffffffffffffffffffffffffffffffffffff82165f90815260406020819052812081815560018101829055600281019190915560030180547fffffffffffffffffffffffff0000000000000000000000000000000000000000169055611bdb8261308d565b60405173ffffffffffffffffffffffffffffffffffffffff8316907f65ff9187746d336179f23ad14746fa804e31bac422ef2dd63b9dc97313caa797905f90a25050565b5f611c286131e0565b805490915060ff68010000000000000000820416159067ffffffffffffffff165f81158015611c545750825b90505f8267ffffffffffffffff166001148015611c705750303b155b905081158015611c7e575080155b15611cb5576040517ff92ee8a900000000000000000000000000000000000000000000000000000000815260040160405180910390fd5b84547fffffffffffffffffffffffffffffffffffffffffffffffff00000000000000001660011785558315611d165784547fffffffffffffffffffffffffffffffffffffffffffffff00ffffffffffffffff16680100000000000000001785555b611d1f33613208565b611d27613272565b611d2f61327a565b611d3d86896203f48061328a565b603c805473ffffffffffffffffffffffffffffffffffffffff808a1661010081027fffffffffffffffffffffff00000000000000000000000000000000000000000090931692909217600317909255603d8054928c167fffffffffffffffffffffffff0000000000000000000000000000000000000000909316929092179091556040517f86719c518c7d99ac94b3d405d462ea876ba5cd0a978461dc9a7c9862a9485886905f90a2603c5460405160ff90911681527f8d31d8a650a75f6978e9d7331686f948e5fddeaa4940eddb941d4129459d8bf39060200160405180910390a18315611e815784547fffffffffffffffffffffffffffffffffffffffffffffff00ffffffffffffffff168555604051600181527fc7f505b2f371ae2175ee4913f4499e1f2633a7b5936321eed1cdaeb6115181d29060200160405180910390a15b505050505050505050565b82820281838583041485151702611f32577fffffffffffffffffffffffffffffffffffffffffffffffffffffffffffffffff8385098181108201900382848609835f038416828511611ee55763ae47f7025f526004601cfd5b93849004938382119092035f8390038390046001010292030417600260038302811880840282030280840282030280840282030280840282030280840282030280840290910302026109db565b0492915050565b7f4e32a932fdd4658a66f9586d8955a0d0a795a01bd8251335b4fae29d972acc008054604080517fc209bca200000000000000000000000000000000000000000000000000000000815290515f939273ffffffffffffffffffffffffffffffffffffffff169163c209bca29160048083019260209291908290030181865afa158015611fc7573d5f803e3d5ffd5b505050506040513d601f19601f82011682018060405250810190611feb9190613a65565b91505090565b611ffa33610daa565b610da857610da87f118cdaa700000000000000000000000000000000000000000000000000000000336132eb565b805f5260045ffd5b7f9b779b17422d0df92223018b32b4d1fa46e071723d6817e2486d003becc55f0080547ffffffffffffffffffffffffffffffffffffffffffffffffffffffffffffffffe016120ab576040517f3ee5aeb500000000000000000000000000000000000000000000000000000000815260040160405180910390fd5b60029055565b73ffffffffffffffffffffffffffffffffffffffff82165f908152603e602090815260408083205460099092529091205403818110156119a0576119a07f08e88f4600000000000000000000000000000000000000000000000000000000612028565b805f03612144576121447fa393d14b00000000000000000000000000000000000000000000000000000000612028565b61214d826132f7565b73ffffffffffffffffffffffffffffffffffffffff82165f9081526009602052604090208054828110156121a4576121a47ff1bc94d200000000000000000000000000000000000000000000000000000000612028565b829003905560058054828103909155811480156121c2575060065442105b156121e5576121cf61336a565b60035f8282546121df9190613a33565b90915550505b6121ef3382613381565b8173ffffffffffffffffffffffffffffffffffffffff167f7084f5476618d8e60b11ef0d7d3f06914655adb8793e28ff7f018d4c76d505d58260405161223791815260200190565b60405180910390a25050565b60017f9b779b17422d0df92223018b32b4d1fa46e071723d6817e2486d003becc55f0055565b7fcd5ed15c6e187e77e9aee88184c21f4f2182ab5827cb3b7e07fbedcd63f033005460ff1615610da8576040517fd93c066500000000000000000000000000000000000000000000000000000000815260040160405180910390fd5b805f036122f5576122f57f5ce91fd000000000000000000000000000000000000000000000000000000000612028565b60055415801561230657505f600354115b15612313576123136133a4565b61231c826132f7565b600554818101818111612352576123527fe5cfe95700000000000000000000000000000000000000000000000000000000612028565b6005555073ffffffffffffffffffffffffffffffffffffffff82165f90815260096020526040902080548201905561238a33826133ee565b8173ffffffffffffffffffffffffffffffffffffffff167f9e71bc8eea02a63969f509818f2dafb9254532904319f9dbda79b67bd34a5f3d8260405161223791815260200190565b611ffa336119ff565b6123e3613412565b7fcd5ed15c6e187e77e9aee88184c21f4f2182ab5827cb3b7e07fbedcd63f0330080547fffffffffffffffffffffffffffffffffffffffffffffffffffffffffffffff001681557f5db9ee0a495bf2e6ff9c91a7834c1ba4fdd244a5e8aa4e537bd38aeae4b073aa335b60405173ffffffffffffffffffffffffffffffffffffffff9091168152602001610fb2565b7f4e32a932fdd4658a66f9586d8955a0d0a795a01bd8251335b4fae29d972acc008054604080517fa217fddf00000000000000000000000000000000000000000000000000000000815290515f939273ffffffffffffffffffffffffffffffffffffffff169163a217fddf9160048083019260209291908290030181865afa158015611fc7573d5f803e3d5ffd5b5f8261250b816132f7565b73ffffffffffffffffffffffffffffffffffffffff84165f9081526009602052604090206001810154801561259e575f600183015561254a858261346d565b6040805173ffffffffffffffffffffffffffffffffffffffff8781168252602082018490528816917f540798df468d7b23d11f156fdb954cb19ad414d150722a7b6d55ba369dea792e910160405180910390a25b95945050505050565b611ffa33610900565b6125b8612269565b7fcd5ed15c6e187e77e9aee88184c21f4f2182ab5827cb3b7e07fbedcd63f0330080547fffffffffffffffffffffffffffffffffffffffffffffffffffffffffffffff001660011781557f62e78cea01bee320cd4e420270b5ea74000d11b0c9f74754ebdbfc544b05a2583361244d565b60405173ffffffffffffffffffffffffffffffffffffffff8381166024830152604482018390526119a091859182169063a9059cbb906064015b604051602081830303815290604052915060e01b6020820180517bffffffffffffffffffffffffffffffffffffffffffffffffffffffff838183161783525050505061349e565b60405173ffffffffffffffffffffffffffffffffffffffff84811660248301528381166044830152606482018390526126f09186918216906323b872dd90608401612663565b50505050565b805f03612726576127267f359f174d00000000000000000000000000000000000000000000000000000000612028565b60078190556040518181527ffb46ca5a5e06d4540d6387b930a7c978bce0db5f449ec6b3f5d07c6e1d44f2d390602001610fb2565b7f4e32a932fdd4658a66f9586d8955a0d0a795a01bd8251335b4fae29d972acc008054604080517f5e5a24a400000000000000000000000000000000000000000000000000000000815290515f939273ffffffffffffffffffffffffffffffffffffffff1691635e5a24a49160048083019260209291908290030181865afa158015611fc7573d5f803e3d5ffd5b5f6127f3816132f7565b612805670de0b6b3a764000083613a8f565b91506005545f1415801561281a575060065442105b156128345761282761336a565b6128319083613a33565b91505b8160035f8282546128459190613a33565b909155506128539050613541565b60055415612868576128636133a4565b426008555b6040518281527fde88a922e0d3b88b24e9623efeb464919c6bf9f66857a65e2bfcf2ce87a9433d906020016114d1565b603d546040517f9eaffa960000000000000000000000000000000000000000000000000000000081525f9173ffffffffffffffffffffffffffffffffffffffff1690639eaffa96906128f09087908790600401613aed565b602060405180830381865afa15801561290b573d5f803e3d5ffd5b505050506040513d601f19601f8201168201806040525081019061292f9190613b08565b90505f603c60019054906101000a900473ffffffffffffffffffffffffffffffffffffffff1673ffffffffffffffffffffffffffffffffffffffff166357c609516040518163ffffffff1660e01b8152600401602060405180830381865afa15801561299d573d5f803e3d5ffd5b505050506040513d601f19601f820116820180604052508101906129c19190613b08565b90505f6129cc61362a565b6041549091505f5b81811015613083575f604182815481106129f0576129f0613b23565b5f91825260208083209091015473ffffffffffffffffffffffffffffffffffffffff1680835260409182905290822060018101549193509190612a3d908a90670de0b6b3a76400006136dc565b600283015490915080821182821802821891505f8215612adb578873ffffffffffffffffffffffffffffffffffffffff16633909cbd58e8e866040518463ffffffff1660e01b8152600401612a9493929190613b50565b602060405180830381865afa158015612aaf573d5f803e3d5ffd5b505050506040513d601f19601f82011682018060405250810190612ad39190613a65565b905080830392505b8015612be6575f612b0373ffffffffffffffffffffffffffffffffffffffff87168c846136fa565b90508015612b7c5781830392508573ffffffffffffffffffffffffffffffffffffffff168e8e604051612b37929190613b73565b604080519182900382208f835260208301869052917f5468188b6036c5311a3f18fc548c42ccb48a0cdcb9d339e0b2ba38aed4fae36d910160405180910390a3612be4565b8573ffffffffffffffffffffffffffffffffffffffff168e8e604051612ba3929190613b73565b604080519182900382208f835260208301869052917f9fec1510965fae0a926a8da7b5b8e957ae07d25d78381996f031cecc116ed99d910160405180910390a35b505b821561306f5760405173ffffffffffffffffffffffffffffffffffffffff89166024820152604481018490525f90606401604080517fffffffffffffffffffffffffffffffffffffffffffffffffffffffffffffffe08184030181529181526020820180517bffffffffffffffffffffffffffffffffffffffffffffffffffffffff167f095ea7b300000000000000000000000000000000000000000000000000000000179052519091505f9073ffffffffffffffffffffffffffffffffffffffff8816906207a12090612cbb908590613b82565b5f604051808303815f8787f1925050503d805f8114612cf5576040519150601f19603f3d011682016040523d82523d5f602084013e612cfa565b606091505b505090508015612ffa578e8e8887604051602401612d1b9493929190613b98565b604080517fffffffffffffffffffffffffffffffffffffffffffffffffffffffffffffffe08184030181529181526020820180517bffffffffffffffffffffffffffffffffffffffffffffffffffffffff167fe6f4626f000000000000000000000000000000000000000000000000000000001790525190925073ffffffffffffffffffffffffffffffffffffffff8b16906207a12090612dbd908590613b82565b5f604051808303815f8787f1925050503d805f8114612df7576040519150601f19603f3d011682016040523d82523d5f602084013e612dfc565b606091505b50909150508015612e825784840393508673ffffffffffffffffffffffffffffffffffffffff168f8f604051612e33929190613b73565b60405180910390207f447452569a869245fac1955d7c6c762fbd3b4ad4c1695b1b0f1cc5985958a2718f88604051612e75929190918252602082015260400190565b60405180910390a361306c565b60405173ffffffffffffffffffffffffffffffffffffffff8b1660248201525f6044820152606401604080517fffffffffffffffffffffffffffffffffffffffffffffffffffffffffffffffe08184030181529181526020820180517bffffffffffffffffffffffffffffffffffffffffffffffffffffffff167f095ea7b3000000000000000000000000000000000000000000000000000000001790525190925073ffffffffffffffffffffffffffffffffffffffff8816906207a12090612f4c908590613b82565b5f604051808303815f8787f1925050503d805f8114612f86576040519150601f19603f3d011682016040523d82523d5f602084013e612f8b565b606091505b5050809150508673ffffffffffffffffffffffffffffffffffffffff168f8f604051612fb8929190613b73565b60405180910390207fbf3ad91545f13a6d49740541527d53e26f9af2968e6037bc8e048203e5083ab68f88604051612e75929190918252602082015260400190565b8673ffffffffffffffffffffffffffffffffffffffff168f8f604051613021929190613b73565b60405180910390207fbf3ad91545f13a6d49740541527d53e26f9af2968e6037bc8e048203e5083ab68f88604051613063929190918252602082015260400190565b60405180910390a35b50505b5060029092019190915550506001016129d4565b5050505050505050565b6041545f5b818110156119a057604181815481106130ad576130ad613b23565b5f9182526020909120015473ffffffffffffffffffffffffffffffffffffffff908116908416036131d857604160018303815481106130ee576130ee613b23565b5f918252602090912001546041805473ffffffffffffffffffffffffffffffffffffffff909216918390811061312657613126613b23565b905f5260205f20015f6101000a81548173ffffffffffffffffffffffffffffffffffffffff021916908373ffffffffffffffffffffffffffffffffffffffff160217905550604180548061317c5761317c613bd4565b5f8281526020902081017fffffffffffffffffffffffffffffffffffffffffffffffffffffffffffffffff90810180547fffffffffffffffffffffffff0000000000000000000000000000000000000000169055019055505050565b600101613092565b5f807ff0c57e16840df040f15088dc2f81fe391c3923bec73e23a9662efc9c229c6a006112d8565b61321061373a565b7f4e32a932fdd4658a66f9586d8955a0d0a795a01bd8251335b4fae29d972acc0080547fffffffffffffffffffffffff00000000000000000000000000000000000000001673ffffffffffffffffffffffffffffffffffffffff831617905550565b610da861373a565b61328261373a565b610da8613778565b61329261373a565b5f805473ffffffffffffffffffffffffffffffffffffffff9485167fffffffffffffffffffffffff0000000000000000000000000000000000000000918216179091556001805493909416921691909117909155600755565b815f528060045260245ffd5b5f6133006119b6565b6004819055905061330f61139f565b60085573ffffffffffffffffffffffffffffffffffffffff821615610d945773ffffffffffffffffffffffffffffffffffffffff82165f90815260096020526040902061335b8361089b565b60028201929092556001015550565b5f804260065403905080600254611feb9190613a8f565b5f54610d949073ffffffffffffffffffffffffffffffffffffffff168383612629565b6007546003545f906133b7908390613c01565b600281905590506133c88242613a33565b6006556133d58282613a8f565b60035f8282546133e59190613a7c565b90915550505050565b5f54610d949073ffffffffffffffffffffffffffffffffffffffff168330846126aa565b7fcd5ed15c6e187e77e9aee88184c21f4f2182ab5827cb3b7e07fbedcd63f033005460ff16610da8576040517f8dfc202b00000000000000000000000000000000000000000000000000000000815260040160405180910390fd5b603c54600154610d949173ffffffffffffffffffffffffffffffffffffffff918216916101009091041684846126aa565b5f8060205f8451602086015f885af1806134bd576040513d5f823e3d81fd5b50505f513d915081156134d45780600114156134ee565b73ffffffffffffffffffffffffffffffffffffffff84163b155b156126f0576040517f5274afe700000000000000000000000000000000000000000000000000000000815273ffffffffffffffffffffffffffffffffffffffff8516600482015260240160405180910390fd5b600154603c546040517fdd62ed3e00000000000000000000000000000000000000000000000000000000815261010090910473ffffffffffffffffffffffffffffffffffffffff90811660048301523060248301525f92169063dd62ed3e90604401602060405180830381865afa1580156135be573d5f803e3d5ffd5b505050506040513d601f19601f820116820180604052508101906135e29190613a65565b905080670de0b6b3a76400006003546135fb9190613c01565b1115610c9357610c937ff4ba521f00000000000000000000000000000000000000000000000000000000612028565b7f4e32a932fdd4658a66f9586d8955a0d0a795a01bd8251335b4fae29d972acc008054604080517f6cb9f23000000000000000000000000000000000000000000000000000000000815290515f939273ffffffffffffffffffffffffffffffffffffffff1691636cb9f2309160048083019260209291908290030181865afa1580156136b8573d5f803e3d5ffd5b505050506040513d601f19601f82011682018060405250810190611feb9190613b08565b82820283158482048414178202611f325763ad251c275f526004601cfd5b5f82601452816034526fa9059cbb0000000000000000000000005f5260205f604460105f886207a120f13d1560015f5114171690505f6034529392505050565b613742613780565b610da8576040517fd7e6bcf800000000000000000000000000000000000000000000000000000000815260040160405180910390fd5b61224361373a565b5f6137896131e0565b5468010000000000000000900460ff16919050565b73ffffffffffffffffffffffffffffffffffffffff81168114610c93575f80fd5b5f602082840312156137cf575f80fd5b81356109db8161379e565b5f805f606084860312156137ec575f80fd5b83356137f78161379e565b925060208401359150604084013561380e8161379e565b809150509250925092565b5f60208284031215613829575f80fd5b5035919050565b5f8060408385031215613841575f80fd5b823561384c8161379e565b946020939093013593505050565b5f6020828403121561386a575f80fd5b813560ff811681146109db575f80fd5b5f806040838503121561388b575f80fd5b82356138968161379e565b915060208301356138a68161379e565b809150509250929050565b5f805f606084860312156138c3575f80fd5b83356138ce8161379e565b95602085013595506040909401359392505050565b602080825282518282018190525f918401906040840190835b8181101561393057835173ffffffffffffffffffffffffffffffffffffffff168352602093840193909201916001016138fc565b509095945050505050565b5f805f6040848603121561394d575f80fd5b833567ffffffffffffffff811115613963575f80fd5b8401601f81018613613973575f80fd5b803567ffffffffffffffff811115613989575f80fd5b86602082840101111561399a575f80fd5b6020918201979096509401359392505050565b5f805f80608085870312156139c0575f80fd5b84356139cb8161379e565b935060208501356139db8161379e565b925060408501356139eb8161379e565b915060608501356139fb8161379e565b939692955090935050565b7f4e487b71000000000000000000000000000000000000000000000000000000005f52601160045260245ffd5b808201808211156112d8576112d8613a06565b5f60208284031215613a56575f80fd5b815180151581146109db575f80fd5b5f60208284031215613a75575f80fd5b5051919050565b818103818111156112d8576112d8613a06565b80820281158282048414176112d8576112d8613a06565b81835281816020850137505f602082840101525f60207fffffffffffffffffffffffffffffffffffffffffffffffffffffffffffffffe0601f840116840101905092915050565b602081525f613b00602083018486613aa6565b949350505050565b5f60208284031215613b18575f80fd5b81516109db8161379e565b7f4e487b71000000000000000000000000000000000000000000000000000000005f52603260045260245ffd5b604081525f613b63604083018587613aa6565b9050826020830152949350505050565b818382375f9101908152919050565b5f82518060208501845e5f920191825250919050565b606081525f613bab606083018688613aa6565b73ffffffffffffffffffffffffffffffffffffffff949094166020830152506040015292915050565b7f4e487b71000000000000000000000000000000000000000000000000000000005f52603160045260245ffd5b5f82613c34577f4e487b71000000000000000000000000000000000000000000000000000000005f52601260045260245ffd5b50049056fea164736f6c634300081a000a","linkReferences":{}},"methodIdentifiers":{"accountIncentives(address,uint256)":"5820bee0","addIncentive(address,uint256,uint256)":"b42f60db","balanceOf(address)":"70a08231","beaconDepositContract()":"eafe0f4c","delegateStake(address,uint256)":"3c323a1b","delegateWithdraw(address,uint256)":"5281244f","distributor()":"bfe10928","earned(address)":"008cc262","exit(address)":"b42652e9","factory()":"c45a0155","getDelegateStake(address,address)":"8f650f9c","getReward(address,address)":"6b091695","getRewardForDuration()":"1c1f78eb","getTotalDelegateStaked(address)":"a4dbda3c","getWhitelistedTokens()":"e26f7900","getWhitelistedTokensCount()":"9cd3f384","incentives(address)":"774e900b","initialize(address,address,address,address)":"f8c8765e","isFactoryOwner(address)":"433e8e41","isFactoryVaultManager(address)":"cfbde346","isFactoryVaultPauser(address)":"078f7fd3","lastTimeRewardApplicable()":"80faa57d","lastUpdateTime()":"c8f33c91","maxIncentiveTokensCount()":"67df5e01","notifyRewardAmount(bytes,uint256)":"e434eee0","operator(address)":"9a307391","pause()":"8456cb59","paused()":"5c975abb","periodFinish()":"ebe2b12b","recoverERC20(address,uint256)":"8980f11f","removeIncentiveToken(address)":"e7d379a9","rewardPerToken()":"cd3daf9d","rewardPerTokenStored()":"df136d65","rewardRate()":"7b0a47ee","rewardToken()":"f7c618c1","rewards(address)":"0700037d","rewardsDuration()":"386a9525","setDistributor(address)":"75619ab5","setMaxIncentiveTokensCount(uint8)":"54659b94","setOperator(address)":"b3ab15fb","setRewardsDuration(uint256)":"cc1a378f","stake(uint256)":"a694fc3a","stakeToken()":"51ed6a30","totalSupply()":"18160ddd","undistributedRewards()":"319ce2bb","unpause()":"3f4ba83a","updateIncentiveManager(address,address)":"8eb3f35c","userRewardPerTokenPaid(address)":"8b876347","whitelistIncentiveToken(address,uint256,address)":"16649618","whitelistedTokens(uint256)":"2154bc44","withdraw(uint256)":"2e1a7d4d"},"storageLayout":{"storage":[{"astId":68988,"contract":"src/pol/rewards/RewardVault.sol:RewardVault","label":"stakeToken","offset":0,"slot":"0","type":"t_contract(IERC20)52070"},{"astId":68992,"contract":"src/pol/rewards/RewardVault.sol:RewardVault","label":"rewardToken","offset":0,"slot":"1","type":"t_contract(IERC20)52070"},{"astId":68995,"contract":"src/pol/rewards/RewardVault.sol:RewardVault","label":"rewardRate","offset":0,"slot":"2","type":"t_uint256"},{"astId":68998,"contract":"src/pol/rewards/RewardVault.sol:RewardVault","label":"undistributedRewards","offset":0,"slot":"3","type":"t_uint256"},{"astId":69001,"contract":"src/pol/rewards/RewardVault.sol:RewardVault","label":"rewardPerTokenStored","offset":0,"slot":"4","type":"t_uint256"},{"astId":69004,"contract":"src/pol/rewards/RewardVault.sol:RewardVault","label":"totalSupply","offset":0,"slot":"5","type":"t_uint256"},{"astId":69007,"contract":"src/pol/rewards/RewardVault.sol:RewardVault","label":"periodFinish","offset":0,"slot":"6","type":"t_uint256"},{"astId":69010,"contract":"src/pol/rewards/RewardVault.sol:RewardVault","label":"rewardsDuration","offset":0,"slot":"7","type":"t_uint256"},{"astId":69013,"contract":"src/pol/rewards/RewardVault.sol:RewardVault","label":"lastUpdateTime","offset":0,"slot":"8","type":"t_uint256"},{"astId":69019,"contract":"src/pol/rewards/RewardVault.sol:RewardVault","label":"_accountInfo","offset":0,"slot":"9","type":"t_mapping(t_address,t_struct(Info)68981_storage)"},{"astId":69024,"contract":"src/pol/rewards/RewardVault.sol:RewardVault","label":"__gap","offset":0,"slot":"10","type":"t_array(t_uint256)50_storage"},{"astId":84503,"contract":"src/pol/rewards/RewardVault.sol:RewardVault","label":"maxIncentiveTokensCount","offset":0,"slot":"60","type":"t_uint8"},{"astId":84506,"contract":"src/pol/rewards/RewardVault.sol:RewardVault","label":"distributor","offset":1,"slot":"60","type":"t_address"},{"astId":84510,"contract":"src/pol/rewards/RewardVault.sol:RewardVault","label":"beaconDepositContract","offset":0,"slot":"61","type":"t_contract(IBeaconDeposit)80682"},{"astId":84515,"contract":"src/pol/rewards/RewardVault.sol:RewardVault","label":"_delegateStake","offset":0,"slot":"62","type":"t_mapping(t_address,t_struct(DelegateStake)84484_storage)"},{"astId":84520,"contract":"src/pol/rewards/RewardVault.sol:RewardVault","label":"_operators","offset":0,"slot":"63","type":"t_mapping(t_address,t_address)"},{"astId":84526,"contract":"src/pol/rewards/RewardVault.sol:RewardVault","label":"incentives","offset":0,"slot":"64","type":"t_mapping(t_address,t_struct(Incentive)84494_storage)"},{"astId":84530,"contract":"src/pol/rewards/RewardVault.sol:RewardVault","label":"whitelistedTokens","offset":0,"slot":"65","type":"t_array(t_address)dyn_storage"}],"types":{"t_address":{"encoding":"inplace","label":"address","numberOfBytes":"20"},"t_array(t_address)dyn_storage":{"encoding":"dynamic_array","label":"address[]","numberOfBytes":"32","base":"t_address"},"t_array(t_uint256)50_storage":{"encoding":"inplace","label":"uint256[50]","numberOfBytes":"1600","base":"t_uint256"},"t_contract(IBeaconDeposit)80682":{"encoding":"inplace","label":"contract IBeaconDeposit","numberOfBytes":"20"},"t_contract(IERC20)52070":{"encoding":"inplace","label":"contract IERC20","numberOfBytes":"20"},"t_mapping(t_address,t_address)":{"encoding":"mapping","key":"t_address","label":"mapping(address => address)","numberOfBytes":"32","value":"t_address"},"t_mapping(t_address,t_struct(DelegateStake)84484_storage)":{"encoding":"mapping","key":"t_address","label":"mapping(address => struct RewardVault.DelegateStake)","numberOfBytes":"32","value":"t_struct(DelegateStake)84484_storage"},"t_mapping(t_address,t_struct(Incentive)84494_storage)":{"encoding":"mapping","key":"t_address","label":"mapping(address => struct RewardVault.Incentive)","numberOfBytes":"32","value":"t_struct(Incentive)84494_storage"},"t_mapping(t_address,t_struct(Info)68981_storage)":{"encoding":"mapping","key":"t_address","label":"mapping(address => struct StakingRewards.Info)","numberOfBytes":"32","value":"t_struct(Info)68981_storage"},"t_mapping(t_address,t_uint256)":{"encoding":"mapping","key":"t_address","label":"mapping(address => uint256)","numberOfBytes":"32","value":"t_uint256"},"t_struct(DelegateStake)84484_storage":{"encoding":"inplace","label":"struct RewardVault.DelegateStake","numberOfBytes":"64","members":[{"astId":84479,"contract":"src/pol/rewards/RewardVault.sol:RewardVault","label":"delegateTotalStaked","offset":0,"slot":"0","type":"t_uint256"},{"astId":84483,"contract":"src/pol/rewards/RewardVault.sol:RewardVault","label":"stakedByDelegate","offset":0,"slot":"1","type":"t_mapping(t_address,t_uint256)"}]},"t_struct(Incentive)84494_storage":{"encoding":"inplace","label":"struct RewardVault.Incentive","numberOfBytes":"128","members":[{"astId":84487,"contract":"src/pol/rewards/RewardVault.sol:RewardVault","label":"minIncentiveRate","offset":0,"slot":"0","type":"t_uint256"},{"astId":84489,"contract":"src/pol/rewards/RewardVault.sol:RewardVault","label":"incentiveRate","offset":0,"slot":"1","type":"t_uint256"},{"astId":84491,"contract":"src/pol/rewards/RewardVault.sol:RewardVault","label":"amountRemaining","offset":0,"slot":"2","type":"t_uint256"},{"astId":84493,"contract":"src/pol/rewards/RewardVault.sol:RewardVault","label":"manager","offset":0,"slot":"3","type":"t_address"}]},"t_struct(Info)68981_storage":{"encoding":"inplace","label":"struct StakingRewards.Info","numberOfBytes":"96","members":[{"astId":68976,"contract":"src/pol/rewards/RewardVault.sol:RewardVault","label":"balance","offset":0,"slot":"0","type":"t_uint256"},{"astId":68978,"contract":"src/pol/rewards/RewardVault.sol:RewardVault","label":"unclaimedReward","offset":0,"slot":"1","type":"t_uint256"},{"astId":68980,"contract":"src/pol/rewards/RewardVault.sol:RewardVault","label":"rewardsPerTokenPaid","offset":0,"slot":"2","type":"t_uint256"}]},"t_uint256":{"encoding":"inplace","label":"uint256","numberOfBytes":"32"},"t_uint8":{"encoding":"inplace","label":"uint8","numberOfBytes":"1"}}},"id":154}