{"abi":[{"type":"constructor","inputs":[],"stateMutability":"nonpayable"},{"type":"function","name":"DEFAULT_ADMIN_ROLE","inputs":[],"outputs":[{"name":"","type":"bytes32","internalType":"bytes32"}],"stateMutability":"view"},{"type":"function","name":"UPGRADE_INTERFACE_VERSION","inputs":[],"outputs":[{"name":"","type":"string","internalType":"string"}],"stateMutability":"view"},{"type":"function","name":"VAULT_MANAGER_ROLE","inputs":[],"outputs":[{"name":"","type":"bytes32","internalType":"bytes32"}],"stateMutability":"view"},{"type":"function","name":"VAULT_PAUSER_ROLE","inputs":[],"outputs":[{"name":"","type":"bytes32","internalType":"bytes32"}],"stateMutability":"view"},{"type":"function","name":"allVaults","inputs":[{"name":"","type":"uint256","internalType":"uint256"}],"outputs":[{"name":"","type":"address","internalType":"address"}],"stateMutability":"view"},{"type":"function","name":"allVaultsLength","inputs":[],"outputs":[{"name":"","type":"uint256","internalType":"uint256"}],"stateMutability":"view"},{"type":"function","name":"beacon","inputs":[],"outputs":[{"name":"","type":"address","internalType":"address"}],"stateMutability":"view"},{"type":"function","name":"beaconDepositContract","inputs":[],"outputs":[{"name":"","type":"address","internalType":"address"}],"stateMutability":"view"},{"type":"function","name":"bgt","inputs":[],"outputs":[{"name":"","type":"address","internalType":"address"}],"stateMutability":"view"},{"type":"function","name":"createRewardVault","inputs":[{"name":"stakingToken","type":"address","internalType":"address"}],"outputs":[{"name":"","type":"address","internalType":"address"}],"stateMutability":"nonpayable"},{"type":"function","name":"distributor","inputs":[],"outputs":[{"name":"","type":"address","internalType":"address"}],"stateMutability":"view"},{"type":"function","name":"getRoleAdmin","inputs":[{"name":"role","type":"bytes32","internalType":"bytes32"}],"outputs":[{"name":"","type":"bytes32","internalType":"bytes32"}],"stateMutability":"view"},{"type":"function","name":"getVault","inputs":[{"name":"stakingToken","type":"address","internalType":"address"}],"outputs":[{"name":"vault","type":"address","internalType":"address"}],"stateMutability":"view"},{"type":"function","name":"grantRole","inputs":[{"name":"role","type":"bytes32","internalType":"bytes32"},{"name":"account","type":"address","internalType":"address"}],"outputs":[],"stateMutability":"nonpayable"},{"type":"function","name":"hasRole","inputs":[{"name":"role","type":"bytes32","internalType":"bytes32"},{"name":"account","type":"address","internalType":"address"}],"outputs":[{"name":"","type":"bool","internalType":"bool"}],"stateMutability":"view"},{"type":"function","name":"initialize","inputs":[{"name":"_bgt","type":"address","internalType":"address"},{"name":"_distributor","type":"address","internalType":"address"},{"name":"_beaconDepositContract","type":"address","internalType":"address"},{"name":"_governance","type":"address","internalType":"address"},{"name":"_vaultImpl","type":"address","internalType":"address"}],"outputs":[],"stateMutability":"nonpayable"},{"type":"function","name":"predictRewardVaultAddress","inputs":[{"name":"stakingToken","type":"address","internalType":"address"}],"outputs":[{"name":"","type":"address","internalType":"address"}],"stateMutability":"view"},{"type":"function","name":"proxiableUUID","inputs":[],"outputs":[{"name":"","type":"bytes32","internalType":"bytes32"}],"stateMutability":"view"},{"type":"function","name":"renounceRole","inputs":[{"name":"role","type":"bytes32","internalType":"bytes32"},{"name":"callerConfirmation","type":"address","internalType":"address"}],"outputs":[],"stateMutability":"nonpayable"},{"type":"function","name":"revokeRole","inputs":[{"name":"role","type":"bytes32","internalType":"bytes32"},{"name":"account","type":"address","internalType":"address"}],"outputs":[],"stateMutability":"nonpayable"},{"type":"function","name":"supportsInterface","inputs":[{"name":"interfaceId","type":"bytes4","internalType":"bytes4"}],"outputs":[{"name":"","type":"bool","internalType":"bool"}],"stateMutability":"view"},{"type":"function","name":"upgradeToAndCall","inputs":[{"name":"newImplementation","type":"address","internalType":"address"},{"name":"data","type":"bytes","internalType":"bytes"}],"outputs":[],"stateMutability":"payable"},{"type":"event","name":"Initialized","inputs":[{"name":"version","type":"uint64","indexed":false,"internalType":"uint64"}],"anonymous":false},{"type":"event","name":"RoleAdminChanged","inputs":[{"name":"role","type":"bytes32","indexed":true,"internalType":"bytes32"},{"name":"previousAdminRole","type":"bytes32","indexed":true,"internalType":"bytes32"},{"name":"newAdminRole","type":"bytes32","indexed":true,"internalType":"bytes32"}],"anonymous":false},{"type":"event","name":"RoleGranted","inputs":[{"name":"role","type":"bytes32","indexed":true,"internalType":"bytes32"},{"name":"account","type":"address","indexed":true,"internalType":"address"},{"name":"sender","type":"address","indexed":true,"internalType":"address"}],"anonymous":false},{"type":"event","name":"RoleRevoked","inputs":[{"name":"role","type":"bytes32","indexed":true,"internalType":"bytes32"},{"name":"account","type":"address","indexed":true,"internalType":"address"},{"name":"sender","type":"address","indexed":true,"internalType":"address"}],"anonymous":false},{"type":"event","name":"Upgraded","inputs":[{"name":"implementation","type":"address","indexed":true,"internalType":"address"}],"anonymous":false},{"type":"event","name":"VaultCreated","inputs":[{"name":"stakingToken","type":"address","indexed":true,"internalType":"address"},{"name":"vault","type":"address","indexed":true,"internalType":"address"}],"anonymous":false},{"type":"error","name":"AccessControlBadConfirmation","inputs":[]},{"type":"error","name":"AccessControlUnauthorizedAccount","inputs":[{"name":"account","type":"address","internalType":"address"},{"name":"neededRole","type":"bytes32","internalType":"bytes32"}]},{"type":"error","name":"AddressEmptyCode","inputs":[{"name":"target","type":"address","internalType":"address"}]},{"type":"error","name":"AmountLessThanMinIncentiveRate","inputs":[]},{"type":"error","name":"CannotRecoverIncentiveToken","inputs":[]},{"type":"error","name":"CannotRecoverRewardToken","inputs":[]},{"type":"error","name":"CannotRecoverStakingToken","inputs":[]},{"type":"error","name":"CommissionChangeAlreadyQueued","inputs":[]},{"type":"error","name":"CommissionNotQueuedOrDelayNotPassed","inputs":[]},{"type":"error","name":"DepositNotMultipleOfGwei","inputs":[]},{"type":"error","name":"DepositValueTooHigh","inputs":[]},{"type":"error","name":"DonateAmountLessThanPayoutAmount","inputs":[]},{"type":"error","name":"ERC1967InvalidImplementation","inputs":[{"name":"implementation","type":"address","internalType":"address"}]},{"type":"error","name":"ERC1967NonPayable","inputs":[]},{"type":"error","name":"FailedCall","inputs":[]},{"type":"error","name":"IncentiveRateTooHigh","inputs":[]},{"type":"error","name":"IndexOutOfRange","inputs":[]},{"type":"error","name":"InsolventReward","inputs":[]},{"type":"error","name":"InsufficientDelegateStake","inputs":[]},{"type":"error","name":"InsufficientDeposit","inputs":[]},{"type":"error","name":"InsufficientIncentiveTokens","inputs":[]},{"type":"error","name":"InsufficientSelfStake","inputs":[]},{"type":"error","name":"InsufficientStake","inputs":[]},{"type":"error","name":"InvalidActivateBoostDelay","inputs":[]},{"type":"error","name":"InvalidArray","inputs":[]},{"type":"error","name":"InvalidBaseRate","inputs":[]},{"type":"error","name":"InvalidBoostMultiplier","inputs":[]},{"type":"error","name":"InvalidCommissionChangeDelay","inputs":[]},{"type":"error","name":"InvalidCommissionValue","inputs":[]},{"type":"error","name":"InvalidCredentialsLength","inputs":[]},{"type":"error","name":"InvalidDistribution","inputs":[]},{"type":"error","name":"InvalidDropBoostDelay","inputs":[]},{"type":"error","name":"InvalidIncentiveRate","inputs":[]},{"type":"error","name":"InvalidInitialization","inputs":[]},{"type":"error","name":"InvalidMaxIncentiveTokensCount","inputs":[]},{"type":"error","name":"InvalidMaxWeightPerVault","inputs":[]},{"type":"error","name":"InvalidMerkleRoot","inputs":[]},{"type":"error","name":"InvalidMinBoostedRewardRate","inputs":[]},{"type":"error","name":"InvalidProof","inputs":[]},{"type":"error","name":"InvalidPubKeyLength","inputs":[]},{"type":"error","name":"InvalidRewardAllocationWeights","inputs":[]},{"type":"error","name":"InvalidRewardClaimDelay","inputs":[]},{"type":"error","name":"InvalidRewardConvexity","inputs":[]},{"type":"error","name":"InvalidRewardRate","inputs":[]},{"type":"error","name":"InvalidSignatureLength","inputs":[]},{"type":"error","name":"InvalidStartBlock","inputs":[]},{"type":"error","name":"InvalidToken","inputs":[]},{"type":"error","name":"InvalidWeight","inputs":[]},{"type":"error","name":"InvalidateDefaultRewardAllocation","inputs":[]},{"type":"error","name":"InvariantCheckFailed","inputs":[]},{"type":"error","name":"MaxNumWeightsPerRewardAllocationIsZero","inputs":[]},{"type":"error","name":"MinIncentiveRateIsZero","inputs":[]},{"type":"error","name":"NotAContract","inputs":[]},{"type":"error","name":"NotApprovedSender","inputs":[]},{"type":"error","name":"NotBGT","inputs":[]},{"type":"error","name":"NotBlockRewardController","inputs":[]},{"type":"error","name":"NotDelegate","inputs":[]},{"type":"error","name":"NotDistributor","inputs":[]},{"type":"error","name":"NotEnoughBalance","inputs":[]},{"type":"error","name":"NotEnoughBoostedBalance","inputs":[]},{"type":"error","name":"NotEnoughTime","inputs":[]},{"type":"error","name":"NotFactoryVault","inputs":[]},{"type":"error","name":"NotFeeCollector","inputs":[]},{"type":"error","name":"NotIncentiveManager","inputs":[]},{"type":"error","name":"NotInitializing","inputs":[]},{"type":"error","name":"NotNewOperator","inputs":[]},{"type":"error","name":"NotOperator","inputs":[]},{"type":"error","name":"NotWhitelistedVault","inputs":[]},{"type":"error","name":"OperatorAlreadySet","inputs":[]},{"type":"error","name":"PayoutAmountIsZero","inputs":[]},{"type":"error","name":"RewardAllocationAlreadyQueued","inputs":[]},{"type":"error","name":"RewardAllocationBlockDelayTooLarge","inputs":[]},{"type":"error","name":"RewardCycleNotEnded","inputs":[]},{"type":"error","name":"RewardInactive","inputs":[]},{"type":"error","name":"RewardsDurationIsZero","inputs":[]},{"type":"error","name":"StakeAmountIsZero","inputs":[]},{"type":"error","name":"TimestampAlreadyProcessed","inputs":[]},{"type":"error","name":"TokenAlreadyWhitelistedOrLimitReached","inputs":[]},{"type":"error","name":"TokenNotWhitelisted","inputs":[]},{"type":"error","name":"TooManyWeights","inputs":[]},{"type":"error","name":"TotalSupplyOverflow","inputs":[]},{"type":"error","name":"UUPSUnauthorizedCallContext","inputs":[]},{"type":"error","name":"UUPSUnsupportedProxiableUUID","inputs":[{"name":"slot","type":"bytes32","internalType":"bytes32"}]},{"type":"error","name":"WithdrawAmountIsZero","inputs":[]},{"type":"error","name":"ZeroAddress","inputs":[]},{"type":"error","name":"ZeroOperatorOnFirstDeposit","inputs":[]},{"type":"error","name":"ZeroPercentageWeight","inputs":[]}],"bytecode":{"object":"0x60a060405230608052348015610013575f80fd5b5061001c610021565b6100d3565b7ff0c57e16840df040f15088dc2f81fe391c3923bec73e23a9662efc9c229c6a00805468010000000000000000900460ff16156100715760405163f92ee8a960e01b815260040160405180910390fd5b80546001600160401b03908116146100d05780546001600160401b0319166001600160401b0390811782556040519081527fc7f505b2f371ae2175ee4913f4499e1f2633a7b5936321eed1cdaeb6115181d29060200160405180910390a15b50565b608051611dd06100f95f395f8181610f5501528181610f7e01526111a10152611dd05ff3fe60806040526004361061016d575f3560e01c80635b3b9a18116100c6578063a217fddf1161007c578063c209bca211610057578063c209bca2146104eb578063d547741f1461051e578063eafe0f4c1461053d575f80fd5b8063a217fddf14610457578063ad3cb1cc1461046a578063bfe10928146104bf575f80fd5b80639094a91e116100ac5780639094a91e1461039c57806391d14854146103bb5780639a6c31c41461042b575f80fd5b80635b3b9a181461034a5780635e5a24a414610369575f80fd5b806336568abe1161012657806352d1902d1161010157806352d1902d146102ec578063577ee5c71461030057806359659e901461031f575f80fd5b806336568abe146102a65780634cd18577146102c55780634f1ef286146102d9575f80fd5b80631459457a116101565780631459457a1461020b578063248a9ca31461022c5780632f2ff15d14610287575f80fd5b806301ffc9a7146101715780630eb9af38146101a5575b5f80fd5b34801561017c575f80fd5b5061019061018b366004611777565b610569565b60405190151581526020015b60405180910390f35b3480156101b0575f80fd5b506101e66101bf3660046117de565b60046020525f908152604090205473ffffffffffffffffffffffffffffffffffffffff1681565b60405173ffffffffffffffffffffffffffffffffffffffff909116815260200161019c565b348015610216575f80fd5b5061022a6102253660046117f7565b610601565b005b348015610237575f80fd5b50610279610246366004611858565b5f9081527f02dd7bc7dec4dceedda775e58dd541e08a116c6c53815c0bd028192f7b626800602052604090206001015490565b60405190815260200161019c565b348015610292575f80fd5b5061022a6102a136600461186f565b6108be565b3480156102b1575f80fd5b5061022a6102c036600461186f565b610907565b3480156102d0575f80fd5b50600554610279565b61022a6102e73660046118c6565b610965565b3480156102f7575f80fd5b50610279610984565b34801561030b575f80fd5b506101e661031a3660046117de565b6109b2565b34801561032a575f80fd5b505f546101e69073ffffffffffffffffffffffffffffffffffffffff1681565b348015610355575f80fd5b506101e66103643660046117de565b610bb9565b348015610374575f80fd5b506102797fd1473398bb66596de5d1ea1fc8e303ff2ac23265adc9144b1b52065dc4f0934b81565b3480156103a7575f80fd5b506101e66103b6366004611858565b610beb565b3480156103c6575f80fd5b506101906103d536600461186f565b5f9182527f02dd7bc7dec4dceedda775e58dd541e08a116c6c53815c0bd028192f7b6268006020908152604080842073ffffffffffffffffffffffffffffffffffffffff93909316845291905290205460ff1690565b348015610436575f80fd5b506001546101e69073ffffffffffffffffffffffffffffffffffffffff1681565b348015610462575f80fd5b506102795f81565b348015610475575f80fd5b506104b26040518060400160405280600581526020017f352e302e3000000000000000000000000000000000000000000000000000000081525081565b60405161019c91906119c7565b3480156104ca575f80fd5b506002546101e69073ffffffffffffffffffffffffffffffffffffffff1681565b3480156104f6575f80fd5b506102797f0b265ba7b18bf719914a9314c2cc6df88826c97fd1060e2bce9f59cf47fe4ba181565b348015610529575f80fd5b5061022a61053836600461186f565b610c20565b348015610548575f80fd5b506003546101e69073ffffffffffffffffffffffffffffffffffffffff1681565b5f7fffffffff0000000000000000000000000000000000000000000000000000000082167f7965db0b0000000000000000000000000000000000000000000000000000000014806105fb57507f01ffc9a7000000000000000000000000000000000000000000000000000000007fffffffff000000000000000000000000000000000000000000000000000000008316145b92915050565b5f61060a610c63565b805490915060ff68010000000000000000820416159067ffffffffffffffff165f811580156106365750825b90505f8267ffffffffffffffff1660011480156106525750303b155b905081158015610660575080155b15610697576040517ff92ee8a900000000000000000000000000000000000000000000000000000000815260040160405180910390fd5b84547fffffffffffffffffffffffffffffffffffffffffffffffff000000000000000016600117855583156106f85784547fffffffffffffffffffffffffffffffffffffffffffffff00ffffffffffffffff16680100000000000000001785555b610700610c8b565b610708610c8b565b6107125f88610c95565b5061075d7f0b265ba7b18bf719914a9314c2cc6df88826c97fd1060e2bce9f59cf47fe4ba17fd1473398bb66596de5d1ea1fc8e303ff2ac23265adc9144b1b52065dc4f0934b610db3565b6001805473ffffffffffffffffffffffffffffffffffffffff808d167fffffffffffffffffffffffff000000000000000000000000000000000000000092831617909255600280548c841690831617905560038054928b1692909116919091179055604051879087906107cf9061176a565b73ffffffffffffffffffffffffffffffffffffffff928316815291166020820152604001604051809103905ff08015801561080c573d5f803e3d5ffd5b505f80547fffffffffffffffffffffffff00000000000000000000000000000000000000001673ffffffffffffffffffffffffffffffffffffffff9290921691909117905583156108b25784547fffffffffffffffffffffffffffffffffffffffffffffff00ffffffffffffffff168555604051600181527fc7f505b2f371ae2175ee4913f4499e1f2633a7b5936321eed1cdaeb6115181d29060200160405180910390a15b50505050505050505050565b5f8281527f02dd7bc7dec4dceedda775e58dd541e08a116c6c53815c0bd028192f7b62680060205260409020600101546108f781610e54565b6109018383610c95565b50505050565b73ffffffffffffffffffffffffffffffffffffffff81163314610956576040517f6697b23200000000000000000000000000000000000000000000000000000000815260040160405180910390fd5b6109608282610e61565b505050565b61096d610f3d565b61097682611041565b610980828261104b565b5050565b5f61098d611189565b507f360894a13ba1a3210667c828492db98dca3e2076cc3735a920a3ca505d382bbc90565b73ffffffffffffffffffffffffffffffffffffffff8082165f9081526004602052604081205490911680156109e75792915050565b8273ffffffffffffffffffffffffffffffffffffffff163b5f03610a2e57610a2e7f09ee12d5000000000000000000000000000000000000000000000000000000006111f8565b5f838152602081208154909190610a5b9073ffffffffffffffffffffffffffffffffffffffff1683611200565b73ffffffffffffffffffffffffffffffffffffffff8087165f8181526004602052604080822080549486167fffffffffffffffffffffffff00000000000000000000000000000000000000009586168117909155600580546001810182559084527f036b6384b5eca791c62761152d0c79bb0604c104a5fb6f4eb0703f3154bb3db0018054909516811790945551939450919290917f5d9c31ffa0fecffd7cf379989a3c7af252f0335e0d2a1320b55245912c781f5391a36003546001546002546040517ff8c8765e00000000000000000000000000000000000000000000000000000000815273ffffffffffffffffffffffffffffffffffffffff938416600482015291831660248301528216604482015286821660648201529082169063f8c8765e906084015f604051808303815f87803b158015610b9a575f80fd5b505af1158015610bac573d5f803e3d5ffd5b5092979650505050505050565b5f818152602081208154610be49073ffffffffffffffffffffffffffffffffffffffff16823061120c565b9392505050565b60058181548110610bfa575f80fd5b5f9182526020909120015473ffffffffffffffffffffffffffffffffffffffff16905081565b5f8281527f02dd7bc7dec4dceedda775e58dd541e08a116c6c53815c0bd028192f7b6268006020526040902060010154610c5981610e54565b6109018383610e61565b5f807ff0c57e16840df040f15088dc2f81fe391c3923bec73e23a9662efc9c229c6a006105fb565b610c936112cf565b565b5f8281527f02dd7bc7dec4dceedda775e58dd541e08a116c6c53815c0bd028192f7b6268006020818152604080842073ffffffffffffffffffffffffffffffffffffffff8616855290915282205460ff16610daa575f8481526020828152604080832073ffffffffffffffffffffffffffffffffffffffff87168452909152902080547fffffffffffffffffffffffffffffffffffffffffffffffffffffffffffffff00166001179055610d463390565b73ffffffffffffffffffffffffffffffffffffffff168373ffffffffffffffffffffffffffffffffffffffff16857f2f8788117e7eff1d82e926ec794901d17c78024a50270940304540a733656f0d60405160405180910390a460019150506105fb565b5f9150506105fb565b7f02dd7bc7dec4dceedda775e58dd541e08a116c6c53815c0bd028192f7b6268005f610e0c845f9081527f02dd7bc7dec4dceedda775e58dd541e08a116c6c53815c0bd028192f7b626800602052604090206001015490565b5f85815260208490526040808220600101869055519192508491839187917fbd79b86ffe0ab8e8776151514217cd7cacd52c909f66475c3af44e129f0b00ff9190a450505050565b610e5e813361130d565b50565b5f8281527f02dd7bc7dec4dceedda775e58dd541e08a116c6c53815c0bd028192f7b6268006020818152604080842073ffffffffffffffffffffffffffffffffffffffff8616855290915282205460ff1615610daa575f8481526020828152604080832073ffffffffffffffffffffffffffffffffffffffff8716808552925280832080547fffffffffffffffffffffffffffffffffffffffffffffffffffffffffffffff0016905551339287917ff6391f5c32d9c69d2a47ea670b442974b53935d1edc7fd64eb21e047a839171b9190a460019150506105fb565b3073ffffffffffffffffffffffffffffffffffffffff7f000000000000000000000000000000000000000000000000000000000000000016148061100a57507f000000000000000000000000000000000000000000000000000000000000000073ffffffffffffffffffffffffffffffffffffffff16610ff17f360894a13ba1a3210667c828492db98dca3e2076cc3735a920a3ca505d382bbc5473ffffffffffffffffffffffffffffffffffffffff1690565b73ffffffffffffffffffffffffffffffffffffffff1614155b15610c93576040517fe07c8dba00000000000000000000000000000000000000000000000000000000815260040160405180910390fd5b5f61098081610e54565b8173ffffffffffffffffffffffffffffffffffffffff166352d1902d6040518163ffffffff1660e01b8152600401602060405180830381865afa9250505080156110d0575060408051601f3d9081017fffffffffffffffffffffffffffffffffffffffffffffffffffffffffffffffe01682019092526110cd91810190611a1a565b60015b611123576040517f4c9c8ce300000000000000000000000000000000000000000000000000000000815273ffffffffffffffffffffffffffffffffffffffff831660048201526024015b60405180910390fd5b7f360894a13ba1a3210667c828492db98dca3e2076cc3735a920a3ca505d382bbc811461117f576040517faa1d49a40000000000000000000000000000000000000000000000000000000081526004810182905260240161111a565b61096083836113b3565b3073ffffffffffffffffffffffffffffffffffffffff7f00000000000000000000000000000000000000000000000000000000000000001614610c93576040517fe07c8dba00000000000000000000000000000000000000000000000000000000815260040160405180910390fd5b805f5260045ffd5b5f610be45f8484611415565b604080517fb3582b35133d50545afa5036515af43d6000803e604d573d6000fd5b3d6000f360609081527f1b60e01b36527fa3f0ad74e5423aebfd80d3ef4346578335a9a72aeaee59ff6c83527660195155f3363d3d373d3d363d602036600436635c60da60205273ffffffffffffffffffffffffffffffffffffffff86167c60523d8160223d39730000000000000000000000000000000000000000176009526074600c20919092525f918290526112c68185856114e0565b95945050505050565b6112d76114ff565b610c93576040517fd7e6bcf800000000000000000000000000000000000000000000000000000000815260040160405180910390fd5b5f8281527f02dd7bc7dec4dceedda775e58dd541e08a116c6c53815c0bd028192f7b6268006020908152604080832073ffffffffffffffffffffffffffffffffffffffff8516845290915290205460ff16610980576040517fe2517d3f00000000000000000000000000000000000000000000000000000000815273ffffffffffffffffffffffffffffffffffffffff821660048201526024810183905260440161111a565b6113bc8261151d565b60405173ffffffffffffffffffffffffffffffffffffffff8316907fbc7cd75a20ee27fd9adebab32041f755214dbc6bffa90cc0225b39da2e5c2d3b905f90a280511561140d5761096082826115eb565b610980611661565b604080517fb3582b35133d50545afa5036515af43d6000803e604d573d6000fd5b3d6000f36060527f1b60e01b36527fa3f0ad74e5423aebfd80d3ef4346578335a9a72aeaee59ff6c9091527660195155f3363d3d373d3d363d602036600436635c60da6020527c60523d8160223d3973000000000000000000000000000000000000000073ffffffffffffffffffffffffffffffffffffffff8416176009525f90826074600c87f59150816114d25763301164255f526004601cfd5b6040525f6060529392505050565b5f60ff5f5350603592835260601b60015260155260555f908120915290565b5f611508610c63565b5468010000000000000000900460ff16919050565b8073ffffffffffffffffffffffffffffffffffffffff163b5f03611585576040517f4c9c8ce300000000000000000000000000000000000000000000000000000000815273ffffffffffffffffffffffffffffffffffffffff8216600482015260240161111a565b7f360894a13ba1a3210667c828492db98dca3e2076cc3735a920a3ca505d382bbc80547fffffffffffffffffffffffff00000000000000000000000000000000000000001673ffffffffffffffffffffffffffffffffffffffff92909216919091179055565b60605f808473ffffffffffffffffffffffffffffffffffffffff16846040516116149190611a31565b5f60405180830381855af49150503d805f811461164c576040519150601f19603f3d011682016040523d82523d5f602084013e611651565b606091505b50915091506112c6858383611699565b3415610c93576040517fb398979f00000000000000000000000000000000000000000000000000000000815260040160405180910390fd5b6060826116ae576116a982611728565b610be4565b81511580156116d2575073ffffffffffffffffffffffffffffffffffffffff84163b155b15611721576040517f9996b31500000000000000000000000000000000000000000000000000000000815273ffffffffffffffffffffffffffffffffffffffff8516600482015260240161111a565b5092915050565b8051156117385780518082602001fd5b6040517fd6bda27500000000000000000000000000000000000000000000000000000000815260040160405180910390fd5b61037c80611a4883390190565b5f60208284031215611787575f80fd5b81357fffffffff0000000000000000000000000000000000000000000000000000000081168114610be4575f80fd5b803573ffffffffffffffffffffffffffffffffffffffff811681146117d9575f80fd5b919050565b5f602082840312156117ee575f80fd5b610be4826117b6565b5f805f805f60a0868803121561180b575f80fd5b611814866117b6565b9450611822602087016117b6565b9350611830604087016117b6565b925061183e606087016117b6565b915061184c608087016117b6565b90509295509295909350565b5f60208284031215611868575f80fd5b5035919050565b5f8060408385031215611880575f80fd5b82359150611890602084016117b6565b90509250929050565b7f4e487b71000000000000000000000000000000000000000000000000000000005f52604160045260245ffd5b5f80604083850312156118d7575f80fd5b6118e0836117b6565b9150602083013567ffffffffffffffff8111156118fb575f80fd5b8301601f8101851361190b575f80fd5b803567ffffffffffffffff81111561192557611925611899565b6040517fffffffffffffffffffffffffffffffffffffffffffffffffffffffffffffffe0603f7fffffffffffffffffffffffffffffffffffffffffffffffffffffffffffffffe0601f8501160116810181811067ffffffffffffffff8211171561199157611991611899565b6040528181528282016020018710156119a8575f80fd5b816020840160208301375f602083830101528093505050509250929050565b602081525f82518060208401528060208501604085015e5f6040828501015260407fffffffffffffffffffffffffffffffffffffffffffffffffffffffffffffffe0601f83011684010191505092915050565b5f60208284031215611a2a575f80fd5b5051919050565b5f82518060208501845e5f92019182525091905056fe608060405260405161037c38038061037c83398101604081905261002291610108565b61002c8282610033565b5050610139565b61003d8282610041565b5050565b61004a82610053565b61003d8161009d565b8060601b60601c9050684343a0dc92ed22dbfc5481684343a0dc92ed22dbfc5581817f8be0079c531659141344cd1fd0a4f28419497f9722a3daafe3b4186f6b6457e05f38a35050565b6001600160a01b0316803b6100b957636d3e283b5f526004601cfd5b8068911c5a209f08d5ec5e55807fbc7cd75a20ee27fd9adebab32041f755214dbc6bffa90cc0225b39da2e5c2d3b5f38a250565b80516001600160a01b0381168114610103575f80fd5b919050565b5f8060408385031215610119575f80fd5b610122836100ed565b9150610130602084016100ed565b90509250929050565b610236806101465f395ff3fe608060405234801561000f575f80fd5b5060043610610064575f3560e01c8063715018a61161004d578063715018a6146100b25780638da5cb5b146100ba578063f2fde38b146100ca575f80fd5b80633659cfe6146100685780635c60da1b1461007d575b5f80fd5b61007b6100763660046101ef565b6100dd565b005b68911c5a209f08d5ec5e545b60405173ffffffffffffffffffffffffffffffffffffffff909116815260200160405180910390f35b61007b6100f1565b684343a0dc92ed22dbfc54610089565b61007b6100d83660046101ef565b610104565b6100e561012a565b6100ee81610148565b50565b6100f961012a565b6101025f6101a5565b565b61010c61012a565b8060601b61012157637448fbae5f526004601cfd5b6100ee816101a5565b684343a0dc92ed22dbfc543314610102576382b429005f526004601cfd5b73ffffffffffffffffffffffffffffffffffffffff16803b61017157636d3e283b5f526004601cfd5b8068911c5a209f08d5ec5e55807fbc7cd75a20ee27fd9adebab32041f755214dbc6bffa90cc0225b39da2e5c2d3b5f38a250565b8060601b60601c9050684343a0dc92ed22dbfc5481684343a0dc92ed22dbfc5581817f8be0079c531659141344cd1fd0a4f28419497f9722a3daafe3b4186f6b6457e05f38a35050565b5f602082840312156101ff575f80fd5b813573ffffffffffffffffffffffffffffffffffffffff81168114610222575f80fd5b939250505056fea164736f6c634300081a000aa164736f6c634300081a000a","linkReferences":{}},"methodIdentifiers":{"DEFAULT_ADMIN_ROLE()":"a217fddf","UPGRADE_INTERFACE_VERSION()":"ad3cb1cc","VAULT_MANAGER_ROLE()":"5e5a24a4","VAULT_PAUSER_ROLE()":"c209bca2","allVaults(uint256)":"9094a91e","allVaultsLength()":"4cd18577","beacon()":"59659e90","beaconDepositContract()":"eafe0f4c","bgt()":"9a6c31c4","createRewardVault(address)":"577ee5c7","distributor()":"bfe10928","getRoleAdmin(bytes32)":"248a9ca3","getVault(address)":"0eb9af38","grantRole(bytes32,address)":"2f2ff15d","hasRole(bytes32,address)":"91d14854","initialize(address,address,address,address,address)":"1459457a","predictRewardVaultAddress(address)":"5b3b9a18","proxiableUUID()":"52d1902d","renounceRole(bytes32,address)":"36568abe","revokeRole(bytes32,address)":"d547741f","supportsInterface(bytes4)":"01ffc9a7","upgradeToAndCall(address,bytes)":"4f1ef286"},"storageLayout":{"storage":[{"astId":89916,"contract":"src/v0_Contracts/RewardVaultFactory_V0.sol:RewardVaultFactory_V0","label":"beacon","offset":0,"slot":"0","type":"t_address"},{"astId":89919,"contract":"src/v0_Contracts/RewardVaultFactory_V0.sol:RewardVaultFactory_V0","label":"bgt","offset":0,"slot":"1","type":"t_address"},{"astId":89922,"contract":"src/v0_Contracts/RewardVaultFactory_V0.sol:RewardVaultFactory_V0","label":"distributor","offset":0,"slot":"2","type":"t_address"},{"astId":89925,"contract":"src/v0_Contracts/RewardVaultFactory_V0.sol:RewardVaultFactory_V0","label":"beaconDepositContract","offset":0,"slot":"3","type":"t_address"},{"astId":89930,"contract":"src/v0_Contracts/RewardVaultFactory_V0.sol:RewardVaultFactory_V0","label":"getVault","offset":0,"slot":"4","type":"t_mapping(t_address,t_address)"},{"astId":89934,"contract":"src/v0_Contracts/RewardVaultFactory_V0.sol:RewardVaultFactory_V0","label":"allVaults","offset":0,"slot":"5","type":"t_array(t_address)dyn_storage"}],"types":{"t_address":{"encoding":"inplace","label":"address","numberOfBytes":"20"},"t_array(t_address)dyn_storage":{"encoding":"dynamic_array","label":"address[]","numberOfBytes":"32","base":"t_address"},"t_mapping(t_address,t_address)":{"encoding":"mapping","key":"t_address","label":"mapping(address => address)","numberOfBytes":"32","value":"t_address"}}},"id":159}