{"abi":[{"type":"constructor","inputs":[{"name":"token","type":"address","internalType":"address"},{"name":"guardian","type":"address","internalType":"address"},{"name":"proposalThreshold","type":"uint256","internalType":"uint256"},{"name":"votingDelay","type":"uint256","internalType":"uint256"},{"name":"votingPeriod","type":"uint256","internalType":"uint256"},{"name":"quorumNumeratorValue","type":"uint256","internalType":"uint256"},{"name":"timelockMinDelay","type":"uint256","internalType":"uint256"},{"name":"govSalt","type":"uint256","internalType":"uint256"},{"name":"timelockSalt","type":"uint256","internalType":"uint256"}],"stateMutability":"nonpayable"},{"type":"function","name":"GOVERNOR","inputs":[],"outputs":[{"name":"","type":"address","internalType":"address"}],"stateMutability":"view"},{"type":"function","name":"TIMELOCK_CONTROLLER","inputs":[],"outputs":[{"name":"","type":"address","internalType":"address"}],"stateMutability":"view"},{"type":"function","name":"_CREATE2_FACTORY","inputs":[],"outputs":[{"name":"","type":"address","internalType":"address"}],"stateMutability":"view"},{"type":"error","name":"DeploymentFailed","inputs":[]}],"bytecode":{"object":"0x60c060405234801561000f575f80fd5b5060405161b19638038061b19683398101604081905261002e91610816565b6100378961052a565b5f6100646040518060200161004b906107d9565b601f1982820381018352601f90910116604052846105a8565b6001600160a01b0381166080526040519091505f906100899061004b602082016107e6565b6001600160a01b03811660a0526040805160018082528183019092529192505f919060208083019080368337019050509050608051815f815181106100d0576100d06108be565b6001600160a01b03928316602091820292909201015260405163c4c4c7b360e01b81529083169063c4c4c7b390610111908990859081903090600401610915565b5f604051808303815f87803b158015610128575f80fd5b505af115801561013a573d5f803e3d5ffd5b505050506001600160a01b038b161561021857816001600160a01b0316632f2ff15d836001600160a01b031663b08e51c06040518163ffffffff1660e01b8152600401602060405180830381865afa158015610198573d5f803e3d5ffd5b505050506040513d601f19601f820116820180604052508101906101bc9190610959565b6040516001600160e01b031960e084901b16815260048101919091526001600160a01b038e1660248201526044015f604051808303815f87803b158015610201575f80fd5b505af1158015610213573d5f803e3d5ffd5b505050505b816001600160a01b031663d547741f836001600160a01b031663a217fddf6040518163ffffffff1660e01b8152600401602060405180830381865afa158015610263573d5f803e3d5ffd5b505050506040513d601f19601f820116820180604052508101906102879190610959565b6040516001600160e01b031960e084901b16815260048101919091523060248201526044015f604051808303815f87803b1580156102c3575f80fd5b505af11580156102d5573d5f803e3d5ffd5b505050505f60405180608001604052808e6001600160a01b031663313ce5676040518163ffffffff1660e01b8152600401602060405180830381865afa158015610321573d5f803e3d5ffd5b505050506040513d601f19601f820116820180604052508101906103459190610970565b61035090600a610a8e565b61035a908e610a9c565b81526020018981526020018b65ffffffffffff1681526020018a63ffffffff168152509050836001600160a01b0316630e29ceac8e85846040518463ffffffff1660e01b8152600401610402939291906001600160a01b039384168152919092166020808301919091528251604080840191909152908301516060808401919091529083015165ffffffffffff1660808301529091015163ffffffff1660a082015260c00190565b5f604051808303815f87803b158015610419575f80fd5b505af115801561042b573d5f803e3d5ffd5b505050506040518060400160405280600e81526020016d06d6f64653d74696d657374616d760941b81525080519060200120846001600160a01b0316634bf5d7e96040518163ffffffff1660e01b81526004015f60405180830381865afa158015610498573d5f803e3d5ffd5b505050506040513d5f823e601f3d908101601f191682016040526104bf9190810190610ab3565b80519060200120146105185760405162461bcd60e51b815260206004820152601e60248201527f556e6578706563746564204549502d3633373220636c6f636b206d6f6465000060448201526064015b60405180910390fd5b50505050505050505050505050610bd2565b610533816105c8565b6105a55760405162461bcd60e51b815260206004820152603d60248201527f476f764465706c6f7965723a20746f6b656e206973206e6f7420612076616c6960448201527f64204552433230566f746573206f722045524332304d65746164617461000000606482015260840161050f565b50565b5f806105b48385610707565b90506105c0818461074b565b949350505050565b6040516309ab24eb60e41b81523060048201525f906001600160a01b03831690639ab24eb090602401602060405180830381865afa92505050801561062a575060408051601f3d908101601f1916820190925261062791810190610959565b60015b61063557505f919050565b50816001600160a01b03166306fdde036040518163ffffffff1660e01b81526004015f60405180830381865afa158015610671573d5f803e3d5ffd5b505050506040513d5f823e601f3d908101601f191682016040526106989190810190610ab3565b50816001600160a01b031663313ce5676040518163ffffffff1660e01b8152600401602060405180830381865afa1580156106d5573d5f803e3d5ffd5b505050506040513d601f19601f820116820180604052508101906106f99190610970565b50600192915050565b919050565b5f815183835260145f60208301855f734e59b44847b379578588920ca78fbf26c0b4956c5af161073e5763301164255f526004601cfd5b5f5192525060601c919050565b5f61075e8261075985610767565b610707565b90505b92915050565b606060405180602001610779906107f3565b601f1982820381018352601f90910116602081810160409081525f8352516107a5928692909101610b63565b60408051601f19818403018152908290526107c39291602001610bbe565b6040516020818303038152906040529050919050565b61740e80610cc983390190565b612d0b806180d783390190565b6103b48061ade283390190565b80516001600160a01b0381168114610702575f80fd5b5f805f805f805f805f6101208a8c03121561082f575f80fd5b6108388a610800565b985061084660208b01610800565b97505f60408b01519050809750505f60608b01519050809650505f60808b01519050809550505f60a08b01519050809450505f60c08b01519050809350505f60e08b01519050809250505f6101008b01519050809150509295985092959850929598565b634e487b7160e01b5f52604160045260245ffd5b634e487b7160e01b5f52603260045260245ffd5b5f8151808452602084019350602083015f5b8281101561090b5781516001600160a01b03168652602095860195909101906001016108e4565b5093949350505050565b848152608060208201525f61092d60808301866108d2565b828103604084015261093f81866108d2565b91505060018060a01b038316606083015295945050505050565b5f60208284031215610969575f80fd5b5051919050565b5f60208284031215610980575f80fd5b815160ff81168114610990575f80fd5b9392505050565b634e487b7160e01b5f52601160045260245ffd5b6001815b60018411156109e6578085048111156109ca576109ca610997565b60018416156109d857908102905b60019390931c9280026109af565b935093915050565b5f826109fc57506001610761565b81610a0857505f610761565b8160018114610a1e5760028114610a2857610a44565b6001915050610761565b60ff841115610a3957610a39610997565b50506001821b610761565b5060208310610133831016604e8410600b8410161715610a67575081810a610761565b610a735f1984846109ab565b805f1904821115610a8657610a86610997565b029392505050565b5f61075e60ff8416836109ee565b808202811582820484141761076157610761610997565b5f60208284031215610ac3575f80fd5b81516001600160401b03811115610ad8575f80fd5b8201601f81018413610ae8575f80fd5b80516001600160401b03811115610b0157610b016108aa565b604051601f8201601f19908116603f011681016001600160401b0381118282101715610b2f57610b2f6108aa565b604052818152828201602001861015610b46575f80fd5b8160208401602083015e5f91810160200191909152949350505050565b60018060a01b0383168152604060208201525f82518060408401528060208501606085015e5f606082850101526060601f19601f8301168401019150509392505050565b5f81518060208401855e5f93019283525090919050565b5f6105c0610bcc8386610ba7565b84610ba7565b60805160a05160da610bef5f395f604201525f6091015260da5ff3fe6080604052348015600e575f80fd5b5060043610603a575f3560e01c80635d049c0a14603e5780636dc0ae2214608d578063ecef25331460b3575b5f80fd5b60647f000000000000000000000000000000000000000000000000000000000000000081565b60405173ffffffffffffffffffffffffffffffffffffffff909116815260200160405180910390f35b60647f000000000000000000000000000000000000000000000000000000000000000081565b6064734e59b44847b379578588920ca78fbf26c0b4956c8156fea164736f6c634300081a000a60a060405230608052348015610013575f80fd5b5061001c610021565b6100d3565b7ff0c57e16840df040f15088dc2f81fe391c3923bec73e23a9662efc9c229c6a00805468010000000000000000900460ff16156100715760405163f92ee8a960e01b815260040160405180910390fd5b80546001600160401b03908116146100d05780546001600160401b0319166001600160401b0390811782556040519081527fc7f505b2f371ae2175ee4913f4499e1f2633a7b5936321eed1cdaeb6115181d29060200160405180910390a15b50565b6080516173156100f95f395f818161316b0152818161319401526133b001526173155ff3fe60806040526004361061038a575f3560e01c80637d5e81e2116101d3578063c01f9e37116100fd578063deaaa7cc1161009d578063f23a6e611161006d578063f23a6e6114610d48578063f8ce560a14610d67578063fc0c546a14610d86578063fe0d94c114610d9a575f80fd5b8063deaaa7cc14610cb8578063e540d01d14610ceb578063eb9019d414610d0a578063ece40cc114610d29575f80fd5b8063d33219b4116100d8578063d33219b414610c2c578063da35c66414610c40578063dd4e2ba514610c54578063ddf0b00914610c99575f80fd5b8063c01f9e3714610bdb578063c28bc2fa14610bfa578063c59057e414610c0d575f80fd5b8063a7713a7011610173578063ab58fb8e11610143578063ab58fb8e14610b0b578063ad3cb1cc14610b60578063b58131b014610ba8578063bc197c8114610bbc575f80fd5b8063a7713a7014610a9a578063a890c91014610aae578063a8f8a66814610acd578063a9a9529414610aec575f80fd5b80638ff262e3116101ae5780638ff262e314610a1e57806391ddadf414610a3d57806397c3d33414610a685780639a802a6d14610a7b575f80fd5b80637d5e81e2146109785780637ecebe001461099757806384b0196e146109f7575f80fd5b80633e4f49e6116102b4578063544ffc9c116102545780635f398a14116102245780635f398a14146108fc57806360c4247f1461091b578063790518871461093a5780637b3c71d314610959575f80fd5b8063544ffc9c1461083f57806354fd4d501461087957806356781388146108be5780635b8d0e0d146108dd575f80fd5b8063452115d61161028f578063452115d6146107e55780634bf5d7e9146108045780634f1ef2861461081857806352d1902d1461082b575f80fd5b80633e4f49e61461072657806340e58ee5146107525780634385963214610771575f80fd5b8063150b7a021161032a5780632d63f693116102fa5780632d63f6931461061f5780632e82db94146106895780632fe3e261146106b95780633932abb1146106ec575f80fd5b8063150b7a021461056e578063160cbed7146105be57806316e9eaec146105dd5780632656227d1461060c575f80fd5b806306f3f9e61161036557806306f3f9e61461048a57806306fdde03146104a95780630e29ceac146104ca578063143489d0146104e9575f80fd5b806301ffc9a7146103eb57806302a251a31461041f578063032ec9fd1461046b575f80fd5b366103e75730610398610dad565b73ffffffffffffffffffffffffffffffffffffffff16146103e5576040517fe90a651e00000000000000000000000000000000000000000000000000000000815260040160405180910390fd5b005b5f80fd5b3480156103f6575f80fd5b5061040a610405366004615e35565b610dbb565b60405190151581526020015b60405180910390f35b34801561042a575f80fd5b507ed7616c8fe29c6c2fbe1d0c5bc8f2faa4c35b43746e70b24b4d532752affd01546601000000000000900463ffffffff165b604051908152602001610416565b348015610476575f80fd5b5061045d610485366004615e74565b610eeb565b348015610495575f80fd5b506103e56104a4366004615e74565b610fdc565b3480156104b4575f80fd5b506104bd610ff0565b6040516104169190615ed7565b3480156104d5575f80fd5b506103e56104e4366004615fac565b6110a4565b3480156104f4575f80fd5b50610549610503366004615e74565b5f9081527f7c712897014dbe49c045ef1299aa2d5f9e67e48eea4403efa21f1e0f3ac0cb01602052604090205473ffffffffffffffffffffffffffffffffffffffff1690565b60405173ffffffffffffffffffffffffffffffffffffffff9091168152602001610416565b348015610579575f80fd5b5061058d610588366004616110565b611291565b6040517fffffffff000000000000000000000000000000000000000000000000000000009091168152602001610416565b3480156105c9575f80fd5b5061045d6105d83660046162e3565b611312565b3480156105e8575f80fd5b506105fc6105f7366004615e74565b611435565b6040516104169493929190616471565b61045d61061a3660046162e3565b61167c565b34801561062a575f80fd5b5061045d610639366004615e74565b5f9081527f7c712897014dbe49c045ef1299aa2d5f9e67e48eea4403efa21f1e0f3ac0cb01602052604090205474010000000000000000000000000000000000000000900465ffffffffffff1690565b348015610694575f80fd5b506106a86106a3366004615e74565b61188e565b6040516104169594939291906164bb565b3480156106c4575f80fd5b5061045d7f3e83946653575f9a39005e1545185629e92736b7528ab20ca3816f315424a81181565b3480156106f7575f80fd5b507ed7616c8fe29c6c2fbe1d0c5bc8f2faa4c35b43746e70b24b4d532752affd015465ffffffffffff1661045d565b348015610731575f80fd5b50610745610740366004615e74565b6118f2565b6040516104169190616572565b34801561075d575f80fd5b506103e561076c366004615e74565b6118fc565b34801561077c575f80fd5b5061040a61078b366004616580565b5f9182527fa1cefa0f43667ef127a258e673c94202a79b656e62899531c4376d87a7f398006020908152604080842073ffffffffffffffffffffffffffffffffffffffff9390931684526003909201905290205460ff1690565b3480156107f0575f80fd5b5061045d6107ff3660046162e3565b611ae1565b34801561080f575f80fd5b506104bd611b68565b6103e56108263660046165ae565b611c3a565b348015610836575f80fd5b5061045d611c59565b34801561084a575f80fd5b5061085e610859366004615e74565b611c87565b60408051938452602084019290925290820152606001610416565b348015610884575f80fd5b5060408051808201909152600181527f310000000000000000000000000000000000000000000000000000000000000060208201526104bd565b3480156108c9575f80fd5b5061045d6108d836600461660b565b611ccb565b3480156108e8575f80fd5b5061045d6108f736600461667a565b611cf2565b348015610907575f80fd5b5061045d610916366004616739565b611ead565b348015610926575f80fd5b5061045d610935366004615e74565b611ef5565b348015610945575f80fd5b506103e56109543660046167bc565b611f28565b348015610964575f80fd5b5061045d6109733660046167d7565b611f39565b348015610983575f80fd5b5061045d61099236600461682d565b611f89565b3480156109a2575f80fd5b5061045d6109b13660046168ed565b73ffffffffffffffffffffffffffffffffffffffff165f9081527f5ab42ced628888259c08ac98db1eb0cf702fc1501344311d8b100cd1bfe4bb00602052604090205490565b348015610a02575f80fd5b50610a0b61208b565b6040516104169796959493929190616908565b348015610a29575f80fd5b5061045d610a3836600461699e565b612185565b348015610a48575f80fd5b50610a516122b3565b60405165ffffffffffff9091168152602001610416565b348015610a73575f80fd5b50606461045d565b348015610a86575f80fd5b5061045d610a953660046169ec565b61234c565b348015610aa5575f80fd5b5061045d612358565b348015610ab9575f80fd5b506103e5610ac83660046168ed565b6123a5565b348015610ad8575f80fd5b5061045d610ae73660046162e3565b6123b6565b348015610af7575f80fd5b5061040a610b06366004615e74565b6123cc565b348015610b16575f80fd5b5061045d610b25366004615e74565b5f9081527f7c712897014dbe49c045ef1299aa2d5f9e67e48eea4403efa21f1e0f3ac0cb01602052604090206001015465ffffffffffff1690565b348015610b6b575f80fd5b506104bd6040518060400160405280600581526020017f352e302e3000000000000000000000000000000000000000000000000000000081525081565b348015610bb3575f80fd5b5061045d6123d4565b348015610bc7575f80fd5b5061058d610bd6366004616a41565b6123dd565b348015610be6575f80fd5b5061045d610bf5366004615e74565b61245f565b6103e5610c08366004616adb565b61250b565b348015610c18575f80fd5b5061045d610c273660046162e3565b612594565b348015610c37575f80fd5b506105496125eb565b348015610c4b575f80fd5b5061045d61262c565b348015610c5f575f80fd5b506040805180820190915260208082527f737570706f72743d627261766f2671756f72756d3d666f722c6162737461696e908201526104bd565b348015610ca4575f80fd5b506103e5610cb3366004615e74565b612657565b348015610cc3575f80fd5b5061045d7ff2aad550cf55f045cb27e9c559f9889fdfb6e6cdaa032301d6ea397784ae51d781565b348015610cf6575f80fd5b506103e5610d05366004616b1b565b612836565b348015610d15575f80fd5b5061045d610d24366004616b34565b612847565b348015610d34575f80fd5b506103e5610d43366004615e74565b612866565b348015610d53575f80fd5b5061058d610d62366004616b5e565b612877565b348015610d72575f80fd5b5061045d610d81366004615e74565b6128f9565b348015610d91575f80fd5b5061054961298e565b6103e5610da8366004615e74565b6129b6565b5f610db66125eb565b905090565b5f7fffffffff0000000000000000000000000000000000000000000000000000000082167fcdbdfcee000000000000000000000000000000000000000000000000000000001480610e4d57507fffffffff0000000000000000000000000000000000000000000000000000000082167f65455a8600000000000000000000000000000000000000000000000000000000145b80610e9957507fffffffff0000000000000000000000000000000000000000000000000000000082167f4e2312e000000000000000000000000000000000000000000000000000000000145b80610ee557507f01ffc9a7000000000000000000000000000000000000000000000000000000007fffffffff000000000000000000000000000000000000000000000000000000008316145b92915050565b5f80610ef5610dad565b90505f805f80610f0487611435565b6040517fb1c5f427000000000000000000000000000000000000000000000000000000008152939750919550935091507fffffffffffffffffffffffffffffffffffffffff0000000000000000000000003060601b1682189073ffffffffffffffffffffffffffffffffffffffff87169063b1c5f42790610f91908890889088905f908890600401616bb6565b602060405180830381865afa158015610fac573d5f803e3d5ffd5b505050506040513d601f19601f82011682018060405250810190610fd09190616c03565b98975050505050505050565b610fe4612b95565b610fed81612c64565b50565b7f7c712897014dbe49c045ef1299aa2d5f9e67e48eea4403efa21f1e0f3ac0cb00805460609190819061102290616c1a565b80601f016020809104026020016040519081016040528092919081815260200182805461104e90616c1a565b80156110995780601f1061107057610100808354040283529160200191611099565b820191905f5260205f20905b81548152906001019060200180831161107c57829003601f168201915b505050505091505090565b5f6110ad612d33565b805490915060ff68010000000000000000820416159067ffffffffffffffff165f811580156110d95750825b90505f8267ffffffffffffffff1660011480156110f55750303b155b905081158015611103575080155b1561113a576040517ff92ee8a900000000000000000000000000000000000000000000000000000000815260040160405180910390fd5b84547fffffffffffffffffffffffffffffffffffffffffffffffff0000000000000000166001178555831561119b5784547fffffffffffffffffffffffffffffffffffffffffffffff00ffffffffffffffff16680100000000000000001785555b6111a3612d5b565b6111e16040518060400160405280601381526020017f42657261636861696e476f7665726e616e636500000000000000000000000000815250612d65565b6111f786604001518760600151885f0151612db9565b6111ff612d5b565b611207612d5b565b61121088612dd1565b61121d8660200151612de2565b61122687612df3565b83156112875784547fffffffffffffffffffffffffffffffffffffffffffffff00ffffffffffffffff168555604051600181527fc7f505b2f371ae2175ee4913f4499e1f2633a7b5936321eed1cdaeb6115181d29060200160405180910390a15b5050505050505050565b5f3061129b610dad565b73ffffffffffffffffffffffffffffffffffffffff16146112e8576040517fe90a651e00000000000000000000000000000000000000000000000000000000815260040160405180910390fd5b507f150b7a0200000000000000000000000000000000000000000000000000000000949350505050565b5f7f7c712897014dbe49c045ef1299aa2d5f9e67e48eea4403efa21f1e0f3ac0cb0081611341878787876123b6565b9050611356816113516004612e04565b612e26565b505f6113658289898989612e7c565b905065ffffffffffff8116156113f8575f8281526001848101602090815260409283902090910180547fffffffffffffffffffffffffffffffffffffffffffffffffffff0000000000001665ffffffffffff85169081179091558251858152918201527f9a2e42fd6722813d69113e7d0079d3d940171428df7373df9c7f7617cfda2892910160405180910390a161142a565b6040517f90884a4600000000000000000000000000000000000000000000000000000000815260040160405180910390fd5b509695505050505050565b606080805f807f7fd223d3380145bd26132714391e777c488a0df7ac2dd4b66419d8549fb3a6005f87815260018201602090815260408083208151815460a0948102820185019093526080810183815295965093949092849284918401828280156114d457602002820191905f5260205f20905b815473ffffffffffffffffffffffffffffffffffffffff1681526001909101906020018083116114a9575b505050505081526020016001820180548060200260200160405190810160405280929190818152602001828054801561152a57602002820191905f5260205f20905b815481526020019060010190808311611516575b5050505050815260200160028201805480602002602001604051908101604052809291908181526020015f905b828210156115ff578382905f5260205f2001805461157490616c1a565b80601f01602080910402602001604051908101604052809291908181526020018280546115a090616c1a565b80156115eb5780601f106115c2576101008083540402835291602001916115eb565b820191905f5260205f20905b8154815290600101906020018083116115ce57829003601f168201915b505050505081526020019060010190611557565b505050508152602001600382015481525050905080606001515f801b0361165a576040517f6ad06075000000000000000000000000000000000000000000000000000000008152600481018890526024015b60405180910390fd5b8051602082015160408301516060909301519199909850919650945092505050565b5f7f7c712897014dbe49c045ef1299aa2d5f9e67e48eea4403efa21f1e0f3ac0cb00816116ab878787876123b6565b90506116cb816116bb6005612e04565b6116c56004612e04565b17612e26565b505f818152600183016020526040902080547fff00ffffffffffffffffffffffffffffffffffffffffffffffffffffffffffff167e010000000000000000000000000000000000000000000000000000000000001790553061172b610dad565b73ffffffffffffffffffffffffffffffffffffffff16146117dd575f5b87518110156117db573073ffffffffffffffffffffffffffffffffffffffff1688828151811061177a5761177a616c6b565b602002602001015173ffffffffffffffffffffffffffffffffffffffff16036117d3576117d38682815181106117b2576117b2616c6b565b60200260200101518051906020012084600201612e8a90919063ffffffff16565b600101611748565b505b6117ea8188888888612f17565b306117f3610dad565b73ffffffffffffffffffffffffffffffffffffffff1614158015611844575060028201546fffffffffffffffffffffffffffffffff8082167001000000000000000000000000000000009092041614155b15611850575f60028301555b6040518181527f712ae1383f79ac853f8d882153778e0260ef8f03b504e2866e0593e04d2b291f906020015b60405180910390a19695505050505050565b5f6060808083807f7fd223d3380145bd26132714391e777c488a0df7ac2dd4b66419d8549fb3a6009050805f0187815481106118cc576118cc616c6b565b905f5260205f20015495506118e086611435565b989a9299509097909650945092505050565b5f610ee582612f2b565b5f8181527f7fd223d3380145bd26132714391e777c488a0df7ac2dd4b66419d8549fb3a601602090815260409182902080548351818402810184019094528084527f7fd223d3380145bd26132714391e777c488a0df7ac2dd4b66419d8549fb3a600939192611adb929184918301828280156119ac57602002820191905f5260205f20905b815473ffffffffffffffffffffffffffffffffffffffff168152600190910190602001808311611981575b5050505050826001018054806020026020016040519081016040528092919081815260200182805480156119fd57602002820191905f5260205f20905b8154815260200190600101908083116119e9575b505050505083600201805480602002602001604051908101604052809291908181526020015f905b82821015611acd578382905f5260205f20018054611a4290616c1a565b80601f0160208091040260200160405190810160405280929190818152602001828054611a6e90616c1a565b8015611ab95780601f10611a9057610100808354040283529160200191611ab9565b820191905f5260205f20905b815481529060010190602001808311611a9c57829003601f168201915b505050505081526020019060010190611a25565b505050508460030154611ae1565b50505050565b5f80611aef868686866123b6565b905033611afc82826130d5565b611b51576040517f8fe5d8a90000000000000000000000000000000000000000000000000000000081526004810183905273ffffffffffffffffffffffffffffffffffffffff82166024820152604401611651565b611b5d87878787613146565b979650505050505050565b6060611b7261298e565b73ffffffffffffffffffffffffffffffffffffffff16634bf5d7e96040518163ffffffff1660e01b81526004015f60405180830381865afa925050508015611bf957506040513d5f823e601f3d9081017fffffffffffffffffffffffffffffffffffffffffffffffffffffffffffffffe0168201604052611bf69190810190616c98565b60015b611c35575060408051808201909152601d81527f6d6f64653d626c6f636b6e756d6265722666726f6d3d64656661756c74000000602082015290565b919050565b611c42613153565b611c4b82613257565b611c55828261325f565b5050565b5f611c62613398565b507f360894a13ba1a3210667c828492db98dca3e2076cc3735a920a3ca505d382bbc90565b5f8181527fa1cefa0f43667ef127a258e673c94202a79b656e62899531c4376d87a7f3980060205260409020805460018201546002909201549091905b9193909250565b5f80339050611cea84828560405180602001604052805f815250613407565b949350505050565b5f80611e0c87611e067f3e83946653575f9a39005e1545185629e92736b7528ab20ca3816f315424a8118c8c8c611d718e73ffffffffffffffffffffffffffffffffffffffff165f9081527f5ab42ced628888259c08ac98db1eb0cf702fc1501344311d8b100cd1bfe4bb006020526040902080546001810190915590565b8d8d604051611d81929190616d0d565b60405180910390208c80519060200120604051602001611deb9796959493929190968752602087019590955260ff93909316604086015273ffffffffffffffffffffffffffffffffffffffff919091166060850152608084015260a083015260c082015260e00190565b60405160208183030381529060405280519060200120613428565b8561346f565b905080611e5d576040517f94ab6c0700000000000000000000000000000000000000000000000000000000815273ffffffffffffffffffffffffffffffffffffffff88166004820152602401611651565b611ea089888a89898080601f0160208091040260200160405190810160405280939291908181526020018383808284375f920191909152508b9250613506915050565b9998505050505050505050565b5f80339050611b5d87828888888080601f0160208091040260200160405190810160405280939291908181526020018383808284375f920191909152508a9250613506915050565b5f7fe770710421fd2cad75ad828c61aa98f2d77d423a440b67872d0f65554148e000611f218184613643565b9392505050565b611f30612b95565b610fed816136a3565b5f80339050611f7f86828787878080601f0160208091040260200160405190810160405280939291908181526020018383808284375f9201919091525061340792505050565b9695505050505050565b5f33611f958184613762565b611fe3576040517fd9b3955700000000000000000000000000000000000000000000000000000000815273ffffffffffffffffffffffffffffffffffffffff82166004820152602401611651565b5f611fec6123d4565b9050801561207e575f61201a8360016120036122b3565b61200d9190616d49565b65ffffffffffff16612847565b90508181101561207c576040517fc242ee1600000000000000000000000000000000000000000000000000000000815273ffffffffffffffffffffffffffffffffffffffff841660048201526024810182905260448101839052606401611651565b505b611b5d8787878786613849565b5f60608082808083817fa16a46d94261c7517cc8ff89f61c0ce93598e3c849801011dee649a6a557d10080549091501580156120c957506001810154155b61212f576040517f08c379a000000000000000000000000000000000000000000000000000000000815260206004820152601560248201527f4549503731323a20556e696e697469616c697a656400000000000000000000006044820152606401611651565b612137613857565b61213f6138a8565b604080515f808252602082019092527f0f000000000000000000000000000000000000000000000000000000000000009c939b5091995046985030975095509350915050565b5f8061224884611e067ff2aad550cf55f045cb27e9c559f9889fdfb6e6cdaa032301d6ea397784ae51d78989896122048b73ffffffffffffffffffffffffffffffffffffffff165f9081527f5ab42ced628888259c08ac98db1eb0cf702fc1501344311d8b100cd1bfe4bb006020526040902080546001810190915590565b60408051602081019690965285019390935260ff909116606084015273ffffffffffffffffffffffffffffffffffffffff16608083015260a082015260c001611deb565b905080612299576040517f94ab6c0700000000000000000000000000000000000000000000000000000000815273ffffffffffffffffffffffffffffffffffffffff85166004820152602401611651565b611f7f86858760405180602001604052805f815250613407565b5f6122bc61298e565b73ffffffffffffffffffffffffffffffffffffffff166391ddadf46040518163ffffffff1660e01b8152600401602060405180830381865afa925050508015612340575060408051601f3d9081017fffffffffffffffffffffffffffffffffffffffffffffffffffffffffffffffe016820190925261233d91810190616d67565b60015b611c3557610db66138f9565b5f611cea848484613903565b5f7fe770710421fd2cad75ad828c61aa98f2d77d423a440b67872d0f65554148e000612383816139a3565b79ffffffffffffffffffffffffffffffffffffffffffffffffffff1691505090565b6123ad612b95565b610fed816139fd565b5f6123c385858585612594565b95945050505050565b5f6001610ee5565b5f610db6613ab7565b5f306123e7610dad565b73ffffffffffffffffffffffffffffffffffffffff1614612434576040517fe90a651e00000000000000000000000000000000000000000000000000000000815260040160405180910390fd5b507fbc197c810000000000000000000000000000000000000000000000000000000095945050505050565b5f8181527f7c712897014dbe49c045ef1299aa2d5f9e67e48eea4403efa21f1e0f3ac0cb0160205260408120547f7c712897014dbe49c045ef1299aa2d5f9e67e48eea4403efa21f1e0f3ac0cb00906124fc907a010000000000000000000000000000000000000000000000000000810463ffffffff169074010000000000000000000000000000000000000000900465ffffffffffff16616d82565b65ffffffffffff169392505050565b612513612b95565b5f808573ffffffffffffffffffffffffffffffffffffffff1685858560405161253d929190616d0d565b5f6040518083038185875af1925050503d805f8114612577576040519150601f19603f3d011682016040523d82523d5f602084013e61257c565b606091505b509150915061258b8282613ade565b50505050505050565b5f848484846040516020016125ac9493929190616471565b604080517fffffffffffffffffffffffffffffffffffffffffffffffffffffffffffffffe0818403018152919052805160209091012095945050505050565b5f807f0d5829787b8befdbc6044ef7457d8a95c2a04bc99235349f1a212c063e59d4005b5473ffffffffffffffffffffffffffffffffffffffff1692915050565b5f807f7fd223d3380145bd26132714391e777c488a0df7ac2dd4b66419d8549fb3a6005b5492915050565b5f8181527f7fd223d3380145bd26132714391e777c488a0df7ac2dd4b66419d8549fb3a601602090815260409182902080548351818402810184019094528084527f7fd223d3380145bd26132714391e777c488a0df7ac2dd4b66419d8549fb3a600939192611adb9291849183018282801561270757602002820191905f5260205f20905b815473ffffffffffffffffffffffffffffffffffffffff1681526001909101906020018083116126dc575b50505050508260010180548060200260200160405190810160405280929190818152602001828054801561275857602002820191905f5260205f20905b815481526020019060010190808311612744575b505050505083600201805480602002602001604051908101604052809291908181526020015f905b82821015612828578382905f5260205f2001805461279d90616c1a565b80601f01602080910402602001604051908101604052809291908181526020018280546127c990616c1a565b80156128145780601f106127eb57610100808354040283529160200191612814565b820191905f5260205f20905b8154815290600101906020018083116127f757829003601f168201915b505050505081526020019060010190612780565b505050508460030154611312565b61283e612b95565b610fed81613afa565b5f611f21838361286160408051602081019091525f815290565b613903565b61286e612b95565b610fed81613bed565b5f30612881610dad565b73ffffffffffffffffffffffffffffffffffffffff16146128ce576040517fe90a651e00000000000000000000000000000000000000000000000000000000815260040160405180910390fd5b507ff23a6e610000000000000000000000000000000000000000000000000000000095945050505050565b5f610ee561290561298e565b73ffffffffffffffffffffffffffffffffffffffff16638e539e8c846040518263ffffffff1660e01b815260040161293f91815260200190565b602060405180830381865afa15801561295a573d5f803e3d5ffd5b505050506040513d601f19601f8201168201806040525081019061297e9190616c03565b61298784611ef5565b6064613c4c565b5f807f3ba4977254e415696610a40ebf2258dbfa0ec6a2ff64e84bfe715ff16977cc0061260f565b5f8181527f7fd223d3380145bd26132714391e777c488a0df7ac2dd4b66419d8549fb3a601602090815260409182902080548351818402810184019094528084527f7fd223d3380145bd26132714391e777c488a0df7ac2dd4b66419d8549fb3a600939192611adb92918491830182828015612a6657602002820191905f5260205f20905b815473ffffffffffffffffffffffffffffffffffffffff168152600190910190602001808311612a3b575b505050505082600101805480602002602001604051908101604052809291908181526020018280548015612ab757602002820191905f5260205f20905b815481526020019060010190808311612aa3575b505050505083600201805480602002602001604051908101604052809291908181526020015f905b82821015612b87578382905f5260205f20018054612afc90616c1a565b80601f0160208091040260200160405190810160405280929190818152602001828054612b2890616c1a565b8015612b735780601f10612b4a57610100808354040283529160200191612b73565b820191905f5260205f20905b815481529060010190602001808311612b5657829003601f168201915b505050505081526020019060010190612adf565b50505050846003015461167c565b7f7c712897014dbe49c045ef1299aa2d5f9e67e48eea4403efa21f1e0f3ac0cb0033612bbf610dad565b73ffffffffffffffffffffffffffffffffffffffff1614612c0e576040517f47096e47000000000000000000000000000000000000000000000000000000008152336004820152602401611651565b30612c17610dad565b73ffffffffffffffffffffffffffffffffffffffff1614610fed575f8036604051612c43929190616d0d565b604051809103902090505b80612c5b83600201613cfc565b03612c4e575050565b7fe770710421fd2cad75ad828c61aa98f2d77d423a440b67872d0f65554148e000606480831115612ccb576040517f243e54450000000000000000000000000000000000000000000000000000000081526004810184905260248101829052604401611651565b5f612cd4612358565b9050612cf2612ce16122b3565b612cea86613d97565b859190613dfa565b505060408051828152602081018690527f0553476bf02ef2726e8ce5ced78d63e26e602e4a2257b1f559418e24b4633997910160405180910390a150505050565b5f807ff0c57e16840df040f15088dc2f81fe391c3923bec73e23a9662efc9c229c6a00610ee5565b612d63613e14565b565b612d6d613e14565b612db081612dab60408051808201909152600181527f3100000000000000000000000000000000000000000000000000000000000000602082015290565b613e52565b610fed81613ec4565b612dc1613e14565b612dcc838383613ef8565b505050565b612dd9613e14565b610fed81613f1b565b612dea613e14565b610fed81613f89565b612dfb613e14565b610fed81613f91565b5f816007811115612e1757612e1761650c565b600160ff919091161b92915050565b5f80612e31846118f2565b90505f83612e3e83612e04565b1603611f21578381846040517f31b75e4d00000000000000000000000000000000000000000000000000000000815260040161165193929190616da0565b5f611f7f8686868686613f99565b81546fffffffffffffffffffffffffffffffff700100000000000000000000000000000000820481169181166001830190911603612ecc57612ecc60416141ca565b6fffffffffffffffffffffffffffffffff8082165f90815260018086016020526040909120939093558354919092018216700100000000000000000000000000000000029116179055565b612f2485858585856141db565b5050505050565b5f7f0d5829787b8befdbc6044ef7457d8a95c2a04bc99235349f1a212c063e59d40081612f57846142c8565b90506005816007811115612f6d57612f6d61650c565b14612f79579392505050565b5f8481526001830160205260409081902054835491517f584b153e00000000000000000000000000000000000000000000000000000000815260048101829052909173ffffffffffffffffffffffffffffffffffffffff169063584b153e90602401602060405180830381865afa158015612ff6573d5f803e3d5ffd5b505050506040513d601f19601f8201168201806040525081019061301a9190616dc2565b1561302a57506005949350505050565b82546040517f2ab0f5290000000000000000000000000000000000000000000000000000000081526004810183905273ffffffffffffffffffffffffffffffffffffffff90911690632ab0f52990602401602060405180830381865afa158015613096573d5f803e3d5ffd5b505050506040513d601f19601f820116820180604052508101906130ba9190616dc2565b156130ca57506007949350505050565b506002949350505050565b5f806130e0846118f2565b60078111156130f1576130f161650c565b148015611f215750505f9182527f7c712897014dbe49c045ef1299aa2d5f9e67e48eea4403efa21f1e0f3ac0cb0160205260409091205473ffffffffffffffffffffffffffffffffffffffff91821691161490565b5f6123c3858585856144e7565b3073ffffffffffffffffffffffffffffffffffffffff7f000000000000000000000000000000000000000000000000000000000000000016148061322057507f000000000000000000000000000000000000000000000000000000000000000073ffffffffffffffffffffffffffffffffffffffff166132077f360894a13ba1a3210667c828492db98dca3e2076cc3735a920a3ca505d382bbc5473ffffffffffffffffffffffffffffffffffffffff1690565b73ffffffffffffffffffffffffffffffffffffffff1614155b15612d63576040517fe07c8dba00000000000000000000000000000000000000000000000000000000815260040160405180910390fd5b610fed612b95565b8173ffffffffffffffffffffffffffffffffffffffff166352d1902d6040518163ffffffff1660e01b8152600401602060405180830381865afa9250505080156132e4575060408051601f3d9081017fffffffffffffffffffffffffffffffffffffffffffffffffffffffffffffffe01682019092526132e191810190616c03565b60015b613332576040517f4c9c8ce300000000000000000000000000000000000000000000000000000000815273ffffffffffffffffffffffffffffffffffffffff83166004820152602401611651565b7f360894a13ba1a3210667c828492db98dca3e2076cc3735a920a3ca505d382bbc811461338e576040517faa1d49a400000000000000000000000000000000000000000000000000000000815260048101829052602401611651565b612dcc83836145c9565b3073ffffffffffffffffffffffffffffffffffffffff7f00000000000000000000000000000000000000000000000000000000000000001614612d63576040517fe07c8dba00000000000000000000000000000000000000000000000000000000815260040160405180910390fd5b5f6123c38585858561342360408051602081019091525f815290565b613506565b5f610ee561343461462b565b836040517f19010000000000000000000000000000000000000000000000000000000000008152600281019290925260228201526042902090565b5f8373ffffffffffffffffffffffffffffffffffffffff163b5f036134f4575f8061349a8585614634565b5090925090505f8160038111156134b3576134b361650c565b1480156134eb57508573ffffffffffffffffffffffffffffffffffffffff168273ffffffffffffffffffffffffffffffffffffffff16145b92505050611f21565b6134ff84848461467d565b9050611f21565b5f613515866113516001612e04565b505f8681527f7c712897014dbe49c045ef1299aa2d5f9e67e48eea4403efa21f1e0f3ac0cb01602052604081205461356f90879074010000000000000000000000000000000000000000900465ffffffffffff1685613903565b90505f61357f88888885886147c5565b905083515f036135e2578673ffffffffffffffffffffffffffffffffffffffff167fb8e138887d0aa13bab447e82de9d5c1777041ecd21ca36ba824ff1e6c07ddda4898884896040516135d59493929190616de1565b60405180910390a2611b5d565b8673ffffffffffffffffffffffffffffffffffffffff167fe2babfbac5889a709b63bb7f598b324e08bc5a4fb9ec647fb3cbc9ec07eb87128988848989604051613630959493929190616e08565b60405180910390a2979650505050505050565b5f805f61364f85614803565b9250925050838265ffffffffffff16111561367c5761367761367085614871565b86906148bc565b61367e565b805b79ffffffffffffffffffffffffffffffffffffffffffffffffffff1695945050505050565b7ed7616c8fe29c6c2fbe1d0c5bc8f2faa4c35b43746e70b24b4d532752affd01546040805165ffffffffffff9283168152918316602083015280517ed7616c8fe29c6c2fbe1d0c5bc8f2faa4c35b43746e70b24b4d532752affd00927fc565b045403dc03c2eea82b81a0465edad9e2e7fc4d97e11421c209da93d7a9392908290030190a160010180547fffffffffffffffffffffffffffffffffffffffffffffffffffff0000000000001665ffffffffffff92909216919091179055565b80515f906034811015613779576001915050610ee5565b7fffffffffffffffffffffffffffffffffffffffffffffffffffffffffffffffec81840101517fffffffffffffffffffff0000000000000000000000000000000000000000000081167f2370726f706f7365723d00000000000000000000000000000000000000000000146137f357600192505050610ee5565b5f8061380386602a860386614974565b91509150811580611b5d57508673ffffffffffffffffffffffffffffffffffffffff168173ffffffffffffffffffffffffffffffffffffffff1614979650505050505050565b5f611f7f8686868686614a50565b7fa16a46d94261c7517cc8ff89f61c0ce93598e3c849801011dee649a6a557d10280546060917fa16a46d94261c7517cc8ff89f61c0ce93598e3c849801011dee649a6a557d1009161102290616c1a565b7fa16a46d94261c7517cc8ff89f61c0ce93598e3c849801011dee649a6a557d10380546060917fa16a46d94261c7517cc8ff89f61c0ce93598e3c849801011dee649a6a557d1009161102290616c1a565b5f610db643614871565b5f61390c61298e565b6040517f3a46b1a800000000000000000000000000000000000000000000000000000000815273ffffffffffffffffffffffffffffffffffffffff8681166004830152602482018690529190911690633a46b1a890604401602060405180830381865afa15801561397f573d5f803e3d5ffd5b505050506040513d601f19601f82011682018060405250810190611cea9190616c03565b80545f9080156139f5576139c9836139bc600184616e41565b5f91825260209091200190565b546601000000000000900479ffffffffffffffffffffffffffffffffffffffffffffffffffff16611f21565b5f9392505050565b7f0d5829787b8befdbc6044ef7457d8a95c2a04bc99235349f1a212c063e59d40080546040805173ffffffffffffffffffffffffffffffffffffffff9283168152918416602083015280517f08f74ea46ef7894f65eabfb5e6e695de773a000b47c529ab559178069b2264019281900390910190a180547fffffffffffffffffffffffff00000000000000000000000000000000000000001673ffffffffffffffffffffffffffffffffffffffff92909216919091179055565b5f807ed7616c8fe29c6c2fbe1d0c5bc8f2faa4c35b43746e70b24b4d532752affd00612650565b606082613af357613aee82614b2d565b610ee5565b5080610ee5565b7ed7616c8fe29c6c2fbe1d0c5bc8f2faa4c35b43746e70b24b4d532752affd0063ffffffff82165f03613b5b576040517ff1cfbf050000000000000000000000000000000000000000000000000000000081525f6004820152602401611651565b60018101546040805163ffffffff66010000000000009093048316815291841660208301527f7e3f7f0708a84de9203036abaa450dccc85ad5ff52f78c170f3edb55cf5e8828910160405180910390a1600101805463ffffffff9092166601000000000000027fffffffffffffffffffffffffffffffffffffffffffff00000000ffffffffffff909216919091179055565b7ed7616c8fe29c6c2fbe1d0c5bc8f2faa4c35b43746e70b24b4d532752affd008054604080519182526020820184905280517fccb45da8d5717e6c4544694297c4ba5cf151d455c9bb0ed4fc7a38411bc054619281900390910190a155565b5f805f613c598686614b6f565b91509150815f03613c7d57838181613c7357613c73616e54565b0492505050611f21565b818411613c9457613c9460038515026011186141ca565b5f848688095f868103871696879004966002600389028118808a02820302808a02820302808a02820302808a02820302808a02820302808a02909103029181900381900460010185841190960395909502919093039390930492909217029150509392505050565b80545f906fffffffffffffffffffffffffffffffff808216917001000000000000000000000000000000009004168103613d3a57613d3a60316141ca565b6fffffffffffffffffffffffffffffffff8181165f908152600185810160205260408220805492905585547fffffffffffffffffffffffffffffffff00000000000000000000000000000000169301909116919091179092555090565b5f79ffffffffffffffffffffffffffffffffffffffffffffffffffff821115613df6576040517f6dfcc65000000000000000000000000000000000000000000000000000000000815260d0600482015260248101839052604401611651565b5090565b5f80613e07858585614baa565b915091505b935093915050565b613e1c614d6b565b612d63576040517fd7e6bcf800000000000000000000000000000000000000000000000000000000815260040160405180910390fd5b613e5a613e14565b7fa16a46d94261c7517cc8ff89f61c0ce93598e3c849801011dee649a6a557d1007fa16a46d94261c7517cc8ff89f61c0ce93598e3c849801011dee649a6a557d102613ea68482616ec5565b5060038101613eb58382616ec5565b505f8082556001909101555050565b613ecc613e14565b7f7c712897014dbe49c045ef1299aa2d5f9e67e48eea4403efa21f1e0f3ac0cb0080612dcc8382616ec5565b613f00613e14565b613f09836136a3565b613f1282613afa565b612dcc81613bed565b613f23613e14565b7f3ba4977254e415696610a40ebf2258dbfa0ec6a2ff64e84bfe715ff16977cc0080547fffffffffffffffffffffffff00000000000000000000000000000000000000001673ffffffffffffffffffffffffffffffffffffffff92909216919091179055565b610fe4613e14565b6123ad613e14565b7f0d5829787b8befdbc6044ef7457d8a95c2a04bc99235349f1a212c063e59d4008054604080517ff27a0c9200000000000000000000000000000000000000000000000000000000815290515f9392849273ffffffffffffffffffffffffffffffffffffffff9091169163f27a0c92916004808201926020929091908290030181865afa15801561402c573d5f803e3d5ffd5b505050506040513d601f19601f820116820180604052508101906140509190616c03565b90505f3060601b7fffffffffffffffffffffffffffffffffffffffff00000000000000000000000016851883546040517fb1c5f42700000000000000000000000000000000000000000000000000000000815291925073ffffffffffffffffffffffffffffffffffffffff169063b1c5f427906140d9908b908b908b905f908890600401616bb6565b602060405180830381865afa1580156140f4573d5f803e3d5ffd5b505050506040513d601f19601f820116820180604052508101906141189190616c03565b5f8a815260018501602052604080822092909255845491517f8f2a0bb000000000000000000000000000000000000000000000000000000000815273ffffffffffffffffffffffffffffffffffffffff90921691638f2a0bb091614189918c918c918c919088908a90600401616fdc565b5f604051808303815f87803b1580156141a0575f80fd5b505af11580156141b2573d5f803e3d5ffd5b50505050611ea082426141c59190617033565b614871565b634e487b715f52806020526024601cfd5b7f0d5829787b8befdbc6044ef7457d8a95c2a04bc99235349f1a212c063e59d40080546040517fe38335e500000000000000000000000000000000000000000000000000000000815273ffffffffffffffffffffffffffffffffffffffff9091169063e38335e5903490614282908990899089905f907fffffffffffffffffffffffffffffffffffffffff0000000000000000000000003060601b168b1890600401616bb6565b5f604051808303818588803b158015614299575f80fd5b505af11580156142ab573d5f803e3d5ffd5b5050505f9788525050600101602052505060408320929092555050565b5f8181527f7c712897014dbe49c045ef1299aa2d5f9e67e48eea4403efa21f1e0f3ac0cb016020526040812080547f7c712897014dbe49c045ef1299aa2d5f9e67e48eea4403efa21f1e0f3ac0cb00919060ff7e0100000000000000000000000000000000000000000000000000000000000082048116917f010000000000000000000000000000000000000000000000000000000000000090041681156143765750600795945050505050565b80156143885750600295945050505050565b5f8681527f7c712897014dbe49c045ef1299aa2d5f9e67e48eea4403efa21f1e0f3ac0cb01602052604081205474010000000000000000000000000000000000000000900465ffffffffffff169050805f03614413576040517f6ad0607500000000000000000000000000000000000000000000000000000000815260048101889052602401611651565b5f61441c6122b3565b65ffffffffffff16905080821061443a57505f979650505050505050565b5f6144448961245f565b905081811061445c5750600198975050505050505050565b61446589614d89565b1580614477575061447589614e2b565b155b1561448b5750600398975050505050505050565b5f8981527f7c712897014dbe49c045ef1299aa2d5f9e67e48eea4403efa21f1e0f3ac0cb01602052604090206001015465ffffffffffff165f036144d85750600498975050505050505050565b50600598975050505050505050565b5f7f0d5829787b8befdbc6044ef7457d8a95c2a04bc99235349f1a212c063e59d4008161451687878787614e6b565b5f818152600184016020526040902054909150801561142a5782546040517fc4d252f50000000000000000000000000000000000000000000000000000000081526004810183905273ffffffffffffffffffffffffffffffffffffffff9091169063c4d252f5906024015f604051808303815f87803b158015614597575f80fd5b505af11580156145a9573d5f803e3d5ffd5b5050505f8381526001850160205260408120555050915050949350505050565b6145d282614f71565b60405173ffffffffffffffffffffffffffffffffffffffff8316907fbc7cd75a20ee27fd9adebab32041f755214dbc6bffa90cc0225b39da2e5c2d3b905f90a280511561462357612dcc828261503f565b611c556150b5565b5f610db66150ed565b5f805f835160410361466b576020840151604085015160608601515f1a61465d88828585615160565b955095509550505050614676565b505081515f91506002905b9250925092565b5f805f8573ffffffffffffffffffffffffffffffffffffffff1685856040516024016146aa929190617046565b604080517fffffffffffffffffffffffffffffffffffffffffffffffffffffffffffffffe08184030181529181526020820180517bffffffffffffffffffffffffffffffffffffffffffffffffffffffff167f1626ba7e000000000000000000000000000000000000000000000000000000001790525161472b919061705e565b5f60405180830381855afa9150503d805f8114614763576040519150601f19603f3d011682016040523d82523d5f602084013e614768565b606091505b509150915081801561477c57506020815110155b8015611f7f575080517f1626ba7e00000000000000000000000000000000000000000000000000000000906147ba9083016020908101908401616c03565b149695505050505050565b5f825f036147f6576147f67f6e9a6fd600000000000000000000000000000000000000000000000000000000615253565b611f7f868686868661525b565b80545f9081908190808203614821575f805f93509350935050611cc4565b5f614831866139bc600185616e41565b546001955065ffffffffffff811694506601000000000000900479ffffffffffffffffffffffffffffffffffffffffffffffffffff169250611cc4915050565b5f65ffffffffffff821115613df6576040517f6dfcc6500000000000000000000000000000000000000000000000000000000081526030600482015260248101839052604401611651565b81545f9081816005811115614918575f6148d58461542b565b6148df9085616e41565b5f8881526020902090915081015465ffffffffffff908116908716101561490857809150614916565b614913816001617033565b92505b505b5f61492587878585615590565b905080156149685761493c876139bc600184616e41565b546601000000000000900479ffffffffffffffffffffffffffffffffffffffffffffffffffff16611b5d565b505f9695505050505050565b5f80845183118061498457508284115b1561499357505f905080613e0c565b5f61499f856001617033565b841180156149fa57507f30780000000000000000000000000000000000000000000000000000000000006149d68787016020015190565b7fffff00000000000000000000000000000000000000000000000000000000000016145b90505f614a0a8215156002617074565b614a15906028617033565b905080614a228787616e41565b03614a43575f80614a348989896155ef565b9096509450613e0c9350505050565b5f80935093505050613e0c565b5f7f7fd223d3380145bd26132714391e777c488a0df7ac2dd4b66419d8549fb3a60081614a8088888888886156e3565b8254600181810185555f8581526020808220909301849055604080516080810182528d81528085018d90528082018c90528a518b8601206060820152858352928701845290208151805194955091939092614adf928492910190615cc1565b506020828101518051614af89260018501920190615d45565b5060408201518051614b14916002840191602090910190615d7e565b5060609190910151600390910155979650505050505050565b805115614b3d5780518082602001fd5b6040517fd6bda27500000000000000000000000000000000000000000000000000000000815260040160405180910390fd5b5f807fffffffffffffffffffffffffffffffffffffffffffffffffffffffffffffffff83850993909202808410938190039390930393915050565b82545f9081908015614cfb575f614bc6876139bc600185616e41565b805490915065ffffffffffff808216916601000000000000900479ffffffffffffffffffffffffffffffffffffffffffffffffffff16908816821115614c38576040517f2520601d00000000000000000000000000000000000000000000000000000000815260040160405180910390fd5b8765ffffffffffff168265ffffffffffff1603614c8757825465ffffffffffff16660100000000000079ffffffffffffffffffffffffffffffffffffffffffffffffffff891602178355614ced565b6040805180820190915265ffffffffffff808a16825279ffffffffffffffffffffffffffffffffffffffffffffffffffff808a1660208085019182528d54600181018f555f8f815291909120945191519092166601000000000000029216919091179101555b9450859350613e0c92505050565b50506040805180820190915265ffffffffffff808516825279ffffffffffffffffffffffffffffffffffffffffffffffffffff80851660208085019182528854600181018a555f8a8152918220955192519093166601000000000000029190931617920191909155905081613e0c565b5f614d74612d33565b5468010000000000000000900460ff16919050565b5f8181527fa1cefa0f43667ef127a258e673c94202a79b656e62899531c4376d87a7f3980060208190526040822060028101546001820154614dcb9190617033565b5f8581527f7c712897014dbe49c045ef1299aa2d5f9e67e48eea4403efa21f1e0f3ac0cb016020526040902054614e219074010000000000000000000000000000000000000000900465ffffffffffff166128f9565b1115949350505050565b5f805f614e3784611c87565b5090925090505f6064614e4a8484617033565b614e55906033617074565b614e5f919061708b565b90911015949350505050565b5f7f7c712897014dbe49c045ef1299aa2d5f9e67e48eea4403efa21f1e0f3ac0cb0081614e9a878787876123b6565b9050614ee881614eaa6007612e04565b614eb46006612e04565b614ebe6002612e04565b6001614ecb6007826170c3565b614ed69060026171f5565b614ee09190616e41565b181818612e26565b505f8181526001830160205260409081902080547effffffffffffffffffffffffffffffffffffffffffffffffffffffffffffff167f0100000000000000000000000000000000000000000000000000000000000000179055517f789cf55be980739dad1d0699b93b58e806b51c9d96619bfa8fe0a28abaa7b30c9061187c9083815260200190565b8073ffffffffffffffffffffffffffffffffffffffff163b5f03614fd9576040517f4c9c8ce300000000000000000000000000000000000000000000000000000000815273ffffffffffffffffffffffffffffffffffffffff82166004820152602401611651565b7f360894a13ba1a3210667c828492db98dca3e2076cc3735a920a3ca505d382bbc80547fffffffffffffffffffffffff00000000000000000000000000000000000000001673ffffffffffffffffffffffffffffffffffffffff92909216919091179055565b60605f808473ffffffffffffffffffffffffffffffffffffffff1684604051615068919061705e565b5f60405180830381855af49150503d805f81146150a0576040519150601f19603f3d011682016040523d82523d5f602084013e6150a5565b606091505b50915091506123c3858383615a2d565b3415612d63576040517fb398979f00000000000000000000000000000000000000000000000000000000815260040160405180910390fd5b5f7f8b73c3c69bb8fe3d512ecc4cf759cc79239f7b179b0ffacaa9a75d522b39400f615117615abc565b61511f615b37565b60408051602081019490945283019190915260608201524660808201523060a082015260c00160405160208183030381529060405280519060200120905090565b5f80807f7fffffffffffffffffffffffffffffff5d576e7357a4501ddfe92f46681b20a084111561519957505f91506003905082615249565b604080515f808252602082018084528a905260ff891692820192909252606081018790526080810186905260019060a0016020604051602081039080840390855afa1580156151ea573d5f803e3d5ffd5b50506040517fffffffffffffffffffffffffffffffffffffffffffffffffffffffffffffffe0015191505073ffffffffffffffffffffffffffffffffffffffff811661524057505f925060019150829050615249565b92505f91508190505b9450945094915050565b805f5260045ffd5b5f8581527fa1cefa0f43667ef127a258e673c94202a79b656e62899531c4376d87a7f398006020818152604080842073ffffffffffffffffffffffffffffffffffffffff891685526003810190925283205460ff16156152ff576040517f71c6af4900000000000000000000000000000000000000000000000000000000815273ffffffffffffffffffffffffffffffffffffffff88166004820152602401611651565b73ffffffffffffffffffffffffffffffffffffffff87165f908152600382016020526040902080547fffffffffffffffffffffffffffffffffffffffffffffffffffffffffffffff0016600117905560ff86166153735784815f015f8282546153689190617033565b9091555061541f9050565b7fffffffffffffffffffffffffffffffffffffffffffffffffffffffffffffffff60ff8716016153b05784816001015f8282546153689190617033565b7ffffffffffffffffffffffffffffffffffffffffffffffffffffffffffffffffe60ff8716016153ed5784816002015f8282546153689190617033565b6040517f06b337c200000000000000000000000000000000000000000000000000000000815260040160405180910390fd5b50929695505050505050565b5f60018211615438575090565b816001700100000000000000000000000000000000821061545e5760809190911c9060401b5b6801000000000000000082106154795760409190911c9060201b5b64010000000082106154905760209190911c9060101b5b6201000082106154a55760109190911c9060081b5b61010082106154b95760089190911c9060041b5b601082106154cc5760049190911c9060021b5b600482106154d85760011b5b600302600190811c908185816154f0576154f0616e54565b048201901c9050600181858161550857615508616e54565b048201901c9050600181858161552057615520616e54565b048201901c9050600181858161553857615538616e54565b048201901c9050600181858161555057615550616e54565b048201901c9050600181858161556857615568616e54565b048201901c905061558781858161558157615581616e54565b04821190565b90039392505050565b5f5b818310156155e7575f6155a58484615b8c565b5f8781526020902090915065ffffffffffff86169082015465ffffffffffff1611156155d3578092506155e1565b6155de816001617033565b93505b50615592565b509392505050565b5f8084816155fe866001617033565b8511801561565957507f30780000000000000000000000000000000000000000000000000000000000006156358388016020015190565b7fffff00000000000000000000000000000000000000000000000000000000000016145b90505f6156698215156002617074565b90505f80615677838a617033565b90505b878110156156d2575f6156986156938784016020015190565b615ba6565b9050600f8160ff1611156156b7575f8097509750505050505050613e0c565b6156c2601084617074565b60ff90911601915060010161567a565b506001999098509650505050505050565b5f807f7c712897014dbe49c045ef1299aa2d5f9e67e48eea4403efa21f1e0f3ac0cb00905061571b87878787805190602001206123b6565b91508551875114158061573057508451875114155b8061573a57508651155b15615788578651855187516040517f447b05d0000000000000000000000000000000000000000000000000000000008152600481019390935260248301919091526044820152606401611651565b5f82815260018201602052604090205474010000000000000000000000000000000000000000900465ffffffffffff16156157fd57816157c7836118f2565b6040517f31b75e4d0000000000000000000000000000000000000000000000000000000081526116519291905f90600401616da0565b5f61582d7ed7616c8fe29c6c2fbe1d0c5bc8f2faa4c35b43746e70b24b4d532752affd015465ffffffffffff1690565b6158356122b3565b65ffffffffffff166158479190617033565b90505f6158827ed7616c8fe29c6c2fbe1d0c5bc8f2faa4c35b43746e70b24b4d532752affd015463ffffffff66010000000000009091041690565b5f858152600185016020526040902080547fffffffffffffffffffffffff00000000000000000000000000000000000000001673ffffffffffffffffffffffffffffffffffffffff88161781559091506158db83614871565b815465ffffffffffff9190911674010000000000000000000000000000000000000000027fffffffffffff000000000000ffffffffffffffffffffffffffffffffffffffff90911617815561592f82615c78565b815463ffffffff919091167a010000000000000000000000000000000000000000000000000000027fffff00000000ffffffffffffffffffffffffffffffffffffffffffffffffffff90911617815589517f7d84a6263ae0d98d3329bd7b46bb4e8d6f98cd35a7adb45c274c8b7fd5ebd5e090869088908d908d9067ffffffffffffffff8111156159c2576159c2615f0a565b6040519080825280602002602001820160405280156159f557816020015b60608152602001906001900390816159e05790505b508d89615a028a82617033565b8f604051615a1899989796959493929190617203565b60405180910390a15050505095945050505050565b606082615a4257615a3d82614b2d565b611f21565b8151158015615a66575073ffffffffffffffffffffffffffffffffffffffff84163b155b15615ab5576040517f9996b31500000000000000000000000000000000000000000000000000000000815273ffffffffffffffffffffffffffffffffffffffff85166004820152602401611651565b5080611f21565b5f7fa16a46d94261c7517cc8ff89f61c0ce93598e3c849801011dee649a6a557d10081615ae7613857565b805190915015615aff57805160209091012092915050565b81548015615b0e579392505050565b7fc5d2460186f7233c927e7db2dcc703c0e500b653ca82273b7bfad8045d85a470935050505090565b5f7fa16a46d94261c7517cc8ff89f61c0ce93598e3c849801011dee649a6a557d10081615b626138a8565b805190915015615b7a57805160209091012092915050565b60018201548015615b0e579392505050565b5f615b9a600284841861708b565b611f2190848416617033565b5f60f882901c602f81118015615bbf5750603a8160ff16105b15615beb577fffffffffffffffffffffffffffffffffffffffffffffffffffffffffffffffd001610ee5565b60608160ff16118015615c01575060678160ff16105b15615c2d577fffffffffffffffffffffffffffffffffffffffffffffffffffffffffffffffa901610ee5565b60408160ff16118015615c43575060478160ff16105b15615c6f577fffffffffffffffffffffffffffffffffffffffffffffffffffffffffffffffc901610ee5565b5060ff92915050565b5f63ffffffff821115613df6576040517f6dfcc6500000000000000000000000000000000000000000000000000000000081526020600482015260248101839052604401611651565b828054828255905f5260205f20908101928215615d39579160200282015b82811115615d3957825182547fffffffffffffffffffffffff00000000000000000000000000000000000000001673ffffffffffffffffffffffffffffffffffffffff909116178255602090920191600190910190615cdf565b50613df6929150615dce565b828054828255905f5260205f20908101928215615d39579160200282015b82811115615d39578251825591602001919060010190615d63565b828054828255905f5260205f20908101928215615dc2579160200282015b82811115615dc25782518290615db29082616ec5565b5091602001919060010190615d9c565b50613df6929150615de2565b5b80821115613df6575f8155600101615dcf565b80821115613df6575f615df58282615dfe565b50600101615de2565b508054615e0a90616c1a565b5f825580601f10615e19575050565b601f0160209004905f5260205f2090810190610fed9190615dce565b5f60208284031215615e45575f80fd5b81357fffffffff0000000000000000000000000000000000000000000000000000000081168114611f21575f80fd5b5f60208284031215615e84575f80fd5b5035919050565b5f81518084528060208401602086015e5f6020828601015260207fffffffffffffffffffffffffffffffffffffffffffffffffffffffffffffffe0601f83011685010191505092915050565b602081525f611f216020830184615e8b565b73ffffffffffffffffffffffffffffffffffffffff81168114610fed575f80fd5b7f4e487b71000000000000000000000000000000000000000000000000000000005f52604160045260245ffd5b604051601f82017fffffffffffffffffffffffffffffffffffffffffffffffffffffffffffffffe016810167ffffffffffffffff81118282101715615f7e57615f7e615f0a565b604052919050565b65ffffffffffff81168114610fed575f80fd5b803563ffffffff81168114611c35575f80fd5b5f805f83850360c0811215615fbf575f80fd5b8435615fca81615ee9565b93506020850135615fda81615ee9565b925060807fffffffffffffffffffffffffffffffffffffffffffffffffffffffffffffffc08201121561600b575f80fd5b506040516080810167ffffffffffffffff8111828210171561602f5761602f615f0a565b6040908152850135815260608501356020820152608085013561605181615f86565b604082015261606260a08601615f99565b6060820152809150509250925092565b5f67ffffffffffffffff82111561608b5761608b615f0a565b50601f017fffffffffffffffffffffffffffffffffffffffffffffffffffffffffffffffe01660200190565b5f6160c96160c484616072565b615f37565b90508281528383830111156160dc575f80fd5b828260208301375f602084830101529392505050565b5f82601f830112616101575f80fd5b611f21838335602085016160b7565b5f805f8060808587031215616123575f80fd5b843561612e81615ee9565b9350602085013561613e81615ee9565b925060408501359150606085013567ffffffffffffffff811115616160575f80fd5b61616c878288016160f2565b91505092959194509250565b5f67ffffffffffffffff82111561619157616191615f0a565b5060051b60200190565b5f82601f8301126161aa575f80fd5b81356161b86160c482616178565b8082825260208201915060208360051b8601019250858311156161d9575f80fd5b602085015b838110156161ff5780356161f181615ee9565b8352602092830192016161de565b5095945050505050565b5f82601f830112616218575f80fd5b81356162266160c482616178565b8082825260208201915060208360051b860101925085831115616247575f80fd5b602085015b838110156161ff57803583526020928301920161624c565b5f82601f830112616273575f80fd5b81356162816160c482616178565b8082825260208201915060208360051b8601019250858311156162a2575f80fd5b602085015b838110156161ff57803567ffffffffffffffff8111156162c5575f80fd5b6162d4886020838a01016160f2565b845250602092830192016162a7565b5f805f80608085870312156162f6575f80fd5b843567ffffffffffffffff81111561630c575f80fd5b6163188782880161619b565b945050602085013567ffffffffffffffff811115616334575f80fd5b61634087828801616209565b935050604085013567ffffffffffffffff81111561635c575f80fd5b61636887828801616264565b949793965093946060013593505050565b5f8151808452602084019350602083015f5b828110156163bf57815173ffffffffffffffffffffffffffffffffffffffff1686526020958601959091019060010161638b565b5093949350505050565b5f8151808452602084019350602083015f5b828110156163bf5781518652602095860195909101906001016163db565b5f82825180855260208501945060208160051b830101602085015f5b83811015616465577fffffffffffffffffffffffffffffffffffffffffffffffffffffffffffffffe085840301885261644f838351615e8b565b6020988901989093509190910190600101616415565b50909695505050505050565b608081525f6164836080830187616379565b828103602084015261649581876163c9565b905082810360408401526164a981866163f9565b91505082606083015295945050505050565b85815260a060208201525f6164d360a0830187616379565b82810360408401526164e581876163c9565b905082810360608401526164f981866163f9565b9150508260808301529695505050505050565b7f4e487b71000000000000000000000000000000000000000000000000000000005f52602160045260245ffd5b6008811061656e577f4e487b71000000000000000000000000000000000000000000000000000000005f52602160045260245ffd5b9052565b60208101610ee58284616539565b5f8060408385031215616591575f80fd5b8235915060208301356165a381615ee9565b809150509250929050565b5f80604083850312156165bf575f80fd5b82356165ca81615ee9565b9150602083013567ffffffffffffffff8111156165e5575f80fd5b6165f1858286016160f2565b9150509250929050565b803560ff81168114611c35575f80fd5b5f806040838503121561661c575f80fd5b8235915061662c602084016165fb565b90509250929050565b5f8083601f840112616645575f80fd5b50813567ffffffffffffffff81111561665c575f80fd5b602083019150836020828501011115616673575f80fd5b9250929050565b5f805f805f805f60c0888a031215616690575f80fd5b873596506166a0602089016165fb565b955060408801356166b081615ee9565b9450606088013567ffffffffffffffff8111156166cb575f80fd5b6166d78a828b01616635565b909550935050608088013567ffffffffffffffff8111156166f6575f80fd5b6167028a828b016160f2565b92505060a088013567ffffffffffffffff81111561671e575f80fd5b61672a8a828b016160f2565b91505092959891949750929550565b5f805f805f6080868803121561674d575f80fd5b8535945061675d602087016165fb565b9350604086013567ffffffffffffffff811115616778575f80fd5b61678488828901616635565b909450925050606086013567ffffffffffffffff8111156167a3575f80fd5b6167af888289016160f2565b9150509295509295909350565b5f602082840312156167cc575f80fd5b8135611f2181615f86565b5f805f80606085870312156167ea575f80fd5b843593506167fa602086016165fb565b9250604085013567ffffffffffffffff811115616815575f80fd5b61682187828801616635565b95989497509550505050565b5f805f8060808587031215616840575f80fd5b843567ffffffffffffffff811115616856575f80fd5b6168628782880161619b565b945050602085013567ffffffffffffffff81111561687e575f80fd5b61688a87828801616209565b935050604085013567ffffffffffffffff8111156168a6575f80fd5b6168b287828801616264565b925050606085013567ffffffffffffffff8111156168ce575f80fd5b8501601f810187136168de575f80fd5b61616c878235602084016160b7565b5f602082840312156168fd575f80fd5b8135611f2181615ee9565b7fff000000000000000000000000000000000000000000000000000000000000008816815260e060208201525f61694260e0830189615e8b565b82810360408401526169548189615e8b565b905086606084015273ffffffffffffffffffffffffffffffffffffffff861660808401528460a084015282810360c084015261699081856163c9565b9a9950505050505050505050565b5f805f80608085870312156169b1575f80fd5b843593506169c1602086016165fb565b925060408501356169d181615ee9565b9150606085013567ffffffffffffffff811115616160575f80fd5b5f805f606084860312156169fe575f80fd5b8335616a0981615ee9565b925060208401359150604084013567ffffffffffffffff811115616a2b575f80fd5b616a37868287016160f2565b9150509250925092565b5f805f805f60a08688031215616a55575f80fd5b8535616a6081615ee9565b94506020860135616a7081615ee9565b9350604086013567ffffffffffffffff811115616a8b575f80fd5b616a9788828901616209565b935050606086013567ffffffffffffffff811115616ab3575f80fd5b616abf88828901616209565b925050608086013567ffffffffffffffff8111156167a3575f80fd5b5f805f8060608587031215616aee575f80fd5b8435616af981615ee9565b935060208501359250604085013567ffffffffffffffff811115616815575f80fd5b5f60208284031215616b2b575f80fd5b611f2182615f99565b5f8060408385031215616b45575f80fd5b8235616b5081615ee9565b946020939093013593505050565b5f805f805f60a08688031215616b72575f80fd5b8535616b7d81615ee9565b94506020860135616b8d81615ee9565b93506040860135925060608601359150608086013567ffffffffffffffff8111156167a3575f80fd5b60a081525f616bc860a0830188616379565b8281036020840152616bda81886163c9565b90508281036040840152616bee81876163f9565b60608401959095525050608001529392505050565b5f60208284031215616c13575f80fd5b5051919050565b600181811c90821680616c2e57607f821691505b602082108103616c65577f4e487b71000000000000000000000000000000000000000000000000000000005f52602260045260245ffd5b50919050565b7f4e487b71000000000000000000000000000000000000000000000000000000005f52603260045260245ffd5b5f60208284031215616ca8575f80fd5b815167ffffffffffffffff811115616cbe575f80fd5b8201601f81018413616cce575f80fd5b8051616cdc6160c482616072565b818152856020838501011115616cf0575f80fd5b8160208401602083015e5f91810160200191909152949350505050565b818382375f9101908152919050565b7f4e487b71000000000000000000000000000000000000000000000000000000005f52601160045260245ffd5b65ffffffffffff8281168282160390811115610ee557610ee5616d1c565b5f60208284031215616d77575f80fd5b8151611f2181615f86565b65ffffffffffff8181168382160190811115610ee557610ee5616d1c565b83815260608101616db46020830185616539565b826040830152949350505050565b5f60208284031215616dd2575f80fd5b81518015158114611f21575f80fd5b84815260ff84166020820152826040820152608060608201525f611f7f6080830184615e8b565b85815260ff8516602082015283604082015260a060608201525f616e2f60a0830185615e8b565b8281036080840152610fd08185615e8b565b81810381811115610ee557610ee5616d1c565b7f4e487b71000000000000000000000000000000000000000000000000000000005f52601260045260245ffd5b601f821115612dcc57805f5260205f20601f840160051c81016020851015616ea65750805b601f840160051c820191505b81811015612f24575f8155600101616eb2565b815167ffffffffffffffff811115616edf57616edf615f0a565b616ef381616eed8454616c1a565b84616e81565b6020601f821160018114616f44575f8315616f0e5750848201515b7fffffffffffffffffffffffffffffffffffffffffffffffffffffffffffffffff600385901b1c1916600184901b178455612f24565b5f848152602081207fffffffffffffffffffffffffffffffffffffffffffffffffffffffffffffffe08516915b82811015616f915787850151825560209485019460019092019101616f71565b5084821015616fcd57868401517fffffffffffffffffffffffffffffffffffffffffffffffffffffffffffffffff600387901b60f8161c191681555b50505050600190811b01905550565b60c081525f616fee60c0830189616379565b828103602084015261700081896163c9565b9050828103604084015261701481886163f9565b60608401969096525050608081019290925260a0909101529392505050565b80820180821115610ee557610ee5616d1c565b828152604060208201525f611cea6040830184615e8b565b5f82518060208501845e5f920191825250919050565b8082028115828204841417610ee557610ee5616d1c565b5f826170be577f4e487b71000000000000000000000000000000000000000000000000000000005f52601260045260245ffd5b500490565b60ff8181168382160190811115610ee557610ee5616d1c565b6001815b6001841115613e0c578085048111156170fb576170fb616d1c565b600184161561710957908102905b60019390931c9280026170e0565b5f8261712557506001610ee5565b8161713157505f610ee5565b816001811461714757600281146171515761716d565b6001915050610ee5565b60ff84111561716257617162616d1c565b50506001821b610ee5565b5060208310610133831016604e8410600b8410161715617190575081810a610ee5565b6171bb7fffffffffffffffffffffffffffffffffffffffffffffffffffffffffffffffff84846170dc565b807fffffffffffffffffffffffffffffffffffffffffffffffffffffffffffffffff048211156171ed576171ed616d1c565b029392505050565b5f611f2160ff841683617117565b89815273ffffffffffffffffffffffffffffffffffffffff8916602082015261012060408201525f61723961012083018a616379565b828103606084015261724b818a6163c9565b9050828103608084015280885180835260208301915060208160051b84010160208b015f5b838110156172c0577fffffffffffffffffffffffffffffffffffffffffffffffffffffffffffffffe08684030185526172aa838351615e8b565b6020958601959093509190910190600101617270565b505085810360a08701526172d4818b6163f9565b93505050508560c08401528460e08401528281036101008401526172f88185615e8b565b9c9b50505050505050505050505056fea164736f6c634300081a000a60a060405230608052348015610013575f80fd5b5061001c610021565b6100d3565b7ff0c57e16840df040f15088dc2f81fe391c3923bec73e23a9662efc9c229c6a00805468010000000000000000900460ff16156100715760405163f92ee8a960e01b815260040160405180910390fd5b80546001600160401b03908116146100d05780546001600160401b0319166001600160401b0390811782556040519081527fc7f505b2f371ae2175ee4913f4499e1f2633a7b5936321eed1cdaeb6115181d29060200160405180910390a15b50565b608051612c126100f95f395f81816117fa015281816118230152611a430152612c125ff3fe6080604052600436106101de575f3560e01c80638065657f116100fd578063bc197c8111610092578063d547741f11610062578063d547741f146106e6578063e38335e514610705578063f23a6e6114610718578063f27a0c921461075c575f80fd5b8063bc197c811461061a578063c4c4c7b31461065e578063c4d252f51461067d578063d45c44351461069c575f80fd5b8063a217fddf116100cd578063a217fddf14610560578063ad3cb1cc14610573578063b08e51c0146105c8578063b1c5f427146105fb575f80fd5b80638065657f1461047f5780638f2a0bb01461049e5780638f61f4f5146104bd57806391d14854146104f0575f80fd5b80632f2ff15d1161017357806352d1902d1161014357806352d1902d14610401578063584b153e1461041557806364d62353146104345780637958004c14610453575f80fd5b80632f2ff15d1461039157806331d50750146103b057806336568abe146103cf5780634f1ef286146103ee575f80fd5b806313bc9f20116101ae57806313bc9f2014610292578063150b7a02146102b1578063248a9ca3146103255780632ab0f52914610372575f80fd5b806301d5062a146101e957806301ffc9a71461020a57806307bd02651461023e578063134008d31461027f575f80fd5b366101e557005b5f80fd5b3480156101f4575f80fd5b506102086102033660046120a8565b61078f565b005b348015610215575f80fd5b50610229610224366004612117565b610863565b60405190151581526020015b60405180910390f35b348015610249575f80fd5b506102717fd8aa0f3194971a2a116679f7c2090f6939c8d4e01a2a8d7e41d55e5351469e6381565b604051908152602001610235565b61020861028d366004612156565b610873565b34801561029d575f80fd5b506102296102ac3660046121bd565b610968565b3480156102bc575f80fd5b506102f46102cb3660046122da565b7f150b7a0200000000000000000000000000000000000000000000000000000000949350505050565b6040517fffffffff000000000000000000000000000000000000000000000000000000009091168152602001610235565b348015610330575f80fd5b5061027161033f3660046121bd565b5f9081527f02dd7bc7dec4dceedda775e58dd541e08a116c6c53815c0bd028192f7b626800602052604090206001015490565b34801561037d575f80fd5b5061022961038c3660046121bd565b61098d565b34801561039c575f80fd5b506102086103ab36600461233e565b610995565b3480156103bb575f80fd5b506102296103ca3660046121bd565b6109de565b3480156103da575f80fd5b506102086103e936600461233e565b610a02565b6102086103fc366004612368565b610a60565b34801561040c575f80fd5b50610271610a7f565b348015610420575f80fd5b5061022961042f3660046121bd565b610aad565b34801561043f575f80fd5b5061020861044e3660046121bd565b610af2565b34801561045e575f80fd5b5061047261046d3660046121bd565b610baf565b60405161023591906123e0565b34801561048a575f80fd5b50610271610499366004612156565b610c16565b3480156104a9575f80fd5b506102086104b8366004612460565b610c54565b3480156104c8575f80fd5b506102717fb09aa5aeb3702cfd50b6b62bc4532604938f21248a27a1d5ca736082b6819cc181565b3480156104fb575f80fd5b5061022961050a36600461233e565b5f9182527f02dd7bc7dec4dceedda775e58dd541e08a116c6c53815c0bd028192f7b6268006020908152604080842073ffffffffffffffffffffffffffffffffffffffff93909316845291905290205460ff1690565b34801561056b575f80fd5b506102715f81565b34801561057e575f80fd5b506105bb6040518060400160405280600581526020017f352e302e3000000000000000000000000000000000000000000000000000000081525081565b6040516102359190612515565b3480156105d3575f80fd5b506102717ffd643c72710c63c0180259aba6b2d05451e3591a24e58b62239378085726f78381565b348015610606575f80fd5b50610271610615366004612568565b610df6565b348015610625575f80fd5b506102f46106343660046126a2565b7fbc197c810000000000000000000000000000000000000000000000000000000095945050505050565b348015610669575f80fd5b506102086106783660046127b3565b610e3a565b348015610688575f80fd5b506102086106973660046121bd565b610fa8565b3480156106a7575f80fd5b506102716106b63660046121bd565b5f9081527f9a37c2aa9d186a0969ff8a8267bf4e07e864c2f2768f5040949e28a624fb3600602052604090205490565b3480156106f1575f80fd5b5061020861070036600461233e565b61108d565b610208610713366004612568565b6110d0565b348015610723575f80fd5b506102f4610732366004612831565b7ff23a6e610000000000000000000000000000000000000000000000000000000095945050505050565b348015610767575f80fd5b507f9a37c2aa9d186a0969ff8a8267bf4e07e864c2f2768f5040949e28a624fb360154610271565b7fb09aa5aeb3702cfd50b6b62bc4532604938f21248a27a1d5ca736082b6819cc16107b9816112aa565b5f6107c8898989898989610c16565b90506107d481846112b7565b5f817f4cf4410cc57040e44862ef0f45f3dd5a5e02db8eb8add648d4b0e236f1d07dca8b8b8b8b8b8a60405161080f969594939291906128cc565b60405180910390a3831561085857807f20fda5fd27a1ea7bf5b9567f143ac5470bb059374a27e8f67cb44f946f6d03878560405161084f91815260200190565b60405180910390a25b505050505050505050565b5f61086d826113bb565b92915050565b5f80527f52fce5e8a5d0d9e8d1ea29f4525e512e9c27bf92cae50374d497f918ab48f3826020527fdd1864c1ab258d549957f6a4d7e3a5005661df58241dbbc1700fb170ef061546547fd8aa0f3194971a2a116679f7c2090f6939c8d4e01a2a8d7e41d55e5351469e639060ff166108ef576108ef8133611410565b5f6108fe888888888888610c16565b905061090a81856114b6565b6109168888888861151d565b5f817fc2617efa69bab66782fa219543714338489c4e9e178271560a91b82c3f612b588a8a8a8a60405161094d9493929190612916565b60405180910390a361095e8161159e565b5050505050505050565b5f60025b61097583610baf565b6003811115610986576109866123b3565b1492915050565b5f600361096c565b5f8281527f02dd7bc7dec4dceedda775e58dd541e08a116c6c53815c0bd028192f7b62680060205260409020600101546109ce816112aa565b6109d883836115e8565b50505050565b5f806109e983610baf565b60038111156109fa576109fa6123b3565b141592915050565b73ffffffffffffffffffffffffffffffffffffffff81163314610a51576040517f6697b23200000000000000000000000000000000000000000000000000000000815260040160405180910390fd5b610a5b8282611706565b505050565b610a686117e2565b610a71826118e8565b610a7b82826118f2565b5050565b5f610a88611a2b565b507f360894a13ba1a3210667c828492db98dca3e2076cc3735a920a3ca505d382bbc90565b5f80610ab883610baf565b90506001816003811115610ace57610ace6123b3565b1480610aeb57506002816003811115610ae957610ae96123b3565b145b9392505050565b7f9a37c2aa9d186a0969ff8a8267bf4e07e864c2f2768f5040949e28a624fb360033308114610b6a576040517fe2850c5900000000000000000000000000000000000000000000000000000000815273ffffffffffffffffffffffffffffffffffffffff821660048201526024015b60405180910390fd5b600182015460408051918252602082018590527f11c24f4ead16507c69ac467fbd5e4eed5fb5c699626d2cc6d66421df253886d5910160405180910390a15060010155565b5f8181527f9a37c2aa9d186a0969ff8a8267bf4e07e864c2f2768f5040949e28a624fb36006020526040812054805f03610beb57505f92915050565b60018103610bfc5750600392915050565b42811115610c0d5750600192915050565b50600292915050565b5f868686868686604051602001610c32969594939291906128cc565b6040516020818303038152906040528051906020012090509695505050505050565b7fb09aa5aeb3702cfd50b6b62bc4532604938f21248a27a1d5ca736082b6819cc1610c7e816112aa565b8887141580610c8d5750888514155b15610cd5576040517fffb03211000000000000000000000000000000000000000000000000000000008152600481018a90526024810186905260448101889052606401610b61565b5f610ce68b8b8b8b8b8b8b8b610df6565b9050610cf281846112b7565b5f5b8a811015610da75780827f4cf4410cc57040e44862ef0f45f3dd5a5e02db8eb8add648d4b0e236f1d07dca8e8e85818110610d3157610d31612955565b9050602002016020810190610d469190612982565b8d8d86818110610d5857610d58612955565b905060200201358c8c87818110610d7157610d71612955565b9050602002810190610d83919061299b565b8c8b604051610d97969594939291906128cc565b60405180910390a3600101610cf4565b508315610de957807f20fda5fd27a1ea7bf5b9567f143ac5470bb059374a27e8f67cb44f946f6d038785604051610de091815260200190565b60405180910390a25b5050505050505050505050565b5f8888888888888888604051602001610e16989796959493929190612acc565b60405160208183030381529060405280519060200120905098975050505050505050565b5f610e43611a9a565b805490915060ff68010000000000000000820416159067ffffffffffffffff165f81158015610e6f5750825b90505f8267ffffffffffffffff166001148015610e8b5750303b155b905081158015610e99575080155b15610ed0576040517ff92ee8a900000000000000000000000000000000000000000000000000000000815260040160405180910390fd5b84547fffffffffffffffffffffffffffffffffffffffffffffffff00000000000000001660011785558315610f315784547fffffffffffffffffffffffffffffffffffffffffffffff00ffffffffffffffff16680100000000000000001785555b610f3d89898989611ac2565b83156108585784547fffffffffffffffffffffffffffffffffffffffffffffff00ffffffffffffffff168555604051600181527fc7f505b2f371ae2175ee4913f4499e1f2633a7b5936321eed1cdaeb6115181d29060200160405180910390a1505050505050505050565b7ffd643c72710c63c0180259aba6b2d05451e3591a24e58b62239378085726f783610fd2816112aa565b7f9a37c2aa9d186a0969ff8a8267bf4e07e864c2f2768f5040949e28a624fb3600610ffc83610aad565b611051578261100b6002611ad6565b6110156001611ad6565b6040517f5ead8eb50000000000000000000000000000000000000000000000000000000081526004810193909352176024820152604401610b61565b5f838152602082905260408082208290555184917fbaa1eb22f2a492ba1a5fea61b8df4d27c6c8b5f3971e63bb58fa14ff72eedb7091a2505050565b5f8281527f02dd7bc7dec4dceedda775e58dd541e08a116c6c53815c0bd028192f7b62680060205260409020600101546110c6816112aa565b6109d88383611706565b5f80527f52fce5e8a5d0d9e8d1ea29f4525e512e9c27bf92cae50374d497f918ab48f3826020527fdd1864c1ab258d549957f6a4d7e3a5005661df58241dbbc1700fb170ef061546547fd8aa0f3194971a2a116679f7c2090f6939c8d4e01a2a8d7e41d55e5351469e639060ff1661114c5761114c8133611410565b878614158061115b5750878414155b156111a3576040517fffb03211000000000000000000000000000000000000000000000000000000008152600481018990526024810185905260448101879052606401610b61565b5f6111b48a8a8a8a8a8a8a8a610df6565b90506111c081856114b6565b5f5b89811015611294575f8b8b838181106111dd576111dd612955565b90506020020160208101906111f29190612982565b90505f8a8a8481811061120757611207612955565b905060200201359050365f8a8a8681811061122457611224612955565b9050602002810190611236919061299b565b915091506112468484848461151d565b84867fc2617efa69bab66782fa219543714338489c4e9e178271560a91b82c3f612b588686868660405161127d9493929190612916565b60405180910390a3505050508060010190506111c2565b5061129e8161159e565b50505050505050505050565b6112b48133611410565b50565b7f9a37c2aa9d186a0969ff8a8267bf4e07e864c2f2768f5040949e28a624fb36006112e1836109de565b1561132b57826112f05f611ad6565b6040517f5ead8eb500000000000000000000000000000000000000000000000000000000815260048101929092526024820152604401610b61565b5f6113547f9a37c2aa9d186a0969ff8a8267bf4e07e864c2f2768f5040949e28a624fb36015490565b90508083101561139a576040517f543366090000000000000000000000000000000000000000000000000000000081526004810184905260248101829052604401610b61565b6113a48342612b91565b5f9485526020929092525060409092209190915550565b5f7fffffffff0000000000000000000000000000000000000000000000000000000082167f4e2312e000000000000000000000000000000000000000000000000000000000148061086d575061086d82611af8565b5f8281527f02dd7bc7dec4dceedda775e58dd541e08a116c6c53815c0bd028192f7b6268006020908152604080832073ffffffffffffffffffffffffffffffffffffffff8516845290915290205460ff16610a7b576040517fe2517d3f00000000000000000000000000000000000000000000000000000000815273ffffffffffffffffffffffffffffffffffffffff8216600482015260248101839052604401610b61565b6114bf82610968565b6114ce57816112f06002611ad6565b80158015906114e357506114e18161098d565b155b15610a7b576040517f90a9a61800000000000000000000000000000000000000000000000000000000815260048101829052602401610b61565b5f808573ffffffffffffffffffffffffffffffffffffffff16858585604051611547929190612bc9565b5f6040518083038185875af1925050503d805f8114611581576040519150601f19603f3d011682016040523d82523d5f602084013e611586565b606091505b50915091506115958282611b8e565b50505050505050565b7f9a37c2aa9d186a0969ff8a8267bf4e07e864c2f2768f5040949e28a624fb36006115c882610968565b6115d757816112f06002611ad6565b5f9182526020526040902060019055565b5f8281527f02dd7bc7dec4dceedda775e58dd541e08a116c6c53815c0bd028192f7b6268006020818152604080842073ffffffffffffffffffffffffffffffffffffffff8616855290915282205460ff166116fd575f8481526020828152604080832073ffffffffffffffffffffffffffffffffffffffff87168452909152902080547fffffffffffffffffffffffffffffffffffffffffffffffffffffffffffffff001660011790556116993390565b73ffffffffffffffffffffffffffffffffffffffff168373ffffffffffffffffffffffffffffffffffffffff16857f2f8788117e7eff1d82e926ec794901d17c78024a50270940304540a733656f0d60405160405180910390a4600191505061086d565b5f91505061086d565b5f8281527f02dd7bc7dec4dceedda775e58dd541e08a116c6c53815c0bd028192f7b6268006020818152604080842073ffffffffffffffffffffffffffffffffffffffff8616855290915282205460ff16156116fd575f8481526020828152604080832073ffffffffffffffffffffffffffffffffffffffff8716808552925280832080547fffffffffffffffffffffffffffffffffffffffffffffffffffffffffffffff0016905551339287917ff6391f5c32d9c69d2a47ea670b442974b53935d1edc7fd64eb21e047a839171b9190a4600191505061086d565b3073ffffffffffffffffffffffffffffffffffffffff7f00000000000000000000000000000000000000000000000000000000000000001614806118af57507f000000000000000000000000000000000000000000000000000000000000000073ffffffffffffffffffffffffffffffffffffffff166118967f360894a13ba1a3210667c828492db98dca3e2076cc3735a920a3ca505d382bbc5473ffffffffffffffffffffffffffffffffffffffff1690565b73ffffffffffffffffffffffffffffffffffffffff1614155b156118e6576040517fe07c8dba00000000000000000000000000000000000000000000000000000000815260040160405180910390fd5b565b5f610a7b816112aa565b8173ffffffffffffffffffffffffffffffffffffffff166352d1902d6040518163ffffffff1660e01b8152600401602060405180830381865afa925050508015611977575060408051601f3d9081017fffffffffffffffffffffffffffffffffffffffffffffffffffffffffffffffe016820190925261197491810190612bd8565b60015b6119c5576040517f4c9c8ce300000000000000000000000000000000000000000000000000000000815273ffffffffffffffffffffffffffffffffffffffff83166004820152602401610b61565b7f360894a13ba1a3210667c828492db98dca3e2076cc3735a920a3ca505d382bbc8114611a21576040517faa1d49a400000000000000000000000000000000000000000000000000000000815260048101829052602401610b61565b610a5b8383611baa565b3073ffffffffffffffffffffffffffffffffffffffff7f000000000000000000000000000000000000000000000000000000000000000016146118e6576040517fe07c8dba00000000000000000000000000000000000000000000000000000000815260040160405180910390fd5b5f807ff0c57e16840df040f15088dc2f81fe391c3923bec73e23a9662efc9c229c6a0061086d565b611aca611c0c565b6109d884848484611c4a565b5f816003811115611ae957611ae96123b3565b600160ff919091161b92915050565b5f7fffffffff0000000000000000000000000000000000000000000000000000000082167f7965db0b00000000000000000000000000000000000000000000000000000000148061086d57507f01ffc9a7000000000000000000000000000000000000000000000000000000007fffffffff0000000000000000000000000000000000000000000000000000000083161461086d565b606082611ba357611b9e82611dc7565b61086d565b508061086d565b611bb382611e09565b60405173ffffffffffffffffffffffffffffffffffffffff8316907fbc7cd75a20ee27fd9adebab32041f755214dbc6bffa90cc0225b39da2e5c2d3b905f90a2805115611c0457610a5b8282611ed7565b610a7b611f56565b611c14611f8e565b6118e6576040517fd7e6bcf800000000000000000000000000000000000000000000000000000000815260040160405180910390fd5b611c52611c0c565b7f9a37c2aa9d186a0969ff8a8267bf4e07e864c2f2768f5040949e28a624fb3600611c7d5f306115e8565b5073ffffffffffffffffffffffffffffffffffffffff821615611ca657611ca45f836115e8565b505b5f5b8451811015611d3457611cf47fb09aa5aeb3702cfd50b6b62bc4532604938f21248a27a1d5ca736082b6819cc1868381518110611ce757611ce7612955565b60200260200101516115e8565b50611d2b7ffd643c72710c63c0180259aba6b2d05451e3591a24e58b62239378085726f783868381518110611ce757611ce7612955565b50600101611ca8565b505f5b8351811015611d7f57611d767fd8aa0f3194971a2a116679f7c2090f6939c8d4e01a2a8d7e41d55e5351469e63858381518110611ce757611ce7612955565b50600101611d37565b5060018101859055604080515f8152602081018790527f11c24f4ead16507c69ac467fbd5e4eed5fb5c699626d2cc6d66421df253886d5910160405180910390a15050505050565b805115611dd75780518082602001fd5b6040517fd6bda27500000000000000000000000000000000000000000000000000000000815260040160405180910390fd5b8073ffffffffffffffffffffffffffffffffffffffff163b5f03611e71576040517f4c9c8ce300000000000000000000000000000000000000000000000000000000815273ffffffffffffffffffffffffffffffffffffffff82166004820152602401610b61565b7f360894a13ba1a3210667c828492db98dca3e2076cc3735a920a3ca505d382bbc80547fffffffffffffffffffffffff00000000000000000000000000000000000000001673ffffffffffffffffffffffffffffffffffffffff92909216919091179055565b60605f808473ffffffffffffffffffffffffffffffffffffffff1684604051611f009190612bef565b5f60405180830381855af49150503d805f8114611f38576040519150601f19603f3d011682016040523d82523d5f602084013e611f3d565b606091505b5091509150611f4d858383611fac565b95945050505050565b34156118e6576040517fb398979f00000000000000000000000000000000000000000000000000000000815260040160405180910390fd5b5f611f97611a9a565b5468010000000000000000900460ff16919050565b606082611fc157611fbc82611dc7565b610aeb565b8151158015611fe5575073ffffffffffffffffffffffffffffffffffffffff84163b155b15612034576040517f9996b31500000000000000000000000000000000000000000000000000000000815273ffffffffffffffffffffffffffffffffffffffff85166004820152602401610b61565b5092915050565b803573ffffffffffffffffffffffffffffffffffffffff8116811461205e575f80fd5b919050565b5f8083601f840112612073575f80fd5b50813567ffffffffffffffff81111561208a575f80fd5b6020830191508360208285010111156120a1575f80fd5b9250929050565b5f805f805f805f60c0888a0312156120be575f80fd5b6120c78861203b565b965060208801359550604088013567ffffffffffffffff8111156120e9575f80fd5b6120f58a828b01612063565b989b979a50986060810135976080820135975060a09091013595509350505050565b5f60208284031215612127575f80fd5b81357fffffffff0000000000000000000000000000000000000000000000000000000081168114610aeb575f80fd5b5f805f805f8060a0878903121561216b575f80fd5b6121748761203b565b955060208701359450604087013567ffffffffffffffff811115612196575f80fd5b6121a289828a01612063565b979a9699509760608101359660809091013595509350505050565b5f602082840312156121cd575f80fd5b5035919050565b7f4e487b71000000000000000000000000000000000000000000000000000000005f52604160045260245ffd5b604051601f82017fffffffffffffffffffffffffffffffffffffffffffffffffffffffffffffffe016810167ffffffffffffffff81118282101715612248576122486121d4565b604052919050565b5f82601f83011261225f575f80fd5b813567ffffffffffffffff811115612279576122796121d4565b6122aa60207fffffffffffffffffffffffffffffffffffffffffffffffffffffffffffffffe0601f84011601612201565b8181528460208386010111156122be575f80fd5b816020850160208301375f918101602001919091529392505050565b5f805f80608085870312156122ed575f80fd5b6122f68561203b565b93506123046020860161203b565b925060408501359150606085013567ffffffffffffffff811115612326575f80fd5b61233287828801612250565b91505092959194509250565b5f806040838503121561234f575f80fd5b8235915061235f6020840161203b565b90509250929050565b5f8060408385031215612379575f80fd5b6123828361203b565b9150602083013567ffffffffffffffff81111561239d575f80fd5b6123a985828601612250565b9150509250929050565b7f4e487b71000000000000000000000000000000000000000000000000000000005f52602160045260245ffd5b6020810160048310612419577f4e487b71000000000000000000000000000000000000000000000000000000005f52602160045260245ffd5b91905290565b5f8083601f84011261242f575f80fd5b50813567ffffffffffffffff811115612446575f80fd5b6020830191508360208260051b85010111156120a1575f80fd5b5f805f805f805f805f60c08a8c031215612478575f80fd5b893567ffffffffffffffff81111561248e575f80fd5b61249a8c828d0161241f565b909a5098505060208a013567ffffffffffffffff8111156124b9575f80fd5b6124c58c828d0161241f565b90985096505060408a013567ffffffffffffffff8111156124e4575f80fd5b6124f08c828d0161241f565b9a9d999c50979a969997986060880135976080810135975060a0013595509350505050565b602081525f82518060208401528060208501604085015e5f6040828501015260407fffffffffffffffffffffffffffffffffffffffffffffffffffffffffffffffe0601f83011684010191505092915050565b5f805f805f805f8060a0898b03121561257f575f80fd5b883567ffffffffffffffff811115612595575f80fd5b6125a18b828c0161241f565b909950975050602089013567ffffffffffffffff8111156125c0575f80fd5b6125cc8b828c0161241f565b909750955050604089013567ffffffffffffffff8111156125eb575f80fd5b6125f78b828c0161241f565b999c989b509699959896976060870135966080013595509350505050565b5f67ffffffffffffffff82111561262e5761262e6121d4565b5060051b60200190565b5f82601f830112612647575f80fd5b813561265a61265582612615565b612201565b8082825260208201915060208360051b86010192508583111561267b575f80fd5b602085015b83811015612698578035835260209283019201612680565b5095945050505050565b5f805f805f60a086880312156126b6575f80fd5b6126bf8661203b565b94506126cd6020870161203b565b9350604086013567ffffffffffffffff8111156126e8575f80fd5b6126f488828901612638565b935050606086013567ffffffffffffffff811115612710575f80fd5b61271c88828901612638565b925050608086013567ffffffffffffffff811115612738575f80fd5b61274488828901612250565b9150509295509295909350565b5f82601f830112612760575f80fd5b813561276e61265582612615565b8082825260208201915060208360051b86010192508583111561278f575f80fd5b602085015b83811015612698576127a58161203b565b835260209283019201612794565b5f805f80608085870312156127c6575f80fd5b84359350602085013567ffffffffffffffff8111156127e3575f80fd5b6127ef87828801612751565b935050604085013567ffffffffffffffff81111561280b575f80fd5b61281787828801612751565b9250506128266060860161203b565b905092959194509250565b5f805f805f60a08688031215612845575f80fd5b61284e8661203b565b945061285c6020870161203b565b93506040860135925060608601359150608086013567ffffffffffffffff811115612738575f80fd5b81835281816020850137505f602082840101525f60207fffffffffffffffffffffffffffffffffffffffffffffffffffffffffffffffe0601f840116840101905092915050565b73ffffffffffffffffffffffffffffffffffffffff8716815285602082015260a060408201525f61290160a083018688612885565b60608301949094525060800152949350505050565b73ffffffffffffffffffffffffffffffffffffffff85168152836020820152606060408201525f61294b606083018486612885565b9695505050505050565b7f4e487b71000000000000000000000000000000000000000000000000000000005f52603260045260245ffd5b5f60208284031215612992575f80fd5b610aeb8261203b565b5f8083357fffffffffffffffffffffffffffffffffffffffffffffffffffffffffffffffe18436030181126129ce575f80fd5b83018035915067ffffffffffffffff8211156129e8575f80fd5b6020019150368190038213156120a1575f80fd5b5f8383855260208501945060208460051b820101835f5b86811015612ac0577fffffffffffffffffffffffffffffffffffffffffffffffffffffffffffffffe084840301885281357fffffffffffffffffffffffffffffffffffffffffffffffffffffffffffffffe1873603018112612a73575f80fd5b860160208101903567ffffffffffffffff811115612a8f575f80fd5b803603821315612a9d575f80fd5b612aa8858284612885565b60209a8b019a90955093909301925050600101612a13565b50909695505050505050565b60a080825281018890525f8960c08301825b8b811015612b195773ffffffffffffffffffffffffffffffffffffffff612b048461203b565b16825260209283019290910190600101612ade565b5083810360208501528881527f07ffffffffffffffffffffffffffffffffffffffffffffffffffffffffffffff891115612b51575f80fd5b8860051b9150818a60208301370182810360209081016040850152612b7990820187896129fc565b60608401959095525050608001529695505050505050565b8082018082111561086d577f4e487b71000000000000000000000000000000000000000000000000000000005f52601160045260245ffd5b818382375f9101908152919050565b5f60208284031215612be8575f80fd5b5051919050565b5f82518060208501845e5f92019182525091905056fea164736f6c634300081a000a60806040526040516103b43803806103b48339810160408190526100229161023c565b61002c8282610033565b5050610321565b61003c82610091565b6040516001600160a01b038316907fbc7cd75a20ee27fd9adebab32041f755214dbc6bffa90cc0225b39da2e5c2d3b905f90a280511561008557610080828261010c565b505050565b61008d61017f565b5050565b806001600160a01b03163b5f036100cb57604051634c9c8ce360e01b81526001600160a01b03821660048201526024015b60405180910390fd5b7f360894a13ba1a3210667c828492db98dca3e2076cc3735a920a3ca505d382bbc80546001600160a01b0319166001600160a01b0392909216919091179055565b60605f80846001600160a01b031684604051610128919061030b565b5f60405180830381855af49150503d805f8114610160576040519150601f19603f3d011682016040523d82523d5f602084013e610165565b606091505b5090925090506101768583836101a0565b95945050505050565b341561019e5760405163b398979f60e01b815260040160405180910390fd5b565b6060826101b5576101b0826101ff565b6101f8565b81511580156101cc57506001600160a01b0384163b155b156101f557604051639996b31560e01b81526001600160a01b03851660048201526024016100c2565b50805b9392505050565b80511561020f5780518082602001fd5b60405163d6bda27560e01b815260040160405180910390fd5b634e487b7160e01b5f52604160045260245ffd5b5f806040838503121561024d575f80fd5b82516001600160a01b0381168114610263575f80fd5b60208401519092506001600160401b0381111561027e575f80fd5b8301601f8101851361028e575f80fd5b80516001600160401b038111156102a7576102a7610228565b604051601f8201601f19908116603f011681016001600160401b03811182821017156102d5576102d5610228565b6040528181528282016020018710156102ec575f80fd5b8160208401602083015e5f602083830101528093505050509250929050565b5f82518060208501845e5f920191825250919050565b60878061032d5f395ff3fe6080604052600a600c565b005b60186014601a565b605d565b565b5f60587f360894a13ba1a3210667c828492db98dca3e2076cc3735a920a3ca505d382bbc5473ffffffffffffffffffffffffffffffffffffffff1690565b905090565b365f80375f80365f845af43d5f803e8080156076573d5ff35b3d5ffdfea164736f6c634300081a000a","linkReferences":{}},"methodIdentifiers":{"GOVERNOR()":"6dc0ae22","TIMELOCK_CONTROLLER()":"5d049c0a","_CREATE2_FACTORY()":"ecef2533"},"storageLayout":{"storage":[],"types":{}},"id":118}