{"abi":[{"type":"constructor","inputs":[],"stateMutability":"nonpayable"},{"type":"function","name":"DOMAIN_SEPARATOR","inputs":[],"outputs":[{"name":"result","type":"bytes32","internalType":"bytes32"}],"stateMutability":"view"},{"type":"function","name":"allowance","inputs":[{"name":"owner","type":"address","internalType":"address"},{"name":"spender","type":"address","internalType":"address"}],"outputs":[{"name":"result","type":"uint256","internalType":"uint256"}],"stateMutability":"view"},{"type":"function","name":"approve","inputs":[{"name":"spender","type":"address","internalType":"address"},{"name":"amount","type":"uint256","internalType":"uint256"}],"outputs":[{"name":"","type":"bool","internalType":"bool"}],"stateMutability":"nonpayable"},{"type":"function","name":"asset","inputs":[],"outputs":[{"name":"","type":"address","internalType":"address"}],"stateMutability":"view"},{"type":"function","name":"balanceOf","inputs":[{"name":"owner","type":"address","internalType":"address"}],"outputs":[{"name":"result","type":"uint256","internalType":"uint256"}],"stateMutability":"view"},{"type":"function","name":"convertToAssets","inputs":[{"name":"shares","type":"uint256","internalType":"uint256"}],"outputs":[{"name":"","type":"uint256","internalType":"uint256"}],"stateMutability":"view"},{"type":"function","name":"convertToShares","inputs":[{"name":"assets","type":"uint256","internalType":"uint256"}],"outputs":[{"name":"","type":"uint256","internalType":"uint256"}],"stateMutability":"view"},{"type":"function","name":"decimals","inputs":[],"outputs":[{"name":"","type":"uint8","internalType":"uint8"}],"stateMutability":"view"},{"type":"function","name":"deposit","inputs":[{"name":"assets","type":"uint256","internalType":"uint256"},{"name":"receiver","type":"address","internalType":"address"}],"outputs":[{"name":"","type":"uint256","internalType":"uint256"}],"stateMutability":"nonpayable"},{"type":"function","name":"factory","inputs":[],"outputs":[{"name":"","type":"address","internalType":"address"}],"stateMutability":"view"},{"type":"function","name":"initialize","inputs":[{"name":"asset_","type":"address","internalType":"address"},{"name":"_factory","type":"address","internalType":"address"}],"outputs":[],"stateMutability":"nonpayable"},{"type":"function","name":"maxDeposit","inputs":[{"name":"to","type":"address","internalType":"address"}],"outputs":[{"name":"maxAssets","type":"uint256","internalType":"uint256"}],"stateMutability":"view"},{"type":"function","name":"maxMint","inputs":[{"name":"to","type":"address","internalType":"address"}],"outputs":[{"name":"maxShares","type":"uint256","internalType":"uint256"}],"stateMutability":"view"},{"type":"function","name":"maxRedeem","inputs":[{"name":"owner","type":"address","internalType":"address"}],"outputs":[{"name":"maxShares","type":"uint256","internalType":"uint256"}],"stateMutability":"view"},{"type":"function","name":"maxWithdraw","inputs":[{"name":"owner","type":"address","internalType":"address"}],"outputs":[{"name":"maxAssets","type":"uint256","internalType":"uint256"}],"stateMutability":"view"},{"type":"function","name":"mint","inputs":[{"name":"shares","type":"uint256","internalType":"uint256"},{"name":"receiver","type":"address","internalType":"address"}],"outputs":[{"name":"","type":"uint256","internalType":"uint256"}],"stateMutability":"nonpayable"},{"type":"function","name":"name","inputs":[],"outputs":[{"name":"","type":"string","internalType":"string"}],"stateMutability":"view"},{"type":"function","name":"nonces","inputs":[{"name":"owner","type":"address","internalType":"address"}],"outputs":[{"name":"result","type":"uint256","internalType":"uint256"}],"stateMutability":"view"},{"type":"function","name":"pause","inputs":[],"outputs":[],"stateMutability":"nonpayable"},{"type":"function","name":"paused","inputs":[],"outputs":[{"name":"","type":"bool","internalType":"bool"}],"stateMutability":"view"},{"type":"function","name":"permit","inputs":[{"name":"owner","type":"address","internalType":"address"},{"name":"spender","type":"address","internalType":"address"},{"name":"value","type":"uint256","internalType":"uint256"},{"name":"deadline","type":"uint256","internalType":"uint256"},{"name":"v","type":"uint8","internalType":"uint8"},{"name":"r","type":"bytes32","internalType":"bytes32"},{"name":"s","type":"bytes32","internalType":"bytes32"}],"outputs":[],"stateMutability":"nonpayable"},{"type":"function","name":"previewDeposit","inputs":[{"name":"assets","type":"uint256","internalType":"uint256"}],"outputs":[{"name":"shares","type":"uint256","internalType":"uint256"}],"stateMutability":"view"},{"type":"function","name":"previewMint","inputs":[{"name":"shares","type":"uint256","internalType":"uint256"}],"outputs":[{"name":"assets","type":"uint256","internalType":"uint256"}],"stateMutability":"view"},{"type":"function","name":"previewRedeem","inputs":[{"name":"shares","type":"uint256","internalType":"uint256"}],"outputs":[{"name":"assets","type":"uint256","internalType":"uint256"}],"stateMutability":"view"},{"type":"function","name":"previewWithdraw","inputs":[{"name":"assets","type":"uint256","internalType":"uint256"}],"outputs":[{"name":"shares","type":"uint256","internalType":"uint256"}],"stateMutability":"view"},{"type":"function","name":"redeem","inputs":[{"name":"shares","type":"uint256","internalType":"uint256"},{"name":"receiver","type":"address","internalType":"address"},{"name":"owner","type":"address","internalType":"address"}],"outputs":[{"name":"","type":"uint256","internalType":"uint256"}],"stateMutability":"nonpayable"},{"type":"function","name":"symbol","inputs":[],"outputs":[{"name":"","type":"string","internalType":"string"}],"stateMutability":"view"},{"type":"function","name":"totalAssets","inputs":[],"outputs":[{"name":"","type":"uint256","internalType":"uint256"}],"stateMutability":"view"},{"type":"function","name":"totalSupply","inputs":[],"outputs":[{"name":"result","type":"uint256","internalType":"uint256"}],"stateMutability":"view"},{"type":"function","name":"transfer","inputs":[{"name":"to","type":"address","internalType":"address"},{"name":"amount","type":"uint256","internalType":"uint256"}],"outputs":[{"name":"","type":"bool","internalType":"bool"}],"stateMutability":"nonpayable"},{"type":"function","name":"transferFrom","inputs":[{"name":"from","type":"address","internalType":"address"},{"name":"to","type":"address","internalType":"address"},{"name":"amount","type":"uint256","internalType":"uint256"}],"outputs":[{"name":"","type":"bool","internalType":"bool"}],"stateMutability":"nonpayable"},{"type":"function","name":"unpause","inputs":[],"outputs":[],"stateMutability":"nonpayable"},{"type":"function","name":"withdraw","inputs":[{"name":"assets","type":"uint256","internalType":"uint256"},{"name":"receiver","type":"address","internalType":"address"},{"name":"owner","type":"address","internalType":"address"}],"outputs":[{"name":"","type":"uint256","internalType":"uint256"}],"stateMutability":"nonpayable"},{"type":"event","name":"Approval","inputs":[{"name":"owner","type":"address","indexed":true,"internalType":"address"},{"name":"spender","type":"address","indexed":true,"internalType":"address"},{"name":"amount","type":"uint256","indexed":false,"internalType":"uint256"}],"anonymous":false},{"type":"event","name":"Deposit","inputs":[{"name":"by","type":"address","indexed":true,"internalType":"address"},{"name":"owner","type":"address","indexed":true,"internalType":"address"},{"name":"assets","type":"uint256","indexed":false,"internalType":"uint256"},{"name":"shares","type":"uint256","indexed":false,"internalType":"uint256"}],"anonymous":false},{"type":"event","name":"Initialized","inputs":[{"name":"version","type":"uint64","indexed":false,"internalType":"uint64"}],"anonymous":false},{"type":"event","name":"Paused","inputs":[{"name":"account","type":"address","indexed":false,"internalType":"address"}],"anonymous":false},{"type":"event","name":"Transfer","inputs":[{"name":"from","type":"address","indexed":true,"internalType":"address"},{"name":"to","type":"address","indexed":true,"internalType":"address"},{"name":"amount","type":"uint256","indexed":false,"internalType":"uint256"}],"anonymous":false},{"type":"event","name":"Unpaused","inputs":[{"name":"account","type":"address","indexed":false,"internalType":"address"}],"anonymous":false},{"type":"event","name":"Withdraw","inputs":[{"name":"by","type":"address","indexed":true,"internalType":"address"},{"name":"to","type":"address","indexed":true,"internalType":"address"},{"name":"owner","type":"address","indexed":true,"internalType":"address"},{"name":"assets","type":"uint256","indexed":false,"internalType":"uint256"},{"name":"shares","type":"uint256","indexed":false,"internalType":"uint256"}],"anonymous":false},{"type":"error","name":"AllowanceOverflow","inputs":[]},{"type":"error","name":"AllowanceUnderflow","inputs":[]},{"type":"error","name":"AmountOutOfRange","inputs":[]},{"type":"error","name":"AssetIsBadCollateral","inputs":[{"name":"asset","type":"address","internalType":"address"}]},{"type":"error","name":"AssetIsNotBadCollateral","inputs":[{"name":"asset","type":"address","internalType":"address"}]},{"type":"error","name":"AssetNotRegistered","inputs":[{"name":"asset","type":"address","internalType":"address"}]},{"type":"error","name":"CapCanCauseDenialOfService","inputs":[]},{"type":"error","name":"DepositMoreThanMax","inputs":[]},{"type":"error","name":"EnforcedPause","inputs":[]},{"type":"error","name":"ExceedGlobalCap","inputs":[]},{"type":"error","name":"ExceedRelativeCap","inputs":[]},{"type":"error","name":"ExpectedPause","inputs":[]},{"type":"error","name":"InsufficientAllowance","inputs":[]},{"type":"error","name":"InsufficientAssets","inputs":[{"name":"assets","type":"uint256","internalType":"uint256"},{"name":"shares","type":"uint256","internalType":"uint256"}]},{"type":"error","name":"InsufficientBalance","inputs":[]},{"type":"error","name":"InsufficientRecapitalizeAmount","inputs":[{"name":"amount","type":"uint256","internalType":"uint256"}]},{"type":"error","name":"InvalidCustodyInfoInput","inputs":[]},{"type":"error","name":"InvalidInitialization","inputs":[]},{"type":"error","name":"InvalidPermit","inputs":[]},{"type":"error","name":"LiquidationDisabled","inputs":[]},{"type":"error","name":"LiquidationWithReferenceCollateral","inputs":[]},{"type":"error","name":"MintMoreThanMax","inputs":[]},{"type":"error","name":"MismatchedOwner","inputs":[{"name":"owner","type":"address","internalType":"address"},{"name":"expectedOwner","type":"address","internalType":"address"}]},{"type":"error","name":"NotFactory","inputs":[]},{"type":"error","name":"NotInitializing","inputs":[]},{"type":"error","name":"NotPegged","inputs":[{"name":"asset","type":"address","internalType":"address"}]},{"type":"error","name":"OverOneHundredPercentRate","inputs":[{"name":"rate","type":"uint256","internalType":"uint256"}]},{"type":"error","name":"Permit2AllowanceIsFixedAtInfinity","inputs":[]},{"type":"error","name":"PermitExpired","inputs":[]},{"type":"error","name":"RecapitalizeNotNeeded","inputs":[{"name":"asset","type":"address","internalType":"address"}]},{"type":"error","name":"RedeemMoreThanMax","inputs":[]},{"type":"error","name":"TotalSupplyOverflow","inputs":[]},{"type":"error","name":"UnauthorizedCaller","inputs":[{"name":"caller","type":"address","internalType":"address"},{"name":"expectedCaller","type":"address","internalType":"address"}]},{"type":"error","name":"UnderNinetyEightPercentRate","inputs":[{"name":"rate","type":"uint256","internalType":"uint256"}]},{"type":"error","name":"UnexpectedBasketModeStatus","inputs":[]},{"type":"error","name":"VaultAlreadyRegistered","inputs":[{"name":"asset","type":"address","internalType":"address"}]},{"type":"error","name":"VaultPaused","inputs":[]},{"type":"error","name":"WithdrawMoreThanMax","inputs":[]},{"type":"error","name":"ZeroAddress","inputs":[]},{"type":"error","name":"ZeroAmount","inputs":[]},{"type":"error","name":"ZeroWeight","inputs":[{"name":"asset","type":"address","internalType":"address"}]}],"bytecode":{"object":"0x6080604052348015600e575f80fd5b5060156019565b60c9565b7ff0c57e16840df040f15088dc2f81fe391c3923bec73e23a9662efc9c229c6a00805468010000000000000000900460ff161560685760405163f92ee8a960e01b815260040160405180910390fd5b80546001600160401b039081161460c65780546001600160401b0319166001600160401b0390811782556040519081527fc7f505b2f371ae2175ee4913f4499e1f2633a7b5936321eed1cdaeb6115181d29060200160405180910390a15b50565b611e45806100d65f395ff3fe608060405234801561000f575f80fd5b5060043610610201575f3560e01c806370a0823111610123578063ba087652116100b8578063ce96cb7711610088578063d905777e1161006e578063d905777e146104a8578063dd62ed3e146104bb578063ef8b30f7146104e3575f80fd5b8063ce96cb7714610482578063d505accf14610495575f80fd5b8063ba0876521461043c578063c45a01551461044f578063c63d75b614610300578063c6e6f5921461046f575f80fd5b806395d89b41116100f357806395d89b41146103fb578063a9059cbb14610403578063b3d7f6b914610416578063b460af9414610429575f80fd5b806370a08231146103965780637ecebe00146103bb5780638456cb59146103e057806394bf804d146103e8575f80fd5b80633644e51511610199578063485cc95511610169578063485cc955146103335780634cdad506146103465780635c975abb146103595780636e553f6514610383575f80fd5b80633644e515146102b057806338d52e0f146102b85780633f4ba83a146102f6578063402d267d14610300575f80fd5b80630a28a477116101d45780630a28a4771461026b57806318160ddd1461027e57806323b872dd1461028e578063313ce567146102a1575f80fd5b806301e1d1141461020557806306fdde031461022057806307a2d13a14610235578063095ea7b314610248575b5f80fd5b61020d6104f6565b6040519081526020015b60405180910390f35b610228610515565b6040516102179190611762565b61020d6102433660046117b5565b6105a5565b61025b6102563660046117f4565b6105b5565b6040519015158152602001610217565b61020d6102793660046117b5565b610604565b6805345cdf77eb68f44c5461020d565b61025b61029c36600461181c565b610649565b60405160128152602001610217565b61020d610701565b5f5473ffffffffffffffffffffffffffffffffffffffff165b60405173ffffffffffffffffffffffffffffffffffffffff9091168152602001610217565b6102fe61077d565b005b61020d61030e366004611856565b507fffffffffffffffffffffffffffffffffffffffffffffffffffffffffffffffff90565b6102fe61034136600461186f565b61078f565b61020d6103543660046117b5565b610902565b7fcd5ed15c6e187e77e9aee88184c21f4f2182ab5827cb3b7e07fbedcd63f033005460ff1661025b565b61020d6103913660046118a0565b61090c565b61020d6103a4366004611856565b6387a211a2600c9081525f91909152602090205490565b61020d6103c9366004611856565b6338377508600c9081525f91909152602090205490565b6102fe610927565b61020d6103f63660046118a0565b610937565b610228610952565b61025b6104113660046117f4565b610961565b61020d6104243660046117b5565b6109d8565b61020d6104373660046118c1565b610a0e565b61020d61044a3660046118c1565b610a32565b6003546102d19073ffffffffffffffffffffffffffffffffffffffff1681565b61020d61047d3660046117b5565b610a4e565b61020d610490366004611856565b610a58565b6102fe6104a336600461190b565b610a75565b61020d6104b6366004611856565b610c0a565b61020d6104c936600461186f565b602052637f5e9f20600c9081525f91909152603490205490565b61020d6104f13660046117b5565b610c23565b5f61051061050b6805345cdf77eb68f44c5490565b610c2d565b905090565b60606001805461052490611973565b80601f016020809104026020016040519081016040528092919081815260200182805461055090611973565b801561059b5780601f106105725761010080835404028352916020019161059b565b820191905f5260205f20905b81548152906001019060200180831161057e57829003601f168201915b5050505050905090565b5f6105af82610c2d565b92915050565b5f82602052637f5e9f20600c52335f52816034600c2055815f52602c5160601c337f8c5be1e5ebec7d5bd14f71427d1e84f3dd0314c0f7b2291e5b200ac8c7c3b92560205fa350600192915050565b5f806106176805345cdf77eb68f44c5490565b9050801583151761063957610634838261062f6104f6565b610d15565b610642565b61064283610a4e565b9392505050565b5f8360601b33602052637f5e9f208117600c526034600c208054801915610685578085111561067f576313be252b5f526004601cfd5b84810382555b50506387a211a28117600c526020600c208054808511156106ad5763f4d678b85f526004601cfd5b84810382555050835f526020600c208381540181555082602052600c5160601c8160601c7fddf252ad1be2c89b69c2b068fc378daa952ba7f163c4a11628f55a4df523b3ef602080a3505060019392505050565b5f8061070b610515565b805190602001209050604080517f8b73c3c69bb8fe3d512ecc4cf759cc79239f7b179b0ffacaa9a75d522b39400f815260208101929092527fc89efdaa54c0f20c7adf612882df0950f5a951637e0307cdcb4c672f298b8bc69082015246606082015230608082015260a09020919050565b610785610d46565b61078d610d8e565b565b5f610798610e2b565b805490915060ff68010000000000000000820416159067ffffffffffffffff165f811580156107c45750825b90505f8267ffffffffffffffff1660011480156107e05750303b155b9050811580156107ee575080155b15610825576040517ff92ee8a900000000000000000000000000000000000000000000000000000000815260040160405180910390fd5b84547fffffffffffffffffffffffffffffffffffffffffffffffff000000000000000016600117855583156108865784547fffffffffffffffffffffffffffffffffffffffffffffff00ffffffffffffffff16680100000000000000001785555b61088e610e53565b6108988787610e5b565b83156108f95784547fffffffffffffffffffffffffffffffffffffffffffffff00ffffffffffffffff168555604051600181527fc7f505b2f371ae2175ee4913f4499e1f2633a7b5936321eed1cdaeb6115181d29060200160405180910390a15b50505050505050565b5f6105af826105a5565b5f610915610d46565b61091d61107c565b61064283836110ee565b61092f610d46565b61078d611106565b5f610940610d46565b61094861107c565b610642838361117f565b60606002805461052490611973565b5f6387a211a2600c52335f526020600c208054808411156109895763f4d678b85f526004601cfd5b83810382555050825f526020600c208281540181555081602052600c5160601c337fddf252ad1be2c89b69c2b068fc378daa952ba7f163c4a11628f55a4df523b3ef602080a350600192915050565b5f806109eb6805345cdf77eb68f44c5490565b90508015610a0557610634836109ff6104f6565b83610d15565b610642836105a5565b5f610a17610d46565b610a1f61107c565b610a2a848484611197565b949350505050565b5f610a3b610d46565b610a4361107c565b610a2a8484846111cd565b5f6105af82611203565b6387a211a2600c9081525f8281526020909120546105af906105a5565b5f610a7e610515565b8051906020012090507fc89efdaa54c0f20c7adf612882df0950f5a951637e0307cdcb4c672f298b8bc642861015610abd57631a15a3cc5f526004601cfd5b6040518960601b60601c99508860601b60601c985065383775081901600e52895f526020600c2080547f8b73c3c69bb8fe3d512ecc4cf759cc79239f7b179b0ffacaa9a75d522b39400f835284602084015283604084015246606084015230608084015260a08320602e527f6e71edae12b1b97f4d1f60370fef10105fa2faae0126114a169c64845d6126c983528b60208401528a60408401528960608401528060808401528860a084015260c08320604e526042602c205f528760ff16602052866040528560605260208060805f60015afa8c3d5114610ba55763ddafbaef5f526004601cfd5b019055777f5e9f20000000000000000000000000000000000000000089176040526034602c20889055888a7f8c5be1e5ebec7d5bd14f71427d1e84f3dd0314c0f7b2291e5b200ac8c7c3b925602060608501a360405250505f60605250505050505050565b6387a211a2600c9081525f8281526020909120546105af565b5f6105af82610a4e565b5f8054604080517f313ce5670000000000000000000000000000000000000000000000000000000081529051601292849273ffffffffffffffffffffffffffffffffffffffff9091169163313ce567916004808201926020929091908290030181865afa158015610ca0573d5f803e3d5ffd5b505050506040513d601f19601f82011682018060405250810190610cc49190611b1d565b90505f8160ff168360ff1610610cf9575060ff81830316610ce681600a611b12565b610cf09086611b38565b95945050505050565b5060ff82820316610d0b81600a611b12565b610cf09086611b70565b5f610d218484846112ce565b9050818385091561064257600101806106425763ae47f7025f526004601cfd5b505050565b60035473ffffffffffffffffffffffffffffffffffffffff16331461078d5761078d7f32cc72360000000000000000000000000000000000000000000000000000000061137b565b610d96611383565b7fcd5ed15c6e187e77e9aee88184c21f4f2182ab5827cb3b7e07fbedcd63f0330080547fffffffffffffffffffffffffffffffffffffffffffffffffffffffffffffff001681557f5db9ee0a495bf2e6ff9c91a7834c1ba4fdd244a5e8aa4e537bd38aeae4b073aa335b60405173ffffffffffffffffffffffffffffffffffffffff909116815260200160405180910390a150565b5f807ff0c57e16840df040f15088dc2f81fe391c3923bec73e23a9662efc9c229c6a006105af565b61078d6113de565b610e636113de565b73ffffffffffffffffffffffffffffffffffffffff8116610ea757610ea77fd92e233d0000000000000000000000000000000000000000000000000000000061137b565b6003805473ffffffffffffffffffffffffffffffffffffffff8084167fffffffffffffffffffffffff0000000000000000000000000000000000000000928316179092555f80549285169290911682178155604080517f06fdde0300000000000000000000000000000000000000000000000000000000815290518593926306fdde0392600480820193918290030181865afa158015610f49573d5f803e3d5ffd5b505050506040513d5f823e601f3d9081017fffffffffffffffffffffffffffffffffffffffffffffffffffffffffffffffe0168201604052610f8e9190810190611bb4565b604051602001610f9e9190611ca4565b60405160208183030381529060405260019081610fbb9190611d21565b508073ffffffffffffffffffffffffffffffffffffffff166395d89b416040518163ffffffff1660e01b81526004015f60405180830381865afa158015611004573d5f803e3d5ffd5b505050506040513d5f823e601f3d9081017fffffffffffffffffffffffffffffffffffffffffffffffffffffffffffffffe01682016040526110499190810190611bb4565b6040516020016110599190611ca4565b604051602081830303815290604052600290816110769190611d21565b50505050565b7fcd5ed15c6e187e77e9aee88184c21f4f2182ab5827cb3b7e07fbedcd63f033005460ff161561078d5761078d6110c75f5473ffffffffffffffffffffffffffffffffffffffff1690565b7fda9f8b34000000000000000000000000000000000000000000000000000000009061141c565b5f6110f883610c23565b90506105af33838584611431565b61110e61107c565b7fcd5ed15c6e187e77e9aee88184c21f4f2182ab5827cb3b7e07fbedcd63f0330080547fffffffffffffffffffffffffffffffffffffffffffffffffffffffffffffff001660011781557f62e78cea01bee320cd4e420270b5ea74000d11b0c9f74754ebdbfc544b05a25833610e00565b5f611189836109d8565b90506105af33838386611431565b5f6111a182610a58565b8411156111b5576111b563936941fc611428565b6111be84610604565b905061064233848487856114a1565b5f6111d782610c0a565b8411156111eb576111eb634656425a611428565b6111f484610902565b905061064233848484886114a1565b5f8054604080517f313ce5670000000000000000000000000000000000000000000000000000000081529051601292849273ffffffffffffffffffffffffffffffffffffffff9091169163313ce567916004808201926020929091908290030181865afa158015611276573d5f803e3d5ffd5b505050506040513d601f19601f8201168201806040525081019061129a9190611b1d565b90505f8160ff168360ff16106112bc575060ff81830316610d0b81600a611b12565b5060ff82820316610ce681600a611b12565b82820281838583041485151702611374577fffffffffffffffffffffffffffffffffffffffffffffffffffffffffffffffff8385098181108201900382848609835f0384168285116113275763ae47f7025f526004601cfd5b93849004938382119092035f839003839004600101029203041760026003830281188084028203028084028203028084028203028084028203028084028203028084029091030202610642565b0492915050565b805f5260045ffd5b7fcd5ed15c6e187e77e9aee88184c21f4f2182ab5827cb3b7e07fbedcd63f033005460ff1661078d576040517f8dfc202b00000000000000000000000000000000000000000000000000000000815260040160405180910390fd5b6113e6611553565b61078d576040517fd7e6bcf800000000000000000000000000000000000000000000000000000000815260040160405180910390fd5b815f528060045260245ffd5b805f526004601cfd5b61145a6114525f5473ffffffffffffffffffffffffffffffffffffffff1690565b853085611571565b61146483826115d3565b815f52806020525f1960601c8381168582167fdcbc1c05240f31ff3ad067ef1ee35ce4997762752e3a095284754544f4c709d760405fa350611076565b8273ffffffffffffffffffffffffffffffffffffffff168573ffffffffffffffffffffffffffffffffffffffff16146114df576114df83868361164f565b6114e9838261168e565b61151161150a5f5473ffffffffffffffffffffffffffffffffffffffff1690565b858461170f565b815f52806020525f1960601c8381168582168783167ffbde797d201c681b91056529119e0b02407c7bb96a4a2c75c01fc9667232c8db60405fa4505050505050565b5f61155c610e2b565b5468010000000000000000900460ff16919050565b60405181606052826040528360601b602c526f23b872dd000000000000000000000000600c5260205f6064601c5f895af18060015f5114166115c557803d873b1517106115c557637939f4245f526004601cfd5b505f60605260405250505050565b6805345cdf77eb68f44c54818101818110156115f65763e5cfe9575f526004601cfd5b806805345cdf77eb68f44c5550506387a211a2600c52815f526020600c208181540181555080602052600c5160601c5f7fddf252ad1be2c89b69c2b068fc378daa952ba7f163c4a11628f55a4df523b3ef602080a35050565b81602052637f5e9f20600c52825f526034600c2080548019156116875780831115611681576313be252b5f526004601cfd5b82810382555b5050505050565b6387a211a2600c52815f526020600c208054808311156116b55763f4d678b85f526004601cfd5b82900390556805345cdf77eb68f44c805482900390555f81815273ffffffffffffffffffffffffffffffffffffffff83167fddf252ad1be2c89b69c2b068fc378daa952ba7f163c4a11628f55a4df523b3ef602083a35050565b81601452806034526fa9059cbb0000000000000000000000005f5260205f604460105f875af18060015f51141661175857803d853b151710611758576390b8ec185f526004601cfd5b505f603452505050565b602081525f82518060208401528060208501604085015e5f6040828501015260407fffffffffffffffffffffffffffffffffffffffffffffffffffffffffffffffe0601f83011684010191505092915050565b5f602082840312156117c5575f80fd5b5035919050565b803573ffffffffffffffffffffffffffffffffffffffff811681146117ef575f80fd5b919050565b5f8060408385031215611805575f80fd5b61180e836117cc565b946020939093013593505050565b5f805f6060848603121561182e575f80fd5b611837846117cc565b9250611845602085016117cc565b929592945050506040919091013590565b5f60208284031215611866575f80fd5b610642826117cc565b5f8060408385031215611880575f80fd5b611889836117cc565b9150611897602084016117cc565b90509250929050565b5f80604083850312156118b1575f80fd5b82359150611897602084016117cc565b5f805f606084860312156118d3575f80fd5b833592506118e3602085016117cc565b91506118f1604085016117cc565b90509250925092565b60ff81168114611908575f80fd5b50565b5f805f805f805f60e0888a031215611921575f80fd5b61192a886117cc565b9650611938602089016117cc565b955060408801359450606088013593506080880135611956816118fa565b9699959850939692959460a0840135945060c09093013592915050565b600181811c9082168061198757607f821691505b6020821081036119be577f4e487b71000000000000000000000000000000000000000000000000000000005f52602260045260245ffd5b50919050565b7f4e487b71000000000000000000000000000000000000000000000000000000005f52601160045260245ffd5b6001815b6001841115611a2c57808504811115611a1057611a106119c4565b6001841615611a1e57908102905b60019390931c9280026119f5565b935093915050565b5f82611a42575060016105af565b81611a4e57505f6105af565b8160018114611a645760028114611a6e57611a8a565b60019150506105af565b60ff841115611a7f57611a7f6119c4565b50506001821b6105af565b5060208310610133831016604e8410600b8410161715611aad575081810a6105af565b611ad87fffffffffffffffffffffffffffffffffffffffffffffffffffffffffffffffff84846119f1565b807fffffffffffffffffffffffffffffffffffffffffffffffffffffffffffffffff04821115611b0a57611b0a6119c4565b029392505050565b5f6106428383611a34565b5f60208284031215611b2d575f80fd5b8151610642816118fa565b5f82611b6b577f4e487b71000000000000000000000000000000000000000000000000000000005f52601260045260245ffd5b500490565b80820281158282048414176105af576105af6119c4565b7f4e487b71000000000000000000000000000000000000000000000000000000005f52604160045260245ffd5b5f60208284031215611bc4575f80fd5b815167ffffffffffffffff811115611bda575f80fd5b8201601f81018413611bea575f80fd5b805167ffffffffffffffff811115611c0457611c04611b87565b6040517fffffffffffffffffffffffffffffffffffffffffffffffffffffffffffffffe0603f7fffffffffffffffffffffffffffffffffffffffffffffffffffffffffffffffe0601f8501160116810181811067ffffffffffffffff82111715611c7057611c70611b87565b604052818152828201602001861015611c87575f80fd5b8160208401602083015e5f91810160200191909152949350505050565b5f82518060208501845e7f5661756c74000000000000000000000000000000000000000000000000000000920191825250600501919050565b601f821115610d4157805f5260205f20601f840160051c81016020851015611d025750805b601f840160051c820191505b81811015611687575f8155600101611d0e565b815167ffffffffffffffff811115611d3b57611d3b611b87565b611d4f81611d498454611973565b84611cdd565b6020601f821160018114611da0575f8315611d6a5750848201515b7fffffffffffffffffffffffffffffffffffffffffffffffffffffffffffffffff600385901b1c1916600184901b178455611687565b5f848152602081207fffffffffffffffffffffffffffffffffffffffffffffffffffffffffffffffe08516915b82811015611ded5787850151825560209485019460019092019101611dcd565b5084821015611e2957868401517fffffffffffffffffffffffffffffffffffffffffffffffffffffffffffffffff600387901b60f8161c191681555b50505050600190811b0190555056fea164736f6c634300081a000a","linkReferences":{}},"methodIdentifiers":{"DOMAIN_SEPARATOR()":"3644e515","allowance(address,address)":"dd62ed3e","approve(address,uint256)":"095ea7b3","asset()":"38d52e0f","balanceOf(address)":"70a08231","convertToAssets(uint256)":"07a2d13a","convertToShares(uint256)":"c6e6f592","decimals()":"313ce567","deposit(uint256,address)":"6e553f65","factory()":"c45a0155","initialize(address,address)":"485cc955","maxDeposit(address)":"402d267d","maxMint(address)":"c63d75b6","maxRedeem(address)":"d905777e","maxWithdraw(address)":"ce96cb77","mint(uint256,address)":"94bf804d","name()":"06fdde03","nonces(address)":"7ecebe00","pause()":"8456cb59","paused()":"5c975abb","permit(address,address,uint256,uint256,uint8,bytes32,bytes32)":"d505accf","previewDeposit(uint256)":"ef8b30f7","previewMint(uint256)":"b3d7f6b9","previewRedeem(uint256)":"4cdad506","previewWithdraw(uint256)":"0a28a477","redeem(uint256,address,address)":"ba087652","symbol()":"95d89b41","totalAssets()":"01e1d114","totalSupply()":"18160ddd","transfer(address,uint256)":"a9059cbb","transferFrom(address,address,uint256)":"23b872dd","unpause()":"3f4ba83a","withdraw(uint256,address,address)":"b460af94"},"storageLayout":{"storage":[{"astId":87036,"contract":"src/v0_Contracts/CollateralVault_V0.sol:CollateralVault_V0","label":"_vaultAsset","offset":0,"slot":"0","type":"t_contract(ERC20)36988"},{"astId":87038,"contract":"src/v0_Contracts/CollateralVault_V0.sol:CollateralVault_V0","label":"_name","offset":0,"slot":"1","type":"t_string_storage"},{"astId":87040,"contract":"src/v0_Contracts/CollateralVault_V0.sol:CollateralVault_V0","label":"_symbol","offset":0,"slot":"2","type":"t_string_storage"},{"astId":87043,"contract":"src/v0_Contracts/CollateralVault_V0.sol:CollateralVault_V0","label":"factory","offset":0,"slot":"3","type":"t_address"}],"types":{"t_address":{"encoding":"inplace","label":"address","numberOfBytes":"20"},"t_contract(ERC20)36988":{"encoding":"inplace","label":"contract ERC20","numberOfBytes":"20"},"t_string_storage":{"encoding":"bytes","label":"string","numberOfBytes":"32"}}},"id":157}