{"abi":[{"type":"constructor","inputs":[],"stateMutability":"nonpayable"},{"type":"function","name":"MAX_REWARD_ALLOCATION_BLOCK_DELAY","inputs":[],"outputs":[{"name":"","type":"uint64","internalType":"uint64"}],"stateMutability":"view"},{"type":"function","name":"UPGRADE_INTERFACE_VERSION","inputs":[],"outputs":[{"name":"","type":"string","internalType":"string"}],"stateMutability":"view"},{"type":"function","name":"activateReadyQueuedRewardAllocation","inputs":[{"name":"valPubkey","type":"bytes","internalType":"bytes"}],"outputs":[],"stateMutability":"nonpayable"},{"type":"function","name":"beaconDepositContract","inputs":[],"outputs":[{"name":"","type":"address","internalType":"contract IBeaconDeposit"}],"stateMutability":"view"},{"type":"function","name":"distributor","inputs":[],"outputs":[{"name":"","type":"address","internalType":"address"}],"stateMutability":"view"},{"type":"function","name":"factory","inputs":[],"outputs":[{"name":"","type":"address","internalType":"address"}],"stateMutability":"view"},{"type":"function","name":"getActiveRewardAllocation","inputs":[{"name":"valPubkey","type":"bytes","internalType":"bytes"}],"outputs":[{"name":"","type":"tuple","internalType":"struct IBeraChef_V0.RewardAllocation","components":[{"name":"startBlock","type":"uint64","internalType":"uint64"},{"name":"weights","type":"tuple[]","internalType":"struct IBeraChef_V0.Weight[]","components":[{"name":"receiver","type":"address","internalType":"address"},{"name":"percentageNumerator","type":"uint96","internalType":"uint96"}]}]}],"stateMutability":"view"},{"type":"function","name":"getDefaultRewardAllocation","inputs":[],"outputs":[{"name":"","type":"tuple","internalType":"struct IBeraChef_V0.RewardAllocation","components":[{"name":"startBlock","type":"uint64","internalType":"uint64"},{"name":"weights","type":"tuple[]","internalType":"struct IBeraChef_V0.Weight[]","components":[{"name":"receiver","type":"address","internalType":"address"},{"name":"percentageNumerator","type":"uint96","internalType":"uint96"}]}]}],"stateMutability":"view"},{"type":"function","name":"getQueuedRewardAllocation","inputs":[{"name":"valPubkey","type":"bytes","internalType":"bytes"}],"outputs":[{"name":"","type":"tuple","internalType":"struct IBeraChef_V0.RewardAllocation","components":[{"name":"startBlock","type":"uint64","internalType":"uint64"},{"name":"weights","type":"tuple[]","internalType":"struct IBeraChef_V0.Weight[]","components":[{"name":"receiver","type":"address","internalType":"address"},{"name":"percentageNumerator","type":"uint96","internalType":"uint96"}]}]}],"stateMutability":"view"},{"type":"function","name":"getSetActiveRewardAllocation","inputs":[{"name":"valPubkey","type":"bytes","internalType":"bytes"}],"outputs":[{"name":"","type":"tuple","internalType":"struct IBeraChef_V0.RewardAllocation","components":[{"name":"startBlock","type":"uint64","internalType":"uint64"},{"name":"weights","type":"tuple[]","internalType":"struct IBeraChef_V0.Weight[]","components":[{"name":"receiver","type":"address","internalType":"address"},{"name":"percentageNumerator","type":"uint96","internalType":"uint96"}]}]}],"stateMutability":"view"},{"type":"function","name":"initialize","inputs":[{"name":"_distributor","type":"address","internalType":"address"},{"name":"_factory","type":"address","internalType":"address"},{"name":"_governance","type":"address","internalType":"address"},{"name":"_beaconDepositContract","type":"address","internalType":"address"},{"name":"_maxNumWeightsPerRewardAllocation","type":"uint8","internalType":"uint8"}],"outputs":[],"stateMutability":"nonpayable"},{"type":"function","name":"isQueuedRewardAllocationReady","inputs":[{"name":"valPubkey","type":"bytes","internalType":"bytes"},{"name":"blockNumber","type":"uint256","internalType":"uint256"}],"outputs":[{"name":"","type":"bool","internalType":"bool"}],"stateMutability":"view"},{"type":"function","name":"isReady","inputs":[],"outputs":[{"name":"","type":"bool","internalType":"bool"}],"stateMutability":"view"},{"type":"function","name":"isWhitelistedVault","inputs":[{"name":"receiver","type":"address","internalType":"address"}],"outputs":[{"name":"","type":"bool","internalType":"bool"}],"stateMutability":"view"},{"type":"function","name":"maxNumWeightsPerRewardAllocation","inputs":[],"outputs":[{"name":"","type":"uint8","internalType":"uint8"}],"stateMutability":"view"},{"type":"function","name":"owner","inputs":[],"outputs":[{"name":"","type":"address","internalType":"address"}],"stateMutability":"view"},{"type":"function","name":"proxiableUUID","inputs":[],"outputs":[{"name":"","type":"bytes32","internalType":"bytes32"}],"stateMutability":"view"},{"type":"function","name":"queueNewRewardAllocation","inputs":[{"name":"valPubkey","type":"bytes","internalType":"bytes"},{"name":"startBlock","type":"uint64","internalType":"uint64"},{"name":"weights","type":"tuple[]","internalType":"struct IBeraChef_V0.Weight[]","components":[{"name":"receiver","type":"address","internalType":"address"},{"name":"percentageNumerator","type":"uint96","internalType":"uint96"}]}],"outputs":[],"stateMutability":"nonpayable"},{"type":"function","name":"renounceOwnership","inputs":[],"outputs":[],"stateMutability":"nonpayable"},{"type":"function","name":"rewardAllocationBlockDelay","inputs":[],"outputs":[{"name":"","type":"uint64","internalType":"uint64"}],"stateMutability":"view"},{"type":"function","name":"setDefaultRewardAllocation","inputs":[{"name":"ra","type":"tuple","internalType":"struct IBeraChef_V0.RewardAllocation","components":[{"name":"startBlock","type":"uint64","internalType":"uint64"},{"name":"weights","type":"tuple[]","internalType":"struct IBeraChef_V0.Weight[]","components":[{"name":"receiver","type":"address","internalType":"address"},{"name":"percentageNumerator","type":"uint96","internalType":"uint96"}]}]}],"outputs":[],"stateMutability":"nonpayable"},{"type":"function","name":"setMaxNumWeightsPerRewardAllocation","inputs":[{"name":"_maxNumWeightsPerRewardAllocation","type":"uint8","internalType":"uint8"}],"outputs":[],"stateMutability":"nonpayable"},{"type":"function","name":"setRewardAllocationBlockDelay","inputs":[{"name":"_rewardAllocationBlockDelay","type":"uint64","internalType":"uint64"}],"outputs":[],"stateMutability":"nonpayable"},{"type":"function","name":"setVaultWhitelistedStatus","inputs":[{"name":"receiver","type":"address","internalType":"address"},{"name":"isWhitelisted","type":"bool","internalType":"bool"},{"name":"metadata","type":"string","internalType":"string"}],"outputs":[],"stateMutability":"nonpayable"},{"type":"function","name":"transferOwnership","inputs":[{"name":"newOwner","type":"address","internalType":"address"}],"outputs":[],"stateMutability":"nonpayable"},{"type":"function","name":"updateWhitelistedVaultMetadata","inputs":[{"name":"vault","type":"address","internalType":"address"},{"name":"metadata","type":"string","internalType":"string"}],"outputs":[],"stateMutability":"nonpayable"},{"type":"function","name":"upgradeToAndCall","inputs":[{"name":"newImplementation","type":"address","internalType":"address"},{"name":"data","type":"bytes","internalType":"bytes"}],"outputs":[],"stateMutability":"payable"},{"type":"event","name":"ActivateRewardAllocation","inputs":[{"name":"valPubkey","type":"bytes","indexed":true,"internalType":"bytes"},{"name":"startBlock","type":"uint64","indexed":false,"internalType":"uint64"},{"name":"weights","type":"tuple[]","indexed":false,"internalType":"struct IBeraChef_V0.Weight[]","components":[{"name":"receiver","type":"address","internalType":"address"},{"name":"percentageNumerator","type":"uint96","internalType":"uint96"}]}],"anonymous":false},{"type":"event","name":"Initialized","inputs":[{"name":"version","type":"uint64","indexed":false,"internalType":"uint64"}],"anonymous":false},{"type":"event","name":"MaxNumWeightsPerRewardAllocationSet","inputs":[{"name":"maxNumWeightsPerRewardAllocation","type":"uint8","indexed":false,"internalType":"uint8"}],"anonymous":false},{"type":"event","name":"OwnershipTransferred","inputs":[{"name":"previousOwner","type":"address","indexed":true,"internalType":"address"},{"name":"newOwner","type":"address","indexed":true,"internalType":"address"}],"anonymous":false},{"type":"event","name":"QueueRewardAllocation","inputs":[{"name":"valPubkey","type":"bytes","indexed":true,"internalType":"bytes"},{"name":"startBlock","type":"uint64","indexed":false,"internalType":"uint64"},{"name":"weights","type":"tuple[]","indexed":false,"internalType":"struct IBeraChef_V0.Weight[]","components":[{"name":"receiver","type":"address","internalType":"address"},{"name":"percentageNumerator","type":"uint96","internalType":"uint96"}]}],"anonymous":false},{"type":"event","name":"RewardAllocationBlockDelaySet","inputs":[{"name":"rewardAllocationBlockDelay","type":"uint64","indexed":false,"internalType":"uint64"}],"anonymous":false},{"type":"event","name":"SetDefaultRewardAllocation","inputs":[{"name":"rewardAllocation","type":"tuple","indexed":false,"internalType":"struct IBeraChef_V0.RewardAllocation","components":[{"name":"startBlock","type":"uint64","internalType":"uint64"},{"name":"weights","type":"tuple[]","internalType":"struct IBeraChef_V0.Weight[]","components":[{"name":"receiver","type":"address","internalType":"address"},{"name":"percentageNumerator","type":"uint96","internalType":"uint96"}]}]}],"anonymous":false},{"type":"event","name":"Upgraded","inputs":[{"name":"implementation","type":"address","indexed":true,"internalType":"address"}],"anonymous":false},{"type":"event","name":"VaultWhitelistedStatusUpdated","inputs":[{"name":"receiver","type":"address","indexed":true,"internalType":"address"},{"name":"isWhitelisted","type":"bool","indexed":true,"internalType":"bool"},{"name":"metadata","type":"string","indexed":false,"internalType":"string"}],"anonymous":false},{"type":"event","name":"WhitelistedVaultMetadataUpdated","inputs":[{"name":"receiver","type":"address","indexed":true,"internalType":"address"},{"name":"metadata","type":"string","indexed":false,"internalType":"string"}],"anonymous":false},{"type":"error","name":"AddressEmptyCode","inputs":[{"name":"target","type":"address","internalType":"address"}]},{"type":"error","name":"AmountLessThanMinIncentiveRate","inputs":[]},{"type":"error","name":"CannotRecoverIncentiveToken","inputs":[]},{"type":"error","name":"CannotRecoverRewardToken","inputs":[]},{"type":"error","name":"CannotRecoverStakingToken","inputs":[]},{"type":"error","name":"CommissionChangeAlreadyQueued","inputs":[]},{"type":"error","name":"CommissionNotQueuedOrDelayNotPassed","inputs":[]},{"type":"error","name":"DepositNotMultipleOfGwei","inputs":[]},{"type":"error","name":"DepositValueTooHigh","inputs":[]},{"type":"error","name":"DonateAmountLessThanPayoutAmount","inputs":[]},{"type":"error","name":"ERC1967InvalidImplementation","inputs":[{"name":"implementation","type":"address","internalType":"address"}]},{"type":"error","name":"ERC1967NonPayable","inputs":[]},{"type":"error","name":"FailedCall","inputs":[]},{"type":"error","name":"IncentiveRateTooHigh","inputs":[]},{"type":"error","name":"IndexOutOfRange","inputs":[]},{"type":"error","name":"InsolventReward","inputs":[]},{"type":"error","name":"InsufficientDelegateStake","inputs":[]},{"type":"error","name":"InsufficientDeposit","inputs":[]},{"type":"error","name":"InsufficientIncentiveTokens","inputs":[]},{"type":"error","name":"InsufficientSelfStake","inputs":[]},{"type":"error","name":"InsufficientStake","inputs":[]},{"type":"error","name":"InvalidActivateBoostDelay","inputs":[]},{"type":"error","name":"InvalidArray","inputs":[]},{"type":"error","name":"InvalidBaseRate","inputs":[]},{"type":"error","name":"InvalidBoostMultiplier","inputs":[]},{"type":"error","name":"InvalidCommissionChangeDelay","inputs":[]},{"type":"error","name":"InvalidCommissionValue","inputs":[]},{"type":"error","name":"InvalidCredentialsLength","inputs":[]},{"type":"error","name":"InvalidDistribution","inputs":[]},{"type":"error","name":"InvalidDropBoostDelay","inputs":[]},{"type":"error","name":"InvalidIncentiveRate","inputs":[]},{"type":"error","name":"InvalidInitialization","inputs":[]},{"type":"error","name":"InvalidMaxIncentiveTokensCount","inputs":[]},{"type":"error","name":"InvalidMaxWeightPerVault","inputs":[]},{"type":"error","name":"InvalidMerkleRoot","inputs":[]},{"type":"error","name":"InvalidMinBoostedRewardRate","inputs":[]},{"type":"error","name":"InvalidProof","inputs":[]},{"type":"error","name":"InvalidPubKeyLength","inputs":[]},{"type":"error","name":"InvalidRewardAllocationWeights","inputs":[]},{"type":"error","name":"InvalidRewardClaimDelay","inputs":[]},{"type":"error","name":"InvalidRewardConvexity","inputs":[]},{"type":"error","name":"InvalidRewardRate","inputs":[]},{"type":"error","name":"InvalidSignatureLength","inputs":[]},{"type":"error","name":"InvalidStartBlock","inputs":[]},{"type":"error","name":"InvalidToken","inputs":[]},{"type":"error","name":"InvalidWeight","inputs":[]},{"type":"error","name":"InvalidateDefaultRewardAllocation","inputs":[]},{"type":"error","name":"InvariantCheckFailed","inputs":[]},{"type":"error","name":"MaxNumWeightsPerRewardAllocationIsZero","inputs":[]},{"type":"error","name":"MinIncentiveRateIsZero","inputs":[]},{"type":"error","name":"NotAContract","inputs":[]},{"type":"error","name":"NotApprovedSender","inputs":[]},{"type":"error","name":"NotBGT","inputs":[]},{"type":"error","name":"NotBlockRewardController","inputs":[]},{"type":"error","name":"NotDelegate","inputs":[]},{"type":"error","name":"NotDistributor","inputs":[]},{"type":"error","name":"NotEnoughBalance","inputs":[]},{"type":"error","name":"NotEnoughBoostedBalance","inputs":[]},{"type":"error","name":"NotEnoughTime","inputs":[]},{"type":"error","name":"NotFactoryVault","inputs":[]},{"type":"error","name":"NotFeeCollector","inputs":[]},{"type":"error","name":"NotIncentiveManager","inputs":[]},{"type":"error","name":"NotInitializing","inputs":[]},{"type":"error","name":"NotNewOperator","inputs":[]},{"type":"error","name":"NotOperator","inputs":[]},{"type":"error","name":"NotWhitelistedVault","inputs":[]},{"type":"error","name":"OperatorAlreadySet","inputs":[]},{"type":"error","name":"OwnableInvalidOwner","inputs":[{"name":"owner","type":"address","internalType":"address"}]},{"type":"error","name":"OwnableUnauthorizedAccount","inputs":[{"name":"account","type":"address","internalType":"address"}]},{"type":"error","name":"PayoutAmountIsZero","inputs":[]},{"type":"error","name":"RewardAllocationAlreadyQueued","inputs":[]},{"type":"error","name":"RewardAllocationBlockDelayTooLarge","inputs":[]},{"type":"error","name":"RewardCycleNotEnded","inputs":[]},{"type":"error","name":"RewardInactive","inputs":[]},{"type":"error","name":"RewardsDurationIsZero","inputs":[]},{"type":"error","name":"StakeAmountIsZero","inputs":[]},{"type":"error","name":"TimestampAlreadyProcessed","inputs":[]},{"type":"error","name":"TokenAlreadyWhitelistedOrLimitReached","inputs":[]},{"type":"error","name":"TokenNotWhitelisted","inputs":[]},{"type":"error","name":"TooManyWeights","inputs":[]},{"type":"error","name":"TotalSupplyOverflow","inputs":[]},{"type":"error","name":"UUPSUnauthorizedCallContext","inputs":[]},{"type":"error","name":"UUPSUnsupportedProxiableUUID","inputs":[{"name":"slot","type":"bytes32","internalType":"bytes32"}]},{"type":"error","name":"WithdrawAmountIsZero","inputs":[]},{"type":"error","name":"ZeroAddress","inputs":[]},{"type":"error","name":"ZeroOperatorOnFirstDeposit","inputs":[]},{"type":"error","name":"ZeroPercentageWeight","inputs":[]}],"bytecode":{"object":"0x60a060405230608052348015610013575f80fd5b5061001c610021565b6100d3565b7ff0c57e16840df040f15088dc2f81fe391c3923bec73e23a9662efc9c229c6a00805468010000000000000000900460ff16156100715760405163f92ee8a960e01b815260040160405180910390fd5b80546001600160401b03908116146100d05780546001600160401b0319166001600160401b0390811782556040519081527fc7f505b2f371ae2175ee4913f4499e1f2633a7b5936321eed1cdaeb6115181d29060200160405180910390a15b50565b608051612c7a6100f95f395f81816117c9015281816117f20152611a0e0152612c7a5ff3fe6080604052600436106101a3575f3560e01c80638da5cb5b116100e7578063c45a015511610087578063e5eb90aa11610062578063e5eb90aa1461056e578063eafe0f4c1461058d578063f2fde38b146105b9578063fb9f6fde146105d8575f80fd5b8063c45a015514610504578063c89f266514610530578063da6f75631461054f575f80fd5b8063a2ce2773116100c2578063a2ce27731461040b578063ad3cb1cc14610439578063bfe109281461048e578063c35569cd146104b9575f80fd5b80638da5cb5b1461036c5780639ca2626c146103d6578063a094a031146103f5575f80fd5b806352d1902d1161015257806369ed17081161012d57806369ed1708146102eb5780636ed0bf9a1461030a578063715018a614610329578063722f8e0a1461033d575f80fd5b806352d1902d1461027257806353a35d1d1461029457806366204c78146102cc575f80fd5b80634ce34525116101825780634ce34525146102115780634ecbf5c0146102405780634f1ef2861461025f575f80fd5b80628c2676146101a757806317dbf270146101c8578063230288ce146101f2575b5f80fd5b3480156101b2575f80fd5b506101c66101c1366004612202565b6105f7565b005b3480156101d3575f80fd5b506101dc61087e565b6040516101e9919061226b565b60405180910390f35b3480156101fd575f80fd5b506101dc61020c366004612345565b61094f565b34801561021c575f80fd5b50610227621410b881565b60405167ffffffffffffffff90911681526020016101e9565b34801561024b575f80fd5b506101dc61025a366004612345565b610a3f565b6101c661026d366004612446565b610a65565b34801561027d575f80fd5b50610286610a84565b6040519081526020016101e9565b34801561029f575f80fd5b506002546102279074010000000000000000000000000000000000000000900467ffffffffffffffff1681565b3480156102d7575f80fd5b506101c66102e63660046124a6565b610ab2565b3480156102f6575f80fd5b506101c66103053660046124dd565b610bac565b348015610315575f80fd5b506101c6610324366004612345565b610c5b565b348015610334575f80fd5b506101c6610e02565b348015610348575f80fd5b5061035c610357366004612520565b610e15565b60405190151581526020016101e9565b348015610377575f80fd5b507f9016d09d72d40fdae2fd8ceac6b6234c7706214fd39c1cd1e609a0528c1993005473ffffffffffffffffffffffffffffffffffffffff165b60405173ffffffffffffffffffffffffffffffffffffffff90911681526020016101e9565b3480156103e1575f80fd5b506101c66103f036600461257d565b610e69565b348015610400575f80fd5b50600754151561035c565b348015610416575f80fd5b5061035c610425366004612598565b60056020525f908152604090205460ff1681565b348015610444575f80fd5b506104816040518060400160405280600581526020017f352e302e3000000000000000000000000000000000000000000000000000000081525081565b6040516101e991906125b3565b348015610499575f80fd5b505f546103b19073ffffffffffffffffffffffffffffffffffffffff1681565b3480156104c4575f80fd5b506002546104f2907c0100000000000000000000000000000000000000000000000000000000900460ff1681565b60405160ff90911681526020016101e9565b34801561050f575f80fd5b506001546103b19073ffffffffffffffffffffffffffffffffffffffff1681565b34801561053b575f80fd5b506101c661054a366004612606565b610f30565b34801561055a575f80fd5b506101dc610569366004612345565b610f96565b348015610579575f80fd5b506101c661058836600461263d565b61116e565b348015610598575f80fd5b506002546103b19073ffffffffffffffffffffffffffffffffffffffff1681565b3480156105c4575f80fd5b506101c66105d3366004612598565b61141c565b3480156105e3575f80fd5b506101c66105f23660046126ed565b611484565b5f610600611768565b805490915060ff68010000000000000000820416159067ffffffffffffffff165f8115801561062c5750825b90505f8267ffffffffffffffff1660011480156106485750303b155b905081158015610656575080155b1561068d576040517ff92ee8a900000000000000000000000000000000000000000000000000000000815260040160405180910390fd5b84547fffffffffffffffffffffffffffffffffffffffffffffffff000000000000000016600117855583156106ee5784547fffffffffffffffffffffffffffffffffffffffffffffff00ffffffffffffffff16680100000000000000001785555b6106f788611790565b6106ff6117a1565b5f805473ffffffffffffffffffffffffffffffffffffffff808d167fffffffffffffffffffffffff0000000000000000000000000000000000000000928316178355600180548d831690841617905560028054918b169190921617905560ff8716900361078f5761078f7fa4cc22ed000000000000000000000000000000000000000000000000000000006117a9565b60405160ff871681527f1f427f3160f84ab8033ba8e3550b2a3f178241305e86660a221c0dc52f3bc9ae9060200160405180910390a1600280547fffffff00ffffffffffffffffffffffffffffffffffffffffffffffffffffffff167c010000000000000000000000000000000000000000000000000000000060ff89160217905583156108725784547fffffffffffffffffffffffffffffffffffffffffffffff00ffffffffffffffff168555604051600181527fc7f505b2f371ae2175ee4913f4499e1f2633a7b5936321eed1cdaeb6115181d29060200160405180910390a15b50505050505050505050565b604080518082019091525f8152606060208201526040805180820182526006805467ffffffffffffffff1682526007805484516020828102820181019096528181529394929383860193909291905f9084015b82821015610942575f848152602090819020604080518082019091529084015473ffffffffffffffffffffffffffffffffffffffff811682527401000000000000000000000000000000000000000090046bffffffffffffffffffffffff16818301528252600190920191016108d1565b5050505081525050905090565b604080518082019091525f8152606060208201526003838360405161097592919061274f565b9081526040805191829003602090810183208383018352805467ffffffffffffffff1684526001810180548451818502810185019095528085529193858401939092905f9084015b82821015610a2e575f848152602090819020604080518082019091529084015473ffffffffffffffffffffffffffffffffffffffff811682527401000000000000000000000000000000000000000090046bffffffffffffffffffffffff16818301528252600190920191016109bd565b505050508152505090505b92915050565b604080518082019091525f8152606060208201526004838360405161097592919061274f565b610a6d6117b1565b610a76826118b5565b610a8082826118bd565b5050565b5f610a8d6119f6565b507f360894a13ba1a3210667c828492db98dca3e2076cc3735a920a3ca505d382bbc90565b610aba611a65565b8060ff165f03610aed57610aed7fa4cc22ed000000000000000000000000000000000000000000000000000000006117a9565b60075460ff82161015610b2357610b237f3e38573f000000000000000000000000000000000000000000000000000000006117a9565b600280547fffffff00ffffffffffffffffffffffffffffffffffffffffffffffffffffffff167c010000000000000000000000000000000000000000000000000000000060ff8416908102919091179091556040519081527f1f427f3160f84ab8033ba8e3550b2a3f178241305e86660a221c0dc52f3bc9ae906020015b60405180910390a150565b610bb4611a65565b73ffffffffffffffffffffffffffffffffffffffff82165f9081526005602052604090205460ff16610c0957610c097f36407850000000000000000000000000000000000000000000000000000000006117a9565b8173ffffffffffffffffffffffffffffffffffffffff167fb10c3a0623fdc435deba8729692b1a7c6c1886b7466c8cffa3ccdb42042ffbc582604051610c4f91906125b3565b60405180910390a25050565b5f5473ffffffffffffffffffffffffffffffffffffffff163314610ca257610ca27f385296d5000000000000000000000000000000000000000000000000000000006117a9565b610cad828243610e15565b15610a80575f60048383604051610cc592919061274f565b908152604051908190036020018120805490925067ffffffffffffffff16908290600390610cf6908790879061274f565b908152604051908190036020019020815481547fffffffffffffffffffffffffffffffffffffffffffffffff00000000000000001667ffffffffffffffff90911617815560018083018054610d4e92840191906120e8565b5050604051610d6191508590859061274f565b60405180910390207f09fed3850dff4fef07a5284847da937f94021882ecab1c143fcacd69e5451bd88284600101604051610d9d92919061275e565b60405180910390a260048484604051610db792919061274f565b90815260405190819003602001902080547fffffffffffffffffffffffffffffffffffffffffffffffff00000000000000001681555f610dfa60018301826121a1565b505050505050565b610e0a611a65565b610e135f611af3565b565b5f8060048585604051610e2992919061274f565b9081526040519081900360200190205467ffffffffffffffff1690508015801590610e5e5750828167ffffffffffffffff1611155b9150505b9392505050565b610e71611a65565b621410b867ffffffffffffffff82161115610eaf57610eaf7f462a2bb2000000000000000000000000000000000000000000000000000000006117a9565b600280547fffffffff0000000000000000ffffffffffffffffffffffffffffffffffffffff167401000000000000000000000000000000000000000067ffffffffffffffff8416908102919091179091556040519081527fd30a76f5419042e46e49eaf91b6a0f0feaaa673b6db586a63d3e8e79d4bf208190602001610ba1565b610f38611a65565b610f4d610f4860208301836127d7565b611b88565b7f63a1be039047941d4150a7feb1920b5fadcbf022e1a21334fba542a52eabdaf781604051610f7c91906128cc565b60405180910390a1806006610f918282612a14565b505050565b604080518082019091525f8152606060208201525f60038484604051610fbd92919061274f565b9081526040805191829003602090810183208383018352805467ffffffffffffffff1684526001810180548451818502810185019095528085529193858401939092905f9084015b82821015611076575f848152602090819020604080518082019091529084015473ffffffffffffffffffffffffffffffffffffffff811682527401000000000000000000000000000000000000000090046bffffffffffffffffffffffff1681830152825260019092019101611005565b50505091525050805190915067ffffffffffffffff16158015906110a257506110a28160200151611d20565b156110ae579050610a39565b6040805180820182526006805467ffffffffffffffff1682526007805484516020828102820181019096528181529394929383860193909291905f9084015b8282101561115e575f848152602090819020604080518082019091529084015473ffffffffffffffffffffffffffffffffffffffff811682527401000000000000000000000000000000000000000090046bffffffffffffffffffffffff16818301528252600190920191016110ed565b5050509152509095945050505050565b6002546040517f9eaffa960000000000000000000000000000000000000000000000000000000081528691869173ffffffffffffffffffffffffffffffffffffffff90911690639eaffa96906111ca9085908590600401612b37565b602060405180830381865afa1580156111e5573d5f803e3d5ffd5b505050506040513d601f19601f820116820180604052508101906112099190612b83565b73ffffffffffffffffffffffffffffffffffffffff163373ffffffffffffffffffffffffffffffffffffffff1614611264576112647f7c214f04000000000000000000000000000000000000000000000000000000006117a9565b6002546112939074010000000000000000000000000000000000000000900467ffffffffffffffff1643612b9e565b8567ffffffffffffffff16116112cc576112cc7fec2caa0d000000000000000000000000000000000000000000000000000000006117a9565b5f600488886040516112df92919061274f565b908152604051908190036020019020805490915067ffffffffffffffff161561132b5761132b7f3be31f8c000000000000000000000000000000000000000000000000000000006117a9565b6113358585611b88565b80547fffffffffffffffffffffffffffffffffffffffffffffffff00000000000000001667ffffffffffffffff8716178155600181015f5b858110156113bd578187878381811061138857611388612bb1565b83546001810185555f9485526020909420604090910292909201929190910190506113b3828261298f565b505060010161136d565b5088886040516113ce92919061274f565b60405180910390207f22fe555512d9a04d20e3735ac5fe7a73227c2c6398f1453a5d60ce7aaf5de2ae88888860405161140993929190612bde565b60405180910390a2505050505050505050565b611424611a65565b73ffffffffffffffffffffffffffffffffffffffff8116611478576040517f1e4fbdf70000000000000000000000000000000000000000000000000000000081525f60048201526024015b60405180910390fd5b61148181611af3565b50565b61148c611a65565b5f8373ffffffffffffffffffffffffffffffffffffffff166351ed6a306040518163ffffffff1660e01b8152600401602060405180830381865afa1580156114d6573d5f803e3d5ffd5b505050506040513d601f19601f820116820180604052508101906114fa9190612b83565b6001546040517f0eb9af3800000000000000000000000000000000000000000000000000000000815273ffffffffffffffffffffffffffffffffffffffff80841660048301529293505f9290911690630eb9af3890602401602060405180830381865afa15801561156d573d5f803e3d5ffd5b505050506040513d601f19601f820116820180604052508101906115919190612b83565b90508073ffffffffffffffffffffffffffffffffffffffff168573ffffffffffffffffffffffffffffffffffffffff16146115ef576115ef7f08519afa000000000000000000000000000000000000000000000000000000006117a9565b73ffffffffffffffffffffffffffffffffffffffff85165f90815260056020526040902080547fffffffffffffffffffffffffffffffffffffffffffffffffffffffffffffff001685151517905583611710576116e36006600101805480602002602001604051908101604052809291908181526020015f905b828210156116da575f848152602090819020604080518082019091529084015473ffffffffffffffffffffffffffffffffffffffff811682527401000000000000000000000000000000000000000090046bffffffffffffffffffffffff1681830152825260019092019101611669565b50505050611d20565b611710576117107f13134d24000000000000000000000000000000000000000000000000000000006117a9565b8315158573ffffffffffffffffffffffffffffffffffffffff167fad865159180d43e1aedae6624a0e9e20d86e07afb82a96f8f9a8b2f3294e16c08560405161175991906125b3565b60405180910390a35050505050565b5f807ff0c57e16840df040f15088dc2f81fe391c3923bec73e23a9662efc9c229c6a00610a39565b611798611dcc565b61148181611e0a565b610e13611dcc565b805f5260045ffd5b3073ffffffffffffffffffffffffffffffffffffffff7f000000000000000000000000000000000000000000000000000000000000000016148061187e57507f000000000000000000000000000000000000000000000000000000000000000073ffffffffffffffffffffffffffffffffffffffff166118657f360894a13ba1a3210667c828492db98dca3e2076cc3735a920a3ca505d382bbc5473ffffffffffffffffffffffffffffffffffffffff1690565b73ffffffffffffffffffffffffffffffffffffffff1614155b15610e13576040517fe07c8dba00000000000000000000000000000000000000000000000000000000815260040160405180910390fd5b611481611a65565b8173ffffffffffffffffffffffffffffffffffffffff166352d1902d6040518163ffffffff1660e01b8152600401602060405180830381865afa925050508015611942575060408051601f3d9081017fffffffffffffffffffffffffffffffffffffffffffffffffffffffffffffffe016820190925261193f91810190612c01565b60015b611990576040517f4c9c8ce300000000000000000000000000000000000000000000000000000000815273ffffffffffffffffffffffffffffffffffffffff8316600482015260240161146f565b7f360894a13ba1a3210667c828492db98dca3e2076cc3735a920a3ca505d382bbc81146119ec576040517faa1d49a40000000000000000000000000000000000000000000000000000000081526004810182905260240161146f565b610f918383611e12565b3073ffffffffffffffffffffffffffffffffffffffff7f00000000000000000000000000000000000000000000000000000000000000001614610e13576040517fe07c8dba00000000000000000000000000000000000000000000000000000000815260040160405180910390fd5b33611aa47f9016d09d72d40fdae2fd8ceac6b6234c7706214fd39c1cd1e609a0528c1993005473ffffffffffffffffffffffffffffffffffffffff1690565b73ffffffffffffffffffffffffffffffffffffffff1614610e13576040517f118cdaa700000000000000000000000000000000000000000000000000000000815233600482015260240161146f565b7f9016d09d72d40fdae2fd8ceac6b6234c7706214fd39c1cd1e609a0528c19930080547fffffffffffffffffffffffff0000000000000000000000000000000000000000811673ffffffffffffffffffffffffffffffffffffffff848116918217845560405192169182907f8be0079c531659141344cd1fd0a4f28419497f9722a3daafe3b4186f6b6457e0905f90a3505050565b6002547c0100000000000000000000000000000000000000000000000000000000900460ff16811115611bde57611bde7ff6fae721000000000000000000000000000000000000000000000000000000006117a9565b5f805b82811015611cdf5736848483818110611bfc57611bfc612bb1565b9050604002019050806020016020810190611c179190612c18565b6bffffffffffffffffffffffff165f03611c5457611c547f978dc040000000000000000000000000000000000000000000000000000000006117a9565b60055f611c646020840184612598565b73ffffffffffffffffffffffffffffffffffffffff16815260208101919091526040015f205460ff16611cba57611cba7f36407850000000000000000000000000000000000000000000000000000000006117a9565b611cca6040820160208301612c18565b611cd49084612c33565b925050600101611be1565b506bffffffffffffffffffffffff811661271014610f9157610f917f13134d24000000000000000000000000000000000000000000000000000000006117a9565b80516002545f91907c0100000000000000000000000000000000000000000000000000000000900460ff16811115611d5a57505f92915050565b5f5b81811015611dc25760055f858381518110611d7957611d79612bb1565b6020908102919091018101515173ffffffffffffffffffffffffffffffffffffffff1682528101919091526040015f205460ff16611dba57505f9392505050565b600101611d5c565b5060019392505050565b611dd4611e74565b610e13576040517fd7e6bcf800000000000000000000000000000000000000000000000000000000815260040160405180910390fd5b611424611dcc565b611e1b82611e92565b60405173ffffffffffffffffffffffffffffffffffffffff8316907fbc7cd75a20ee27fd9adebab32041f755214dbc6bffa90cc0225b39da2e5c2d3b905f90a2805115611e6c57610f918282611f60565b610a80611fdf565b5f611e7d611768565b5468010000000000000000900460ff16919050565b8073ffffffffffffffffffffffffffffffffffffffff163b5f03611efa576040517f4c9c8ce300000000000000000000000000000000000000000000000000000000815273ffffffffffffffffffffffffffffffffffffffff8216600482015260240161146f565b7f360894a13ba1a3210667c828492db98dca3e2076cc3735a920a3ca505d382bbc80547fffffffffffffffffffffffff00000000000000000000000000000000000000001673ffffffffffffffffffffffffffffffffffffffff92909216919091179055565b60605f808473ffffffffffffffffffffffffffffffffffffffff1684604051611f899190612c57565b5f60405180830381855af49150503d805f8114611fc1576040519150601f19603f3d011682016040523d82523d5f602084013e611fc6565b606091505b5091509150611fd6858383612017565b95945050505050565b3415610e13576040517fb398979f00000000000000000000000000000000000000000000000000000000815260040160405180910390fd5b60608261202c57612027826120a6565b610e62565b8151158015612050575073ffffffffffffffffffffffffffffffffffffffff84163b155b1561209f576040517f9996b31500000000000000000000000000000000000000000000000000000000815273ffffffffffffffffffffffffffffffffffffffff8516600482015260240161146f565b5080610e62565b8051156120b65780518082602001fd5b6040517fd6bda27500000000000000000000000000000000000000000000000000000000815260040160405180910390fd5b828054828255905f5260205f20908101928215612191575f5260205f209182015b8281111561219157825482547fffffffffffffffffffffffff00000000000000000000000000000000000000001673ffffffffffffffffffffffffffffffffffffffff909116908117835583546bffffffffffffffffffffffff7401000000000000000000000000000000000000000091829004160217825560019283019290910190612109565b5061219d9291506121b8565b5090565b5080545f8255905f5260205f209081019061148191905b5b8082111561219d575f81556001016121b9565b73ffffffffffffffffffffffffffffffffffffffff81168114611481575f80fd5b803560ff811681146121fd575f80fd5b919050565b5f805f805f60a08688031215612216575f80fd5b8535612221816121cc565b94506020860135612231816121cc565b93506040860135612241816121cc565b92506060860135612251816121cc565b915061225f608087016121ed565b90509295509295909350565b6020808252825167ffffffffffffffff1682820152828101516040808401528051606084018190525f929190910190829060808501905b808310156122f657835173ffffffffffffffffffffffffffffffffffffffff81511683526bffffffffffffffffffffffff6020820151166020840152506040820191506020840193506001830192506122a2565b5095945050505050565b5f8083601f840112612310575f80fd5b50813567ffffffffffffffff811115612327575f80fd5b60208301915083602082850101111561233e575f80fd5b9250929050565b5f8060208385031215612356575f80fd5b823567ffffffffffffffff81111561236c575f80fd5b61237885828601612300565b90969095509350505050565b7f4e487b71000000000000000000000000000000000000000000000000000000005f52604160045260245ffd5b5f8067ffffffffffffffff8411156123cb576123cb612384565b506040517fffffffffffffffffffffffffffffffffffffffffffffffffffffffffffffffe0601f85018116603f0116810181811067ffffffffffffffff8211171561241857612418612384565b60405283815290508082840185101561242f575f80fd5b838360208301375f60208583010152509392505050565b5f8060408385031215612457575f80fd5b8235612462816121cc565b9150602083013567ffffffffffffffff81111561247d575f80fd5b8301601f8101851361248d575f80fd5b61249c858235602084016123b1565b9150509250929050565b5f602082840312156124b6575f80fd5b610e62826121ed565b5f82601f8301126124ce575f80fd5b610e62838335602085016123b1565b5f80604083850312156124ee575f80fd5b82356124f9816121cc565b9150602083013567ffffffffffffffff811115612514575f80fd5b61249c858286016124bf565b5f805f60408486031215612532575f80fd5b833567ffffffffffffffff811115612548575f80fd5b61255486828701612300565b909790965060209590950135949350505050565b67ffffffffffffffff81168114611481575f80fd5b5f6020828403121561258d575f80fd5b8135610e6281612568565b5f602082840312156125a8575f80fd5b8135610e62816121cc565b602081525f82518060208401528060208501604085015e5f6040828501015260407fffffffffffffffffffffffffffffffffffffffffffffffffffffffffffffffe0601f83011684010191505092915050565b5f60208284031215612616575f80fd5b813567ffffffffffffffff81111561262c575f80fd5b820160408185031215610e62575f80fd5b5f805f805f60608688031215612651575f80fd5b853567ffffffffffffffff811115612667575f80fd5b61267388828901612300565b909650945050602086013561268781612568565b9250604086013567ffffffffffffffff8111156126a2575f80fd5b8601601f810188136126b2575f80fd5b803567ffffffffffffffff8111156126c8575f80fd5b8860208260061b84010111156126dc575f80fd5b959894975092955050506020019190565b5f805f606084860312156126ff575f80fd5b833561270a816121cc565b92506020840135801515811461271e575f80fd5b9150604084013567ffffffffffffffff811115612739575f80fd5b612745868287016124bf565b9150509250925092565b818382375f9101908152919050565b5f6040820167ffffffffffffffff8516835260406020840152808454808352606085019150855f5260205f2092505f5b818110156127cb57835473ffffffffffffffffffffffffffffffffffffffff8116845260a01c60208401526001938401936040909301920161278e565b50909695505050505050565b5f8083357fffffffffffffffffffffffffffffffffffffffffffffffffffffffffffffffe184360301811261280a575f80fd5b83018035915067ffffffffffffffff821115612824575f80fd5b6020019150600681901b360382131561233e575f80fd5b6bffffffffffffffffffffffff81168114611481575f80fd5b8183526020830192505f815f5b848110156128c2575f8235612875816121cc565b73ffffffffffffffffffffffffffffffffffffffff168752602083013561289b8161283b565b6bffffffffffffffffffffffff166020880152506040958601959190910190600101612861565b5093949350505050565b602081525f82356128dc81612568565b67ffffffffffffffff811660208401525060208301357fffffffffffffffffffffffffffffffffffffffffffffffffffffffffffffffe1843603018112612921575f80fd5b830160208101903567ffffffffffffffff81111561293d575f80fd5b8060061b360382131561294e575f80fd5b604080850152611fd6606085018284612854565b7f4e487b71000000000000000000000000000000000000000000000000000000005f52601160045260245ffd5b813561299a816121cc565b73ffffffffffffffffffffffffffffffffffffffff81169050807fffffffffffffffffffffffff000000000000000000000000000000000000000083541617825560208301356129e98161283b565b60a01b7fffffffffffffffffffffffff00000000000000000000000000000000000000001617905550565b8135612a1f81612568565b67ffffffffffffffff81167fffffffffffffffffffffffffffffffffffffffffffffffff00000000000000008354161782555060208201357fffffffffffffffffffffffffffffffffffffffffffffffffffffffffffffffe1833603018112612a86575f80fd5b8201803567ffffffffffffffff811115612a9e575f80fd5b6020820191508060061b3603821315612ab5575f80fd5b6001830168010000000000000000821115612ad257612ad2612384565b805482825580831015612b07575f828152602090208381019082015b80821015612b04575f8255600182019150612aee565b50505b505f90815260208120905b82811015610dfa57612b24848361298f565b6040939093019260019182019101612b12565b60208152816020820152818360408301375f818301604090810191909152601f9092017fffffffffffffffffffffffffffffffffffffffffffffffffffffffffffffffe0160101919050565b5f60208284031215612b93575f80fd5b8151610e62816121cc565b80820180821115610a3957610a39612962565b7f4e487b71000000000000000000000000000000000000000000000000000000005f52603260045260245ffd5b67ffffffffffffffff84168152604060208201525f611fd6604083018486612854565b5f60208284031215612c11575f80fd5b5051919050565b5f60208284031215612c28575f80fd5b8135610e628161283b565b6bffffffffffffffffffffffff8181168382160190811115610a3957610a39612962565b5f82518060208501845e5f92019182525091905056fea164736f6c634300081a000a","linkReferences":{}},"methodIdentifiers":{"MAX_REWARD_ALLOCATION_BLOCK_DELAY()":"4ce34525","UPGRADE_INTERFACE_VERSION()":"ad3cb1cc","activateReadyQueuedRewardAllocation(bytes)":"6ed0bf9a","beaconDepositContract()":"eafe0f4c","distributor()":"bfe10928","factory()":"c45a0155","getActiveRewardAllocation(bytes)":"da6f7563","getDefaultRewardAllocation()":"17dbf270","getQueuedRewardAllocation(bytes)":"4ecbf5c0","getSetActiveRewardAllocation(bytes)":"230288ce","initialize(address,address,address,address,uint8)":"008c2676","isQueuedRewardAllocationReady(bytes,uint256)":"722f8e0a","isReady()":"a094a031","isWhitelistedVault(address)":"a2ce2773","maxNumWeightsPerRewardAllocation()":"c35569cd","owner()":"8da5cb5b","proxiableUUID()":"52d1902d","queueNewRewardAllocation(bytes,uint64,(address,uint96)[])":"e5eb90aa","renounceOwnership()":"715018a6","rewardAllocationBlockDelay()":"53a35d1d","setDefaultRewardAllocation((uint64,(address,uint96)[]))":"c89f2665","setMaxNumWeightsPerRewardAllocation(uint8)":"66204c78","setRewardAllocationBlockDelay(uint64)":"9ca2626c","setVaultWhitelistedStatus(address,bool,string)":"fb9f6fde","transferOwnership(address)":"f2fde38b","updateWhitelistedVaultMetadata(address,string)":"69ed1708","upgradeToAndCall(address,bytes)":"4f1ef286"},"storageLayout":{"storage":[{"astId":86276,"contract":"src/v0_Contracts/BeraChef_V0.sol:BeraChef_V0","label":"distributor","offset":0,"slot":"0","type":"t_address"},{"astId":86279,"contract":"src/v0_Contracts/BeraChef_V0.sol:BeraChef_V0","label":"factory","offset":0,"slot":"1","type":"t_address"},{"astId":86282,"contract":"src/v0_Contracts/BeraChef_V0.sol:BeraChef_V0","label":"beaconDepositContract","offset":0,"slot":"2","type":"t_contract(IBeaconDeposit)80682"},{"astId":86285,"contract":"src/v0_Contracts/BeraChef_V0.sol:BeraChef_V0","label":"rewardAllocationBlockDelay","offset":20,"slot":"2","type":"t_uint64"},{"astId":86288,"contract":"src/v0_Contracts/BeraChef_V0.sol:BeraChef_V0","label":"maxNumWeightsPerRewardAllocation","offset":28,"slot":"2","type":"t_uint8"},{"astId":86294,"contract":"src/v0_Contracts/BeraChef_V0.sol:BeraChef_V0","label":"activeRewardAllocations","offset":0,"slot":"3","type":"t_mapping(t_bytes_memory_ptr,t_struct(RewardAllocation)92154_storage)"},{"astId":86300,"contract":"src/v0_Contracts/BeraChef_V0.sol:BeraChef_V0","label":"queuedRewardAllocations","offset":0,"slot":"4","type":"t_mapping(t_bytes_memory_ptr,t_struct(RewardAllocation)92154_storage)"},{"astId":86305,"contract":"src/v0_Contracts/BeraChef_V0.sol:BeraChef_V0","label":"isWhitelistedVault","offset":0,"slot":"5","type":"t_mapping(t_address,t_bool)"},{"astId":86309,"contract":"src/v0_Contracts/BeraChef_V0.sol:BeraChef_V0","label":"defaultRewardAllocation","offset":0,"slot":"6","type":"t_struct(RewardAllocation)92154_storage"}],"types":{"t_address":{"encoding":"inplace","label":"address","numberOfBytes":"20"},"t_array(t_struct(Weight)92160_storage)dyn_storage":{"encoding":"dynamic_array","label":"struct IBeraChef_V0.Weight[]","numberOfBytes":"32","base":"t_struct(Weight)92160_storage"},"t_bool":{"encoding":"inplace","label":"bool","numberOfBytes":"1"},"t_bytes_memory_ptr":{"encoding":"bytes","label":"bytes","numberOfBytes":"32"},"t_contract(IBeaconDeposit)80682":{"encoding":"inplace","label":"contract IBeaconDeposit","numberOfBytes":"20"},"t_mapping(t_address,t_bool)":{"encoding":"mapping","key":"t_address","label":"mapping(address => bool)","numberOfBytes":"32","value":"t_bool"},"t_mapping(t_bytes_memory_ptr,t_struct(RewardAllocation)92154_storage)":{"encoding":"mapping","key":"t_bytes_memory_ptr","label":"mapping(bytes => struct IBeraChef_V0.RewardAllocation)","numberOfBytes":"32","value":"t_struct(RewardAllocation)92154_storage"},"t_struct(RewardAllocation)92154_storage":{"encoding":"inplace","label":"struct IBeraChef_V0.RewardAllocation","numberOfBytes":"64","members":[{"astId":92149,"contract":"src/v0_Contracts/BeraChef_V0.sol:BeraChef_V0","label":"startBlock","offset":0,"slot":"0","type":"t_uint64"},{"astId":92153,"contract":"src/v0_Contracts/BeraChef_V0.sol:BeraChef_V0","label":"weights","offset":0,"slot":"1","type":"t_array(t_struct(Weight)92160_storage)dyn_storage"}]},"t_struct(Weight)92160_storage":{"encoding":"inplace","label":"struct IBeraChef_V0.Weight","numberOfBytes":"32","members":[{"astId":92157,"contract":"src/v0_Contracts/BeraChef_V0.sol:BeraChef_V0","label":"receiver","offset":0,"slot":"0","type":"t_address"},{"astId":92159,"contract":"src/v0_Contracts/BeraChef_V0.sol:BeraChef_V0","label":"percentageNumerator","offset":20,"slot":"0","type":"t_uint96"}]},"t_uint64":{"encoding":"inplace","label":"uint64","numberOfBytes":"8"},"t_uint8":{"encoding":"inplace","label":"uint8","numberOfBytes":"1"},"t_uint96":{"encoding":"inplace","label":"uint96","numberOfBytes":"12"}}},"id":156}