{"abi":[{"type":"constructor","inputs":[],"stateMutability":"nonpayable"},{"type":"function","name":"addIncentive","inputs":[{"name":"token","type":"address","internalType":"address"},{"name":"amount","type":"uint256","internalType":"uint256"},{"name":"incentiveRate","type":"uint256","internalType":"uint256"}],"outputs":[],"stateMutability":"nonpayable"},{"type":"function","name":"balanceOf","inputs":[{"name":"account","type":"address","internalType":"address"}],"outputs":[{"name":"","type":"uint256","internalType":"uint256"}],"stateMutability":"view"},{"type":"function","name":"beaconDepositContract","inputs":[],"outputs":[{"name":"","type":"address","internalType":"contract IBeaconDeposit"}],"stateMutability":"view"},{"type":"function","name":"delegateStake","inputs":[{"name":"account","type":"address","internalType":"address"},{"name":"amount","type":"uint256","internalType":"uint256"}],"outputs":[],"stateMutability":"nonpayable"},{"type":"function","name":"delegateWithdraw","inputs":[{"name":"account","type":"address","internalType":"address"},{"name":"amount","type":"uint256","internalType":"uint256"}],"outputs":[],"stateMutability":"nonpayable"},{"type":"function","name":"distributor","inputs":[],"outputs":[{"name":"","type":"address","internalType":"address"}],"stateMutability":"view"},{"type":"function","name":"earned","inputs":[{"name":"account","type":"address","internalType":"address"}],"outputs":[{"name":"","type":"uint256","internalType":"uint256"}],"stateMutability":"view"},{"type":"function","name":"exit","inputs":[{"name":"recipient","type":"address","internalType":"address"}],"outputs":[],"stateMutability":"nonpayable"},{"type":"function","name":"factory","inputs":[],"outputs":[{"name":"","type":"address","internalType":"address"}],"stateMutability":"view"},{"type":"function","name":"getDelegateStake","inputs":[{"name":"account","type":"address","internalType":"address"},{"name":"delegate","type":"address","internalType":"address"}],"outputs":[{"name":"","type":"uint256","internalType":"uint256"}],"stateMutability":"view"},{"type":"function","name":"getReward","inputs":[{"name":"account","type":"address","internalType":"address"},{"name":"recipient","type":"address","internalType":"address"}],"outputs":[{"name":"","type":"uint256","internalType":"uint256"}],"stateMutability":"nonpayable"},{"type":"function","name":"getRewardForDuration","inputs":[],"outputs":[{"name":"","type":"uint256","internalType":"uint256"}],"stateMutability":"view"},{"type":"function","name":"getTotalDelegateStaked","inputs":[{"name":"account","type":"address","internalType":"address"}],"outputs":[{"name":"","type":"uint256","internalType":"uint256"}],"stateMutability":"view"},{"type":"function","name":"getWhitelistedTokens","inputs":[],"outputs":[{"name":"","type":"address[]","internalType":"address[]"}],"stateMutability":"view"},{"type":"function","name":"getWhitelistedTokensCount","inputs":[],"outputs":[{"name":"","type":"uint256","internalType":"uint256"}],"stateMutability":"view"},{"type":"function","name":"incentives","inputs":[{"name":"token","type":"address","internalType":"address"}],"outputs":[{"name":"minIncentiveRate","type":"uint256","internalType":"uint256"},{"name":"incentiveRate","type":"uint256","internalType":"uint256"},{"name":"amountRemaining","type":"uint256","internalType":"uint256"},{"name":"manager","type":"address","internalType":"address"}],"stateMutability":"view"},{"type":"function","name":"initialize","inputs":[{"name":"_beaconDepositContract","type":"address","internalType":"address"},{"name":"_bgt","type":"address","internalType":"address"},{"name":"_distributor","type":"address","internalType":"address"},{"name":"_stakingToken","type":"address","internalType":"address"}],"outputs":[],"stateMutability":"nonpayable"},{"type":"function","name":"isFactoryOwner","inputs":[{"name":"user","type":"address","internalType":"address"}],"outputs":[{"name":"","type":"bool","internalType":"bool"}],"stateMutability":"view"},{"type":"function","name":"isFactoryVaultManager","inputs":[{"name":"user","type":"address","internalType":"address"}],"outputs":[{"name":"","type":"bool","internalType":"bool"}],"stateMutability":"view"},{"type":"function","name":"isFactoryVaultPauser","inputs":[{"name":"user","type":"address","internalType":"address"}],"outputs":[{"name":"","type":"bool","internalType":"bool"}],"stateMutability":"view"},{"type":"function","name":"lastTimeRewardApplicable","inputs":[],"outputs":[{"name":"","type":"uint256","internalType":"uint256"}],"stateMutability":"view"},{"type":"function","name":"lastUpdateTime","inputs":[],"outputs":[{"name":"","type":"uint256","internalType":"uint256"}],"stateMutability":"view"},{"type":"function","name":"maxIncentiveTokensCount","inputs":[],"outputs":[{"name":"","type":"uint8","internalType":"uint8"}],"stateMutability":"view"},{"type":"function","name":"notifyRewardAmount","inputs":[{"name":"pubkey","type":"bytes","internalType":"bytes"},{"name":"reward","type":"uint256","internalType":"uint256"}],"outputs":[],"stateMutability":"nonpayable"},{"type":"function","name":"operator","inputs":[{"name":"account","type":"address","internalType":"address"}],"outputs":[{"name":"","type":"address","internalType":"address"}],"stateMutability":"view"},{"type":"function","name":"pause","inputs":[],"outputs":[],"stateMutability":"nonpayable"},{"type":"function","name":"paused","inputs":[],"outputs":[{"name":"","type":"bool","internalType":"bool"}],"stateMutability":"view"},{"type":"function","name":"periodFinish","inputs":[],"outputs":[{"name":"","type":"uint256","internalType":"uint256"}],"stateMutability":"view"},{"type":"function","name":"recoverERC20","inputs":[{"name":"tokenAddress","type":"address","internalType":"address"},{"name":"tokenAmount","type":"uint256","internalType":"uint256"}],"outputs":[],"stateMutability":"nonpayable"},{"type":"function","name":"removeIncentiveToken","inputs":[{"name":"token","type":"address","internalType":"address"}],"outputs":[],"stateMutability":"nonpayable"},{"type":"function","name":"rewardPerToken","inputs":[],"outputs":[{"name":"","type":"uint256","internalType":"uint256"}],"stateMutability":"view"},{"type":"function","name":"rewardPerTokenStored","inputs":[],"outputs":[{"name":"","type":"uint256","internalType":"uint256"}],"stateMutability":"view"},{"type":"function","name":"rewardRate","inputs":[],"outputs":[{"name":"","type":"uint256","internalType":"uint256"}],"stateMutability":"view"},{"type":"function","name":"rewardToken","inputs":[],"outputs":[{"name":"","type":"address","internalType":"contract IERC20"}],"stateMutability":"view"},{"type":"function","name":"rewards","inputs":[{"name":"account","type":"address","internalType":"address"}],"outputs":[{"name":"","type":"uint256","internalType":"uint256"}],"stateMutability":"view"},{"type":"function","name":"rewardsDuration","inputs":[],"outputs":[{"name":"","type":"uint256","internalType":"uint256"}],"stateMutability":"view"},{"type":"function","name":"setDistributor","inputs":[{"name":"_rewardDistribution","type":"address","internalType":"address"}],"outputs":[],"stateMutability":"nonpayable"},{"type":"function","name":"setMaxIncentiveTokensCount","inputs":[{"name":"_maxIncentiveTokensCount","type":"uint8","internalType":"uint8"}],"outputs":[],"stateMutability":"nonpayable"},{"type":"function","name":"setOperator","inputs":[{"name":"_operator","type":"address","internalType":"address"}],"outputs":[],"stateMutability":"nonpayable"},{"type":"function","name":"setRewardsDuration","inputs":[{"name":"_rewardsDuration","type":"uint256","internalType":"uint256"}],"outputs":[],"stateMutability":"nonpayable"},{"type":"function","name":"stake","inputs":[{"name":"amount","type":"uint256","internalType":"uint256"}],"outputs":[],"stateMutability":"nonpayable"},{"type":"function","name":"stakeToken","inputs":[],"outputs":[{"name":"","type":"address","internalType":"contract IERC20"}],"stateMutability":"view"},{"type":"function","name":"totalSupply","inputs":[],"outputs":[{"name":"","type":"uint256","internalType":"uint256"}],"stateMutability":"view"},{"type":"function","name":"undistributedRewards","inputs":[],"outputs":[{"name":"","type":"uint256","internalType":"uint256"}],"stateMutability":"view"},{"type":"function","name":"unpause","inputs":[],"outputs":[],"stateMutability":"nonpayable"},{"type":"function","name":"updateIncentiveManager","inputs":[{"name":"token","type":"address","internalType":"address"},{"name":"newManager","type":"address","internalType":"address"}],"outputs":[],"stateMutability":"nonpayable"},{"type":"function","name":"userRewardPerTokenPaid","inputs":[{"name":"account","type":"address","internalType":"address"}],"outputs":[{"name":"","type":"uint256","internalType":"uint256"}],"stateMutability":"view"},{"type":"function","name":"whitelistIncentiveToken","inputs":[{"name":"token","type":"address","internalType":"address"},{"name":"minIncentiveRate","type":"uint256","internalType":"uint256"},{"name":"manager","type":"address","internalType":"address"}],"outputs":[],"stateMutability":"nonpayable"},{"type":"function","name":"whitelistedTokens","inputs":[{"name":"","type":"uint256","internalType":"uint256"}],"outputs":[{"name":"","type":"address","internalType":"address"}],"stateMutability":"view"},{"type":"function","name":"withdraw","inputs":[{"name":"amount","type":"uint256","internalType":"uint256"}],"outputs":[],"stateMutability":"nonpayable"},{"type":"event","name":"BGTBoosterIncentivesProcessFailed","inputs":[{"name":"pubkey","type":"bytes","indexed":true,"internalType":"bytes"},{"name":"token","type":"address","indexed":true,"internalType":"address"},{"name":"bgtEmitted","type":"uint256","indexed":false,"internalType":"uint256"},{"name":"amount","type":"uint256","indexed":false,"internalType":"uint256"}],"anonymous":false},{"type":"event","name":"BGTBoosterIncentivesProcessed","inputs":[{"name":"pubkey","type":"bytes","indexed":true,"internalType":"bytes"},{"name":"token","type":"address","indexed":true,"internalType":"address"},{"name":"bgtEmitted","type":"uint256","indexed":false,"internalType":"uint256"},{"name":"amount","type":"uint256","indexed":false,"internalType":"uint256"}],"anonymous":false},{"type":"event","name":"DelegateStaked","inputs":[{"name":"account","type":"address","indexed":true,"internalType":"address"},{"name":"delegate","type":"address","indexed":true,"internalType":"address"},{"name":"amount","type":"uint256","indexed":false,"internalType":"uint256"}],"anonymous":false},{"type":"event","name":"DelegateWithdrawn","inputs":[{"name":"account","type":"address","indexed":true,"internalType":"address"},{"name":"delegate","type":"address","indexed":true,"internalType":"address"},{"name":"amount","type":"uint256","indexed":false,"internalType":"uint256"}],"anonymous":false},{"type":"event","name":"DistributorSet","inputs":[{"name":"distributor","type":"address","indexed":true,"internalType":"address"}],"anonymous":false},{"type":"event","name":"IncentiveAdded","inputs":[{"name":"token","type":"address","indexed":true,"internalType":"address"},{"name":"sender","type":"address","indexed":false,"internalType":"address"},{"name":"amount","type":"uint256","indexed":false,"internalType":"uint256"},{"name":"incentiveRate","type":"uint256","indexed":false,"internalType":"uint256"}],"anonymous":false},{"type":"event","name":"IncentiveManagerChanged","inputs":[{"name":"token","type":"address","indexed":true,"internalType":"address"},{"name":"newManager","type":"address","indexed":false,"internalType":"address"},{"name":"oldManager","type":"address","indexed":false,"internalType":"address"}],"anonymous":false},{"type":"event","name":"IncentiveTokenRemoved","inputs":[{"name":"token","type":"address","indexed":true,"internalType":"address"}],"anonymous":false},{"type":"event","name":"IncentiveTokenWhitelisted","inputs":[{"name":"token","type":"address","indexed":true,"internalType":"address"},{"name":"minIncentiveRate","type":"uint256","indexed":false,"internalType":"uint256"},{"name":"manager","type":"address","indexed":false,"internalType":"address"}],"anonymous":false},{"type":"event","name":"IncentivesProcessFailed","inputs":[{"name":"pubkey","type":"bytes","indexed":true,"internalType":"bytes"},{"name":"token","type":"address","indexed":true,"internalType":"address"},{"name":"bgtEmitted","type":"uint256","indexed":false,"internalType":"uint256"},{"name":"amount","type":"uint256","indexed":false,"internalType":"uint256"}],"anonymous":false},{"type":"event","name":"IncentivesProcessed","inputs":[{"name":"pubkey","type":"bytes","indexed":true,"internalType":"bytes"},{"name":"token","type":"address","indexed":true,"internalType":"address"},{"name":"bgtEmitted","type":"uint256","indexed":false,"internalType":"uint256"},{"name":"amount","type":"uint256","indexed":false,"internalType":"uint256"}],"anonymous":false},{"type":"event","name":"Initialized","inputs":[{"name":"version","type":"uint64","indexed":false,"internalType":"uint64"}],"anonymous":false},{"type":"event","name":"MaxIncentiveTokensCountUpdated","inputs":[{"name":"maxIncentiveTokensCount","type":"uint8","indexed":false,"internalType":"uint8"}],"anonymous":false},{"type":"event","name":"OperatorSet","inputs":[{"name":"account","type":"address","indexed":false,"internalType":"address"},{"name":"operator","type":"address","indexed":false,"internalType":"address"}],"anonymous":false},{"type":"event","name":"Paused","inputs":[{"name":"account","type":"address","indexed":false,"internalType":"address"}],"anonymous":false},{"type":"event","name":"Recovered","inputs":[{"name":"token","type":"address","indexed":false,"internalType":"address"},{"name":"amount","type":"uint256","indexed":false,"internalType":"uint256"}],"anonymous":false},{"type":"event","name":"RewardAdded","inputs":[{"name":"reward","type":"uint256","indexed":false,"internalType":"uint256"}],"anonymous":false},{"type":"event","name":"RewardPaid","inputs":[{"name":"account","type":"address","indexed":true,"internalType":"address"},{"name":"to","type":"address","indexed":false,"internalType":"address"},{"name":"reward","type":"uint256","indexed":false,"internalType":"uint256"}],"anonymous":false},{"type":"event","name":"RewardsDurationUpdated","inputs":[{"name":"newDuration","type":"uint256","indexed":false,"internalType":"uint256"}],"anonymous":false},{"type":"event","name":"Staked","inputs":[{"name":"account","type":"address","indexed":true,"internalType":"address"},{"name":"amount","type":"uint256","indexed":false,"internalType":"uint256"}],"anonymous":false},{"type":"event","name":"Unpaused","inputs":[{"name":"account","type":"address","indexed":false,"internalType":"address"}],"anonymous":false},{"type":"event","name":"Withdrawn","inputs":[{"name":"account","type":"address","indexed":true,"internalType":"address"},{"name":"amount","type":"uint256","indexed":false,"internalType":"uint256"}],"anonymous":false},{"type":"error","name":"AmountLessThanMinIncentiveRate","inputs":[]},{"type":"error","name":"CannotRecoverIncentiveToken","inputs":[]},{"type":"error","name":"CannotRecoverRewardToken","inputs":[]},{"type":"error","name":"CannotRecoverStakingToken","inputs":[]},{"type":"error","name":"CommissionChangeAlreadyQueued","inputs":[]},{"type":"error","name":"CommissionNotQueuedOrDelayNotPassed","inputs":[]},{"type":"error","name":"DepositNotMultipleOfGwei","inputs":[]},{"type":"error","name":"DepositValueTooHigh","inputs":[]},{"type":"error","name":"DonateAmountLessThanPayoutAmount","inputs":[]},{"type":"error","name":"EnforcedPause","inputs":[]},{"type":"error","name":"ExpectedPause","inputs":[]},{"type":"error","name":"IncentiveRateTooHigh","inputs":[]},{"type":"error","name":"IndexOutOfRange","inputs":[]},{"type":"error","name":"InsolventReward","inputs":[]},{"type":"error","name":"InsufficientDelegateStake","inputs":[]},{"type":"error","name":"InsufficientDeposit","inputs":[]},{"type":"error","name":"InsufficientIncentiveTokens","inputs":[]},{"type":"error","name":"InsufficientSelfStake","inputs":[]},{"type":"error","name":"InsufficientStake","inputs":[]},{"type":"error","name":"InvalidActivateBoostDelay","inputs":[]},{"type":"error","name":"InvalidArray","inputs":[]},{"type":"error","name":"InvalidBaseRate","inputs":[]},{"type":"error","name":"InvalidBoostMultiplier","inputs":[]},{"type":"error","name":"InvalidCommissionChangeDelay","inputs":[]},{"type":"error","name":"InvalidCommissionValue","inputs":[]},{"type":"error","name":"InvalidCredentialsLength","inputs":[]},{"type":"error","name":"InvalidDistribution","inputs":[]},{"type":"error","name":"InvalidDropBoostDelay","inputs":[]},{"type":"error","name":"InvalidIncentiveRate","inputs":[]},{"type":"error","name":"InvalidInitialization","inputs":[]},{"type":"error","name":"InvalidMaxIncentiveTokensCount","inputs":[]},{"type":"error","name":"InvalidMaxWeightPerVault","inputs":[]},{"type":"error","name":"InvalidMerkleRoot","inputs":[]},{"type":"error","name":"InvalidMinBoostedRewardRate","inputs":[]},{"type":"error","name":"InvalidProof","inputs":[]},{"type":"error","name":"InvalidPubKeyLength","inputs":[]},{"type":"error","name":"InvalidRewardAllocationWeights","inputs":[]},{"type":"error","name":"InvalidRewardClaimDelay","inputs":[]},{"type":"error","name":"InvalidRewardConvexity","inputs":[]},{"type":"error","name":"InvalidRewardRate","inputs":[]},{"type":"error","name":"InvalidSignatureLength","inputs":[]},{"type":"error","name":"InvalidStartBlock","inputs":[]},{"type":"error","name":"InvalidToken","inputs":[]},{"type":"error","name":"InvalidWeight","inputs":[]},{"type":"error","name":"InvalidateDefaultRewardAllocation","inputs":[]},{"type":"error","name":"InvariantCheckFailed","inputs":[]},{"type":"error","name":"MaxNumWeightsPerRewardAllocationIsZero","inputs":[]},{"type":"error","name":"MinIncentiveRateIsZero","inputs":[]},{"type":"error","name":"NotAContract","inputs":[]},{"type":"error","name":"NotApprovedSender","inputs":[]},{"type":"error","name":"NotBGT","inputs":[]},{"type":"error","name":"NotBlockRewardController","inputs":[]},{"type":"error","name":"NotDelegate","inputs":[]},{"type":"error","name":"NotDistributor","inputs":[]},{"type":"error","name":"NotEnoughBalance","inputs":[]},{"type":"error","name":"NotEnoughBoostedBalance","inputs":[]},{"type":"error","name":"NotEnoughTime","inputs":[]},{"type":"error","name":"NotFactoryVault","inputs":[]},{"type":"error","name":"NotFeeCollector","inputs":[]},{"type":"error","name":"NotIncentiveManager","inputs":[]},{"type":"error","name":"NotInitializing","inputs":[]},{"type":"error","name":"NotNewOperator","inputs":[]},{"type":"error","name":"NotOperator","inputs":[]},{"type":"error","name":"NotWhitelistedVault","inputs":[]},{"type":"error","name":"OperatorAlreadySet","inputs":[]},{"type":"error","name":"OwnableUnauthorizedAccount","inputs":[{"name":"account","type":"address","internalType":"address"}]},{"type":"error","name":"PayoutAmountIsZero","inputs":[]},{"type":"error","name":"ReentrancyGuardReentrantCall","inputs":[]},{"type":"error","name":"RewardAllocationAlreadyQueued","inputs":[]},{"type":"error","name":"RewardAllocationBlockDelayTooLarge","inputs":[]},{"type":"error","name":"RewardCycleNotEnded","inputs":[]},{"type":"error","name":"RewardInactive","inputs":[]},{"type":"error","name":"RewardsDurationIsZero","inputs":[]},{"type":"error","name":"SafeERC20FailedOperation","inputs":[{"name":"token","type":"address","internalType":"address"}]},{"type":"error","name":"StakeAmountIsZero","inputs":[]},{"type":"error","name":"TimestampAlreadyProcessed","inputs":[]},{"type":"error","name":"TokenAlreadyWhitelistedOrLimitReached","inputs":[]},{"type":"error","name":"TokenNotWhitelisted","inputs":[]},{"type":"error","name":"TooManyWeights","inputs":[]},{"type":"error","name":"TotalSupplyOverflow","inputs":[]},{"type":"error","name":"WithdrawAmountIsZero","inputs":[]},{"type":"error","name":"ZeroAddress","inputs":[]},{"type":"error","name":"ZeroOperatorOnFirstDeposit","inputs":[]},{"type":"error","name":"ZeroPercentageWeight","inputs":[]}],"bytecode":{"object":"0x6080604052348015600e575f80fd5b5060156019565b60c9565b7ff0c57e16840df040f15088dc2f81fe391c3923bec73e23a9662efc9c229c6a00805468010000000000000000900460ff161560685760405163f92ee8a960e01b815260040160405180910390fd5b80546001600160401b039081161460c65780546001600160401b0319166001600160401b0390811782556040519081527fc7f505b2f371ae2175ee4913f4499e1f2633a7b5936321eed1cdaeb6115181d29060200160405180910390a15b50565b61397e806100d65f395ff3fe608060405234801561000f575f80fd5b5060043610610324575f3560e01c80638980f11f116101a8578063c45a0155116100f3578063e26f79001161009e578063eafe0f4c11610079578063eafe0f4c14610821578063ebe2b12b14610841578063f7c618c11461084a578063f8c8765e1461086a575f80fd5b8063e26f7900146107e6578063e434eee0146107fb578063e7d379a91461080e575f80fd5b8063cd3daf9d116100ce578063cd3daf9d146107c2578063cfbde346146107ca578063df136d65146107dd575f80fd5b8063c45a015514610769578063c8f33c91146107a6578063cc1a378f146107af575f80fd5b8063a4dbda3c11610153578063b42652e91161012e578063b42652e91461071e578063b42f60db14610731578063bfe1092814610744575f80fd5b8063a4dbda3c146106c3578063a694fc3a146106f8578063b3ab15fb1461070b575f80fd5b80638f650f9c116101835780638f650f9c1461063a5780639a307391146106835780639cd3f384146106bb575f80fd5b80638980f11f146105dc5780638b876347146105ef5780638eb3f35c14610627575f80fd5b8063433e8e41116102735780636b0916951161021e578063774e900b116101f9578063774e900b146105435780637b0a47ee146105c357806380faa57d146105cc5780638456cb59146105d4575f80fd5b80636b091695146104e857806370a08231146104fb57806375619ab514610530575f80fd5b806354659b941161024e57806354659b941461048c5780635c975abb1461049f57806367df5e01146104c9575f80fd5b8063433e8e411461044757806351ed6a301461045a5780635281244f14610479575f80fd5b80632154bc44116102d3578063386a9525116102ae578063386a9525146104235780633c323a1b1461042c5780633f4ba83a1461043f575f80fd5b80632154bc44146103cf5780632e1a7d4d14610407578063319ce2bb1461041a575f80fd5b8063166496181161030357806316649618146103a957806318160ddd146103be5780631c1f78eb146103c7575f80fd5b80628cc262146103285780630700037d1461034e578063078f7fd314610386575b5f80fd5b61033b6103363660046134f7565b61087d565b6040519081526020015b60405180910390f35b61033b61035c3660046134f7565b73ffffffffffffffffffffffffffffffffffffffff165f9081526009602052604090206001015490565b6103996103943660046134f7565b6108e2565b6040519015158152602001610345565b6103bc6103b7366004613512565b6109c4565b005b61033b60055481565b61033b610bda565b6103e26103dd366004613551565b610bf7565b60405173ffffffffffffffffffffffffffffffffffffffff9091168152602001610345565b6103bc610415366004613551565b610c2c565b61033b60035481565b61033b60075481565b6103bc61043a366004613568565b610c78565b6103bc610d7a565b6103996104553660046134f7565b610d8c565b5f546103e29073ffffffffffffffffffffffffffffffffffffffff1681565b6103bc610487366004613568565b610dd5565b6103bc61049a366004613592565b610efa565b7fcd5ed15c6e187e77e9aee88184c21f4f2182ab5827cb3b7e07fbedcd63f033005460ff16610399565b603c546104d69060ff1681565b60405160ff9091168152602001610345565b61033b6104f63660046135b2565b610f9f565b61033b6105093660046134f7565b73ffffffffffffffffffffffffffffffffffffffff165f9081526009602052604090205490565b6103bc61053e3660046134f7565b611058565b61058d6105513660046134f7565b604060208190525f91825290208054600182015460028301546003909301549192909173ffffffffffffffffffffffffffffffffffffffff1684565b6040805194855260208501939093529183015273ffffffffffffffffffffffffffffffffffffffff166060820152608001610345565b61033b60025481565b61033b611119565b6103bc61112c565b6103bc6105ea366004613568565b61113c565b61033b6105fd3660046134f7565b73ffffffffffffffffffffffffffffffffffffffff165f9081526009602052604090206002015490565b6103bc6106353660046135b2565b611257565b61033b6106483660046135b2565b73ffffffffffffffffffffffffffffffffffffffff9182165f908152603e602090815260408083209390941682526001909201909152205490565b6103e26106913660046134f7565b73ffffffffffffffffffffffffffffffffffffffff9081165f908152603f60205260409020541690565b60415461033b565b61033b6106d13660046134f7565b73ffffffffffffffffffffffffffffffffffffffff165f908152603e602052604090205490565b6103bc610706366004613551565b611394565b6103bc6107193660046134f7565b6113d7565b6103bc61072c3660046134f7565b61145b565b6103bc61073f3660046135e9565b61149d565b603c546103e290610100900473ffffffffffffffffffffffffffffffffffffffff1681565b7f4e32a932fdd4658a66f9586d8955a0d0a795a01bd8251335b4fae29d972acc005473ffffffffffffffffffffffffffffffffffffffff166103e2565b61033b60085481565b6103bc6107bd366004613551565b6116e3565b61033b6116f4565b6103996107d83660046134f7565b61173d565b61033b60045481565b6107ee611786565b604051610345919061361b565b6103bc610809366004613673565b6117f3565b6103bc61081c3660046134f7565b611854565b603d546103e29073ffffffffffffffffffffffffffffffffffffffff1681565b61033b60065481565b6001546103e29073ffffffffffffffffffffffffffffffffffffffff1681565b6103bc6108783660046136e5565b61195d565b73ffffffffffffffffffffffffffffffffffffffff81165f90815260096020526040812080546001820154600283015484816108b76116f4565b0390506108cd8482670de0b6b3a7640000611bc4565b6108d7908461376b565b979650505050505050565b7f4e32a932fdd4658a66f9586d8955a0d0a795a01bd8251335b4fae29d972acc0080545f919073ffffffffffffffffffffffffffffffffffffffff166391d1485461092b611c71565b6040517fffffffff0000000000000000000000000000000000000000000000000000000060e084901b168152600481019190915273ffffffffffffffffffffffffffffffffffffffff86166024820152604401602060405180830381865afa158015610999573d5f803e3d5ffd5b505050506040513d601f19601f820116820180604052508101906109bd919061377e565b9392505050565b6109cc611d29565b815f036109fc576109fc7f0b5c3aff00000000000000000000000000000000000000000000000000000000611d60565b6ec097ce7bc90715b34b9f1000000000821115610a3c57610a3c7f38432c8900000000000000000000000000000000000000000000000000000000611d60565b73ffffffffffffffffffffffffffffffffffffffff83161580610a73575073ffffffffffffffffffffffffffffffffffffffff8116155b15610aa157610aa17fd92e233d00000000000000000000000000000000000000000000000000000000611d60565b73ffffffffffffffffffffffffffffffffffffffff83165f908152604060208190529020603c5460415460ff9091161480610adc5750805415155b15610b0a57610b0a7ffbf97e0700000000000000000000000000000000000000000000000000000000611d60565b60418054600180820183555f929092527f7c9785e8241615bc80415d89775984a1337d15dc1bf4ce50f41988b2a2b336a70180547fffffffffffffffffffffffff000000000000000000000000000000000000000090811673ffffffffffffffffffffffffffffffffffffffff88811691821790935592840186905585845560038401805490911691851691821790556040805186815260208101929092527fc672b9cba50e3745edbd6cfb6512bc2165f66d47f686401223bc515cc933d9e0910160405180910390a250505050565b5f610bf2600254600754670de0b6b3a7640000611bc4565b905090565b60418181548110610c06575f80fd5b5f9182526020909120015473ffffffffffffffffffffffffffffffffffffffff16905081565b610c34611d68565b3381610c408282611de9565b610c4a3384611e4c565b5050610c7560017f9b779b17422d0df92223018b32b4d1fa46e071723d6817e2486d003becc55f0055565b50565b610c80611d68565b610c88611fa1565b73ffffffffffffffffffffffffffffffffffffffff82163303610cce57610cce7f1db3b85900000000000000000000000000000000000000000000000000000000611d60565b610cd88282611ffd565b73ffffffffffffffffffffffffffffffffffffffff82165f818152603e60209081526040808320805486018155338085526001909101835292819020805486019055518481529192917f5d84fd7efe2fd5203970924007f1f56ec874f1fdbe6acec5f208000a72c7045691015b60405180910390a3610d7660017f9b779b17422d0df92223018b32b4d1fa46e071723d6817e2486d003becc55f0055565b5050565b610d8261210a565b610d8a612113565b565b7f4e32a932fdd4658a66f9586d8955a0d0a795a01bd8251335b4fae29d972acc0080545f919073ffffffffffffffffffffffffffffffffffffffff166391d1485461092b6121aa565b610ddd611d68565b73ffffffffffffffffffffffffffffffffffffffff82163303610e2357610e237f1db3b85900000000000000000000000000000000000000000000000000000000611d60565b73ffffffffffffffffffffffffffffffffffffffff82165f908152603e60209081526040808320338452600181019092529091205482811015610e8957610e897f8d1473a600000000000000000000000000000000000000000000000000000000611d60565b335f908152600183016020526040902090839003905580548290039055610eb08282611e4c565b604051818152339073ffffffffffffffffffffffffffffffffffffffff8416907fb1296e59c4148d97ce0bf24c50bb4bd58367005c1871eef38c03187f3cff850490602001610d45565b610f02611d29565b60415460ff82161015610f3857610f387ffbf1123c00000000000000000000000000000000000000000000000000000000611d60565b603c80547fffffffffffffffffffffffffffffffffffffffffffffffffffffffffffffff001660ff83169081179091556040519081527f8d31d8a650a75f6978e9d7331686f948e5fddeaa4940eddb941d4129459d8bf3906020015b60405180910390a150565b5f610fa8611d68565b823373ffffffffffffffffffffffffffffffffffffffff82161461101c5773ffffffffffffffffffffffffffffffffffffffff8181165f908152603f602052604090205416331461101c5761101c7f7c214f0400000000000000000000000000000000000000000000000000000000611d60565b6110268484612238565b91505061105260017f9b779b17422d0df92223018b32b4d1fa46e071723d6817e2486d003becc55f0055565b92915050565b611060611d29565b73ffffffffffffffffffffffffffffffffffffffff81166110a4576110a47fd92e233d00000000000000000000000000000000000000000000000000000000611d60565b603c80547fffffffffffffffffffffff0000000000000000000000000000000000000000ff1661010073ffffffffffffffffffffffffffffffffffffffff8416908102919091179091556040517f86719c518c7d99ac94b3d405d462ea876ba5cd0a978461dc9a7c9862a9485886905f90a250565b5f610bf242600654808218908211021890565b6111346122df565b610d8a6122e8565b611144611d29565b5f5473ffffffffffffffffffffffffffffffffffffffff9081169083160361118f5761118f7f1b81380300000000000000000000000000000000000000000000000000000000611d60565b73ffffffffffffffffffffffffffffffffffffffff82165f90815260406020819052902054156111e2576111e27f2899103f00000000000000000000000000000000000000000000000000000000611d60565b61120373ffffffffffffffffffffffffffffffffffffffff83163383612361565b6040805173ffffffffffffffffffffffffffffffffffffffff84168152602081018390527f8c1256b8896378cd5044f80c202f9772b9d77dc85c8a6eb51967210b09bfaa2891015b60405180910390a15050565b61125f611d29565b73ffffffffffffffffffffffffffffffffffffffff82165f908152604060208190528120548391036112b4576112b47ff84835a000000000000000000000000000000000000000000000000000000000611d60565b73ffffffffffffffffffffffffffffffffffffffff82166112f8576112f87fd92e233d00000000000000000000000000000000000000000000000000000000611d60565b73ffffffffffffffffffffffffffffffffffffffff8381165f81815260406020818152918190206003810180548887167fffffffffffffffffffffffff0000000000000000000000000000000000000000821681179092558351918252909516928501839052939192917fde0b08e9133c988b532b66a2067bcb23214f588d9d4f4e2dd869bc7ddf16ee11910160405180910390a25050505050565b61139c611d68565b6113a4611fa1565b6113ae3382611ffd565b610c7560017f9b779b17422d0df92223018b32b4d1fa46e071723d6817e2486d003becc55f0055565b335f818152603f602090815260409182902080547fffffffffffffffffffffffff00000000000000000000000000000000000000001673ffffffffffffffffffffffffffffffffffffffff86169081179091558251938452908301527ffd489696792cc4c5d5b226c46f008e459c8ec9b746c49191d74bb92c19fd18679101610f94565b611463611d68565b335f908152603e60209081526040808320546009909252822054611487919061379d565b90506114933382611e4c565b610c4a3383612238565b6114a5611d68565b73ffffffffffffffffffffffffffffffffffffffff83165f908152604060208190528120548491036114fa576114fa7ff84835a000000000000000000000000000000000000000000000000000000000611d60565b6ec097ce7bc90715b34b9f100000000082111561153a5761153a7f38432c8900000000000000000000000000000000000000000000000000000000611d60565b73ffffffffffffffffffffffffffffffffffffffff8085165f90815260406020819052902080546001820154600283015460038401549394929391929091163381146115a9576115a97f5ee4de0e00000000000000000000000000000000000000000000000000000000611d60565b838810156115da576115da7fad57d95d00000000000000000000000000000000000000000000000000000000611d60565b6115fc73ffffffffffffffffffffffffffffffffffffffff8a1633308b6123e2565b611606888361376b565b6002860155811580156116195750838710155b1561162a5760018501879055611650565b828711156116505782870361164083828661242e565b891061164e57600186018890555b505b600185015460408051338152602081018b90529081019190915273ffffffffffffffffffffffffffffffffffffffff8a16907f8bf110a87db594cedb42356a9ca4b64a0d26fb09909292e842c614823e41d3379060600160405180910390a25050505050506116de60017f9b779b17422d0df92223018b32b4d1fa46e071723d6817e2486d003becc55f0055565b505050565b6116eb611d29565b610c758161244c565b6005545f9080820361170857505060045490565b5f600854611714611119565b0390505f6117256002548385611bc4565b905080600454611735919061376b565b935050505090565b7f4e32a932fdd4658a66f9586d8955a0d0a795a01bd8251335b4fae29d972acc0080545f919073ffffffffffffffffffffffffffffffffffffffff166391d1485461092b6124b1565b606060418054806020026020016040519081016040528092919081815260200182805480156117e957602002820191905f5260205f20905b815473ffffffffffffffffffffffffffffffffffffffff1681526001909101906020018083116117be575b5050505050905090565b603c54610100900473ffffffffffffffffffffffffffffffffffffffff163314611840576118407f385296d500000000000000000000000000000000000000000000000000000000611d60565b6118498161253f565b6116de8383836125ee565b61185c61210a565b73ffffffffffffffffffffffffffffffffffffffff81165f908152604060208190528120548291036118b1576118b17ff84835a000000000000000000000000000000000000000000000000000000000611d60565b73ffffffffffffffffffffffffffffffffffffffff82165f90815260406020819052812081815560018101829055600281019190915560030180547fffffffffffffffffffffffff000000000000000000000000000000000000000016905561191982612de3565b60405173ffffffffffffffffffffffffffffffffffffffff8316907f65ff9187746d336179f23ad14746fa804e31bac422ef2dd63b9dc97313caa797905f90a25050565b5f611966612f36565b805490915060ff68010000000000000000820416159067ffffffffffffffff165f811580156119925750825b90505f8267ffffffffffffffff1660011480156119ae5750303b155b9050811580156119bc575080155b156119f3576040517ff92ee8a900000000000000000000000000000000000000000000000000000000815260040160405180910390fd5b84547fffffffffffffffffffffffffffffffffffffffffffffffff00000000000000001660011785558315611a545784547fffffffffffffffffffffffffffffffffffffffffffffff00ffffffffffffffff16680100000000000000001785555b611a5d33612f5e565b611a65612fc8565b611a6d612fd0565b611a7b868962093a80612fe0565b603c805473ffffffffffffffffffffffffffffffffffffffff808a1661010081027fffffffffffffffffffffff00000000000000000000000000000000000000000090931692909217600217909255603d8054928c167fffffffffffffffffffffffff0000000000000000000000000000000000000000909316929092179091556040517f86719c518c7d99ac94b3d405d462ea876ba5cd0a978461dc9a7c9862a9485886905f90a2604051600281527f8d31d8a650a75f6978e9d7331686f948e5fddeaa4940eddb941d4129459d8bf39060200160405180910390a18315611bb95784547fffffffffffffffffffffffffffffffffffffffffffffff00ffffffffffffffff168555604051600181527fc7f505b2f371ae2175ee4913f4499e1f2633a7b5936321eed1cdaeb6115181d29060200160405180910390a15b505050505050505050565b82820281838583041485151702611c6a577fffffffffffffffffffffffffffffffffffffffffffffffffffffffffffffffff8385098181108201900382848609835f038416828511611c1d5763ae47f7025f526004601cfd5b93849004938382119092035f8390038390046001010292030417600260038302811880840282030280840282030280840282030280840282030280840282030280840290910302026109bd565b0492915050565b7f4e32a932fdd4658a66f9586d8955a0d0a795a01bd8251335b4fae29d972acc008054604080517fc209bca200000000000000000000000000000000000000000000000000000000815290515f939273ffffffffffffffffffffffffffffffffffffffff169163c209bca29160048083019260209291908290030181865afa158015611cff573d5f803e3d5ffd5b505050506040513d601f19601f82011682018060405250810190611d2391906137b0565b91505090565b611d3233610d8c565b610d8a57610d8a7f118cdaa70000000000000000000000000000000000000000000000000000000033613041565b805f5260045ffd5b7f9b779b17422d0df92223018b32b4d1fa46e071723d6817e2486d003becc55f0080547ffffffffffffffffffffffffffffffffffffffffffffffffffffffffffffffffe01611de3576040517f3ee5aeb500000000000000000000000000000000000000000000000000000000815260040160405180910390fd5b60029055565b73ffffffffffffffffffffffffffffffffffffffff82165f908152603e602090815260408083205460099092529091205403818110156116de576116de7f08e88f4600000000000000000000000000000000000000000000000000000000611d60565b805f03611e7c57611e7c7fa393d14b00000000000000000000000000000000000000000000000000000000611d60565b611e858261304d565b73ffffffffffffffffffffffffffffffffffffffff82165f908152600960205260409020805482811015611edc57611edc7ff1bc94d200000000000000000000000000000000000000000000000000000000611d60565b82900390556005805482810390915581148015611efa575060065442105b15611f1d57611f076130c0565b60035f828254611f17919061376b565b90915550505b611f2733826130d7565b8173ffffffffffffffffffffffffffffffffffffffff167f7084f5476618d8e60b11ef0d7d3f06914655adb8793e28ff7f018d4c76d505d582604051611f6f91815260200190565b60405180910390a25050565b60017f9b779b17422d0df92223018b32b4d1fa46e071723d6817e2486d003becc55f0055565b7fcd5ed15c6e187e77e9aee88184c21f4f2182ab5827cb3b7e07fbedcd63f033005460ff1615610d8a576040517fd93c066500000000000000000000000000000000000000000000000000000000815260040160405180910390fd5b805f0361202d5761202d7f5ce91fd000000000000000000000000000000000000000000000000000000000611d60565b60055415801561203e57505f600354115b1561204b5761204b6130fa565b6120548261304d565b60055481810181811161208a5761208a7fe5cfe95700000000000000000000000000000000000000000000000000000000611d60565b6005555073ffffffffffffffffffffffffffffffffffffffff82165f9081526009602052604090208054820190556120c23382613144565b8173ffffffffffffffffffffffffffffffffffffffff167f9e71bc8eea02a63969f509818f2dafb9254532904319f9dbda79b67bd34a5f3d82604051611f6f91815260200190565b611d323361173d565b61211b613168565b7fcd5ed15c6e187e77e9aee88184c21f4f2182ab5827cb3b7e07fbedcd63f0330080547fffffffffffffffffffffffffffffffffffffffffffffffffffffffffffffff001681557f5db9ee0a495bf2e6ff9c91a7834c1ba4fdd244a5e8aa4e537bd38aeae4b073aa335b60405173ffffffffffffffffffffffffffffffffffffffff9091168152602001610f94565b7f4e32a932fdd4658a66f9586d8955a0d0a795a01bd8251335b4fae29d972acc008054604080517fa217fddf00000000000000000000000000000000000000000000000000000000815290515f939273ffffffffffffffffffffffffffffffffffffffff169163a217fddf9160048083019260209291908290030181865afa158015611cff573d5f803e3d5ffd5b5f826122438161304d565b73ffffffffffffffffffffffffffffffffffffffff84165f908152600960205260409020600181015480156122d6575f600183015561228285826131c3565b6040805173ffffffffffffffffffffffffffffffffffffffff8781168252602082018490528816917f540798df468d7b23d11f156fdb954cb19ad414d150722a7b6d55ba369dea792e910160405180910390a25b95945050505050565b611d32336108e2565b6122f0611fa1565b7fcd5ed15c6e187e77e9aee88184c21f4f2182ab5827cb3b7e07fbedcd63f0330080547fffffffffffffffffffffffffffffffffffffffffffffffffffffffffffffff001660011781557f62e78cea01bee320cd4e420270b5ea74000d11b0c9f74754ebdbfc544b05a25833612185565b60405173ffffffffffffffffffffffffffffffffffffffff8381166024830152604482018390526116de91859182169063a9059cbb906064015b604051602081830303815290604052915060e01b6020820180517bffffffffffffffffffffffffffffffffffffffffffffffffffffffff83818316178352505050506131f4565b60405173ffffffffffffffffffffffffffffffffffffffff84811660248301528381166044830152606482018390526124289186918216906323b872dd9060840161239b565b50505050565b82820283158482048414178202611c6a5763ad251c275f526004601cfd5b805f0361247c5761247c7f359f174d00000000000000000000000000000000000000000000000000000000611d60565b60078190556040518181527ffb46ca5a5e06d4540d6387b930a7c978bce0db5f449ec6b3f5d07c6e1d44f2d390602001610f94565b7f4e32a932fdd4658a66f9586d8955a0d0a795a01bd8251335b4fae29d972acc008054604080517f5e5a24a400000000000000000000000000000000000000000000000000000000815290515f939273ffffffffffffffffffffffffffffffffffffffff1691635e5a24a49160048083019260209291908290030181865afa158015611cff573d5f803e3d5ffd5b5f6125498161304d565b61255b670de0b6b3a7640000836137c7565b91506005545f14158015612570575060065442105b1561258a5761257d6130c0565b612587908361376b565b91505b8160035f82825461259b919061376b565b909155506125a99050613297565b600554156125be576125b96130fa565b426008555b6040518281527fde88a922e0d3b88b24e9623efeb464919c6bf9f66857a65e2bfcf2ce87a9433d9060200161124b565b603d546040517f9eaffa960000000000000000000000000000000000000000000000000000000081525f9173ffffffffffffffffffffffffffffffffffffffff1690639eaffa96906126469087908790600401613825565b602060405180830381865afa158015612661573d5f803e3d5ffd5b505050506040513d601f19601f820116820180604052508101906126859190613840565b90505f603c60019054906101000a900473ffffffffffffffffffffffffffffffffffffffff1673ffffffffffffffffffffffffffffffffffffffff166357c609516040518163ffffffff1660e01b8152600401602060405180830381865afa1580156126f3573d5f803e3d5ffd5b505050506040513d601f19601f820116820180604052508101906127179190613840565b90505f612722613380565b6041549091505f5b81811015612dd9575f604182815481106127465761274661385b565b5f91825260208083209091015473ffffffffffffffffffffffffffffffffffffffff1680835260409182905290822060018101549193509190612793908a90670de0b6b3a764000061242e565b600283015490915080821182821802821891505f8215612831578873ffffffffffffffffffffffffffffffffffffffff16633909cbd58e8e866040518463ffffffff1660e01b81526004016127ea93929190613888565b602060405180830381865afa158015612805573d5f803e3d5ffd5b505050506040513d601f19601f8201168201806040525081019061282991906137b0565b905080830392505b801561293c575f61285973ffffffffffffffffffffffffffffffffffffffff87168c84613432565b905080156128d25781830392508573ffffffffffffffffffffffffffffffffffffffff168e8e60405161288d9291906138ab565b604080519182900382208f835260208301869052917f5468188b6036c5311a3f18fc548c42ccb48a0cdcb9d339e0b2ba38aed4fae36d910160405180910390a361293a565b8573ffffffffffffffffffffffffffffffffffffffff168e8e6040516128f99291906138ab565b604080519182900382208f835260208301869052917f9fec1510965fae0a926a8da7b5b8e957ae07d25d78381996f031cecc116ed99d910160405180910390a35b505b8215612dc55760405173ffffffffffffffffffffffffffffffffffffffff89166024820152604481018490525f90606401604080517fffffffffffffffffffffffffffffffffffffffffffffffffffffffffffffffe08184030181529181526020820180517bffffffffffffffffffffffffffffffffffffffffffffffffffffffff167f095ea7b300000000000000000000000000000000000000000000000000000000179052519091505f9073ffffffffffffffffffffffffffffffffffffffff8816906207a12090612a119085906138ba565b5f604051808303815f8787f1925050503d805f8114612a4b576040519150601f19603f3d011682016040523d82523d5f602084013e612a50565b606091505b505090508015612d50578e8e8887604051602401612a7194939291906138d0565b604080517fffffffffffffffffffffffffffffffffffffffffffffffffffffffffffffffe08184030181529181526020820180517bffffffffffffffffffffffffffffffffffffffffffffffffffffffff167fe6f4626f000000000000000000000000000000000000000000000000000000001790525190925073ffffffffffffffffffffffffffffffffffffffff8b16906207a12090612b139085906138ba565b5f604051808303815f8787f1925050503d805f8114612b4d576040519150601f19603f3d011682016040523d82523d5f602084013e612b52565b606091505b50909150508015612bd85784840393508673ffffffffffffffffffffffffffffffffffffffff168f8f604051612b899291906138ab565b60405180910390207f447452569a869245fac1955d7c6c762fbd3b4ad4c1695b1b0f1cc5985958a2718f88604051612bcb929190918252602082015260400190565b60405180910390a3612dc2565b60405173ffffffffffffffffffffffffffffffffffffffff8b1660248201525f6044820152606401604080517fffffffffffffffffffffffffffffffffffffffffffffffffffffffffffffffe08184030181529181526020820180517bffffffffffffffffffffffffffffffffffffffffffffffffffffffff167f095ea7b3000000000000000000000000000000000000000000000000000000001790525190925073ffffffffffffffffffffffffffffffffffffffff8816906207a12090612ca29085906138ba565b5f604051808303815f8787f1925050503d805f8114612cdc576040519150601f19603f3d011682016040523d82523d5f602084013e612ce1565b606091505b5050809150508673ffffffffffffffffffffffffffffffffffffffff168f8f604051612d0e9291906138ab565b60405180910390207fbf3ad91545f13a6d49740541527d53e26f9af2968e6037bc8e048203e5083ab68f88604051612bcb929190918252602082015260400190565b8673ffffffffffffffffffffffffffffffffffffffff168f8f604051612d779291906138ab565b60405180910390207fbf3ad91545f13a6d49740541527d53e26f9af2968e6037bc8e048203e5083ab68f88604051612db9929190918252602082015260400190565b60405180910390a35b50505b50600290920191909155505060010161272a565b5050505050505050565b6041545f5b818110156116de5760418181548110612e0357612e0361385b565b5f9182526020909120015473ffffffffffffffffffffffffffffffffffffffff90811690841603612f2e5760416001830381548110612e4457612e4461385b565b5f918252602090912001546041805473ffffffffffffffffffffffffffffffffffffffff9092169183908110612e7c57612e7c61385b565b905f5260205f20015f6101000a81548173ffffffffffffffffffffffffffffffffffffffff021916908373ffffffffffffffffffffffffffffffffffffffff1602179055506041805480612ed257612ed261390c565b5f8281526020902081017fffffffffffffffffffffffffffffffffffffffffffffffffffffffffffffffff90810180547fffffffffffffffffffffffff0000000000000000000000000000000000000000169055019055505050565b600101612de8565b5f807ff0c57e16840df040f15088dc2f81fe391c3923bec73e23a9662efc9c229c6a00611052565b612f66613472565b7f4e32a932fdd4658a66f9586d8955a0d0a795a01bd8251335b4fae29d972acc0080547fffffffffffffffffffffffff00000000000000000000000000000000000000001673ffffffffffffffffffffffffffffffffffffffff831617905550565b610d8a613472565b612fd8613472565b610d8a6134b0565b612fe8613472565b5f805473ffffffffffffffffffffffffffffffffffffffff9485167fffffffffffffffffffffffff0000000000000000000000000000000000000000918216179091556001805493909416921691909117909155600755565b815f528060045260245ffd5b5f6130566116f4565b60048190559050613065611119565b60085573ffffffffffffffffffffffffffffffffffffffff821615610d765773ffffffffffffffffffffffffffffffffffffffff82165f9081526009602052604090206130b18361087d565b60028201929092556001015550565b5f804260065403905080600254611d2391906137c7565b5f54610d769073ffffffffffffffffffffffffffffffffffffffff168383612361565b6007546003545f9061310d908390613939565b6002819055905061311e824261376b565b60065561312b82826137c7565b60035f82825461313b919061379d565b90915550505050565b5f54610d769073ffffffffffffffffffffffffffffffffffffffff168330846123e2565b7fcd5ed15c6e187e77e9aee88184c21f4f2182ab5827cb3b7e07fbedcd63f033005460ff16610d8a576040517f8dfc202b00000000000000000000000000000000000000000000000000000000815260040160405180910390fd5b603c54600154610d769173ffffffffffffffffffffffffffffffffffffffff918216916101009091041684846123e2565b5f8060205f8451602086015f885af180613213576040513d5f823e3d81fd5b50505f513d9150811561322a578060011415613244565b73ffffffffffffffffffffffffffffffffffffffff84163b155b15612428576040517f5274afe700000000000000000000000000000000000000000000000000000000815273ffffffffffffffffffffffffffffffffffffffff8516600482015260240160405180910390fd5b600154603c546040517fdd62ed3e00000000000000000000000000000000000000000000000000000000815261010090910473ffffffffffffffffffffffffffffffffffffffff90811660048301523060248301525f92169063dd62ed3e90604401602060405180830381865afa158015613314573d5f803e3d5ffd5b505050506040513d601f19601f8201168201806040525081019061333891906137b0565b905080670de0b6b3a76400006003546133519190613939565b1115610c7557610c757ff4ba521f00000000000000000000000000000000000000000000000000000000611d60565b7f4e32a932fdd4658a66f9586d8955a0d0a795a01bd8251335b4fae29d972acc008054604080517f6cb9f23000000000000000000000000000000000000000000000000000000000815290515f939273ffffffffffffffffffffffffffffffffffffffff1691636cb9f2309160048083019260209291908290030181865afa15801561340e573d5f803e3d5ffd5b505050506040513d601f19601f82011682018060405250810190611d239190613840565b5f82601452816034526fa9059cbb0000000000000000000000005f5260205f604460105f886207a120f13d1560015f5114171690505f6034529392505050565b61347a6134b8565b610d8a576040517fd7e6bcf800000000000000000000000000000000000000000000000000000000815260040160405180910390fd5b611f7b613472565b5f6134c1612f36565b5468010000000000000000900460ff16919050565b73ffffffffffffffffffffffffffffffffffffffff81168114610c75575f80fd5b5f60208284031215613507575f80fd5b81356109bd816134d6565b5f805f60608486031215613524575f80fd5b833561352f816134d6565b9250602084013591506040840135613546816134d6565b809150509250925092565b5f60208284031215613561575f80fd5b5035919050565b5f8060408385031215613579575f80fd5b8235613584816134d6565b946020939093013593505050565b5f602082840312156135a2575f80fd5b813560ff811681146109bd575f80fd5b5f80604083850312156135c3575f80fd5b82356135ce816134d6565b915060208301356135de816134d6565b809150509250929050565b5f805f606084860312156135fb575f80fd5b8335613606816134d6565b95602085013595506040909401359392505050565b602080825282518282018190525f918401906040840190835b8181101561366857835173ffffffffffffffffffffffffffffffffffffffff16835260209384019390920191600101613634565b509095945050505050565b5f805f60408486031215613685575f80fd5b833567ffffffffffffffff81111561369b575f80fd5b8401601f810186136136ab575f80fd5b803567ffffffffffffffff8111156136c1575f80fd5b8660208284010111156136d2575f80fd5b6020918201979096509401359392505050565b5f805f80608085870312156136f8575f80fd5b8435613703816134d6565b93506020850135613713816134d6565b92506040850135613723816134d6565b91506060850135613733816134d6565b939692955090935050565b7f4e487b71000000000000000000000000000000000000000000000000000000005f52601160045260245ffd5b808201808211156110525761105261373e565b5f6020828403121561378e575f80fd5b815180151581146109bd575f80fd5b818103818111156110525761105261373e565b5f602082840312156137c0575f80fd5b5051919050565b80820281158282048414176110525761105261373e565b81835281816020850137505f602082840101525f60207fffffffffffffffffffffffffffffffffffffffffffffffffffffffffffffffe0601f840116840101905092915050565b602081525f6138386020830184866137de565b949350505050565b5f60208284031215613850575f80fd5b81516109bd816134d6565b7f4e487b71000000000000000000000000000000000000000000000000000000005f52603260045260245ffd5b604081525f61389b6040830185876137de565b9050826020830152949350505050565b818382375f9101908152919050565b5f82518060208501845e5f920191825250919050565b606081525f6138e36060830186886137de565b73ffffffffffffffffffffffffffffffffffffffff949094166020830152506040015292915050565b7f4e487b71000000000000000000000000000000000000000000000000000000005f52603160045260245ffd5b5f8261396c577f4e487b71000000000000000000000000000000000000000000000000000000005f52601260045260245ffd5b50049056fea164736f6c634300081a000a","linkReferences":{}},"methodIdentifiers":{"addIncentive(address,uint256,uint256)":"b42f60db","balanceOf(address)":"70a08231","beaconDepositContract()":"eafe0f4c","delegateStake(address,uint256)":"3c323a1b","delegateWithdraw(address,uint256)":"5281244f","distributor()":"bfe10928","earned(address)":"008cc262","exit(address)":"b42652e9","factory()":"c45a0155","getDelegateStake(address,address)":"8f650f9c","getReward(address,address)":"6b091695","getRewardForDuration()":"1c1f78eb","getTotalDelegateStaked(address)":"a4dbda3c","getWhitelistedTokens()":"e26f7900","getWhitelistedTokensCount()":"9cd3f384","incentives(address)":"774e900b","initialize(address,address,address,address)":"f8c8765e","isFactoryOwner(address)":"433e8e41","isFactoryVaultManager(address)":"cfbde346","isFactoryVaultPauser(address)":"078f7fd3","lastTimeRewardApplicable()":"80faa57d","lastUpdateTime()":"c8f33c91","maxIncentiveTokensCount()":"67df5e01","notifyRewardAmount(bytes,uint256)":"e434eee0","operator(address)":"9a307391","pause()":"8456cb59","paused()":"5c975abb","periodFinish()":"ebe2b12b","recoverERC20(address,uint256)":"8980f11f","removeIncentiveToken(address)":"e7d379a9","rewardPerToken()":"cd3daf9d","rewardPerTokenStored()":"df136d65","rewardRate()":"7b0a47ee","rewardToken()":"f7c618c1","rewards(address)":"0700037d","rewardsDuration()":"386a9525","setDistributor(address)":"75619ab5","setMaxIncentiveTokensCount(uint8)":"54659b94","setOperator(address)":"b3ab15fb","setRewardsDuration(uint256)":"cc1a378f","stake(uint256)":"a694fc3a","stakeToken()":"51ed6a30","totalSupply()":"18160ddd","undistributedRewards()":"319ce2bb","unpause()":"3f4ba83a","updateIncentiveManager(address,address)":"8eb3f35c","userRewardPerTokenPaid(address)":"8b876347","whitelistIncentiveToken(address,uint256,address)":"16649618","whitelistedTokens(uint256)":"2154bc44","withdraw(uint256)":"2e1a7d4d"},"storageLayout":{"storage":[{"astId":68988,"contract":"src/V1_Contracts/RewardVault_V1.sol:RewardVault_V1","label":"stakeToken","offset":0,"slot":"0","type":"t_contract(IERC20)52070"},{"astId":68992,"contract":"src/V1_Contracts/RewardVault_V1.sol:RewardVault_V1","label":"rewardToken","offset":0,"slot":"1","type":"t_contract(IERC20)52070"},{"astId":68995,"contract":"src/V1_Contracts/RewardVault_V1.sol:RewardVault_V1","label":"rewardRate","offset":0,"slot":"2","type":"t_uint256"},{"astId":68998,"contract":"src/V1_Contracts/RewardVault_V1.sol:RewardVault_V1","label":"undistributedRewards","offset":0,"slot":"3","type":"t_uint256"},{"astId":69001,"contract":"src/V1_Contracts/RewardVault_V1.sol:RewardVault_V1","label":"rewardPerTokenStored","offset":0,"slot":"4","type":"t_uint256"},{"astId":69004,"contract":"src/V1_Contracts/RewardVault_V1.sol:RewardVault_V1","label":"totalSupply","offset":0,"slot":"5","type":"t_uint256"},{"astId":69007,"contract":"src/V1_Contracts/RewardVault_V1.sol:RewardVault_V1","label":"periodFinish","offset":0,"slot":"6","type":"t_uint256"},{"astId":69010,"contract":"src/V1_Contracts/RewardVault_V1.sol:RewardVault_V1","label":"rewardsDuration","offset":0,"slot":"7","type":"t_uint256"},{"astId":69013,"contract":"src/V1_Contracts/RewardVault_V1.sol:RewardVault_V1","label":"lastUpdateTime","offset":0,"slot":"8","type":"t_uint256"},{"astId":69019,"contract":"src/V1_Contracts/RewardVault_V1.sol:RewardVault_V1","label":"_accountInfo","offset":0,"slot":"9","type":"t_mapping(t_address,t_struct(Info)68981_storage)"},{"astId":69024,"contract":"src/V1_Contracts/RewardVault_V1.sol:RewardVault_V1","label":"__gap","offset":0,"slot":"10","type":"t_array(t_uint256)50_storage"},{"astId":63416,"contract":"src/V1_Contracts/RewardVault_V1.sol:RewardVault_V1","label":"maxIncentiveTokensCount","offset":0,"slot":"60","type":"t_uint8"},{"astId":63419,"contract":"src/V1_Contracts/RewardVault_V1.sol:RewardVault_V1","label":"distributor","offset":1,"slot":"60","type":"t_address"},{"astId":63423,"contract":"src/V1_Contracts/RewardVault_V1.sol:RewardVault_V1","label":"beaconDepositContract","offset":0,"slot":"61","type":"t_contract(IBeaconDeposit)80682"},{"astId":63428,"contract":"src/V1_Contracts/RewardVault_V1.sol:RewardVault_V1","label":"_delegateStake","offset":0,"slot":"62","type":"t_mapping(t_address,t_struct(DelegateStake)63397_storage)"},{"astId":63433,"contract":"src/V1_Contracts/RewardVault_V1.sol:RewardVault_V1","label":"_operators","offset":0,"slot":"63","type":"t_mapping(t_address,t_address)"},{"astId":63439,"contract":"src/V1_Contracts/RewardVault_V1.sol:RewardVault_V1","label":"incentives","offset":0,"slot":"64","type":"t_mapping(t_address,t_struct(Incentive)63407_storage)"},{"astId":63443,"contract":"src/V1_Contracts/RewardVault_V1.sol:RewardVault_V1","label":"whitelistedTokens","offset":0,"slot":"65","type":"t_array(t_address)dyn_storage"}],"types":{"t_address":{"encoding":"inplace","label":"address","numberOfBytes":"20"},"t_array(t_address)dyn_storage":{"encoding":"dynamic_array","label":"address[]","numberOfBytes":"32","base":"t_address"},"t_array(t_uint256)50_storage":{"encoding":"inplace","label":"uint256[50]","numberOfBytes":"1600","base":"t_uint256"},"t_contract(IBeaconDeposit)80682":{"encoding":"inplace","label":"contract IBeaconDeposit","numberOfBytes":"20"},"t_contract(IERC20)52070":{"encoding":"inplace","label":"contract IERC20","numberOfBytes":"20"},"t_mapping(t_address,t_address)":{"encoding":"mapping","key":"t_address","label":"mapping(address => address)","numberOfBytes":"32","value":"t_address"},"t_mapping(t_address,t_struct(DelegateStake)63397_storage)":{"encoding":"mapping","key":"t_address","label":"mapping(address => struct RewardVault_V1.DelegateStake)","numberOfBytes":"32","value":"t_struct(DelegateStake)63397_storage"},"t_mapping(t_address,t_struct(Incentive)63407_storage)":{"encoding":"mapping","key":"t_address","label":"mapping(address => struct RewardVault_V1.Incentive)","numberOfBytes":"32","value":"t_struct(Incentive)63407_storage"},"t_mapping(t_address,t_struct(Info)68981_storage)":{"encoding":"mapping","key":"t_address","label":"mapping(address => struct StakingRewards.Info)","numberOfBytes":"32","value":"t_struct(Info)68981_storage"},"t_mapping(t_address,t_uint256)":{"encoding":"mapping","key":"t_address","label":"mapping(address => uint256)","numberOfBytes":"32","value":"t_uint256"},"t_struct(DelegateStake)63397_storage":{"encoding":"inplace","label":"struct RewardVault_V1.DelegateStake","numberOfBytes":"64","members":[{"astId":63392,"contract":"src/V1_Contracts/RewardVault_V1.sol:RewardVault_V1","label":"delegateTotalStaked","offset":0,"slot":"0","type":"t_uint256"},{"astId":63396,"contract":"src/V1_Contracts/RewardVault_V1.sol:RewardVault_V1","label":"stakedByDelegate","offset":0,"slot":"1","type":"t_mapping(t_address,t_uint256)"}]},"t_struct(Incentive)63407_storage":{"encoding":"inplace","label":"struct RewardVault_V1.Incentive","numberOfBytes":"128","members":[{"astId":63400,"contract":"src/V1_Contracts/RewardVault_V1.sol:RewardVault_V1","label":"minIncentiveRate","offset":0,"slot":"0","type":"t_uint256"},{"astId":63402,"contract":"src/V1_Contracts/RewardVault_V1.sol:RewardVault_V1","label":"incentiveRate","offset":0,"slot":"1","type":"t_uint256"},{"astId":63404,"contract":"src/V1_Contracts/RewardVault_V1.sol:RewardVault_V1","label":"amountRemaining","offset":0,"slot":"2","type":"t_uint256"},{"astId":63406,"contract":"src/V1_Contracts/RewardVault_V1.sol:RewardVault_V1","label":"manager","offset":0,"slot":"3","type":"t_address"}]},"t_struct(Info)68981_storage":{"encoding":"inplace","label":"struct StakingRewards.Info","numberOfBytes":"96","members":[{"astId":68976,"contract":"src/V1_Contracts/RewardVault_V1.sol:RewardVault_V1","label":"balance","offset":0,"slot":"0","type":"t_uint256"},{"astId":68978,"contract":"src/V1_Contracts/RewardVault_V1.sol:RewardVault_V1","label":"unclaimedReward","offset":0,"slot":"1","type":"t_uint256"},{"astId":68980,"contract":"src/V1_Contracts/RewardVault_V1.sol:RewardVault_V1","label":"rewardsPerTokenPaid","offset":0,"slot":"2","type":"t_uint256"}]},"t_uint256":{"encoding":"inplace","label":"uint256","numberOfBytes":"32"},"t_uint8":{"encoding":"inplace","label":"uint8","numberOfBytes":"1"}}},"id":99}