{"abi":[{"type":"function","name":"acceptOperatorChange","inputs":[{"name":"pubkey","type":"bytes","internalType":"bytes"}],"outputs":[],"stateMutability":"nonpayable"},{"type":"function","name":"cancelOperatorChange","inputs":[{"name":"pubkey","type":"bytes","internalType":"bytes"}],"outputs":[],"stateMutability":"nonpayable"},{"type":"function","name":"deposit","inputs":[{"name":"pubkey","type":"bytes","internalType":"bytes"},{"name":"credentials","type":"bytes","internalType":"bytes"},{"name":"signature","type":"bytes","internalType":"bytes"},{"name":"operator","type":"address","internalType":"address"}],"outputs":[],"stateMutability":"payable"},{"type":"function","name":"depositCount","inputs":[],"outputs":[{"name":"","type":"uint64","internalType":"uint64"}],"stateMutability":"view"},{"type":"function","name":"genesisDepositsRoot","inputs":[],"outputs":[{"name":"","type":"bytes32","internalType":"bytes32"}],"stateMutability":"view"},{"type":"function","name":"getOperator","inputs":[{"name":"pubkey","type":"bytes","internalType":"bytes"}],"outputs":[{"name":"","type":"address","internalType":"address"}],"stateMutability":"view"},{"type":"function","name":"queuedOperator","inputs":[{"name":"","type":"bytes","internalType":"bytes"}],"outputs":[{"name":"queuedTimestamp","type":"uint96","internalType":"uint96"},{"name":"newOperator","type":"address","internalType":"address"}],"stateMutability":"view"},{"type":"function","name":"requestOperatorChange","inputs":[{"name":"pubkey","type":"bytes","internalType":"bytes"},{"name":"newOperator","type":"address","internalType":"address"}],"outputs":[],"stateMutability":"nonpayable"},{"type":"function","name":"supportsInterface","inputs":[{"name":"interfaceId","type":"bytes4","internalType":"bytes4"}],"outputs":[{"name":"","type":"bool","internalType":"bool"}],"stateMutability":"pure"},{"type":"event","name":"Deposit","inputs":[{"name":"pubkey","type":"bytes","indexed":false,"internalType":"bytes"},{"name":"credentials","type":"bytes","indexed":false,"internalType":"bytes"},{"name":"amount","type":"uint64","indexed":false,"internalType":"uint64"},{"name":"signature","type":"bytes","indexed":false,"internalType":"bytes"},{"name":"index","type":"uint64","indexed":false,"internalType":"uint64"}],"anonymous":false},{"type":"event","name":"OperatorChangeCancelled","inputs":[{"name":"pubkey","type":"bytes","indexed":true,"internalType":"bytes"}],"anonymous":false},{"type":"event","name":"OperatorChangeQueued","inputs":[{"name":"pubkey","type":"bytes","indexed":true,"internalType":"bytes"},{"name":"queuedOperator","type":"address","indexed":false,"internalType":"address"},{"name":"currentOperator","type":"address","indexed":false,"internalType":"address"},{"name":"queuedTimestamp","type":"uint256","indexed":false,"internalType":"uint256"}],"anonymous":false},{"type":"event","name":"OperatorUpdated","inputs":[{"name":"pubkey","type":"bytes","indexed":true,"internalType":"bytes"},{"name":"newOperator","type":"address","indexed":false,"internalType":"address"},{"name":"previousOperator","type":"address","indexed":false,"internalType":"address"}],"anonymous":false},{"type":"error","name":"AmountLessThanMinIncentiveRate","inputs":[]},{"type":"error","name":"CannotRecoverIncentiveToken","inputs":[]},{"type":"error","name":"CannotRecoverRewardToken","inputs":[]},{"type":"error","name":"CannotRecoverStakingToken","inputs":[]},{"type":"error","name":"CommissionChangeAlreadyQueued","inputs":[]},{"type":"error","name":"CommissionNotQueuedOrDelayNotPassed","inputs":[]},{"type":"error","name":"DepositNotMultipleOfGwei","inputs":[]},{"type":"error","name":"DepositValueTooHigh","inputs":[]},{"type":"error","name":"DonateAmountLessThanPayoutAmount","inputs":[]},{"type":"error","name":"IncentiveRateTooHigh","inputs":[]},{"type":"error","name":"IndexOutOfRange","inputs":[]},{"type":"error","name":"InsolventReward","inputs":[]},{"type":"error","name":"InsufficientDelegateStake","inputs":[]},{"type":"error","name":"InsufficientDeposit","inputs":[]},{"type":"error","name":"InsufficientIncentiveTokens","inputs":[]},{"type":"error","name":"InsufficientSelfStake","inputs":[]},{"type":"error","name":"InsufficientStake","inputs":[]},{"type":"error","name":"InvalidActivateBoostDelay","inputs":[]},{"type":"error","name":"InvalidArray","inputs":[]},{"type":"error","name":"InvalidBaseRate","inputs":[]},{"type":"error","name":"InvalidBoostMultiplier","inputs":[]},{"type":"error","name":"InvalidCommissionChangeDelay","inputs":[]},{"type":"error","name":"InvalidCommissionValue","inputs":[]},{"type":"error","name":"InvalidCredentialsLength","inputs":[]},{"type":"error","name":"InvalidDistribution","inputs":[]},{"type":"error","name":"InvalidDropBoostDelay","inputs":[]},{"type":"error","name":"InvalidIncentiveRate","inputs":[]},{"type":"error","name":"InvalidMaxIncentiveTokensCount","inputs":[]},{"type":"error","name":"InvalidMaxWeightPerVault","inputs":[]},{"type":"error","name":"InvalidMerkleRoot","inputs":[]},{"type":"error","name":"InvalidMinBoostedRewardRate","inputs":[]},{"type":"error","name":"InvalidProof","inputs":[]},{"type":"error","name":"InvalidPubKeyLength","inputs":[]},{"type":"error","name":"InvalidRewardAllocationWeights","inputs":[]},{"type":"error","name":"InvalidRewardClaimDelay","inputs":[]},{"type":"error","name":"InvalidRewardConvexity","inputs":[]},{"type":"error","name":"InvalidRewardRate","inputs":[]},{"type":"error","name":"InvalidSignatureLength","inputs":[]},{"type":"error","name":"InvalidStartBlock","inputs":[]},{"type":"error","name":"InvalidToken","inputs":[]},{"type":"error","name":"InvalidWeight","inputs":[]},{"type":"error","name":"InvalidateDefaultRewardAllocation","inputs":[]},{"type":"error","name":"InvariantCheckFailed","inputs":[]},{"type":"error","name":"MaxNumWeightsPerRewardAllocationIsZero","inputs":[]},{"type":"error","name":"MinIncentiveRateIsZero","inputs":[]},{"type":"error","name":"NotAContract","inputs":[]},{"type":"error","name":"NotApprovedSender","inputs":[]},{"type":"error","name":"NotBGT","inputs":[]},{"type":"error","name":"NotBlockRewardController","inputs":[]},{"type":"error","name":"NotDelegate","inputs":[]},{"type":"error","name":"NotDistributor","inputs":[]},{"type":"error","name":"NotEnoughBalance","inputs":[]},{"type":"error","name":"NotEnoughBoostedBalance","inputs":[]},{"type":"error","name":"NotEnoughTime","inputs":[]},{"type":"error","name":"NotFactoryVault","inputs":[]},{"type":"error","name":"NotFeeCollector","inputs":[]},{"type":"error","name":"NotIncentiveManager","inputs":[]},{"type":"error","name":"NotNewOperator","inputs":[]},{"type":"error","name":"NotOperator","inputs":[]},{"type":"error","name":"NotWhitelistedVault","inputs":[]},{"type":"error","name":"OperatorAlreadySet","inputs":[]},{"type":"error","name":"PayoutAmountIsZero","inputs":[]},{"type":"error","name":"RewardAllocationAlreadyQueued","inputs":[]},{"type":"error","name":"RewardAllocationBlockDelayTooLarge","inputs":[]},{"type":"error","name":"RewardCycleNotEnded","inputs":[]},{"type":"error","name":"RewardInactive","inputs":[]},{"type":"error","name":"RewardsDurationIsZero","inputs":[]},{"type":"error","name":"StakeAmountIsZero","inputs":[]},{"type":"error","name":"TimestampAlreadyProcessed","inputs":[]},{"type":"error","name":"TokenAlreadyWhitelistedOrLimitReached","inputs":[]},{"type":"error","name":"TokenNotWhitelisted","inputs":[]},{"type":"error","name":"TooManyWeights","inputs":[]},{"type":"error","name":"TotalSupplyOverflow","inputs":[]},{"type":"error","name":"WithdrawAmountIsZero","inputs":[]},{"type":"error","name":"ZeroAddress","inputs":[]},{"type":"error","name":"ZeroOperatorOnFirstDeposit","inputs":[]},{"type":"error","name":"ZeroPercentageWeight","inputs":[]}],"bytecode":{"object":"0x6080604052348015600e575f80fd5b5061105e8061001c5f395ff3fe608060405260043610610093575f3560e01c8063577212fe11610066578063c53925d91161004c578063c53925d914610231578063e12cf4cb14610250578063fea7ab7714610263575f80fd5b8063577212fe146101cc5780639eaffa96146101ed575f80fd5b806301ffc9a7146100975780632dfdf0b5146100cb5780633523f9bd14610103578063560036ec14610126575b5f80fd5b3480156100a2575f80fd5b506100b66100b1366004610bb7565b610282565b60405190151581526020015b60405180910390f35b3480156100d6575f80fd5b505f546100ea9067ffffffffffffffff1681565b60405167ffffffffffffffff90911681526020016100c2565b34801561010e575f80fd5b5061011860015481565b6040519081526020016100c2565b348015610131575f80fd5b50610193610140366004610c2a565b80516020818301810180516003825292820191909301209152546bffffffffffffffffffffffff8116906c01000000000000000000000000900473ffffffffffffffffffffffffffffffffffffffff1682565b604080516bffffffffffffffffffffffff909316835273ffffffffffffffffffffffffffffffffffffffff9091166020830152016100c2565b3480156101d7575f80fd5b506101eb6101e6366004610d5f565b61031a565b005b3480156101f8575f80fd5b5061020c610207366004610d5f565b6103e7565b60405173ffffffffffffffffffffffffffffffffffffffff90911681526020016100c2565b34801561023c575f80fd5b506101eb61024b366004610d5f565b610428565b6101eb61025e366004610dc1565b61063d565b34801561026e575f80fd5b506101eb61027d366004610e70565b61095c565b5f7fffffffff0000000000000000000000000000000000000000000000000000000082167f01ffc9a700000000000000000000000000000000000000000000000000000000148061031457507fffffffff0000000000000000000000000000000000000000000000000000000082167f136f920d00000000000000000000000000000000000000000000000000000000145b92915050565b6002828260405161032c929190610ec0565b908152604051908190036020019020543373ffffffffffffffffffffffffffffffffffffffff90911614610383576103837f7c214f0400000000000000000000000000000000000000000000000000000000610afc565b60038282604051610395929190610ec0565b9081526040519081900360200181205f90556103b49083908390610ec0565b604051908190038120907f1c0a7e1bd09da292425c039309671a03de56b89a0858598aab6df6ce84b006db905f90a25050565b5f600283836040516103fa929190610ec0565b9081526040519081900360200190205473ffffffffffffffffffffffffffffffffffffffff16905092915050565b5f6003838360405161043b929190610ec0565b908152604051908190036020019020805490915073ffffffffffffffffffffffffffffffffffffffff6c01000000000000000000000000820416906bffffffffffffffffffffffff163382146104b4576104b47f819a0d0b00000000000000000000000000000000000000000000000000000000610afc565b6bffffffffffffffffffffffff42166104d06201518083610efc565b6bffffffffffffffffffffffff16111561050d5761050d7fe8966d7a00000000000000000000000000000000000000000000000000000000610afc565b5f60028686604051610520929190610ec0565b9081526040519081900360200181205473ffffffffffffffffffffffffffffffffffffffff169150839060029061055a9089908990610ec0565b908152604051908190036020018120805473ffffffffffffffffffffffffffffffffffffffff939093167fffffffffffffffffffffffff0000000000000000000000000000000000000000909316929092179091556003906105bf9088908890610ec0565b9081526040519081900360200181205f90556105de9087908790610ec0565b6040805191829003822073ffffffffffffffffffffffffffffffffffffffff808716845284166020840152917f0adffd98d3072c48341843974dffd7a910bb849ba6ca04163d43bb26feb17403910160405180910390a2505050505050565b6030861461066e5761066e7f9f10647200000000000000000000000000000000000000000000000000000000610afc565b6020841461069f5761069f7fb39bca1600000000000000000000000000000000000000000000000000000000610afc565b606082146106d0576106d07f4be6321b00000000000000000000000000000000000000000000000000000000610afc565b5f73ffffffffffffffffffffffffffffffffffffffff16600288886040516106f9929190610ec0565b9081526040519081900360200190205473ffffffffffffffffffffffffffffffffffffffff16036108375773ffffffffffffffffffffffffffffffffffffffff8116610768576107687f51969a7a00000000000000000000000000000000000000000000000000000000610afc565b806002888860405161077b929190610ec0565b908152604051908190036020018120805473ffffffffffffffffffffffffffffffffffffffff939093167fffffffffffffffffffffffff0000000000000000000000000000000000000000909316929092179091556107dd9088908890610ec0565b6040805191829003822073ffffffffffffffffffffffffffffffffffffffff841683525f6020840152917f0adffd98d3072c48341843974dffd7a910bb849ba6ca04163d43bb26feb17403910160405180910390a261087c565b73ffffffffffffffffffffffffffffffffffffffff81161561087c5761087c7fc4142b4100000000000000000000000000000000000000000000000000000000610afc565b5f610885610b04565b90506509184e72a00067ffffffffffffffff821610156108c8576108c87f0e1eddda00000000000000000000000000000000000000000000000000000000610afc565b5f80547f68af751683498a9f9be59fe8b0d52a64dd155255d85cdb29fea30b1e3f891d46918a918a918a918a9187918b918b9167ffffffffffffffff16908061091083610f20565b91906101000a81548167ffffffffffffffff021916908367ffffffffffffffff16021790555060405161094a989796959493929190610f93565b60405180910390a15050505050505050565b5f6002848460405161096f929190610ec0565b9081526040519081900360200190205473ffffffffffffffffffffffffffffffffffffffff1690503381146109c7576109c77f7c214f0400000000000000000000000000000000000000000000000000000000610afc565b73ffffffffffffffffffffffffffffffffffffffff8216610a0b57610a0b7fd92e233d00000000000000000000000000000000000000000000000000000000610afc565b5f60038585604051610a1e929190610ec0565b908152604051908190036020018120426bffffffffffffffffffffffff1673ffffffffffffffffffffffffffffffffffffffff86166c01000000000000000000000000027fffffffffffffffffffffffffffffffffffffffff000000000000000000000000161781559150610a969086908690610ec0565b6040805191829003822073ffffffffffffffffffffffffffffffffffffffff8681168452851660208401524283830152905190917f7640ec3c8c4695deadda414dd20400acf275297a7c38715f9237657e97ddba5f919081900360600190a25050505050565b805f5260045ffd5b5f610b13633b9aca003461102b565b15610b4157610b417f40567b3800000000000000000000000000000000000000000000000000000000610afc565b5f610b50633b9aca003461103e565b905067ffffffffffffffff811115610b8b57610b8b7f2aa6673400000000000000000000000000000000000000000000000000000000610afc565b610b955f34610b9a565b919050565b5f385f3884865af1610bb35763b12d13eb5f526004601cfd5b5050565b5f60208284031215610bc7575f80fd5b81357fffffffff0000000000000000000000000000000000000000000000000000000081168114610bf6575f80fd5b9392505050565b7f4e487b71000000000000000000000000000000000000000000000000000000005f52604160045260245ffd5b5f60208284031215610c3a575f80fd5b813567ffffffffffffffff811115610c50575f80fd5b8201601f81018413610c60575f80fd5b803567ffffffffffffffff811115610c7a57610c7a610bfd565b6040517fffffffffffffffffffffffffffffffffffffffffffffffffffffffffffffffe0603f7fffffffffffffffffffffffffffffffffffffffffffffffffffffffffffffffe0601f8501160116810181811067ffffffffffffffff82111715610ce657610ce6610bfd565b604052818152828201602001861015610cfd575f80fd5b816020840160208301375f91810160200191909152949350505050565b5f8083601f840112610d2a575f80fd5b50813567ffffffffffffffff811115610d41575f80fd5b602083019150836020828501011115610d58575f80fd5b9250929050565b5f8060208385031215610d70575f80fd5b823567ffffffffffffffff811115610d86575f80fd5b610d9285828601610d1a565b90969095509350505050565b803573ffffffffffffffffffffffffffffffffffffffff81168114610b95575f80fd5b5f805f805f805f6080888a031215610dd7575f80fd5b873567ffffffffffffffff811115610ded575f80fd5b610df98a828b01610d1a565b909850965050602088013567ffffffffffffffff811115610e18575f80fd5b610e248a828b01610d1a565b909650945050604088013567ffffffffffffffff811115610e43575f80fd5b610e4f8a828b01610d1a565b9094509250610e62905060608901610d9e565b905092959891949750929550565b5f805f60408486031215610e82575f80fd5b833567ffffffffffffffff811115610e98575f80fd5b610ea486828701610d1a565b9094509250610eb7905060208501610d9e565b90509250925092565b818382375f9101908152919050565b7f4e487b71000000000000000000000000000000000000000000000000000000005f52601160045260245ffd5b6bffffffffffffffffffffffff818116838216019081111561031457610314610ecf565b5f67ffffffffffffffff821667ffffffffffffffff8103610f4357610f43610ecf565b60010192915050565b81835281816020850137505f602082840101525f60207fffffffffffffffffffffffffffffffffffffffffffffffffffffffffffffffe0601f840116840101905092915050565b60a081525f610fa660a083018a8c610f4c565b8281036020840152610fb981898b610f4c565b905067ffffffffffffffff871660408401528281036060840152610fde818688610f4c565b91505067ffffffffffffffff831660808301529998505050505050505050565b7f4e487b71000000000000000000000000000000000000000000000000000000005f52601260045260245ffd5b5f8261103957611039610ffe565b500690565b5f8261104c5761104c610ffe565b50049056fea164736f6c634300081a000a","linkReferences":{}},"methodIdentifiers":{"acceptOperatorChange(bytes)":"c53925d9","cancelOperatorChange(bytes)":"577212fe","deposit(bytes,bytes,bytes,address)":"e12cf4cb","depositCount()":"2dfdf0b5","genesisDepositsRoot()":"3523f9bd","getOperator(bytes)":"9eaffa96","queuedOperator(bytes)":"560036ec","requestOperatorChange(bytes,address)":"fea7ab77","supportsInterface(bytes4)":"01ffc9a7"},"storageLayout":{"storage":[{"astId":78788,"contract":"src/pol/BeaconDeposit.sol:BeaconDeposit","label":"depositCount","offset":0,"slot":"0","type":"t_uint64"},{"astId":78791,"contract":"src/pol/BeaconDeposit.sol:BeaconDeposit","label":"genesisDepositsRoot","offset":0,"slot":"1","type":"t_bytes32"},{"astId":78796,"contract":"src/pol/BeaconDeposit.sol:BeaconDeposit","label":"_operatorByPubKey","offset":0,"slot":"2","type":"t_mapping(t_bytes_memory_ptr,t_address)"},{"astId":78802,"contract":"src/pol/BeaconDeposit.sol:BeaconDeposit","label":"queuedOperator","offset":0,"slot":"3","type":"t_mapping(t_bytes_memory_ptr,t_struct(QueuedOperator)78785_storage)"}],"types":{"t_address":{"encoding":"inplace","label":"address","numberOfBytes":"20"},"t_bytes32":{"encoding":"inplace","label":"bytes32","numberOfBytes":"32"},"t_bytes_memory_ptr":{"encoding":"bytes","label":"bytes","numberOfBytes":"32"},"t_mapping(t_bytes_memory_ptr,t_address)":{"encoding":"mapping","key":"t_bytes_memory_ptr","label":"mapping(bytes => address)","numberOfBytes":"32","value":"t_address"},"t_mapping(t_bytes_memory_ptr,t_struct(QueuedOperator)78785_storage)":{"encoding":"mapping","key":"t_bytes_memory_ptr","label":"mapping(bytes => struct BeaconDeposit.QueuedOperator)","numberOfBytes":"32","value":"t_struct(QueuedOperator)78785_storage"},"t_struct(QueuedOperator)78785_storage":{"encoding":"inplace","label":"struct BeaconDeposit.QueuedOperator","numberOfBytes":"32","members":[{"astId":78782,"contract":"src/pol/BeaconDeposit.sol:BeaconDeposit","label":"queuedTimestamp","offset":0,"slot":"0","type":"t_uint96"},{"astId":78784,"contract":"src/pol/BeaconDeposit.sol:BeaconDeposit","label":"newOperator","offset":12,"slot":"0","type":"t_address"}]},"t_uint64":{"encoding":"inplace","label":"uint64","numberOfBytes":"8"},"t_uint96":{"encoding":"inplace","label":"uint96","numberOfBytes":"12"}}},"id":134}