{"abi":[{"type":"constructor","inputs":[{"name":"bgt","type":"address","internalType":"address"},{"name":"governance","type":"address","internalType":"address"},{"name":"beraChefSalt","type":"uint256","internalType":"uint256"},{"name":"blockRewardControllerSalt","type":"uint256","internalType":"uint256"},{"name":"distributorSalt","type":"uint256","internalType":"uint256"},{"name":"rewardVaultFactorySalt","type":"uint256","internalType":"uint256"}],"stateMutability":"nonpayable"},{"type":"function","name":"_CREATE2_FACTORY","inputs":[],"outputs":[{"name":"","type":"address","internalType":"address"}],"stateMutability":"view"},{"type":"function","name":"beraChef","inputs":[],"outputs":[{"name":"","type":"address","internalType":"contract BeraChef"}],"stateMutability":"view"},{"type":"function","name":"blockRewardController","inputs":[],"outputs":[{"name":"","type":"address","internalType":"contract BlockRewardController"}],"stateMutability":"view"},{"type":"function","name":"distributor","inputs":[],"outputs":[{"name":"","type":"address","internalType":"contract Distributor"}],"stateMutability":"view"},{"type":"function","name":"rewardVaultFactory","inputs":[],"outputs":[{"name":"","type":"address","internalType":"contract RewardVaultFactory"}],"stateMutability":"view"},{"type":"error","name":"DeploymentFailed","inputs":[]}],"bytecode":{"object":"0x610100604052348015610010575f80fd5b5060405161ec0138038061ec0183398101604081905261002f916104da565b5f61005c5f6040518060200161004490610471565b601f1982820381018352601f909101166040526103a1565b905061006881866103e5565b6001600160a01b03166080526040515f9061008b9082906100446020820161047e565b905061009781866103e5565b6001600160a01b031660a0526040515f906100ba9082906100446020820161048b565b90506100c681866103e5565b6001600160a01b031660e0526040515f906100e990829061004460208201610498565b90505f6101005f60405180602001610044906104a5565b905061010c81876103e5565b6001600160a01b0390811660c081905260805160e0516040516246133b60e11b8152908416600482015260248101929092528c831660448301527342424242424242424242424242424242424242426064830152600a608483015290911690628c26769060a4015f604051808303815f87803b15801561018a575f80fd5b505af115801561019c573d5f803e3d5ffd5b5050505060a0516001600160a01b031663f8c8765e8c60e0517342424242424242424242424242424242424242428e6040518563ffffffff1660e01b815260040161021094939291906001600160a01b03948516815292841660208401529083166040830152909116606082015260800190565b5f604051808303815f87803b158015610227575f80fd5b505af1158015610239573d5f803e3d5ffd5b5050505060e0516001600160a01b031663b23ae1916080518d60a0518e660b90000000000060096040518763ffffffff1660e01b81526004016102be969594939291906001600160a01b03968716815294861660208601529285166040850152931660608301526001600160401b03928316608083015290911660a082015260c00190565b5f604051808303815f87803b1580156102d5575f80fd5b505af11580156102e7573d5f803e3d5ffd5b5050505060c0516001600160a01b0316631459457a8c60e0517342424242424242424242424242424242424242428e876040518663ffffffff1660e01b81526004016103649594939291906001600160a01b0395861681529385166020850152918416604084015283166060830152909116608082015260a00190565b5f604051808303815f87803b15801561037b575f80fd5b505af115801561038d573d5f803e3d5ffd5b5050505050505050505050505050506105a6565b5f815183835260145f60208301855f734e59b44847b379578588920ca78fbf26c0b4956c5af16103d85763301164255f526004601cfd5b5f5192525060601c919050565b5f6103f8826103f3856103ff565b6103a1565b9392505050565b606060405180602001610411906104b2565b601f1982820381018352601f90910116602081810160409081525f83525161043d92869290910161052f565b60408051601f198184030181529082905261045b929160200161058a565b6040516020818303038152906040529050919050565b61388e8061072b83390190565b61225080613fb983390190565b6129218061620983390190565b613d1c80618b2a83390190565b6120078061c84683390190565b6103b48061e84d83390190565b80516001600160a01b03811681146104d5575f80fd5b919050565b5f805f805f8060c087890312156104ef575f80fd5b6104f8876104bf565b9550610506602088016104bf565b6040880151606089015160808a015160a0909a0151989b929a5090989097909650945092505050565b60018060a01b0383168152604060208201525f82518060408401528060208501606085015e5f606082850101526060601f19601f8301168401019150509392505050565b5f81518060208401855e5f93019283525090919050565b5f61059e6105988386610573565b84610573565b949350505050565b60805160a05160c05160e0516101556105d65f395f61010b01525f60bd01525f606d01525f60e401526101555ff3fe608060405234801561000f575f80fd5b5060043610610064575f3560e01c806357c609511161004d57806357c60951146100df578063bfe1092814610106578063ecef25331461012d575f80fd5b806308ccd333146100685780633a99927c146100b8575b5f80fd5b61008f7f000000000000000000000000000000000000000000000000000000000000000081565b60405173ffffffffffffffffffffffffffffffffffffffff909116815260200160405180910390f35b61008f7f000000000000000000000000000000000000000000000000000000000000000081565b61008f7f000000000000000000000000000000000000000000000000000000000000000081565b61008f7f000000000000000000000000000000000000000000000000000000000000000081565b61008f734e59b44847b379578588920ca78fbf26c0b4956c8156fea164736f6c634300081a000a60a060405230608052348015610013575f80fd5b5061001c610021565b6100d3565b7ff0c57e16840df040f15088dc2f81fe391c3923bec73e23a9662efc9c229c6a00805468010000000000000000900460ff16156100715760405163f92ee8a960e01b815260040160405180910390fd5b80546001600160401b03908116146100d05780546001600160401b0319166001600160401b0390811782556040519081527fc7f505b2f371ae2175ee4913f4499e1f2633a7b5936321eed1cdaeb6115181d29060200160405180910390a15b50565b6080516137956100f95f395f818161232e01528181612357015261257301526137955ff3fe608060405260043610610242575f3560e01c8063722f8e0a11610131578063bfe10928116100ac578063da6f75631161007c578063eafe0f4c11610062578063eafe0f4c14610791578063f2fde38b146107bd578063fb9f6fde146107dc575f80fd5b8063da6f756314610753578063e5eb90aa14610772575f80fd5b8063bfe1092814610692578063c35569cd146106bd578063c45a015514610708578063c89f266514610734575f80fd5b80639ca2626c11610101578063a2ce2773116100e7578063a2ce2773146105c1578063a83f0817146105ef578063ad3cb1cc1461063d575f80fd5b80639ca2626c1461058c578063a094a031146105ab575f80fd5b8063722f8e0a146104b55780637239e8ca146104e45780638da5cb5b146105035780638f7e0f0b1461056d575f80fd5b80634f1ef286116101c1578063620a12b71161019157806369ed17081161017757806369ed1708146104635780636ed0bf9a14610482578063715018a6146104a1575f80fd5b8063620a12b71461042457806366204c7814610444575f80fd5b80634f1ef286146103a657806352d1902d146103b957806353a35d1d146103cd57806361b8b56014610405575f80fd5b806325fb3c42116102165780633909cbd5116101fc5780633909cbd51461032b5780634ce34525146103585780634ecbf5c014610387575f80fd5b806325fb3c42146102ed57806337e4c5bf1461030c575f80fd5b80628c26761461024657806312b398191461026757806317dbf270146102ad578063230288ce146102ce575b5f80fd5b348015610251575f80fd5b50610265610260366004612c5b565b6107fb565b005b348015610272575f80fd5b50600b5461028b906bffffffffffffffffffffffff1681565b6040516bffffffffffffffffffffffff90911681526020015b60405180910390f35b3480156102b8575f80fd5b506102c1610a82565b6040516102a49190612cc4565b3480156102d9575f80fd5b506102c16102e8366004612d9e565b610b53565b3480156102f8575f80fd5b50610265610307366004612df6565b610c43565b348015610317575f80fd5b50610265610326366004612d9e565b610deb565b348015610336575f80fd5b5061034a610345366004612e11565b610ff0565b6040519081526020016102a4565b348015610363575f80fd5b5061036e621410b881565b60405167ffffffffffffffff90911681526020016102a4565b348015610392575f80fd5b506102c16103a1366004612d9e565b611030565b6102656103b4366004612f1b565b611056565b3480156103c4575f80fd5b5061034a611075565b3480156103d8575f80fd5b5060025461036e9074010000000000000000000000000000000000000000900467ffffffffffffffff1681565b348015610410575f80fd5b5061028b61041f366004612d9e565b6110a3565b34801561042f575f80fd5b5060085461036e9067ffffffffffffffff1681565b34801561044f575f80fd5b5061026561045e366004612f7b565b6110ae565b34801561046e575f80fd5b5061026561047d366004612fb2565b6111a1565b34801561048d575f80fd5b5061026561049c366004612d9e565b611250565b3480156104ac575f80fd5b506102656113f7565b3480156104c0575f80fd5b506104d46104cf366004612e11565b61140a565b60405190151581526020016102a4565b3480156104ef575f80fd5b506102656104fe36600461300a565b61145c565b34801561050e575f80fd5b507f9016d09d72d40fdae2fd8ceac6b6234c7706214fd39c1cd1e609a0528c1993005473ffffffffffffffffffffffffffffffffffffffff165b60405173ffffffffffffffffffffffffffffffffffffffff90911681526020016102a4565b348015610578575f80fd5b50610265610587366004613025565b61151b565b348015610597575f80fd5b506102656105a636600461300a565b611774565b3480156105b6575f80fd5b5060075415156104d4565b3480156105cc575f80fd5b506104d46105db366004613078565b60056020525f908152604090205460ff1681565b3480156105fa575f80fd5b5061060e610609366004612d9e565b61183b565b60408051825163ffffffff1681526020928301516bffffffffffffffffffffffff1692810192909252016102a4565b348015610648575f80fd5b506106856040518060400160405280600581526020017f352e302e3000000000000000000000000000000000000000000000000000000081525081565b6040516102a49190613093565b34801561069d575f80fd5b505f546105489073ffffffffffffffffffffffffffffffffffffffff1681565b3480156106c8575f80fd5b506002546106f6907c0100000000000000000000000000000000000000000000000000000000900460ff1681565b60405160ff90911681526020016102a4565b348015610713575f80fd5b506001546105489073ffffffffffffffffffffffffffffffffffffffff1681565b34801561073f575f80fd5b5061026561074e3660046130e6565b6118a6565b34801561075e575f80fd5b506102c161076d366004612d9e565b61190c565b34801561077d575f80fd5b5061026561078c36600461311d565b611ae4565b34801561079c575f80fd5b506002546105489073ffffffffffffffffffffffffffffffffffffffff1681565b3480156107c8575f80fd5b506102656107d7366004613078565b611d92565b3480156107e7575f80fd5b506102656107f63660046131cd565b611dfa565b5f6108046120cf565b805490915060ff68010000000000000000820416159067ffffffffffffffff165f811580156108305750825b90505f8267ffffffffffffffff16600114801561084c5750303b155b90508115801561085a575080155b15610891576040517ff92ee8a900000000000000000000000000000000000000000000000000000000815260040160405180910390fd5b84547fffffffffffffffffffffffffffffffffffffffffffffffff000000000000000016600117855583156108f25784547fffffffffffffffffffffffffffffffffffffffffffffff00ffffffffffffffff16680100000000000000001785555b6108fb886120f7565b610903612108565b5f805473ffffffffffffffffffffffffffffffffffffffff808d167fffffffffffffffffffffffff0000000000000000000000000000000000000000928316178355600180548d831690841617905560028054918b169190921617905560ff87169003610993576109937fa4cc22ed00000000000000000000000000000000000000000000000000000000612110565b60405160ff871681527f1f427f3160f84ab8033ba8e3550b2a3f178241305e86660a221c0dc52f3bc9ae9060200160405180910390a1600280547fffffff00ffffffffffffffffffffffffffffffffffffffffffffffffffffffff167c010000000000000000000000000000000000000000000000000000000060ff8916021790558315610a765784547fffffffffffffffffffffffffffffffffffffffffffffff00ffffffffffffffff168555604051600181527fc7f505b2f371ae2175ee4913f4499e1f2633a7b5936321eed1cdaeb6115181d29060200160405180910390a15b50505050505050505050565b604080518082019091525f8152606060208201526040805180820182526006805467ffffffffffffffff1682526007805484516020828102820181019096528181529394929383860193909291905f9084015b82821015610b46575f848152602090819020604080518082019091529084015473ffffffffffffffffffffffffffffffffffffffff811682527401000000000000000000000000000000000000000090046bffffffffffffffffffffffff1681830152825260019092019101610ad5565b5050505081525050905090565b604080518082019091525f81526060602082015260038383604051610b7992919061322f565b9081526040805191829003602090810183208383018352805467ffffffffffffffff1684526001810180548451818502810185019095528085529193858401939092905f9084015b82821015610c32575f848152602090819020604080518082019091529084015473ffffffffffffffffffffffffffffffffffffffff811682527401000000000000000000000000000000000000000090046bffffffffffffffffffffffff1681830152825260019092019101610bc1565b505050508152505090505b92915050565b610c4b612118565b6bffffffffffffffffffffffff81161580610c7557506127106bffffffffffffffffffffffff8216115b15610ca357610ca37fcb1ee12300000000000000000000000000000000000000000000000000000000612110565b600b80547fffffffffffffffffffffffffffffffffffffffff000000000000000000000000166bffffffffffffffffffffffff83161790556007805460408051602080840282018101909252828152610d7993909290915f9084015b82821015610d70575f848152602090819020604080518082019091529084015473ffffffffffffffffffffffffffffffffffffffff811682527401000000000000000000000000000000000000000090046bffffffffffffffffffffffff1681830152825260019092019101610cff565b505050506121a6565b610da657610da67f3e38573f00000000000000000000000000000000000000000000000000000000612110565b6040516bffffffffffffffffffffffff821681527f523ff6a2313471a5db395404a4772a665c76c13b1bb1307270db69eb843b803e906020015b60405180910390a150565b5f60098383604051610dfe92919061322f565b908152604051908190036020019020805460085491925063ffffffff8116916bffffffffffffffffffffffff64010000000090920491909116905f90610e4e9067ffffffffffffffff168461326b565b905063ffffffff83161580610e6857508063ffffffff1643105b15610e9657610e967fe926944600000000000000000000000000000000000000000000000000000000612110565b5f610ea187876122a3565b905060405180604001604052808363ffffffff168152602001846bffffffffffffffffffffffff16815250600a8888604051610ede92919061322f565b90815260405190819003602090810182208351815494909201516bffffffffffffffffffffffff16640100000000027fffffffffffffffffffffffffffffffff0000000000000000000000000000000090941663ffffffff9092169190911792909217909155610f51908890889061322f565b604080519182900382206bffffffffffffffffffffffff808516845286166020840152917f154e6b9420982ca77402c0dd255e23fef1199d854e122d1231ec746266d0cf48910160405180910390a260098787604051610fb292919061322f565b90815260405190819003602001902080547fffffffffffffffffffffffffffffffff0000000000000000000000000000000016905550505050505050565b5f80610ffc85856122a3565b90505f61271061101a6bffffffffffffffffffffffff84168661328b565b61102491906132a2565b925050505b9392505050565b604080518082019091525f81526060602082015260048383604051610b7992919061322f565b61105e612316565b6110678261241a565b6110718282612422565b5050565b5f61107e61255b565b507f360894a13ba1a3210667c828492db98dca3e2076cc3735a920a3ca505d382bbc90565b5f61102983836122a3565b6110b6612118565b8060ff165f036110e9576110e97fa4cc22ed00000000000000000000000000000000000000000000000000000000612110565b60075460ff8216101561111f5761111f7f3e38573f00000000000000000000000000000000000000000000000000000000612110565b600280547fffffff00ffffffffffffffffffffffffffffffffffffffffffffffffffffffff167c010000000000000000000000000000000000000000000000000000000060ff8416908102919091179091556040519081527f1f427f3160f84ab8033ba8e3550b2a3f178241305e86660a221c0dc52f3bc9ae90602001610de0565b6111a9612118565b73ffffffffffffffffffffffffffffffffffffffff82165f9081526005602052604090205460ff166111fe576111fe7f3640785000000000000000000000000000000000000000000000000000000000612110565b8173ffffffffffffffffffffffffffffffffffffffff167fb10c3a0623fdc435deba8729692b1a7c6c1886b7466c8cffa3ccdb42042ffbc5826040516112449190613093565b60405180910390a25050565b5f5473ffffffffffffffffffffffffffffffffffffffff163314611297576112977f385296d500000000000000000000000000000000000000000000000000000000612110565b6112a282824361140a565b15611071575f600483836040516112ba92919061322f565b908152604051908190036020018120805490925067ffffffffffffffff169082906003906112eb908790879061322f565b908152604051908190036020019020815481547fffffffffffffffffffffffffffffffffffffffffffffffff00000000000000001667ffffffffffffffff909116178155600180830180546113439284019190612b41565b505060405161135691508590859061322f565b60405180910390207f09fed3850dff4fef07a5284847da937f94021882ecab1c143fcacd69e5451bd882846001016040516113929291906132da565b60405180910390a2600484846040516113ac92919061322f565b90815260405190819003602001902080547fffffffffffffffffffffffffffffffffffffffffffffffff00000000000000001681555f6113ef6001830182612bfa565b505050505050565b6113ff612118565b6114085f6125ca565b565b5f806004858560405161141e92919061322f565b9081526040519081900360200190205467ffffffffffffffff16905080158015906114535750828167ffffffffffffffff1611155b95945050505050565b611464612118565b67ffffffffffffffff811615806114865750613ffe67ffffffffffffffff8216115b156114b4576114b47fc1abde5300000000000000000000000000000000000000000000000000000000612110565b600880547fffffffffffffffffffffffffffffffffffffffffffffffff00000000000000001667ffffffffffffffff83169081179091556040519081527f64362e066c3e2aa8c9ade9c3c475eca8e99702a002a5adbe13a4404fc05dfee390602001610de0565b6002546040517f9eaffa960000000000000000000000000000000000000000000000000000000081528491849173ffffffffffffffffffffffffffffffffffffffff90911690639eaffa96906115779085908590600401613353565b602060405180830381865afa158015611592573d5f803e3d5ffd5b505050506040513d601f19601f820116820180604052508101906115b6919061339f565b73ffffffffffffffffffffffffffffffffffffffff163373ffffffffffffffffffffffffffffffffffffffff1614611611576116117f7c214f0400000000000000000000000000000000000000000000000000000000612110565b6127106bffffffffffffffffffffffff84161115611652576116527fab396d1100000000000000000000000000000000000000000000000000000000612110565b5f6009868660405161166592919061322f565b908152604051908190036020019020805490915063ffffffff16156116ad576116ad7f0c32c4fa00000000000000000000000000000000000000000000000000000000612110565b80547fffffffffffffffffffffffffffffffff00000000000000000000000000000000166401000000006bffffffffffffffffffffffff8616027fffffffffffffffffffffffffffffffffffffffffffffffffffffffff0000000016174363ffffffff16178155604051611724908790879061322f565b6040519081900381206bffffffffffffffffffffffff86168252907f6c1fd7992c5cda804ff20cff8ec6eb7622a74aa084ff0f7bfd15b9f30a4a5a739060200160405180910390a2505050505050565b61177c612118565b621410b867ffffffffffffffff821611156117ba576117ba7f462a2bb200000000000000000000000000000000000000000000000000000000612110565b600280547fffffffff0000000000000000ffffffffffffffffffffffffffffffffffffffff167401000000000000000000000000000000000000000067ffffffffffffffff8416908102919091179091556040519081527fd30a76f5419042e46e49eaf91b6a0f0feaaa673b6db586a63d3e8e79d4bf208190602001610de0565b604080518082019091525f80825260208201526009838360405161186092919061322f565b908152604080519182900360209081018320838301909252905463ffffffff811683526bffffffffffffffffffffffff6401000000009091041690820152905092915050565b6118ae612118565b6118c36118be60208301836133ba565b61265f565b7f63a1be039047941d4150a7feb1920b5fadcbf022e1a21334fba542a52eabdaf7816040516118f29190613496565b60405180910390a180600661190782826135b1565b505050565b604080518082019091525f8152606060208201525f6003848460405161193392919061322f565b9081526040805191829003602090810183208383018352805467ffffffffffffffff1684526001810180548451818502810185019095528085529193858401939092905f9084015b828210156119ec575f848152602090819020604080518082019091529084015473ffffffffffffffffffffffffffffffffffffffff811682527401000000000000000000000000000000000000000090046bffffffffffffffffffffffff168183015282526001909201910161197b565b50505091525050805190915067ffffffffffffffff1615801590611a185750611a1881602001516121a6565b15611a24579050610c3d565b6040805180820182526006805467ffffffffffffffff1682526007805484516020828102820181019096528181529394929383860193909291905f9084015b82821015611ad4575f848152602090819020604080518082019091529084015473ffffffffffffffffffffffffffffffffffffffff811682527401000000000000000000000000000000000000000090046bffffffffffffffffffffffff1681830152825260019092019101611a63565b5050509152509095945050505050565b6002546040517f9eaffa960000000000000000000000000000000000000000000000000000000081528691869173ffffffffffffffffffffffffffffffffffffffff90911690639eaffa9690611b409085908590600401613353565b602060405180830381865afa158015611b5b573d5f803e3d5ffd5b505050506040513d601f19601f82011682018060405250810190611b7f919061339f565b73ffffffffffffffffffffffffffffffffffffffff163373ffffffffffffffffffffffffffffffffffffffff1614611bda57611bda7f7c214f0400000000000000000000000000000000000000000000000000000000612110565b600254611c099074010000000000000000000000000000000000000000900467ffffffffffffffff16436136d4565b8567ffffffffffffffff1611611c4257611c427fec2caa0d00000000000000000000000000000000000000000000000000000000612110565b5f60048888604051611c5592919061322f565b908152604051908190036020019020805490915067ffffffffffffffff1615611ca157611ca17f3be31f8c00000000000000000000000000000000000000000000000000000000612110565b611cab858561265f565b80547fffffffffffffffffffffffffffffffffffffffffffffffff00000000000000001667ffffffffffffffff8716178155600181015f5b85811015611d335781878783818110611cfe57611cfe6136e7565b83546001810185555f948552602090942060409091029290920192919091019050611d29828261352c565b5050600101611ce3565b508888604051611d4492919061322f565b60405180910390207f22fe555512d9a04d20e3735ac5fe7a73227c2c6398f1453a5d60ce7aaf5de2ae888888604051611d7f93929190613714565b60405180910390a2505050505050505050565b611d9a612118565b73ffffffffffffffffffffffffffffffffffffffff8116611dee576040517f1e4fbdf70000000000000000000000000000000000000000000000000000000081525f60048201526024015b60405180910390fd5b611df7816125ca565b50565b611e02612118565b5f8373ffffffffffffffffffffffffffffffffffffffff166351ed6a306040518163ffffffff1660e01b8152600401602060405180830381865afa158015611e4c573d5f803e3d5ffd5b505050506040513d601f19601f82011682018060405250810190611e70919061339f565b6001546040517f0eb9af3800000000000000000000000000000000000000000000000000000000815273ffffffffffffffffffffffffffffffffffffffff80841660048301529293505f9290911690630eb9af3890602401602060405180830381865afa158015611ee3573d5f803e3d5ffd5b505050506040513d601f19601f82011682018060405250810190611f07919061339f565b90508073ffffffffffffffffffffffffffffffffffffffff168573ffffffffffffffffffffffffffffffffffffffff1614611f6557611f657f08519afa00000000000000000000000000000000000000000000000000000000612110565b73ffffffffffffffffffffffffffffffffffffffff85165f90815260056020526040902080547fffffffffffffffffffffffffffffffffffffffffffffffffffffffffffffff00168515151790558361207757600780546040805160208084028201810190925282815261204a93909290915f9084018215610d70575f848152602090819020604080518082019091529084015473ffffffffffffffffffffffffffffffffffffffff811682527401000000000000000000000000000000000000000090046bffffffffffffffffffffffff1681830152825260019092019101610cff565b612077576120777f3e38573f00000000000000000000000000000000000000000000000000000000612110565b8315158573ffffffffffffffffffffffffffffffffffffffff167fad865159180d43e1aedae6624a0e9e20d86e07afb82a96f8f9a8b2f3294e16c0856040516120c09190613093565b60405180910390a35050505050565b5f807ff0c57e16840df040f15088dc2f81fe391c3923bec73e23a9662efc9c229c6a00610c3d565b6120ff61282e565b611df78161286c565b61140861282e565b805f5260045ffd5b336121577f9016d09d72d40fdae2fd8ceac6b6234c7706214fd39c1cd1e609a0528c1993005473ffffffffffffffffffffffffffffffffffffffff1690565b73ffffffffffffffffffffffffffffffffffffffff1614611408576040517f118cdaa7000000000000000000000000000000000000000000000000000000008152336004820152602401611de5565b80516002545f91907c0100000000000000000000000000000000000000000000000000000000900460ff168111156121e057505f92915050565b5f5b8181101561229957600b5484516bffffffffffffffffffffffff90911690859083908110612212576122126136e7565b6020026020010151602001516bffffffffffffffffffffffff16111561223b57505f9392505050565b60055f858381518110612250576122506136e7565b6020908102919091018101515173ffffffffffffffffffffffffffffffffffffffff1682528101919091526040015f205460ff1661229157505f9392505050565b6001016121e2565b5060019392505050565b5f80600a84846040516122b792919061322f565b9081526040805160209281900383018120818301909252905463ffffffff81168083526401000000009091046bffffffffffffffffffffffff169282019290925291505f0361230b576101f4915050610c3d565b602001519392505050565b3073ffffffffffffffffffffffffffffffffffffffff7f00000000000000000000000000000000000000000000000000000000000000001614806123e357507f000000000000000000000000000000000000000000000000000000000000000073ffffffffffffffffffffffffffffffffffffffff166123ca7f360894a13ba1a3210667c828492db98dca3e2076cc3735a920a3ca505d382bbc5473ffffffffffffffffffffffffffffffffffffffff1690565b73ffffffffffffffffffffffffffffffffffffffff1614155b15611408576040517fe07c8dba00000000000000000000000000000000000000000000000000000000815260040160405180910390fd5b611df7612118565b8173ffffffffffffffffffffffffffffffffffffffff166352d1902d6040518163ffffffff1660e01b8152600401602060405180830381865afa9250505080156124a7575060408051601f3d9081017fffffffffffffffffffffffffffffffffffffffffffffffffffffffffffffffe01682019092526124a491810190613737565b60015b6124f5576040517f4c9c8ce300000000000000000000000000000000000000000000000000000000815273ffffffffffffffffffffffffffffffffffffffff83166004820152602401611de5565b7f360894a13ba1a3210667c828492db98dca3e2076cc3735a920a3ca505d382bbc8114612551576040517faa1d49a400000000000000000000000000000000000000000000000000000000815260048101829052602401611de5565b6119078383612874565b3073ffffffffffffffffffffffffffffffffffffffff7f00000000000000000000000000000000000000000000000000000000000000001614611408576040517fe07c8dba00000000000000000000000000000000000000000000000000000000815260040160405180910390fd5b7f9016d09d72d40fdae2fd8ceac6b6234c7706214fd39c1cd1e609a0528c19930080547fffffffffffffffffffffffff0000000000000000000000000000000000000000811673ffffffffffffffffffffffffffffffffffffffff848116918217845560405192169182907f8be0079c531659141344cd1fd0a4f28419497f9722a3daafe3b4186f6b6457e0905f90a3505050565b6002547c0100000000000000000000000000000000000000000000000000000000900460ff168111156126b5576126b57ff6fae72100000000000000000000000000000000000000000000000000000000612110565b5f805b828110156127ed57368484838181106126d3576126d36136e7565b90506040020190508060200160208101906126ee9190612df6565b6bffffffffffffffffffffffff1615806127345750600b546bffffffffffffffffffffffff166127246040830160208401612df6565b6bffffffffffffffffffffffff16115b15612762576127627f585b926300000000000000000000000000000000000000000000000000000000612110565b60055f6127726020840184613078565b73ffffffffffffffffffffffffffffffffffffffff16815260208101919091526040015f205460ff166127c8576127c87f3640785000000000000000000000000000000000000000000000000000000000612110565b6127d86040820160208301612df6565b6127e2908461374e565b9250506001016126b8565b506bffffffffffffffffffffffff811661271014611907576119077f13134d2400000000000000000000000000000000000000000000000000000000612110565b6128366128d6565b611408576040517fd7e6bcf800000000000000000000000000000000000000000000000000000000815260040160405180910390fd5b611d9a61282e565b61287d826128f4565b60405173ffffffffffffffffffffffffffffffffffffffff8316907fbc7cd75a20ee27fd9adebab32041f755214dbc6bffa90cc0225b39da2e5c2d3b905f90a28051156128ce5761190782826129c2565b611071612a38565b5f6128df6120cf565b5468010000000000000000900460ff16919050565b8073ffffffffffffffffffffffffffffffffffffffff163b5f0361295c576040517f4c9c8ce300000000000000000000000000000000000000000000000000000000815273ffffffffffffffffffffffffffffffffffffffff82166004820152602401611de5565b7f360894a13ba1a3210667c828492db98dca3e2076cc3735a920a3ca505d382bbc80547fffffffffffffffffffffffff00000000000000000000000000000000000000001673ffffffffffffffffffffffffffffffffffffffff92909216919091179055565b60605f808473ffffffffffffffffffffffffffffffffffffffff16846040516129eb9190613772565b5f60405180830381855af49150503d805f8114612a23576040519150601f19603f3d011682016040523d82523d5f602084013e612a28565b606091505b5091509150611453858383612a70565b3415611408576040517fb398979f00000000000000000000000000000000000000000000000000000000815260040160405180910390fd5b606082612a8557612a8082612aff565b611029565b8151158015612aa9575073ffffffffffffffffffffffffffffffffffffffff84163b155b15612af8576040517f9996b31500000000000000000000000000000000000000000000000000000000815273ffffffffffffffffffffffffffffffffffffffff85166004820152602401611de5565b5080611029565b805115612b0f5780518082602001fd5b6040517fd6bda27500000000000000000000000000000000000000000000000000000000815260040160405180910390fd5b828054828255905f5260205f20908101928215612bea575f5260205f209182015b82811115612bea57825482547fffffffffffffffffffffffff00000000000000000000000000000000000000001673ffffffffffffffffffffffffffffffffffffffff909116908117835583546bffffffffffffffffffffffff7401000000000000000000000000000000000000000091829004160217825560019283019290910190612b62565b50612bf6929150612c11565b5090565b5080545f8255905f5260205f2090810190611df791905b5b80821115612bf6575f8155600101612c12565b73ffffffffffffffffffffffffffffffffffffffff81168114611df7575f80fd5b803560ff81168114612c56575f80fd5b919050565b5f805f805f60a08688031215612c6f575f80fd5b8535612c7a81612c25565b94506020860135612c8a81612c25565b93506040860135612c9a81612c25565b92506060860135612caa81612c25565b9150612cb860808701612c46565b90509295509295909350565b6020808252825167ffffffffffffffff1682820152828101516040808401528051606084018190525f929190910190829060808501905b80831015612d4f57835173ffffffffffffffffffffffffffffffffffffffff81511683526bffffffffffffffffffffffff602082015116602084015250604082019150602084019350600183019250612cfb565b5095945050505050565b5f8083601f840112612d69575f80fd5b50813567ffffffffffffffff811115612d80575f80fd5b602083019150836020828501011115612d97575f80fd5b9250929050565b5f8060208385031215612daf575f80fd5b823567ffffffffffffffff811115612dc5575f80fd5b612dd185828601612d59565b90969095509350505050565b6bffffffffffffffffffffffff81168114611df7575f80fd5b5f60208284031215612e06575f80fd5b813561102981612ddd565b5f805f60408486031215612e23575f80fd5b833567ffffffffffffffff811115612e39575f80fd5b612e4586828701612d59565b909790965060209590950135949350505050565b7f4e487b71000000000000000000000000000000000000000000000000000000005f52604160045260245ffd5b5f8067ffffffffffffffff841115612ea057612ea0612e59565b506040517fffffffffffffffffffffffffffffffffffffffffffffffffffffffffffffffe0601f85018116603f0116810181811067ffffffffffffffff82111715612eed57612eed612e59565b604052838152905080828401851015612f04575f80fd5b838360208301375f60208583010152509392505050565b5f8060408385031215612f2c575f80fd5b8235612f3781612c25565b9150602083013567ffffffffffffffff811115612f52575f80fd5b8301601f81018513612f62575f80fd5b612f7185823560208401612e86565b9150509250929050565b5f60208284031215612f8b575f80fd5b61102982612c46565b5f82601f830112612fa3575f80fd5b61102983833560208501612e86565b5f8060408385031215612fc3575f80fd5b8235612fce81612c25565b9150602083013567ffffffffffffffff811115612fe9575f80fd5b612f7185828601612f94565b67ffffffffffffffff81168114611df7575f80fd5b5f6020828403121561301a575f80fd5b813561102981612ff5565b5f805f60408486031215613037575f80fd5b833567ffffffffffffffff81111561304d575f80fd5b61305986828701612d59565b909450925050602084013561306d81612ddd565b809150509250925092565b5f60208284031215613088575f80fd5b813561102981612c25565b602081525f82518060208401528060208501604085015e5f6040828501015260407fffffffffffffffffffffffffffffffffffffffffffffffffffffffffffffffe0601f83011684010191505092915050565b5f602082840312156130f6575f80fd5b813567ffffffffffffffff81111561310c575f80fd5b820160408185031215611029575f80fd5b5f805f805f60608688031215613131575f80fd5b853567ffffffffffffffff811115613147575f80fd5b61315388828901612d59565b909650945050602086013561316781612ff5565b9250604086013567ffffffffffffffff811115613182575f80fd5b8601601f81018813613192575f80fd5b803567ffffffffffffffff8111156131a8575f80fd5b8860208260061b84010111156131bc575f80fd5b959894975092955050506020019190565b5f805f606084860312156131df575f80fd5b83356131ea81612c25565b9250602084013580151581146131fe575f80fd5b9150604084013567ffffffffffffffff811115613219575f80fd5b61322586828701612f94565b9150509250925092565b818382375f9101908152919050565b7f4e487b71000000000000000000000000000000000000000000000000000000005f52601160045260245ffd5b67ffffffffffffffff8181168382160190811115610c3d57610c3d61323e565b8082028115828204841417610c3d57610c3d61323e565b5f826132d5577f4e487b71000000000000000000000000000000000000000000000000000000005f52601260045260245ffd5b500490565b5f6040820167ffffffffffffffff8516835260406020840152808454808352606085019150855f5260205f2092505f5b8181101561334757835473ffffffffffffffffffffffffffffffffffffffff8116845260a01c60208401526001938401936040909301920161330a565b50909695505050505050565b60208152816020820152818360408301375f818301604090810191909152601f9092017fffffffffffffffffffffffffffffffffffffffffffffffffffffffffffffffe0160101919050565b5f602082840312156133af575f80fd5b815161102981612c25565b5f8083357fffffffffffffffffffffffffffffffffffffffffffffffffffffffffffffffe18436030181126133ed575f80fd5b83018035915067ffffffffffffffff821115613407575f80fd5b6020019150600681901b3603821315612d97575f80fd5b8183526020830192505f815f5b8481101561348c575f823561343f81612c25565b73ffffffffffffffffffffffffffffffffffffffff168752602083013561346581612ddd565b6bffffffffffffffffffffffff16602088015250604095860195919091019060010161342b565b5093949350505050565b602081525f82356134a681612ff5565b67ffffffffffffffff811660208401525060208301357fffffffffffffffffffffffffffffffffffffffffffffffffffffffffffffffe18436030181126134eb575f80fd5b830160208101903567ffffffffffffffff811115613507575f80fd5b8060061b3603821315613518575f80fd5b60408085015261145360608501828461341e565b813561353781612c25565b73ffffffffffffffffffffffffffffffffffffffff81169050807fffffffffffffffffffffffff0000000000000000000000000000000000000000835416178255602083013561358681612ddd565b60a01b7fffffffffffffffffffffffff00000000000000000000000000000000000000001617905550565b81356135bc81612ff5565b67ffffffffffffffff81167fffffffffffffffffffffffffffffffffffffffffffffffff00000000000000008354161782555060208201357fffffffffffffffffffffffffffffffffffffffffffffffffffffffffffffffe1833603018112613623575f80fd5b8201803567ffffffffffffffff81111561363b575f80fd5b6020820191508060061b3603821315613652575f80fd5b600183016801000000000000000082111561366f5761366f612e59565b8054828255808310156136a4575f828152602090208381019082015b808210156136a1575f825560018201915061368b565b50505b505f90815260208120905b828110156113ef576136c1848361352c565b60409390930192600191820191016136af565b80820180821115610c3d57610c3d61323e565b7f4e487b71000000000000000000000000000000000000000000000000000000005f52603260045260245ffd5b67ffffffffffffffff84168152604060208201525f61145360408301848661341e565b5f60208284031215613747575f80fd5b5051919050565b6bffffffffffffffffffffffff8181168382160190811115610c3d57610c3d61323e565b5f82518060208501845e5f92019182525091905056fea164736f6c634300081a000a60a060405230608052348015610013575f80fd5b5061001c610021565b6100d3565b7ff0c57e16840df040f15088dc2f81fe391c3923bec73e23a9662efc9c229c6a00805468010000000000000000900460ff16156100715760405163f92ee8a960e01b815260040160405180910390fd5b80546001600160401b03908116146100d05780546001600160401b0319166001600160401b0390811782556040519081527fc7f505b2f371ae2175ee4913f4499e1f2633a7b5936321eed1cdaeb6115181d29060200160405180910390a15b50565b6080516121576100f95f395f81816110dc01528181611105015261132601526121575ff3fe6080604052600436106101ba575f3560e01c80637bf96014116100f2578063ad3cb1cc11610092578063eafe0f4c11610062578063eafe0f4c146104bd578063f0c389f3146104e9578063f2fde38b14610508578063f8c8765e14610527575f80fd5b8063ad3cb1cc14610408578063add5fb321461045d578063bfe109281461047c578063defc56d0146104a8575f80fd5b806393c46737116100cd57806393c46737146102c45780639a6c31c4146103a95780639e447fc6146103d4578063a003aac4146103f3575f80fd5b80637bf96014146102c45780638da5cb5b1461032b5780638fa158b814610395575f80fd5b806352d1902d1161015d578063718dc3c311610138578063718dc3c3146102c4578063720fd3c7146102d857806375619ab5146102f75780637b0a47ee14610316575f80fd5b806352d1902d1461027d5780636a6ec46614610291578063715018a6146102b0575f80fd5b806338783dc31161019857806338783dc314610222578063399211d414610236578063409dafe0146102555780634f1ef2861461026a575f80fd5b80630e1ef02c146101be5780631d08837b146101ec5780631f68f20a1461020d575b5f80fd5b3480156101c9575f80fd5b506101d9670de0b6b3a764000081565b6040519081526020015b60405180910390f35b3480156101f7575f80fd5b5061020b610206366004611c5a565b610546565b005b348015610218575f80fd5b506101d960035481565b34801561022d575f80fd5b506101d96105d2565b348015610241575f80fd5b506101d9610250366004611c85565b610610565b348015610260575f80fd5b506101d960075481565b61020b610278366004611d6d565b610947565b348015610288575f80fd5b506101d9610966565b34801561029c575f80fd5b506101d96102ab366004611e70565b610994565b3480156102bb575f80fd5b5061020b610a52565b3480156102cf575f80fd5b506101d9610a65565b3480156102e3575f80fd5b5061020b6102f2366004611c5a565b610a7b565b348015610302575f80fd5b5061020b610311366004611e9f565b610b07565b348015610321575f80fd5b506101d960045481565b348015610336575f80fd5b507f9016d09d72d40fdae2fd8ceac6b6234c7706214fd39c1cd1e609a0528c1993005473ffffffffffffffffffffffffffffffffffffffff165b60405173ffffffffffffffffffffffffffffffffffffffff90911681526020016101e3565b3480156103a0575f80fd5b506101d9610bda565b3480156103b4575f80fd5b505f546103709073ffffffffffffffffffffffffffffffffffffffff1681565b3480156103df575f80fd5b5061020b6103ee366004611c5a565b610bed565b3480156103fe575f80fd5b506101d960065481565b348015610413575f80fd5b506104506040518060400160405280600581526020017f352e302e3000000000000000000000000000000000000000000000000000000081525081565b6040516101e39190611eba565b348015610468575f80fd5b5061020b610477366004611c5a565b610c79565b348015610487575f80fd5b506002546103709073ffffffffffffffffffffffffffffffffffffffff1681565b3480156104b3575f80fd5b506101d960055481565b3480156104c8575f80fd5b506001546103709073ffffffffffffffffffffffffffffffffffffffff1681565b3480156104f4575f80fd5b5061020b610503366004611c5a565b610d05565b348015610513575f80fd5b5061020b610522366004611e9f565b610d90565b348015610532575f80fd5b5061020b610541366004611f0d565b610df8565b61054e61102e565b610561670de0b6b3a76400006005611f93565b811115610591576105917f2e2dab43000000000000000000000000000000000000000000000000000000006110bc565b60035460408051918252602082018390527f944c1d84ad06971984342e0672019a63ca753e62770b70a87b329c00162f797a910160405180910390a1600355565b5f6105ed670de0b6b3a7640000600454600654600754610994565b90506005548110156105fe57506005545b60035461060b9082611faa565b905090565b6002545f9073ffffffffffffffffffffffffffffffffffffffff16331461065a5761065a7f385296d5000000000000000000000000000000000000000000000000000000006110bc565b6003545f8315610723575f80546040517f1e569d7b00000000000000000000000000000000000000000000000000000000815273ffffffffffffffffffffffffffffffffffffffff90911690631e569d7b906106bc908b908b90600401611fbd565b602060405180830381865afa1580156106d7573d5f803e3d5ffd5b505050506040513d601f19601f820116820180604052508101906106fb9190612009565b905061070f81600454600654600754610994565b91506005548210156107215760055491505b505b8686604051610733929190612020565b6040805191829003822067ffffffffffffffff8816835260208301859052908201839052907f71458adf598dc170bd3c4161d44819d254109dd7958425c0fb21acc26d6ca69c9060600160405180910390a26001546040517f9eaffa960000000000000000000000000000000000000000000000000000000081525f9173ffffffffffffffffffffffffffffffffffffffff1690639eaffa96906107dd908b908b90600401611fbd565b602060405180830381865afa1580156107f8573d5f803e3d5ffd5b505050506040513d601f19601f8201168201806040525081019061081c919061202f565b905082156108ab575f546040517f40c10f1900000000000000000000000000000000000000000000000000000000815273ffffffffffffffffffffffffffffffffffffffff838116600483015260248201869052909116906340c10f19906044015f604051808303815f87803b158015610894575f80fd5b505af11580156108a6573d5f803e3d5ffd5b505050505b811561093a575f546002546040517f40c10f1900000000000000000000000000000000000000000000000000000000815273ffffffffffffffffffffffffffffffffffffffff9182166004820152602481018590529116906340c10f19906044015f604051808303815f87803b158015610923575f80fd5b505af1158015610935573d5f803e3d5ffd5b505050505b509150505b949350505050565b61094f6110c4565b610958826111c8565b61096282826111d0565b5050565b5f61096f61130e565b507f360894a13ba1a3210667c828492db98dca3e2076cc3735a920a3ca505d382bbc90565b5f841561093f57670de0b6b3a76400007ffffffffffffffffffffffffffffffffffffffffffffffffff21f494c589c000086016109dc576109d5858561137d565b9150610a49565b5f6109e787856113ac565b90505f6109f4868361137d565b6109fe9084611faa565b90505f610a0b84836113e5565b610a15908561204a565b90505f610a2b82610a268a88611faa565b61137d565b905087811115610a385750865b610a42898261137d565b9550505050505b50949350505050565b610a5a61102e565b610a635f611427565b565b610a78670de0b6b3a76400006005611f93565b81565b610a8361102e565b610a96670de0b6b3a76400006005611f93565b811115610ac657610ac67fb7b2319a000000000000000000000000000000000000000000000000000000006110bc565b60065460408051918252602082018390527f2f71d40417082cb60caa4ce5f9517495d32e7d0677aa1b4b37798248fc9ce791910160405180910390a1600655565b610b0f61102e565b73ffffffffffffffffffffffffffffffffffffffff8116610b5357610b537fd92e233d000000000000000000000000000000000000000000000000000000006110bc565b60405173ffffffffffffffffffffffffffffffffffffffff8216907ff52f1295a5bd82818185311d8284477532c0eba12fd2ba17314486d3a8f6810d905f90a2600280547fffffffffffffffffffffffff00000000000000000000000000000000000000001673ffffffffffffffffffffffffffffffffffffffff92909216919091179055565b610a78670de0b6b3a7640000600a611f93565b610bf561102e565b610c08670de0b6b3a76400006005611f93565b811115610c3857610c387f22be2284000000000000000000000000000000000000000000000000000000006110bc565b60045460408051918252602082018390527fc8a368e74acfd5086c83fce19caf792cd058ba8ed9b923eea75fcd0d730a4ebb910160405180910390a1600455565b610c8161102e565b610c94670de0b6b3a7640000600a611f93565b811115610cc457610cc47f15482337000000000000000000000000000000000000000000000000000000006110bc565b60055460408051918252602082018390527fc1e9470c1a871e083bc80123ce2595009b15a9b7cc18c438b911587c67ff78d9910160405180910390a1600555565b610d0d61102e565b801580610d215750670de0b6b3a764000081115b15610d4f57610d4f7f347f95b2000000000000000000000000000000000000000000000000000000006110bc565b60075460408051918252602082018390527f02f3c2ae154350db4835c7289b485a454f66ee8c69d501ffa5543aae52a255a7910160405180910390a1600755565b610d9861102e565b73ffffffffffffffffffffffffffffffffffffffff8116610dec576040517f1e4fbdf70000000000000000000000000000000000000000000000000000000081525f60048201526024015b60405180910390fd5b610df581611427565b50565b5f610e016114bc565b805490915060ff68010000000000000000820416159067ffffffffffffffff165f81158015610e2d5750825b90505f8267ffffffffffffffff166001148015610e495750303b155b905081158015610e57575080155b15610e8e576040517ff92ee8a900000000000000000000000000000000000000000000000000000000815260040160405180910390fd5b84547fffffffffffffffffffffffffffffffffffffffffffffffff00000000000000001660011785558315610eef5784547fffffffffffffffffffffffffffffffffffffffffffffff00ffffffffffffffff16680100000000000000001785555b610ef8866114e4565b610f006114f5565b5f80547fffffffffffffffffffffffff00000000000000000000000000000000000000001673ffffffffffffffffffffffffffffffffffffffff8b8116919091178255604051908a16917ff52f1295a5bd82818185311d8284477532c0eba12fd2ba17314486d3a8f6810d91a26002805473ffffffffffffffffffffffffffffffffffffffff808b167fffffffffffffffffffffffff00000000000000000000000000000000000000009283161790925560018054928a169290911691909117905583156110235784547fffffffffffffffffffffffffffffffffffffffffffffff00ffffffffffffffff168555604051600181527fc7f505b2f371ae2175ee4913f4499e1f2633a7b5936321eed1cdaeb6115181d29060200160405180910390a15b505050505050505050565b3361106d7f9016d09d72d40fdae2fd8ceac6b6234c7706214fd39c1cd1e609a0528c1993005473ffffffffffffffffffffffffffffffffffffffff1690565b73ffffffffffffffffffffffffffffffffffffffff1614610a63576040517f118cdaa7000000000000000000000000000000000000000000000000000000008152336004820152602401610de3565b805f5260045ffd5b3073ffffffffffffffffffffffffffffffffffffffff7f000000000000000000000000000000000000000000000000000000000000000016148061119157507f000000000000000000000000000000000000000000000000000000000000000073ffffffffffffffffffffffffffffffffffffffff166111787f360894a13ba1a3210667c828492db98dca3e2076cc3735a920a3ca505d382bbc5473ffffffffffffffffffffffffffffffffffffffff1690565b73ffffffffffffffffffffffffffffffffffffffff1614155b15610a63576040517fe07c8dba00000000000000000000000000000000000000000000000000000000815260040160405180910390fd5b610df561102e565b8173ffffffffffffffffffffffffffffffffffffffff166352d1902d6040518163ffffffff1660e01b8152600401602060405180830381865afa925050508015611255575060408051601f3d9081017fffffffffffffffffffffffffffffffffffffffffffffffffffffffffffffffe016820190925261125291810190612009565b60015b6112a3576040517f4c9c8ce300000000000000000000000000000000000000000000000000000000815273ffffffffffffffffffffffffffffffffffffffff83166004820152602401610de3565b7f360894a13ba1a3210667c828492db98dca3e2076cc3735a920a3ca505d382bbc81146112ff576040517faa1d49a400000000000000000000000000000000000000000000000000000000815260048101829052602401610de3565b61130983836114fd565b505050565b3073ffffffffffffffffffffffffffffffffffffffff7f00000000000000000000000000000000000000000000000000000000000000001614610a63576040517fe07c8dba00000000000000000000000000000000000000000000000000000000815260040160405180910390fd5b5f815f190483111561139c57811561139c5763bac65e5b5f526004601cfd5b50670de0b6b3a764000091020490565b5f6113dc670de0b6b3a7640000836113c38661155f565b6113cd919061205d565b6113d791906120a8565b6117b8565b90505b92915050565b5f7812725dd1d243aba0e75fe645cc4873f9e65afe688c928e1f228310820261141557637c5f487d5f526004601cfd5b50670de0b6b3a7640000919091020490565b7f9016d09d72d40fdae2fd8ceac6b6234c7706214fd39c1cd1e609a0528c19930080547fffffffffffffffffffffffff0000000000000000000000000000000000000000811673ffffffffffffffffffffffffffffffffffffffff848116918217845560405192169182907f8be0079c531659141344cd1fd0a4f28419497f9722a3daafe3b4186f6b6457e0905f90a3505050565b5f807ff0c57e16840df040f15088dc2f81fe391c3923bec73e23a9662efc9c229c6a006113df565b6114ec61199d565b610df5816119db565b610a6361199d565b611506826119e3565b60405173ffffffffffffffffffffffffffffffffffffffff8316907fbc7cd75a20ee27fd9adebab32041f755214dbc6bffa90cc0225b39da2e5c2d3b905f90a2805115611557576113098282611ab1565b610962611b30565b6fffffffffffffffffffffffffffffffff811160071b81811c67ffffffffffffffff1060061b1781811c63ffffffff1060051b1781811c61ffff1060041b1781811c60ff1060031b175f82136115bc57631615e6385f526004601cfd5b7ff8f9f9faf9fdfafbf9fdfcfdfafbfcfef9fafdfafcfcfbfefafafcfbffffffff6f8421084210842108cc6318c6db6d54be83831c1c601f161a1890811b609f90811c6c465772b2bbbb5f824b15207a3081018102606090811d6d0388eaa27412d5aca026815d636e018202811d6d0df99ac502031bf953eff472fdcc018202811d6d13cdffb29d51d99322bdff5f2211018202811d6d0a0f742023def783a307a986912e018202811d6d01920d8043ca89b5239253284e42018202811d6c0b7a86d7375468fac667a0a527016c29508e458543d8aa4df2abee7883018302821d6d0139601a2efabe717e604cbb4894018302821d6d02247f7a7b6594320649aa03aba1018302821d7fffffffffffffffffffffffffffffffffffffff73c0c716a594e00d54e3c4cbc9018302821d7ffffffffffffffffffffffffffffffffffffffdc7b88c420e53a9890533129f6f01830290911d7fffffffffffffffffffffffffffffffffffffff465fda27eb4d63ded474e5f832019091027ffffffffffffffff5f6af8f7b3396644f18e157960000000000000000000000000105711340daa0d5f769dba1915cef59f0815a5506029190037d0267a36c0c95b3975ab3ee5b203a7614a3f75373f047d803ae7b6687f2b302017d57115e47018c7177eebf7cd370a3356a1b7863008a5ae8028c72b88642840160ae1d90565b5f7ffffffffffffffffffffffffffffffffffffffffffffffffdc0d0570925a462d782136117e557919050565b680755bf798b4a1bf1e582126118025763a37bfec95f526004601cfd5b6503782dace9d9604e83901b0591505f60606bb17217f7d1cf79abc9e3b39884821b056b80000000000000000000000001901d6bb17217f7d1cf79abc9e3b39881029093037fffffffffffffffffffffffffffffffffffffffdbf3ccf1604d263450f02a550481018102606090811d6d0277594991cfc85f6e2461837cd9018202811d7fffffffffffffffffffffffffffffffffffffe5adedaa1cb095af9e4da10e363c018202811d6db1bbb201f443cf962f1a1d3db4a5018202811d7ffffffffffffffffffffffffffffffffffffd38dc772608b0ae56cce01296c0eb018202811d6e05180bb14799ab47a8a8cb2a527d57016d02d16720577bd19bf614176fe9ea6c10fe68e7fd37d0007b713f765084018402831d9081019084017ffffffffffffffffffffffffffffffffffffffe2c69812cf03b0763fd454a8f7e010290911d6e0587f503bb6ea29d25fcb7401964500190910279d835ebba824c98fb31b83b2ca45c000000000000000000000000010574029d9dc38563c32e5c2f6dc192ee70ef65f9978af30260c3939093039290921c92915050565b6119a5611b68565b610a63576040517fd7e6bcf800000000000000000000000000000000000000000000000000000000815260040160405180910390fd5b610d9861199d565b8073ffffffffffffffffffffffffffffffffffffffff163b5f03611a4b576040517f4c9c8ce300000000000000000000000000000000000000000000000000000000815273ffffffffffffffffffffffffffffffffffffffff82166004820152602401610de3565b7f360894a13ba1a3210667c828492db98dca3e2076cc3735a920a3ca505d382bbc80547fffffffffffffffffffffffff00000000000000000000000000000000000000001673ffffffffffffffffffffffffffffffffffffffff92909216919091179055565b60605f808473ffffffffffffffffffffffffffffffffffffffff1684604051611ada9190612134565b5f60405180830381855af49150503d805f8114611b12576040519150601f19603f3d011682016040523d82523d5f602084013e611b17565b606091505b5091509150611b27858383611b86565b95945050505050565b3415610a63576040517fb398979f00000000000000000000000000000000000000000000000000000000815260040160405180910390fd5b5f611b716114bc565b5468010000000000000000900460ff16919050565b606082611b9b57611b9682611c18565b611c11565b8151158015611bbf575073ffffffffffffffffffffffffffffffffffffffff84163b155b15611c0e576040517f9996b31500000000000000000000000000000000000000000000000000000000815273ffffffffffffffffffffffffffffffffffffffff85166004820152602401610de3565b50805b9392505050565b805115611c285780518082602001fd5b6040517fd6bda27500000000000000000000000000000000000000000000000000000000815260040160405180910390fd5b5f60208284031215611c6a575f80fd5b5035919050565b80358015158114611c80575f80fd5b919050565b5f805f8060608587031215611c98575f80fd5b843567ffffffffffffffff811115611cae575f80fd5b8501601f81018713611cbe575f80fd5b803567ffffffffffffffff811115611cd4575f80fd5b876020828401011115611ce5575f80fd5b60209182019550935085013567ffffffffffffffff81168114611d06575f80fd5b9150611d1460408601611c71565b905092959194509250565b73ffffffffffffffffffffffffffffffffffffffff81168114610df5575f80fd5b7f4e487b71000000000000000000000000000000000000000000000000000000005f52604160045260245ffd5b5f8060408385031215611d7e575f80fd5b8235611d8981611d1f565b9150602083013567ffffffffffffffff811115611da4575f80fd5b8301601f81018513611db4575f80fd5b803567ffffffffffffffff811115611dce57611dce611d40565b6040517fffffffffffffffffffffffffffffffffffffffffffffffffffffffffffffffe0603f7fffffffffffffffffffffffffffffffffffffffffffffffffffffffffffffffe0601f8501160116810181811067ffffffffffffffff82111715611e3a57611e3a611d40565b604052818152828201602001871015611e51575f80fd5b816020840160208301375f602083830101528093505050509250929050565b5f805f8060808587031215611e83575f80fd5b5050823594602084013594506040840135936060013592509050565b5f60208284031215611eaf575f80fd5b8135611c1181611d1f565b602081525f82518060208401528060208501604085015e5f6040828501015260407fffffffffffffffffffffffffffffffffffffffffffffffffffffffffffffffe0601f83011684010191505092915050565b5f805f8060808587031215611f20575f80fd5b8435611f2b81611d1f565b93506020850135611f3b81611d1f565b92506040850135611f4b81611d1f565b91506060850135611f5b81611d1f565b939692955090935050565b7f4e487b71000000000000000000000000000000000000000000000000000000005f52601160045260245ffd5b80820281158282048414176113df576113df611f66565b808201808211156113df576113df611f66565b60208152816020820152818360408301375f818301604090810191909152601f9092017fffffffffffffffffffffffffffffffffffffffffffffffffffffffffffffffe0160101919050565b5f60208284031215612019575f80fd5b5051919050565b818382375f9101908152919050565b5f6020828403121561203f575f80fd5b8151611c1181611d1f565b818103818111156113df576113df611f66565b8082025f82127f80000000000000000000000000000000000000000000000000000000000000008414161561209457612094611f66565b81810583148215176113df576113df611f66565b5f826120db577f4e487b71000000000000000000000000000000000000000000000000000000005f52601260045260245ffd5b7fffffffffffffffffffffffffffffffffffffffffffffffffffffffffffffffff83147f80000000000000000000000000000000000000000000000000000000000000008314161561212f5761212f611f66565b500590565b5f82518060208501845e5f92019182525091905056fea164736f6c634300081a000a60a060405230608052348015610013575f80fd5b5061001c610021565b6100d3565b7ff0c57e16840df040f15088dc2f81fe391c3923bec73e23a9662efc9c229c6a00805468010000000000000000900460ff16156100715760405163f92ee8a960e01b815260040160405180910390fd5b80546001600160401b03908116146100d05780546001600160401b0319166001600160401b0390811782556040519081527fc7f505b2f371ae2175ee4913f4499e1f2633a7b5936321eed1cdaeb6115181d29060200160405180910390a15b50565b6080516128286100f95f395f818161150801528181611531015261175601526128285ff3fe60806040526004361061016d575f3560e01c806357c60951116100c6578063ac9650d81161007c578063b23ae19111610057578063b23ae191146104ee578063d547741f1461050d578063ec87621c1461052c575f80fd5b8063ac9650d81461045a578063ad3cb1cc1461047a578063b07292be146104cf575f80fd5b806391d14854116100ac57806391d14854146103aa5780639a6c31c41461041a578063a217fddf14610447575f80fd5b806357c60951146103505780637165e2ce1461037d575f80fd5b80632f2ff15d1161012657806349732f841161010157806349732f841461030a5780634f1ef2861461032957806352d1902d1461033c575f80fd5b80632f2ff15d1461029257806335222ff1146102b157806336568abe146102eb575f80fd5b806308ccd3331161015657806308ccd333146101c65780630dc8b98814610218578063248a9ca314610237575f80fd5b806301ffc9a71461017157806305a77401146101a5575b5f80fd5b34801561017c575f80fd5b5061019061018b366004611f9a565b61055f565b60405190151581526020015b60405180910390f35b3480156101b0575f80fd5b506101c46101bf366004611fee565b6105f7565b005b3480156101d1575f80fd5b50610834546101f39073ffffffffffffffffffffffffffffffffffffffff1681565b60405173ffffffffffffffffffffffffffffffffffffffff909116815260200161019c565b348015610223575f80fd5b506101c4610232366004612051565b61062e565b348015610242575f80fd5b50610284610251366004612143565b5f9081527f02dd7bc7dec4dceedda775e58dd541e08a116c6c53815c0bd028192f7b626800602052604090206001015490565b60405190815260200161019c565b34801561029d575f80fd5b506101c46102ac36600461217b565b61069b565b3480156102bc575f80fd5b50610800546102d29067ffffffffffffffff1681565b60405167ffffffffffffffff909116815260200161019c565b3480156102f6575f80fd5b506101c461030536600461217b565b6106e4565b348015610315575f80fd5b50610190610324366004611fee565b610742565b6101c461033736600461224e565b6107c2565b348015610347575f80fd5b506102846107dd565b34801561035b575f80fd5b50610833546101f39073ffffffffffffffffffffffffffffffffffffffff1681565b348015610388575f80fd5b50610800546102d29068010000000000000000900467ffffffffffffffff1681565b3480156103b5575f80fd5b506101906103c436600461217b565b5f9182527f02dd7bc7dec4dceedda775e58dd541e08a116c6c53815c0bd028192f7b6268006020908152604080842073ffffffffffffffffffffffffffffffffffffffff93909316845291905290205460ff1690565b348015610425575f80fd5b50610835546101f39073ffffffffffffffffffffffffffffffffffffffff1681565b348015610452575f80fd5b506102845f81565b61046d610468366004612313565b61080b565b60405161019c919061239e565b348015610485575f80fd5b506104c26040518060400160405280600581526020017f352e302e3000000000000000000000000000000000000000000000000000000081525081565b60405161019c919061241f565b3480156104da575f80fd5b506101c46104e9366004611fee565b610829565b3480156104f9575f80fd5b506101c4610508366004612431565b61085c565b348015610518575f80fd5b506101c461052736600461217b565b610a5b565b348015610537575f80fd5b506102847f241ecf16d79d0f8dbfb92cbc07fe17840425976cf0667f022fe9877caa831b0881565b5f7fffffffff0000000000000000000000000000000000000000000000000000000082167f7965db0b0000000000000000000000000000000000000000000000000000000014806105f157507f01ffc9a7000000000000000000000000000000000000000000000000000000007fffffffff000000000000000000000000000000000000000000000000000000008316145b92915050565b7f241ecf16d79d0f8dbfb92cbc07fe17840425976cf0667f022fe9877caa831b0861062181610a9e565b61062a82610aab565b5050565b610636610b1a565b5f61064089610b9b565b905061064e8186868b610cdc565b61065c8184848a8a8d610d9f565b61066787878b610e8a565b5061069160017f9b779b17422d0df92223018b32b4d1fa46e071723d6817e2486d003becc55f0055565b5050505050505050565b5f8281527f02dd7bc7dec4dceedda775e58dd541e08a116c6c53815c0bd028192f7b62680060205260409020600101546106d481610a9e565b6106de83836112c9565b50505050565b73ffffffffffffffffffffffffffffffffffffffff81163314610733576040517f6697b23200000000000000000000000000000000000000000000000000000000815260040160405180910390fd5b61073d82826113ee565b505050565b5f6107568267ffffffffffffffff166114ca565b61076157505f919050565b5f61076e611fff846124af565b90508267ffffffffffffffff165f8267ffffffffffffffff16611fff811061079857610798612503565b60048104919091015460039091166008026101000a900467ffffffffffffffff1614159392505050565b6107ca6114f0565b6107d3826115f6565b61062a8282611600565b5f6107e661173e565b507f360894a13ba1a3210667c828492db98dca3e2076cc3735a920a3ca505d382bbc90565b60603415610817575f80fd5b6105f161082484846117ad565b611839565b7f241ecf16d79d0f8dbfb92cbc07fe17840425976cf0667f022fe9877caa831b0861085381610a9e565b61062a8261184a565b5f6108656118c0565b805490915060ff68010000000000000000820416159067ffffffffffffffff165f811580156108915750825b90505f8267ffffffffffffffff1660011480156108ad5750303b155b9050811580156108bb575080155b156108f2576040517ff92ee8a900000000000000000000000000000000000000000000000000000000815260040160405180910390fd5b84547fffffffffffffffffffffffffffffffffffffffffffffffff000000000000000016600117855583156109535784547fffffffffffffffffffffffffffffffffffffffffffffff00ffffffffffffffff16680100000000000000001785555b61095b6118e8565b6109636118f0565b61096b6118e8565b6109755f896112c9565b50610833805473ffffffffffffffffffffffffffffffffffffffff808e167fffffffffffffffffffffffff00000000000000000000000000000000000000009283161790925561083580548d84169083161790556108348054928c16929091169190911790556109e487610aab565b6109ed8661184a565b8315610a4e5784547fffffffffffffffffffffffffffffffffffffffffffffff00ffffffffffffffff168555604051600181527fc7f505b2f371ae2175ee4913f4499e1f2633a7b5936321eed1cdaeb6115181d29060200160405180910390a15b5050505050505050505050565b5f8281527f02dd7bc7dec4dceedda775e58dd541e08a116c6c53815c0bd028192f7b6268006020526040902060010154610a9481610a9e565b6106de83836113ee565b610aa88133611900565b50565b61080080547fffffffffffffffffffffffffffffffffffffffffffffffff00000000000000001667ffffffffffffffff83169081179091556040519081527ff69efed1b8e513b3fd40bbd81db7ee8cefc8d27a1864ef2553eaedf7b2b93acc906020015b60405180910390a150565b7f9b779b17422d0df92223018b32b4d1fa46e071723d6817e2486d003becc55f0080547ffffffffffffffffffffffffffffffffffffffffffffffffffffffffffffffffe01610b95576040517f3ee5aeb500000000000000000000000000000000000000000000000000000000815260040160405180910390fd5b60029055565b5f610baf8267ffffffffffffffff166119a6565b90505f610bbe611fff846124af565b90505f8167ffffffffffffffff16611fff8110610bdd57610bdd612503565b600491828204019190066008029054906101000a900467ffffffffffffffff1667ffffffffffffffff168367ffffffffffffffff1603610c4057610c407f0a431b2a000000000000000000000000000000000000000000000000000000006119e1565b825f8267ffffffffffffffff16611fff8110610c5e57610c5e612503565b600491828204019190066008026101000a81548167ffffffffffffffff021916908367ffffffffffffffff1602179055507f8255105a483ddda7483710381fc023dc4a2bc69f7bdb3b59b52b8fbb28bde00383604051610cce919067ffffffffffffffff91909116815260200190565b60405180910390a150919050565b5f65ff000000ff00600883811b91821664ff000000ff9185901c91821617601090811b67ff000000ff0000009390931666ff000000ff00009290921691909117901c17602081811c63ffffffff1691901b67ffffffff00000000161760c01b9050610d6b8484878461080060089054906101000a900467ffffffffffffffff1667ffffffffffffffff166119e9565b610d9857610d987f09bde339000000000000000000000000000000000000000000000000000000006119e1565b5050505050565b6501000000000067ffffffffffffffff821610610ddf57610ddf7f1390f2a1000000000000000000000000000000000000000000000000000000006119e1565b5f610e1e84848080601f0160208091040260200160405190810160405280939291908181526020018383808284375f92019190915250611a8392505050565b90505f610e2c83600861255d565b61080054610e44919067ffffffffffffffff16612580565b67ffffffffffffffff169050610e5d87878a85856119e9565b610691576106917f09bde339000000000000000000000000000000000000000000000000000000006119e1565b6108345461083354604080517fa094a03100000000000000000000000000000000000000000000000000000000815290515f9373ffffffffffffffffffffffffffffffffffffffff9081169363399211d493899389938993169163a094a0319160048083019260209291908290030181865afa158015610f0c573d5f803e3d5ffd5b505050506040513d601f19601f82011682018060405250810190610f3091906125a0565b6040518563ffffffff1660e01b8152600401610f4f9493929190612606565b6020604051808303815f875af1158015610f6b573d5f803e3d5ffd5b505050506040513d601f19601f82011682018060405250810190610f8f919061263b565b9050805f03610f9e5750505050565b610833546040517f6ed0bf9a00000000000000000000000000000000000000000000000000000000815273ffffffffffffffffffffffffffffffffffffffff90911690636ed0bf9a90610ff79087908790600401612652565b5f604051808303815f87803b15801561100e575f80fd5b505af1158015611020573d5f803e3d5ffd5b5050610833546040517fda6f75630000000000000000000000000000000000000000000000000000000081525f935073ffffffffffffffffffffffffffffffffffffffff909116915063da6f75639061107f9088908890600401612652565b5f60405180830381865afa158015611099573d5f803e3d5ffd5b505050506040513d5f823e601f3d9081017fffffffffffffffffffffffffffffffffffffffffffffffffffffffffffffffe01682016040526110de919081019061266d565b602081015180519192505f91825b81811015611298575f83828151811061110757611107612503565b602090810291909101015180519091505f6111236001866127ad565b840361113a57611133878a6127ad565b9050611176565b6111678984602001516bffffffffffffffffffffffff166127106bffffffffffffffffffffffff16611acd565b905061117381886127c0565b96505b6108355461119b9073ffffffffffffffffffffffffffffffffffffffff168383611b7e565b6040517fe434eee000000000000000000000000000000000000000000000000000000000815273ffffffffffffffffffffffffffffffffffffffff83169063e434eee0906111f1908f908f9086906004016127d3565b5f604051808303815f87803b158015611208575f80fd5b505af115801561121a573d5f803e3d5ffd5b505050508173ffffffffffffffffffffffffffffffffffffffff168a67ffffffffffffffff168d8d6040516112509291906127f6565b604051908190038120848252907f027042b00b5da1362792832f3775452610369da8ce2c07af183cdabd276e3a119060200160405180910390a48360010193505050506110ec565b505050505050505050565b60017f9b779b17422d0df92223018b32b4d1fa46e071723d6817e2486d003becc55f0055565b5f8281527f02dd7bc7dec4dceedda775e58dd541e08a116c6c53815c0bd028192f7b6268006020818152604080842073ffffffffffffffffffffffffffffffffffffffff8616855290915282205460ff166113de575f8481526020828152604080832073ffffffffffffffffffffffffffffffffffffffff87168452909152902080547fffffffffffffffffffffffffffffffffffffffffffffffffffffffffffffff0016600117905561137a3390565b73ffffffffffffffffffffffffffffffffffffffff168373ffffffffffffffffffffffffffffffffffffffff16857f2f8788117e7eff1d82e926ec794901d17c78024a50270940304540a733656f0d60405160405180910390a460019150506105f1565b5f9150506105f1565b5092915050565b5f8281527f02dd7bc7dec4dceedda775e58dd541e08a116c6c53815c0bd028192f7b6268006020818152604080842073ffffffffffffffffffffffffffffffffffffffff8616855290915282205460ff16156113de575f8481526020828152604080832073ffffffffffffffffffffffffffffffffffffffff8716808552925280832080547fffffffffffffffffffffffffffffffffffffffffffffffffffffffffffffff0016905551339287917ff6391f5c32d9c69d2a47ea670b442974b53935d1edc7fd64eb21e047a839171b9190a460019150506105f1565b5f815f5260205f60205f720f3df6d732807ef1319fb7b8bb8522d0beac025afa92915050565b3073ffffffffffffffffffffffffffffffffffffffff7f00000000000000000000000000000000000000000000000000000000000000001614806115bd57507f000000000000000000000000000000000000000000000000000000000000000073ffffffffffffffffffffffffffffffffffffffff166115a47f360894a13ba1a3210667c828492db98dca3e2076cc3735a920a3ca505d382bbc5473ffffffffffffffffffffffffffffffffffffffff1690565b73ffffffffffffffffffffffffffffffffffffffff1614155b156115f4576040517fe07c8dba00000000000000000000000000000000000000000000000000000000815260040160405180910390fd5b565b5f61062a81610a9e565b8173ffffffffffffffffffffffffffffffffffffffff166352d1902d6040518163ffffffff1660e01b8152600401602060405180830381865afa925050508015611685575060408051601f3d9081017fffffffffffffffffffffffffffffffffffffffffffffffffffffffffffffffe01682019092526116829181019061263b565b60015b6116d8576040517f4c9c8ce300000000000000000000000000000000000000000000000000000000815273ffffffffffffffffffffffffffffffffffffffff831660048201526024015b60405180910390fd5b7f360894a13ba1a3210667c828492db98dca3e2076cc3735a920a3ca505d382bbc8114611734576040517faa1d49a4000000000000000000000000000000000000000000000000000000008152600481018290526024016116cf565b61073d8383611be1565b3073ffffffffffffffffffffffffffffffffffffffff7f000000000000000000000000000000000000000000000000000000000000000016146115f4576040517fe07c8dba00000000000000000000000000000000000000000000000000000000815260040160405180910390fd5b5f60405190506020815281816020015280604001808360051b808684378201808515611827575b8351870180356020820183375f38823584305af46117f4573d5f873e3d86fd5b5082810384523d815260209384019381013d5f823e5f3d8201523d01601f0167ffffffffffffffe01690508184106117d4575b60408181521b90931795945050505050565b8060401c8167ffffffffffffffff16f35b61080080547fffffffffffffffffffffffffffffffff0000000000000000ffffffffffffffff166801000000000000000067ffffffffffffffff8416908102919091179091556040519081527fad21f7eb8017dd534724f9d5d46117a5a4612da4941b67678fecf4efb850433a90602001610b0f565b5f807ff0c57e16840df040f15088dc2f81fe391c3923bec73e23a9662efc9c229c6a006105f1565b6115f4611c43565b6118f8611c43565b6115f4611c81565b5f8281527f02dd7bc7dec4dceedda775e58dd541e08a116c6c53815c0bd028192f7b6268006020908152604080832073ffffffffffffffffffffffffffffffffffffffff8516845290915290205460ff1661062a576040517fe2517d3f00000000000000000000000000000000000000000000000000000000815273ffffffffffffffffffffffffffffffffffffffff82166004820152602481018390526044016116cf565b5f815f5260205f60205f720f3df6d732807ef1319fb7b8bb8522d0beac025afa806119d857633033b0ff5f526004601cfd5b50505f51919050565b805f5260045ffd5b5f8415611a45578460051b8601865b6001841660051b8460011c945084611a1757635849603f5f526004601cfd5b85815281356020918218525f60408160025afa80611a33575f80fd5b505f5194506020018181106119f85750505b7fffffffffffffffffffffffffffffffffffffffffffffffffffffffffffffffff820115611a7a57631b6661c35f526004601cfd5b50501492915050565b80515f90603014611ab757611ab77f5f4167e9000000000000000000000000000000000000000000000000000000006119e1565b60205f60406020850160025afa806119d8575f80fd5b82820281838583041485151702611b73577fffffffffffffffffffffffffffffffffffffffffffffffffffffffffffffffff8385098181108201900382848609835f038416828511611b265763ae47f7025f526004601cfd5b93849004938382119092035f839003839004600101029203041760026003830281188084028203028084028203028084028203028084028203028084028203028084029091030202611b77565b8190045b9392505050565b5f611b8a843085611c89565b905081810181811015611bc057611bc07f1011dc51000000000000000000000000000000000000000000000000000000006119e1565b610d9873ffffffffffffffffffffffffffffffffffffffff86168583611cd3565b611bea82611d26565b60405173ffffffffffffffffffffffffffffffffffffffff8316907fbc7cd75a20ee27fd9adebab32041f755214dbc6bffa90cc0225b39da2e5c2d3b905f90a2805115611c3b5761073d8282611df4565b61062a611e73565b611c4b611eab565b6115f4576040517fd7e6bcf800000000000000000000000000000000000000000000000000000000815260040160405180910390fd5b6112a3611c43565b5f7fdd62ed3e000000000000000000000000000000000000000000000000000000005f52826004528160245260205f60445f875afa601f3d11165f510290505f6024529392505050565b81601452806034526f095ea7b30000000000000000000000005f5260205f604460105f875af18060015f511416611d1c57803d853b151710611d1c57633e3f8f735f526004601cfd5b505f603452505050565b8073ffffffffffffffffffffffffffffffffffffffff163b5f03611d8e576040517f4c9c8ce300000000000000000000000000000000000000000000000000000000815273ffffffffffffffffffffffffffffffffffffffff821660048201526024016116cf565b7f360894a13ba1a3210667c828492db98dca3e2076cc3735a920a3ca505d382bbc80547fffffffffffffffffffffffff00000000000000000000000000000000000000001673ffffffffffffffffffffffffffffffffffffffff92909216919091179055565b60605f808473ffffffffffffffffffffffffffffffffffffffff1684604051611e1d9190612805565b5f60405180830381855af49150503d805f8114611e55576040519150601f19603f3d011682016040523d82523d5f602084013e611e5a565b606091505b5091509150611e6a858383611ec9565b95945050505050565b34156115f4576040517fb398979f00000000000000000000000000000000000000000000000000000000815260040160405180910390fd5b5f611eb46118c0565b5468010000000000000000900460ff16919050565b606082611ede57611ed982611f58565b611b77565b8151158015611f02575073ffffffffffffffffffffffffffffffffffffffff84163b155b15611f51576040517f9996b31500000000000000000000000000000000000000000000000000000000815273ffffffffffffffffffffffffffffffffffffffff851660048201526024016116cf565b5080611b77565b805115611f685780518082602001fd5b6040517fd6bda27500000000000000000000000000000000000000000000000000000000815260040160405180910390fd5b5f60208284031215611faa575f80fd5b81357fffffffff0000000000000000000000000000000000000000000000000000000081168114611b77575f80fd5b67ffffffffffffffff81168114610aa8575f80fd5b5f60208284031215611ffe575f80fd5b8135611b7781611fd9565b5f8083601f840112612019575f80fd5b50813567ffffffffffffffff811115612030575f80fd5b6020830191508360208260051b850101111561204a575f80fd5b9250929050565b5f805f805f805f8060a0898b031215612068575f80fd5b883561207381611fd9565b9750602089013561208381611fd9565b9650604089013567ffffffffffffffff81111561209e575f80fd5b8901601f81018b136120ae575f80fd5b803567ffffffffffffffff8111156120c4575f80fd5b8b60208284010111156120d5575f80fd5b60209190910196509450606089013567ffffffffffffffff8111156120f8575f80fd5b6121048b828c01612009565b909550935050608089013567ffffffffffffffff811115612123575f80fd5b61212f8b828c01612009565b999c989b5096995094979396929594505050565b5f60208284031215612153575f80fd5b5035919050565b73ffffffffffffffffffffffffffffffffffffffff81168114610aa8575f80fd5b5f806040838503121561218c575f80fd5b82359150602083013561219e8161215a565b809150509250929050565b7f4e487b71000000000000000000000000000000000000000000000000000000005f52604160045260245ffd5b6040805190810167ffffffffffffffff811182821017156121f9576121f96121a9565b60405290565b604051601f82017fffffffffffffffffffffffffffffffffffffffffffffffffffffffffffffffe016810167ffffffffffffffff81118282101715612246576122466121a9565b604052919050565b5f806040838503121561225f575f80fd5b823561226a8161215a565b9150602083013567ffffffffffffffff811115612285575f80fd5b8301601f81018513612295575f80fd5b803567ffffffffffffffff8111156122af576122af6121a9565b6122e060207fffffffffffffffffffffffffffffffffffffffffffffffffffffffffffffffe0601f840116016121ff565b8181528660208385010111156122f4575f80fd5b816020840160208301375f602083830101528093505050509250929050565b5f8060208385031215612324575f80fd5b823567ffffffffffffffff81111561233a575f80fd5b61234685828601612009565b90969095509350505050565b5f81518084528060208401602086015e5f6020828601015260207fffffffffffffffffffffffffffffffffffffffffffffffffffffffffffffffe0601f83011685010191505092915050565b5f602082016020835280845180835260408501915060408160051b8601019250602086015f5b82811015612413577fffffffffffffffffffffffffffffffffffffffffffffffffffffffffffffffc08786030184526123fe858351612352565b945060209384019391909101906001016123c4565b50929695505050505050565b602081525f611b776020830184612352565b5f805f805f8060c08789031215612446575f80fd5b86356124518161215a565b955060208701356124618161215a565b945060408701356124718161215a565b935060608701356124818161215a565b9250608087013561249181611fd9565b915060a08701356124a181611fd9565b809150509295509295509295565b5f67ffffffffffffffff8316806124ed577f4e487b71000000000000000000000000000000000000000000000000000000005f52601260045260245ffd5b8067ffffffffffffffff84160691505092915050565b7f4e487b71000000000000000000000000000000000000000000000000000000005f52603260045260245ffd5b7f4e487b71000000000000000000000000000000000000000000000000000000005f52601160045260245ffd5b67ffffffffffffffff81811683821602908116908181146113e7576113e7612530565b67ffffffffffffffff81811683821601908111156105f1576105f1612530565b5f602082840312156125b0575f80fd5b81518015158114611b77575f80fd5b81835281816020850137505f602082840101525f60207fffffffffffffffffffffffffffffffffffffffffffffffffffffffffffffffe0601f840116840101905092915050565b606081525f6126196060830186886125bf565b67ffffffffffffffff9490941660208301525090151560409091015292915050565b5f6020828403121561264b575f80fd5b5051919050565b602081525f6126656020830184866125bf565b949350505050565b5f6020828403121561267d575f80fd5b815167ffffffffffffffff811115612693575f80fd5b8201604081850312156126a4575f80fd5b6126ac6121d6565b81516126b781611fd9565b8152602082015167ffffffffffffffff8111156126d2575f80fd5b80830192505084601f8301126126e6575f80fd5b815167ffffffffffffffff811115612700576127006121a9565b61270f60208260051b016121ff565b8082825260208201915060208360061b860101925087831115612730575f80fd5b6020850194505b8285101561279d576040858903121561274e575f80fd5b6127566121d6565b85516127618161215a565b815260208601516bffffffffffffffffffffffff81168114612781575f80fd5b8060208301525080835250602082019150604085019450612737565b6020840152509095945050505050565b818103818111156105f1576105f1612530565b808201808211156105f1576105f1612530565b604081525f6127e66040830185876125bf565b9050826020830152949350505050565b818382375f9101908152919050565b5f82518060208501845e5f92019182525091905056fea164736f6c634300081a000a6080604052348015600e575f80fd5b5060156019565b60c9565b7ff0c57e16840df040f15088dc2f81fe391c3923bec73e23a9662efc9c229c6a00805468010000000000000000900460ff161560685760405163f92ee8a960e01b815260040160405180910390fd5b80546001600160401b039081161460c65780546001600160401b0319166001600160401b0390811782556040519081527fc7f505b2f371ae2175ee4913f4499e1f2633a7b5936321eed1cdaeb6115181d29060200160405180910390a15b50565b613c46806100d65f395ff3fe608060405234801561000f575f80fd5b506004361061032f575f3560e01c80638456cb59116101b3578063c45a0155116100f3578063e26f79001161009e578063eafe0f4c11610079578063eafe0f4c1461083f578063ebe2b12b1461085f578063f7c618c114610868578063f8c8765e14610888575f80fd5b8063e26f790014610804578063e434eee014610819578063e7d379a91461082c575f80fd5b8063cd3daf9d116100ce578063cd3daf9d146107e0578063cfbde346146107e8578063df136d65146107fb575f80fd5b8063c45a015514610787578063c8f33c91146107c4578063cc1a378f146107cd575f80fd5b80639cd3f3841161015e578063b3ab15fb11610139578063b3ab15fb14610729578063b42652e91461073c578063b42f60db1461074f578063bfe1092814610762575f80fd5b80639cd3f384146106d9578063a4dbda3c146106e1578063a694fc3a14610716575f80fd5b80638eb3f35c1161018e5780638eb3f35c146106455780638f650f9c146106585780639a307391146106a1575f80fd5b80638456cb59146105f25780638980f11f146105fa5780638b8763471461060d575f80fd5b8063433e8e411161027e57806367df5e011161022957806375619ab51161020457806375619ab51461054e578063774e900b146105615780637b0a47ee146105e157806380faa57d146105ea575f80fd5b806367df5e01146104e75780636b0916951461050657806370a0823114610519575f80fd5b806354659b941161025957806354659b94146104975780635820bee0146104aa5780635c975abb146104bd575f80fd5b8063433e8e411461045257806351ed6a30146104655780635281244f14610484575f80fd5b80632154bc44116102de578063386a9525116102b9578063386a95251461042e5780633c323a1b146104375780633f4ba83a1461044a575f80fd5b80632154bc44146103da5780632e1a7d4d14610412578063319ce2bb14610425575f80fd5b8063166496181161030e57806316649618146103b457806318160ddd146103c95780631c1f78eb146103d2575f80fd5b80628cc262146103335780630700037d14610359578063078f7fd314610391575b5f80fd5b6103466103413660046137bf565b61089b565b6040519081526020015b60405180910390f35b6103466103673660046137bf565b73ffffffffffffffffffffffffffffffffffffffff165f9081526009602052604090206001015490565b6103a461039f3660046137bf565b610900565b6040519015158152602001610350565b6103c76103c23660046137da565b6109e2565b005b61034660055481565b610346610bf8565b6103ed6103e8366004613819565b610c15565b60405173ffffffffffffffffffffffffffffffffffffffff9091168152602001610350565b6103c7610420366004613819565b610c4a565b61034660035481565b61034660075481565b6103c7610445366004613830565b610c96565b6103c7610d98565b6103a46104603660046137bf565b610daa565b5f546103ed9073ffffffffffffffffffffffffffffffffffffffff1681565b6103c7610492366004613830565b610df3565b6103c76104a536600461385a565b610f18565b6103c76104b8366004613830565b610fbd565b7fcd5ed15c6e187e77e9aee88184c21f4f2182ab5827cb3b7e07fbedcd63f033005460ff166103a4565b603c546104f49060ff1681565b60405160ff9091168152602001610350565b61034661051436600461387a565b611225565b6103466105273660046137bf565b73ffffffffffffffffffffffffffffffffffffffff165f9081526009602052604090205490565b6103c761055c3660046137bf565b6112de565b6105ab61056f3660046137bf565b604060208190525f91825290208054600182015460028301546003909301549192909173ffffffffffffffffffffffffffffffffffffffff1684565b6040805194855260208501939093529183015273ffffffffffffffffffffffffffffffffffffffff166060820152608001610350565b61034660025481565b61034661139f565b6103c76113b2565b6103c7610608366004613830565b6113c2565b61034661061b3660046137bf565b73ffffffffffffffffffffffffffffffffffffffff165f9081526009602052604090206002015490565b6103c761065336600461387a565b6114dd565b61034661066636600461387a565b73ffffffffffffffffffffffffffffffffffffffff9182165f908152603e602090815260408083209390941682526001909201909152205490565b6103ed6106af3660046137bf565b73ffffffffffffffffffffffffffffffffffffffff9081165f908152603f60205260409020541690565b604154610346565b6103466106ef3660046137bf565b73ffffffffffffffffffffffffffffffffffffffff165f908152603e602052604090205490565b6103c7610724366004613819565b61161a565b6103c76107373660046137bf565b61165d565b6103c761074a3660046137bf565b6116e1565b6103c761075d3660046138b1565b611723565b603c546103ed90610100900473ffffffffffffffffffffffffffffffffffffffff1681565b7f4e32a932fdd4658a66f9586d8955a0d0a795a01bd8251335b4fae29d972acc005473ffffffffffffffffffffffffffffffffffffffff166103ed565b61034660085481565b6103c76107db366004613819565b6119a5565b6103466119b6565b6103a46107f63660046137bf565b6119ff565b61034660045481565b61080c611a48565b60405161035091906138e3565b6103c761082736600461393b565b611ab5565b6103c761083a3660046137bf565b611b16565b603d546103ed9073ffffffffffffffffffffffffffffffffffffffff1681565b61034660065481565b6001546103ed9073ffffffffffffffffffffffffffffffffffffffff1681565b6103c76108963660046139ad565b611c1f565b73ffffffffffffffffffffffffffffffffffffffff81165f90815260096020526040812080546001820154600283015484816108d56119b6565b0390506108eb8482670de0b6b3a7640000611e8c565b6108f59084613a33565b979650505050505050565b7f4e32a932fdd4658a66f9586d8955a0d0a795a01bd8251335b4fae29d972acc0080545f919073ffffffffffffffffffffffffffffffffffffffff166391d14854610949611f39565b6040517fffffffff0000000000000000000000000000000000000000000000000000000060e084901b168152600481019190915273ffffffffffffffffffffffffffffffffffffffff86166024820152604401602060405180830381865afa1580156109b7573d5f803e3d5ffd5b505050506040513d601f19601f820116820180604052508101906109db9190613a46565b9392505050565b6109ea611ff1565b815f03610a1a57610a1a7f0b5c3aff00000000000000000000000000000000000000000000000000000000612028565b6ec097ce7bc90715b34b9f1000000000821115610a5a57610a5a7f38432c8900000000000000000000000000000000000000000000000000000000612028565b73ffffffffffffffffffffffffffffffffffffffff83161580610a91575073ffffffffffffffffffffffffffffffffffffffff8116155b15610abf57610abf7fd92e233d00000000000000000000000000000000000000000000000000000000612028565b73ffffffffffffffffffffffffffffffffffffffff83165f908152604060208190529020603c5460415460ff9091161480610afa5750805415155b15610b2857610b287ffbf97e0700000000000000000000000000000000000000000000000000000000612028565b60418054600180820183555f929092527f7c9785e8241615bc80415d89775984a1337d15dc1bf4ce50f41988b2a2b336a70180547fffffffffffffffffffffffff000000000000000000000000000000000000000090811673ffffffffffffffffffffffffffffffffffffffff88811691821790935592840186905585845560038401805490911691851691821790556040805186815260208101929092527fc672b9cba50e3745edbd6cfb6512bc2165f66d47f686401223bc515cc933d9e0910160405180910390a250505050565b5f610c10600254600754670de0b6b3a7640000611e8c565b905090565b60418181548110610c24575f80fd5b5f9182526020909120015473ffffffffffffffffffffffffffffffffffffffff16905081565b610c52612030565b3381610c5e82826120b1565b610c683384612114565b5050610c9360017f9b779b17422d0df92223018b32b4d1fa46e071723d6817e2486d003becc55f0055565b50565b610c9e612030565b610ca6612269565b73ffffffffffffffffffffffffffffffffffffffff82163303610cec57610cec7f1db3b85900000000000000000000000000000000000000000000000000000000612028565b610cf682826122c5565b73ffffffffffffffffffffffffffffffffffffffff82165f818152603e60209081526040808320805486018155338085526001909101835292819020805486019055518481529192917f5d84fd7efe2fd5203970924007f1f56ec874f1fdbe6acec5f208000a72c7045691015b60405180910390a3610d9460017f9b779b17422d0df92223018b32b4d1fa46e071723d6817e2486d003becc55f0055565b5050565b610da06123d2565b610da86123db565b565b7f4e32a932fdd4658a66f9586d8955a0d0a795a01bd8251335b4fae29d972acc0080545f919073ffffffffffffffffffffffffffffffffffffffff166391d14854610949612472565b610dfb612030565b73ffffffffffffffffffffffffffffffffffffffff82163303610e4157610e417f1db3b85900000000000000000000000000000000000000000000000000000000612028565b73ffffffffffffffffffffffffffffffffffffffff82165f908152603e60209081526040808320338452600181019092529091205482811015610ea757610ea77f8d1473a600000000000000000000000000000000000000000000000000000000612028565b335f908152600183016020526040902090839003905580548290039055610ece8282612114565b604051818152339073ffffffffffffffffffffffffffffffffffffffff8416907fb1296e59c4148d97ce0bf24c50bb4bd58367005c1871eef38c03187f3cff850490602001610d63565b610f20611ff1565b60415460ff82161015610f5657610f567ffbf1123c00000000000000000000000000000000000000000000000000000000612028565b603c80547fffffffffffffffffffffffffffffffffffffffffffffffffffffffffffffff001660ff83169081179091556040519081527f8d31d8a650a75f6978e9d7331686f948e5fddeaa4940eddb941d4129459d8bf3906020015b60405180910390a150565b610fc5612030565b73ffffffffffffffffffffffffffffffffffffffff82165f9081526040602081905281205483910361101a5761101a7ff84835a000000000000000000000000000000000000000000000000000000000612028565b73ffffffffffffffffffffffffffffffffffffffff8084165f9081526040602081905290208054600182015460028301546003840154939492939192909116338114611089576110897f5ee4de0e00000000000000000000000000000000000000000000000000000000612028565b838710156110ba576110ba7fad57d95d00000000000000000000000000000000000000000000000000000000612028565b6040517f70a082310000000000000000000000000000000000000000000000000000000081523060048201525f9073ffffffffffffffffffffffffffffffffffffffff8a16906370a0823190602401602060405180830381865afa158015611124573d5f803e3d5ffd5b505050506040513d601f19601f820116820180604052508101906111489190613a65565b90506111548382613a7c565b881115611184576111847fad3a8b9e00000000000000000000000000000000000000000000000000000000612028565b87866002015f8282546111979190613a33565b909155505060408051338152602081018a905290810185905273ffffffffffffffffffffffffffffffffffffffff8a16907f8bf110a87db594cedb42356a9ca4b64a0d26fb09909292e842c614823e41d3379060600160405180910390a250505050505050610d9460017f9b779b17422d0df92223018b32b4d1fa46e071723d6817e2486d003becc55f0055565b5f61122e612030565b823373ffffffffffffffffffffffffffffffffffffffff8216146112a25773ffffffffffffffffffffffffffffffffffffffff8181165f908152603f60205260409020541633146112a2576112a27f7c214f0400000000000000000000000000000000000000000000000000000000612028565b6112ac8484612500565b9150506112d860017f9b779b17422d0df92223018b32b4d1fa46e071723d6817e2486d003becc55f0055565b92915050565b6112e6611ff1565b73ffffffffffffffffffffffffffffffffffffffff811661132a5761132a7fd92e233d00000000000000000000000000000000000000000000000000000000612028565b603c80547fffffffffffffffffffffff0000000000000000000000000000000000000000ff1661010073ffffffffffffffffffffffffffffffffffffffff8416908102919091179091556040517f86719c518c7d99ac94b3d405d462ea876ba5cd0a978461dc9a7c9862a9485886905f90a250565b5f610c1042600654808218908211021890565b6113ba6125a7565b610da86125b0565b6113ca611ff1565b5f5473ffffffffffffffffffffffffffffffffffffffff90811690831603611415576114157f1b81380300000000000000000000000000000000000000000000000000000000612028565b73ffffffffffffffffffffffffffffffffffffffff82165f9081526040602081905290205415611468576114687f2899103f00000000000000000000000000000000000000000000000000000000612028565b61148973ffffffffffffffffffffffffffffffffffffffff83163383612629565b6040805173ffffffffffffffffffffffffffffffffffffffff84168152602081018390527f8c1256b8896378cd5044f80c202f9772b9d77dc85c8a6eb51967210b09bfaa2891015b60405180910390a15050565b6114e5611ff1565b73ffffffffffffffffffffffffffffffffffffffff82165f9081526040602081905281205483910361153a5761153a7ff84835a000000000000000000000000000000000000000000000000000000000612028565b73ffffffffffffffffffffffffffffffffffffffff821661157e5761157e7fd92e233d00000000000000000000000000000000000000000000000000000000612028565b73ffffffffffffffffffffffffffffffffffffffff8381165f81815260406020818152918190206003810180548887167fffffffffffffffffffffffff0000000000000000000000000000000000000000821681179092558351918252909516928501839052939192917fde0b08e9133c988b532b66a2067bcb23214f588d9d4f4e2dd869bc7ddf16ee11910160405180910390a25050505050565b611622612030565b61162a612269565b61163433826122c5565b610c9360017f9b779b17422d0df92223018b32b4d1fa46e071723d6817e2486d003becc55f0055565b335f818152603f602090815260409182902080547fffffffffffffffffffffffff00000000000000000000000000000000000000001673ffffffffffffffffffffffffffffffffffffffff86169081179091558251938452908301527ffd489696792cc4c5d5b226c46f008e459c8ec9b746c49191d74bb92c19fd18679101610fb2565b6116e9612030565b335f908152603e6020908152604080832054600990925282205461170d9190613a7c565b90506117193382612114565b610c683383612500565b61172b612030565b73ffffffffffffffffffffffffffffffffffffffff83165f90815260406020819052812054849103611780576117807ff84835a000000000000000000000000000000000000000000000000000000000612028565b6ec097ce7bc90715b34b9f10000000008211156117c0576117c07f38432c8900000000000000000000000000000000000000000000000000000000612028565b73ffffffffffffffffffffffffffffffffffffffff8085165f908152604060208190529020805460018201546002830154600384015493949293919290911633811461182f5761182f7f5ee4de0e00000000000000000000000000000000000000000000000000000000612028565b83881015611860576118607fad57d95d00000000000000000000000000000000000000000000000000000000612028565b83871015611891576118917f451fa03600000000000000000000000000000000000000000000000000000000612028565b6118b373ffffffffffffffffffffffffffffffffffffffff8a1633308b6126aa565b6118bd8883613a33565b60028601555f8290036118d65760018501879055611912565b8287106118e95760018501879055611912565b6119127f451fa03600000000000000000000000000000000000000000000000000000000612028565b600185015460408051338152602081018b90529081019190915273ffffffffffffffffffffffffffffffffffffffff8a16907f8bf110a87db594cedb42356a9ca4b64a0d26fb09909292e842c614823e41d3379060600160405180910390a25050505050506119a060017f9b779b17422d0df92223018b32b4d1fa46e071723d6817e2486d003becc55f0055565b505050565b6119ad611ff1565b610c93816126f6565b6005545f908082036119ca57505060045490565b5f6008546119d661139f565b0390505f6119e76002548385611e8c565b9050806004546119f79190613a33565b935050505090565b7f4e32a932fdd4658a66f9586d8955a0d0a795a01bd8251335b4fae29d972acc0080545f919073ffffffffffffffffffffffffffffffffffffffff166391d1485461094961275b565b60606041805480602002602001604051908101604052809291908181526020018280548015611aab57602002820191905f5260205f20905b815473ffffffffffffffffffffffffffffffffffffffff168152600190910190602001808311611a80575b5050505050905090565b603c54610100900473ffffffffffffffffffffffffffffffffffffffff163314611b0257611b027f385296d500000000000000000000000000000000000000000000000000000000612028565b611b0b816127e9565b6119a0838383612898565b611b1e6123d2565b73ffffffffffffffffffffffffffffffffffffffff81165f90815260406020819052812054829103611b7357611b737ff84835a000000000000000000000000000000000000000000000000000000000612028565b73ffffffffffffffffffffffffffffffffffffffff82165f90815260406020819052812081815560018101829055600281019190915560030180547fffffffffffffffffffffffff0000000000000000000000000000000000000000169055611bdb8261308d565b60405173ffffffffffffffffffffffffffffffffffffffff8316907f65ff9187746d336179f23ad14746fa804e31bac422ef2dd63b9dc97313caa797905f90a25050565b5f611c286131e0565b805490915060ff68010000000000000000820416159067ffffffffffffffff165f81158015611c545750825b90505f8267ffffffffffffffff166001148015611c705750303b155b905081158015611c7e575080155b15611cb5576040517ff92ee8a900000000000000000000000000000000000000000000000000000000815260040160405180910390fd5b84547fffffffffffffffffffffffffffffffffffffffffffffffff00000000000000001660011785558315611d165784547fffffffffffffffffffffffffffffffffffffffffffffff00ffffffffffffffff16680100000000000000001785555b611d1f33613208565b611d27613272565b611d2f61327a565b611d3d86896203f48061328a565b603c805473ffffffffffffffffffffffffffffffffffffffff808a1661010081027fffffffffffffffffffffff00000000000000000000000000000000000000000090931692909217600317909255603d8054928c167fffffffffffffffffffffffff0000000000000000000000000000000000000000909316929092179091556040517f86719c518c7d99ac94b3d405d462ea876ba5cd0a978461dc9a7c9862a9485886905f90a2603c5460405160ff90911681527f8d31d8a650a75f6978e9d7331686f948e5fddeaa4940eddb941d4129459d8bf39060200160405180910390a18315611e815784547fffffffffffffffffffffffffffffffffffffffffffffff00ffffffffffffffff168555604051600181527fc7f505b2f371ae2175ee4913f4499e1f2633a7b5936321eed1cdaeb6115181d29060200160405180910390a15b505050505050505050565b82820281838583041485151702611f32577fffffffffffffffffffffffffffffffffffffffffffffffffffffffffffffffff8385098181108201900382848609835f038416828511611ee55763ae47f7025f526004601cfd5b93849004938382119092035f8390038390046001010292030417600260038302811880840282030280840282030280840282030280840282030280840282030280840290910302026109db565b0492915050565b7f4e32a932fdd4658a66f9586d8955a0d0a795a01bd8251335b4fae29d972acc008054604080517fc209bca200000000000000000000000000000000000000000000000000000000815290515f939273ffffffffffffffffffffffffffffffffffffffff169163c209bca29160048083019260209291908290030181865afa158015611fc7573d5f803e3d5ffd5b505050506040513d601f19601f82011682018060405250810190611feb9190613a65565b91505090565b611ffa33610daa565b610da857610da87f118cdaa700000000000000000000000000000000000000000000000000000000336132eb565b805f5260045ffd5b7f9b779b17422d0df92223018b32b4d1fa46e071723d6817e2486d003becc55f0080547ffffffffffffffffffffffffffffffffffffffffffffffffffffffffffffffffe016120ab576040517f3ee5aeb500000000000000000000000000000000000000000000000000000000815260040160405180910390fd5b60029055565b73ffffffffffffffffffffffffffffffffffffffff82165f908152603e602090815260408083205460099092529091205403818110156119a0576119a07f08e88f4600000000000000000000000000000000000000000000000000000000612028565b805f03612144576121447fa393d14b00000000000000000000000000000000000000000000000000000000612028565b61214d826132f7565b73ffffffffffffffffffffffffffffffffffffffff82165f9081526009602052604090208054828110156121a4576121a47ff1bc94d200000000000000000000000000000000000000000000000000000000612028565b829003905560058054828103909155811480156121c2575060065442105b156121e5576121cf61336a565b60035f8282546121df9190613a33565b90915550505b6121ef3382613381565b8173ffffffffffffffffffffffffffffffffffffffff167f7084f5476618d8e60b11ef0d7d3f06914655adb8793e28ff7f018d4c76d505d58260405161223791815260200190565b60405180910390a25050565b60017f9b779b17422d0df92223018b32b4d1fa46e071723d6817e2486d003becc55f0055565b7fcd5ed15c6e187e77e9aee88184c21f4f2182ab5827cb3b7e07fbedcd63f033005460ff1615610da8576040517fd93c066500000000000000000000000000000000000000000000000000000000815260040160405180910390fd5b805f036122f5576122f57f5ce91fd000000000000000000000000000000000000000000000000000000000612028565b60055415801561230657505f600354115b15612313576123136133a4565b61231c826132f7565b600554818101818111612352576123527fe5cfe95700000000000000000000000000000000000000000000000000000000612028565b6005555073ffffffffffffffffffffffffffffffffffffffff82165f90815260096020526040902080548201905561238a33826133ee565b8173ffffffffffffffffffffffffffffffffffffffff167f9e71bc8eea02a63969f509818f2dafb9254532904319f9dbda79b67bd34a5f3d8260405161223791815260200190565b611ffa336119ff565b6123e3613412565b7fcd5ed15c6e187e77e9aee88184c21f4f2182ab5827cb3b7e07fbedcd63f0330080547fffffffffffffffffffffffffffffffffffffffffffffffffffffffffffffff001681557f5db9ee0a495bf2e6ff9c91a7834c1ba4fdd244a5e8aa4e537bd38aeae4b073aa335b60405173ffffffffffffffffffffffffffffffffffffffff9091168152602001610fb2565b7f4e32a932fdd4658a66f9586d8955a0d0a795a01bd8251335b4fae29d972acc008054604080517fa217fddf00000000000000000000000000000000000000000000000000000000815290515f939273ffffffffffffffffffffffffffffffffffffffff169163a217fddf9160048083019260209291908290030181865afa158015611fc7573d5f803e3d5ffd5b5f8261250b816132f7565b73ffffffffffffffffffffffffffffffffffffffff84165f9081526009602052604090206001810154801561259e575f600183015561254a858261346d565b6040805173ffffffffffffffffffffffffffffffffffffffff8781168252602082018490528816917f540798df468d7b23d11f156fdb954cb19ad414d150722a7b6d55ba369dea792e910160405180910390a25b95945050505050565b611ffa33610900565b6125b8612269565b7fcd5ed15c6e187e77e9aee88184c21f4f2182ab5827cb3b7e07fbedcd63f0330080547fffffffffffffffffffffffffffffffffffffffffffffffffffffffffffffff001660011781557f62e78cea01bee320cd4e420270b5ea74000d11b0c9f74754ebdbfc544b05a2583361244d565b60405173ffffffffffffffffffffffffffffffffffffffff8381166024830152604482018390526119a091859182169063a9059cbb906064015b604051602081830303815290604052915060e01b6020820180517bffffffffffffffffffffffffffffffffffffffffffffffffffffffff838183161783525050505061349e565b60405173ffffffffffffffffffffffffffffffffffffffff84811660248301528381166044830152606482018390526126f09186918216906323b872dd90608401612663565b50505050565b805f03612726576127267f359f174d00000000000000000000000000000000000000000000000000000000612028565b60078190556040518181527ffb46ca5a5e06d4540d6387b930a7c978bce0db5f449ec6b3f5d07c6e1d44f2d390602001610fb2565b7f4e32a932fdd4658a66f9586d8955a0d0a795a01bd8251335b4fae29d972acc008054604080517f5e5a24a400000000000000000000000000000000000000000000000000000000815290515f939273ffffffffffffffffffffffffffffffffffffffff1691635e5a24a49160048083019260209291908290030181865afa158015611fc7573d5f803e3d5ffd5b5f6127f3816132f7565b612805670de0b6b3a764000083613a8f565b91506005545f1415801561281a575060065442105b156128345761282761336a565b6128319083613a33565b91505b8160035f8282546128459190613a33565b909155506128539050613541565b60055415612868576128636133a4565b426008555b6040518281527fde88a922e0d3b88b24e9623efeb464919c6bf9f66857a65e2bfcf2ce87a9433d906020016114d1565b603d546040517f9eaffa960000000000000000000000000000000000000000000000000000000081525f9173ffffffffffffffffffffffffffffffffffffffff1690639eaffa96906128f09087908790600401613aed565b602060405180830381865afa15801561290b573d5f803e3d5ffd5b505050506040513d601f19601f8201168201806040525081019061292f9190613b08565b90505f603c60019054906101000a900473ffffffffffffffffffffffffffffffffffffffff1673ffffffffffffffffffffffffffffffffffffffff166357c609516040518163ffffffff1660e01b8152600401602060405180830381865afa15801561299d573d5f803e3d5ffd5b505050506040513d601f19601f820116820180604052508101906129c19190613b08565b90505f6129cc61362a565b6041549091505f5b81811015613083575f604182815481106129f0576129f0613b23565b5f91825260208083209091015473ffffffffffffffffffffffffffffffffffffffff1680835260409182905290822060018101549193509190612a3d908a90670de0b6b3a76400006136dc565b600283015490915080821182821802821891505f8215612adb578873ffffffffffffffffffffffffffffffffffffffff16633909cbd58e8e866040518463ffffffff1660e01b8152600401612a9493929190613b50565b602060405180830381865afa158015612aaf573d5f803e3d5ffd5b505050506040513d601f19601f82011682018060405250810190612ad39190613a65565b905080830392505b8015612be6575f612b0373ffffffffffffffffffffffffffffffffffffffff87168c846136fa565b90508015612b7c5781830392508573ffffffffffffffffffffffffffffffffffffffff168e8e604051612b37929190613b73565b604080519182900382208f835260208301869052917f5468188b6036c5311a3f18fc548c42ccb48a0cdcb9d339e0b2ba38aed4fae36d910160405180910390a3612be4565b8573ffffffffffffffffffffffffffffffffffffffff168e8e604051612ba3929190613b73565b604080519182900382208f835260208301869052917f9fec1510965fae0a926a8da7b5b8e957ae07d25d78381996f031cecc116ed99d910160405180910390a35b505b821561306f5760405173ffffffffffffffffffffffffffffffffffffffff89166024820152604481018490525f90606401604080517fffffffffffffffffffffffffffffffffffffffffffffffffffffffffffffffe08184030181529181526020820180517bffffffffffffffffffffffffffffffffffffffffffffffffffffffff167f095ea7b300000000000000000000000000000000000000000000000000000000179052519091505f9073ffffffffffffffffffffffffffffffffffffffff8816906207a12090612cbb908590613b82565b5f604051808303815f8787f1925050503d805f8114612cf5576040519150601f19603f3d011682016040523d82523d5f602084013e612cfa565b606091505b505090508015612ffa578e8e8887604051602401612d1b9493929190613b98565b604080517fffffffffffffffffffffffffffffffffffffffffffffffffffffffffffffffe08184030181529181526020820180517bffffffffffffffffffffffffffffffffffffffffffffffffffffffff167fe6f4626f000000000000000000000000000000000000000000000000000000001790525190925073ffffffffffffffffffffffffffffffffffffffff8b16906207a12090612dbd908590613b82565b5f604051808303815f8787f1925050503d805f8114612df7576040519150601f19603f3d011682016040523d82523d5f602084013e612dfc565b606091505b50909150508015612e825784840393508673ffffffffffffffffffffffffffffffffffffffff168f8f604051612e33929190613b73565b60405180910390207f447452569a869245fac1955d7c6c762fbd3b4ad4c1695b1b0f1cc5985958a2718f88604051612e75929190918252602082015260400190565b60405180910390a361306c565b60405173ffffffffffffffffffffffffffffffffffffffff8b1660248201525f6044820152606401604080517fffffffffffffffffffffffffffffffffffffffffffffffffffffffffffffffe08184030181529181526020820180517bffffffffffffffffffffffffffffffffffffffffffffffffffffffff167f095ea7b3000000000000000000000000000000000000000000000000000000001790525190925073ffffffffffffffffffffffffffffffffffffffff8816906207a12090612f4c908590613b82565b5f604051808303815f8787f1925050503d805f8114612f86576040519150601f19603f3d011682016040523d82523d5f602084013e612f8b565b606091505b5050809150508673ffffffffffffffffffffffffffffffffffffffff168f8f604051612fb8929190613b73565b60405180910390207fbf3ad91545f13a6d49740541527d53e26f9af2968e6037bc8e048203e5083ab68f88604051612e75929190918252602082015260400190565b8673ffffffffffffffffffffffffffffffffffffffff168f8f604051613021929190613b73565b60405180910390207fbf3ad91545f13a6d49740541527d53e26f9af2968e6037bc8e048203e5083ab68f88604051613063929190918252602082015260400190565b60405180910390a35b50505b5060029092019190915550506001016129d4565b5050505050505050565b6041545f5b818110156119a057604181815481106130ad576130ad613b23565b5f9182526020909120015473ffffffffffffffffffffffffffffffffffffffff908116908416036131d857604160018303815481106130ee576130ee613b23565b5f918252602090912001546041805473ffffffffffffffffffffffffffffffffffffffff909216918390811061312657613126613b23565b905f5260205f20015f6101000a81548173ffffffffffffffffffffffffffffffffffffffff021916908373ffffffffffffffffffffffffffffffffffffffff160217905550604180548061317c5761317c613bd4565b5f8281526020902081017fffffffffffffffffffffffffffffffffffffffffffffffffffffffffffffffff90810180547fffffffffffffffffffffffff0000000000000000000000000000000000000000169055019055505050565b600101613092565b5f807ff0c57e16840df040f15088dc2f81fe391c3923bec73e23a9662efc9c229c6a006112d8565b61321061373a565b7f4e32a932fdd4658a66f9586d8955a0d0a795a01bd8251335b4fae29d972acc0080547fffffffffffffffffffffffff00000000000000000000000000000000000000001673ffffffffffffffffffffffffffffffffffffffff831617905550565b610da861373a565b61328261373a565b610da8613778565b61329261373a565b5f805473ffffffffffffffffffffffffffffffffffffffff9485167fffffffffffffffffffffffff0000000000000000000000000000000000000000918216179091556001805493909416921691909117909155600755565b815f528060045260245ffd5b5f6133006119b6565b6004819055905061330f61139f565b60085573ffffffffffffffffffffffffffffffffffffffff821615610d945773ffffffffffffffffffffffffffffffffffffffff82165f90815260096020526040902061335b8361089b565b60028201929092556001015550565b5f804260065403905080600254611feb9190613a8f565b5f54610d949073ffffffffffffffffffffffffffffffffffffffff168383612629565b6007546003545f906133b7908390613c01565b600281905590506133c88242613a33565b6006556133d58282613a8f565b60035f8282546133e59190613a7c565b90915550505050565b5f54610d949073ffffffffffffffffffffffffffffffffffffffff168330846126aa565b7fcd5ed15c6e187e77e9aee88184c21f4f2182ab5827cb3b7e07fbedcd63f033005460ff16610da8576040517f8dfc202b00000000000000000000000000000000000000000000000000000000815260040160405180910390fd5b603c54600154610d949173ffffffffffffffffffffffffffffffffffffffff918216916101009091041684846126aa565b5f8060205f8451602086015f885af1806134bd576040513d5f823e3d81fd5b50505f513d915081156134d45780600114156134ee565b73ffffffffffffffffffffffffffffffffffffffff84163b155b156126f0576040517f5274afe700000000000000000000000000000000000000000000000000000000815273ffffffffffffffffffffffffffffffffffffffff8516600482015260240160405180910390fd5b600154603c546040517fdd62ed3e00000000000000000000000000000000000000000000000000000000815261010090910473ffffffffffffffffffffffffffffffffffffffff90811660048301523060248301525f92169063dd62ed3e90604401602060405180830381865afa1580156135be573d5f803e3d5ffd5b505050506040513d601f19601f820116820180604052508101906135e29190613a65565b905080670de0b6b3a76400006003546135fb9190613c01565b1115610c9357610c937ff4ba521f00000000000000000000000000000000000000000000000000000000612028565b7f4e32a932fdd4658a66f9586d8955a0d0a795a01bd8251335b4fae29d972acc008054604080517f6cb9f23000000000000000000000000000000000000000000000000000000000815290515f939273ffffffffffffffffffffffffffffffffffffffff1691636cb9f2309160048083019260209291908290030181865afa1580156136b8573d5f803e3d5ffd5b505050506040513d601f19601f82011682018060405250810190611feb9190613b08565b82820283158482048414178202611f325763ad251c275f526004601cfd5b5f82601452816034526fa9059cbb0000000000000000000000005f5260205f604460105f886207a120f13d1560015f5114171690505f6034529392505050565b613742613780565b610da8576040517fd7e6bcf800000000000000000000000000000000000000000000000000000000815260040160405180910390fd5b61224361373a565b5f6137896131e0565b5468010000000000000000900460ff16919050565b73ffffffffffffffffffffffffffffffffffffffff81168114610c93575f80fd5b5f602082840312156137cf575f80fd5b81356109db8161379e565b5f805f606084860312156137ec575f80fd5b83356137f78161379e565b925060208401359150604084013561380e8161379e565b809150509250925092565b5f60208284031215613829575f80fd5b5035919050565b5f8060408385031215613841575f80fd5b823561384c8161379e565b946020939093013593505050565b5f6020828403121561386a575f80fd5b813560ff811681146109db575f80fd5b5f806040838503121561388b575f80fd5b82356138968161379e565b915060208301356138a68161379e565b809150509250929050565b5f805f606084860312156138c3575f80fd5b83356138ce8161379e565b95602085013595506040909401359392505050565b602080825282518282018190525f918401906040840190835b8181101561393057835173ffffffffffffffffffffffffffffffffffffffff168352602093840193909201916001016138fc565b509095945050505050565b5f805f6040848603121561394d575f80fd5b833567ffffffffffffffff811115613963575f80fd5b8401601f81018613613973575f80fd5b803567ffffffffffffffff811115613989575f80fd5b86602082840101111561399a575f80fd5b6020918201979096509401359392505050565b5f805f80608085870312156139c0575f80fd5b84356139cb8161379e565b935060208501356139db8161379e565b925060408501356139eb8161379e565b915060608501356139fb8161379e565b939692955090935050565b7f4e487b71000000000000000000000000000000000000000000000000000000005f52601160045260245ffd5b808201808211156112d8576112d8613a06565b5f60208284031215613a56575f80fd5b815180151581146109db575f80fd5b5f60208284031215613a75575f80fd5b5051919050565b818103818111156112d8576112d8613a06565b80820281158282048414176112d8576112d8613a06565b81835281816020850137505f602082840101525f60207fffffffffffffffffffffffffffffffffffffffffffffffffffffffffffffffe0601f840116840101905092915050565b602081525f613b00602083018486613aa6565b949350505050565b5f60208284031215613b18575f80fd5b81516109db8161379e565b7f4e487b71000000000000000000000000000000000000000000000000000000005f52603260045260245ffd5b604081525f613b63604083018587613aa6565b9050826020830152949350505050565b818382375f9101908152919050565b5f82518060208501845e5f920191825250919050565b606081525f613bab606083018688613aa6565b73ffffffffffffffffffffffffffffffffffffffff949094166020830152506040015292915050565b7f4e487b71000000000000000000000000000000000000000000000000000000005f52603160045260245ffd5b5f82613c34577f4e487b71000000000000000000000000000000000000000000000000000000005f52601260045260245ffd5b50049056fea164736f6c634300081a000a60a060405230608052348015610013575f80fd5b5061001c610021565b6100d3565b7ff0c57e16840df040f15088dc2f81fe391c3923bec73e23a9662efc9c229c6a00805468010000000000000000900460ff16156100715760405163f92ee8a960e01b815260040160405180910390fd5b80546001600160401b03908116146100d05780546001600160401b0319166001600160401b0390811782556040519081527fc7f505b2f371ae2175ee4913f4499e1f2633a7b5936321eed1cdaeb6115181d29060200160405180910390a15b50565b608051611f0e6100f95f395f818161109b015281816110c401526112e70152611f0e5ff3fe608060405260043610610183575f3560e01c80635b3b9a18116100d1578063a217fddf1161007c578063c209bca211610057578063c209bca21461054c578063d547741f1461057f578063eafe0f4c1461059e575f80fd5b8063a217fddf146104b8578063ad3cb1cc146104cb578063bfe1092814610520575f80fd5b80639094a91e116100ac5780639094a91e146103fd57806391d148541461041c5780639a6c31c41461048c575f80fd5b80635b3b9a181461037f5780635e5a24a41461039e5780636cb9f230146103d1575f80fd5b806336568abe1161013157806352d1902d1161010c57806352d1902d14610321578063577ee5c71461033557806359659e9014610354575f80fd5b806336568abe146102db5780634cd18577146102fa5780634f1ef2861461030e575f80fd5b8063248a9ca311610161578063248a9ca3146102425780632f2ff15d1461029d578063349de329146102bc575f80fd5b806301ffc9a7146101875780630eb9af38146101bb5780631459457a14610221575b5f80fd5b348015610192575f80fd5b506101a66101a13660046118b5565b6105ca565b60405190151581526020015b60405180910390f35b3480156101c6575f80fd5b506101fc6101d536600461191c565b60046020525f908152604090205473ffffffffffffffffffffffffffffffffffffffff1681565b60405173ffffffffffffffffffffffffffffffffffffffff90911681526020016101b2565b34801561022c575f80fd5b5061024061023b366004611935565b610662565b005b34801561024d575f80fd5b5061028f61025c366004611996565b5f9081527f02dd7bc7dec4dceedda775e58dd541e08a116c6c53815c0bd028192f7b626800602052604090206001015490565b6040519081526020016101b2565b3480156102a8575f80fd5b506102406102b73660046119ad565b61091f565b3480156102c7575f80fd5b506102406102d636600461191c565b610968565b3480156102e6575f80fd5b506102406102f53660046119ad565b610a45565b348015610305575f80fd5b5060055461028f565b61024061031c366004611a04565b610aa3565b34801561032c575f80fd5b5061028f610ac2565b348015610340575f80fd5b506101fc61034f36600461191c565b610af0565b34801561035f575f80fd5b505f546101fc9073ffffffffffffffffffffffffffffffffffffffff1681565b34801561038a575f80fd5b506101fc61039936600461191c565b610cf7565b3480156103a9575f80fd5b5061028f7fd1473398bb66596de5d1ea1fc8e303ff2ac23265adc9144b1b52065dc4f0934b81565b3480156103dc575f80fd5b506006546101fc9073ffffffffffffffffffffffffffffffffffffffff1681565b348015610408575f80fd5b506101fc610417366004611996565b610d29565b348015610427575f80fd5b506101a66104363660046119ad565b5f9182527f02dd7bc7dec4dceedda775e58dd541e08a116c6c53815c0bd028192f7b6268006020908152604080842073ffffffffffffffffffffffffffffffffffffffff93909316845291905290205460ff1690565b348015610497575f80fd5b506001546101fc9073ffffffffffffffffffffffffffffffffffffffff1681565b3480156104c3575f80fd5b5061028f5f81565b3480156104d6575f80fd5b506105136040518060400160405280600581526020017f352e302e3000000000000000000000000000000000000000000000000000000081525081565b6040516101b29190611b05565b34801561052b575f80fd5b506002546101fc9073ffffffffffffffffffffffffffffffffffffffff1681565b348015610557575f80fd5b5061028f7f0b265ba7b18bf719914a9314c2cc6df88826c97fd1060e2bce9f59cf47fe4ba181565b34801561058a575f80fd5b506102406105993660046119ad565b610d5e565b3480156105a9575f80fd5b506003546101fc9073ffffffffffffffffffffffffffffffffffffffff1681565b5f7fffffffff0000000000000000000000000000000000000000000000000000000082167f7965db0b00000000000000000000000000000000000000000000000000000000148061065c57507f01ffc9a7000000000000000000000000000000000000000000000000000000007fffffffff000000000000000000000000000000000000000000000000000000008316145b92915050565b5f61066b610da1565b805490915060ff68010000000000000000820416159067ffffffffffffffff165f811580156106975750825b90505f8267ffffffffffffffff1660011480156106b35750303b155b9050811580156106c1575080155b156106f8576040517ff92ee8a900000000000000000000000000000000000000000000000000000000815260040160405180910390fd5b84547fffffffffffffffffffffffffffffffffffffffffffffffff000000000000000016600117855583156107595784547fffffffffffffffffffffffffffffffffffffffffffffff00ffffffffffffffff16680100000000000000001785555b610761610dc9565b610769610dc9565b6107735f88610dd3565b506107be7f0b265ba7b18bf719914a9314c2cc6df88826c97fd1060e2bce9f59cf47fe4ba17fd1473398bb66596de5d1ea1fc8e303ff2ac23265adc9144b1b52065dc4f0934b610ef1565b6001805473ffffffffffffffffffffffffffffffffffffffff808d167fffffffffffffffffffffffff000000000000000000000000000000000000000092831617909255600280548c841690831617905560038054928b169290911691909117905560405187908790610830906118a8565b73ffffffffffffffffffffffffffffffffffffffff928316815291166020820152604001604051809103905ff08015801561086d573d5f803e3d5ffd5b505f80547fffffffffffffffffffffffff00000000000000000000000000000000000000001673ffffffffffffffffffffffffffffffffffffffff9290921691909117905583156109135784547fffffffffffffffffffffffffffffffffffffffffffffff00ffffffffffffffff168555604051600181527fc7f505b2f371ae2175ee4913f4499e1f2633a7b5936321eed1cdaeb6115181d29060200160405180910390a15b50505050505050505050565b5f8281527f02dd7bc7dec4dceedda775e58dd541e08a116c6c53815c0bd028192f7b626800602052604090206001015461095881610f92565b6109628383610dd3565b50505050565b5f61097281610f92565b73ffffffffffffffffffffffffffffffffffffffff82166109b6576109b67fd92e233d00000000000000000000000000000000000000000000000000000000610f9f565b60065460405173ffffffffffffffffffffffffffffffffffffffff918216918416907f38bffcf8509d63333ad84013d433268a1d044bf5f68fdc7ffea76c73b737eda0905f90a350600680547fffffffffffffffffffffffff00000000000000000000000000000000000000001673ffffffffffffffffffffffffffffffffffffffff92909216919091179055565b73ffffffffffffffffffffffffffffffffffffffff81163314610a94576040517f6697b23200000000000000000000000000000000000000000000000000000000815260040160405180910390fd5b610a9e8282610fa7565b505050565b610aab611083565b610ab482611187565b610abe8282611191565b5050565b5f610acb6112cf565b507f360894a13ba1a3210667c828492db98dca3e2076cc3735a920a3ca505d382bbc90565b73ffffffffffffffffffffffffffffffffffffffff8082165f908152600460205260408120549091168015610b255792915050565b8273ffffffffffffffffffffffffffffffffffffffff163b5f03610b6c57610b6c7f09ee12d500000000000000000000000000000000000000000000000000000000610f9f565b5f838152602081208154909190610b999073ffffffffffffffffffffffffffffffffffffffff168361133e565b73ffffffffffffffffffffffffffffffffffffffff8087165f8181526004602052604080822080549486167fffffffffffffffffffffffff00000000000000000000000000000000000000009586168117909155600580546001810182559084527f036b6384b5eca791c62761152d0c79bb0604c104a5fb6f4eb0703f3154bb3db0018054909516811790945551939450919290917f5d9c31ffa0fecffd7cf379989a3c7af252f0335e0d2a1320b55245912c781f5391a36003546001546002546040517ff8c8765e00000000000000000000000000000000000000000000000000000000815273ffffffffffffffffffffffffffffffffffffffff938416600482015291831660248301528216604482015286821660648201529082169063f8c8765e906084015f604051808303815f87803b158015610cd8575f80fd5b505af1158015610cea573d5f803e3d5ffd5b5092979650505050505050565b5f818152602081208154610d229073ffffffffffffffffffffffffffffffffffffffff16823061134a565b9392505050565b60058181548110610d38575f80fd5b5f9182526020909120015473ffffffffffffffffffffffffffffffffffffffff16905081565b5f8281527f02dd7bc7dec4dceedda775e58dd541e08a116c6c53815c0bd028192f7b6268006020526040902060010154610d9781610f92565b6109628383610fa7565b5f807ff0c57e16840df040f15088dc2f81fe391c3923bec73e23a9662efc9c229c6a0061065c565b610dd161140d565b565b5f8281527f02dd7bc7dec4dceedda775e58dd541e08a116c6c53815c0bd028192f7b6268006020818152604080842073ffffffffffffffffffffffffffffffffffffffff8616855290915282205460ff16610ee8575f8481526020828152604080832073ffffffffffffffffffffffffffffffffffffffff87168452909152902080547fffffffffffffffffffffffffffffffffffffffffffffffffffffffffffffff00166001179055610e843390565b73ffffffffffffffffffffffffffffffffffffffff168373ffffffffffffffffffffffffffffffffffffffff16857f2f8788117e7eff1d82e926ec794901d17c78024a50270940304540a733656f0d60405160405180910390a4600191505061065c565b5f91505061065c565b7f02dd7bc7dec4dceedda775e58dd541e08a116c6c53815c0bd028192f7b6268005f610f4a845f9081527f02dd7bc7dec4dceedda775e58dd541e08a116c6c53815c0bd028192f7b626800602052604090206001015490565b5f85815260208490526040808220600101869055519192508491839187917fbd79b86ffe0ab8e8776151514217cd7cacd52c909f66475c3af44e129f0b00ff9190a450505050565b610f9c813361144b565b50565b805f5260045ffd5b5f8281527f02dd7bc7dec4dceedda775e58dd541e08a116c6c53815c0bd028192f7b6268006020818152604080842073ffffffffffffffffffffffffffffffffffffffff8616855290915282205460ff1615610ee8575f8481526020828152604080832073ffffffffffffffffffffffffffffffffffffffff8716808552925280832080547fffffffffffffffffffffffffffffffffffffffffffffffffffffffffffffff0016905551339287917ff6391f5c32d9c69d2a47ea670b442974b53935d1edc7fd64eb21e047a839171b9190a4600191505061065c565b3073ffffffffffffffffffffffffffffffffffffffff7f000000000000000000000000000000000000000000000000000000000000000016148061115057507f000000000000000000000000000000000000000000000000000000000000000073ffffffffffffffffffffffffffffffffffffffff166111377f360894a13ba1a3210667c828492db98dca3e2076cc3735a920a3ca505d382bbc5473ffffffffffffffffffffffffffffffffffffffff1690565b73ffffffffffffffffffffffffffffffffffffffff1614155b15610dd1576040517fe07c8dba00000000000000000000000000000000000000000000000000000000815260040160405180910390fd5b5f610abe81610f92565b8173ffffffffffffffffffffffffffffffffffffffff166352d1902d6040518163ffffffff1660e01b8152600401602060405180830381865afa925050508015611216575060408051601f3d9081017fffffffffffffffffffffffffffffffffffffffffffffffffffffffffffffffe016820190925261121391810190611b58565b60015b611269576040517f4c9c8ce300000000000000000000000000000000000000000000000000000000815273ffffffffffffffffffffffffffffffffffffffff831660048201526024015b60405180910390fd5b7f360894a13ba1a3210667c828492db98dca3e2076cc3735a920a3ca505d382bbc81146112c5576040517faa1d49a400000000000000000000000000000000000000000000000000000000815260048101829052602401611260565b610a9e83836114f1565b3073ffffffffffffffffffffffffffffffffffffffff7f00000000000000000000000000000000000000000000000000000000000000001614610dd1576040517fe07c8dba00000000000000000000000000000000000000000000000000000000815260040160405180910390fd5b5f610d225f8484611553565b604080517fb3582b35133d50545afa5036515af43d6000803e604d573d6000fd5b3d6000f360609081527f1b60e01b36527fa3f0ad74e5423aebfd80d3ef4346578335a9a72aeaee59ff6c83527660195155f3363d3d373d3d363d602036600436635c60da60205273ffffffffffffffffffffffffffffffffffffffff86167c60523d8160223d39730000000000000000000000000000000000000000176009526074600c20919092525f9182905261140481858561161e565b95945050505050565b61141561163d565b610dd1576040517fd7e6bcf800000000000000000000000000000000000000000000000000000000815260040160405180910390fd5b5f8281527f02dd7bc7dec4dceedda775e58dd541e08a116c6c53815c0bd028192f7b6268006020908152604080832073ffffffffffffffffffffffffffffffffffffffff8516845290915290205460ff16610abe576040517fe2517d3f00000000000000000000000000000000000000000000000000000000815273ffffffffffffffffffffffffffffffffffffffff8216600482015260248101839052604401611260565b6114fa8261165b565b60405173ffffffffffffffffffffffffffffffffffffffff8316907fbc7cd75a20ee27fd9adebab32041f755214dbc6bffa90cc0225b39da2e5c2d3b905f90a280511561154b57610a9e8282611729565b610abe61179f565b604080517fb3582b35133d50545afa5036515af43d6000803e604d573d6000fd5b3d6000f36060527f1b60e01b36527fa3f0ad74e5423aebfd80d3ef4346578335a9a72aeaee59ff6c9091527660195155f3363d3d373d3d363d602036600436635c60da6020527c60523d8160223d3973000000000000000000000000000000000000000073ffffffffffffffffffffffffffffffffffffffff8416176009525f90826074600c87f59150816116105763301164255f526004601cfd5b6040525f6060529392505050565b5f60ff5f5350603592835260601b60015260155260555f908120915290565b5f611646610da1565b5468010000000000000000900460ff16919050565b8073ffffffffffffffffffffffffffffffffffffffff163b5f036116c3576040517f4c9c8ce300000000000000000000000000000000000000000000000000000000815273ffffffffffffffffffffffffffffffffffffffff82166004820152602401611260565b7f360894a13ba1a3210667c828492db98dca3e2076cc3735a920a3ca505d382bbc80547fffffffffffffffffffffffff00000000000000000000000000000000000000001673ffffffffffffffffffffffffffffffffffffffff92909216919091179055565b60605f808473ffffffffffffffffffffffffffffffffffffffff16846040516117529190611b6f565b5f60405180830381855af49150503d805f811461178a576040519150601f19603f3d011682016040523d82523d5f602084013e61178f565b606091505b50915091506114048583836117d7565b3415610dd1576040517fb398979f00000000000000000000000000000000000000000000000000000000815260040160405180910390fd5b6060826117ec576117e782611866565b610d22565b8151158015611810575073ffffffffffffffffffffffffffffffffffffffff84163b155b1561185f576040517f9996b31500000000000000000000000000000000000000000000000000000000815273ffffffffffffffffffffffffffffffffffffffff85166004820152602401611260565b5092915050565b8051156118765780518082602001fd5b6040517fd6bda27500000000000000000000000000000000000000000000000000000000815260040160405180910390fd5b61037c80611b8683390190565b5f602082840312156118c5575f80fd5b81357fffffffff0000000000000000000000000000000000000000000000000000000081168114610d22575f80fd5b803573ffffffffffffffffffffffffffffffffffffffff81168114611917575f80fd5b919050565b5f6020828403121561192c575f80fd5b610d22826118f4565b5f805f805f60a08688031215611949575f80fd5b611952866118f4565b9450611960602087016118f4565b935061196e604087016118f4565b925061197c606087016118f4565b915061198a608087016118f4565b90509295509295909350565b5f602082840312156119a6575f80fd5b5035919050565b5f80604083850312156119be575f80fd5b823591506119ce602084016118f4565b90509250929050565b7f4e487b71000000000000000000000000000000000000000000000000000000005f52604160045260245ffd5b5f8060408385031215611a15575f80fd5b611a1e836118f4565b9150602083013567ffffffffffffffff811115611a39575f80fd5b8301601f81018513611a49575f80fd5b803567ffffffffffffffff811115611a6357611a636119d7565b6040517fffffffffffffffffffffffffffffffffffffffffffffffffffffffffffffffe0603f7fffffffffffffffffffffffffffffffffffffffffffffffffffffffffffffffe0601f8501160116810181811067ffffffffffffffff82111715611acf57611acf6119d7565b604052818152828201602001871015611ae6575f80fd5b816020840160208301375f602083830101528093505050509250929050565b602081525f82518060208401528060208501604085015e5f6040828501015260407fffffffffffffffffffffffffffffffffffffffffffffffffffffffffffffffe0601f83011684010191505092915050565b5f60208284031215611b68575f80fd5b5051919050565b5f82518060208501845e5f92019182525091905056fe608060405260405161037c38038061037c83398101604081905261002291610108565b61002c8282610033565b5050610139565b61003d8282610041565b5050565b61004a82610053565b61003d8161009d565b8060601b60601c9050684343a0dc92ed22dbfc5481684343a0dc92ed22dbfc5581817f8be0079c531659141344cd1fd0a4f28419497f9722a3daafe3b4186f6b6457e05f38a35050565b6001600160a01b0316803b6100b957636d3e283b5f526004601cfd5b8068911c5a209f08d5ec5e55807fbc7cd75a20ee27fd9adebab32041f755214dbc6bffa90cc0225b39da2e5c2d3b5f38a250565b80516001600160a01b0381168114610103575f80fd5b919050565b5f8060408385031215610119575f80fd5b610122836100ed565b9150610130602084016100ed565b90509250929050565b610236806101465f395ff3fe608060405234801561000f575f80fd5b5060043610610064575f3560e01c8063715018a61161004d578063715018a6146100b25780638da5cb5b146100ba578063f2fde38b146100ca575f80fd5b80633659cfe6146100685780635c60da1b1461007d575b5f80fd5b61007b6100763660046101ef565b6100dd565b005b68911c5a209f08d5ec5e545b60405173ffffffffffffffffffffffffffffffffffffffff909116815260200160405180910390f35b61007b6100f1565b684343a0dc92ed22dbfc54610089565b61007b6100d83660046101ef565b610104565b6100e561012a565b6100ee81610148565b50565b6100f961012a565b6101025f6101a5565b565b61010c61012a565b8060601b61012157637448fbae5f526004601cfd5b6100ee816101a5565b684343a0dc92ed22dbfc543314610102576382b429005f526004601cfd5b73ffffffffffffffffffffffffffffffffffffffff16803b61017157636d3e283b5f526004601cfd5b8068911c5a209f08d5ec5e55807fbc7cd75a20ee27fd9adebab32041f755214dbc6bffa90cc0225b39da2e5c2d3b5f38a250565b8060601b60601c9050684343a0dc92ed22dbfc5481684343a0dc92ed22dbfc5581817f8be0079c531659141344cd1fd0a4f28419497f9722a3daafe3b4186f6b6457e05f38a35050565b5f602082840312156101ff575f80fd5b813573ffffffffffffffffffffffffffffffffffffffff81168114610222575f80fd5b939250505056fea164736f6c634300081a000aa164736f6c634300081a000a60806040526040516103b43803806103b48339810160408190526100229161023c565b61002c8282610033565b5050610321565b61003c82610091565b6040516001600160a01b038316907fbc7cd75a20ee27fd9adebab32041f755214dbc6bffa90cc0225b39da2e5c2d3b905f90a280511561008557610080828261010c565b505050565b61008d61017f565b5050565b806001600160a01b03163b5f036100cb57604051634c9c8ce360e01b81526001600160a01b03821660048201526024015b60405180910390fd5b7f360894a13ba1a3210667c828492db98dca3e2076cc3735a920a3ca505d382bbc80546001600160a01b0319166001600160a01b0392909216919091179055565b60605f80846001600160a01b031684604051610128919061030b565b5f60405180830381855af49150503d805f8114610160576040519150601f19603f3d011682016040523d82523d5f602084013e610165565b606091505b5090925090506101768583836101a0565b95945050505050565b341561019e5760405163b398979f60e01b815260040160405180910390fd5b565b6060826101b5576101b0826101ff565b6101f8565b81511580156101cc57506001600160a01b0384163b155b156101f557604051639996b31560e01b81526001600160a01b03851660048201526024016100c2565b50805b9392505050565b80511561020f5780518082602001fd5b60405163d6bda27560e01b815260040160405180910390fd5b634e487b7160e01b5f52604160045260245ffd5b5f806040838503121561024d575f80fd5b82516001600160a01b0381168114610263575f80fd5b60208401519092506001600160401b0381111561027e575f80fd5b8301601f8101851361028e575f80fd5b80516001600160401b038111156102a7576102a7610228565b604051601f8201601f19908116603f011681016001600160401b03811182821017156102d5576102d5610228565b6040528181528282016020018710156102ec575f80fd5b8160208401602083015e5f602083830101528093505050509250929050565b5f82518060208501845e5f920191825250919050565b60878061032d5f395ff3fe6080604052600a600c565b005b60186014601a565b605d565b565b5f60587f360894a13ba1a3210667c828492db98dca3e2076cc3735a920a3ca505d382bbc5473ffffffffffffffffffffffffffffffffffffffff1690565b905090565b365f80375f80365f845af43d5f803e8080156076573d5ff35b3d5ffdfea164736f6c634300081a000a","linkReferences":{}},"methodIdentifiers":{"_CREATE2_FACTORY()":"ecef2533","beraChef()":"57c60951","blockRewardController()":"08ccd333","distributor()":"bfe10928","rewardVaultFactory()":"3a99927c"},"storageLayout":{"storage":[],"types":{}},"id":137}