{"abi":[{"type":"constructor","inputs":[],"stateMutability":"nonpayable"},{"type":"function","name":"allowance","inputs":[{"name":"owner","type":"address","internalType":"address"},{"name":"spender","type":"address","internalType":"address"}],"outputs":[{"name":"","type":"uint256","internalType":"uint256"}],"stateMutability":"view"},{"type":"function","name":"approve","inputs":[{"name":"spender","type":"address","internalType":"address"},{"name":"value","type":"uint256","internalType":"uint256"}],"outputs":[{"name":"","type":"bool","internalType":"bool"}],"stateMutability":"nonpayable"},{"type":"function","name":"balanceOf","inputs":[{"name":"account","type":"address","internalType":"address"}],"outputs":[{"name":"","type":"uint256","internalType":"uint256"}],"stateMutability":"view"},{"type":"function","name":"burn","inputs":[{"name":"from","type":"address","internalType":"address"},{"name":"amount","type":"uint256","internalType":"uint256"}],"outputs":[],"stateMutability":"nonpayable"},{"type":"function","name":"cancelOwnershipHandover","inputs":[],"outputs":[],"stateMutability":"payable"},{"type":"function","name":"completeOwnershipHandover","inputs":[{"name":"pendingOwner","type":"address","internalType":"address"}],"outputs":[],"stateMutability":"payable"},{"type":"function","name":"decimals","inputs":[],"outputs":[{"name":"","type":"uint8","internalType":"uint8"}],"stateMutability":"pure"},{"type":"function","name":"mint","inputs":[{"name":"to","type":"address","internalType":"address"},{"name":"amount","type":"uint256","internalType":"uint256"}],"outputs":[],"stateMutability":"nonpayable"},{"type":"function","name":"name","inputs":[],"outputs":[{"name":"","type":"string","internalType":"string"}],"stateMutability":"view"},{"type":"function","name":"owner","inputs":[],"outputs":[{"name":"result","type":"address","internalType":"address"}],"stateMutability":"view"},{"type":"function","name":"ownershipHandoverExpiresAt","inputs":[{"name":"pendingOwner","type":"address","internalType":"address"}],"outputs":[{"name":"result","type":"uint256","internalType":"uint256"}],"stateMutability":"view"},{"type":"function","name":"renounceOwnership","inputs":[],"outputs":[],"stateMutability":"payable"},{"type":"function","name":"requestOwnershipHandover","inputs":[],"outputs":[],"stateMutability":"payable"},{"type":"function","name":"symbol","inputs":[],"outputs":[{"name":"","type":"string","internalType":"string"}],"stateMutability":"view"},{"type":"function","name":"totalSupply","inputs":[],"outputs":[{"name":"","type":"uint256","internalType":"uint256"}],"stateMutability":"view"},{"type":"function","name":"transfer","inputs":[{"name":"to","type":"address","internalType":"address"},{"name":"value","type":"uint256","internalType":"uint256"}],"outputs":[{"name":"","type":"bool","internalType":"bool"}],"stateMutability":"nonpayable"},{"type":"function","name":"transferFrom","inputs":[{"name":"from","type":"address","internalType":"address"},{"name":"to","type":"address","internalType":"address"},{"name":"value","type":"uint256","internalType":"uint256"}],"outputs":[{"name":"","type":"bool","internalType":"bool"}],"stateMutability":"nonpayable"},{"type":"function","name":"transferOwnership","inputs":[{"name":"newOwner","type":"address","internalType":"address"}],"outputs":[],"stateMutability":"payable"},{"type":"event","name":"Approval","inputs":[{"name":"owner","type":"address","indexed":true,"internalType":"address"},{"name":"spender","type":"address","indexed":true,"internalType":"address"},{"name":"value","type":"uint256","indexed":false,"internalType":"uint256"}],"anonymous":false},{"type":"event","name":"OwnershipHandoverCanceled","inputs":[{"name":"pendingOwner","type":"address","indexed":true,"internalType":"address"}],"anonymous":false},{"type":"event","name":"OwnershipHandoverRequested","inputs":[{"name":"pendingOwner","type":"address","indexed":true,"internalType":"address"}],"anonymous":false},{"type":"event","name":"OwnershipTransferred","inputs":[{"name":"oldOwner","type":"address","indexed":true,"internalType":"address"},{"name":"newOwner","type":"address","indexed":true,"internalType":"address"}],"anonymous":false},{"type":"event","name":"Transfer","inputs":[{"name":"from","type":"address","indexed":true,"internalType":"address"},{"name":"to","type":"address","indexed":true,"internalType":"address"},{"name":"value","type":"uint256","indexed":false,"internalType":"uint256"}],"anonymous":false},{"type":"error","name":"AlreadyInitialized","inputs":[]},{"type":"error","name":"ERC20InsufficientAllowance","inputs":[{"name":"spender","type":"address","internalType":"address"},{"name":"allowance","type":"uint256","internalType":"uint256"},{"name":"needed","type":"uint256","internalType":"uint256"}]},{"type":"error","name":"ERC20InsufficientBalance","inputs":[{"name":"sender","type":"address","internalType":"address"},{"name":"balance","type":"uint256","internalType":"uint256"},{"name":"needed","type":"uint256","internalType":"uint256"}]},{"type":"error","name":"ERC20InvalidApprover","inputs":[{"name":"approver","type":"address","internalType":"address"}]},{"type":"error","name":"ERC20InvalidReceiver","inputs":[{"name":"receiver","type":"address","internalType":"address"}]},{"type":"error","name":"ERC20InvalidSender","inputs":[{"name":"sender","type":"address","internalType":"address"}]},{"type":"error","name":"ERC20InvalidSpender","inputs":[{"name":"spender","type":"address","internalType":"address"}]},{"type":"error","name":"NewOwnerIsZeroAddress","inputs":[]},{"type":"error","name":"NoHandoverRequest","inputs":[]},{"type":"error","name":"Unauthorized","inputs":[]}],"bytecode":{"object":"0x608060405234801561000f575f80fd5b506040518060400160405280600a81526020016915195d1a195c881554d160b21b815250604051806040016040528060048152602001631554d11560e21b815250816003908161005f9190610156565b50600461006c8282610156565b50505061007e3361008360201b60201c565b610210565b6001600160a01b0316638b78c6d819819055805f7f8be0079c531659141344cd1fd0a4f28419497f9722a3daafe3b4186f6b6457e08180a350565b634e487b7160e01b5f52604160045260245ffd5b600181811c908216806100e657607f821691505b60208210810361010457634e487b7160e01b5f52602260045260245ffd5b50919050565b601f82111561015157805f5260205f20601f840160051c8101602085101561012f5750805b601f840160051c820191505b8181101561014e575f815560010161013b565b50505b505050565b81516001600160401b0381111561016f5761016f6100be565b6101838161017d84546100d2565b8461010a565b6020601f8211600181146101b5575f831561019e5750848201515b5f19600385901b1c1916600184901b17845561014e565b5f84815260208120601f198516915b828110156101e457878501518255602094850194600190920191016101c4565b508482101561020157868401515f19600387901b60f8161c191681555b50505050600190811b01905550565b610d378061021d5f395ff3fe608060405260043610610123575f3560e01c8063715018a6116100a1578063a9059cbb11610071578063f04e283e11610057578063f04e283e14610348578063f2fde38b1461035b578063fee81cf41461036e575f80fd5b8063a9059cbb146102d8578063dd62ed3e146102f7575f80fd5b8063715018a61461024a5780638da5cb5b1461025257806395d89b41146102a55780639dc29fac146102b9575f80fd5b806325692962116100f657806340c10f19116100dc57806340c10f19146101e257806354d1f13d1461020157806370a0823114610209575f80fd5b806325692962146101bd578063313ce567146101c7575f80fd5b806306fdde0314610127578063095ea7b31461015157806318160ddd1461018057806323b872dd1461019e575b5f80fd5b348015610132575f80fd5b5061013b61039f565b6040516101489190610b73565b60405180910390f35b34801561015c575f80fd5b5061017061016b366004610bee565b61042f565b6040519015158152602001610148565b34801561018b575f80fd5b506002545b604051908152602001610148565b3480156101a9575f80fd5b506101706101b8366004610c16565b610448565b6101c561046b565b005b3480156101d2575f80fd5b5060405160068152602001610148565b3480156101ed575f80fd5b506101c56101fc366004610bee565b6104b8565b6101c56104ce565b348015610214575f80fd5b50610190610223366004610c50565b73ffffffffffffffffffffffffffffffffffffffff165f9081526020819052604090205490565b6101c5610507565b34801561025d575f80fd5b507fffffffffffffffffffffffffffffffffffffffffffffffffffffffff748739275460405173ffffffffffffffffffffffffffffffffffffffff9091168152602001610148565b3480156102b0575f80fd5b5061013b61051a565b3480156102c4575f80fd5b506101c56102d3366004610bee565b610529565b3480156102e3575f80fd5b506101706102f2366004610bee565b61053b565b348015610302575f80fd5b50610190610311366004610c70565b73ffffffffffffffffffffffffffffffffffffffff9182165f90815260016020908152604080832093909416825291909152205490565b6101c5610356366004610c50565b610548565b6101c5610369366004610c50565b610585565b348015610379575f80fd5b50610190610388366004610c50565b63389a75e1600c9081525f91909152602090205490565b6060600380546103ae90610ca1565b80601f01602080910402602001604051908101604052809291908181526020018280546103da90610ca1565b80156104255780601f106103fc57610100808354040283529160200191610425565b820191905f5260205f20905b81548152906001019060200180831161040857829003601f168201915b5050505050905090565b5f3361043c8185856105ab565b60019150505b92915050565b5f336104558582856105bd565b610460858585610690565b506001949350505050565b5f6202a30067ffffffffffffffff164201905063389a75e1600c52335f52806020600c2055337fdbf36a107da19e49527a7176a1babf963b4b0ff8cde35ee35d6cd8f1f9ac7e1d5f80a250565b6104c0610739565b6104ca828261076e565b5050565b63389a75e1600c52335f525f6020600c2055337ffa7b8eab7da67f412cc9575ed43464468f9bfbae89d1675917346ca6d8fe3c925f80a2565b61050f610739565b6105185f6107c8565b565b6060600480546103ae90610ca1565b610531610739565b6104ca828261082d565b5f3361043c818585610690565b610550610739565b63389a75e1600c52805f526020600c20805442111561057657636f5e88185f526004601cfd5b5f9055610582816107c8565b50565b61058d610739565b8060601b6105a257637448fbae5f526004601cfd5b610582816107c8565b6105b88383836001610887565b505050565b73ffffffffffffffffffffffffffffffffffffffff8381165f908152600160209081526040808320938616835292905220547fffffffffffffffffffffffffffffffffffffffffffffffffffffffffffffffff81101561068a578181101561067c576040517ffb8f41b200000000000000000000000000000000000000000000000000000000815273ffffffffffffffffffffffffffffffffffffffff8416600482015260248101829052604481018390526064015b60405180910390fd5b61068a84848484035f610887565b50505050565b73ffffffffffffffffffffffffffffffffffffffff83166106df576040517f96c6fd1e0000000000000000000000000000000000000000000000000000000081525f6004820152602401610673565b73ffffffffffffffffffffffffffffffffffffffff821661072e576040517fec442f050000000000000000000000000000000000000000000000000000000081525f6004820152602401610673565b6105b88383836109cc565b7fffffffffffffffffffffffffffffffffffffffffffffffffffffffff74873927543314610518576382b429005f526004601cfd5b73ffffffffffffffffffffffffffffffffffffffff82166107bd576040517fec442f050000000000000000000000000000000000000000000000000000000081525f6004820152602401610673565b6104ca5f83836109cc565b7fffffffffffffffffffffffffffffffffffffffffffffffffffffffff74873927805473ffffffffffffffffffffffffffffffffffffffff9092169182907f8be0079c531659141344cd1fd0a4f28419497f9722a3daafe3b4186f6b6457e05f80a355565b73ffffffffffffffffffffffffffffffffffffffff821661087c576040517f96c6fd1e0000000000000000000000000000000000000000000000000000000081525f6004820152602401610673565b6104ca825f836109cc565b73ffffffffffffffffffffffffffffffffffffffff84166108d6576040517fe602df050000000000000000000000000000000000000000000000000000000081525f6004820152602401610673565b73ffffffffffffffffffffffffffffffffffffffff8316610925576040517f94280d620000000000000000000000000000000000000000000000000000000081525f6004820152602401610673565b73ffffffffffffffffffffffffffffffffffffffff8085165f908152600160209081526040808320938716835292905220829055801561068a578273ffffffffffffffffffffffffffffffffffffffff168473ffffffffffffffffffffffffffffffffffffffff167f8c5be1e5ebec7d5bd14f71427d1e84f3dd0314c0f7b2291e5b200ac8c7c3b925846040516109be91815260200190565b60405180910390a350505050565b73ffffffffffffffffffffffffffffffffffffffff8316610a03578060025f8282546109f89190610cf2565b90915550610ab39050565b73ffffffffffffffffffffffffffffffffffffffff83165f9081526020819052604090205481811015610a88576040517fe450d38c00000000000000000000000000000000000000000000000000000000815273ffffffffffffffffffffffffffffffffffffffff851660048201526024810182905260448101839052606401610673565b73ffffffffffffffffffffffffffffffffffffffff84165f9081526020819052604090209082900390555b73ffffffffffffffffffffffffffffffffffffffff8216610adc57600280548290039055610b07565b73ffffffffffffffffffffffffffffffffffffffff82165f9081526020819052604090208054820190555b8173ffffffffffffffffffffffffffffffffffffffff168373ffffffffffffffffffffffffffffffffffffffff167fddf252ad1be2c89b69c2b068fc378daa952ba7f163c4a11628f55a4df523b3ef83604051610b6691815260200190565b60405180910390a3505050565b602081525f82518060208401528060208501604085015e5f6040828501015260407fffffffffffffffffffffffffffffffffffffffffffffffffffffffffffffffe0601f83011684010191505092915050565b803573ffffffffffffffffffffffffffffffffffffffff81168114610be9575f80fd5b919050565b5f8060408385031215610bff575f80fd5b610c0883610bc6565b946020939093013593505050565b5f805f60608486031215610c28575f80fd5b610c3184610bc6565b9250610c3f60208501610bc6565b929592945050506040919091013590565b5f60208284031215610c60575f80fd5b610c6982610bc6565b9392505050565b5f8060408385031215610c81575f80fd5b610c8a83610bc6565b9150610c9860208401610bc6565b90509250929050565b600181811c90821680610cb557607f821691505b602082108103610cec577f4e487b71000000000000000000000000000000000000000000000000000000005f52602260045260245ffd5b50919050565b80820180821115610442577f4e487b71000000000000000000000000000000000000000000000000000000005f52601160045260245ffdfea164736f6c634300081a000a","linkReferences":{}},"methodIdentifiers":{"allowance(address,address)":"dd62ed3e","approve(address,uint256)":"095ea7b3","balanceOf(address)":"70a08231","burn(address,uint256)":"9dc29fac","cancelOwnershipHandover()":"54d1f13d","completeOwnershipHandover(address)":"f04e283e","decimals()":"313ce567","mint(address,uint256)":"40c10f19","name()":"06fdde03","owner()":"8da5cb5b","ownershipHandoverExpiresAt(address)":"fee81cf4","renounceOwnership()":"715018a6","requestOwnershipHandover()":"25692962","symbol()":"95d89b41","totalSupply()":"18160ddd","transfer(address,uint256)":"a9059cbb","transferFrom(address,address,uint256)":"23b872dd","transferOwnership(address)":"f2fde38b"},"storageLayout":{"storage":[{"astId":37342,"contract":"script/misc/testnet/tokens/USDT.sol:USDT","label":"_balances","offset":0,"slot":"0","type":"t_mapping(t_address,t_uint256)"},{"astId":37348,"contract":"script/misc/testnet/tokens/USDT.sol:USDT","label":"_allowances","offset":0,"slot":"1","type":"t_mapping(t_address,t_mapping(t_address,t_uint256))"},{"astId":37350,"contract":"script/misc/testnet/tokens/USDT.sol:USDT","label":"_totalSupply","offset":0,"slot":"2","type":"t_uint256"},{"astId":37352,"contract":"script/misc/testnet/tokens/USDT.sol:USDT","label":"_name","offset":0,"slot":"3","type":"t_string_storage"},{"astId":37354,"contract":"script/misc/testnet/tokens/USDT.sol:USDT","label":"_symbol","offset":0,"slot":"4","type":"t_string_storage"}],"types":{"t_address":{"encoding":"inplace","label":"address","numberOfBytes":"20"},"t_mapping(t_address,t_mapping(t_address,t_uint256))":{"encoding":"mapping","key":"t_address","label":"mapping(address => mapping(address => uint256))","numberOfBytes":"32","value":"t_mapping(t_address,t_uint256)"},"t_mapping(t_address,t_uint256)":{"encoding":"mapping","key":"t_address","label":"mapping(address => uint256)","numberOfBytes":"32","value":"t_uint256"},"t_string_storage":{"encoding":"bytes","label":"string","numberOfBytes":"32"},"t_uint256":{"encoding":"inplace","label":"uint256","numberOfBytes":"32"}}},"id":30}