{"abi":[{"type":"receive","stateMutability":"payable"},{"type":"function","name":"DOMAIN_SEPARATOR","inputs":[],"outputs":[{"name":"result","type":"bytes32","internalType":"bytes32"}],"stateMutability":"view"},{"type":"function","name":"allowance","inputs":[{"name":"owner","type":"address","internalType":"address"},{"name":"spender","type":"address","internalType":"address"}],"outputs":[{"name":"result","type":"uint256","internalType":"uint256"}],"stateMutability":"view"},{"type":"function","name":"approve","inputs":[{"name":"spender","type":"address","internalType":"address"},{"name":"amount","type":"uint256","internalType":"uint256"}],"outputs":[{"name":"","type":"bool","internalType":"bool"}],"stateMutability":"nonpayable"},{"type":"function","name":"balanceOf","inputs":[{"name":"owner","type":"address","internalType":"address"}],"outputs":[{"name":"result","type":"uint256","internalType":"uint256"}],"stateMutability":"view"},{"type":"function","name":"decimals","inputs":[],"outputs":[{"name":"","type":"uint8","internalType":"uint8"}],"stateMutability":"view"},{"type":"function","name":"deposit","inputs":[],"outputs":[],"stateMutability":"payable"},{"type":"function","name":"name","inputs":[],"outputs":[{"name":"","type":"string","internalType":"string"}],"stateMutability":"view"},{"type":"function","name":"nonces","inputs":[{"name":"owner","type":"address","internalType":"address"}],"outputs":[{"name":"result","type":"uint256","internalType":"uint256"}],"stateMutability":"view"},{"type":"function","name":"permit","inputs":[{"name":"owner","type":"address","internalType":"address"},{"name":"spender","type":"address","internalType":"address"},{"name":"value","type":"uint256","internalType":"uint256"},{"name":"deadline","type":"uint256","internalType":"uint256"},{"name":"v","type":"uint8","internalType":"uint8"},{"name":"r","type":"bytes32","internalType":"bytes32"},{"name":"s","type":"bytes32","internalType":"bytes32"}],"outputs":[],"stateMutability":"nonpayable"},{"type":"function","name":"symbol","inputs":[],"outputs":[{"name":"","type":"string","internalType":"string"}],"stateMutability":"view"},{"type":"function","name":"totalSupply","inputs":[],"outputs":[{"name":"result","type":"uint256","internalType":"uint256"}],"stateMutability":"view"},{"type":"function","name":"transfer","inputs":[{"name":"to","type":"address","internalType":"address"},{"name":"amount","type":"uint256","internalType":"uint256"}],"outputs":[{"name":"","type":"bool","internalType":"bool"}],"stateMutability":"nonpayable"},{"type":"function","name":"transferFrom","inputs":[{"name":"from","type":"address","internalType":"address"},{"name":"to","type":"address","internalType":"address"},{"name":"amount","type":"uint256","internalType":"uint256"}],"outputs":[{"name":"","type":"bool","internalType":"bool"}],"stateMutability":"nonpayable"},{"type":"function","name":"withdraw","inputs":[{"name":"amount","type":"uint256","internalType":"uint256"}],"outputs":[],"stateMutability":"nonpayable"},{"type":"event","name":"Approval","inputs":[{"name":"owner","type":"address","indexed":true,"internalType":"address"},{"name":"spender","type":"address","indexed":true,"internalType":"address"},{"name":"amount","type":"uint256","indexed":false,"internalType":"uint256"}],"anonymous":false},{"type":"event","name":"Transfer","inputs":[{"name":"from","type":"address","indexed":true,"internalType":"address"},{"name":"to","type":"address","indexed":true,"internalType":"address"},{"name":"amount","type":"uint256","indexed":false,"internalType":"uint256"}],"anonymous":false},{"type":"error","name":"AllowanceOverflow","inputs":[]},{"type":"error","name":"AllowanceUnderflow","inputs":[]},{"type":"error","name":"ETHTransferFailed","inputs":[]},{"type":"error","name":"InsufficientAllowance","inputs":[]},{"type":"error","name":"InsufficientBalance","inputs":[]},{"type":"error","name":"InvalidPermit","inputs":[]},{"type":"error","name":"Permit2AllowanceIsFixedAtInfinity","inputs":[]},{"type":"error","name":"PermitExpired","inputs":[]},{"type":"error","name":"TotalSupplyOverflow","inputs":[]}],"bytecode":{"object":"0x6080604052348015600e575f80fd5b50610a228061001c5f395ff3fe6080604052600436106100dc575f3560e01c806370a082311161007c578063a9059cbb11610057578063a9059cbb14610364578063d0e30db014610383578063d505accf1461038b578063dd62ed3e146103aa575f80fd5b806370a08231146102bd5780637ecebe00146102ee57806395d89b411461031f575f80fd5b806323b872dd116100b757806323b872dd1461019b5780632e1a7d4d146101ba578063313ce567146101d95780633644e515146101f4575f80fd5b806306fdde03146100ef578063095ea7b31461014657806318160ddd14610175575f80fd5b366100eb576100e96103de565b005b5f80fd5b3480156100fa575f80fd5b5060408051808201909152600d81527f577261707065642045746865720000000000000000000000000000000000000060208201525b60405161013d9190610863565b60405180910390f35b348015610151575f80fd5b506101656101603660046108de565b6103ea565b604051901515815260200161013d565b348015610180575f80fd5b506805345cdf77eb68f44c545b60405190815260200161013d565b3480156101a6575f80fd5b506101656101b5366004610906565b610439565b3480156101c5575f80fd5b506100e96101d4366004610940565b6104f1565b3480156101e4575f80fd5b506040516012815260200161013d565b3480156101ff575f80fd5b50604080518082018252600d81527f577261707065642045746865720000000000000000000000000000000000000060209182015281517f8b73c3c69bb8fe3d512ecc4cf759cc79239f7b179b0ffacaa9a75d522b39400f81527ecd3d46df44f2cbb950cf84eb2e92aa2ddd23195b1a009173ea59a063357ed3918101919091527fc89efdaa54c0f20c7adf612882df0950f5a951637e0307cdcb4c672f298b8bc69181019190915246606082015230608082015260a0902061018d565b3480156102c8575f80fd5b5061018d6102d7366004610957565b6387a211a2600c9081525f91909152602090205490565b3480156102f9575f80fd5b5061018d610308366004610957565b6338377508600c9081525f91909152602090205490565b34801561032a575f80fd5b5060408051808201909152600481527f57455448000000000000000000000000000000000000000000000000000000006020820152610130565b34801561036f575f80fd5b5061016561037e3660046108de565b610517565b6100e96103de565b348015610396575f80fd5b506100e96103a5366004610977565b61058e565b3480156103b5575f80fd5b5061018d6103c43660046109e4565b602052637f5e9f20600c9081525f91909152603490205490565b6103e83334610766565b565b5f82602052637f5e9f20600c52335f52816034600c2055815f52602c5160601c337f8c5be1e5ebec7d5bd14f71427d1e84f3dd0314c0f7b2291e5b200ac8c7c3b92560205fa350600192915050565b5f8360601b33602052637f5e9f208117600c526034600c208054801915610475578085111561046f576313be252b5f526004601cfd5b84810382555b50506387a211a28117600c526020600c2080548085111561049d5763f4d678b85f526004601cfd5b84810382555050835f526020600c208381540181555082602052600c5160601c8160601c7fddf252ad1be2c89b69c2b068fc378daa952ba7f163c4a11628f55a4df523b3ef602080a3505060019392505050565b6104fb33826107e2565b5f385f3884335af16105145763b12d13eb5f526004601cfd5b50565b5f6387a211a2600c52335f526020600c2080548084111561053f5763f4d678b85f526004601cfd5b83810382555050825f526020600c208281540181555081602052600c5160601c337fddf252ad1be2c89b69c2b068fc378daa952ba7f163c4a11628f55a4df523b3ef602080a350600192915050565b60408051808201909152600d81527f57726170706564204574686572000000000000000000000000000000000000006020909101527ecd3d46df44f2cbb950cf84eb2e92aa2ddd23195b1a009173ea59a063357ed37fc89efdaa54c0f20c7adf612882df0950f5a951637e0307cdcb4c672f298b8bc64286101561061957631a15a3cc5f526004601cfd5b6040518960601b60601c99508860601b60601c985065383775081901600e52895f526020600c2080547f8b73c3c69bb8fe3d512ecc4cf759cc79239f7b179b0ffacaa9a75d522b39400f835284602084015283604084015246606084015230608084015260a08320602e527f6e71edae12b1b97f4d1f60370fef10105fa2faae0126114a169c64845d6126c983528b60208401528a60408401528960608401528060808401528860a084015260c08320604e526042602c205f528760ff16602052866040528560605260208060805f60015afa8c3d51146107015763ddafbaef5f526004601cfd5b019055777f5e9f20000000000000000000000000000000000000000089176040526034602c20889055888a7f8c5be1e5ebec7d5bd14f71427d1e84f3dd0314c0f7b2291e5b200ac8c7c3b925602060608501a360405250505f60605250505050505050565b6805345cdf77eb68f44c54818101818110156107895763e5cfe9575f526004601cfd5b806805345cdf77eb68f44c5550506387a211a2600c52815f526020600c208181540181555080602052600c5160601c5f7fddf252ad1be2c89b69c2b068fc378daa952ba7f163c4a11628f55a4df523b3ef602080a35050565b6387a211a2600c52815f526020600c208054808311156108095763f4d678b85f526004601cfd5b82900390556805345cdf77eb68f44c805482900390555f81815273ffffffffffffffffffffffffffffffffffffffff83167fddf252ad1be2c89b69c2b068fc378daa952ba7f163c4a11628f55a4df523b3ef602083a35050565b602081525f82518060208401528060208501604085015e5f6040828501015260407fffffffffffffffffffffffffffffffffffffffffffffffffffffffffffffffe0601f83011684010191505092915050565b803573ffffffffffffffffffffffffffffffffffffffff811681146108d9575f80fd5b919050565b5f80604083850312156108ef575f80fd5b6108f8836108b6565b946020939093013593505050565b5f805f60608486031215610918575f80fd5b610921846108b6565b925061092f602085016108b6565b929592945050506040919091013590565b5f60208284031215610950575f80fd5b5035919050565b5f60208284031215610967575f80fd5b610970826108b6565b9392505050565b5f805f805f805f60e0888a03121561098d575f80fd5b610996886108b6565b96506109a4602089016108b6565b95506040880135945060608801359350608088013560ff811681146109c7575f80fd5b9699959850939692959460a0840135945060c09093013592915050565b5f80604083850312156109f5575f80fd5b6109fe836108b6565b9150610a0c602084016108b6565b9050925092905056fea164736f6c634300081a000a","linkReferences":{}},"methodIdentifiers":{"DOMAIN_SEPARATOR()":"3644e515","allowance(address,address)":"dd62ed3e","approve(address,uint256)":"095ea7b3","balanceOf(address)":"70a08231","decimals()":"313ce567","deposit()":"d0e30db0","name()":"06fdde03","nonces(address)":"7ecebe00","permit(address,address,uint256,uint256,uint8,bytes32,bytes32)":"d505accf","symbol()":"95d89b41","totalSupply()":"18160ddd","transfer(address,uint256)":"a9059cbb","transferFrom(address,address,uint256)":"23b872dd","withdraw(uint256)":"2e1a7d4d"},"storageLayout":{"storage":[],"types":{}},"id":21}