{"abi":[{"type":"constructor","inputs":[],"stateMutability":"nonpayable"},{"type":"receive","stateMutability":"payable"},{"type":"function","name":"CANCELLER_ROLE","inputs":[],"outputs":[{"name":"","type":"bytes32","internalType":"bytes32"}],"stateMutability":"view"},{"type":"function","name":"DEFAULT_ADMIN_ROLE","inputs":[],"outputs":[{"name":"","type":"bytes32","internalType":"bytes32"}],"stateMutability":"view"},{"type":"function","name":"EXECUTOR_ROLE","inputs":[],"outputs":[{"name":"","type":"bytes32","internalType":"bytes32"}],"stateMutability":"view"},{"type":"function","name":"PROPOSER_ROLE","inputs":[],"outputs":[{"name":"","type":"bytes32","internalType":"bytes32"}],"stateMutability":"view"},{"type":"function","name":"UPGRADE_INTERFACE_VERSION","inputs":[],"outputs":[{"name":"","type":"string","internalType":"string"}],"stateMutability":"view"},{"type":"function","name":"cancel","inputs":[{"name":"id","type":"bytes32","internalType":"bytes32"}],"outputs":[],"stateMutability":"nonpayable"},{"type":"function","name":"execute","inputs":[{"name":"target","type":"address","internalType":"address"},{"name":"value","type":"uint256","internalType":"uint256"},{"name":"payload","type":"bytes","internalType":"bytes"},{"name":"predecessor","type":"bytes32","internalType":"bytes32"},{"name":"salt","type":"bytes32","internalType":"bytes32"}],"outputs":[],"stateMutability":"payable"},{"type":"function","name":"executeBatch","inputs":[{"name":"targets","type":"address[]","internalType":"address[]"},{"name":"values","type":"uint256[]","internalType":"uint256[]"},{"name":"payloads","type":"bytes[]","internalType":"bytes[]"},{"name":"predecessor","type":"bytes32","internalType":"bytes32"},{"name":"salt","type":"bytes32","internalType":"bytes32"}],"outputs":[],"stateMutability":"payable"},{"type":"function","name":"getMinDelay","inputs":[],"outputs":[{"name":"","type":"uint256","internalType":"uint256"}],"stateMutability":"view"},{"type":"function","name":"getOperationState","inputs":[{"name":"id","type":"bytes32","internalType":"bytes32"}],"outputs":[{"name":"","type":"uint8","internalType":"enum TimelockControllerUpgradeable.OperationState"}],"stateMutability":"view"},{"type":"function","name":"getRoleAdmin","inputs":[{"name":"role","type":"bytes32","internalType":"bytes32"}],"outputs":[{"name":"","type":"bytes32","internalType":"bytes32"}],"stateMutability":"view"},{"type":"function","name":"getTimestamp","inputs":[{"name":"id","type":"bytes32","internalType":"bytes32"}],"outputs":[{"name":"","type":"uint256","internalType":"uint256"}],"stateMutability":"view"},{"type":"function","name":"grantRole","inputs":[{"name":"role","type":"bytes32","internalType":"bytes32"},{"name":"account","type":"address","internalType":"address"}],"outputs":[],"stateMutability":"nonpayable"},{"type":"function","name":"hasRole","inputs":[{"name":"role","type":"bytes32","internalType":"bytes32"},{"name":"account","type":"address","internalType":"address"}],"outputs":[{"name":"","type":"bool","internalType":"bool"}],"stateMutability":"view"},{"type":"function","name":"hashOperation","inputs":[{"name":"target","type":"address","internalType":"address"},{"name":"value","type":"uint256","internalType":"uint256"},{"name":"data","type":"bytes","internalType":"bytes"},{"name":"predecessor","type":"bytes32","internalType":"bytes32"},{"name":"salt","type":"bytes32","internalType":"bytes32"}],"outputs":[{"name":"","type":"bytes32","internalType":"bytes32"}],"stateMutability":"pure"},{"type":"function","name":"hashOperationBatch","inputs":[{"name":"targets","type":"address[]","internalType":"address[]"},{"name":"values","type":"uint256[]","internalType":"uint256[]"},{"name":"payloads","type":"bytes[]","internalType":"bytes[]"},{"name":"predecessor","type":"bytes32","internalType":"bytes32"},{"name":"salt","type":"bytes32","internalType":"bytes32"}],"outputs":[{"name":"","type":"bytes32","internalType":"bytes32"}],"stateMutability":"pure"},{"type":"function","name":"initialize","inputs":[{"name":"minDelay","type":"uint256","internalType":"uint256"},{"name":"proposers","type":"address[]","internalType":"address[]"},{"name":"executors","type":"address[]","internalType":"address[]"},{"name":"admin","type":"address","internalType":"address"}],"outputs":[],"stateMutability":"nonpayable"},{"type":"function","name":"isOperation","inputs":[{"name":"id","type":"bytes32","internalType":"bytes32"}],"outputs":[{"name":"","type":"bool","internalType":"bool"}],"stateMutability":"view"},{"type":"function","name":"isOperationDone","inputs":[{"name":"id","type":"bytes32","internalType":"bytes32"}],"outputs":[{"name":"","type":"bool","internalType":"bool"}],"stateMutability":"view"},{"type":"function","name":"isOperationPending","inputs":[{"name":"id","type":"bytes32","internalType":"bytes32"}],"outputs":[{"name":"","type":"bool","internalType":"bool"}],"stateMutability":"view"},{"type":"function","name":"isOperationReady","inputs":[{"name":"id","type":"bytes32","internalType":"bytes32"}],"outputs":[{"name":"","type":"bool","internalType":"bool"}],"stateMutability":"view"},{"type":"function","name":"onERC1155BatchReceived","inputs":[{"name":"","type":"address","internalType":"address"},{"name":"","type":"address","internalType":"address"},{"name":"","type":"uint256[]","internalType":"uint256[]"},{"name":"","type":"uint256[]","internalType":"uint256[]"},{"name":"","type":"bytes","internalType":"bytes"}],"outputs":[{"name":"","type":"bytes4","internalType":"bytes4"}],"stateMutability":"nonpayable"},{"type":"function","name":"onERC1155Received","inputs":[{"name":"","type":"address","internalType":"address"},{"name":"","type":"address","internalType":"address"},{"name":"","type":"uint256","internalType":"uint256"},{"name":"","type":"uint256","internalType":"uint256"},{"name":"","type":"bytes","internalType":"bytes"}],"outputs":[{"name":"","type":"bytes4","internalType":"bytes4"}],"stateMutability":"nonpayable"},{"type":"function","name":"onERC721Received","inputs":[{"name":"","type":"address","internalType":"address"},{"name":"","type":"address","internalType":"address"},{"name":"","type":"uint256","internalType":"uint256"},{"name":"","type":"bytes","internalType":"bytes"}],"outputs":[{"name":"","type":"bytes4","internalType":"bytes4"}],"stateMutability":"nonpayable"},{"type":"function","name":"proxiableUUID","inputs":[],"outputs":[{"name":"","type":"bytes32","internalType":"bytes32"}],"stateMutability":"view"},{"type":"function","name":"renounceRole","inputs":[{"name":"role","type":"bytes32","internalType":"bytes32"},{"name":"callerConfirmation","type":"address","internalType":"address"}],"outputs":[],"stateMutability":"nonpayable"},{"type":"function","name":"revokeRole","inputs":[{"name":"role","type":"bytes32","internalType":"bytes32"},{"name":"account","type":"address","internalType":"address"}],"outputs":[],"stateMutability":"nonpayable"},{"type":"function","name":"schedule","inputs":[{"name":"target","type":"address","internalType":"address"},{"name":"value","type":"uint256","internalType":"uint256"},{"name":"data","type":"bytes","internalType":"bytes"},{"name":"predecessor","type":"bytes32","internalType":"bytes32"},{"name":"salt","type":"bytes32","internalType":"bytes32"},{"name":"delay","type":"uint256","internalType":"uint256"}],"outputs":[],"stateMutability":"nonpayable"},{"type":"function","name":"scheduleBatch","inputs":[{"name":"targets","type":"address[]","internalType":"address[]"},{"name":"values","type":"uint256[]","internalType":"uint256[]"},{"name":"payloads","type":"bytes[]","internalType":"bytes[]"},{"name":"predecessor","type":"bytes32","internalType":"bytes32"},{"name":"salt","type":"bytes32","internalType":"bytes32"},{"name":"delay","type":"uint256","internalType":"uint256"}],"outputs":[],"stateMutability":"nonpayable"},{"type":"function","name":"supportsInterface","inputs":[{"name":"interfaceId","type":"bytes4","internalType":"bytes4"}],"outputs":[{"name":"","type":"bool","internalType":"bool"}],"stateMutability":"view"},{"type":"function","name":"updateDelay","inputs":[{"name":"newDelay","type":"uint256","internalType":"uint256"}],"outputs":[],"stateMutability":"nonpayable"},{"type":"function","name":"upgradeToAndCall","inputs":[{"name":"newImplementation","type":"address","internalType":"address"},{"name":"data","type":"bytes","internalType":"bytes"}],"outputs":[],"stateMutability":"payable"},{"type":"event","name":"CallExecuted","inputs":[{"name":"id","type":"bytes32","indexed":true,"internalType":"bytes32"},{"name":"index","type":"uint256","indexed":true,"internalType":"uint256"},{"name":"target","type":"address","indexed":false,"internalType":"address"},{"name":"value","type":"uint256","indexed":false,"internalType":"uint256"},{"name":"data","type":"bytes","indexed":false,"internalType":"bytes"}],"anonymous":false},{"type":"event","name":"CallSalt","inputs":[{"name":"id","type":"bytes32","indexed":true,"internalType":"bytes32"},{"name":"salt","type":"bytes32","indexed":false,"internalType":"bytes32"}],"anonymous":false},{"type":"event","name":"CallScheduled","inputs":[{"name":"id","type":"bytes32","indexed":true,"internalType":"bytes32"},{"name":"index","type":"uint256","indexed":true,"internalType":"uint256"},{"name":"target","type":"address","indexed":false,"internalType":"address"},{"name":"value","type":"uint256","indexed":false,"internalType":"uint256"},{"name":"data","type":"bytes","indexed":false,"internalType":"bytes"},{"name":"predecessor","type":"bytes32","indexed":false,"internalType":"bytes32"},{"name":"delay","type":"uint256","indexed":false,"internalType":"uint256"}],"anonymous":false},{"type":"event","name":"Cancelled","inputs":[{"name":"id","type":"bytes32","indexed":true,"internalType":"bytes32"}],"anonymous":false},{"type":"event","name":"Initialized","inputs":[{"name":"version","type":"uint64","indexed":false,"internalType":"uint64"}],"anonymous":false},{"type":"event","name":"MinDelayChange","inputs":[{"name":"oldDuration","type":"uint256","indexed":false,"internalType":"uint256"},{"name":"newDuration","type":"uint256","indexed":false,"internalType":"uint256"}],"anonymous":false},{"type":"event","name":"RoleAdminChanged","inputs":[{"name":"role","type":"bytes32","indexed":true,"internalType":"bytes32"},{"name":"previousAdminRole","type":"bytes32","indexed":true,"internalType":"bytes32"},{"name":"newAdminRole","type":"bytes32","indexed":true,"internalType":"bytes32"}],"anonymous":false},{"type":"event","name":"RoleGranted","inputs":[{"name":"role","type":"bytes32","indexed":true,"internalType":"bytes32"},{"name":"account","type":"address","indexed":true,"internalType":"address"},{"name":"sender","type":"address","indexed":true,"internalType":"address"}],"anonymous":false},{"type":"event","name":"RoleRevoked","inputs":[{"name":"role","type":"bytes32","indexed":true,"internalType":"bytes32"},{"name":"account","type":"address","indexed":true,"internalType":"address"},{"name":"sender","type":"address","indexed":true,"internalType":"address"}],"anonymous":false},{"type":"event","name":"Upgraded","inputs":[{"name":"implementation","type":"address","indexed":true,"internalType":"address"}],"anonymous":false},{"type":"error","name":"AccessControlBadConfirmation","inputs":[]},{"type":"error","name":"AccessControlUnauthorizedAccount","inputs":[{"name":"account","type":"address","internalType":"address"},{"name":"neededRole","type":"bytes32","internalType":"bytes32"}]},{"type":"error","name":"AddressEmptyCode","inputs":[{"name":"target","type":"address","internalType":"address"}]},{"type":"error","name":"ERC1967InvalidImplementation","inputs":[{"name":"implementation","type":"address","internalType":"address"}]},{"type":"error","name":"ERC1967NonPayable","inputs":[]},{"type":"error","name":"FailedCall","inputs":[]},{"type":"error","name":"InvalidInitialization","inputs":[]},{"type":"error","name":"NotInitializing","inputs":[]},{"type":"error","name":"TimelockInsufficientDelay","inputs":[{"name":"delay","type":"uint256","internalType":"uint256"},{"name":"minDelay","type":"uint256","internalType":"uint256"}]},{"type":"error","name":"TimelockInvalidOperationLength","inputs":[{"name":"targets","type":"uint256","internalType":"uint256"},{"name":"payloads","type":"uint256","internalType":"uint256"},{"name":"values","type":"uint256","internalType":"uint256"}]},{"type":"error","name":"TimelockUnauthorizedCaller","inputs":[{"name":"caller","type":"address","internalType":"address"}]},{"type":"error","name":"TimelockUnexecutedPredecessor","inputs":[{"name":"predecessorId","type":"bytes32","internalType":"bytes32"}]},{"type":"error","name":"TimelockUnexpectedOperationState","inputs":[{"name":"operationId","type":"bytes32","internalType":"bytes32"},{"name":"expectedStates","type":"bytes32","internalType":"bytes32"}]},{"type":"error","name":"UUPSUnauthorizedCallContext","inputs":[]},{"type":"error","name":"UUPSUnsupportedProxiableUUID","inputs":[{"name":"slot","type":"bytes32","internalType":"bytes32"}]}],"bytecode":{"object":"0x60a060405230608052348015610013575f80fd5b5061001c610021565b6100d3565b7ff0c57e16840df040f15088dc2f81fe391c3923bec73e23a9662efc9c229c6a00805468010000000000000000900460ff16156100715760405163f92ee8a960e01b815260040160405180910390fd5b80546001600160401b03908116146100d05780546001600160401b0319166001600160401b0390811782556040519081527fc7f505b2f371ae2175ee4913f4499e1f2633a7b5936321eed1cdaeb6115181d29060200160405180910390a15b50565b608051612c126100f95f395f81816117fa015281816118230152611a430152612c125ff3fe6080604052600436106101de575f3560e01c80638065657f116100fd578063bc197c8111610092578063d547741f11610062578063d547741f146106e6578063e38335e514610705578063f23a6e6114610718578063f27a0c921461075c575f80fd5b8063bc197c811461061a578063c4c4c7b31461065e578063c4d252f51461067d578063d45c44351461069c575f80fd5b8063a217fddf116100cd578063a217fddf14610560578063ad3cb1cc14610573578063b08e51c0146105c8578063b1c5f427146105fb575f80fd5b80638065657f1461047f5780638f2a0bb01461049e5780638f61f4f5146104bd57806391d14854146104f0575f80fd5b80632f2ff15d1161017357806352d1902d1161014357806352d1902d14610401578063584b153e1461041557806364d62353146104345780637958004c14610453575f80fd5b80632f2ff15d1461039157806331d50750146103b057806336568abe146103cf5780634f1ef286146103ee575f80fd5b806313bc9f20116101ae57806313bc9f2014610292578063150b7a02146102b1578063248a9ca3146103255780632ab0f52914610372575f80fd5b806301d5062a146101e957806301ffc9a71461020a57806307bd02651461023e578063134008d31461027f575f80fd5b366101e557005b5f80fd5b3480156101f4575f80fd5b506102086102033660046120a8565b61078f565b005b348015610215575f80fd5b50610229610224366004612117565b610863565b60405190151581526020015b60405180910390f35b348015610249575f80fd5b506102717fd8aa0f3194971a2a116679f7c2090f6939c8d4e01a2a8d7e41d55e5351469e6381565b604051908152602001610235565b61020861028d366004612156565b610873565b34801561029d575f80fd5b506102296102ac3660046121bd565b610968565b3480156102bc575f80fd5b506102f46102cb3660046122da565b7f150b7a0200000000000000000000000000000000000000000000000000000000949350505050565b6040517fffffffff000000000000000000000000000000000000000000000000000000009091168152602001610235565b348015610330575f80fd5b5061027161033f3660046121bd565b5f9081527f02dd7bc7dec4dceedda775e58dd541e08a116c6c53815c0bd028192f7b626800602052604090206001015490565b34801561037d575f80fd5b5061022961038c3660046121bd565b61098d565b34801561039c575f80fd5b506102086103ab36600461233e565b610995565b3480156103bb575f80fd5b506102296103ca3660046121bd565b6109de565b3480156103da575f80fd5b506102086103e936600461233e565b610a02565b6102086103fc366004612368565b610a60565b34801561040c575f80fd5b50610271610a7f565b348015610420575f80fd5b5061022961042f3660046121bd565b610aad565b34801561043f575f80fd5b5061020861044e3660046121bd565b610af2565b34801561045e575f80fd5b5061047261046d3660046121bd565b610baf565b60405161023591906123e0565b34801561048a575f80fd5b50610271610499366004612156565b610c16565b3480156104a9575f80fd5b506102086104b8366004612460565b610c54565b3480156104c8575f80fd5b506102717fb09aa5aeb3702cfd50b6b62bc4532604938f21248a27a1d5ca736082b6819cc181565b3480156104fb575f80fd5b5061022961050a36600461233e565b5f9182527f02dd7bc7dec4dceedda775e58dd541e08a116c6c53815c0bd028192f7b6268006020908152604080842073ffffffffffffffffffffffffffffffffffffffff93909316845291905290205460ff1690565b34801561056b575f80fd5b506102715f81565b34801561057e575f80fd5b506105bb6040518060400160405280600581526020017f352e302e3000000000000000000000000000000000000000000000000000000081525081565b6040516102359190612515565b3480156105d3575f80fd5b506102717ffd643c72710c63c0180259aba6b2d05451e3591a24e58b62239378085726f78381565b348015610606575f80fd5b50610271610615366004612568565b610df6565b348015610625575f80fd5b506102f46106343660046126a2565b7fbc197c810000000000000000000000000000000000000000000000000000000095945050505050565b348015610669575f80fd5b506102086106783660046127b3565b610e3a565b348015610688575f80fd5b506102086106973660046121bd565b610fa8565b3480156106a7575f80fd5b506102716106b63660046121bd565b5f9081527f9a37c2aa9d186a0969ff8a8267bf4e07e864c2f2768f5040949e28a624fb3600602052604090205490565b3480156106f1575f80fd5b5061020861070036600461233e565b61108d565b610208610713366004612568565b6110d0565b348015610723575f80fd5b506102f4610732366004612831565b7ff23a6e610000000000000000000000000000000000000000000000000000000095945050505050565b348015610767575f80fd5b507f9a37c2aa9d186a0969ff8a8267bf4e07e864c2f2768f5040949e28a624fb360154610271565b7fb09aa5aeb3702cfd50b6b62bc4532604938f21248a27a1d5ca736082b6819cc16107b9816112aa565b5f6107c8898989898989610c16565b90506107d481846112b7565b5f817f4cf4410cc57040e44862ef0f45f3dd5a5e02db8eb8add648d4b0e236f1d07dca8b8b8b8b8b8a60405161080f969594939291906128cc565b60405180910390a3831561085857807f20fda5fd27a1ea7bf5b9567f143ac5470bb059374a27e8f67cb44f946f6d03878560405161084f91815260200190565b60405180910390a25b505050505050505050565b5f61086d826113bb565b92915050565b5f80527f52fce5e8a5d0d9e8d1ea29f4525e512e9c27bf92cae50374d497f918ab48f3826020527fdd1864c1ab258d549957f6a4d7e3a5005661df58241dbbc1700fb170ef061546547fd8aa0f3194971a2a116679f7c2090f6939c8d4e01a2a8d7e41d55e5351469e639060ff166108ef576108ef8133611410565b5f6108fe888888888888610c16565b905061090a81856114b6565b6109168888888861151d565b5f817fc2617efa69bab66782fa219543714338489c4e9e178271560a91b82c3f612b588a8a8a8a60405161094d9493929190612916565b60405180910390a361095e8161159e565b5050505050505050565b5f60025b61097583610baf565b6003811115610986576109866123b3565b1492915050565b5f600361096c565b5f8281527f02dd7bc7dec4dceedda775e58dd541e08a116c6c53815c0bd028192f7b62680060205260409020600101546109ce816112aa565b6109d883836115e8565b50505050565b5f806109e983610baf565b60038111156109fa576109fa6123b3565b141592915050565b73ffffffffffffffffffffffffffffffffffffffff81163314610a51576040517f6697b23200000000000000000000000000000000000000000000000000000000815260040160405180910390fd5b610a5b8282611706565b505050565b610a686117e2565b610a71826118e8565b610a7b82826118f2565b5050565b5f610a88611a2b565b507f360894a13ba1a3210667c828492db98dca3e2076cc3735a920a3ca505d382bbc90565b5f80610ab883610baf565b90506001816003811115610ace57610ace6123b3565b1480610aeb57506002816003811115610ae957610ae96123b3565b145b9392505050565b7f9a37c2aa9d186a0969ff8a8267bf4e07e864c2f2768f5040949e28a624fb360033308114610b6a576040517fe2850c5900000000000000000000000000000000000000000000000000000000815273ffffffffffffffffffffffffffffffffffffffff821660048201526024015b60405180910390fd5b600182015460408051918252602082018590527f11c24f4ead16507c69ac467fbd5e4eed5fb5c699626d2cc6d66421df253886d5910160405180910390a15060010155565b5f8181527f9a37c2aa9d186a0969ff8a8267bf4e07e864c2f2768f5040949e28a624fb36006020526040812054805f03610beb57505f92915050565b60018103610bfc5750600392915050565b42811115610c0d5750600192915050565b50600292915050565b5f868686868686604051602001610c32969594939291906128cc565b6040516020818303038152906040528051906020012090509695505050505050565b7fb09aa5aeb3702cfd50b6b62bc4532604938f21248a27a1d5ca736082b6819cc1610c7e816112aa565b8887141580610c8d5750888514155b15610cd5576040517fffb03211000000000000000000000000000000000000000000000000000000008152600481018a90526024810186905260448101889052606401610b61565b5f610ce68b8b8b8b8b8b8b8b610df6565b9050610cf281846112b7565b5f5b8a811015610da75780827f4cf4410cc57040e44862ef0f45f3dd5a5e02db8eb8add648d4b0e236f1d07dca8e8e85818110610d3157610d31612955565b9050602002016020810190610d469190612982565b8d8d86818110610d5857610d58612955565b905060200201358c8c87818110610d7157610d71612955565b9050602002810190610d83919061299b565b8c8b604051610d97969594939291906128cc565b60405180910390a3600101610cf4565b508315610de957807f20fda5fd27a1ea7bf5b9567f143ac5470bb059374a27e8f67cb44f946f6d038785604051610de091815260200190565b60405180910390a25b5050505050505050505050565b5f8888888888888888604051602001610e16989796959493929190612acc565b60405160208183030381529060405280519060200120905098975050505050505050565b5f610e43611a9a565b805490915060ff68010000000000000000820416159067ffffffffffffffff165f81158015610e6f5750825b90505f8267ffffffffffffffff166001148015610e8b5750303b155b905081158015610e99575080155b15610ed0576040517ff92ee8a900000000000000000000000000000000000000000000000000000000815260040160405180910390fd5b84547fffffffffffffffffffffffffffffffffffffffffffffffff00000000000000001660011785558315610f315784547fffffffffffffffffffffffffffffffffffffffffffffff00ffffffffffffffff16680100000000000000001785555b610f3d89898989611ac2565b83156108585784547fffffffffffffffffffffffffffffffffffffffffffffff00ffffffffffffffff168555604051600181527fc7f505b2f371ae2175ee4913f4499e1f2633a7b5936321eed1cdaeb6115181d29060200160405180910390a1505050505050505050565b7ffd643c72710c63c0180259aba6b2d05451e3591a24e58b62239378085726f783610fd2816112aa565b7f9a37c2aa9d186a0969ff8a8267bf4e07e864c2f2768f5040949e28a624fb3600610ffc83610aad565b611051578261100b6002611ad6565b6110156001611ad6565b6040517f5ead8eb50000000000000000000000000000000000000000000000000000000081526004810193909352176024820152604401610b61565b5f838152602082905260408082208290555184917fbaa1eb22f2a492ba1a5fea61b8df4d27c6c8b5f3971e63bb58fa14ff72eedb7091a2505050565b5f8281527f02dd7bc7dec4dceedda775e58dd541e08a116c6c53815c0bd028192f7b62680060205260409020600101546110c6816112aa565b6109d88383611706565b5f80527f52fce5e8a5d0d9e8d1ea29f4525e512e9c27bf92cae50374d497f918ab48f3826020527fdd1864c1ab258d549957f6a4d7e3a5005661df58241dbbc1700fb170ef061546547fd8aa0f3194971a2a116679f7c2090f6939c8d4e01a2a8d7e41d55e5351469e639060ff1661114c5761114c8133611410565b878614158061115b5750878414155b156111a3576040517fffb03211000000000000000000000000000000000000000000000000000000008152600481018990526024810185905260448101879052606401610b61565b5f6111b48a8a8a8a8a8a8a8a610df6565b90506111c081856114b6565b5f5b89811015611294575f8b8b838181106111dd576111dd612955565b90506020020160208101906111f29190612982565b90505f8a8a8481811061120757611207612955565b905060200201359050365f8a8a8681811061122457611224612955565b9050602002810190611236919061299b565b915091506112468484848461151d565b84867fc2617efa69bab66782fa219543714338489c4e9e178271560a91b82c3f612b588686868660405161127d9493929190612916565b60405180910390a3505050508060010190506111c2565b5061129e8161159e565b50505050505050505050565b6112b48133611410565b50565b7f9a37c2aa9d186a0969ff8a8267bf4e07e864c2f2768f5040949e28a624fb36006112e1836109de565b1561132b57826112f05f611ad6565b6040517f5ead8eb500000000000000000000000000000000000000000000000000000000815260048101929092526024820152604401610b61565b5f6113547f9a37c2aa9d186a0969ff8a8267bf4e07e864c2f2768f5040949e28a624fb36015490565b90508083101561139a576040517f543366090000000000000000000000000000000000000000000000000000000081526004810184905260248101829052604401610b61565b6113a48342612b91565b5f9485526020929092525060409092209190915550565b5f7fffffffff0000000000000000000000000000000000000000000000000000000082167f4e2312e000000000000000000000000000000000000000000000000000000000148061086d575061086d82611af8565b5f8281527f02dd7bc7dec4dceedda775e58dd541e08a116c6c53815c0bd028192f7b6268006020908152604080832073ffffffffffffffffffffffffffffffffffffffff8516845290915290205460ff16610a7b576040517fe2517d3f00000000000000000000000000000000000000000000000000000000815273ffffffffffffffffffffffffffffffffffffffff8216600482015260248101839052604401610b61565b6114bf82610968565b6114ce57816112f06002611ad6565b80158015906114e357506114e18161098d565b155b15610a7b576040517f90a9a61800000000000000000000000000000000000000000000000000000000815260048101829052602401610b61565b5f808573ffffffffffffffffffffffffffffffffffffffff16858585604051611547929190612bc9565b5f6040518083038185875af1925050503d805f8114611581576040519150601f19603f3d011682016040523d82523d5f602084013e611586565b606091505b50915091506115958282611b8e565b50505050505050565b7f9a37c2aa9d186a0969ff8a8267bf4e07e864c2f2768f5040949e28a624fb36006115c882610968565b6115d757816112f06002611ad6565b5f9182526020526040902060019055565b5f8281527f02dd7bc7dec4dceedda775e58dd541e08a116c6c53815c0bd028192f7b6268006020818152604080842073ffffffffffffffffffffffffffffffffffffffff8616855290915282205460ff166116fd575f8481526020828152604080832073ffffffffffffffffffffffffffffffffffffffff87168452909152902080547fffffffffffffffffffffffffffffffffffffffffffffffffffffffffffffff001660011790556116993390565b73ffffffffffffffffffffffffffffffffffffffff168373ffffffffffffffffffffffffffffffffffffffff16857f2f8788117e7eff1d82e926ec794901d17c78024a50270940304540a733656f0d60405160405180910390a4600191505061086d565b5f91505061086d565b5f8281527f02dd7bc7dec4dceedda775e58dd541e08a116c6c53815c0bd028192f7b6268006020818152604080842073ffffffffffffffffffffffffffffffffffffffff8616855290915282205460ff16156116fd575f8481526020828152604080832073ffffffffffffffffffffffffffffffffffffffff8716808552925280832080547fffffffffffffffffffffffffffffffffffffffffffffffffffffffffffffff0016905551339287917ff6391f5c32d9c69d2a47ea670b442974b53935d1edc7fd64eb21e047a839171b9190a4600191505061086d565b3073ffffffffffffffffffffffffffffffffffffffff7f00000000000000000000000000000000000000000000000000000000000000001614806118af57507f000000000000000000000000000000000000000000000000000000000000000073ffffffffffffffffffffffffffffffffffffffff166118967f360894a13ba1a3210667c828492db98dca3e2076cc3735a920a3ca505d382bbc5473ffffffffffffffffffffffffffffffffffffffff1690565b73ffffffffffffffffffffffffffffffffffffffff1614155b156118e6576040517fe07c8dba00000000000000000000000000000000000000000000000000000000815260040160405180910390fd5b565b5f610a7b816112aa565b8173ffffffffffffffffffffffffffffffffffffffff166352d1902d6040518163ffffffff1660e01b8152600401602060405180830381865afa925050508015611977575060408051601f3d9081017fffffffffffffffffffffffffffffffffffffffffffffffffffffffffffffffe016820190925261197491810190612bd8565b60015b6119c5576040517f4c9c8ce300000000000000000000000000000000000000000000000000000000815273ffffffffffffffffffffffffffffffffffffffff83166004820152602401610b61565b7f360894a13ba1a3210667c828492db98dca3e2076cc3735a920a3ca505d382bbc8114611a21576040517faa1d49a400000000000000000000000000000000000000000000000000000000815260048101829052602401610b61565b610a5b8383611baa565b3073ffffffffffffffffffffffffffffffffffffffff7f000000000000000000000000000000000000000000000000000000000000000016146118e6576040517fe07c8dba00000000000000000000000000000000000000000000000000000000815260040160405180910390fd5b5f807ff0c57e16840df040f15088dc2f81fe391c3923bec73e23a9662efc9c229c6a0061086d565b611aca611c0c565b6109d884848484611c4a565b5f816003811115611ae957611ae96123b3565b600160ff919091161b92915050565b5f7fffffffff0000000000000000000000000000000000000000000000000000000082167f7965db0b00000000000000000000000000000000000000000000000000000000148061086d57507f01ffc9a7000000000000000000000000000000000000000000000000000000007fffffffff0000000000000000000000000000000000000000000000000000000083161461086d565b606082611ba357611b9e82611dc7565b61086d565b508061086d565b611bb382611e09565b60405173ffffffffffffffffffffffffffffffffffffffff8316907fbc7cd75a20ee27fd9adebab32041f755214dbc6bffa90cc0225b39da2e5c2d3b905f90a2805115611c0457610a5b8282611ed7565b610a7b611f56565b611c14611f8e565b6118e6576040517fd7e6bcf800000000000000000000000000000000000000000000000000000000815260040160405180910390fd5b611c52611c0c565b7f9a37c2aa9d186a0969ff8a8267bf4e07e864c2f2768f5040949e28a624fb3600611c7d5f306115e8565b5073ffffffffffffffffffffffffffffffffffffffff821615611ca657611ca45f836115e8565b505b5f5b8451811015611d3457611cf47fb09aa5aeb3702cfd50b6b62bc4532604938f21248a27a1d5ca736082b6819cc1868381518110611ce757611ce7612955565b60200260200101516115e8565b50611d2b7ffd643c72710c63c0180259aba6b2d05451e3591a24e58b62239378085726f783868381518110611ce757611ce7612955565b50600101611ca8565b505f5b8351811015611d7f57611d767fd8aa0f3194971a2a116679f7c2090f6939c8d4e01a2a8d7e41d55e5351469e63858381518110611ce757611ce7612955565b50600101611d37565b5060018101859055604080515f8152602081018790527f11c24f4ead16507c69ac467fbd5e4eed5fb5c699626d2cc6d66421df253886d5910160405180910390a15050505050565b805115611dd75780518082602001fd5b6040517fd6bda27500000000000000000000000000000000000000000000000000000000815260040160405180910390fd5b8073ffffffffffffffffffffffffffffffffffffffff163b5f03611e71576040517f4c9c8ce300000000000000000000000000000000000000000000000000000000815273ffffffffffffffffffffffffffffffffffffffff82166004820152602401610b61565b7f360894a13ba1a3210667c828492db98dca3e2076cc3735a920a3ca505d382bbc80547fffffffffffffffffffffffff00000000000000000000000000000000000000001673ffffffffffffffffffffffffffffffffffffffff92909216919091179055565b60605f808473ffffffffffffffffffffffffffffffffffffffff1684604051611f009190612bef565b5f60405180830381855af49150503d805f8114611f38576040519150601f19603f3d011682016040523d82523d5f602084013e611f3d565b606091505b5091509150611f4d858383611fac565b95945050505050565b34156118e6576040517fb398979f00000000000000000000000000000000000000000000000000000000815260040160405180910390fd5b5f611f97611a9a565b5468010000000000000000900460ff16919050565b606082611fc157611fbc82611dc7565b610aeb565b8151158015611fe5575073ffffffffffffffffffffffffffffffffffffffff84163b155b15612034576040517f9996b31500000000000000000000000000000000000000000000000000000000815273ffffffffffffffffffffffffffffffffffffffff85166004820152602401610b61565b5092915050565b803573ffffffffffffffffffffffffffffffffffffffff8116811461205e575f80fd5b919050565b5f8083601f840112612073575f80fd5b50813567ffffffffffffffff81111561208a575f80fd5b6020830191508360208285010111156120a1575f80fd5b9250929050565b5f805f805f805f60c0888a0312156120be575f80fd5b6120c78861203b565b965060208801359550604088013567ffffffffffffffff8111156120e9575f80fd5b6120f58a828b01612063565b989b979a50986060810135976080820135975060a09091013595509350505050565b5f60208284031215612127575f80fd5b81357fffffffff0000000000000000000000000000000000000000000000000000000081168114610aeb575f80fd5b5f805f805f8060a0878903121561216b575f80fd5b6121748761203b565b955060208701359450604087013567ffffffffffffffff811115612196575f80fd5b6121a289828a01612063565b979a9699509760608101359660809091013595509350505050565b5f602082840312156121cd575f80fd5b5035919050565b7f4e487b71000000000000000000000000000000000000000000000000000000005f52604160045260245ffd5b604051601f82017fffffffffffffffffffffffffffffffffffffffffffffffffffffffffffffffe016810167ffffffffffffffff81118282101715612248576122486121d4565b604052919050565b5f82601f83011261225f575f80fd5b813567ffffffffffffffff811115612279576122796121d4565b6122aa60207fffffffffffffffffffffffffffffffffffffffffffffffffffffffffffffffe0601f84011601612201565b8181528460208386010111156122be575f80fd5b816020850160208301375f918101602001919091529392505050565b5f805f80608085870312156122ed575f80fd5b6122f68561203b565b93506123046020860161203b565b925060408501359150606085013567ffffffffffffffff811115612326575f80fd5b61233287828801612250565b91505092959194509250565b5f806040838503121561234f575f80fd5b8235915061235f6020840161203b565b90509250929050565b5f8060408385031215612379575f80fd5b6123828361203b565b9150602083013567ffffffffffffffff81111561239d575f80fd5b6123a985828601612250565b9150509250929050565b7f4e487b71000000000000000000000000000000000000000000000000000000005f52602160045260245ffd5b6020810160048310612419577f4e487b71000000000000000000000000000000000000000000000000000000005f52602160045260245ffd5b91905290565b5f8083601f84011261242f575f80fd5b50813567ffffffffffffffff811115612446575f80fd5b6020830191508360208260051b85010111156120a1575f80fd5b5f805f805f805f805f60c08a8c031215612478575f80fd5b893567ffffffffffffffff81111561248e575f80fd5b61249a8c828d0161241f565b909a5098505060208a013567ffffffffffffffff8111156124b9575f80fd5b6124c58c828d0161241f565b90985096505060408a013567ffffffffffffffff8111156124e4575f80fd5b6124f08c828d0161241f565b9a9d999c50979a969997986060880135976080810135975060a0013595509350505050565b602081525f82518060208401528060208501604085015e5f6040828501015260407fffffffffffffffffffffffffffffffffffffffffffffffffffffffffffffffe0601f83011684010191505092915050565b5f805f805f805f8060a0898b03121561257f575f80fd5b883567ffffffffffffffff811115612595575f80fd5b6125a18b828c0161241f565b909950975050602089013567ffffffffffffffff8111156125c0575f80fd5b6125cc8b828c0161241f565b909750955050604089013567ffffffffffffffff8111156125eb575f80fd5b6125f78b828c0161241f565b999c989b509699959896976060870135966080013595509350505050565b5f67ffffffffffffffff82111561262e5761262e6121d4565b5060051b60200190565b5f82601f830112612647575f80fd5b813561265a61265582612615565b612201565b8082825260208201915060208360051b86010192508583111561267b575f80fd5b602085015b83811015612698578035835260209283019201612680565b5095945050505050565b5f805f805f60a086880312156126b6575f80fd5b6126bf8661203b565b94506126cd6020870161203b565b9350604086013567ffffffffffffffff8111156126e8575f80fd5b6126f488828901612638565b935050606086013567ffffffffffffffff811115612710575f80fd5b61271c88828901612638565b925050608086013567ffffffffffffffff811115612738575f80fd5b61274488828901612250565b9150509295509295909350565b5f82601f830112612760575f80fd5b813561276e61265582612615565b8082825260208201915060208360051b86010192508583111561278f575f80fd5b602085015b83811015612698576127a58161203b565b835260209283019201612794565b5f805f80608085870312156127c6575f80fd5b84359350602085013567ffffffffffffffff8111156127e3575f80fd5b6127ef87828801612751565b935050604085013567ffffffffffffffff81111561280b575f80fd5b61281787828801612751565b9250506128266060860161203b565b905092959194509250565b5f805f805f60a08688031215612845575f80fd5b61284e8661203b565b945061285c6020870161203b565b93506040860135925060608601359150608086013567ffffffffffffffff811115612738575f80fd5b81835281816020850137505f602082840101525f60207fffffffffffffffffffffffffffffffffffffffffffffffffffffffffffffffe0601f840116840101905092915050565b73ffffffffffffffffffffffffffffffffffffffff8716815285602082015260a060408201525f61290160a083018688612885565b60608301949094525060800152949350505050565b73ffffffffffffffffffffffffffffffffffffffff85168152836020820152606060408201525f61294b606083018486612885565b9695505050505050565b7f4e487b71000000000000000000000000000000000000000000000000000000005f52603260045260245ffd5b5f60208284031215612992575f80fd5b610aeb8261203b565b5f8083357fffffffffffffffffffffffffffffffffffffffffffffffffffffffffffffffe18436030181126129ce575f80fd5b83018035915067ffffffffffffffff8211156129e8575f80fd5b6020019150368190038213156120a1575f80fd5b5f8383855260208501945060208460051b820101835f5b86811015612ac0577fffffffffffffffffffffffffffffffffffffffffffffffffffffffffffffffe084840301885281357fffffffffffffffffffffffffffffffffffffffffffffffffffffffffffffffe1873603018112612a73575f80fd5b860160208101903567ffffffffffffffff811115612a8f575f80fd5b803603821315612a9d575f80fd5b612aa8858284612885565b60209a8b019a90955093909301925050600101612a13565b50909695505050505050565b60a080825281018890525f8960c08301825b8b811015612b195773ffffffffffffffffffffffffffffffffffffffff612b048461203b565b16825260209283019290910190600101612ade565b5083810360208501528881527f07ffffffffffffffffffffffffffffffffffffffffffffffffffffffffffffff891115612b51575f80fd5b8860051b9150818a60208301370182810360209081016040850152612b7990820187896129fc565b60608401959095525050608001529695505050505050565b8082018082111561086d577f4e487b71000000000000000000000000000000000000000000000000000000005f52601160045260245ffd5b818382375f9101908152919050565b5f60208284031215612be8575f80fd5b5051919050565b5f82518060208501845e5f92019182525091905056fea164736f6c634300081a000a","linkReferences":{}},"methodIdentifiers":{"CANCELLER_ROLE()":"b08e51c0","DEFAULT_ADMIN_ROLE()":"a217fddf","EXECUTOR_ROLE()":"07bd0265","PROPOSER_ROLE()":"8f61f4f5","UPGRADE_INTERFACE_VERSION()":"ad3cb1cc","cancel(bytes32)":"c4d252f5","execute(address,uint256,bytes,bytes32,bytes32)":"134008d3","executeBatch(address[],uint256[],bytes[],bytes32,bytes32)":"e38335e5","getMinDelay()":"f27a0c92","getOperationState(bytes32)":"7958004c","getRoleAdmin(bytes32)":"248a9ca3","getTimestamp(bytes32)":"d45c4435","grantRole(bytes32,address)":"2f2ff15d","hasRole(bytes32,address)":"91d14854","hashOperation(address,uint256,bytes,bytes32,bytes32)":"8065657f","hashOperationBatch(address[],uint256[],bytes[],bytes32,bytes32)":"b1c5f427","initialize(uint256,address[],address[],address)":"c4c4c7b3","isOperation(bytes32)":"31d50750","isOperationDone(bytes32)":"2ab0f529","isOperationPending(bytes32)":"584b153e","isOperationReady(bytes32)":"13bc9f20","onERC1155BatchReceived(address,address,uint256[],uint256[],bytes)":"bc197c81","onERC1155Received(address,address,uint256,uint256,bytes)":"f23a6e61","onERC721Received(address,address,uint256,bytes)":"150b7a02","proxiableUUID()":"52d1902d","renounceRole(bytes32,address)":"36568abe","revokeRole(bytes32,address)":"d547741f","schedule(address,uint256,bytes,bytes32,bytes32,uint256)":"01d5062a","scheduleBatch(address[],uint256[],bytes[],bytes32,bytes32,uint256)":"8f2a0bb0","supportsInterface(bytes4)":"01ffc9a7","updateDelay(uint256)":"64d62353","upgradeToAndCall(address,bytes)":"4f1ef286"},"storageLayout":{"storage":[],"types":{}},"id":119}