{"abi":[{"type":"constructor","inputs":[],"stateMutability":"nonpayable"},{"type":"function","name":"FEE_COLLECTOR","inputs":[],"outputs":[{"name":"","type":"address","internalType":"address"}],"stateMutability":"view"},{"type":"function","name":"UPGRADE_INTERFACE_VERSION","inputs":[],"outputs":[{"name":"","type":"string","internalType":"string"}],"stateMutability":"view"},{"type":"function","name":"balanceOf","inputs":[{"name":"account","type":"address","internalType":"address"}],"outputs":[{"name":"","type":"uint256","internalType":"uint256"}],"stateMutability":"view"},{"type":"function","name":"earned","inputs":[{"name":"account","type":"address","internalType":"address"}],"outputs":[{"name":"","type":"uint256","internalType":"uint256"}],"stateMutability":"view"},{"type":"function","name":"getReward","inputs":[],"outputs":[{"name":"","type":"uint256","internalType":"uint256"}],"stateMutability":"nonpayable"},{"type":"function","name":"getRewardForDuration","inputs":[],"outputs":[{"name":"","type":"uint256","internalType":"uint256"}],"stateMutability":"view"},{"type":"function","name":"initialize","inputs":[{"name":"_bgt","type":"address","internalType":"address"},{"name":"_feeCollector","type":"address","internalType":"address"},{"name":"_governance","type":"address","internalType":"address"},{"name":"_rewardToken","type":"address","internalType":"address"}],"outputs":[],"stateMutability":"nonpayable"},{"type":"function","name":"lastTimeRewardApplicable","inputs":[],"outputs":[{"name":"","type":"uint256","internalType":"uint256"}],"stateMutability":"view"},{"type":"function","name":"lastUpdateTime","inputs":[],"outputs":[{"name":"","type":"uint256","internalType":"uint256"}],"stateMutability":"view"},{"type":"function","name":"notifyRewardAmount","inputs":[{"name":"reward","type":"uint256","internalType":"uint256"}],"outputs":[],"stateMutability":"nonpayable"},{"type":"function","name":"owner","inputs":[],"outputs":[{"name":"","type":"address","internalType":"address"}],"stateMutability":"view"},{"type":"function","name":"periodFinish","inputs":[],"outputs":[{"name":"","type":"uint256","internalType":"uint256"}],"stateMutability":"view"},{"type":"function","name":"proxiableUUID","inputs":[],"outputs":[{"name":"","type":"bytes32","internalType":"bytes32"}],"stateMutability":"view"},{"type":"function","name":"recoverERC20","inputs":[{"name":"tokenAddress","type":"address","internalType":"address"},{"name":"tokenAmount","type":"uint256","internalType":"uint256"}],"outputs":[],"stateMutability":"nonpayable"},{"type":"function","name":"renounceOwnership","inputs":[],"outputs":[],"stateMutability":"nonpayable"},{"type":"function","name":"rewardPerToken","inputs":[],"outputs":[{"name":"","type":"uint256","internalType":"uint256"}],"stateMutability":"view"},{"type":"function","name":"rewardPerTokenStored","inputs":[],"outputs":[{"name":"","type":"uint256","internalType":"uint256"}],"stateMutability":"view"},{"type":"function","name":"rewardRate","inputs":[],"outputs":[{"name":"","type":"uint256","internalType":"uint256"}],"stateMutability":"view"},{"type":"function","name":"rewardToken","inputs":[],"outputs":[{"name":"","type":"address","internalType":"contract IERC20"}],"stateMutability":"view"},{"type":"function","name":"rewards","inputs":[{"name":"account","type":"address","internalType":"address"}],"outputs":[{"name":"","type":"uint256","internalType":"uint256"}],"stateMutability":"view"},{"type":"function","name":"rewardsDuration","inputs":[],"outputs":[{"name":"","type":"uint256","internalType":"uint256"}],"stateMutability":"view"},{"type":"function","name":"setRewardsDuration","inputs":[{"name":"_rewardsDuration","type":"uint256","internalType":"uint256"}],"outputs":[],"stateMutability":"nonpayable"},{"type":"function","name":"stake","inputs":[{"name":"account","type":"address","internalType":"address"},{"name":"amount","type":"uint256","internalType":"uint256"}],"outputs":[],"stateMutability":"nonpayable"},{"type":"function","name":"stakeToken","inputs":[],"outputs":[{"name":"","type":"address","internalType":"contract IERC20"}],"stateMutability":"view"},{"type":"function","name":"totalSupply","inputs":[],"outputs":[{"name":"","type":"uint256","internalType":"uint256"}],"stateMutability":"view"},{"type":"function","name":"transferOwnership","inputs":[{"name":"newOwner","type":"address","internalType":"address"}],"outputs":[],"stateMutability":"nonpayable"},{"type":"function","name":"undistributedRewards","inputs":[],"outputs":[{"name":"","type":"uint256","internalType":"uint256"}],"stateMutability":"view"},{"type":"function","name":"upgradeToAndCall","inputs":[{"name":"newImplementation","type":"address","internalType":"address"},{"name":"data","type":"bytes","internalType":"bytes"}],"outputs":[],"stateMutability":"payable"},{"type":"function","name":"userRewardPerTokenPaid","inputs":[{"name":"account","type":"address","internalType":"address"}],"outputs":[{"name":"","type":"uint256","internalType":"uint256"}],"stateMutability":"view"},{"type":"function","name":"withdraw","inputs":[{"name":"account","type":"address","internalType":"address"},{"name":"amount","type":"uint256","internalType":"uint256"}],"outputs":[],"stateMutability":"nonpayable"},{"type":"event","name":"Initialized","inputs":[{"name":"version","type":"uint64","indexed":false,"internalType":"uint64"}],"anonymous":false},{"type":"event","name":"OwnershipTransferred","inputs":[{"name":"previousOwner","type":"address","indexed":true,"internalType":"address"},{"name":"newOwner","type":"address","indexed":true,"internalType":"address"}],"anonymous":false},{"type":"event","name":"Recovered","inputs":[{"name":"token","type":"address","indexed":false,"internalType":"address"},{"name":"amount","type":"uint256","indexed":false,"internalType":"uint256"}],"anonymous":false},{"type":"event","name":"RewardAdded","inputs":[{"name":"reward","type":"uint256","indexed":false,"internalType":"uint256"}],"anonymous":false},{"type":"event","name":"RewardPaid","inputs":[{"name":"account","type":"address","indexed":true,"internalType":"address"},{"name":"to","type":"address","indexed":false,"internalType":"address"},{"name":"reward","type":"uint256","indexed":false,"internalType":"uint256"}],"anonymous":false},{"type":"event","name":"RewardsDurationUpdated","inputs":[{"name":"newDuration","type":"uint256","indexed":false,"internalType":"uint256"}],"anonymous":false},{"type":"event","name":"Staked","inputs":[{"name":"account","type":"address","indexed":true,"internalType":"address"},{"name":"amount","type":"uint256","indexed":false,"internalType":"uint256"}],"anonymous":false},{"type":"event","name":"Upgraded","inputs":[{"name":"implementation","type":"address","indexed":true,"internalType":"address"}],"anonymous":false},{"type":"event","name":"Withdrawn","inputs":[{"name":"account","type":"address","indexed":true,"internalType":"address"},{"name":"amount","type":"uint256","indexed":false,"internalType":"uint256"}],"anonymous":false},{"type":"error","name":"AddressEmptyCode","inputs":[{"name":"target","type":"address","internalType":"address"}]},{"type":"error","name":"AmountLessThanMinIncentiveRate","inputs":[]},{"type":"error","name":"CannotRecoverIncentiveToken","inputs":[]},{"type":"error","name":"CannotRecoverRewardToken","inputs":[]},{"type":"error","name":"CannotRecoverStakingToken","inputs":[]},{"type":"error","name":"CommissionChangeAlreadyQueued","inputs":[]},{"type":"error","name":"CommissionNotQueuedOrDelayNotPassed","inputs":[]},{"type":"error","name":"DepositNotMultipleOfGwei","inputs":[]},{"type":"error","name":"DepositValueTooHigh","inputs":[]},{"type":"error","name":"DonateAmountLessThanPayoutAmount","inputs":[]},{"type":"error","name":"ERC1967InvalidImplementation","inputs":[{"name":"implementation","type":"address","internalType":"address"}]},{"type":"error","name":"ERC1967NonPayable","inputs":[]},{"type":"error","name":"FailedCall","inputs":[]},{"type":"error","name":"IncentiveRateTooHigh","inputs":[]},{"type":"error","name":"IndexOutOfRange","inputs":[]},{"type":"error","name":"InsolventReward","inputs":[]},{"type":"error","name":"InsufficientDelegateStake","inputs":[]},{"type":"error","name":"InsufficientDeposit","inputs":[]},{"type":"error","name":"InsufficientIncentiveTokens","inputs":[]},{"type":"error","name":"InsufficientSelfStake","inputs":[]},{"type":"error","name":"InsufficientStake","inputs":[]},{"type":"error","name":"InvalidActivateBoostDelay","inputs":[]},{"type":"error","name":"InvalidArray","inputs":[]},{"type":"error","name":"InvalidBaseRate","inputs":[]},{"type":"error","name":"InvalidBoostMultiplier","inputs":[]},{"type":"error","name":"InvalidCommissionChangeDelay","inputs":[]},{"type":"error","name":"InvalidCommissionValue","inputs":[]},{"type":"error","name":"InvalidCredentialsLength","inputs":[]},{"type":"error","name":"InvalidDistribution","inputs":[]},{"type":"error","name":"InvalidDropBoostDelay","inputs":[]},{"type":"error","name":"InvalidIncentiveRate","inputs":[]},{"type":"error","name":"InvalidInitialization","inputs":[]},{"type":"error","name":"InvalidMaxIncentiveTokensCount","inputs":[]},{"type":"error","name":"InvalidMaxWeightPerVault","inputs":[]},{"type":"error","name":"InvalidMerkleRoot","inputs":[]},{"type":"error","name":"InvalidMinBoostedRewardRate","inputs":[]},{"type":"error","name":"InvalidProof","inputs":[]},{"type":"error","name":"InvalidPubKeyLength","inputs":[]},{"type":"error","name":"InvalidRewardAllocationWeights","inputs":[]},{"type":"error","name":"InvalidRewardClaimDelay","inputs":[]},{"type":"error","name":"InvalidRewardConvexity","inputs":[]},{"type":"error","name":"InvalidRewardRate","inputs":[]},{"type":"error","name":"InvalidSignatureLength","inputs":[]},{"type":"error","name":"InvalidStartBlock","inputs":[]},{"type":"error","name":"InvalidToken","inputs":[]},{"type":"error","name":"InvalidWeight","inputs":[]},{"type":"error","name":"InvalidateDefaultRewardAllocation","inputs":[]},{"type":"error","name":"InvariantCheckFailed","inputs":[]},{"type":"error","name":"MaxNumWeightsPerRewardAllocationIsZero","inputs":[]},{"type":"error","name":"MinIncentiveRateIsZero","inputs":[]},{"type":"error","name":"NotAContract","inputs":[]},{"type":"error","name":"NotApprovedSender","inputs":[]},{"type":"error","name":"NotBGT","inputs":[]},{"type":"error","name":"NotBlockRewardController","inputs":[]},{"type":"error","name":"NotDelegate","inputs":[]},{"type":"error","name":"NotDistributor","inputs":[]},{"type":"error","name":"NotEnoughBalance","inputs":[]},{"type":"error","name":"NotEnoughBoostedBalance","inputs":[]},{"type":"error","name":"NotEnoughTime","inputs":[]},{"type":"error","name":"NotFactoryVault","inputs":[]},{"type":"error","name":"NotFeeCollector","inputs":[]},{"type":"error","name":"NotIncentiveManager","inputs":[]},{"type":"error","name":"NotInitializing","inputs":[]},{"type":"error","name":"NotNewOperator","inputs":[]},{"type":"error","name":"NotOperator","inputs":[]},{"type":"error","name":"NotWhitelistedVault","inputs":[]},{"type":"error","name":"OperatorAlreadySet","inputs":[]},{"type":"error","name":"OwnableInvalidOwner","inputs":[{"name":"owner","type":"address","internalType":"address"}]},{"type":"error","name":"OwnableUnauthorizedAccount","inputs":[{"name":"account","type":"address","internalType":"address"}]},{"type":"error","name":"PayoutAmountIsZero","inputs":[]},{"type":"error","name":"RewardAllocationAlreadyQueued","inputs":[]},{"type":"error","name":"RewardAllocationBlockDelayTooLarge","inputs":[]},{"type":"error","name":"RewardCycleNotEnded","inputs":[]},{"type":"error","name":"RewardInactive","inputs":[]},{"type":"error","name":"RewardsDurationIsZero","inputs":[]},{"type":"error","name":"SafeERC20FailedOperation","inputs":[{"name":"token","type":"address","internalType":"address"}]},{"type":"error","name":"StakeAmountIsZero","inputs":[]},{"type":"error","name":"TimestampAlreadyProcessed","inputs":[]},{"type":"error","name":"TokenAlreadyWhitelistedOrLimitReached","inputs":[]},{"type":"error","name":"TokenNotWhitelisted","inputs":[]},{"type":"error","name":"TooManyWeights","inputs":[]},{"type":"error","name":"TotalSupplyOverflow","inputs":[]},{"type":"error","name":"UUPSUnauthorizedCallContext","inputs":[]},{"type":"error","name":"UUPSUnsupportedProxiableUUID","inputs":[{"name":"slot","type":"bytes32","internalType":"bytes32"}]},{"type":"error","name":"WithdrawAmountIsZero","inputs":[]},{"type":"error","name":"ZeroAddress","inputs":[]},{"type":"error","name":"ZeroOperatorOnFirstDeposit","inputs":[]},{"type":"error","name":"ZeroPercentageWeight","inputs":[]}],"bytecode":{"object":"0x60a060405230608052348015610013575f80fd5b5061001c610021565b6100d3565b7ff0c57e16840df040f15088dc2f81fe391c3923bec73e23a9662efc9c229c6a00805468010000000000000000900460ff16156100715760405163f92ee8a960e01b815260040160405180910390fd5b80546001600160401b03908116146100d05780546001600160401b0319166001600160401b0390811782556040519081527fc7f505b2f371ae2175ee4913f4499e1f2633a7b5936321eed1cdaeb6115181d29060200160405180910390a15b50565b608051611dcd6100f95f395f8181610da701528181610dd00152610ff10152611dcd5ff3fe6080604052600436106101c4575f3560e01c806380faa57d116100f2578063cc1a378f11610092578063f2fde38b11610062578063f2fde38b14610579578063f3fef3a314610598578063f7c618c1146105b7578063f8c8765e146105e3575f80fd5b8063cc1a378f1461051c578063cd3daf9d1461053b578063df136d651461054f578063ebe2b12b14610564575f80fd5b80638da5cb5b116100cd5780638da5cb5b1461044a578063ad3cb1cc14610493578063adc9772e146104e8578063c8f33c9114610507575f80fd5b806380faa57d146103d35780638980f11f146103e75780638b87634714610406575f80fd5b80633d18b9121161016857806370a082311161013857806370a082311461033d578063715018a61461037e5780637b0a47ee146103925780637f660b01146103a7575f80fd5b80633d18b912146102b25780634f1ef286146102c657806351ed6a30146102d957806352d1902d14610329575f80fd5b80631c1f78eb116101a35780631c1f78eb14610253578063319ce2bb14610267578063386a95251461027c5780633c6b16ab14610291575f80fd5b80628cc262146101c85780630700037d146101fa57806318160ddd1461023e575b5f80fd5b3480156101d3575f80fd5b506101e76101e2366004611ac7565b610602565b6040519081526020015b60405180910390f35b348015610205575f80fd5b506101e7610214366004611ac7565b73ffffffffffffffffffffffffffffffffffffffff165f9081526009602052604090206001015490565b348015610249575f80fd5b506101e760055481565b34801561025e575f80fd5b506101e7610667565b348015610272575f80fd5b506101e760035481565b348015610287575f80fd5b506101e760075481565b34801561029c575f80fd5b506102b06102ab366004611ae0565b610684565b005b3480156102bd575f80fd5b506101e76106d8565b6102b06102d4366004611b24565b6106e3565b3480156102e4575f80fd5b505f546103049073ffffffffffffffffffffffffffffffffffffffff1681565b60405173ffffffffffffffffffffffffffffffffffffffff90911681526020016101f1565b348015610334575f80fd5b506101e7610702565b348015610348575f80fd5b506101e7610357366004611ac7565b73ffffffffffffffffffffffffffffffffffffffff165f9081526009602052604090205490565b348015610389575f80fd5b506102b0610730565b34801561039d575f80fd5b506101e760025481565b3480156103b2575f80fd5b50603c546103049073ffffffffffffffffffffffffffffffffffffffff1681565b3480156103de575f80fd5b506101e7610743565b3480156103f2575f80fd5b506102b0610401366004611c25565b610756565b348015610411575f80fd5b506101e7610420366004611ac7565b73ffffffffffffffffffffffffffffffffffffffff165f9081526009602052604090206002015490565b348015610455575f80fd5b507f9016d09d72d40fdae2fd8ceac6b6234c7706214fd39c1cd1e609a0528c1993005473ffffffffffffffffffffffffffffffffffffffff16610304565b34801561049e575f80fd5b506104db6040518060400160405280600581526020017f352e302e3000000000000000000000000000000000000000000000000000000081525081565b6040516101f19190611c4d565b3480156104f3575f80fd5b506102b0610502366004611c25565b61085d565b348015610512575f80fd5b506101e760085481565b348015610527575f80fd5b506102b0610536366004611ae0565b6108ae565b348015610546575f80fd5b506101e76108bf565b34801561055a575f80fd5b506101e760045481565b34801561056f575f80fd5b506101e760065481565b348015610584575f80fd5b506102b0610593366004611ac7565b610908565b3480156105a3575f80fd5b506102b06105b2366004611c25565b61096d565b3480156105c2575f80fd5b506001546103049073ffffffffffffffffffffffffffffffffffffffff1681565b3480156105ee575f80fd5b506102b06105fd366004611ca0565b6109be565b73ffffffffffffffffffffffffffffffffffffffff81165f908152600960205260408120805460018201546002830154848161063c6108bf565b0390506106528482670de0b6b3a7640000610b80565b61065c9084611d1e565b979650505050505050565b5f61067f600254600754670de0b6b3a7640000610b80565b905090565b603c5473ffffffffffffffffffffffffffffffffffffffff1633146106cc576106cc7f73fcd3fe00000000000000000000000000000000000000000000000000000000610c31565b6106d581610c39565b50565b5f61067f3333610ce8565b6106eb610d8f565b6106f482610e93565b6106fe8282610e9b565b5050565b5f61070b610fd9565b507f360894a13ba1a3210667c828492db98dca3e2076cc3735a920a3ca505d382bbc90565b610738611048565b6107415f6110d6565b565b5f61067f42600654808218908211021890565b61075e611048565b60015473ffffffffffffffffffffffffffffffffffffffff908116908316036107aa576107aa7fe4ea100b00000000000000000000000000000000000000000000000000000000610c31565b6108096107eb7f9016d09d72d40fdae2fd8ceac6b6234c7706214fd39c1cd1e609a0528c1993005473ffffffffffffffffffffffffffffffffffffffff1690565b73ffffffffffffffffffffffffffffffffffffffff8416908361116b565b6040805173ffffffffffffffffffffffffffffffffffffffff84168152602081018390527f8c1256b8896378cd5044f80c202f9772b9d77dc85c8a6eb51967210b09bfaa2891015b60405180910390a15050565b5f5473ffffffffffffffffffffffffffffffffffffffff1633146108a4576108a47f53f0a59600000000000000000000000000000000000000000000000000000000610c31565b6106fe82826111f8565b6108b6611048565b6106d5816112ec565b6005545f908082036108d357505060045490565b5f6008546108df610743565b0390505f6108f06002548385610b80565b9050806004546109009190611d1e565b935050505090565b610910611048565b73ffffffffffffffffffffffffffffffffffffffff8116610964576040517f1e4fbdf70000000000000000000000000000000000000000000000000000000081525f60048201526024015b60405180910390fd5b6106d5816110d6565b5f5473ffffffffffffffffffffffffffffffffffffffff1633146109b4576109b47f53f0a59600000000000000000000000000000000000000000000000000000000610c31565b6106fe8282611357565b5f6109c7611470565b805490915060ff68010000000000000000820416159067ffffffffffffffff165f811580156109f35750825b90505f8267ffffffffffffffff166001148015610a0f5750303b155b905081158015610a1d575080155b15610a54576040517ff92ee8a900000000000000000000000000000000000000000000000000000000815260040160405180910390fd5b84547fffffffffffffffffffffffffffffffffffffffffffffffff00000000000000001660011785558315610ab55784547fffffffffffffffffffffffffffffffffffffffffffffff00ffffffffffffffff16680100000000000000001785555b610abe8761149a565b610acc898762093a806114ab565b610ad461150c565b603c80547fffffffffffffffffffffffff00000000000000000000000000000000000000001673ffffffffffffffffffffffffffffffffffffffff8a161790558315610b755784547fffffffffffffffffffffffffffffffffffffffffffffff00ffffffffffffffff168555604051600181527fc7f505b2f371ae2175ee4913f4499e1f2633a7b5936321eed1cdaeb6115181d29060200160405180910390a15b505050505050505050565b82820281838583041485151702610c26577fffffffffffffffffffffffffffffffffffffffffffffffffffffffffffffffff8385098181108201900382848609835f038416828511610bd95763ae47f7025f526004601cfd5b93849004938382119092035f839003839004600101029203041760026003830281188084028203028084028203028084028203028084028203028084028203028084029091030202610c2a565b8190045b9392505050565b805f5260045ffd5b5f610c4381611514565b610c55670de0b6b3a764000083611d31565b91506005545f14158015610c6a575060065442105b15610c8457610c77611587565b610c819083611d1e565b91505b8160035f828254610c959190611d1e565b90915550610ca390506115a4565b60055415610cb857610cb3611679565b426008555b6040518281527fde88a922e0d3b88b24e9623efeb464919c6bf9f66857a65e2bfcf2ce87a9433d90602001610851565b5f82610cf381611514565b73ffffffffffffffffffffffffffffffffffffffff84165f90815260096020526040902060018101548015610d86575f6001830155610d3285826116c3565b6040805173ffffffffffffffffffffffffffffffffffffffff8781168252602082018490528816917f540798df468d7b23d11f156fdb954cb19ad414d150722a7b6d55ba369dea792e910160405180910390a25b95945050505050565b3073ffffffffffffffffffffffffffffffffffffffff7f0000000000000000000000000000000000000000000000000000000000000000161480610e5c57507f000000000000000000000000000000000000000000000000000000000000000073ffffffffffffffffffffffffffffffffffffffff16610e437f360894a13ba1a3210667c828492db98dca3e2076cc3735a920a3ca505d382bbc5473ffffffffffffffffffffffffffffffffffffffff1690565b73ffffffffffffffffffffffffffffffffffffffff1614155b15610741576040517fe07c8dba00000000000000000000000000000000000000000000000000000000815260040160405180910390fd5b6106d5611048565b8173ffffffffffffffffffffffffffffffffffffffff166352d1902d6040518163ffffffff1660e01b8152600401602060405180830381865afa925050508015610f20575060408051601f3d9081017fffffffffffffffffffffffffffffffffffffffffffffffffffffffffffffffe0168201909252610f1d91810190611d48565b60015b610f6e576040517f4c9c8ce300000000000000000000000000000000000000000000000000000000815273ffffffffffffffffffffffffffffffffffffffff8316600482015260240161095b565b7f360894a13ba1a3210667c828492db98dca3e2076cc3735a920a3ca505d382bbc8114610fca576040517faa1d49a40000000000000000000000000000000000000000000000000000000081526004810182905260240161095b565b610fd483836116e7565b505050565b3073ffffffffffffffffffffffffffffffffffffffff7f00000000000000000000000000000000000000000000000000000000000000001614610741576040517fe07c8dba00000000000000000000000000000000000000000000000000000000815260040160405180910390fd5b336110877f9016d09d72d40fdae2fd8ceac6b6234c7706214fd39c1cd1e609a0528c1993005473ffffffffffffffffffffffffffffffffffffffff1690565b73ffffffffffffffffffffffffffffffffffffffff1614610741576040517f118cdaa700000000000000000000000000000000000000000000000000000000815233600482015260240161095b565b7f9016d09d72d40fdae2fd8ceac6b6234c7706214fd39c1cd1e609a0528c19930080547fffffffffffffffffffffffff0000000000000000000000000000000000000000811673ffffffffffffffffffffffffffffffffffffffff848116918217845560405192169182907f8be0079c531659141344cd1fd0a4f28419497f9722a3daafe3b4186f6b6457e0905f90a3505050565b6040805173ffffffffffffffffffffffffffffffffffffffff8416602482015260448082018490528251808303909101815260649091019091526020810180517bffffffffffffffffffffffffffffffffffffffffffffffffffffffff167fa9059cbb00000000000000000000000000000000000000000000000000000000179052610fd4908490611749565b805f03611228576112287f5ce91fd000000000000000000000000000000000000000000000000000000000610c31565b60055415801561123957505f600354115b1561124657611246611679565b61124f82611514565b600554818101818111611285576112857fe5cfe95700000000000000000000000000000000000000000000000000000000610c31565b6005555073ffffffffffffffffffffffffffffffffffffffff82165f8181526009602090815260409182902080548501905590518381527f9e71bc8eea02a63969f509818f2dafb9254532904319f9dbda79b67bd34a5f3d91015b60405180910390a25050565b805f0361131c5761131c7f359f174d00000000000000000000000000000000000000000000000000000000610c31565b60078190556040518181527ffb46ca5a5e06d4540d6387b930a7c978bce0db5f449ec6b3f5d07c6e1d44f2d39060200160405180910390a150565b805f03611387576113877fa393d14b00000000000000000000000000000000000000000000000000000000610c31565b61139082611514565b73ffffffffffffffffffffffffffffffffffffffff82165f9081526009602052604090208054828110156113e7576113e77ff1bc94d200000000000000000000000000000000000000000000000000000000610c31565b82900390556005805482810390915581148015611405575060065442105b1561142857611412611587565b60035f8282546114229190611d1e565b90915550505b8173ffffffffffffffffffffffffffffffffffffffff167f7084f5476618d8e60b11ef0d7d3f06914655adb8793e28ff7f018d4c76d505d5826040516112e091815260200190565b5f807ff0c57e16840df040f15088dc2f81fe391c3923bec73e23a9662efc9c229c6a005b92915050565b6114a26117ee565b6106d58161182c565b6114b36117ee565b5f805473ffffffffffffffffffffffffffffffffffffffff9485167fffffffffffffffffffffffff0000000000000000000000000000000000000000918216179091556001805493909416921691909117909155600755565b6107416117ee565b5f61151d6108bf565b6004819055905061152c610743565b60085573ffffffffffffffffffffffffffffffffffffffff8216156106fe5773ffffffffffffffffffffffffffffffffffffffff82165f90815260096020526040902061157883610602565b60028201929092556001015550565b5f80426006540390508060025461159e9190611d31565b91505090565b6001546040517f70a0823100000000000000000000000000000000000000000000000000000000815230600482015273ffffffffffffffffffffffffffffffffffffffff909116906370a0823190602401602060405180830381865afa158015611610573d5f803e3d5ffd5b505050506040513d601f19601f820116820180604052508101906116349190611d48565b670de0b6b3a764000060035461164a9190611d5f565b1115610741576107417ff4ba521f00000000000000000000000000000000000000000000000000000000610c31565b6007546003545f9061168c908390611d5f565b6002819055905061169d8242611d1e565b6006556116aa8282611d31565b60035f8282546116ba9190611d97565b90915550505050565b6001546106fe9073ffffffffffffffffffffffffffffffffffffffff16838361116b565b6116f082611834565b60405173ffffffffffffffffffffffffffffffffffffffff8316907fbc7cd75a20ee27fd9adebab32041f755214dbc6bffa90cc0225b39da2e5c2d3b905f90a280511561174157610fd48282611902565b6106fe611978565b5f8060205f8451602086015f885af180611768576040513d5f823e3d81fd5b50505f513d9150811561177f578060011415611799565b73ffffffffffffffffffffffffffffffffffffffff84163b155b156117e8576040517f5274afe700000000000000000000000000000000000000000000000000000000815273ffffffffffffffffffffffffffffffffffffffff8516600482015260240161095b565b50505050565b6117f66119b0565b610741576040517fd7e6bcf800000000000000000000000000000000000000000000000000000000815260040160405180910390fd5b6109106117ee565b8073ffffffffffffffffffffffffffffffffffffffff163b5f0361189c576040517f4c9c8ce300000000000000000000000000000000000000000000000000000000815273ffffffffffffffffffffffffffffffffffffffff8216600482015260240161095b565b7f360894a13ba1a3210667c828492db98dca3e2076cc3735a920a3ca505d382bbc80547fffffffffffffffffffffffff00000000000000000000000000000000000000001673ffffffffffffffffffffffffffffffffffffffff92909216919091179055565b60605f808473ffffffffffffffffffffffffffffffffffffffff168460405161192b9190611daa565b5f60405180830381855af49150503d805f8114611963576040519150601f19603f3d011682016040523d82523d5f602084013e611968565b606091505b5091509150610d868583836119ce565b3415610741576040517fb398979f00000000000000000000000000000000000000000000000000000000815260040160405180910390fd5b5f6119b9611470565b5468010000000000000000900460ff16919050565b6060826119e3576119de82611a5d565b610c2a565b8151158015611a07575073ffffffffffffffffffffffffffffffffffffffff84163b155b15611a56576040517f9996b31500000000000000000000000000000000000000000000000000000000815273ffffffffffffffffffffffffffffffffffffffff8516600482015260240161095b565b5080610c2a565b805115611a6d5780518082602001fd5b6040517fd6bda27500000000000000000000000000000000000000000000000000000000815260040160405180910390fd5b803573ffffffffffffffffffffffffffffffffffffffff81168114611ac2575f80fd5b919050565b5f60208284031215611ad7575f80fd5b610c2a82611a9f565b5f60208284031215611af0575f80fd5b5035919050565b7f4e487b71000000000000000000000000000000000000000000000000000000005f52604160045260245ffd5b5f8060408385031215611b35575f80fd5b611b3e83611a9f565b9150602083013567ffffffffffffffff811115611b59575f80fd5b8301601f81018513611b69575f80fd5b803567ffffffffffffffff811115611b8357611b83611af7565b6040517fffffffffffffffffffffffffffffffffffffffffffffffffffffffffffffffe0603f7fffffffffffffffffffffffffffffffffffffffffffffffffffffffffffffffe0601f8501160116810181811067ffffffffffffffff82111715611bef57611bef611af7565b604052818152828201602001871015611c06575f80fd5b816020840160208301375f602083830101528093505050509250929050565b5f8060408385031215611c36575f80fd5b611c3f83611a9f565b946020939093013593505050565b602081525f82518060208401528060208501604085015e5f6040828501015260407fffffffffffffffffffffffffffffffffffffffffffffffffffffffffffffffe0601f83011684010191505092915050565b5f805f8060808587031215611cb3575f80fd5b611cbc85611a9f565b9350611cca60208601611a9f565b9250611cd860408601611a9f565b9150611ce660608601611a9f565b905092959194509250565b7f4e487b71000000000000000000000000000000000000000000000000000000005f52601160045260245ffd5b8082018082111561149457611494611cf1565b808202811582820484141761149457611494611cf1565b5f60208284031215611d58575f80fd5b5051919050565b5f82611d92577f4e487b71000000000000000000000000000000000000000000000000000000005f52601260045260245ffd5b500490565b8181038181111561149457611494611cf1565b5f82518060208501845e5f92019182525091905056fea164736f6c634300081a000a","linkReferences":{}},"methodIdentifiers":{"FEE_COLLECTOR()":"7f660b01","UPGRADE_INTERFACE_VERSION()":"ad3cb1cc","balanceOf(address)":"70a08231","earned(address)":"008cc262","getReward()":"3d18b912","getRewardForDuration()":"1c1f78eb","initialize(address,address,address,address)":"f8c8765e","lastTimeRewardApplicable()":"80faa57d","lastUpdateTime()":"c8f33c91","notifyRewardAmount(uint256)":"3c6b16ab","owner()":"8da5cb5b","periodFinish()":"ebe2b12b","proxiableUUID()":"52d1902d","recoverERC20(address,uint256)":"8980f11f","renounceOwnership()":"715018a6","rewardPerToken()":"cd3daf9d","rewardPerTokenStored()":"df136d65","rewardRate()":"7b0a47ee","rewardToken()":"f7c618c1","rewards(address)":"0700037d","rewardsDuration()":"386a9525","setRewardsDuration(uint256)":"cc1a378f","stake(address,uint256)":"adc9772e","stakeToken()":"51ed6a30","totalSupply()":"18160ddd","transferOwnership(address)":"f2fde38b","undistributedRewards()":"319ce2bb","upgradeToAndCall(address,bytes)":"4f1ef286","userRewardPerTokenPaid(address)":"8b876347","withdraw(address,uint256)":"f3fef3a3"},"storageLayout":{"storage":[{"astId":68988,"contract":"src/pol/BGTStaker.sol:BGTStaker","label":"stakeToken","offset":0,"slot":"0","type":"t_contract(IERC20)52070"},{"astId":68992,"contract":"src/pol/BGTStaker.sol:BGTStaker","label":"rewardToken","offset":0,"slot":"1","type":"t_contract(IERC20)52070"},{"astId":68995,"contract":"src/pol/BGTStaker.sol:BGTStaker","label":"rewardRate","offset":0,"slot":"2","type":"t_uint256"},{"astId":68998,"contract":"src/pol/BGTStaker.sol:BGTStaker","label":"undistributedRewards","offset":0,"slot":"3","type":"t_uint256"},{"astId":69001,"contract":"src/pol/BGTStaker.sol:BGTStaker","label":"rewardPerTokenStored","offset":0,"slot":"4","type":"t_uint256"},{"astId":69004,"contract":"src/pol/BGTStaker.sol:BGTStaker","label":"totalSupply","offset":0,"slot":"5","type":"t_uint256"},{"astId":69007,"contract":"src/pol/BGTStaker.sol:BGTStaker","label":"periodFinish","offset":0,"slot":"6","type":"t_uint256"},{"astId":69010,"contract":"src/pol/BGTStaker.sol:BGTStaker","label":"rewardsDuration","offset":0,"slot":"7","type":"t_uint256"},{"astId":69013,"contract":"src/pol/BGTStaker.sol:BGTStaker","label":"lastUpdateTime","offset":0,"slot":"8","type":"t_uint256"},{"astId":69019,"contract":"src/pol/BGTStaker.sol:BGTStaker","label":"_accountInfo","offset":0,"slot":"9","type":"t_mapping(t_address,t_struct(Info)68981_storage)"},{"astId":69024,"contract":"src/pol/BGTStaker.sol:BGTStaker","label":"__gap","offset":0,"slot":"10","type":"t_array(t_uint256)50_storage"},{"astId":78526,"contract":"src/pol/BGTStaker.sol:BGTStaker","label":"FEE_COLLECTOR","offset":0,"slot":"60","type":"t_address"}],"types":{"t_address":{"encoding":"inplace","label":"address","numberOfBytes":"20"},"t_array(t_uint256)50_storage":{"encoding":"inplace","label":"uint256[50]","numberOfBytes":"1600","base":"t_uint256"},"t_contract(IERC20)52070":{"encoding":"inplace","label":"contract IERC20","numberOfBytes":"20"},"t_mapping(t_address,t_struct(Info)68981_storage)":{"encoding":"mapping","key":"t_address","label":"mapping(address => struct StakingRewards.Info)","numberOfBytes":"32","value":"t_struct(Info)68981_storage"},"t_struct(Info)68981_storage":{"encoding":"inplace","label":"struct StakingRewards.Info","numberOfBytes":"96","members":[{"astId":68976,"contract":"src/pol/BGTStaker.sol:BGTStaker","label":"balance","offset":0,"slot":"0","type":"t_uint256"},{"astId":68978,"contract":"src/pol/BGTStaker.sol:BGTStaker","label":"unclaimedReward","offset":0,"slot":"1","type":"t_uint256"},{"astId":68980,"contract":"src/pol/BGTStaker.sol:BGTStaker","label":"rewardsPerTokenPaid","offset":0,"slot":"2","type":"t_uint256"}]},"t_uint256":{"encoding":"inplace","label":"uint256","numberOfBytes":"32"}}},"id":133}