{"abi":[{"type":"function","name":"DEFAULT_ADMIN_ROLE","inputs":[],"outputs":[{"name":"","type":"bytes32","internalType":"bytes32"}],"stateMutability":"view"},{"type":"function","name":"MANAGER_ROLE","inputs":[],"outputs":[{"name":"","type":"bytes32","internalType":"bytes32"}],"stateMutability":"view"},{"type":"function","name":"getPrice","inputs":[{"name":"asset","type":"address","internalType":"address"}],"outputs":[{"name":"data","type":"tuple","internalType":"struct IPriceOracle.Data","components":[{"name":"price","type":"uint256","internalType":"uint256"},{"name":"publishTime","type":"uint256","internalType":"uint256"}]}],"stateMutability":"view"},{"type":"function","name":"getPriceNoOlderThan","inputs":[{"name":"asset","type":"address","internalType":"address"},{"name":"age","type":"uint256","internalType":"uint256"}],"outputs":[{"name":"data","type":"tuple","internalType":"struct IPriceOracle.Data","components":[{"name":"price","type":"uint256","internalType":"uint256"},{"name":"publishTime","type":"uint256","internalType":"uint256"}]}],"stateMutability":"view"},{"type":"function","name":"getPriceUnsafe","inputs":[{"name":"asset","type":"address","internalType":"address"}],"outputs":[{"name":"data","type":"tuple","internalType":"struct IPriceOracle.Data","components":[{"name":"price","type":"uint256","internalType":"uint256"},{"name":"publishTime","type":"uint256","internalType":"uint256"}]}],"stateMutability":"view"},{"type":"function","name":"getRoleAdmin","inputs":[{"name":"role","type":"bytes32","internalType":"bytes32"}],"outputs":[{"name":"","type":"bytes32","internalType":"bytes32"}],"stateMutability":"view"},{"type":"function","name":"grantRole","inputs":[{"name":"role","type":"bytes32","internalType":"bytes32"},{"name":"account","type":"address","internalType":"address"}],"outputs":[],"stateMutability":"nonpayable"},{"type":"function","name":"hasRole","inputs":[{"name":"role","type":"bytes32","internalType":"bytes32"},{"name":"account","type":"address","internalType":"address"}],"outputs":[{"name":"","type":"bool","internalType":"bool"}],"stateMutability":"view"},{"type":"function","name":"initialize","inputs":[{"name":"initialAdmin","type":"address","internalType":"address"}],"outputs":[],"stateMutability":"nonpayable"},{"type":"function","name":"priceAvailable","inputs":[{"name":"asset","type":"address","internalType":"address"}],"outputs":[{"name":"availability","type":"bool","internalType":"bool"}],"stateMutability":"view"},{"type":"function","name":"pythOracle","inputs":[],"outputs":[{"name":"","type":"address","internalType":"contract IPriceOracle"}],"stateMutability":"view"},{"type":"function","name":"renounceRole","inputs":[{"name":"role","type":"bytes32","internalType":"bytes32"},{"name":"callerConfirmation","type":"address","internalType":"address"}],"outputs":[],"stateMutability":"nonpayable"},{"type":"function","name":"revokeRole","inputs":[{"name":"role","type":"bytes32","internalType":"bytes32"},{"name":"account","type":"address","internalType":"address"}],"outputs":[],"stateMutability":"nonpayable"},{"type":"function","name":"setPythOracle","inputs":[{"name":"pythOracle_","type":"address","internalType":"address"}],"outputs":[],"stateMutability":"nonpayable"},{"type":"function","name":"setSpotOracle","inputs":[{"name":"spotOracle_","type":"address","internalType":"address"}],"outputs":[],"stateMutability":"nonpayable"},{"type":"function","name":"spotOracle","inputs":[],"outputs":[{"name":"","type":"address","internalType":"contract IPriceOracle"}],"stateMutability":"view"},{"type":"function","name":"supportsInterface","inputs":[{"name":"interfaceId","type":"bytes4","internalType":"bytes4"}],"outputs":[{"name":"","type":"bool","internalType":"bool"}],"stateMutability":"view"},{"type":"event","name":"Initialized","inputs":[{"name":"version","type":"uint64","indexed":false,"internalType":"uint64"}],"anonymous":false},{"type":"event","name":"PythOracleSet","inputs":[{"name":"pythOracle","type":"address","indexed":false,"internalType":"address"}],"anonymous":false},{"type":"event","name":"RoleAdminChanged","inputs":[{"name":"role","type":"bytes32","indexed":true,"internalType":"bytes32"},{"name":"previousAdminRole","type":"bytes32","indexed":true,"internalType":"bytes32"},{"name":"newAdminRole","type":"bytes32","indexed":true,"internalType":"bytes32"}],"anonymous":false},{"type":"event","name":"RoleGranted","inputs":[{"name":"role","type":"bytes32","indexed":true,"internalType":"bytes32"},{"name":"account","type":"address","indexed":true,"internalType":"address"},{"name":"sender","type":"address","indexed":true,"internalType":"address"}],"anonymous":false},{"type":"event","name":"RoleRevoked","inputs":[{"name":"role","type":"bytes32","indexed":true,"internalType":"bytes32"},{"name":"account","type":"address","indexed":true,"internalType":"address"},{"name":"sender","type":"address","indexed":true,"internalType":"address"}],"anonymous":false},{"type":"event","name":"SpotOracleSet","inputs":[{"name":"spotOracle","type":"address","indexed":false,"internalType":"address"}],"anonymous":false},{"type":"error","name":"AccessControlBadConfirmation","inputs":[]},{"type":"error","name":"AccessControlUnauthorizedAccount","inputs":[{"name":"account","type":"address","internalType":"address"},{"name":"neededRole","type":"bytes32","internalType":"bytes32"}]},{"type":"error","name":"InvalidInitialization","inputs":[]},{"type":"error","name":"NotInitializing","inputs":[]},{"type":"error","name":"UnavailableData","inputs":[{"name":"asset","type":"address","internalType":"address"}]},{"type":"error","name":"UnreliablePrice","inputs":[]},{"type":"error","name":"ZeroAddress","inputs":[]}],"bytecode":{"object":"0x6080604052348015600e575f80fd5b506114bb8061001c5f395ff3fe608060405234801561000f575f80fd5b5060043610610115575f3560e01c8063a217fddf116100ad578063d25f29a61161007d578063ec87621c11610063578063ec87621c146102c8578063f5d6ac90146102ef578063f989568d1461030f575f80fd5b8063d25f29a614610270578063d547741f146102b5575f80fd5b8063a217fddf14610230578063b5641f3a14610237578063c442b4391461024a578063c4d66de81461025d575f80fd5b806341976e09116100e857806341976e09146101995780635fc5e179146101c7578063622bd118146101da57806391d14854146101ed575f80fd5b806301ffc9a714610119578063248a9ca3146101415780632f2ff15d1461017157806336568abe14610186575b5f80fd5b61012c6101273660046112f8565b610322565b60405190151581526020015b60405180910390f35b61016361014f36600461133e565b5f9081526020819052604090206001015490565b604051908152602001610138565b61018461017f366004611378565b6103ba565b005b610184610194366004611378565b6103e4565b6101ac6101a73660046113a2565b610442565b60408051825181526020928301519281019290925201610138565b6101846101d53660046113a2565b61065b565b6101846101e83660046113a2565b610744565b61012c6101fb366004611378565b5f9182526020828152604080842073ffffffffffffffffffffffffffffffffffffffff93909316845291905290205460ff1690565b6101635f81565b61012c6102453660046113a2565b610825565b6101ac6102583660046113bb565b6108dc565b61018461026b3660046113a2565b610ad4565b6001546102909073ffffffffffffffffffffffffffffffffffffffff1681565b60405173ffffffffffffffffffffffffffffffffffffffff9091168152602001610138565b6101846102c3366004611378565b610c83565b6101637f241ecf16d79d0f8dbfb92cbc07fe17840425976cf0667f022fe9877caa831b0881565b6002546102909073ffffffffffffffffffffffffffffffffffffffff1681565b6101ac61031d3660046113a2565b610ca7565b5f7fffffffff0000000000000000000000000000000000000000000000000000000082167f7965db0b0000000000000000000000000000000000000000000000000000000014806103b457507f01ffc9a7000000000000000000000000000000000000000000000000000000007fffffffff000000000000000000000000000000000000000000000000000000008316145b92915050565b5f828152602081905260409020600101546103d481610e3f565b6103de8383610e4c565b50505050565b73ffffffffffffffffffffffffffffffffffffffff81163314610433576040517f6697b23200000000000000000000000000000000000000000000000000000000815260040160405180910390fd5b61043d8282610f45565b505050565b604080518082019091525f80825260208201525f8061046084610ffe565b9150915081610492576104927fe4e15bcd0000000000000000000000000000000000000000000000000000000061116d565b80610531576002546040517f41976e0900000000000000000000000000000000000000000000000000000000815273ffffffffffffffffffffffffffffffffffffffff8681166004830152909116906341976e09906024015b6040805180830381865afa158015610505573d5f803e3d5ffd5b505050506040513d601f19601f8201168201806040525081019061052991906113e3565b949350505050565b6002546040517f41976e0900000000000000000000000000000000000000000000000000000000815273ffffffffffffffffffffffffffffffffffffffff86811660048301526105299216906341976e09906024016040805180830381865afa1580156105a0573d5f803e3d5ffd5b505050506040513d601f19601f820116820180604052508101906105c491906113e3565b6001546040517f41976e0900000000000000000000000000000000000000000000000000000000815273ffffffffffffffffffffffffffffffffffffffff8881166004830152909116906341976e09906024015b6040805180830381865afa158015610632573d5f803e3d5ffd5b505050506040513d601f19601f8201168201806040525081019061065691906113e3565b611175565b7f241ecf16d79d0f8dbfb92cbc07fe17840425976cf0667f022fe9877caa831b0861068581610e3f565b73ffffffffffffffffffffffffffffffffffffffff82166106c9576106c97fd92e233d0000000000000000000000000000000000000000000000000000000061116d565b600180547fffffffffffffffffffffffff00000000000000000000000000000000000000001673ffffffffffffffffffffffffffffffffffffffff84169081179091556040519081527fe34308e5defb80eb2a70e56739f796249f5a6b81dca9544d2a27775dad4aecd5906020015b60405180910390a15050565b7f241ecf16d79d0f8dbfb92cbc07fe17840425976cf0667f022fe9877caa831b0861076e81610e3f565b73ffffffffffffffffffffffffffffffffffffffff82166107b2576107b27fd92e233d0000000000000000000000000000000000000000000000000000000061116d565b600280547fffffffffffffffffffffffff00000000000000000000000000000000000000001673ffffffffffffffffffffffffffffffffffffffff84169081179091556040519081527fad50c6353c28bb4c67268a71d1f313fc9630fd4a91a6f3185270ba60a28710c190602001610738565b6002545f9073ffffffffffffffffffffffffffffffffffffffff16156108d7576002546040517fb5641f3a00000000000000000000000000000000000000000000000000000000815273ffffffffffffffffffffffffffffffffffffffff84811660048301529091169063b5641f3a90602401602060405180830381865afa1580156108b3573d5f803e3d5ffd5b505050506040513d601f19601f820116820180604052508101906103b49190611457565b919050565b604080518082019091525f80825260208201525f806108fa85610ffe565b915091508161092c5761092c7fe4e15bcd0000000000000000000000000000000000000000000000000000000061116d565b806109d2576002546040517fc442b43900000000000000000000000000000000000000000000000000000000815273ffffffffffffffffffffffffffffffffffffffff8781166004830152602482018790529091169063c442b439906044016040805180830381865afa1580156109a5573d5f803e3d5ffd5b505050506040513d601f19601f820116820180604052508101906109c991906113e3565b925050506103b4565b6002546040517fc442b43900000000000000000000000000000000000000000000000000000000815273ffffffffffffffffffffffffffffffffffffffff878116600483015260248201879052610acb92169063c442b439906044016040805180830381865afa158015610a48573d5f803e3d5ffd5b505050506040513d601f19601f82011682018060405250810190610a6c91906113e3565b6001546040517fc442b43900000000000000000000000000000000000000000000000000000000815273ffffffffffffffffffffffffffffffffffffffff8981166004830152602482018990529091169063c442b43990604401610618565b95945050505050565b5f610add611243565b805490915060ff68010000000000000000820416159067ffffffffffffffff165f81158015610b095750825b90505f8267ffffffffffffffff166001148015610b255750303b155b905081158015610b33575080155b15610b6a576040517ff92ee8a900000000000000000000000000000000000000000000000000000000815260040160405180910390fd5b84547fffffffffffffffffffffffffffffffffffffffffffffffff00000000000000001660011785558315610bcb5784547fffffffffffffffffffffffffffffffffffffffffffffff00ffffffffffffffff16680100000000000000001785555b73ffffffffffffffffffffffffffffffffffffffff8616610c0f57610c0f7fd92e233d0000000000000000000000000000000000000000000000000000000061116d565b610c195f87610e4c565b508315610c7b5784547fffffffffffffffffffffffffffffffffffffffffffffff00ffffffffffffffff168555604051600181527fc7f505b2f371ae2175ee4913f4499e1f2633a7b5936321eed1cdaeb6115181d29060200160405180910390a15b505050505050565b5f82815260208190526040902060010154610c9d81610e3f565b6103de8383610f45565b604080518082019091525f80825260208201525f80610cc584610ffe565b9150915081610cf757610cf77fe4e15bcd0000000000000000000000000000000000000000000000000000000061116d565b80610d54576002546040517ff989568d00000000000000000000000000000000000000000000000000000000815273ffffffffffffffffffffffffffffffffffffffff86811660048301529091169063f989568d906024016104eb565b6002546040517ff989568d00000000000000000000000000000000000000000000000000000000815273ffffffffffffffffffffffffffffffffffffffff868116600483015261052992169063f989568d906024016040805180830381865afa158015610dc3573d5f803e3d5ffd5b505050506040513d601f19601f82011682018060405250810190610de791906113e3565b6001546040517ff989568d00000000000000000000000000000000000000000000000000000000815273ffffffffffffffffffffffffffffffffffffffff88811660048301529091169063f989568d90602401610618565b610e49813361126b565b50565b5f8281526020818152604080832073ffffffffffffffffffffffffffffffffffffffff8516845290915281205460ff16610f3e575f8381526020818152604080832073ffffffffffffffffffffffffffffffffffffffff86168452909152902080547fffffffffffffffffffffffffffffffffffffffffffffffffffffffffffffff00166001179055610edc3390565b73ffffffffffffffffffffffffffffffffffffffff168273ffffffffffffffffffffffffffffffffffffffff16847f2f8788117e7eff1d82e926ec794901d17c78024a50270940304540a733656f0d60405160405180910390a45060016103b4565b505f6103b4565b5f8281526020818152604080832073ffffffffffffffffffffffffffffffffffffffff8516845290915281205460ff1615610f3e575f8381526020818152604080832073ffffffffffffffffffffffffffffffffffffffff8616808552925280832080547fffffffffffffffffffffffffffffffffffffffffffffffffffffffffffffff0016905551339286917ff6391f5c32d9c69d2a47ea670b442974b53935d1edc7fd64eb21e047a839171b9190a45060016103b4565b6002545f90819073ffffffffffffffffffffffffffffffffffffffff16156110b5576002546040517fb5641f3a00000000000000000000000000000000000000000000000000000000815273ffffffffffffffffffffffffffffffffffffffff85811660048301529091169063b5641f3a90602401602060405180830381865afa15801561108e573d5f803e3d5ffd5b505050506040513d601f19601f820116820180604052508101906110b29190611457565b91505b60015473ffffffffffffffffffffffffffffffffffffffff1615611168576001546040517fb5641f3a00000000000000000000000000000000000000000000000000000000815273ffffffffffffffffffffffffffffffffffffffff85811660048301529091169063b5641f3a90602401602060405180830381865afa158015611141573d5f803e3d5ffd5b505050506040513d601f19601f820116820180604052508101906111659190611457565b90505b915091565b805f5260045ffd5b604080518082019091525f80825260208201528151670de0b6b3a764000010156111a557670de0b6b3a764000082525b5f670de0b6b3a7640000835f015110156111d25782516111cd90670de0b6b3a7640000611476565b6111e7565b82516111e790670de0b6b3a764000090611476565b90505f670de0b6b3a7640000855f0151101561121657845161121190670de0b6b3a7640000611476565b61122b565b845161122b90670de0b6b3a764000090611476565b905080821161123a5784610acb565b50919392505050565b5f807ff0c57e16840df040f15088dc2f81fe391c3923bec73e23a9662efc9c229c6a006103b4565b5f8281526020818152604080832073ffffffffffffffffffffffffffffffffffffffff8516845290915290205460ff166112f4576040517fe2517d3f00000000000000000000000000000000000000000000000000000000815273ffffffffffffffffffffffffffffffffffffffff821660048201526024810183905260440160405180910390fd5b5050565b5f60208284031215611308575f80fd5b81357fffffffff0000000000000000000000000000000000000000000000000000000081168114611337575f80fd5b9392505050565b5f6020828403121561134e575f80fd5b5035919050565b803573ffffffffffffffffffffffffffffffffffffffff811681146108d7575f80fd5b5f8060408385031215611389575f80fd5b8235915061139960208401611355565b90509250929050565b5f602082840312156113b2575f80fd5b61133782611355565b5f80604083850312156113cc575f80fd5b6113d583611355565b946020939093013593505050565b5f60408284031280156113f4575f80fd5b506040805190810167ffffffffffffffff8111828210171561143d577f4e487b71000000000000000000000000000000000000000000000000000000005f52604160045260245ffd5b604052825181526020928301519281019290925250919050565b5f60208284031215611467575f80fd5b81518015158114611337575f80fd5b818103818111156103b4577f4e487b71000000000000000000000000000000000000000000000000000000005f52601160045260245ffdfea164736f6c634300081a000a","linkReferences":{}},"methodIdentifiers":{"DEFAULT_ADMIN_ROLE()":"a217fddf","MANAGER_ROLE()":"ec87621c","getPrice(address)":"41976e09","getPriceNoOlderThan(address,uint256)":"c442b439","getPriceUnsafe(address)":"f989568d","getRoleAdmin(bytes32)":"248a9ca3","grantRole(bytes32,address)":"2f2ff15d","hasRole(bytes32,address)":"91d14854","initialize(address)":"c4d66de8","priceAvailable(address)":"b5641f3a","pythOracle()":"f5d6ac90","renounceRole(bytes32,address)":"36568abe","revokeRole(bytes32,address)":"d547741f","setPythOracle(address)":"622bd118","setSpotOracle(address)":"5fc5e179","spotOracle()":"d25f29a6","supportsInterface(bytes4)":"01ffc9a7"},"storageLayout":{"storage":[{"astId":50341,"contract":"src/extras/RootPriceOracle.sol:RootPriceOracle","label":"_roles","offset":0,"slot":"0","type":"t_mapping(t_bytes32,t_struct(RoleData)50336_storage)"},{"astId":70361,"contract":"src/extras/RootPriceOracle.sol:RootPriceOracle","label":"spotOracle","offset":0,"slot":"1","type":"t_contract(IPriceOracle)69752"},{"astId":70365,"contract":"src/extras/RootPriceOracle.sol:RootPriceOracle","label":"pythOracle","offset":0,"slot":"2","type":"t_contract(IPriceOracle)69752"}],"types":{"t_address":{"encoding":"inplace","label":"address","numberOfBytes":"20"},"t_bool":{"encoding":"inplace","label":"bool","numberOfBytes":"1"},"t_bytes32":{"encoding":"inplace","label":"bytes32","numberOfBytes":"32"},"t_contract(IPriceOracle)69752":{"encoding":"inplace","label":"contract IPriceOracle","numberOfBytes":"20"},"t_mapping(t_address,t_bool)":{"encoding":"mapping","key":"t_address","label":"mapping(address => bool)","numberOfBytes":"32","value":"t_bool"},"t_mapping(t_bytes32,t_struct(RoleData)50336_storage)":{"encoding":"mapping","key":"t_bytes32","label":"mapping(bytes32 => struct AccessControl.RoleData)","numberOfBytes":"32","value":"t_struct(RoleData)50336_storage"},"t_struct(RoleData)50336_storage":{"encoding":"inplace","label":"struct AccessControl.RoleData","numberOfBytes":"64","members":[{"astId":50333,"contract":"src/extras/RootPriceOracle.sol:RootPriceOracle","label":"hasRole","offset":0,"slot":"0","type":"t_mapping(t_address,t_bool)"},{"astId":50335,"contract":"src/extras/RootPriceOracle.sol:RootPriceOracle","label":"adminRole","offset":0,"slot":"1","type":"t_bytes32"}]}}},"id":115}