{"abi":[{"type":"constructor","inputs":[],"stateMutability":"nonpayable"},{"type":"function","name":"DEFAULT_ADMIN_ROLE","inputs":[],"outputs":[{"name":"","type":"bytes32","internalType":"bytes32"}],"stateMutability":"view"},{"type":"function","name":"MANAGER_ROLE","inputs":[],"outputs":[{"name":"","type":"bytes32","internalType":"bytes32"}],"stateMutability":"view"},{"type":"function","name":"PAUSER_ROLE","inputs":[],"outputs":[{"name":"","type":"bytes32","internalType":"bytes32"}],"stateMutability":"view"},{"type":"function","name":"UPGRADE_INTERFACE_VERSION","inputs":[],"outputs":[{"name":"","type":"string","internalType":"string"}],"stateMutability":"view"},{"type":"function","name":"claimFees","inputs":[{"name":"_recipient","type":"address","internalType":"address"},{"name":"_feeTokens","type":"address[]","internalType":"address[]"}],"outputs":[],"stateMutability":"nonpayable"},{"type":"function","name":"donate","inputs":[{"name":"amount","type":"uint256","internalType":"uint256"}],"outputs":[],"stateMutability":"nonpayable"},{"type":"function","name":"getRoleAdmin","inputs":[{"name":"role","type":"bytes32","internalType":"bytes32"}],"outputs":[{"name":"","type":"bytes32","internalType":"bytes32"}],"stateMutability":"view"},{"type":"function","name":"grantRole","inputs":[{"name":"role","type":"bytes32","internalType":"bytes32"},{"name":"account","type":"address","internalType":"address"}],"outputs":[],"stateMutability":"nonpayable"},{"type":"function","name":"hasRole","inputs":[{"name":"role","type":"bytes32","internalType":"bytes32"},{"name":"account","type":"address","internalType":"address"}],"outputs":[{"name":"","type":"bool","internalType":"bool"}],"stateMutability":"view"},{"type":"function","name":"initialize","inputs":[{"name":"governance","type":"address","internalType":"address"},{"name":"_payoutToken","type":"address","internalType":"address"},{"name":"_rewardReceiver","type":"address","internalType":"address"},{"name":"_payoutAmount","type":"uint256","internalType":"uint256"}],"outputs":[],"stateMutability":"nonpayable"},{"type":"function","name":"pause","inputs":[],"outputs":[],"stateMutability":"nonpayable"},{"type":"function","name":"paused","inputs":[],"outputs":[{"name":"","type":"bool","internalType":"bool"}],"stateMutability":"view"},{"type":"function","name":"payoutAmount","inputs":[],"outputs":[{"name":"","type":"uint256","internalType":"uint256"}],"stateMutability":"view"},{"type":"function","name":"payoutToken","inputs":[],"outputs":[{"name":"","type":"address","internalType":"address"}],"stateMutability":"view"},{"type":"function","name":"proxiableUUID","inputs":[],"outputs":[{"name":"","type":"bytes32","internalType":"bytes32"}],"stateMutability":"view"},{"type":"function","name":"queuePayoutAmountChange","inputs":[{"name":"_newPayoutAmount","type":"uint256","internalType":"uint256"}],"outputs":[],"stateMutability":"nonpayable"},{"type":"function","name":"queuedPayoutAmount","inputs":[],"outputs":[{"name":"","type":"uint256","internalType":"uint256"}],"stateMutability":"view"},{"type":"function","name":"renounceRole","inputs":[{"name":"role","type":"bytes32","internalType":"bytes32"},{"name":"callerConfirmation","type":"address","internalType":"address"}],"outputs":[],"stateMutability":"nonpayable"},{"type":"function","name":"revokeRole","inputs":[{"name":"role","type":"bytes32","internalType":"bytes32"},{"name":"account","type":"address","internalType":"address"}],"outputs":[],"stateMutability":"nonpayable"},{"type":"function","name":"rewardReceiver","inputs":[],"outputs":[{"name":"","type":"address","internalType":"address"}],"stateMutability":"view"},{"type":"function","name":"supportsInterface","inputs":[{"name":"interfaceId","type":"bytes4","internalType":"bytes4"}],"outputs":[{"name":"","type":"bool","internalType":"bool"}],"stateMutability":"view"},{"type":"function","name":"unpause","inputs":[],"outputs":[],"stateMutability":"nonpayable"},{"type":"function","name":"upgradeToAndCall","inputs":[{"name":"newImplementation","type":"address","internalType":"address"},{"name":"data","type":"bytes","internalType":"bytes"}],"outputs":[],"stateMutability":"payable"},{"type":"event","name":"FeesClaimed","inputs":[{"name":"caller","type":"address","indexed":true,"internalType":"address"},{"name":"recipient","type":"address","indexed":true,"internalType":"address"}],"anonymous":false},{"type":"event","name":"FeesClaimed","inputs":[{"name":"caller","type":"address","indexed":true,"internalType":"address"},{"name":"recipient","type":"address","indexed":true,"internalType":"address"},{"name":"feeToken","type":"address","indexed":true,"internalType":"address"},{"name":"amount","type":"uint256","indexed":false,"internalType":"uint256"}],"anonymous":false},{"type":"event","name":"Initialized","inputs":[{"name":"version","type":"uint64","indexed":false,"internalType":"uint64"}],"anonymous":false},{"type":"event","name":"Paused","inputs":[{"name":"account","type":"address","indexed":false,"internalType":"address"}],"anonymous":false},{"type":"event","name":"PayoutAmountSet","inputs":[{"name":"oldPayoutAmount","type":"uint256","indexed":true,"internalType":"uint256"},{"name":"newPayoutAmount","type":"uint256","indexed":true,"internalType":"uint256"}],"anonymous":false},{"type":"event","name":"PayoutDonated","inputs":[{"name":"caller","type":"address","indexed":true,"internalType":"address"},{"name":"amount","type":"uint256","indexed":false,"internalType":"uint256"}],"anonymous":false},{"type":"event","name":"QueuedPayoutAmount","inputs":[{"name":"queuedPayoutAmount","type":"uint256","indexed":false,"internalType":"uint256"},{"name":"currentPayoutAmount","type":"uint256","indexed":false,"internalType":"uint256"}],"anonymous":false},{"type":"event","name":"RoleAdminChanged","inputs":[{"name":"role","type":"bytes32","indexed":true,"internalType":"bytes32"},{"name":"previousAdminRole","type":"bytes32","indexed":true,"internalType":"bytes32"},{"name":"newAdminRole","type":"bytes32","indexed":true,"internalType":"bytes32"}],"anonymous":false},{"type":"event","name":"RoleGranted","inputs":[{"name":"role","type":"bytes32","indexed":true,"internalType":"bytes32"},{"name":"account","type":"address","indexed":true,"internalType":"address"},{"name":"sender","type":"address","indexed":true,"internalType":"address"}],"anonymous":false},{"type":"event","name":"RoleRevoked","inputs":[{"name":"role","type":"bytes32","indexed":true,"internalType":"bytes32"},{"name":"account","type":"address","indexed":true,"internalType":"address"},{"name":"sender","type":"address","indexed":true,"internalType":"address"}],"anonymous":false},{"type":"event","name":"Unpaused","inputs":[{"name":"account","type":"address","indexed":false,"internalType":"address"}],"anonymous":false},{"type":"event","name":"Upgraded","inputs":[{"name":"implementation","type":"address","indexed":true,"internalType":"address"}],"anonymous":false},{"type":"error","name":"AccessControlBadConfirmation","inputs":[]},{"type":"error","name":"AccessControlUnauthorizedAccount","inputs":[{"name":"account","type":"address","internalType":"address"},{"name":"neededRole","type":"bytes32","internalType":"bytes32"}]},{"type":"error","name":"AddressEmptyCode","inputs":[{"name":"target","type":"address","internalType":"address"}]},{"type":"error","name":"AmountLessThanMinIncentiveRate","inputs":[]},{"type":"error","name":"CannotRecoverIncentiveToken","inputs":[]},{"type":"error","name":"CannotRecoverRewardToken","inputs":[]},{"type":"error","name":"CannotRecoverStakingToken","inputs":[]},{"type":"error","name":"CommissionChangeAlreadyQueued","inputs":[]},{"type":"error","name":"CommissionNotQueuedOrDelayNotPassed","inputs":[]},{"type":"error","name":"DepositNotMultipleOfGwei","inputs":[]},{"type":"error","name":"DepositValueTooHigh","inputs":[]},{"type":"error","name":"DonateAmountLessThanPayoutAmount","inputs":[]},{"type":"error","name":"ERC1967InvalidImplementation","inputs":[{"name":"implementation","type":"address","internalType":"address"}]},{"type":"error","name":"ERC1967NonPayable","inputs":[]},{"type":"error","name":"EnforcedPause","inputs":[]},{"type":"error","name":"ExpectedPause","inputs":[]},{"type":"error","name":"FailedCall","inputs":[]},{"type":"error","name":"IncentiveRateTooHigh","inputs":[]},{"type":"error","name":"IndexOutOfRange","inputs":[]},{"type":"error","name":"InsolventReward","inputs":[]},{"type":"error","name":"InsufficientDelegateStake","inputs":[]},{"type":"error","name":"InsufficientDeposit","inputs":[]},{"type":"error","name":"InsufficientIncentiveTokens","inputs":[]},{"type":"error","name":"InsufficientSelfStake","inputs":[]},{"type":"error","name":"InsufficientStake","inputs":[]},{"type":"error","name":"InvalidActivateBoostDelay","inputs":[]},{"type":"error","name":"InvalidArray","inputs":[]},{"type":"error","name":"InvalidBaseRate","inputs":[]},{"type":"error","name":"InvalidBoostMultiplier","inputs":[]},{"type":"error","name":"InvalidCommissionChangeDelay","inputs":[]},{"type":"error","name":"InvalidCommissionValue","inputs":[]},{"type":"error","name":"InvalidCredentialsLength","inputs":[]},{"type":"error","name":"InvalidDistribution","inputs":[]},{"type":"error","name":"InvalidDropBoostDelay","inputs":[]},{"type":"error","name":"InvalidIncentiveRate","inputs":[]},{"type":"error","name":"InvalidInitialization","inputs":[]},{"type":"error","name":"InvalidMaxIncentiveTokensCount","inputs":[]},{"type":"error","name":"InvalidMaxWeightPerVault","inputs":[]},{"type":"error","name":"InvalidMerkleRoot","inputs":[]},{"type":"error","name":"InvalidMinBoostedRewardRate","inputs":[]},{"type":"error","name":"InvalidProof","inputs":[]},{"type":"error","name":"InvalidPubKeyLength","inputs":[]},{"type":"error","name":"InvalidRewardAllocationWeights","inputs":[]},{"type":"error","name":"InvalidRewardClaimDelay","inputs":[]},{"type":"error","name":"InvalidRewardConvexity","inputs":[]},{"type":"error","name":"InvalidRewardRate","inputs":[]},{"type":"error","name":"InvalidSignatureLength","inputs":[]},{"type":"error","name":"InvalidStartBlock","inputs":[]},{"type":"error","name":"InvalidToken","inputs":[]},{"type":"error","name":"InvalidWeight","inputs":[]},{"type":"error","name":"InvalidateDefaultRewardAllocation","inputs":[]},{"type":"error","name":"InvariantCheckFailed","inputs":[]},{"type":"error","name":"MaxNumWeightsPerRewardAllocationIsZero","inputs":[]},{"type":"error","name":"MinIncentiveRateIsZero","inputs":[]},{"type":"error","name":"NotAContract","inputs":[]},{"type":"error","name":"NotApprovedSender","inputs":[]},{"type":"error","name":"NotBGT","inputs":[]},{"type":"error","name":"NotBlockRewardController","inputs":[]},{"type":"error","name":"NotDelegate","inputs":[]},{"type":"error","name":"NotDistributor","inputs":[]},{"type":"error","name":"NotEnoughBalance","inputs":[]},{"type":"error","name":"NotEnoughBoostedBalance","inputs":[]},{"type":"error","name":"NotEnoughTime","inputs":[]},{"type":"error","name":"NotFactoryVault","inputs":[]},{"type":"error","name":"NotFeeCollector","inputs":[]},{"type":"error","name":"NotIncentiveManager","inputs":[]},{"type":"error","name":"NotInitializing","inputs":[]},{"type":"error","name":"NotNewOperator","inputs":[]},{"type":"error","name":"NotOperator","inputs":[]},{"type":"error","name":"NotWhitelistedVault","inputs":[]},{"type":"error","name":"OperatorAlreadySet","inputs":[]},{"type":"error","name":"PayoutAmountIsZero","inputs":[]},{"type":"error","name":"RewardAllocationAlreadyQueued","inputs":[]},{"type":"error","name":"RewardAllocationBlockDelayTooLarge","inputs":[]},{"type":"error","name":"RewardCycleNotEnded","inputs":[]},{"type":"error","name":"RewardInactive","inputs":[]},{"type":"error","name":"RewardsDurationIsZero","inputs":[]},{"type":"error","name":"SafeERC20FailedOperation","inputs":[{"name":"token","type":"address","internalType":"address"}]},{"type":"error","name":"StakeAmountIsZero","inputs":[]},{"type":"error","name":"TimestampAlreadyProcessed","inputs":[]},{"type":"error","name":"TokenAlreadyWhitelistedOrLimitReached","inputs":[]},{"type":"error","name":"TokenNotWhitelisted","inputs":[]},{"type":"error","name":"TooManyWeights","inputs":[]},{"type":"error","name":"TotalSupplyOverflow","inputs":[]},{"type":"error","name":"UUPSUnauthorizedCallContext","inputs":[]},{"type":"error","name":"UUPSUnsupportedProxiableUUID","inputs":[{"name":"slot","type":"bytes32","internalType":"bytes32"}]},{"type":"error","name":"WithdrawAmountIsZero","inputs":[]},{"type":"error","name":"ZeroAddress","inputs":[]},{"type":"error","name":"ZeroOperatorOnFirstDeposit","inputs":[]},{"type":"error","name":"ZeroPercentageWeight","inputs":[]}],"bytecode":{"object":"0x60a060405230608052348015610013575f80fd5b5061001c610021565b6100d3565b7ff0c57e16840df040f15088dc2f81fe391c3923bec73e23a9662efc9c229c6a00805468010000000000000000900460ff16156100715760405163f92ee8a960e01b815260040160405180910390fd5b80546001600160401b03908116146100d05780546001600160401b0319166001600160401b0390811782556040519081527fc7f505b2f371ae2175ee4913f4499e1f2633a7b5936321eed1cdaeb6115181d29060200160405180910390a15b50565b608051611eda6100f95f395f81816111650152818161118e01526113b30152611eda5ff3fe608060405260043610610178575f3560e01c80636b46c8c3116100d1578063cf756fdf1161007c578063e63ab1e911610057578063e63ab1e9146104ca578063ec87621c146104fd578063f14faf6f14610530575f80fd5b8063cf756fdf14610477578063cfcfba3514610496578063d547741f146104ab575f80fd5b8063a217fddf116100ac578063a217fddf146103f0578063a81d2f4714610403578063ad3cb1cc14610422575f80fd5b80636b46c8c3146103575780638456cb591461036c57806391d1485414610380575f80fd5b80633f4ba83a116101315780634f1ef2861161010c5780634f1ef286146102fa57806352d1902d1461030d5780635c975abb14610321575f80fd5b80633f4ba83a1461029c57806346bc1e7b146102b05780634efa82b6146102cf575f80fd5b8063248a9ca311610161578063248a9ca3146102015780632f2ff15d1461025c57806336568abe1461027d575f80fd5b806301ffc9a71461017c5780631dac30b0146101b0575b5f80fd5b348015610187575f80fd5b5061019b610196366004611b68565b61054f565b60405190151581526020015b60405180910390f35b3480156101bb575f80fd5b506003546101dc9073ffffffffffffffffffffffffffffffffffffffff1681565b60405173ffffffffffffffffffffffffffffffffffffffff90911681526020016101a7565b34801561020c575f80fd5b5061024e61021b366004611ba7565b5f9081527f02dd7bc7dec4dceedda775e58dd541e08a116c6c53815c0bd028192f7b626800602052604090206001015490565b6040519081526020016101a7565b348015610267575f80fd5b5061027b610276366004611be6565b6105e7565b005b348015610288575f80fd5b5061027b610297366004611be6565b610630565b3480156102a7575f80fd5b5061027b61068e565b3480156102bb575f80fd5b5061027b6102ca366004611ba7565b6106c3565b3480156102da575f80fd5b505f546101dc9073ffffffffffffffffffffffffffffffffffffffff1681565b61027b610308366004611c3d565b610740565b348015610318575f80fd5b5061024e61075f565b34801561032c575f80fd5b507fcd5ed15c6e187e77e9aee88184c21f4f2182ab5827cb3b7e07fbedcd63f033005460ff1661019b565b348015610362575f80fd5b5061024e60025481565b348015610377575f80fd5b5061027b61078d565b34801561038b575f80fd5b5061019b61039a366004611be6565b5f9182527f02dd7bc7dec4dceedda775e58dd541e08a116c6c53815c0bd028192f7b6268006020908152604080842073ffffffffffffffffffffffffffffffffffffffff93909316845291905290205460ff1690565b3480156103fb575f80fd5b5061024e5f81565b34801561040e575f80fd5b5061027b61041d366004611d3e565b6107bf565b34801561042d575f80fd5b5061046a6040518060400160405280600581526020017f352e302e3000000000000000000000000000000000000000000000000000000081525081565b6040516101a79190611dbf565b348015610482575f80fd5b5061027b610491366004611e12565b610a40565b3480156104a1575f80fd5b5061024e60015481565b3480156104b6575f80fd5b5061027b6104c5366004611be6565b610d44565b3480156104d5575f80fd5b5061024e7f65d7a28e3265b37a6474929f336521b332c1681b933f6cb9f3376673440d862a81565b348015610508575f80fd5b5061024e7f241ecf16d79d0f8dbfb92cbc07fe17840425976cf0667f022fe9877caa831b0881565b34801561053b575f80fd5b5061027b61054a366004611ba7565b610d87565b5f7fffffffff0000000000000000000000000000000000000000000000000000000082167f7965db0b0000000000000000000000000000000000000000000000000000000014806105e157507f01ffc9a7000000000000000000000000000000000000000000000000000000007fffffffff000000000000000000000000000000000000000000000000000000008316145b92915050565b5f8281527f02dd7bc7dec4dceedda775e58dd541e08a116c6c53815c0bd028192f7b626800602052604090206001015461062081610ea4565b61062a8383610eae565b50505050565b73ffffffffffffffffffffffffffffffffffffffff8116331461067f576040517f6697b23200000000000000000000000000000000000000000000000000000000815260040160405180910390fd5b6106898282610fcc565b505050565b7f241ecf16d79d0f8dbfb92cbc07fe17840425976cf0667f022fe9877caa831b086106b881610ea4565b6106c06110a8565b50565b5f6106cd81610ea4565b815f036106fd576106fd7f546c760000000000000000000000000000000000000000000000000000000000611145565b6002546040805184815260208101929092527fb7310b0cb903ba6be464fcba1f3c608fd3c6e417f0bf397fe8a38ac43e22bdcc910160405180910390a150600155565b61074861114d565b61075182611253565b61075b828261125d565b5050565b5f61076861139b565b507f360894a13ba1a3210667c828492db98dca3e2076cc3735a920a3ca505d382bbc90565b7f65d7a28e3265b37a6474929f336521b332c1681b933f6cb9f3376673440d862a6107b781610ea4565b6106c061140a565b6107c7611483565b6003546002545f546107f79273ffffffffffffffffffffffffffffffffffffffff918216923392909116906114df565b6003546002546040517f3c6b16ab00000000000000000000000000000000000000000000000000000000815273ffffffffffffffffffffffffffffffffffffffff90921691633c6b16ab916108529160040190815260200190565b5f604051808303815f87803b158015610869575f80fd5b505af115801561087b573d5f803e3d5ffd5b505050505f5b818110156109ed575f83838381811061089c5761089c611e5a565b90506020020160208101906108b19190611e87565b6040517f70a082310000000000000000000000000000000000000000000000000000000081523060048201529091505f9073ffffffffffffffffffffffffffffffffffffffff8316906370a0823190602401602060405180830381865afa15801561091e573d5f803e3d5ffd5b505050506040513d601f19601f820116820180604052508101906109429190611ea0565b905061096573ffffffffffffffffffffffffffffffffffffffff83168783611568565b8173ffffffffffffffffffffffffffffffffffffffff168673ffffffffffffffffffffffffffffffffffffffff163373ffffffffffffffffffffffffffffffffffffffff167f34579ce58c22de68fe7e545753ced212a5b682a2e81614171dbf2039de2454d8846040516109db91815260200190565b60405180910390a45050600101610881565b5060405173ffffffffffffffffffffffffffffffffffffffff84169033907fc6650a50e06482f404489255d667b1516ad09a67e97cf0a35b67ee1ab89090c8905f90a360015415610689576106896115a6565b5f610a496115e0565b805490915060ff68010000000000000000820416159067ffffffffffffffff165f81158015610a755750825b90505f8267ffffffffffffffff166001148015610a915750303b155b905081158015610a9f575080155b15610ad6576040517ff92ee8a900000000000000000000000000000000000000000000000000000000815260040160405180910390fd5b84547fffffffffffffffffffffffffffffffffffffffffffffffff00000000000000001660011785558315610b375784547fffffffffffffffffffffffffffffffffffffffffffffff00ffffffffffffffff16680100000000000000001785555b610b3f611608565b610b47611608565b610b4f611608565b73ffffffffffffffffffffffffffffffffffffffff89161580610b86575073ffffffffffffffffffffffffffffffffffffffff8816155b80610ba5575073ffffffffffffffffffffffffffffffffffffffff8716155b15610bd357610bd37fd92e233d00000000000000000000000000000000000000000000000000000000611145565b855f03610c0357610c037f546c760000000000000000000000000000000000000000000000000000000000611145565b610c0d5f8a610eae565b50610c587f65d7a28e3265b37a6474929f336521b332c1681b933f6cb9f3376673440d862a7f241ecf16d79d0f8dbfb92cbc07fe17840425976cf0667f022fe9877caa831b08611610565b5f805473ffffffffffffffffffffffffffffffffffffffff808b167fffffffffffffffffffffffff0000000000000000000000000000000000000000928316178355600289905560038054918b16919092161790556040518791907f8f6c5c01f9385e42ed275713f18de607d67ea7f6673e431418c8b286057a2207908290a38315610d395784547fffffffffffffffffffffffffffffffffffffffffffffff00ffffffffffffffff168555604051600181527fc7f505b2f371ae2175ee4913f4499e1f2633a7b5936321eed1cdaeb6115181d29060200160405180910390a15b505050505050505050565b5f8281527f02dd7bc7dec4dceedda775e58dd541e08a116c6c53815c0bd028192f7b6268006020526040902060010154610d7d81610ea4565b61062a8383610fcc565b610d8f611483565b600254811015610dc257610dc27f89c622a200000000000000000000000000000000000000000000000000000000611145565b6003545f54610ded9173ffffffffffffffffffffffffffffffffffffffff91821691339116846114df565b6003546040517f3c6b16ab0000000000000000000000000000000000000000000000000000000081526004810183905273ffffffffffffffffffffffffffffffffffffffff90911690633c6b16ab906024015f604051808303815f87803b158015610e56575f80fd5b505af1158015610e68573d5f803e3d5ffd5b50506040518381523392507fb494dfeb425281cb224388982470e0463ec89ffe75765370acfb5e6019296ec7915060200160405180910390a250565b6106c081336116b1565b5f8281527f02dd7bc7dec4dceedda775e58dd541e08a116c6c53815c0bd028192f7b6268006020818152604080842073ffffffffffffffffffffffffffffffffffffffff8616855290915282205460ff16610fc3575f8481526020828152604080832073ffffffffffffffffffffffffffffffffffffffff87168452909152902080547fffffffffffffffffffffffffffffffffffffffffffffffffffffffffffffff00166001179055610f5f3390565b73ffffffffffffffffffffffffffffffffffffffff168373ffffffffffffffffffffffffffffffffffffffff16857f2f8788117e7eff1d82e926ec794901d17c78024a50270940304540a733656f0d60405160405180910390a460019150506105e1565b5f9150506105e1565b5f8281527f02dd7bc7dec4dceedda775e58dd541e08a116c6c53815c0bd028192f7b6268006020818152604080842073ffffffffffffffffffffffffffffffffffffffff8616855290915282205460ff1615610fc3575f8481526020828152604080832073ffffffffffffffffffffffffffffffffffffffff8716808552925280832080547fffffffffffffffffffffffffffffffffffffffffffffffffffffffffffffff0016905551339287917ff6391f5c32d9c69d2a47ea670b442974b53935d1edc7fd64eb21e047a839171b9190a460019150506105e1565b6110b0611757565b7fcd5ed15c6e187e77e9aee88184c21f4f2182ab5827cb3b7e07fbedcd63f0330080547fffffffffffffffffffffffffffffffffffffffffffffffffffffffffffffff001681557f5db9ee0a495bf2e6ff9c91a7834c1ba4fdd244a5e8aa4e537bd38aeae4b073aa335b60405173ffffffffffffffffffffffffffffffffffffffff909116815260200160405180910390a150565b805f5260045ffd5b3073ffffffffffffffffffffffffffffffffffffffff7f000000000000000000000000000000000000000000000000000000000000000016148061121a57507f000000000000000000000000000000000000000000000000000000000000000073ffffffffffffffffffffffffffffffffffffffff166112017f360894a13ba1a3210667c828492db98dca3e2076cc3735a920a3ca505d382bbc5473ffffffffffffffffffffffffffffffffffffffff1690565b73ffffffffffffffffffffffffffffffffffffffff1614155b15611251576040517fe07c8dba00000000000000000000000000000000000000000000000000000000815260040160405180910390fd5b565b5f61075b81610ea4565b8173ffffffffffffffffffffffffffffffffffffffff166352d1902d6040518163ffffffff1660e01b8152600401602060405180830381865afa9250505080156112e2575060408051601f3d9081017fffffffffffffffffffffffffffffffffffffffffffffffffffffffffffffffe01682019092526112df91810190611ea0565b60015b611335576040517f4c9c8ce300000000000000000000000000000000000000000000000000000000815273ffffffffffffffffffffffffffffffffffffffff831660048201526024015b60405180910390fd5b7f360894a13ba1a3210667c828492db98dca3e2076cc3735a920a3ca505d382bbc8114611391576040517faa1d49a40000000000000000000000000000000000000000000000000000000081526004810182905260240161132c565b61068983836117b2565b3073ffffffffffffffffffffffffffffffffffffffff7f00000000000000000000000000000000000000000000000000000000000000001614611251576040517fe07c8dba00000000000000000000000000000000000000000000000000000000815260040160405180910390fd5b611412611483565b7fcd5ed15c6e187e77e9aee88184c21f4f2182ab5827cb3b7e07fbedcd63f0330080547fffffffffffffffffffffffffffffffffffffffffffffffffffffffffffffff001660011781557f62e78cea01bee320cd4e420270b5ea74000d11b0c9f74754ebdbfc544b05a2583361111a565b7fcd5ed15c6e187e77e9aee88184c21f4f2182ab5827cb3b7e07fbedcd63f033005460ff1615611251576040517fd93c066500000000000000000000000000000000000000000000000000000000815260040160405180910390fd5b60405173ffffffffffffffffffffffffffffffffffffffff848116602483015283811660448301526064820183905261062a9186918216906323b872dd906084015b604051602081830303815290604052915060e01b6020820180517bffffffffffffffffffffffffffffffffffffffffffffffffffffffff8381831617835250505050611814565b60405173ffffffffffffffffffffffffffffffffffffffff83811660248301526044820183905261068991859182169063a9059cbb90606401611521565b6001546002546040517f8f6c5c01f9385e42ed275713f18de607d67ea7f6673e431418c8b286057a2207905f90a3600180546002555f9055565b5f807ff0c57e16840df040f15088dc2f81fe391c3923bec73e23a9662efc9c229c6a006105e1565b6112516118b3565b7f02dd7bc7dec4dceedda775e58dd541e08a116c6c53815c0bd028192f7b6268005f611669845f9081527f02dd7bc7dec4dceedda775e58dd541e08a116c6c53815c0bd028192f7b626800602052604090206001015490565b5f85815260208490526040808220600101869055519192508491839187917fbd79b86ffe0ab8e8776151514217cd7cacd52c909f66475c3af44e129f0b00ff9190a450505050565b5f8281527f02dd7bc7dec4dceedda775e58dd541e08a116c6c53815c0bd028192f7b6268006020908152604080832073ffffffffffffffffffffffffffffffffffffffff8516845290915290205460ff1661075b576040517fe2517d3f00000000000000000000000000000000000000000000000000000000815273ffffffffffffffffffffffffffffffffffffffff821660048201526024810183905260440161132c565b7fcd5ed15c6e187e77e9aee88184c21f4f2182ab5827cb3b7e07fbedcd63f033005460ff16611251576040517f8dfc202b00000000000000000000000000000000000000000000000000000000815260040160405180910390fd5b6117bb826118f1565b60405173ffffffffffffffffffffffffffffffffffffffff8316907fbc7cd75a20ee27fd9adebab32041f755214dbc6bffa90cc0225b39da2e5c2d3b905f90a280511561180c5761068982826119bf565b61075b611a3e565b5f8060205f8451602086015f885af180611833576040513d5f823e3d81fd5b50505f513d9150811561184a578060011415611864565b73ffffffffffffffffffffffffffffffffffffffff84163b155b1561062a576040517f5274afe700000000000000000000000000000000000000000000000000000000815273ffffffffffffffffffffffffffffffffffffffff8516600482015260240161132c565b6118bb611a76565b611251576040517fd7e6bcf800000000000000000000000000000000000000000000000000000000815260040160405180910390fd5b8073ffffffffffffffffffffffffffffffffffffffff163b5f03611959576040517f4c9c8ce300000000000000000000000000000000000000000000000000000000815273ffffffffffffffffffffffffffffffffffffffff8216600482015260240161132c565b7f360894a13ba1a3210667c828492db98dca3e2076cc3735a920a3ca505d382bbc80547fffffffffffffffffffffffff00000000000000000000000000000000000000001673ffffffffffffffffffffffffffffffffffffffff92909216919091179055565b60605f808473ffffffffffffffffffffffffffffffffffffffff16846040516119e89190611eb7565b5f60405180830381855af49150503d805f8114611a20576040519150601f19603f3d011682016040523d82523d5f602084013e611a25565b606091505b5091509150611a35858383611a94565b95945050505050565b3415611251576040517fb398979f00000000000000000000000000000000000000000000000000000000815260040160405180910390fd5b5f611a7f6115e0565b5468010000000000000000900460ff16919050565b606082611aa957611aa482611b26565b611b1f565b8151158015611acd575073ffffffffffffffffffffffffffffffffffffffff84163b155b15611b1c576040517f9996b31500000000000000000000000000000000000000000000000000000000815273ffffffffffffffffffffffffffffffffffffffff8516600482015260240161132c565b50805b9392505050565b805115611b365780518082602001fd5b6040517fd6bda27500000000000000000000000000000000000000000000000000000000815260040160405180910390fd5b5f60208284031215611b78575f80fd5b81357fffffffff0000000000000000000000000000000000000000000000000000000081168114611b1f575f80fd5b5f60208284031215611bb7575f80fd5b5035919050565b803573ffffffffffffffffffffffffffffffffffffffff81168114611be1575f80fd5b919050565b5f8060408385031215611bf7575f80fd5b82359150611c0760208401611bbe565b90509250929050565b7f4e487b71000000000000000000000000000000000000000000000000000000005f52604160045260245ffd5b5f8060408385031215611c4e575f80fd5b611c5783611bbe565b9150602083013567ffffffffffffffff811115611c72575f80fd5b8301601f81018513611c82575f80fd5b803567ffffffffffffffff811115611c9c57611c9c611c10565b6040517fffffffffffffffffffffffffffffffffffffffffffffffffffffffffffffffe0603f7fffffffffffffffffffffffffffffffffffffffffffffffffffffffffffffffe0601f8501160116810181811067ffffffffffffffff82111715611d0857611d08611c10565b604052818152828201602001871015611d1f575f80fd5b816020840160208301375f602083830101528093505050509250929050565b5f805f60408486031215611d50575f80fd5b611d5984611bbe565b9250602084013567ffffffffffffffff811115611d74575f80fd5b8401601f81018613611d84575f80fd5b803567ffffffffffffffff811115611d9a575f80fd5b8660208260051b8401011115611dae575f80fd5b939660209190910195509293505050565b602081525f82518060208401528060208501604085015e5f6040828501015260407fffffffffffffffffffffffffffffffffffffffffffffffffffffffffffffffe0601f83011684010191505092915050565b5f805f8060808587031215611e25575f80fd5b611e2e85611bbe565b9350611e3c60208601611bbe565b9250611e4a60408601611bbe565b9396929550929360600135925050565b7f4e487b71000000000000000000000000000000000000000000000000000000005f52603260045260245ffd5b5f60208284031215611e97575f80fd5b611b1f82611bbe565b5f60208284031215611eb0575f80fd5b5051919050565b5f82518060208501845e5f92019182525091905056fea164736f6c634300081a000a","linkReferences":{}},"methodIdentifiers":{"DEFAULT_ADMIN_ROLE()":"a217fddf","MANAGER_ROLE()":"ec87621c","PAUSER_ROLE()":"e63ab1e9","UPGRADE_INTERFACE_VERSION()":"ad3cb1cc","claimFees(address,address[])":"a81d2f47","donate(uint256)":"f14faf6f","getRoleAdmin(bytes32)":"248a9ca3","grantRole(bytes32,address)":"2f2ff15d","hasRole(bytes32,address)":"91d14854","initialize(address,address,address,uint256)":"cf756fdf","pause()":"8456cb59","paused()":"5c975abb","payoutAmount()":"6b46c8c3","payoutToken()":"4efa82b6","proxiableUUID()":"52d1902d","queuePayoutAmountChange(uint256)":"46bc1e7b","queuedPayoutAmount()":"cfcfba35","renounceRole(bytes32,address)":"36568abe","revokeRole(bytes32,address)":"d547741f","rewardReceiver()":"1dac30b0","supportsInterface(bytes4)":"01ffc9a7","unpause()":"3f4ba83a","upgradeToAndCall(address,bytes)":"4f1ef286"},"storageLayout":{"storage":[{"astId":79538,"contract":"src/pol/FeeCollector.sol:FeeCollector","label":"payoutToken","offset":0,"slot":"0","type":"t_address"},{"astId":79541,"contract":"src/pol/FeeCollector.sol:FeeCollector","label":"queuedPayoutAmount","offset":0,"slot":"1","type":"t_uint256"},{"astId":79544,"contract":"src/pol/FeeCollector.sol:FeeCollector","label":"payoutAmount","offset":0,"slot":"2","type":"t_uint256"},{"astId":79547,"contract":"src/pol/FeeCollector.sol:FeeCollector","label":"rewardReceiver","offset":0,"slot":"3","type":"t_address"}],"types":{"t_address":{"encoding":"inplace","label":"address","numberOfBytes":"20"},"t_uint256":{"encoding":"inplace","label":"uint256","numberOfBytes":"32"}}},"id":136}