{"abi":[{"type":"constructor","inputs":[],"stateMutability":"nonpayable"},{"type":"function","name":"MAX_REWARD_ALLOCATION_BLOCK_DELAY","inputs":[],"outputs":[{"name":"","type":"uint64","internalType":"uint64"}],"stateMutability":"view"},{"type":"function","name":"UPGRADE_INTERFACE_VERSION","inputs":[],"outputs":[{"name":"","type":"string","internalType":"string"}],"stateMutability":"view"},{"type":"function","name":"activateQueuedValCommission","inputs":[{"name":"valPubkey","type":"bytes","internalType":"bytes"}],"outputs":[],"stateMutability":"nonpayable"},{"type":"function","name":"activateReadyQueuedRewardAllocation","inputs":[{"name":"valPubkey","type":"bytes","internalType":"bytes"}],"outputs":[],"stateMutability":"nonpayable"},{"type":"function","name":"beaconDepositContract","inputs":[],"outputs":[{"name":"","type":"address","internalType":"contract IBeaconDeposit"}],"stateMutability":"view"},{"type":"function","name":"commissionChangeDelay","inputs":[],"outputs":[{"name":"","type":"uint64","internalType":"uint64"}],"stateMutability":"view"},{"type":"function","name":"distributor","inputs":[],"outputs":[{"name":"","type":"address","internalType":"address"}],"stateMutability":"view"},{"type":"function","name":"factory","inputs":[],"outputs":[{"name":"","type":"address","internalType":"address"}],"stateMutability":"view"},{"type":"function","name":"getActiveRewardAllocation","inputs":[{"name":"valPubkey","type":"bytes","internalType":"bytes"}],"outputs":[{"name":"","type":"tuple","internalType":"struct IBeraChef.RewardAllocation","components":[{"name":"startBlock","type":"uint64","internalType":"uint64"},{"name":"weights","type":"tuple[]","internalType":"struct IBeraChef.Weight[]","components":[{"name":"receiver","type":"address","internalType":"address"},{"name":"percentageNumerator","type":"uint96","internalType":"uint96"}]}]}],"stateMutability":"view"},{"type":"function","name":"getDefaultRewardAllocation","inputs":[],"outputs":[{"name":"","type":"tuple","internalType":"struct IBeraChef.RewardAllocation","components":[{"name":"startBlock","type":"uint64","internalType":"uint64"},{"name":"weights","type":"tuple[]","internalType":"struct IBeraChef.Weight[]","components":[{"name":"receiver","type":"address","internalType":"address"},{"name":"percentageNumerator","type":"uint96","internalType":"uint96"}]}]}],"stateMutability":"view"},{"type":"function","name":"getQueuedRewardAllocation","inputs":[{"name":"valPubkey","type":"bytes","internalType":"bytes"}],"outputs":[{"name":"","type":"tuple","internalType":"struct IBeraChef.RewardAllocation","components":[{"name":"startBlock","type":"uint64","internalType":"uint64"},{"name":"weights","type":"tuple[]","internalType":"struct IBeraChef.Weight[]","components":[{"name":"receiver","type":"address","internalType":"address"},{"name":"percentageNumerator","type":"uint96","internalType":"uint96"}]}]}],"stateMutability":"view"},{"type":"function","name":"getSetActiveRewardAllocation","inputs":[{"name":"valPubkey","type":"bytes","internalType":"bytes"}],"outputs":[{"name":"","type":"tuple","internalType":"struct IBeraChef.RewardAllocation","components":[{"name":"startBlock","type":"uint64","internalType":"uint64"},{"name":"weights","type":"tuple[]","internalType":"struct IBeraChef.Weight[]","components":[{"name":"receiver","type":"address","internalType":"address"},{"name":"percentageNumerator","type":"uint96","internalType":"uint96"}]}]}],"stateMutability":"view"},{"type":"function","name":"getValCommissionOnIncentiveTokens","inputs":[{"name":"valPubkey","type":"bytes","internalType":"bytes"}],"outputs":[{"name":"","type":"uint96","internalType":"uint96"}],"stateMutability":"view"},{"type":"function","name":"getValQueuedCommissionOnIncentiveTokens","inputs":[{"name":"valPubkey","type":"bytes","internalType":"bytes"}],"outputs":[{"name":"","type":"tuple","internalType":"struct IBeraChef.QueuedCommissionRateChange","components":[{"name":"blockNumberLast","type":"uint32","internalType":"uint32"},{"name":"commissionRate","type":"uint96","internalType":"uint96"}]}],"stateMutability":"view"},{"type":"function","name":"getValidatorIncentiveTokenShare","inputs":[{"name":"valPubkey","type":"bytes","internalType":"bytes"},{"name":"incentiveTokenAmount","type":"uint256","internalType":"uint256"}],"outputs":[{"name":"","type":"uint256","internalType":"uint256"}],"stateMutability":"view"},{"type":"function","name":"initialize","inputs":[{"name":"_distributor","type":"address","internalType":"address"},{"name":"_factory","type":"address","internalType":"address"},{"name":"_governance","type":"address","internalType":"address"},{"name":"_beaconDepositContract","type":"address","internalType":"address"},{"name":"_maxNumWeightsPerRewardAllocation","type":"uint8","internalType":"uint8"}],"outputs":[],"stateMutability":"nonpayable"},{"type":"function","name":"isQueuedRewardAllocationReady","inputs":[{"name":"valPubkey","type":"bytes","internalType":"bytes"},{"name":"blockNumber","type":"uint256","internalType":"uint256"}],"outputs":[{"name":"","type":"bool","internalType":"bool"}],"stateMutability":"view"},{"type":"function","name":"isReady","inputs":[],"outputs":[{"name":"","type":"bool","internalType":"bool"}],"stateMutability":"view"},{"type":"function","name":"isWhitelistedVault","inputs":[{"name":"receiver","type":"address","internalType":"address"}],"outputs":[{"name":"","type":"bool","internalType":"bool"}],"stateMutability":"view"},{"type":"function","name":"maxNumWeightsPerRewardAllocation","inputs":[],"outputs":[{"name":"","type":"uint8","internalType":"uint8"}],"stateMutability":"view"},{"type":"function","name":"maxWeightPerVault","inputs":[],"outputs":[{"name":"","type":"uint96","internalType":"uint96"}],"stateMutability":"view"},{"type":"function","name":"owner","inputs":[],"outputs":[{"name":"","type":"address","internalType":"address"}],"stateMutability":"view"},{"type":"function","name":"proxiableUUID","inputs":[],"outputs":[{"name":"","type":"bytes32","internalType":"bytes32"}],"stateMutability":"view"},{"type":"function","name":"queueNewRewardAllocation","inputs":[{"name":"valPubkey","type":"bytes","internalType":"bytes"},{"name":"startBlock","type":"uint64","internalType":"uint64"},{"name":"weights","type":"tuple[]","internalType":"struct IBeraChef.Weight[]","components":[{"name":"receiver","type":"address","internalType":"address"},{"name":"percentageNumerator","type":"uint96","internalType":"uint96"}]}],"outputs":[],"stateMutability":"nonpayable"},{"type":"function","name":"queueValCommission","inputs":[{"name":"valPubkey","type":"bytes","internalType":"bytes"},{"name":"commissionRate","type":"uint96","internalType":"uint96"}],"outputs":[],"stateMutability":"nonpayable"},{"type":"function","name":"renounceOwnership","inputs":[],"outputs":[],"stateMutability":"nonpayable"},{"type":"function","name":"rewardAllocationBlockDelay","inputs":[],"outputs":[{"name":"","type":"uint64","internalType":"uint64"}],"stateMutability":"view"},{"type":"function","name":"setCommissionChangeDelay","inputs":[{"name":"_commissionChangeDelay","type":"uint64","internalType":"uint64"}],"outputs":[],"stateMutability":"nonpayable"},{"type":"function","name":"setDefaultRewardAllocation","inputs":[{"name":"ra","type":"tuple","internalType":"struct IBeraChef.RewardAllocation","components":[{"name":"startBlock","type":"uint64","internalType":"uint64"},{"name":"weights","type":"tuple[]","internalType":"struct IBeraChef.Weight[]","components":[{"name":"receiver","type":"address","internalType":"address"},{"name":"percentageNumerator","type":"uint96","internalType":"uint96"}]}]}],"outputs":[],"stateMutability":"nonpayable"},{"type":"function","name":"setMaxNumWeightsPerRewardAllocation","inputs":[{"name":"_maxNumWeightsPerRewardAllocation","type":"uint8","internalType":"uint8"}],"outputs":[],"stateMutability":"nonpayable"},{"type":"function","name":"setMaxWeightPerVault","inputs":[{"name":"_maxWeightPerVault","type":"uint96","internalType":"uint96"}],"outputs":[],"stateMutability":"nonpayable"},{"type":"function","name":"setRewardAllocationBlockDelay","inputs":[{"name":"_rewardAllocationBlockDelay","type":"uint64","internalType":"uint64"}],"outputs":[],"stateMutability":"nonpayable"},{"type":"function","name":"setVaultWhitelistedStatus","inputs":[{"name":"receiver","type":"address","internalType":"address"},{"name":"isWhitelisted","type":"bool","internalType":"bool"},{"name":"metadata","type":"string","internalType":"string"}],"outputs":[],"stateMutability":"nonpayable"},{"type":"function","name":"transferOwnership","inputs":[{"name":"newOwner","type":"address","internalType":"address"}],"outputs":[],"stateMutability":"nonpayable"},{"type":"function","name":"updateWhitelistedVaultMetadata","inputs":[{"name":"vault","type":"address","internalType":"address"},{"name":"metadata","type":"string","internalType":"string"}],"outputs":[],"stateMutability":"nonpayable"},{"type":"function","name":"upgradeToAndCall","inputs":[{"name":"newImplementation","type":"address","internalType":"address"},{"name":"data","type":"bytes","internalType":"bytes"}],"outputs":[],"stateMutability":"payable"},{"type":"event","name":"ActivateRewardAllocation","inputs":[{"name":"valPubkey","type":"bytes","indexed":true,"internalType":"bytes"},{"name":"startBlock","type":"uint64","indexed":false,"internalType":"uint64"},{"name":"weights","type":"tuple[]","indexed":false,"internalType":"struct IBeraChef.Weight[]","components":[{"name":"receiver","type":"address","internalType":"address"},{"name":"percentageNumerator","type":"uint96","internalType":"uint96"}]}],"anonymous":false},{"type":"event","name":"CommissionChangeDelaySet","inputs":[{"name":"commissionChangeDelay","type":"uint64","indexed":false,"internalType":"uint64"}],"anonymous":false},{"type":"event","name":"Initialized","inputs":[{"name":"version","type":"uint64","indexed":false,"internalType":"uint64"}],"anonymous":false},{"type":"event","name":"MaxNumWeightsPerRewardAllocationSet","inputs":[{"name":"maxNumWeightsPerRewardAllocation","type":"uint8","indexed":false,"internalType":"uint8"}],"anonymous":false},{"type":"event","name":"MaxWeightPerVaultSet","inputs":[{"name":"maxWeightPerVault","type":"uint96","indexed":false,"internalType":"uint96"}],"anonymous":false},{"type":"event","name":"OwnershipTransferred","inputs":[{"name":"previousOwner","type":"address","indexed":true,"internalType":"address"},{"name":"newOwner","type":"address","indexed":true,"internalType":"address"}],"anonymous":false},{"type":"event","name":"QueueRewardAllocation","inputs":[{"name":"valPubkey","type":"bytes","indexed":true,"internalType":"bytes"},{"name":"startBlock","type":"uint64","indexed":false,"internalType":"uint64"},{"name":"weights","type":"tuple[]","indexed":false,"internalType":"struct IBeraChef.Weight[]","components":[{"name":"receiver","type":"address","internalType":"address"},{"name":"percentageNumerator","type":"uint96","internalType":"uint96"}]}],"anonymous":false},{"type":"event","name":"QueuedValCommission","inputs":[{"name":"valPubkey","type":"bytes","indexed":true,"internalType":"bytes"},{"name":"queuedCommissionRate","type":"uint96","indexed":false,"internalType":"uint96"}],"anonymous":false},{"type":"event","name":"RewardAllocationBlockDelaySet","inputs":[{"name":"rewardAllocationBlockDelay","type":"uint64","indexed":false,"internalType":"uint64"}],"anonymous":false},{"type":"event","name":"SetDefaultRewardAllocation","inputs":[{"name":"rewardAllocation","type":"tuple","indexed":false,"internalType":"struct IBeraChef.RewardAllocation","components":[{"name":"startBlock","type":"uint64","internalType":"uint64"},{"name":"weights","type":"tuple[]","internalType":"struct IBeraChef.Weight[]","components":[{"name":"receiver","type":"address","internalType":"address"},{"name":"percentageNumerator","type":"uint96","internalType":"uint96"}]}]}],"anonymous":false},{"type":"event","name":"Upgraded","inputs":[{"name":"implementation","type":"address","indexed":true,"internalType":"address"}],"anonymous":false},{"type":"event","name":"ValCommissionSet","inputs":[{"name":"valPubkey","type":"bytes","indexed":true,"internalType":"bytes"},{"name":"oldCommissionRate","type":"uint96","indexed":false,"internalType":"uint96"},{"name":"newCommissionRate","type":"uint96","indexed":false,"internalType":"uint96"}],"anonymous":false},{"type":"event","name":"VaultWhitelistedStatusUpdated","inputs":[{"name":"receiver","type":"address","indexed":true,"internalType":"address"},{"name":"isWhitelisted","type":"bool","indexed":true,"internalType":"bool"},{"name":"metadata","type":"string","indexed":false,"internalType":"string"}],"anonymous":false},{"type":"event","name":"WhitelistedVaultMetadataUpdated","inputs":[{"name":"receiver","type":"address","indexed":true,"internalType":"address"},{"name":"metadata","type":"string","indexed":false,"internalType":"string"}],"anonymous":false},{"type":"error","name":"AddressEmptyCode","inputs":[{"name":"target","type":"address","internalType":"address"}]},{"type":"error","name":"AmountLessThanMinIncentiveRate","inputs":[]},{"type":"error","name":"CannotRecoverIncentiveToken","inputs":[]},{"type":"error","name":"CannotRecoverRewardToken","inputs":[]},{"type":"error","name":"CannotRecoverStakingToken","inputs":[]},{"type":"error","name":"CommissionChangeAlreadyQueued","inputs":[]},{"type":"error","name":"CommissionNotQueuedOrDelayNotPassed","inputs":[]},{"type":"error","name":"DepositNotMultipleOfGwei","inputs":[]},{"type":"error","name":"DepositValueTooHigh","inputs":[]},{"type":"error","name":"DonateAmountLessThanPayoutAmount","inputs":[]},{"type":"error","name":"ERC1967InvalidImplementation","inputs":[{"name":"implementation","type":"address","internalType":"address"}]},{"type":"error","name":"ERC1967NonPayable","inputs":[]},{"type":"error","name":"FailedCall","inputs":[]},{"type":"error","name":"IncentiveRateTooHigh","inputs":[]},{"type":"error","name":"IndexOutOfRange","inputs":[]},{"type":"error","name":"InsolventReward","inputs":[]},{"type":"error","name":"InsufficientDelegateStake","inputs":[]},{"type":"error","name":"InsufficientDeposit","inputs":[]},{"type":"error","name":"InsufficientIncentiveTokens","inputs":[]},{"type":"error","name":"InsufficientSelfStake","inputs":[]},{"type":"error","name":"InsufficientStake","inputs":[]},{"type":"error","name":"InvalidActivateBoostDelay","inputs":[]},{"type":"error","name":"InvalidArray","inputs":[]},{"type":"error","name":"InvalidBaseRate","inputs":[]},{"type":"error","name":"InvalidBoostMultiplier","inputs":[]},{"type":"error","name":"InvalidCommissionChangeDelay","inputs":[]},{"type":"error","name":"InvalidCommissionValue","inputs":[]},{"type":"error","name":"InvalidCredentialsLength","inputs":[]},{"type":"error","name":"InvalidDistribution","inputs":[]},{"type":"error","name":"InvalidDropBoostDelay","inputs":[]},{"type":"error","name":"InvalidIncentiveRate","inputs":[]},{"type":"error","name":"InvalidInitialization","inputs":[]},{"type":"error","name":"InvalidMaxIncentiveTokensCount","inputs":[]},{"type":"error","name":"InvalidMaxWeightPerVault","inputs":[]},{"type":"error","name":"InvalidMerkleRoot","inputs":[]},{"type":"error","name":"InvalidMinBoostedRewardRate","inputs":[]},{"type":"error","name":"InvalidProof","inputs":[]},{"type":"error","name":"InvalidPubKeyLength","inputs":[]},{"type":"error","name":"InvalidRewardAllocationWeights","inputs":[]},{"type":"error","name":"InvalidRewardClaimDelay","inputs":[]},{"type":"error","name":"InvalidRewardConvexity","inputs":[]},{"type":"error","name":"InvalidRewardRate","inputs":[]},{"type":"error","name":"InvalidSignatureLength","inputs":[]},{"type":"error","name":"InvalidStartBlock","inputs":[]},{"type":"error","name":"InvalidToken","inputs":[]},{"type":"error","name":"InvalidWeight","inputs":[]},{"type":"error","name":"InvalidateDefaultRewardAllocation","inputs":[]},{"type":"error","name":"InvariantCheckFailed","inputs":[]},{"type":"error","name":"MaxNumWeightsPerRewardAllocationIsZero","inputs":[]},{"type":"error","name":"MinIncentiveRateIsZero","inputs":[]},{"type":"error","name":"NotAContract","inputs":[]},{"type":"error","name":"NotApprovedSender","inputs":[]},{"type":"error","name":"NotBGT","inputs":[]},{"type":"error","name":"NotBlockRewardController","inputs":[]},{"type":"error","name":"NotDelegate","inputs":[]},{"type":"error","name":"NotDistributor","inputs":[]},{"type":"error","name":"NotEnoughBalance","inputs":[]},{"type":"error","name":"NotEnoughBoostedBalance","inputs":[]},{"type":"error","name":"NotEnoughTime","inputs":[]},{"type":"error","name":"NotFactoryVault","inputs":[]},{"type":"error","name":"NotFeeCollector","inputs":[]},{"type":"error","name":"NotIncentiveManager","inputs":[]},{"type":"error","name":"NotInitializing","inputs":[]},{"type":"error","name":"NotNewOperator","inputs":[]},{"type":"error","name":"NotOperator","inputs":[]},{"type":"error","name":"NotWhitelistedVault","inputs":[]},{"type":"error","name":"OperatorAlreadySet","inputs":[]},{"type":"error","name":"OwnableInvalidOwner","inputs":[{"name":"owner","type":"address","internalType":"address"}]},{"type":"error","name":"OwnableUnauthorizedAccount","inputs":[{"name":"account","type":"address","internalType":"address"}]},{"type":"error","name":"PayoutAmountIsZero","inputs":[]},{"type":"error","name":"RewardAllocationAlreadyQueued","inputs":[]},{"type":"error","name":"RewardAllocationBlockDelayTooLarge","inputs":[]},{"type":"error","name":"RewardCycleNotEnded","inputs":[]},{"type":"error","name":"RewardInactive","inputs":[]},{"type":"error","name":"RewardsDurationIsZero","inputs":[]},{"type":"error","name":"StakeAmountIsZero","inputs":[]},{"type":"error","name":"TimestampAlreadyProcessed","inputs":[]},{"type":"error","name":"TokenAlreadyWhitelistedOrLimitReached","inputs":[]},{"type":"error","name":"TokenNotWhitelisted","inputs":[]},{"type":"error","name":"TooManyWeights","inputs":[]},{"type":"error","name":"TotalSupplyOverflow","inputs":[]},{"type":"error","name":"UUPSUnauthorizedCallContext","inputs":[]},{"type":"error","name":"UUPSUnsupportedProxiableUUID","inputs":[{"name":"slot","type":"bytes32","internalType":"bytes32"}]},{"type":"error","name":"WithdrawAmountIsZero","inputs":[]},{"type":"error","name":"ZeroAddress","inputs":[]},{"type":"error","name":"ZeroOperatorOnFirstDeposit","inputs":[]},{"type":"error","name":"ZeroPercentageWeight","inputs":[]}],"bytecode":{"object":"0x60a060405230608052348015610013575f80fd5b5061001c610021565b6100d3565b7ff0c57e16840df040f15088dc2f81fe391c3923bec73e23a9662efc9c229c6a00805468010000000000000000900460ff16156100715760405163f92ee8a960e01b815260040160405180910390fd5b80546001600160401b03908116146100d05780546001600160401b0319166001600160401b0390811782556040519081527fc7f505b2f371ae2175ee4913f4499e1f2633a7b5936321eed1cdaeb6115181d29060200160405180910390a15b50565b6080516137956100f95f395f818161232e01528181612357015261257301526137955ff3fe608060405260043610610242575f3560e01c8063722f8e0a11610131578063bfe10928116100ac578063da6f75631161007c578063eafe0f4c11610062578063eafe0f4c14610791578063f2fde38b146107bd578063fb9f6fde146107dc575f80fd5b8063da6f756314610753578063e5eb90aa14610772575f80fd5b8063bfe1092814610692578063c35569cd146106bd578063c45a015514610708578063c89f266514610734575f80fd5b80639ca2626c11610101578063a2ce2773116100e7578063a2ce2773146105c1578063a83f0817146105ef578063ad3cb1cc1461063d575f80fd5b80639ca2626c1461058c578063a094a031146105ab575f80fd5b8063722f8e0a146104b55780637239e8ca146104e45780638da5cb5b146105035780638f7e0f0b1461056d575f80fd5b80634f1ef286116101c1578063620a12b71161019157806369ed17081161017757806369ed1708146104635780636ed0bf9a14610482578063715018a6146104a1575f80fd5b8063620a12b71461042457806366204c7814610444575f80fd5b80634f1ef286146103a657806352d1902d146103b957806353a35d1d146103cd57806361b8b56014610405575f80fd5b806325fb3c42116102165780633909cbd5116101fc5780633909cbd51461032b5780634ce34525146103585780634ecbf5c014610387575f80fd5b806325fb3c42146102ed57806337e4c5bf1461030c575f80fd5b80628c26761461024657806312b398191461026757806317dbf270146102ad578063230288ce146102ce575b5f80fd5b348015610251575f80fd5b50610265610260366004612c5b565b6107fb565b005b348015610272575f80fd5b50600b5461028b906bffffffffffffffffffffffff1681565b6040516bffffffffffffffffffffffff90911681526020015b60405180910390f35b3480156102b8575f80fd5b506102c1610a82565b6040516102a49190612cc4565b3480156102d9575f80fd5b506102c16102e8366004612d9e565b610b53565b3480156102f8575f80fd5b50610265610307366004612df6565b610c43565b348015610317575f80fd5b50610265610326366004612d9e565b610deb565b348015610336575f80fd5b5061034a610345366004612e11565b610ff0565b6040519081526020016102a4565b348015610363575f80fd5b5061036e621410b881565b60405167ffffffffffffffff90911681526020016102a4565b348015610392575f80fd5b506102c16103a1366004612d9e565b611030565b6102656103b4366004612f1b565b611056565b3480156103c4575f80fd5b5061034a611075565b3480156103d8575f80fd5b5060025461036e9074010000000000000000000000000000000000000000900467ffffffffffffffff1681565b348015610410575f80fd5b5061028b61041f366004612d9e565b6110a3565b34801561042f575f80fd5b5060085461036e9067ffffffffffffffff1681565b34801561044f575f80fd5b5061026561045e366004612f7b565b6110ae565b34801561046e575f80fd5b5061026561047d366004612fb2565b6111a1565b34801561048d575f80fd5b5061026561049c366004612d9e565b611250565b3480156104ac575f80fd5b506102656113f7565b3480156104c0575f80fd5b506104d46104cf366004612e11565b61140a565b60405190151581526020016102a4565b3480156104ef575f80fd5b506102656104fe36600461300a565b61145c565b34801561050e575f80fd5b507f9016d09d72d40fdae2fd8ceac6b6234c7706214fd39c1cd1e609a0528c1993005473ffffffffffffffffffffffffffffffffffffffff165b60405173ffffffffffffffffffffffffffffffffffffffff90911681526020016102a4565b348015610578575f80fd5b50610265610587366004613025565b61151b565b348015610597575f80fd5b506102656105a636600461300a565b611774565b3480156105b6575f80fd5b5060075415156104d4565b3480156105cc575f80fd5b506104d46105db366004613078565b60056020525f908152604090205460ff1681565b3480156105fa575f80fd5b5061060e610609366004612d9e565b61183b565b60408051825163ffffffff1681526020928301516bffffffffffffffffffffffff1692810192909252016102a4565b348015610648575f80fd5b506106856040518060400160405280600581526020017f352e302e3000000000000000000000000000000000000000000000000000000081525081565b6040516102a49190613093565b34801561069d575f80fd5b505f546105489073ffffffffffffffffffffffffffffffffffffffff1681565b3480156106c8575f80fd5b506002546106f6907c0100000000000000000000000000000000000000000000000000000000900460ff1681565b60405160ff90911681526020016102a4565b348015610713575f80fd5b506001546105489073ffffffffffffffffffffffffffffffffffffffff1681565b34801561073f575f80fd5b5061026561074e3660046130e6565b6118a6565b34801561075e575f80fd5b506102c161076d366004612d9e565b61190c565b34801561077d575f80fd5b5061026561078c36600461311d565b611ae4565b34801561079c575f80fd5b506002546105489073ffffffffffffffffffffffffffffffffffffffff1681565b3480156107c8575f80fd5b506102656107d7366004613078565b611d92565b3480156107e7575f80fd5b506102656107f63660046131cd565b611dfa565b5f6108046120cf565b805490915060ff68010000000000000000820416159067ffffffffffffffff165f811580156108305750825b90505f8267ffffffffffffffff16600114801561084c5750303b155b90508115801561085a575080155b15610891576040517ff92ee8a900000000000000000000000000000000000000000000000000000000815260040160405180910390fd5b84547fffffffffffffffffffffffffffffffffffffffffffffffff000000000000000016600117855583156108f25784547fffffffffffffffffffffffffffffffffffffffffffffff00ffffffffffffffff16680100000000000000001785555b6108fb886120f7565b610903612108565b5f805473ffffffffffffffffffffffffffffffffffffffff808d167fffffffffffffffffffffffff0000000000000000000000000000000000000000928316178355600180548d831690841617905560028054918b169190921617905560ff87169003610993576109937fa4cc22ed00000000000000000000000000000000000000000000000000000000612110565b60405160ff871681527f1f427f3160f84ab8033ba8e3550b2a3f178241305e86660a221c0dc52f3bc9ae9060200160405180910390a1600280547fffffff00ffffffffffffffffffffffffffffffffffffffffffffffffffffffff167c010000000000000000000000000000000000000000000000000000000060ff8916021790558315610a765784547fffffffffffffffffffffffffffffffffffffffffffffff00ffffffffffffffff168555604051600181527fc7f505b2f371ae2175ee4913f4499e1f2633a7b5936321eed1cdaeb6115181d29060200160405180910390a15b50505050505050505050565b604080518082019091525f8152606060208201526040805180820182526006805467ffffffffffffffff1682526007805484516020828102820181019096528181529394929383860193909291905f9084015b82821015610b46575f848152602090819020604080518082019091529084015473ffffffffffffffffffffffffffffffffffffffff811682527401000000000000000000000000000000000000000090046bffffffffffffffffffffffff1681830152825260019092019101610ad5565b5050505081525050905090565b604080518082019091525f81526060602082015260038383604051610b7992919061322f565b9081526040805191829003602090810183208383018352805467ffffffffffffffff1684526001810180548451818502810185019095528085529193858401939092905f9084015b82821015610c32575f848152602090819020604080518082019091529084015473ffffffffffffffffffffffffffffffffffffffff811682527401000000000000000000000000000000000000000090046bffffffffffffffffffffffff1681830152825260019092019101610bc1565b505050508152505090505b92915050565b610c4b612118565b6bffffffffffffffffffffffff81161580610c7557506127106bffffffffffffffffffffffff8216115b15610ca357610ca37fcb1ee12300000000000000000000000000000000000000000000000000000000612110565b600b80547fffffffffffffffffffffffffffffffffffffffff000000000000000000000000166bffffffffffffffffffffffff83161790556007805460408051602080840282018101909252828152610d7993909290915f9084015b82821015610d70575f848152602090819020604080518082019091529084015473ffffffffffffffffffffffffffffffffffffffff811682527401000000000000000000000000000000000000000090046bffffffffffffffffffffffff1681830152825260019092019101610cff565b505050506121a6565b610da657610da67f3e38573f00000000000000000000000000000000000000000000000000000000612110565b6040516bffffffffffffffffffffffff821681527f523ff6a2313471a5db395404a4772a665c76c13b1bb1307270db69eb843b803e906020015b60405180910390a150565b5f60098383604051610dfe92919061322f565b908152604051908190036020019020805460085491925063ffffffff8116916bffffffffffffffffffffffff64010000000090920491909116905f90610e4e9067ffffffffffffffff168461326b565b905063ffffffff83161580610e6857508063ffffffff1643105b15610e9657610e967fe926944600000000000000000000000000000000000000000000000000000000612110565b5f610ea187876122a3565b905060405180604001604052808363ffffffff168152602001846bffffffffffffffffffffffff16815250600a8888604051610ede92919061322f565b90815260405190819003602090810182208351815494909201516bffffffffffffffffffffffff16640100000000027fffffffffffffffffffffffffffffffff0000000000000000000000000000000090941663ffffffff9092169190911792909217909155610f51908890889061322f565b604080519182900382206bffffffffffffffffffffffff808516845286166020840152917f154e6b9420982ca77402c0dd255e23fef1199d854e122d1231ec746266d0cf48910160405180910390a260098787604051610fb292919061322f565b90815260405190819003602001902080547fffffffffffffffffffffffffffffffff0000000000000000000000000000000016905550505050505050565b5f80610ffc85856122a3565b90505f61271061101a6bffffffffffffffffffffffff84168661328b565b61102491906132a2565b925050505b9392505050565b604080518082019091525f81526060602082015260048383604051610b7992919061322f565b61105e612316565b6110678261241a565b6110718282612422565b5050565b5f61107e61255b565b507f360894a13ba1a3210667c828492db98dca3e2076cc3735a920a3ca505d382bbc90565b5f61102983836122a3565b6110b6612118565b8060ff165f036110e9576110e97fa4cc22ed00000000000000000000000000000000000000000000000000000000612110565b60075460ff8216101561111f5761111f7f3e38573f00000000000000000000000000000000000000000000000000000000612110565b600280547fffffff00ffffffffffffffffffffffffffffffffffffffffffffffffffffffff167c010000000000000000000000000000000000000000000000000000000060ff8416908102919091179091556040519081527f1f427f3160f84ab8033ba8e3550b2a3f178241305e86660a221c0dc52f3bc9ae90602001610de0565b6111a9612118565b73ffffffffffffffffffffffffffffffffffffffff82165f9081526005602052604090205460ff166111fe576111fe7f3640785000000000000000000000000000000000000000000000000000000000612110565b8173ffffffffffffffffffffffffffffffffffffffff167fb10c3a0623fdc435deba8729692b1a7c6c1886b7466c8cffa3ccdb42042ffbc5826040516112449190613093565b60405180910390a25050565b5f5473ffffffffffffffffffffffffffffffffffffffff163314611297576112977f385296d500000000000000000000000000000000000000000000000000000000612110565b6112a282824361140a565b15611071575f600483836040516112ba92919061322f565b908152604051908190036020018120805490925067ffffffffffffffff169082906003906112eb908790879061322f565b908152604051908190036020019020815481547fffffffffffffffffffffffffffffffffffffffffffffffff00000000000000001667ffffffffffffffff909116178155600180830180546113439284019190612b41565b505060405161135691508590859061322f565b60405180910390207f09fed3850dff4fef07a5284847da937f94021882ecab1c143fcacd69e5451bd882846001016040516113929291906132da565b60405180910390a2600484846040516113ac92919061322f565b90815260405190819003602001902080547fffffffffffffffffffffffffffffffffffffffffffffffff00000000000000001681555f6113ef6001830182612bfa565b505050505050565b6113ff612118565b6114085f6125ca565b565b5f806004858560405161141e92919061322f565b9081526040519081900360200190205467ffffffffffffffff16905080158015906114535750828167ffffffffffffffff1611155b95945050505050565b611464612118565b67ffffffffffffffff811615806114865750613ffe67ffffffffffffffff8216115b156114b4576114b47fc1abde5300000000000000000000000000000000000000000000000000000000612110565b600880547fffffffffffffffffffffffffffffffffffffffffffffffff00000000000000001667ffffffffffffffff83169081179091556040519081527f64362e066c3e2aa8c9ade9c3c475eca8e99702a002a5adbe13a4404fc05dfee390602001610de0565b6002546040517f9eaffa960000000000000000000000000000000000000000000000000000000081528491849173ffffffffffffffffffffffffffffffffffffffff90911690639eaffa96906115779085908590600401613353565b602060405180830381865afa158015611592573d5f803e3d5ffd5b505050506040513d601f19601f820116820180604052508101906115b6919061339f565b73ffffffffffffffffffffffffffffffffffffffff163373ffffffffffffffffffffffffffffffffffffffff1614611611576116117f7c214f0400000000000000000000000000000000000000000000000000000000612110565b6127106bffffffffffffffffffffffff84161115611652576116527fab396d1100000000000000000000000000000000000000000000000000000000612110565b5f6009868660405161166592919061322f565b908152604051908190036020019020805490915063ffffffff16156116ad576116ad7f0c32c4fa00000000000000000000000000000000000000000000000000000000612110565b80547fffffffffffffffffffffffffffffffff00000000000000000000000000000000166401000000006bffffffffffffffffffffffff8616027fffffffffffffffffffffffffffffffffffffffffffffffffffffffff0000000016174363ffffffff16178155604051611724908790879061322f565b6040519081900381206bffffffffffffffffffffffff86168252907f6c1fd7992c5cda804ff20cff8ec6eb7622a74aa084ff0f7bfd15b9f30a4a5a739060200160405180910390a2505050505050565b61177c612118565b621410b867ffffffffffffffff821611156117ba576117ba7f462a2bb200000000000000000000000000000000000000000000000000000000612110565b600280547fffffffff0000000000000000ffffffffffffffffffffffffffffffffffffffff167401000000000000000000000000000000000000000067ffffffffffffffff8416908102919091179091556040519081527fd30a76f5419042e46e49eaf91b6a0f0feaaa673b6db586a63d3e8e79d4bf208190602001610de0565b604080518082019091525f80825260208201526009838360405161186092919061322f565b908152604080519182900360209081018320838301909252905463ffffffff811683526bffffffffffffffffffffffff6401000000009091041690820152905092915050565b6118ae612118565b6118c36118be60208301836133ba565b61265f565b7f63a1be039047941d4150a7feb1920b5fadcbf022e1a21334fba542a52eabdaf7816040516118f29190613496565b60405180910390a180600661190782826135b1565b505050565b604080518082019091525f8152606060208201525f6003848460405161193392919061322f565b9081526040805191829003602090810183208383018352805467ffffffffffffffff1684526001810180548451818502810185019095528085529193858401939092905f9084015b828210156119ec575f848152602090819020604080518082019091529084015473ffffffffffffffffffffffffffffffffffffffff811682527401000000000000000000000000000000000000000090046bffffffffffffffffffffffff168183015282526001909201910161197b565b50505091525050805190915067ffffffffffffffff1615801590611a185750611a1881602001516121a6565b15611a24579050610c3d565b6040805180820182526006805467ffffffffffffffff1682526007805484516020828102820181019096528181529394929383860193909291905f9084015b82821015611ad4575f848152602090819020604080518082019091529084015473ffffffffffffffffffffffffffffffffffffffff811682527401000000000000000000000000000000000000000090046bffffffffffffffffffffffff1681830152825260019092019101611a63565b5050509152509095945050505050565b6002546040517f9eaffa960000000000000000000000000000000000000000000000000000000081528691869173ffffffffffffffffffffffffffffffffffffffff90911690639eaffa9690611b409085908590600401613353565b602060405180830381865afa158015611b5b573d5f803e3d5ffd5b505050506040513d601f19601f82011682018060405250810190611b7f919061339f565b73ffffffffffffffffffffffffffffffffffffffff163373ffffffffffffffffffffffffffffffffffffffff1614611bda57611bda7f7c214f0400000000000000000000000000000000000000000000000000000000612110565b600254611c099074010000000000000000000000000000000000000000900467ffffffffffffffff16436136d4565b8567ffffffffffffffff1611611c4257611c427fec2caa0d00000000000000000000000000000000000000000000000000000000612110565b5f60048888604051611c5592919061322f565b908152604051908190036020019020805490915067ffffffffffffffff1615611ca157611ca17f3be31f8c00000000000000000000000000000000000000000000000000000000612110565b611cab858561265f565b80547fffffffffffffffffffffffffffffffffffffffffffffffff00000000000000001667ffffffffffffffff8716178155600181015f5b85811015611d335781878783818110611cfe57611cfe6136e7565b83546001810185555f948552602090942060409091029290920192919091019050611d29828261352c565b5050600101611ce3565b508888604051611d4492919061322f565b60405180910390207f22fe555512d9a04d20e3735ac5fe7a73227c2c6398f1453a5d60ce7aaf5de2ae888888604051611d7f93929190613714565b60405180910390a2505050505050505050565b611d9a612118565b73ffffffffffffffffffffffffffffffffffffffff8116611dee576040517f1e4fbdf70000000000000000000000000000000000000000000000000000000081525f60048201526024015b60405180910390fd5b611df7816125ca565b50565b611e02612118565b5f8373ffffffffffffffffffffffffffffffffffffffff166351ed6a306040518163ffffffff1660e01b8152600401602060405180830381865afa158015611e4c573d5f803e3d5ffd5b505050506040513d601f19601f82011682018060405250810190611e70919061339f565b6001546040517f0eb9af3800000000000000000000000000000000000000000000000000000000815273ffffffffffffffffffffffffffffffffffffffff80841660048301529293505f9290911690630eb9af3890602401602060405180830381865afa158015611ee3573d5f803e3d5ffd5b505050506040513d601f19601f82011682018060405250810190611f07919061339f565b90508073ffffffffffffffffffffffffffffffffffffffff168573ffffffffffffffffffffffffffffffffffffffff1614611f6557611f657f08519afa00000000000000000000000000000000000000000000000000000000612110565b73ffffffffffffffffffffffffffffffffffffffff85165f90815260056020526040902080547fffffffffffffffffffffffffffffffffffffffffffffffffffffffffffffff00168515151790558361207757600780546040805160208084028201810190925282815261204a93909290915f9084018215610d70575f848152602090819020604080518082019091529084015473ffffffffffffffffffffffffffffffffffffffff811682527401000000000000000000000000000000000000000090046bffffffffffffffffffffffff1681830152825260019092019101610cff565b612077576120777f3e38573f00000000000000000000000000000000000000000000000000000000612110565b8315158573ffffffffffffffffffffffffffffffffffffffff167fad865159180d43e1aedae6624a0e9e20d86e07afb82a96f8f9a8b2f3294e16c0856040516120c09190613093565b60405180910390a35050505050565b5f807ff0c57e16840df040f15088dc2f81fe391c3923bec73e23a9662efc9c229c6a00610c3d565b6120ff61282e565b611df78161286c565b61140861282e565b805f5260045ffd5b336121577f9016d09d72d40fdae2fd8ceac6b6234c7706214fd39c1cd1e609a0528c1993005473ffffffffffffffffffffffffffffffffffffffff1690565b73ffffffffffffffffffffffffffffffffffffffff1614611408576040517f118cdaa7000000000000000000000000000000000000000000000000000000008152336004820152602401611de5565b80516002545f91907c0100000000000000000000000000000000000000000000000000000000900460ff168111156121e057505f92915050565b5f5b8181101561229957600b5484516bffffffffffffffffffffffff90911690859083908110612212576122126136e7565b6020026020010151602001516bffffffffffffffffffffffff16111561223b57505f9392505050565b60055f858381518110612250576122506136e7565b6020908102919091018101515173ffffffffffffffffffffffffffffffffffffffff1682528101919091526040015f205460ff1661229157505f9392505050565b6001016121e2565b5060019392505050565b5f80600a84846040516122b792919061322f565b9081526040805160209281900383018120818301909252905463ffffffff81168083526401000000009091046bffffffffffffffffffffffff169282019290925291505f0361230b576101f4915050610c3d565b602001519392505050565b3073ffffffffffffffffffffffffffffffffffffffff7f00000000000000000000000000000000000000000000000000000000000000001614806123e357507f000000000000000000000000000000000000000000000000000000000000000073ffffffffffffffffffffffffffffffffffffffff166123ca7f360894a13ba1a3210667c828492db98dca3e2076cc3735a920a3ca505d382bbc5473ffffffffffffffffffffffffffffffffffffffff1690565b73ffffffffffffffffffffffffffffffffffffffff1614155b15611408576040517fe07c8dba00000000000000000000000000000000000000000000000000000000815260040160405180910390fd5b611df7612118565b8173ffffffffffffffffffffffffffffffffffffffff166352d1902d6040518163ffffffff1660e01b8152600401602060405180830381865afa9250505080156124a7575060408051601f3d9081017fffffffffffffffffffffffffffffffffffffffffffffffffffffffffffffffe01682019092526124a491810190613737565b60015b6124f5576040517f4c9c8ce300000000000000000000000000000000000000000000000000000000815273ffffffffffffffffffffffffffffffffffffffff83166004820152602401611de5565b7f360894a13ba1a3210667c828492db98dca3e2076cc3735a920a3ca505d382bbc8114612551576040517faa1d49a400000000000000000000000000000000000000000000000000000000815260048101829052602401611de5565b6119078383612874565b3073ffffffffffffffffffffffffffffffffffffffff7f00000000000000000000000000000000000000000000000000000000000000001614611408576040517fe07c8dba00000000000000000000000000000000000000000000000000000000815260040160405180910390fd5b7f9016d09d72d40fdae2fd8ceac6b6234c7706214fd39c1cd1e609a0528c19930080547fffffffffffffffffffffffff0000000000000000000000000000000000000000811673ffffffffffffffffffffffffffffffffffffffff848116918217845560405192169182907f8be0079c531659141344cd1fd0a4f28419497f9722a3daafe3b4186f6b6457e0905f90a3505050565b6002547c0100000000000000000000000000000000000000000000000000000000900460ff168111156126b5576126b57ff6fae72100000000000000000000000000000000000000000000000000000000612110565b5f805b828110156127ed57368484838181106126d3576126d36136e7565b90506040020190508060200160208101906126ee9190612df6565b6bffffffffffffffffffffffff1615806127345750600b546bffffffffffffffffffffffff166127246040830160208401612df6565b6bffffffffffffffffffffffff16115b15612762576127627f585b926300000000000000000000000000000000000000000000000000000000612110565b60055f6127726020840184613078565b73ffffffffffffffffffffffffffffffffffffffff16815260208101919091526040015f205460ff166127c8576127c87f3640785000000000000000000000000000000000000000000000000000000000612110565b6127d86040820160208301612df6565b6127e2908461374e565b9250506001016126b8565b506bffffffffffffffffffffffff811661271014611907576119077f13134d2400000000000000000000000000000000000000000000000000000000612110565b6128366128d6565b611408576040517fd7e6bcf800000000000000000000000000000000000000000000000000000000815260040160405180910390fd5b611d9a61282e565b61287d826128f4565b60405173ffffffffffffffffffffffffffffffffffffffff8316907fbc7cd75a20ee27fd9adebab32041f755214dbc6bffa90cc0225b39da2e5c2d3b905f90a28051156128ce5761190782826129c2565b611071612a38565b5f6128df6120cf565b5468010000000000000000900460ff16919050565b8073ffffffffffffffffffffffffffffffffffffffff163b5f0361295c576040517f4c9c8ce300000000000000000000000000000000000000000000000000000000815273ffffffffffffffffffffffffffffffffffffffff82166004820152602401611de5565b7f360894a13ba1a3210667c828492db98dca3e2076cc3735a920a3ca505d382bbc80547fffffffffffffffffffffffff00000000000000000000000000000000000000001673ffffffffffffffffffffffffffffffffffffffff92909216919091179055565b60605f808473ffffffffffffffffffffffffffffffffffffffff16846040516129eb9190613772565b5f60405180830381855af49150503d805f8114612a23576040519150601f19603f3d011682016040523d82523d5f602084013e612a28565b606091505b5091509150611453858383612a70565b3415611408576040517fb398979f00000000000000000000000000000000000000000000000000000000815260040160405180910390fd5b606082612a8557612a8082612aff565b611029565b8151158015612aa9575073ffffffffffffffffffffffffffffffffffffffff84163b155b15612af8576040517f9996b31500000000000000000000000000000000000000000000000000000000815273ffffffffffffffffffffffffffffffffffffffff85166004820152602401611de5565b5080611029565b805115612b0f5780518082602001fd5b6040517fd6bda27500000000000000000000000000000000000000000000000000000000815260040160405180910390fd5b828054828255905f5260205f20908101928215612bea575f5260205f209182015b82811115612bea57825482547fffffffffffffffffffffffff00000000000000000000000000000000000000001673ffffffffffffffffffffffffffffffffffffffff909116908117835583546bffffffffffffffffffffffff7401000000000000000000000000000000000000000091829004160217825560019283019290910190612b62565b50612bf6929150612c11565b5090565b5080545f8255905f5260205f2090810190611df791905b5b80821115612bf6575f8155600101612c12565b73ffffffffffffffffffffffffffffffffffffffff81168114611df7575f80fd5b803560ff81168114612c56575f80fd5b919050565b5f805f805f60a08688031215612c6f575f80fd5b8535612c7a81612c25565b94506020860135612c8a81612c25565b93506040860135612c9a81612c25565b92506060860135612caa81612c25565b9150612cb860808701612c46565b90509295509295909350565b6020808252825167ffffffffffffffff1682820152828101516040808401528051606084018190525f929190910190829060808501905b80831015612d4f57835173ffffffffffffffffffffffffffffffffffffffff81511683526bffffffffffffffffffffffff602082015116602084015250604082019150602084019350600183019250612cfb565b5095945050505050565b5f8083601f840112612d69575f80fd5b50813567ffffffffffffffff811115612d80575f80fd5b602083019150836020828501011115612d97575f80fd5b9250929050565b5f8060208385031215612daf575f80fd5b823567ffffffffffffffff811115612dc5575f80fd5b612dd185828601612d59565b90969095509350505050565b6bffffffffffffffffffffffff81168114611df7575f80fd5b5f60208284031215612e06575f80fd5b813561102981612ddd565b5f805f60408486031215612e23575f80fd5b833567ffffffffffffffff811115612e39575f80fd5b612e4586828701612d59565b909790965060209590950135949350505050565b7f4e487b71000000000000000000000000000000000000000000000000000000005f52604160045260245ffd5b5f8067ffffffffffffffff841115612ea057612ea0612e59565b506040517fffffffffffffffffffffffffffffffffffffffffffffffffffffffffffffffe0601f85018116603f0116810181811067ffffffffffffffff82111715612eed57612eed612e59565b604052838152905080828401851015612f04575f80fd5b838360208301375f60208583010152509392505050565b5f8060408385031215612f2c575f80fd5b8235612f3781612c25565b9150602083013567ffffffffffffffff811115612f52575f80fd5b8301601f81018513612f62575f80fd5b612f7185823560208401612e86565b9150509250929050565b5f60208284031215612f8b575f80fd5b61102982612c46565b5f82601f830112612fa3575f80fd5b61102983833560208501612e86565b5f8060408385031215612fc3575f80fd5b8235612fce81612c25565b9150602083013567ffffffffffffffff811115612fe9575f80fd5b612f7185828601612f94565b67ffffffffffffffff81168114611df7575f80fd5b5f6020828403121561301a575f80fd5b813561102981612ff5565b5f805f60408486031215613037575f80fd5b833567ffffffffffffffff81111561304d575f80fd5b61305986828701612d59565b909450925050602084013561306d81612ddd565b809150509250925092565b5f60208284031215613088575f80fd5b813561102981612c25565b602081525f82518060208401528060208501604085015e5f6040828501015260407fffffffffffffffffffffffffffffffffffffffffffffffffffffffffffffffe0601f83011684010191505092915050565b5f602082840312156130f6575f80fd5b813567ffffffffffffffff81111561310c575f80fd5b820160408185031215611029575f80fd5b5f805f805f60608688031215613131575f80fd5b853567ffffffffffffffff811115613147575f80fd5b61315388828901612d59565b909650945050602086013561316781612ff5565b9250604086013567ffffffffffffffff811115613182575f80fd5b8601601f81018813613192575f80fd5b803567ffffffffffffffff8111156131a8575f80fd5b8860208260061b84010111156131bc575f80fd5b959894975092955050506020019190565b5f805f606084860312156131df575f80fd5b83356131ea81612c25565b9250602084013580151581146131fe575f80fd5b9150604084013567ffffffffffffffff811115613219575f80fd5b61322586828701612f94565b9150509250925092565b818382375f9101908152919050565b7f4e487b71000000000000000000000000000000000000000000000000000000005f52601160045260245ffd5b67ffffffffffffffff8181168382160190811115610c3d57610c3d61323e565b8082028115828204841417610c3d57610c3d61323e565b5f826132d5577f4e487b71000000000000000000000000000000000000000000000000000000005f52601260045260245ffd5b500490565b5f6040820167ffffffffffffffff8516835260406020840152808454808352606085019150855f5260205f2092505f5b8181101561334757835473ffffffffffffffffffffffffffffffffffffffff8116845260a01c60208401526001938401936040909301920161330a565b50909695505050505050565b60208152816020820152818360408301375f818301604090810191909152601f9092017fffffffffffffffffffffffffffffffffffffffffffffffffffffffffffffffe0160101919050565b5f602082840312156133af575f80fd5b815161102981612c25565b5f8083357fffffffffffffffffffffffffffffffffffffffffffffffffffffffffffffffe18436030181126133ed575f80fd5b83018035915067ffffffffffffffff821115613407575f80fd5b6020019150600681901b3603821315612d97575f80fd5b8183526020830192505f815f5b8481101561348c575f823561343f81612c25565b73ffffffffffffffffffffffffffffffffffffffff168752602083013561346581612ddd565b6bffffffffffffffffffffffff16602088015250604095860195919091019060010161342b565b5093949350505050565b602081525f82356134a681612ff5565b67ffffffffffffffff811660208401525060208301357fffffffffffffffffffffffffffffffffffffffffffffffffffffffffffffffe18436030181126134eb575f80fd5b830160208101903567ffffffffffffffff811115613507575f80fd5b8060061b3603821315613518575f80fd5b60408085015261145360608501828461341e565b813561353781612c25565b73ffffffffffffffffffffffffffffffffffffffff81169050807fffffffffffffffffffffffff0000000000000000000000000000000000000000835416178255602083013561358681612ddd565b60a01b7fffffffffffffffffffffffff00000000000000000000000000000000000000001617905550565b81356135bc81612ff5565b67ffffffffffffffff81167fffffffffffffffffffffffffffffffffffffffffffffffff00000000000000008354161782555060208201357fffffffffffffffffffffffffffffffffffffffffffffffffffffffffffffffe1833603018112613623575f80fd5b8201803567ffffffffffffffff81111561363b575f80fd5b6020820191508060061b3603821315613652575f80fd5b600183016801000000000000000082111561366f5761366f612e59565b8054828255808310156136a4575f828152602090208381019082015b808210156136a1575f825560018201915061368b565b50505b505f90815260208120905b828110156113ef576136c1848361352c565b60409390930192600191820191016136af565b80820180821115610c3d57610c3d61323e565b7f4e487b71000000000000000000000000000000000000000000000000000000005f52603260045260245ffd5b67ffffffffffffffff84168152604060208201525f61145360408301848661341e565b5f60208284031215613747575f80fd5b5051919050565b6bffffffffffffffffffffffff8181168382160190811115610c3d57610c3d61323e565b5f82518060208501845e5f92019182525091905056fea164736f6c634300081a000a","linkReferences":{}},"methodIdentifiers":{"MAX_REWARD_ALLOCATION_BLOCK_DELAY()":"4ce34525","UPGRADE_INTERFACE_VERSION()":"ad3cb1cc","activateQueuedValCommission(bytes)":"37e4c5bf","activateReadyQueuedRewardAllocation(bytes)":"6ed0bf9a","beaconDepositContract()":"eafe0f4c","commissionChangeDelay()":"620a12b7","distributor()":"bfe10928","factory()":"c45a0155","getActiveRewardAllocation(bytes)":"da6f7563","getDefaultRewardAllocation()":"17dbf270","getQueuedRewardAllocation(bytes)":"4ecbf5c0","getSetActiveRewardAllocation(bytes)":"230288ce","getValCommissionOnIncentiveTokens(bytes)":"61b8b560","getValQueuedCommissionOnIncentiveTokens(bytes)":"a83f0817","getValidatorIncentiveTokenShare(bytes,uint256)":"3909cbd5","initialize(address,address,address,address,uint8)":"008c2676","isQueuedRewardAllocationReady(bytes,uint256)":"722f8e0a","isReady()":"a094a031","isWhitelistedVault(address)":"a2ce2773","maxNumWeightsPerRewardAllocation()":"c35569cd","maxWeightPerVault()":"12b39819","owner()":"8da5cb5b","proxiableUUID()":"52d1902d","queueNewRewardAllocation(bytes,uint64,(address,uint96)[])":"e5eb90aa","queueValCommission(bytes,uint96)":"8f7e0f0b","renounceOwnership()":"715018a6","rewardAllocationBlockDelay()":"53a35d1d","setCommissionChangeDelay(uint64)":"7239e8ca","setDefaultRewardAllocation((uint64,(address,uint96)[]))":"c89f2665","setMaxNumWeightsPerRewardAllocation(uint8)":"66204c78","setMaxWeightPerVault(uint96)":"25fb3c42","setRewardAllocationBlockDelay(uint64)":"9ca2626c","setVaultWhitelistedStatus(address,bool,string)":"fb9f6fde","transferOwnership(address)":"f2fde38b","updateWhitelistedVaultMetadata(address,string)":"69ed1708","upgradeToAndCall(address,bytes)":"4f1ef286"},"storageLayout":{"storage":[{"astId":82430,"contract":"src/pol/rewards/BeraChef.sol:BeraChef","label":"distributor","offset":0,"slot":"0","type":"t_address"},{"astId":82433,"contract":"src/pol/rewards/BeraChef.sol:BeraChef","label":"factory","offset":0,"slot":"1","type":"t_address"},{"astId":82436,"contract":"src/pol/rewards/BeraChef.sol:BeraChef","label":"beaconDepositContract","offset":0,"slot":"2","type":"t_contract(IBeaconDeposit)80682"},{"astId":82439,"contract":"src/pol/rewards/BeraChef.sol:BeraChef","label":"rewardAllocationBlockDelay","offset":20,"slot":"2","type":"t_uint64"},{"astId":82442,"contract":"src/pol/rewards/BeraChef.sol:BeraChef","label":"maxNumWeightsPerRewardAllocation","offset":28,"slot":"2","type":"t_uint8"},{"astId":82448,"contract":"src/pol/rewards/BeraChef.sol:BeraChef","label":"activeRewardAllocations","offset":0,"slot":"3","type":"t_mapping(t_bytes_memory_ptr,t_struct(RewardAllocation)80697_storage)"},{"astId":82454,"contract":"src/pol/rewards/BeraChef.sol:BeraChef","label":"queuedRewardAllocations","offset":0,"slot":"4","type":"t_mapping(t_bytes_memory_ptr,t_struct(RewardAllocation)80697_storage)"},{"astId":82459,"contract":"src/pol/rewards/BeraChef.sol:BeraChef","label":"isWhitelistedVault","offset":0,"slot":"5","type":"t_mapping(t_address,t_bool)"},{"astId":82463,"contract":"src/pol/rewards/BeraChef.sol:BeraChef","label":"defaultRewardAllocation","offset":0,"slot":"6","type":"t_struct(RewardAllocation)80697_storage"},{"astId":82466,"contract":"src/pol/rewards/BeraChef.sol:BeraChef","label":"commissionChangeDelay","offset":0,"slot":"8","type":"t_uint64"},{"astId":82472,"contract":"src/pol/rewards/BeraChef.sol:BeraChef","label":"valQueuedCommission","offset":0,"slot":"9","type":"t_mapping(t_bytes_memory_ptr,t_struct(QueuedCommissionRateChange)80709_storage)"},{"astId":82478,"contract":"src/pol/rewards/BeraChef.sol:BeraChef","label":"valCommission","offset":0,"slot":"10","type":"t_mapping(t_bytes_memory_ptr,t_struct(CommissionRate)80715_storage)"},{"astId":82481,"contract":"src/pol/rewards/BeraChef.sol:BeraChef","label":"maxWeightPerVault","offset":0,"slot":"11","type":"t_uint96"}],"types":{"t_address":{"encoding":"inplace","label":"address","numberOfBytes":"20"},"t_array(t_struct(Weight)80703_storage)dyn_storage":{"encoding":"dynamic_array","label":"struct IBeraChef.Weight[]","numberOfBytes":"32","base":"t_struct(Weight)80703_storage"},"t_bool":{"encoding":"inplace","label":"bool","numberOfBytes":"1"},"t_bytes_memory_ptr":{"encoding":"bytes","label":"bytes","numberOfBytes":"32"},"t_contract(IBeaconDeposit)80682":{"encoding":"inplace","label":"contract IBeaconDeposit","numberOfBytes":"20"},"t_mapping(t_address,t_bool)":{"encoding":"mapping","key":"t_address","label":"mapping(address => bool)","numberOfBytes":"32","value":"t_bool"},"t_mapping(t_bytes_memory_ptr,t_struct(CommissionRate)80715_storage)":{"encoding":"mapping","key":"t_bytes_memory_ptr","label":"mapping(bytes => struct IBeraChef.CommissionRate)","numberOfBytes":"32","value":"t_struct(CommissionRate)80715_storage"},"t_mapping(t_bytes_memory_ptr,t_struct(QueuedCommissionRateChange)80709_storage)":{"encoding":"mapping","key":"t_bytes_memory_ptr","label":"mapping(bytes => struct IBeraChef.QueuedCommissionRateChange)","numberOfBytes":"32","value":"t_struct(QueuedCommissionRateChange)80709_storage"},"t_mapping(t_bytes_memory_ptr,t_struct(RewardAllocation)80697_storage)":{"encoding":"mapping","key":"t_bytes_memory_ptr","label":"mapping(bytes => struct IBeraChef.RewardAllocation)","numberOfBytes":"32","value":"t_struct(RewardAllocation)80697_storage"},"t_struct(CommissionRate)80715_storage":{"encoding":"inplace","label":"struct IBeraChef.CommissionRate","numberOfBytes":"32","members":[{"astId":80712,"contract":"src/pol/rewards/BeraChef.sol:BeraChef","label":"activationBlock","offset":0,"slot":"0","type":"t_uint32"},{"astId":80714,"contract":"src/pol/rewards/BeraChef.sol:BeraChef","label":"commissionRate","offset":4,"slot":"0","type":"t_uint96"}]},"t_struct(QueuedCommissionRateChange)80709_storage":{"encoding":"inplace","label":"struct IBeraChef.QueuedCommissionRateChange","numberOfBytes":"32","members":[{"astId":80706,"contract":"src/pol/rewards/BeraChef.sol:BeraChef","label":"blockNumberLast","offset":0,"slot":"0","type":"t_uint32"},{"astId":80708,"contract":"src/pol/rewards/BeraChef.sol:BeraChef","label":"commissionRate","offset":4,"slot":"0","type":"t_uint96"}]},"t_struct(RewardAllocation)80697_storage":{"encoding":"inplace","label":"struct IBeraChef.RewardAllocation","numberOfBytes":"64","members":[{"astId":80692,"contract":"src/pol/rewards/BeraChef.sol:BeraChef","label":"startBlock","offset":0,"slot":"0","type":"t_uint64"},{"astId":80696,"contract":"src/pol/rewards/BeraChef.sol:BeraChef","label":"weights","offset":0,"slot":"1","type":"t_array(t_struct(Weight)80703_storage)dyn_storage"}]},"t_struct(Weight)80703_storage":{"encoding":"inplace","label":"struct IBeraChef.Weight","numberOfBytes":"32","members":[{"astId":80700,"contract":"src/pol/rewards/BeraChef.sol:BeraChef","label":"receiver","offset":0,"slot":"0","type":"t_address"},{"astId":80702,"contract":"src/pol/rewards/BeraChef.sol:BeraChef","label":"percentageNumerator","offset":20,"slot":"0","type":"t_uint96"}]},"t_uint32":{"encoding":"inplace","label":"uint32","numberOfBytes":"4"},"t_uint64":{"encoding":"inplace","label":"uint64","numberOfBytes":"8"},"t_uint8":{"encoding":"inplace","label":"uint8","numberOfBytes":"1"},"t_uint96":{"encoding":"inplace","label":"uint96","numberOfBytes":"12"}}},"id":151}