{"abi":[{"type":"constructor","inputs":[],"stateMutability":"nonpayable"},{"type":"function","name":"DEFAULT_ADMIN_ROLE","inputs":[],"outputs":[{"name":"","type":"bytes32","internalType":"bytes32"}],"stateMutability":"view"},{"type":"function","name":"MANAGER_ROLE","inputs":[],"outputs":[{"name":"","type":"bytes32","internalType":"bytes32"}],"stateMutability":"view"},{"type":"function","name":"PAUSER_ROLE","inputs":[],"outputs":[{"name":"","type":"bytes32","internalType":"bytes32"}],"stateMutability":"view"},{"type":"function","name":"UPGRADE_INTERFACE_VERSION","inputs":[],"outputs":[{"name":"","type":"string","internalType":"string"}],"stateMutability":"view"},{"type":"function","name":"beacon","inputs":[],"outputs":[{"name":"","type":"address","internalType":"address"}],"stateMutability":"view"},{"type":"function","name":"collectedFees","inputs":[{"name":"receiver","type":"address","internalType":"address"},{"name":"asset","type":"address","internalType":"address"}],"outputs":[{"name":"collectedFee","type":"uint256","internalType":"uint256"}],"stateMutability":"view"},{"type":"function","name":"createVault","inputs":[{"name":"asset","type":"address","internalType":"address"}],"outputs":[{"name":"vault","type":"address","internalType":"contract ERC4626"}],"stateMutability":"nonpayable"},{"type":"function","name":"feeReceiver","inputs":[],"outputs":[{"name":"","type":"address","internalType":"address"}],"stateMutability":"view"},{"type":"function","name":"forcedBasketMode","inputs":[],"outputs":[{"name":"","type":"bool","internalType":"bool"}],"stateMutability":"view"},{"type":"function","name":"getRoleAdmin","inputs":[{"name":"role","type":"bytes32","internalType":"bytes32"}],"outputs":[{"name":"","type":"bytes32","internalType":"bytes32"}],"stateMutability":"view"},{"type":"function","name":"getWeights","inputs":[],"outputs":[{"name":"w","type":"uint256[]","internalType":"uint256[]"}],"stateMutability":"view"},{"type":"function","name":"globalCap","inputs":[],"outputs":[{"name":"","type":"uint256","internalType":"uint256"}],"stateMutability":"view"},{"type":"function","name":"grantRole","inputs":[{"name":"role","type":"bytes32","internalType":"bytes32"},{"name":"account","type":"address","internalType":"address"}],"outputs":[],"stateMutability":"nonpayable"},{"type":"function","name":"hasRole","inputs":[{"name":"role","type":"bytes32","internalType":"bytes32"},{"name":"account","type":"address","internalType":"address"}],"outputs":[{"name":"","type":"bool","internalType":"bool"}],"stateMutability":"view"},{"type":"function","name":"honey","inputs":[],"outputs":[{"name":"","type":"address","internalType":"contract Honey"}],"stateMutability":"view"},{"type":"function","name":"initialize","inputs":[{"name":"_governance","type":"address","internalType":"address"},{"name":"_honey","type":"address","internalType":"address"},{"name":"_polFeeCollector","type":"address","internalType":"address"},{"name":"_feeReceiver","type":"address","internalType":"address"},{"name":"_priceOracle","type":"address","internalType":"address"},{"name":"_beacon","type":"address","internalType":"address"}],"outputs":[],"stateMutability":"nonpayable"},{"type":"function","name":"isBadCollateralAsset","inputs":[{"name":"asset","type":"address","internalType":"address"}],"outputs":[{"name":"badCollateral","type":"bool","internalType":"bool"}],"stateMutability":"view"},{"type":"function","name":"isBasketModeEnabled","inputs":[{"name":"isMint","type":"bool","internalType":"bool"}],"outputs":[{"name":"basketMode","type":"bool","internalType":"bool"}],"stateMutability":"view"},{"type":"function","name":"isPegged","inputs":[{"name":"asset","type":"address","internalType":"address"}],"outputs":[{"name":"","type":"bool","internalType":"bool"}],"stateMutability":"view"},{"type":"function","name":"liquidate","inputs":[{"name":"badCollateral","type":"address","internalType":"address"},{"name":"goodCollateral","type":"address","internalType":"address"},{"name":"goodAmount","type":"uint256","internalType":"uint256"}],"outputs":[{"name":"badAmount","type":"uint256","internalType":"uint256"}],"stateMutability":"nonpayable"},{"type":"function","name":"liquidationEnabled","inputs":[],"outputs":[{"name":"","type":"bool","internalType":"bool"}],"stateMutability":"view"},{"type":"function","name":"minSharesToRecapitalize","inputs":[],"outputs":[{"name":"","type":"uint256","internalType":"uint256"}],"stateMutability":"view"},{"type":"function","name":"mint","inputs":[{"name":"asset","type":"address","internalType":"address"},{"name":"amount","type":"uint256","internalType":"uint256"},{"name":"receiver","type":"address","internalType":"address"},{"name":"expectBasketMode","type":"bool","internalType":"bool"}],"outputs":[{"name":"honeyToMint","type":"uint256","internalType":"uint256"}],"stateMutability":"nonpayable"},{"type":"function","name":"mintRates","inputs":[{"name":"asset","type":"address","internalType":"address"}],"outputs":[{"name":"rate","type":"uint256","internalType":"uint256"}],"stateMutability":"view"},{"type":"function","name":"numRegisteredAssets","inputs":[],"outputs":[{"name":"","type":"uint256","internalType":"uint256"}],"stateMutability":"view"},{"type":"function","name":"pause","inputs":[],"outputs":[],"stateMutability":"nonpayable"},{"type":"function","name":"pauseVault","inputs":[{"name":"asset","type":"address","internalType":"address"}],"outputs":[],"stateMutability":"nonpayable"},{"type":"function","name":"paused","inputs":[],"outputs":[{"name":"","type":"bool","internalType":"bool"}],"stateMutability":"view"},{"type":"function","name":"polFeeCollector","inputs":[],"outputs":[{"name":"","type":"address","internalType":"address"}],"stateMutability":"view"},{"type":"function","name":"polFeeCollectorFeeRate","inputs":[],"outputs":[{"name":"","type":"uint256","internalType":"uint256"}],"stateMutability":"view"},{"type":"function","name":"priceFeedMaxDelay","inputs":[],"outputs":[{"name":"","type":"uint256","internalType":"uint256"}],"stateMutability":"view"},{"type":"function","name":"priceOracle","inputs":[],"outputs":[{"name":"","type":"address","internalType":"contract IPriceOracle"}],"stateMutability":"view"},{"type":"function","name":"proxiableUUID","inputs":[],"outputs":[{"name":"","type":"bytes32","internalType":"bytes32"}],"stateMutability":"view"},{"type":"function","name":"recapitalize","inputs":[{"name":"asset","type":"address","internalType":"address"},{"name":"amount","type":"uint256","internalType":"uint256"}],"outputs":[],"stateMutability":"nonpayable"},{"type":"function","name":"recapitalizeBalanceThreshold","inputs":[{"name":"asset","type":"address","internalType":"address"}],"outputs":[{"name":"targetBalance","type":"uint256","internalType":"uint256"}],"stateMutability":"view"},{"type":"function","name":"redeem","inputs":[{"name":"asset","type":"address","internalType":"address"},{"name":"honeyAmount","type":"uint256","internalType":"uint256"},{"name":"receiver","type":"address","internalType":"address"},{"name":"expectBasketMode","type":"bool","internalType":"bool"}],"outputs":[{"name":"redeemed","type":"uint256[]","internalType":"uint256[]"}],"stateMutability":"nonpayable"},{"type":"function","name":"redeemRates","inputs":[{"name":"asset","type":"address","internalType":"address"}],"outputs":[{"name":"rate","type":"uint256","internalType":"uint256"}],"stateMutability":"view"},{"type":"function","name":"referenceCollateral","inputs":[],"outputs":[{"name":"","type":"address","internalType":"address"}],"stateMutability":"view"},{"type":"function","name":"registeredAssets","inputs":[{"name":"","type":"uint256","internalType":"uint256"}],"outputs":[{"name":"","type":"address","internalType":"address"}],"stateMutability":"view"},{"type":"function","name":"relativeCap","inputs":[{"name":"asset","type":"address","internalType":"address"}],"outputs":[{"name":"limit","type":"uint256","internalType":"uint256"}],"stateMutability":"view"},{"type":"function","name":"renounceRole","inputs":[{"name":"role","type":"bytes32","internalType":"bytes32"},{"name":"callerConfirmation","type":"address","internalType":"address"}],"outputs":[],"stateMutability":"nonpayable"},{"type":"function","name":"revokeRole","inputs":[{"name":"role","type":"bytes32","internalType":"bytes32"},{"name":"account","type":"address","internalType":"address"}],"outputs":[],"stateMutability":"nonpayable"},{"type":"function","name":"setCollateralAssetStatus","inputs":[{"name":"asset","type":"address","internalType":"address"},{"name":"_isBadCollateral","type":"bool","internalType":"bool"}],"outputs":[],"stateMutability":"nonpayable"},{"type":"function","name":"setCustodyInfo","inputs":[{"name":"asset","type":"address","internalType":"address"},{"name":"isCustodyVault","type":"bool","internalType":"bool"},{"name":"custodyAddress","type":"address","internalType":"address"}],"outputs":[],"stateMutability":"nonpayable"},{"type":"function","name":"setDepegOffsets","inputs":[{"name":"asset","type":"address","internalType":"address"},{"name":"lowerOffset","type":"uint256","internalType":"uint256"},{"name":"upperOffset","type":"uint256","internalType":"uint256"}],"outputs":[],"stateMutability":"nonpayable"},{"type":"function","name":"setFeeReceiver","inputs":[{"name":"_feeReceiver","type":"address","internalType":"address"}],"outputs":[],"stateMutability":"nonpayable"},{"type":"function","name":"setForcedBasketMode","inputs":[{"name":"forced","type":"bool","internalType":"bool"}],"outputs":[],"stateMutability":"nonpayable"},{"type":"function","name":"setGlobalCap","inputs":[{"name":"limit","type":"uint256","internalType":"uint256"}],"outputs":[],"stateMutability":"nonpayable"},{"type":"function","name":"setLiquidationEnabled","inputs":[{"name":"enabled","type":"bool","internalType":"bool"}],"outputs":[],"stateMutability":"nonpayable"},{"type":"function","name":"setLiquidationRate","inputs":[{"name":"asset","type":"address","internalType":"address"},{"name":"extraRate","type":"uint256","internalType":"uint256"}],"outputs":[],"stateMutability":"nonpayable"},{"type":"function","name":"setMaxFeedDelay","inputs":[{"name":"maxTolerance","type":"uint256","internalType":"uint256"}],"outputs":[],"stateMutability":"nonpayable"},{"type":"function","name":"setMinSharesToRecapitalize","inputs":[{"name":"minSharesAmount","type":"uint256","internalType":"uint256"}],"outputs":[],"stateMutability":"nonpayable"},{"type":"function","name":"setMintRate","inputs":[{"name":"asset","type":"address","internalType":"address"},{"name":"mintRate","type":"uint256","internalType":"uint256"}],"outputs":[],"stateMutability":"nonpayable"},{"type":"function","name":"setPOLFeeCollector","inputs":[{"name":"_polFeeCollector","type":"address","internalType":"address"}],"outputs":[],"stateMutability":"nonpayable"},{"type":"function","name":"setPOLFeeCollectorFeeRate","inputs":[{"name":"_polFeeCollectorFeeRate","type":"uint256","internalType":"uint256"}],"outputs":[],"stateMutability":"nonpayable"},{"type":"function","name":"setPriceOracle","inputs":[{"name":"priceOracle_","type":"address","internalType":"address"}],"outputs":[],"stateMutability":"nonpayable"},{"type":"function","name":"setRecapitalizeBalanceThreshold","inputs":[{"name":"asset","type":"address","internalType":"address"},{"name":"target","type":"uint256","internalType":"uint256"}],"outputs":[],"stateMutability":"nonpayable"},{"type":"function","name":"setRedeemRate","inputs":[{"name":"asset","type":"address","internalType":"address"},{"name":"redeemRate","type":"uint256","internalType":"uint256"}],"outputs":[],"stateMutability":"nonpayable"},{"type":"function","name":"setReferenceCollateral","inputs":[{"name":"asset","type":"address","internalType":"address"}],"outputs":[],"stateMutability":"nonpayable"},{"type":"function","name":"setRelativeCap","inputs":[{"name":"asset","type":"address","internalType":"address"},{"name":"limit","type":"uint256","internalType":"uint256"}],"outputs":[],"stateMutability":"nonpayable"},{"type":"function","name":"supportsInterface","inputs":[{"name":"interfaceId","type":"bytes4","internalType":"bytes4"}],"outputs":[{"name":"","type":"bool","internalType":"bool"}],"stateMutability":"view"},{"type":"function","name":"unpause","inputs":[],"outputs":[],"stateMutability":"nonpayable"},{"type":"function","name":"unpauseVault","inputs":[{"name":"asset","type":"address","internalType":"address"}],"outputs":[],"stateMutability":"nonpayable"},{"type":"function","name":"upgradeToAndCall","inputs":[{"name":"newImplementation","type":"address","internalType":"address"},{"name":"data","type":"bytes","internalType":"bytes"}],"outputs":[],"stateMutability":"payable"},{"type":"function","name":"vaults","inputs":[{"name":"asset","type":"address","internalType":"address"}],"outputs":[{"name":"vault","type":"address","internalType":"contract CollateralVault"}],"stateMutability":"view"},{"type":"function","name":"withdrawAllFees","inputs":[{"name":"receiver","type":"address","internalType":"address"}],"outputs":[],"stateMutability":"nonpayable"},{"type":"function","name":"withdrawFee","inputs":[{"name":"asset","type":"address","internalType":"address"},{"name":"receiver","type":"address","internalType":"address"}],"outputs":[{"name":"assets","type":"uint256","internalType":"uint256"}],"stateMutability":"nonpayable"},{"type":"event","name":"BasketModeForced","inputs":[{"name":"forced","type":"bool","indexed":false,"internalType":"bool"}],"anonymous":false},{"type":"event","name":"CollateralAssetStatusSet","inputs":[{"name":"asset","type":"address","indexed":true,"internalType":"address"},{"name":"isBadCollateral","type":"bool","indexed":false,"internalType":"bool"}],"anonymous":false},{"type":"event","name":"CollectedFeeWithdrawn","inputs":[{"name":"asset","type":"address","indexed":true,"internalType":"address"},{"name":"receiver","type":"address","indexed":true,"internalType":"address"},{"name":"shares","type":"uint256","indexed":false,"internalType":"uint256"},{"name":"assets","type":"uint256","indexed":false,"internalType":"uint256"}],"anonymous":false},{"type":"event","name":"DepegOffsetsSet","inputs":[{"name":"asset","type":"address","indexed":false,"internalType":"address"},{"name":"lower","type":"uint256","indexed":false,"internalType":"uint256"},{"name":"upper","type":"uint256","indexed":false,"internalType":"uint256"}],"anonymous":false},{"type":"event","name":"FeeReceiverSet","inputs":[{"name":"feeReceiver","type":"address","indexed":true,"internalType":"address"}],"anonymous":false},{"type":"event","name":"GlobalCapSet","inputs":[{"name":"globalCap","type":"uint256","indexed":false,"internalType":"uint256"}],"anonymous":false},{"type":"event","name":"HoneyMinted","inputs":[{"name":"from","type":"address","indexed":true,"internalType":"address"},{"name":"to","type":"address","indexed":true,"internalType":"address"},{"name":"asset","type":"address","indexed":true,"internalType":"address"},{"name":"assetAmount","type":"uint256","indexed":false,"internalType":"uint256"},{"name":"mintAmount","type":"uint256","indexed":false,"internalType":"uint256"}],"anonymous":false},{"type":"event","name":"HoneyRedeemed","inputs":[{"name":"from","type":"address","indexed":true,"internalType":"address"},{"name":"to","type":"address","indexed":true,"internalType":"address"},{"name":"asset","type":"address","indexed":true,"internalType":"address"},{"name":"assetAmount","type":"uint256","indexed":false,"internalType":"uint256"},{"name":"redeemAmount","type":"uint256","indexed":false,"internalType":"uint256"}],"anonymous":false},{"type":"event","name":"Initialized","inputs":[{"name":"version","type":"uint64","indexed":false,"internalType":"uint64"}],"anonymous":false},{"type":"event","name":"Liquidated","inputs":[{"name":"badAsset","type":"address","indexed":false,"internalType":"address"},{"name":"goodAsset","type":"address","indexed":false,"internalType":"address"},{"name":"amount","type":"uint256","indexed":false,"internalType":"uint256"},{"name":"sender","type":"address","indexed":false,"internalType":"address"}],"anonymous":false},{"type":"event","name":"LiquidationRateSet","inputs":[{"name":"asset","type":"address","indexed":false,"internalType":"address"},{"name":"rate","type":"uint256","indexed":false,"internalType":"uint256"}],"anonymous":false},{"type":"event","name":"LiquidationStatusSet","inputs":[{"name":"enabled","type":"bool","indexed":false,"internalType":"bool"}],"anonymous":false},{"type":"event","name":"MaxFeedDelaySet","inputs":[{"name":"maxFeedDelay","type":"uint256","indexed":false,"internalType":"uint256"}],"anonymous":false},{"type":"event","name":"MinSharesToRecapitalizeSet","inputs":[{"name":"minShareAmount","type":"uint256","indexed":false,"internalType":"uint256"}],"anonymous":false},{"type":"event","name":"MintRateSet","inputs":[{"name":"asset","type":"address","indexed":true,"internalType":"address"},{"name":"rate","type":"uint256","indexed":false,"internalType":"uint256"}],"anonymous":false},{"type":"event","name":"POLFeeCollectorFeeRateSet","inputs":[{"name":"rate","type":"uint256","indexed":false,"internalType":"uint256"}],"anonymous":false},{"type":"event","name":"POLFeeCollectorSet","inputs":[{"name":"polFeeCollector","type":"address","indexed":true,"internalType":"address"}],"anonymous":false},{"type":"event","name":"Paused","inputs":[{"name":"account","type":"address","indexed":false,"internalType":"address"}],"anonymous":false},{"type":"event","name":"PriceFeedChanged","inputs":[{"name":"asset","type":"address","indexed":true,"internalType":"address"},{"name":"id","type":"bytes32","indexed":false,"internalType":"bytes32"}],"anonymous":false},{"type":"event","name":"PriceOracleSet","inputs":[{"name":"oracle","type":"address","indexed":false,"internalType":"address"}],"anonymous":false},{"type":"event","name":"RecapitalizeBalanceThresholdSet","inputs":[{"name":"asset","type":"address","indexed":false,"internalType":"address"},{"name":"target","type":"uint256","indexed":false,"internalType":"uint256"}],"anonymous":false},{"type":"event","name":"Recapitalized","inputs":[{"name":"asset","type":"address","indexed":false,"internalType":"address"},{"name":"amount","type":"uint256","indexed":false,"internalType":"uint256"},{"name":"sender","type":"address","indexed":false,"internalType":"address"}],"anonymous":false},{"type":"event","name":"RedeemRateSet","inputs":[{"name":"asset","type":"address","indexed":true,"internalType":"address"},{"name":"rate","type":"uint256","indexed":false,"internalType":"uint256"}],"anonymous":false},{"type":"event","name":"ReferenceCollateralSet","inputs":[{"name":"old","type":"address","indexed":false,"internalType":"address"},{"name":"asset","type":"address","indexed":false,"internalType":"address"}],"anonymous":false},{"type":"event","name":"RelativeCapSet","inputs":[{"name":"asset","type":"address","indexed":false,"internalType":"address"},{"name":"relativeCap","type":"uint256","indexed":false,"internalType":"uint256"}],"anonymous":false},{"type":"event","name":"RoleAdminChanged","inputs":[{"name":"role","type":"bytes32","indexed":true,"internalType":"bytes32"},{"name":"previousAdminRole","type":"bytes32","indexed":true,"internalType":"bytes32"},{"name":"newAdminRole","type":"bytes32","indexed":true,"internalType":"bytes32"}],"anonymous":false},{"type":"event","name":"RoleGranted","inputs":[{"name":"role","type":"bytes32","indexed":true,"internalType":"bytes32"},{"name":"account","type":"address","indexed":true,"internalType":"address"},{"name":"sender","type":"address","indexed":true,"internalType":"address"}],"anonymous":false},{"type":"event","name":"RoleRevoked","inputs":[{"name":"role","type":"bytes32","indexed":true,"internalType":"bytes32"},{"name":"account","type":"address","indexed":true,"internalType":"address"},{"name":"sender","type":"address","indexed":true,"internalType":"address"}],"anonymous":false},{"type":"event","name":"Unpaused","inputs":[{"name":"account","type":"address","indexed":false,"internalType":"address"}],"anonymous":false},{"type":"event","name":"Upgraded","inputs":[{"name":"implementation","type":"address","indexed":true,"internalType":"address"}],"anonymous":false},{"type":"event","name":"VaultCreated","inputs":[{"name":"vault","type":"address","indexed":true,"internalType":"address"},{"name":"asset","type":"address","indexed":true,"internalType":"address"}],"anonymous":false},{"type":"error","name":"AccessControlBadConfirmation","inputs":[]},{"type":"error","name":"AccessControlUnauthorizedAccount","inputs":[{"name":"account","type":"address","internalType":"address"},{"name":"neededRole","type":"bytes32","internalType":"bytes32"}]},{"type":"error","name":"AddressEmptyCode","inputs":[{"name":"target","type":"address","internalType":"address"}]},{"type":"error","name":"AmountOutOfRange","inputs":[]},{"type":"error","name":"AssetIsBadCollateral","inputs":[{"name":"asset","type":"address","internalType":"address"}]},{"type":"error","name":"AssetIsNotBadCollateral","inputs":[{"name":"asset","type":"address","internalType":"address"}]},{"type":"error","name":"AssetNotRegistered","inputs":[{"name":"asset","type":"address","internalType":"address"}]},{"type":"error","name":"CapCanCauseDenialOfService","inputs":[]},{"type":"error","name":"ERC1967InvalidImplementation","inputs":[{"name":"implementation","type":"address","internalType":"address"}]},{"type":"error","name":"ERC1967NonPayable","inputs":[]},{"type":"error","name":"EnforcedPause","inputs":[]},{"type":"error","name":"ExceedGlobalCap","inputs":[]},{"type":"error","name":"ExceedRelativeCap","inputs":[]},{"type":"error","name":"ExpectedPause","inputs":[]},{"type":"error","name":"FailedCall","inputs":[]},{"type":"error","name":"InsufficientAssets","inputs":[{"name":"assets","type":"uint256","internalType":"uint256"},{"name":"shares","type":"uint256","internalType":"uint256"}]},{"type":"error","name":"InsufficientRecapitalizeAmount","inputs":[{"name":"amount","type":"uint256","internalType":"uint256"}]},{"type":"error","name":"InvalidCustodyInfoInput","inputs":[]},{"type":"error","name":"InvalidInitialization","inputs":[]},{"type":"error","name":"LiquidationDisabled","inputs":[]},{"type":"error","name":"LiquidationWithReferenceCollateral","inputs":[]},{"type":"error","name":"MismatchedOwner","inputs":[{"name":"owner","type":"address","internalType":"address"},{"name":"expectedOwner","type":"address","internalType":"address"}]},{"type":"error","name":"NotFactory","inputs":[]},{"type":"error","name":"NotInitializing","inputs":[]},{"type":"error","name":"NotPegged","inputs":[{"name":"asset","type":"address","internalType":"address"}]},{"type":"error","name":"OverOneHundredPercentRate","inputs":[{"name":"rate","type":"uint256","internalType":"uint256"}]},{"type":"error","name":"RecapitalizeNotNeeded","inputs":[{"name":"asset","type":"address","internalType":"address"}]},{"type":"error","name":"UUPSUnauthorizedCallContext","inputs":[]},{"type":"error","name":"UUPSUnsupportedProxiableUUID","inputs":[{"name":"slot","type":"bytes32","internalType":"bytes32"}]},{"type":"error","name":"UnauthorizedCaller","inputs":[{"name":"caller","type":"address","internalType":"address"},{"name":"expectedCaller","type":"address","internalType":"address"}]},{"type":"error","name":"UnderNinetyEightPercentRate","inputs":[{"name":"rate","type":"uint256","internalType":"uint256"}]},{"type":"error","name":"UnexpectedBasketModeStatus","inputs":[]},{"type":"error","name":"VaultAlreadyRegistered","inputs":[{"name":"asset","type":"address","internalType":"address"}]},{"type":"error","name":"VaultPaused","inputs":[]},{"type":"error","name":"ZeroAddress","inputs":[]},{"type":"error","name":"ZeroAmount","inputs":[]},{"type":"error","name":"ZeroWeight","inputs":[{"name":"asset","type":"address","internalType":"address"}]}],"bytecode":{"object":"0x60a060405230608052348015610013575f80fd5b5061001c610021565b6100d3565b7ff0c57e16840df040f15088dc2f81fe391c3923bec73e23a9662efc9c229c6a00805468010000000000000000900460ff16156100715760405163f92ee8a960e01b815260040160405180910390fd5b80546001600160401b03908116146100d05780546001600160401b0319166001600160401b0390811782556040519081527fc7f505b2f371ae2175ee4913f4499e1f2633a7b5936321eed1cdaeb6115181d29060200160405180910390a15b50565b608051615f3a6100f95f395f818161469a015281816146c301526148e50152615f3a5ff3fe608060405260043610610400575f3560e01c806399a2af751161021d578063bdb912f311610122578063e2a02536116100b7578063ed59631511610087578063f0f151321161006d578063f0f1513214610d4f578063f68f0c6914610d6e578063f91d65af14610d9a575f80fd5b8063ed59631514610d11578063efdcd97414610d30575f80fd5b8063e2a0253614610c77578063e63ab1e914610c96578063ebaa654514610cc9578063ec87621c14610cde575f80fd5b8063cc2a9a5b116100f2578063cc2a9a5b14610bfb578063d547741f14610c1a578063de4bc64014610c39578063e0cda5da14610c58575f80fd5b8063bdb912f314610b73578063c0bd6f9e14610b9e578063c1a7b2af14610bbd578063c879c6d814610bdc575f80fd5b8063aba1f541116101b2578063ae574a9011610182578063b4bd6f4611610168578063b4bd6f4614610b21578063bb85d15b14610b40578063bc7c290214610b54575f80fd5b8063ae574a9014610ad7578063b3f0067414610af5575f80fd5b8063aba1f54114610a19578063abab398a14610a38578063ad1567c714610a57578063ad3cb1cc14610a82575f80fd5b8063a3bc2385116101ed578063a3bc23851461097b578063a622ee7c1461099a578063a71f6f5f146109db578063ab6636ec146109fa575f80fd5b806399a2af751461091f5780639ee61d5614610934578063a083bd3c14610949578063a217fddf14610968575f80fd5b80633f4ba83a1161032357806355c7aaff116102b85780636fe7f983116102885780638456cb591161026e5780638456cb591461087057806391d148541461088457806393df0018146108f4575f80fd5b80636fe7f983146108385780637b34b5d814610857575f80fd5b806355c7aaff146107a357806359659e90146107b85780635c975abb146107e35780635f0ccdc214610819575f80fd5b80634f1ef286116102f35780634f1ef2861461073e578063503b9e591461075157806352d1902d14610770578063530e784f14610784575f80fd5b80633f4ba83a146106b65780634af471be146106ca5780634c179042146106e95780634c97f76614610708575f80fd5b80632630c12f116103995780632f2ff15d116103695780632f2ff15d1461062d578063328ebaf71461064c57806336568abe1461066b57806336b2c4b21461068a575f80fd5b80632630c12f1461059257806326c01303146105c45780632cfb0e10146105e35780632efbab2c1461060e575f80fd5b80631e17e57c116103d45780631e17e57c146104975780631e704c63146104c557806322acb86714610516578063248a9ca314610537575f80fd5b80622718011461040457806301ffc9a7146104255780630aa4f4cd146104595780631224b28c14610478575b5f80fd5b34801561040f575f80fd5b5061042361041e36600461578d565b610db9565b005b348015610430575f80fd5b5061044461043f3660046157bf565b610eab565b60405190151581526020015b60405180910390f35b348015610464575f80fd5b506104236104733660046157fe565b610f43565b348015610483575f80fd5b50610423610492366004615835565b610fb1565b3480156104a2575f80fd5b506104446104b136600461587d565b60056020525f908152604090205460ff1681565b3480156104d0575f80fd5b506002546104f19073ffffffffffffffffffffffffffffffffffffffff1681565b60405173ffffffffffffffffffffffffffffffffffffffff9091168152602001610450565b348015610521575f80fd5b5061052a611062565b6040516104509190615898565b348015610542575f80fd5b506105846105513660046158da565b5f9081527f02dd7bc7dec4dceedda775e58dd541e08a116c6c53815c0bd028192f7b626800602052604090206001015490565b604051908152602001610450565b34801561059d575f80fd5b506040546104f19062010000900473ffffffffffffffffffffffffffffffffffffffff1681565b3480156105cf575f80fd5b506105846105de3660046158f1565b611074565b3480156105ee575f80fd5b506105846105fd36600461587d565b603c6020525f908152604090205481565b348015610619575f80fd5b5061042361062836600461587d565b6113b8565b348015610638575f80fd5b5061042361064736600461592f565b611476565b348015610657575f80fd5b5061058461066636600461595d565b6114bf565b348015610676575f80fd5b5061042361068536600461592f565b611813565b348015610695575f80fd5b506039546104f19073ffffffffffffffffffffffffffffffffffffffff1681565b3480156106c1575f80fd5b50610423611871565b3480156106d5575f80fd5b506104236106e436600461587d565b6118a4565b3480156106f4575f80fd5b5061042361070336600461587d565b611955565b348015610713575f80fd5b506105846107223660046159ad565b600660209081525f928352604080842090915290825290205481565b61042361074c366004615a55565b6119b6565b34801561075c575f80fd5b5061042361076b3660046158da565b6119d5565b34801561077b575f80fd5b50610584611a54565b34801561078f575f80fd5b5061042361079e36600461587d565b611a82565b3480156107ae575f80fd5b5061058460465481565b3480156107c3575f80fd5b505f546104f19073ffffffffffffffffffffffffffffffffffffffff1681565b3480156107ee575f80fd5b507fcd5ed15c6e187e77e9aee88184c21f4f2182ab5827cb3b7e07fbedcd63f033005460ff16610444565b348015610824575f80fd5b50610423610833366004615b1a565b611b48565b348015610843575f80fd5b50610423610852366004615b1a565b611bb5565b348015610862575f80fd5b506040546104449060ff1681565b34801561087b575f80fd5b50610423611c3b565b34801561088f575f80fd5b5061044461089e36600461592f565b5f9182527f02dd7bc7dec4dceedda775e58dd541e08a116c6c53815c0bd028192f7b6268006020908152604080842073ffffffffffffffffffffffffffffffffffffffff93909316845291905290205460ff1690565b3480156108ff575f80fd5b5061058461090e36600461587d565b60456020525f908152604090205481565b34801561092a575f80fd5b5061058460445481565b34801561093f575f80fd5b50610584603a5481565b348015610954575f80fd5b506104f16109633660046158da565b611c6c565b348015610973575f80fd5b506105845f81565b348015610986575f80fd5b506104236109953660046157fe565b611ca1565b3480156109a5575f80fd5b506104f16109b436600461587d565b60046020525f908152604090205473ffffffffffffffffffffffffffffffffffffffff1681565b3480156109e6575f80fd5b506104236109f53660046158da565b611d10565b348015610a05575f80fd5b50610423610a143660046158da565b611e01565b348015610a24575f80fd5b50610423610a333660046158da565b611e91565b348015610a43575f80fd5b50610423610a523660046157fe565b611f09565b348015610a62575f80fd5b50610584610a7136600461587d565b603b6020525f908152604090205481565b348015610a8d575f80fd5b50610aca6040518060400160405280600581526020017f352e302e3000000000000000000000000000000000000000000000000000000081525081565b6040516104509190615b35565b348015610ae2575f80fd5b5060405461044490610100900460ff1681565b348015610b00575f80fd5b506001546104f19073ffffffffffffffffffffffffffffffffffffffff1681565b348015610b2c575f80fd5b506104f1610b3b36600461587d565b61200b565b348015610b4b575f80fd5b50600354610584565b348015610b5f575f80fd5b50610444610b6e36600461587d565b612148565b348015610b7e575f80fd5b50610584610b8d36600461587d565b60436020525f908152604090205481565b348015610ba9575f80fd5b50610423610bb836600461587d565b61232a565b348015610bc8575f80fd5b50610423610bd7366004615b88565b6123cf565b348015610be7575f80fd5b50610584610bf63660046159ad565b612483565b348015610c06575f80fd5b50610423610c15366004615bb4565b612497565b348015610c25575f80fd5b50610423610c3436600461592f565b61274d565b348015610c44575f80fd5b50610444610c53366004615b1a565b612790565b348015610c63575f80fd5b50610423610c723660046157fe565b6128d8565b348015610c82575f80fd5b50610423610c913660046157fe565b612c97565b348015610ca1575f80fd5b506105847f65d7a28e3265b37a6474929f336521b332c1681b933f6cb9f3376673440d862a81565b348015610cd4575f80fd5b5061058460415481565b348015610ce9575f80fd5b506105847f241ecf16d79d0f8dbfb92cbc07fe17840425976cf0667f022fe9877caa831b0881565b348015610d1c575f80fd5b5061052a610d2b36600461595d565b612d1d565b348015610d3b575f80fd5b50610423610d4a36600461587d565b61302d565b348015610d5a575f80fd5b50610423610d6936600461587d565b6130e8565b348015610d79575f80fd5b506042546104f19073ffffffffffffffffffffffffffffffffffffffff1681565b348015610da5575f80fd5b50610423610db43660046157fe565b6131a3565b610de27f241ecf16d79d0f8dbfb92cbc07fe17840425976cf0667f022fe9877caa831b08613299565b610deb836132a6565b66470de4df820000821180610e06575066470de4df82000081115b15610e3457610e347fc64200e9000000000000000000000000000000000000000000000000000000006132fb565b73ffffffffffffffffffffffffffffffffffffffff83165f818152603d60209081526040808320869055603e8252918290208490558151928352820184905281018290527fb360fe75f417722278b8ed353f0abcd3c5a6776faaa82a07b12047fa2ef3926e906060015b60405180910390a1505050565b5f7fffffffff0000000000000000000000000000000000000000000000000000000082167f7965db0b000000000000000000000000000000000000000000000000000000001480610f3d57507f01ffc9a7000000000000000000000000000000000000000000000000000000007fffffffff000000000000000000000000000000000000000000000000000000008316145b92915050565b610f4c5f613299565b73ffffffffffffffffffffffffffffffffffffffff82165f81815260456020908152604091829020849055815192835282018390527f4ace5cf0f475b119f5f67f29290bd198e42143b7934b17986fc5c06d00beae7a91015b60405180910390a15050565b610fba5f613299565b610fc3836132a6565b73ffffffffffffffffffffffffffffffffffffffff8381165f908152600460208190526040918290205491517f442c01a400000000000000000000000000000000000000000000000000000000815285151591810191909152838316602482015291169063442c01a4906044015f604051808303815f87803b158015611047575f80fd5b505af1158015611059573d5f803e3d5ffd5b50505050505050565b606061106f5f6001613303565b905090565b5f61107d613560565b611086846132a6565b61108f836132a6565b611098836135bc565b604054610100900460ff166110d0576110d07f07091331000000000000000000000000000000000000000000000000000000006132fb565b73ffffffffffffffffffffffffffffffffffffffff84165f9081526005602052604090205460ff16611125576111257f867344a8000000000000000000000000000000000000000000000000000000006132fb565b60425473ffffffffffffffffffffffffffffffffffffffff90811690851603611171576111717f0dc86ad3000000000000000000000000000000000000000000000000000000006132fb565b5f61117c8484613613565b90505f611188866136fa565b90505f611194866136fa565b73ffffffffffffffffffffffffffffffffffffffff88165f908152603f6020526040902054909150670de0b6b3a7640000906111d09082615c5f565b836111db8487615c72565b6111e59190615c89565b6111ef9190615c72565b6111f99190615c89565b93505f611205886137a6565b9050808511156112935773ffffffffffffffffffffffffffffffffffffffff88165f908152603f602052604081205461124690670de0b6b3a7640000615c5f565b836112518685615c72565b61125b9190615c89565b61126d90670de0b6b3a7640000615c72565b6112779190615c89565b905061128d886112878388615cc1565b3361385c565b50819550505b61129c8761390e565b6112c9576112c97f2595dbe7000000000000000000000000000000000000000000000000000000006132fb565b6112d35f896139db565b611300576113007f6dabf61e000000000000000000000000000000000000000000000000000000006132fb565b61130b88863361385c565b9450845f0361133d5761133d7f1f2a2005000000000000000000000000000000000000000000000000000000006132fb565b61134688613adf565b61134f87613adf565b6040805173ffffffffffffffffffffffffffffffffffffffff808b168252891660208201529081018790523360608201527fbf8c93ffab42c7a8745e30d00eef080c6704962d26f0b42a0e9d9589b7417af19060800160405180910390a1505050509392505050565b6113e17f241ecf16d79d0f8dbfb92cbc07fe17840425976cf0667f022fe9877caa831b08613299565b6113ea816132a6565b73ffffffffffffffffffffffffffffffffffffffff8082165f9081526004602081905260408083205481517f3f4ba83a0000000000000000000000000000000000000000000000000000000081529151941693633f4ba83a9382840193909282900301818387803b15801561145d575f80fd5b505af115801561146f573d5f803e3d5ffd5b5050505050565b5f8281527f02dd7bc7dec4dceedda775e58dd541e08a116c6c53815c0bd028192f7b62680060205260409020600101546114af81613299565b6114b98383613f5e565b50505050565b5f6114c8613560565b6114d1856132a6565b5f6114dc6001612790565b905082151581151514611512576115127f6ce14a8b000000000000000000000000000000000000000000000000000000006132fb565b806115a257611520866135bc565b61152986612148565b611557576115577f2201a6c3000000000000000000000000000000000000000000000000000000008761407c565b6115638686865f614088565b91506115706001876139db565b61159d5761159d7f6dabf61e000000000000000000000000000000000000000000000000000000006132fb565b61180a565b5f6115ae5f6001613303565b90505f816115bb896141f9565b815181106115cb576115cb615cd4565b60200260200101519050805f03611606576116067f168cecf7000000000000000000000000000000000000000000000000000000008961407c565b5f8873ffffffffffffffffffffffffffffffffffffffff1663313ce5676040518163ffffffff1660e01b8152600401602060405180830381865afa158015611650573d5f803e3d5ffd5b505050506040513d601f19601f820116820180604052508101906116749190615d01565b90505f6116838983601261426a565b90508261169882670de0b6b3a7640000615c72565b6116a29190615c89565b90505f5b60035481101561180457670de0b6b3a76400008582815181106116cb576116cb615cd4565b6020026020010151836116de9190615c72565b6116e89190615c89565b995060045f6003838154811061170057611700615cd4565b5f9182526020808320919091015473ffffffffffffffffffffffffffffffffffffffff908116845290830193909352604091820190205490517f07a2d13a000000000000000000000000000000000000000000000000000000008152600481018d90529116906307a2d13a90602401602060405180830381865afa15801561178a573d5f803e3d5ffd5b505050506040513d601f19601f820116820180604052508101906117ae9190615d21565b99506117f0600382815481106117c6576117c6615cd4565b5f9182526020909120015473ffffffffffffffffffffffffffffffffffffffff168b8b6001614088565b6117fa9088615c5f565b96506001016116a6565b50505050505b50949350505050565b73ffffffffffffffffffffffffffffffffffffffff81163314611862576040517f6697b23200000000000000000000000000000000000000000000000000000000815260040160405180910390fd5b61186c82826142d2565b505050565b61189a7f241ecf16d79d0f8dbfb92cbc07fe17840425976cf0667f022fe9877caa831b08613299565b6118a26143ae565b565b6118cd7f241ecf16d79d0f8dbfb92cbc07fe17840425976cf0667f022fe9877caa831b08613299565b6118d6816132a6565b6042805473ffffffffffffffffffffffffffffffffffffffff8381167fffffffffffffffffffffffff000000000000000000000000000000000000000083168117909355604080519190921680825260208201939093527f2815e73179b9e71c24920f952681b17cd56ed8c3970196d013d9fb781fd0ff669101610fa5565b5f61195f60035490565b90505f5b8181101561186c575f6003828154811061197f5761197f615cd4565b5f9182526020909120015473ffffffffffffffffffffffffffffffffffffffff1690506119ac8185614445565b5050600101611963565b6119be614682565b6119c782614786565b6119d1828261478f565b5050565b6119de5f613299565b670de0b6b3a7640000811115611a1857611a187fada46d16000000000000000000000000000000000000000000000000000000008261407c565b603a8190556040518181527fcc74da27ce2b4310d9585b17dba33f9102c597a23fcc53e11f22587eb44054ab906020015b60405180910390a150565b5f611a5d6148cd565b507f360894a13ba1a3210667c828492db98dca3e2076cc3735a920a3ca505d382bbc90565b611a8b5f613299565b73ffffffffffffffffffffffffffffffffffffffff8116611acf57611acf7fd92e233d000000000000000000000000000000000000000000000000000000006132fb565b604080547fffffffffffffffffffff0000000000000000000000000000000000000000ffff166201000073ffffffffffffffffffffffffffffffffffffffff841690810291909117825590519081527f6536690106168bdf4ba72c128a053d817999b1db90cae23f139b293bf862cb7590602001611a49565b611b515f613299565b60408054821515610100027fffffffffffffffffffffffffffffffffffffffffffffffffffffffffffff00ff909116178155517fc8332d2a93ce8abef42d90f9a25582b80404fddf4ead3d8252bc63606fc33c6b90611a4990831515815260200190565b611bde7f241ecf16d79d0f8dbfb92cbc07fe17840425976cf0667f022fe9877caa831b08613299565b604080547fffffffffffffffffffffffffffffffffffffffffffffffffffffffffffffff0016821515908117825590519081527f6878ba22919d474f18a1cf56ab9f49ca783696ab22be08ae3b69494c432ec2cc90602001611a49565b611c647f65d7a28e3265b37a6474929f336521b332c1681b933f6cb9f3376673440d862a613299565b6118a261493c565b60038181548110611c7b575f80fd5b5f9182526020909120015473ffffffffffffffffffffffffffffffffffffffff16905081565b611caa5f613299565b611cb3826132a6565b73ffffffffffffffffffffffffffffffffffffffff82165f818152603f6020908152604091829020849055815192835282018390527fd4c474e9a2bd23d03ea76706eac0368ed31c4fc6c606a2b300c3a031be9ca7969101610fa5565b611d397f241ecf16d79d0f8dbfb92cbc07fe17840425976cf0667f022fe9877caa831b08613299565b5f611d4560015f613303565b90505f805b600354811015611d9a5781838281518110611d6757611d67615cd4565b60200260200101511115611d9257828181518110611d8757611d87615cd4565b602002602001015191505b600101611d4a565b5080831015611dcc57611dcc7f5419864a000000000000000000000000000000000000000000000000000000006132fb565b60448390556040518381527fc11aa203f3c2e8b31d562bf3a9147fd82d486434a853f17239394afb0bd6bea390602001610e9e565b611e2a7f241ecf16d79d0f8dbfb92cbc07fe17840425976cf0667f022fe9877caa831b08613299565b6078811115611e5c57611e5c7fc64200e9000000000000000000000000000000000000000000000000000000006132fb565b60418190556040518181527f8709833a517536698a10ba6401c14e6097aec681a3c756b82ee835e91f16bd1390602001611a49565b611e9a5f613299565b670de0b6b3a7640000811015611ed457611ed47fc64200e9000000000000000000000000000000000000000000000000000000008261407c565b60468190556040518181527f8059a180b8ab782dfd848148b9824ec038f2b14545fa4f7d345afb4366b15bd790602001611a49565b611f327f241ecf16d79d0f8dbfb92cbc07fe17840425976cf0667f022fe9877caa831b08613299565b670de0b6b3a7640000811115611f6c57611f6c7fada46d16000000000000000000000000000000000000000000000000000000008261407c565b670d99a8cec7e20000811015611fa657611fa67f71fba9d0000000000000000000000000000000000000000000000000000000008261407c565b73ffffffffffffffffffffffffffffffffffffffff82165f818152603c602052604090819020839055517f9ca91ac1ea5ea1d9cbec9ef13e20f58608deb72b1ec4c959e9deef3b844ef11390611fff9084815260200190565b60405180910390a25050565b5f61201560035490565b5f0361205c57604280547fffffffffffffffffffffffff00000000000000000000000000000000000000001673ffffffffffffffffffffffffffffffffffffffff84161790555b612065826149b5565b73ffffffffffffffffffffffffffffffffffffffff83165f908152604360209081526040808320670de0b6b3a76400009055603b8252808320670ddeeff45500c00090819055603c835281842055603d825280832066470de4df82000090819055603e9092529091205590506120da82612148565b612108576121087f2201a6c3000000000000000000000000000000000000000000000000000000008361407c565b73ffffffffffffffffffffffffffffffffffffffff9091165f908152603d6020908152604080832066071afd498d000090819055603e9092529091205590565b6040805490517fb5641f3a00000000000000000000000000000000000000000000000000000000815273ffffffffffffffffffffffffffffffffffffffff83811660048301525f92620100009004169063b5641f3a90602401602060405180830381865afa1580156121bc573d5f803e3d5ffd5b505050506040513d601f19601f820116820180604052508101906121e09190615d38565b6121eb57505f919050565b6040805490517ff989568d00000000000000000000000000000000000000000000000000000000815273ffffffffffffffffffffffffffffffffffffffff84811660048301525f92620100009004169063f989568d906024016040805180830381865afa15801561225e573d5f803e3d5ffd5b505050506040513d601f19601f820116820180604052508101906122829190615d53565b9050604154426122929190615cc1565b816020015110156122a557505f92915050565b805173ffffffffffffffffffffffffffffffffffffffff84165f908152603d60205260409020546122de90670de0b6b3a7640000615cc1565b11158015612323575073ffffffffffffffffffffffffffffffffffffffff83165f908152603e602052604090205461231e90670de0b6b3a7640000615c5f565b815111155b9392505050565b6123537f65d7a28e3265b37a6474929f336521b332c1681b933f6cb9f3376673440d862a613299565b61235c816132a6565b73ffffffffffffffffffffffffffffffffffffffff8082165f9081526004602081905260408083205481517f8456cb590000000000000000000000000000000000000000000000000000000081529151941693638456cb599382840193909282900301818387803b15801561145d575f80fd5b6123f87f241ecf16d79d0f8dbfb92cbc07fe17840425976cf0667f022fe9877caa831b08613299565b612401826132a6565b73ffffffffffffffffffffffffffffffffffffffff82165f8181526005602090815260409182902080547fffffffffffffffffffffffffffffffffffffffffffffffffffffffffffffff001685151590811790915591519182527fd2f5128538548a810c4735697cdd8ea509b0d233102362e242063283126400b89101611fff565b5f61248d836132a6565b6123238383614445565b5f6124a0614ba1565b805490915060ff68010000000000000000820416159067ffffffffffffffff165f811580156124cc5750825b90505f8267ffffffffffffffff1660011480156124e85750303b155b9050811580156124f6575080155b1561252d576040517ff92ee8a900000000000000000000000000000000000000000000000000000000815260040160405180910390fd5b84547fffffffffffffffffffffffffffffffffffffffffffffffff0000000000000000166001178555831561258e5784547fffffffffffffffffffffffffffffffffffffffffffffff00ffffffffffffffff16680100000000000000001785555b61259a8b8a8a89614bc9565b73ffffffffffffffffffffffffffffffffffffffff8a166125de576125de7fd92e233d000000000000000000000000000000000000000000000000000000006132fb565b73ffffffffffffffffffffffffffffffffffffffff8716612622576126227fd92e233d000000000000000000000000000000000000000000000000000000006132fb565b6039805473ffffffffffffffffffffffffffffffffffffffff808d167fffffffffffffffffffffffff000000000000000000000000000000000000000090921691909117909155670de0b6b3a7640000603a819055600a6041556046819055604080546044929092557fffffffffffffffffffffffffffffffffffffffffffffffffffffffffffff00ff928a166201000002929092167fffffffffffffffffffff000000000000000000000000000000000000000000ff90911617905583156127405784547fffffffffffffffffffffffffffffffffffffffffffffff00ffffffffffffffff168555604051600181527fc7f505b2f371ae2175ee4913f4499e1f2633a7b5936321eed1cdaeb6115181d29060200160405180910390a15b5050505050505050505050565b5f8281527f02dd7bc7dec4dceedda775e58dd541e08a116c6c53815c0bd028192f7b626800602052604090206001015461278681613299565b6114b983836142d2565b6040545f9060ff16156127a557506001919050565b5f5b6003548110156128c4575f6127ee600383815481106127c8576127c8615cd4565b5f9182526020909120015473ffffffffffffffffffffffffffffffffffffffff16612148565b9050831561285d5780801561284a575060055f6003848154811061281457612814615cd4565b5f91825260208083209091015473ffffffffffffffffffffffffffffffffffffffff16835282019290925260400190205460ff16155b1561285857505f9392505050565b6128ba565b806128ba575f806128a06003858154811061287a5761287a615cd4565b5f9182526020909120015473ffffffffffffffffffffffffffffffffffffffff166137a6565b119050806128af5750506128bc565b506001949350505050565b505b6001016127a7565b50816128d0575f610f3d565b600192915050565b6128e0613560565b6128e9826132a6565b6128f2826135bc565b73ffffffffffffffffffffffffffffffffffffffff8281165f9081526045602090815260408083205460048084528285205460079094528285205492517f07a2d13a000000000000000000000000000000000000000000000000000000008152908101929092529391909116906307a2d13a90602401602060405180830381865afa158015612983573d5f803e3d5ffd5b505050506040513d601f19601f820116820180604052508101906129a79190615d21565b73ffffffffffffffffffffffffffffffffffffffff8086165f9081526004602081815260408084205481517f01e1d11400000000000000000000000000000000000000000000000000000000815291519697509395879594909416936301e1d1149382810193928290030181865afa158015612a25573d5f803e3d5ffd5b505050506040513d601f19601f82011682018060405250810190612a499190615d21565b612a539190615cc1565b9050828110612a8657612a867f10e4809e000000000000000000000000000000000000000000000000000000008661407c565b612a8f85612148565b612abd57612abd7f2201a6c3000000000000000000000000000000000000000000000000000000008661407c565b82612ac88583615c5f565b1115612adb57612ad88184615cc1565b93505b73ffffffffffffffffffffffffffffffffffffffff8086165f9081526004602081905260408083205490517fc6e6f5920000000000000000000000000000000000000000000000000000000081529293169163c6e6f59291612b439189910190815260200190565b602060405180830381865afa158015612b5e573d5f803e3d5ffd5b505050506040513d601f19601f82011682018060405250810190612b829190615d21565b9050604654811015612bb857612bb87f2dd78c7e000000000000000000000000000000000000000000000000000000008661407c565b612bc28686613613565b50612bcc8661390e565b612bf957612bf97f2595dbe7000000000000000000000000000000000000000000000000000000006132fb565b612c046001876139db565b612c3157612c317f6dabf61e000000000000000000000000000000000000000000000000000000006132fb565b612c3a86613adf565b6040805173ffffffffffffffffffffffffffffffffffffffff8816815260208101879052338183015290517f1bb1edfe5e334d503d0dce0cd3185491ce674afad9ecfe52601c10c8c7c08d289181900360600190a1505050505050565b612cc07f241ecf16d79d0f8dbfb92cbc07fe17840425976cf0667f022fe9877caa831b08613299565b73ffffffffffffffffffffffffffffffffffffffff82165f81815260436020908152604091829020849055815192835282018390527f2e04b29851c22c48f29b5bbcd5092f95d0907b7700d4aaa2341f95fc931e78709101610fa5565b6060612d27613560565b612d30856132a6565b5f612d3a5f612790565b905082151581151514612d7057612d707f6ce14a8b000000000000000000000000000000000000000000000000000000006132fb565b80612f205760035467ffffffffffffffff811115612d9057612d906159d9565b604051908082528060200260200182016040528015612db9578160200160208202803683370190505b5091505f612dc6876141f9565b9050612dd3878787614c3f565b838281518110612de557612de5615cd4565b602090810291909101015260425473ffffffffffffffffffffffffffffffffffffffff90811690881603612ee2575f5b600354811015612ee0578773ffffffffffffffffffffffffffffffffffffffff1660038281548110612e4957612e49615cd4565b5f9182526020909120015473ffffffffffffffffffffffffffffffffffffffff1614612ed857612eab60038281548110612e8557612e85615cd4565b5f9182526020909120015473ffffffffffffffffffffffffffffffffffffffff1661390e565b612ed857612ed87f2595dbe7000000000000000000000000000000000000000000000000000000006132fb565b600101612e15565b505b612eec5f886139db565b612f1957612f197f6dabf61e000000000000000000000000000000000000000000000000000000006132fb565b5050613025565b5f612f2c5f6001613303565b60035490915067ffffffffffffffff811115612f4a57612f4a6159d9565b604051908082528060200260200182016040528015612f73578160200160208202803683370190505b5092505f5b600354811015613021575f670de0b6b3a7640000838381518110612f9e57612f9e615cd4565b602002602001015189612fb19190615c72565b612fbb9190615c89565b9050612ffb60038381548110612fd357612fd3615cd4565b5f9182526020909120015473ffffffffffffffffffffffffffffffffffffffff168289614c3f565b85838151811061300d5761300d615cd4565b602090810291909101015250600101612f78565b5050505b949350505050565b6130365f613299565b73ffffffffffffffffffffffffffffffffffffffff811661307a5761307a7fd92e233d000000000000000000000000000000000000000000000000000000006132fb565b600180547fffffffffffffffffffffffff00000000000000000000000000000000000000001673ffffffffffffffffffffffffffffffffffffffff83169081179091556040517fbdf37c276f641820b141429d245add2552b4118c0866e5a78638e3de5ef18d9d905f90a250565b6130f15f613299565b73ffffffffffffffffffffffffffffffffffffffff8116613135576131357fd92e233d000000000000000000000000000000000000000000000000000000006132fb565b600280547fffffffffffffffffffffffff00000000000000000000000000000000000000001673ffffffffffffffffffffffffffffffffffffffff83169081179091556040517fba4a603fbc52c5350922457bcd71f2287f1a67c8eabd5ec9a01f1dbd7ace4a7c905f90a250565b6131cc7f241ecf16d79d0f8dbfb92cbc07fe17840425976cf0667f022fe9877caa831b08613299565b670de0b6b3a7640000811115613206576132067fada46d16000000000000000000000000000000000000000000000000000000008261407c565b670d99a8cec7e20000811015613240576132407f71fba9d0000000000000000000000000000000000000000000000000000000008261407c565b73ffffffffffffffffffffffffffffffffffffffff82165f818152603b602052604090819020839055517f2efe6880df7ccb94a2aa093e54fd1f13f69ac2d50436d6a558a7c639697d1ea390611fff9084815260200190565b6132a38133614d69565b50565b73ffffffffffffffffffffffffffffffffffffffff8181165f90815260046020526040902054166132a3576132a37f1a2a9e87000000000000000000000000000000000000000000000000000000008261407c565b805f5260045ffd5b60035460609067ffffffffffffffff811115613321576133216159d9565b60405190808252806020026020018201604052801561334a578160200160208202803683370190505b5090505f805b6003548110156134e1578480156133ad575060055f6003838154811061337857613378615cd4565b5f91825260208083209091015473ffffffffffffffffffffffffffffffffffffffff16835282019290925260400190205460ff165b6134d957838015613479575060045f600383815481106133cf576133cf615cd4565b5f91825260208083209091015473ffffffffffffffffffffffffffffffffffffffff90811684528382019490945260409283019091205482517f5c975abb0000000000000000000000000000000000000000000000000000000081529251931692635c975abb9260048082019392918290030181865afa158015613455573d5f803e3d5ffd5b505050506040513d601f19601f820116820180604052508101906134799190615d38565b6134d9576134936003828154811061287a5761287a615cd4565b8382815181106134a5576134a5615cd4565b6020026020010181815250508281815181106134c3576134c3615cd4565b6020026020010151826134d69190615c5f565b91505b600101613350565b50805f036134ef5750610f3d565b5f5b600354811015613558578183828151811061350e5761350e615cd4565b6020026020010151670de0b6b3a76400006135299190615c72565b6135339190615c89565b83828151811061354557613545615cd4565b60209081029190910101526001016134f1565b505092915050565b7fcd5ed15c6e187e77e9aee88184c21f4f2182ab5827cb3b7e07fbedcd63f033005460ff16156118a2576040517fd93c066500000000000000000000000000000000000000000000000000000000815260040160405180910390fd5b73ffffffffffffffffffffffffffffffffffffffff81165f9081526005602052604090205460ff16156132a3576132a37f6ba2e418000000000000000000000000000000000000000000000000000000008261407c565b5f61362083333085614e0f565b73ffffffffffffffffffffffffffffffffffffffff8084165f908152600460205260409020546136539185911684614e71565b73ffffffffffffffffffffffffffffffffffffffff8381165f908152600460208190526040918290205491517f6e553f65000000000000000000000000000000000000000000000000000000008152908101859052306024820152911690636e553f65906044016020604051808303815f875af11580156136d6573d5f803e3d5ffd5b505050506040513d601f19601f820116820180604052508101906123239190615d21565b6040805460415491517fc442b43900000000000000000000000000000000000000000000000000000000815273ffffffffffffffffffffffffffffffffffffffff848116600483015260248201939093525f928392620100009004169063c442b439906044016040805180830381865afa15801561377a573d5f803e3d5ffd5b505050506040513d601f19601f8201168201806040525081019061379e9190615d53565b519392505050565b73ffffffffffffffffffffffffffffffffffffffff8181165f908152600760209081526040808320546004928390528184205491517f70a082310000000000000000000000000000000000000000000000000000000081523093810193909352929316906370a0823190602401602060405180830381865afa15801561382e573d5f803e3d5ffd5b505050506040513d601f19601f820116820180604052508101906138529190615d21565b610f3d9190615cc1565b73ffffffffffffffffffffffffffffffffffffffff8381165f9081526004602081905260408083205490517fba08765200000000000000000000000000000000000000000000000000000000815291820186905284841660248301523060448301529192919091169063ba087652906064016020604051808303815f875af11580156138ea573d5f803e3d5ffd5b505050506040513d601f19601f820116820180604052508101906130259190615d21565b6042545f9073ffffffffffffffffffffffffffffffffffffffff9081169083160361393b57506001919050565b5f613945836137a6565b6042549091505f9061396c9073ffffffffffffffffffffffffffffffffffffffff166137a6565b9050805f0361398b578115613981575f613025565b6001949350505050565b5f8161399f84670de0b6b3a7640000615c72565b6139a99190615c89565b73ffffffffffffffffffffffffffffffffffffffff9095165f9081526043602052604090205490941115949350505050565b5f806139e860015f613303565b90505f5b6003548110156128af57848015613a4c57508373ffffffffffffffffffffffffffffffffffffffff1660038281548110613a2857613a28615cd4565b5f9182526020909120015473ffffffffffffffffffffffffffffffffffffffff1614155b613ad75784158015613aa657508373ffffffffffffffffffffffffffffffffffffffff1660038281548110613a8357613a83615cd4565b5f9182526020909120015473ffffffffffffffffffffffffffffffffffffffff16145b613ad757604454828281518110613abf57613abf615cd4565b60200260200101511115613ad7575f92505050610f3d565b6001016139ec565b73ffffffffffffffffffffffffffffffffffffffff8082165f9081526004602081815260408084205481517f18160ddd000000000000000000000000000000000000000000000000000000008152915195169485936318160ddd9383820193909291908290030181865afa158015613b59573d5f803e3d5ffd5b505050506040513d601f19601f82011682018060405250810190613b7d9190615d21565b90505f808373ffffffffffffffffffffffffffffffffffffffff166372d4b21a6040518163ffffffff1660e01b81526004016040805180830381865afa158015613bc9573d5f803e3d5ffd5b505050506040513d601f19601f82011682018060405250810190613bed9190615da2565b915091505f82613c8a576040517f70a0823100000000000000000000000000000000000000000000000000000000815273ffffffffffffffffffffffffffffffffffffffff86811660048301528716906370a0823190602401602060405180830381865afa158015613c61573d5f803e3d5ffd5b505050506040513d601f19601f82011682018060405250810190613c859190615d21565b613d18565b6040517f70a0823100000000000000000000000000000000000000000000000000000000815273ffffffffffffffffffffffffffffffffffffffff83811660048301528716906370a0823190602401602060405180830381865afa158015613cf4573d5f803e3d5ffd5b505050506040513d601f19601f82011682018060405250810190613d189190615d21565b6040517f07a2d13a00000000000000000000000000000000000000000000000000000000815260048101869052909150819073ffffffffffffffffffffffffffffffffffffffff8716906307a2d13a90602401602060405180830381865afa158015613d86573d5f803e3d5ffd5b505050506040513d601f19601f82011682018060405250810190613daa9190615d21565b1115613ddb57613ddb7fb97fded1000000000000000000000000000000000000000000000000000000008286614ec4565b6040517f70a082310000000000000000000000000000000000000000000000000000000081523060048201525f9073ffffffffffffffffffffffffffffffffffffffff8716906370a0823190602401602060405180830381865afa158015613e45573d5f803e3d5ffd5b505050506040513d601f19601f82011682018060405250810190613e699190615d21565b73ffffffffffffffffffffffffffffffffffffffff88165f90815260076020526040902054909150811015611059576040517f07a2d13a000000000000000000000000000000000000000000000000000000008152600481018290525f9073ffffffffffffffffffffffffffffffffffffffff8816906307a2d13a90602401602060405180830381865afa158015613f03573d5f803e3d5ffd5b505050506040513d601f19601f82011682018060405250810190613f279190615d21565b9050613f547fb97fded1000000000000000000000000000000000000000000000000000000008284614ec4565b5050505050505050565b5f8281527f02dd7bc7dec4dceedda775e58dd541e08a116c6c53815c0bd028192f7b6268006020818152604080842073ffffffffffffffffffffffffffffffffffffffff8616855290915282205460ff16614073575f8481526020828152604080832073ffffffffffffffffffffffffffffffffffffffff87168452909152902080547fffffffffffffffffffffffffffffffffffffffffffffffffffffffffffffff0016600117905561400f3390565b73ffffffffffffffffffffffffffffffffffffffff168373ffffffffffffffffffffffffffffffffffffffff16857f2f8788117e7eff1d82e926ec794901d17c78024a50270940304540a733656f0d60405160405180910390a46001915050610f3d565b5f915050610f3d565b815f528060045260245ffd5b5f835f0361409757505f613025565b5f6140a28686613613565b90505f805f6140b18985614ed4565b9250925092506140c2898284614f61565b851580156140d657506140d48961390e565b155b15614104576141047f2595dbe7000000000000000000000000000000000000000000000000000000006132fb565b6039546040517f40c10f1900000000000000000000000000000000000000000000000000000000815273ffffffffffffffffffffffffffffffffffffffff898116600483015260248201869052909116906340c10f19906044015f604051808303815f87803b158015614175575f80fd5b505af1158015614187573d5f803e3d5ffd5b5050505061419489613adf565b604080518981526020810185905273ffffffffffffffffffffffffffffffffffffffff808c1692908a169133917f5bf1ae7c4c81d8f51bd6f74471f2622d4952dfeca98ba4f9f0da428b2f84edf5910160405180910390a45090979650505050505050565b5f805b600354811015614264578273ffffffffffffffffffffffffffffffffffffffff166003828154811061423057614230615cd4565b5f9182526020909120015473ffffffffffffffffffffffffffffffffffffffff160361425c5792915050565b6001016141fc565b50919050565b5f8160ff168360ff160361427f575082612323565b8160ff168360ff1611156142b3576142978284615dcf565b6142a290600a615f09565b6142ac9085615c89565b9050612323565b6142bd8383615dcf565b6142c890600a615f09565b6142ac9085615c72565b5f8281527f02dd7bc7dec4dceedda775e58dd541e08a116c6c53815c0bd028192f7b6268006020818152604080842073ffffffffffffffffffffffffffffffffffffffff8616855290915282205460ff1615614073575f8481526020828152604080832073ffffffffffffffffffffffffffffffffffffffff8716808552925280832080547fffffffffffffffffffffffffffffffffffffffffffffffffffffffffffffff0016905551339287917ff6391f5c32d9c69d2a47ea670b442974b53935d1edc7fd64eb21e047a839171b9190a46001915050610f3d565b6143b661501e565b7fcd5ed15c6e187e77e9aee88184c21f4f2182ab5827cb3b7e07fbedcd63f0330080547fffffffffffffffffffffffffffffffffffffffffffffffffffffffffffffff001681557f5db9ee0a495bf2e6ff9c91a7834c1ba4fdd244a5e8aa4e537bd38aeae4b073aa335b60405173ffffffffffffffffffffffffffffffffffffffff9091168152602001611a49565b73ffffffffffffffffffffffffffffffffffffffff8181165f90815260066020908152604080832086851684528252808320546004928390528184205491517f07a2d13a000000000000000000000000000000000000000000000000000000008152928301819052929316906307a2d13a90602401602060405180830381865afa1580156144d5573d5f803e3d5ffd5b505050506040513d601f19601f820116820180604052508101906144f99190615d21565b5f03614508575f915050610f3d565b73ffffffffffffffffffffffffffffffffffffffff8084165f9081526006602090815260408083209388168352928152828220829055600790529081208054839290614555908490615cc1565b909155505073ffffffffffffffffffffffffffffffffffffffff8481165f908152600460208190526040918290205491517fba087652000000000000000000000000000000000000000000000000000000008152908101849052858316602482015230604482015291169063ba087652906064016020604051808303815f875af11580156145e5573d5f803e3d5ffd5b505050506040513d601f19601f820116820180604052508101906146099190615d21565b91508273ffffffffffffffffffffffffffffffffffffffff168473ffffffffffffffffffffffffffffffffffffffff167fd7df942c87bc524ccb17249639699aa79ede0bfadd2bea503ce279f9934791508385604051614673929190918252602082015260400190565b60405180910390a35092915050565b3073ffffffffffffffffffffffffffffffffffffffff7f000000000000000000000000000000000000000000000000000000000000000016148061474f57507f000000000000000000000000000000000000000000000000000000000000000073ffffffffffffffffffffffffffffffffffffffff166147367f360894a13ba1a3210667c828492db98dca3e2076cc3735a920a3ca505d382bbc5473ffffffffffffffffffffffffffffffffffffffff1690565b73ffffffffffffffffffffffffffffffffffffffff1614155b156118a2576040517fe07c8dba00000000000000000000000000000000000000000000000000000000815260040160405180910390fd5b6132a35f613299565b8173ffffffffffffffffffffffffffffffffffffffff166352d1902d6040518163ffffffff1660e01b8152600401602060405180830381865afa925050508015614814575060408051601f3d9081017fffffffffffffffffffffffffffffffffffffffffffffffffffffffffffffffe016820190925261481191810190615d21565b60015b614867576040517f4c9c8ce300000000000000000000000000000000000000000000000000000000815273ffffffffffffffffffffffffffffffffffffffff831660048201526024015b60405180910390fd5b7f360894a13ba1a3210667c828492db98dca3e2076cc3735a920a3ca505d382bbc81146148c3576040517faa1d49a40000000000000000000000000000000000000000000000000000000081526004810182905260240161485e565b61186c8383615079565b3073ffffffffffffffffffffffffffffffffffffffff7f000000000000000000000000000000000000000000000000000000000000000016146118a2576040517fe07c8dba00000000000000000000000000000000000000000000000000000000815260040160405180910390fd5b614944613560565b7fcd5ed15c6e187e77e9aee88184c21f4f2182ab5827cb3b7e07fbedcd63f0330080547fffffffffffffffffffffffffffffffffffffffffffffffffffffffffffffff001660011781557f62e78cea01bee320cd4e420270b5ea74000d11b0c9f74754ebdbfc544b05a25833614420565b5f6149bf81613299565b73ffffffffffffffffffffffffffffffffffffffff8281165f908152600460205260409020541615614a1557614a157f38bfcc16000000000000000000000000000000000000000000000000000000008361407c565b60038054600181019091557fc2575a0e9e593c00f959f8c92f12db2869c3395a3b0502d05e2516446f71f85b0180547fffffffffffffffffffffffff00000000000000000000000000000000000000001673ffffffffffffffffffffffffffffffffffffffff8481169182179092555f9081526020812081549092614a9b9116836150db565b6040517f485cc95500000000000000000000000000000000000000000000000000000000815273ffffffffffffffffffffffffffffffffffffffff86811660048301523060248301529192509082169063485cc955906044015f604051808303815f87803b158015614b0b575f80fd5b505af1158015614b1d573d5f803e3d5ffd5b50505073ffffffffffffffffffffffffffffffffffffffff8086165f8181526004602052604080822080549487167fffffffffffffffffffffffff000000000000000000000000000000000000000090951685179055519193507f5d9c31ffa0fecffd7cf379989a3c7af252f0335e0d2a1320b55245912c781f5391a39392505050565b5f807ff0c57e16840df040f15088dc2f81fe391c3923bec73e23a9662efc9c229c6a00610f3d565b614bd16150e7565b614bd9615125565b614be1615125565b614be9615125565b614bf58484848461512d565b6114b97f65d7a28e3265b37a6474929f336521b332c1681b933f6cb9f3376673440d862a7f241ecf16d79d0f8dbfb92cbc07fe17840425976cf0667f022fe9877caa831b08615350565b5f825f03614c4e57505f612323565b5f805f614c5b87876153f1565b6039546040517f9dc29fac000000000000000000000000000000000000000000000000000000008152336004820152602481018b9052939650919450925073ffffffffffffffffffffffffffffffffffffffff1690639dc29fac906044015f604051808303815f87803b158015614cd0575f80fd5b505af1158015614ce2573d5f803e3d5ffd5b50505050614cf1878284614f61565b614cfc87848761385c565b9350505050614d0a84613adf565b604080518281526020810185905273ffffffffffffffffffffffffffffffffffffffff808716929085169133917f86a824fd3cfb472a44138f5f76db0a4642f87a88cee775c39d3f865f4c03bdaa910160405180910390a49392505050565b5f8281527f02dd7bc7dec4dceedda775e58dd541e08a116c6c53815c0bd028192f7b6268006020908152604080832073ffffffffffffffffffffffffffffffffffffffff8516845290915290205460ff166119d1576040517fe2517d3f00000000000000000000000000000000000000000000000000000000815273ffffffffffffffffffffffffffffffffffffffff821660048201526024810183905260440161485e565b60405181606052826040528360601b602c526f23b872dd000000000000000000000000600c5260205f6064601c5f895af18060015f511416614e6357803d873b151710614e6357637939f4245f526004601cfd5b505f60605260405250505050565b81601452806034526f095ea7b30000000000000000000000005f5260205f604460105f875af18060015f511416614eba57803d853b151710614eba57633e3f8f735f526004601cfd5b505f603452505050565b825f52816004528060245260445ffd5b73ffffffffffffffffffffffffffffffffffffffff82165f908152603b602052604081205481908190670de0b6b3a7640000614f108287615c72565b614f1a9190615c89565b93505f614f278587615cc1565b9050670de0b6b3a7640000603a5482614f409190615c72565b614f4a9190615c89565b9250614f568382615cc1565b935050509250925092565b8115614f8f57600254614f8d908490849073ffffffffffffffffffffffffffffffffffffffff1661385c565b505b801561186c5760015473ffffffffffffffffffffffffffffffffffffffff9081165f90815260066020908152604080832093871683529290529081208054839290614fdb908490615c5f565b909155505073ffffffffffffffffffffffffffffffffffffffff83165f9081526007602052604081208054839290615014908490615c5f565b9091555050505050565b7fcd5ed15c6e187e77e9aee88184c21f4f2182ab5827cb3b7e07fbedcd63f033005460ff166118a2576040517f8dfc202b00000000000000000000000000000000000000000000000000000000815260040160405180910390fd5b6150828261542d565b60405173ffffffffffffffffffffffffffffffffffffffff8316907fbc7cd75a20ee27fd9adebab32041f755214dbc6bffa90cc0225b39da2e5c2d3b905f90a28051156150d35761186c82826154fb565b6119d161557a565b5f6123235f84846155b2565b6150ef61567d565b6118a2576040517fd7e6bcf800000000000000000000000000000000000000000000000000000000815260040160405180910390fd5b6118a26150e7565b6151356150e7565b73ffffffffffffffffffffffffffffffffffffffff8416615179576151797fd92e233d000000000000000000000000000000000000000000000000000000006132fb565b73ffffffffffffffffffffffffffffffffffffffff83166151bd576151bd7fd92e233d000000000000000000000000000000000000000000000000000000006132fb565b73ffffffffffffffffffffffffffffffffffffffff8216615201576152017fd92e233d000000000000000000000000000000000000000000000000000000006132fb565b73ffffffffffffffffffffffffffffffffffffffff8116615245576152457fd92e233d000000000000000000000000000000000000000000000000000000006132fb565b5f80547fffffffffffffffffffffffff00000000000000000000000000000000000000001673ffffffffffffffffffffffffffffffffffffffff831617815561528e9085613f5e565b506001805473ffffffffffffffffffffffffffffffffffffffff8085167fffffffffffffffffffffffff0000000000000000000000000000000000000000928316811790935560028054918716919092161790556040517fbdf37c276f641820b141429d245add2552b4118c0866e5a78638e3de5ef18d9d905f90a260405173ffffffffffffffffffffffffffffffffffffffff8416907fba4a603fbc52c5350922457bcd71f2287f1a67c8eabd5ec9a01f1dbd7ace4a7c905f90a250505050565b7f02dd7bc7dec4dceedda775e58dd541e08a116c6c53815c0bd028192f7b6268005f6153a9845f9081527f02dd7bc7dec4dceedda775e58dd541e08a116c6c53815c0bd028192f7b626800602052604090206001015490565b5f85815260208490526040808220600101869055519192508491839187917fbd79b86ffe0ab8e8776151514217cd7cacd52c909f66475c3af44e129f0b00ff9190a450505050565b73ffffffffffffffffffffffffffffffffffffffff82165f908152603c602052604081205481908190670de0b6b3a7640000614f108287615c72565b8073ffffffffffffffffffffffffffffffffffffffff163b5f03615495576040517f4c9c8ce300000000000000000000000000000000000000000000000000000000815273ffffffffffffffffffffffffffffffffffffffff8216600482015260240161485e565b7f360894a13ba1a3210667c828492db98dca3e2076cc3735a920a3ca505d382bbc80547fffffffffffffffffffffffff00000000000000000000000000000000000000001673ffffffffffffffffffffffffffffffffffffffff92909216919091179055565b60605f808473ffffffffffffffffffffffffffffffffffffffff16846040516155249190615f17565b5f60405180830381855af49150503d805f811461555c576040519150601f19603f3d011682016040523d82523d5f602084013e615561565b606091505b509150915061557185838361569b565b95945050505050565b34156118a2576040517fb398979f00000000000000000000000000000000000000000000000000000000815260040160405180910390fd5b604080517fb3582b35133d50545afa5036515af43d6000803e604d573d6000fd5b3d6000f36060527f1b60e01b36527fa3f0ad74e5423aebfd80d3ef4346578335a9a72aeaee59ff6c9091527660195155f3363d3d373d3d363d602036600436635c60da6020527c60523d8160223d3973000000000000000000000000000000000000000073ffffffffffffffffffffffffffffffffffffffff8416176009525f90826074600c87f591508161566f5763301164255f526004601cfd5b6040525f6060529392505050565b5f615686614ba1565b5468010000000000000000900460ff16919050565b6060826156b0576156ab8261572a565b612323565b81511580156156d4575073ffffffffffffffffffffffffffffffffffffffff84163b155b15615723576040517f9996b31500000000000000000000000000000000000000000000000000000000815273ffffffffffffffffffffffffffffffffffffffff8516600482015260240161485e565b5080612323565b80511561573a5780518082602001fd5b6040517fd6bda27500000000000000000000000000000000000000000000000000000000815260040160405180910390fd5b73ffffffffffffffffffffffffffffffffffffffff811681146132a3575f80fd5b5f805f6060848603121561579f575f80fd5b83356157aa8161576c565b95602085013595506040909401359392505050565b5f602082840312156157cf575f80fd5b81357fffffffff0000000000000000000000000000000000000000000000000000000081168114612323575f80fd5b5f806040838503121561580f575f80fd5b823561581a8161576c565b946020939093013593505050565b80151581146132a3575f80fd5b5f805f60608486031215615847575f80fd5b83356158528161576c565b9250602084013561586281615828565b915060408401356158728161576c565b809150509250925092565b5f6020828403121561588d575f80fd5b81356123238161576c565b602080825282518282018190525f918401906040840190835b818110156158cf5783518352602093840193909201916001016158b1565b509095945050505050565b5f602082840312156158ea575f80fd5b5035919050565b5f805f60608486031215615903575f80fd5b833561590e8161576c565b9250602084013561591e8161576c565b929592945050506040919091013590565b5f8060408385031215615940575f80fd5b8235915060208301356159528161576c565b809150509250929050565b5f805f8060808587031215615970575f80fd5b843561597b8161576c565b93506020850135925060408501356159928161576c565b915060608501356159a281615828565b939692955090935050565b5f80604083850312156159be575f80fd5b82356159c98161576c565b915060208301356159528161576c565b7f4e487b71000000000000000000000000000000000000000000000000000000005f52604160045260245ffd5b604051601f82017fffffffffffffffffffffffffffffffffffffffffffffffffffffffffffffffe016810167ffffffffffffffff81118282101715615a4d57615a4d6159d9565b604052919050565b5f8060408385031215615a66575f80fd5b8235615a718161576c565b9150602083013567ffffffffffffffff811115615a8c575f80fd5b8301601f81018513615a9c575f80fd5b803567ffffffffffffffff811115615ab657615ab66159d9565b615ae760207fffffffffffffffffffffffffffffffffffffffffffffffffffffffffffffffe0601f84011601615a06565b818152866020838501011115615afb575f80fd5b816020840160208301375f602083830101528093505050509250929050565b5f60208284031215615b2a575f80fd5b813561232381615828565b602081525f82518060208401528060208501604085015e5f6040828501015260407fffffffffffffffffffffffffffffffffffffffffffffffffffffffffffffffe0601f83011684010191505092915050565b5f8060408385031215615b99575f80fd5b8235615ba48161576c565b9150602083013561595281615828565b5f805f805f8060c08789031215615bc9575f80fd5b8635615bd48161576c565b95506020870135615be48161576c565b94506040870135615bf48161576c565b93506060870135615c048161576c565b92506080870135615c148161576c565b915060a0870135615c248161576c565b809150509295509295509295565b7f4e487b71000000000000000000000000000000000000000000000000000000005f52601160045260245ffd5b80820180821115610f3d57610f3d615c32565b8082028115828204841417610f3d57610f3d615c32565b5f82615cbc577f4e487b71000000000000000000000000000000000000000000000000000000005f52601260045260245ffd5b500490565b81810381811115610f3d57610f3d615c32565b7f4e487b71000000000000000000000000000000000000000000000000000000005f52603260045260245ffd5b5f60208284031215615d11575f80fd5b815160ff81168114612323575f80fd5b5f60208284031215615d31575f80fd5b5051919050565b5f60208284031215615d48575f80fd5b815161232381615828565b5f6040828403128015615d64575f80fd5b506040805190810167ffffffffffffffff81118282101715615d8857615d886159d9565b604052825181526020928301519281019290925250919050565b5f8060408385031215615db3575f80fd5b8251615dbe81615828565b60208401519092506159528161576c565b60ff8281168282160390811115610f3d57610f3d615c32565b6001815b6001841115615e2357808504811115615e0757615e07615c32565b6001841615615e1557908102905b60019390931c928002615dec565b935093915050565b5f82615e3957506001610f3d565b81615e4557505f610f3d565b8160018114615e5b5760028114615e6557615e81565b6001915050610f3d565b60ff841115615e7657615e76615c32565b50506001821b610f3d565b5060208310610133831016604e8410600b8410161715615ea4575081810a610f3d565b615ecf7fffffffffffffffffffffffffffffffffffffffffffffffffffffffffffffffff8484615de8565b807fffffffffffffffffffffffffffffffffffffffffffffffffffffffffffffffff04821115615f0157615f01615c32565b029392505050565b5f61232360ff841683615e2b565b5f82518060208501845e5f92019182525091905056fea164736f6c634300081a000a","linkReferences":{}},"methodIdentifiers":{"DEFAULT_ADMIN_ROLE()":"a217fddf","MANAGER_ROLE()":"ec87621c","PAUSER_ROLE()":"e63ab1e9","UPGRADE_INTERFACE_VERSION()":"ad3cb1cc","beacon()":"59659e90","collectedFees(address,address)":"4c97f766","createVault(address)":"b4bd6f46","feeReceiver()":"b3f00674","forcedBasketMode()":"7b34b5d8","getRoleAdmin(bytes32)":"248a9ca3","getWeights()":"22acb867","globalCap()":"99a2af75","grantRole(bytes32,address)":"2f2ff15d","hasRole(bytes32,address)":"91d14854","honey()":"36b2c4b2","initialize(address,address,address,address,address,address)":"cc2a9a5b","isBadCollateralAsset(address)":"1e17e57c","isBasketModeEnabled(bool)":"de4bc640","isPegged(address)":"bc7c2902","liquidate(address,address,uint256)":"26c01303","liquidationEnabled()":"ae574a90","minSharesToRecapitalize()":"55c7aaff","mint(address,uint256,address,bool)":"328ebaf7","mintRates(address)":"ad1567c7","numRegisteredAssets()":"bb85d15b","pause()":"8456cb59","pauseVault(address)":"c0bd6f9e","paused()":"5c975abb","polFeeCollector()":"1e704c63","polFeeCollectorFeeRate()":"9ee61d56","priceFeedMaxDelay()":"ebaa6545","priceOracle()":"2630c12f","proxiableUUID()":"52d1902d","recapitalize(address,uint256)":"e0cda5da","recapitalizeBalanceThreshold(address)":"93df0018","redeem(address,uint256,address,bool)":"ed596315","redeemRates(address)":"2cfb0e10","referenceCollateral()":"f68f0c69","registeredAssets(uint256)":"a083bd3c","relativeCap(address)":"bdb912f3","renounceRole(bytes32,address)":"36568abe","revokeRole(bytes32,address)":"d547741f","setCollateralAssetStatus(address,bool)":"c1a7b2af","setCustodyInfo(address,bool,address)":"1224b28c","setDepegOffsets(address,uint256,uint256)":"00271801","setFeeReceiver(address)":"efdcd974","setForcedBasketMode(bool)":"6fe7f983","setGlobalCap(uint256)":"a71f6f5f","setLiquidationEnabled(bool)":"5f0ccdc2","setLiquidationRate(address,uint256)":"a3bc2385","setMaxFeedDelay(uint256)":"ab6636ec","setMinSharesToRecapitalize(uint256)":"aba1f541","setMintRate(address,uint256)":"f91d65af","setPOLFeeCollector(address)":"f0f15132","setPOLFeeCollectorFeeRate(uint256)":"503b9e59","setPriceOracle(address)":"530e784f","setRecapitalizeBalanceThreshold(address,uint256)":"0aa4f4cd","setRedeemRate(address,uint256)":"abab398a","setReferenceCollateral(address)":"4af471be","setRelativeCap(address,uint256)":"e2a02536","supportsInterface(bytes4)":"01ffc9a7","unpause()":"3f4ba83a","unpauseVault(address)":"2efbab2c","upgradeToAndCall(address,bytes)":"4f1ef286","vaults(address)":"a622ee7c","withdrawAllFees(address)":"4c179042","withdrawFee(address,address)":"c879c6d8"},"storageLayout":{"storage":[{"astId":76138,"contract":"src/honey/HoneyFactory.sol:HoneyFactory","label":"beacon","offset":0,"slot":"0","type":"t_address"},{"astId":76141,"contract":"src/honey/HoneyFactory.sol:HoneyFactory","label":"feeReceiver","offset":0,"slot":"1","type":"t_address"},{"astId":76144,"contract":"src/honey/HoneyFactory.sol:HoneyFactory","label":"polFeeCollector","offset":0,"slot":"2","type":"t_address"},{"astId":76148,"contract":"src/honey/HoneyFactory.sol:HoneyFactory","label":"registeredAssets","offset":0,"slot":"3","type":"t_array(t_address)dyn_storage"},{"astId":76154,"contract":"src/honey/HoneyFactory.sol:HoneyFactory","label":"vaults","offset":0,"slot":"4","type":"t_mapping(t_address,t_contract(CollateralVault)72254)"},{"astId":76159,"contract":"src/honey/HoneyFactory.sol:HoneyFactory","label":"isBadCollateralAsset","offset":0,"slot":"5","type":"t_mapping(t_address,t_bool)"},{"astId":76166,"contract":"src/honey/HoneyFactory.sol:HoneyFactory","label":"collectedFees","offset":0,"slot":"6","type":"t_mapping(t_address,t_mapping(t_address,t_uint256))"},{"astId":76171,"contract":"src/honey/HoneyFactory.sol:HoneyFactory","label":"collectedAssetFees","offset":0,"slot":"7","type":"t_mapping(t_address,t_uint256)"},{"astId":76176,"contract":"src/honey/HoneyFactory.sol:HoneyFactory","label":"__gap","offset":0,"slot":"8","type":"t_array(t_uint256)49_storage"},{"astId":72640,"contract":"src/honey/HoneyFactory.sol:HoneyFactory","label":"honey","offset":0,"slot":"57","type":"t_contract(Honey)72425"},{"astId":72643,"contract":"src/honey/HoneyFactory.sol:HoneyFactory","label":"polFeeCollectorFeeRate","offset":0,"slot":"58","type":"t_uint256"},{"astId":72648,"contract":"src/honey/HoneyFactory.sol:HoneyFactory","label":"mintRates","offset":0,"slot":"59","type":"t_mapping(t_address,t_uint256)"},{"astId":72653,"contract":"src/honey/HoneyFactory.sol:HoneyFactory","label":"redeemRates","offset":0,"slot":"60","type":"t_mapping(t_address,t_uint256)"},{"astId":72658,"contract":"src/honey/HoneyFactory.sol:HoneyFactory","label":"lowerPegOffsets","offset":0,"slot":"61","type":"t_mapping(t_address,t_uint256)"},{"astId":72662,"contract":"src/honey/HoneyFactory.sol:HoneyFactory","label":"upperPegOffsets","offset":0,"slot":"62","type":"t_mapping(t_address,t_uint256)"},{"astId":72667,"contract":"src/honey/HoneyFactory.sol:HoneyFactory","label":"liquidationRates","offset":0,"slot":"63","type":"t_mapping(t_address,t_uint256)"},{"astId":72670,"contract":"src/honey/HoneyFactory.sol:HoneyFactory","label":"forcedBasketMode","offset":0,"slot":"64","type":"t_bool"},{"astId":72673,"contract":"src/honey/HoneyFactory.sol:HoneyFactory","label":"liquidationEnabled","offset":1,"slot":"64","type":"t_bool"},{"astId":72677,"contract":"src/honey/HoneyFactory.sol:HoneyFactory","label":"priceOracle","offset":2,"slot":"64","type":"t_contract(IPriceOracle)69752"},{"astId":72680,"contract":"src/honey/HoneyFactory.sol:HoneyFactory","label":"priceFeedMaxDelay","offset":0,"slot":"65","type":"t_uint256"},{"astId":72682,"contract":"src/honey/HoneyFactory.sol:HoneyFactory","label":"referenceCollateral","offset":0,"slot":"66","type":"t_address"},{"astId":72686,"contract":"src/honey/HoneyFactory.sol:HoneyFactory","label":"relativeCap","offset":0,"slot":"67","type":"t_mapping(t_address,t_uint256)"},{"astId":72688,"contract":"src/honey/HoneyFactory.sol:HoneyFactory","label":"globalCap","offset":0,"slot":"68","type":"t_uint256"},{"astId":72693,"contract":"src/honey/HoneyFactory.sol:HoneyFactory","label":"recapitalizeBalanceThreshold","offset":0,"slot":"69","type":"t_mapping(t_address,t_uint256)"},{"astId":72696,"contract":"src/honey/HoneyFactory.sol:HoneyFactory","label":"minSharesToRecapitalize","offset":0,"slot":"70","type":"t_uint256"}],"types":{"t_address":{"encoding":"inplace","label":"address","numberOfBytes":"20"},"t_array(t_address)dyn_storage":{"encoding":"dynamic_array","label":"address[]","numberOfBytes":"32","base":"t_address"},"t_array(t_uint256)49_storage":{"encoding":"inplace","label":"uint256[49]","numberOfBytes":"1568","base":"t_uint256"},"t_bool":{"encoding":"inplace","label":"bool","numberOfBytes":"1"},"t_contract(CollateralVault)72254":{"encoding":"inplace","label":"contract CollateralVault","numberOfBytes":"20"},"t_contract(Honey)72425":{"encoding":"inplace","label":"contract Honey","numberOfBytes":"20"},"t_contract(IPriceOracle)69752":{"encoding":"inplace","label":"contract IPriceOracle","numberOfBytes":"20"},"t_mapping(t_address,t_bool)":{"encoding":"mapping","key":"t_address","label":"mapping(address => bool)","numberOfBytes":"32","value":"t_bool"},"t_mapping(t_address,t_contract(CollateralVault)72254)":{"encoding":"mapping","key":"t_address","label":"mapping(address => contract CollateralVault)","numberOfBytes":"32","value":"t_contract(CollateralVault)72254"},"t_mapping(t_address,t_mapping(t_address,t_uint256))":{"encoding":"mapping","key":"t_address","label":"mapping(address => mapping(address => uint256))","numberOfBytes":"32","value":"t_mapping(t_address,t_uint256)"},"t_mapping(t_address,t_uint256)":{"encoding":"mapping","key":"t_address","label":"mapping(address => uint256)","numberOfBytes":"32","value":"t_uint256"},"t_uint256":{"encoding":"inplace","label":"uint256","numberOfBytes":"32"}}},"id":123}