{"abi":[{"type":"constructor","inputs":[{"name":"bgt","type":"address","internalType":"address"},{"name":"governance","type":"address","internalType":"address"},{"name":"rewardToken","type":"address","internalType":"address"},{"name":"bgtStakerSalt","type":"uint256","internalType":"uint256"},{"name":"feeCollectorSalt","type":"uint256","internalType":"uint256"},{"name":"payoutAmount","type":"uint256","internalType":"uint256"}],"stateMutability":"nonpayable"},{"type":"function","name":"_CREATE2_FACTORY","inputs":[],"outputs":[{"name":"","type":"address","internalType":"address"}],"stateMutability":"view"},{"type":"function","name":"bgtStaker","inputs":[],"outputs":[{"name":"","type":"address","internalType":"contract BGTStaker"}],"stateMutability":"view"},{"type":"function","name":"feeCollector","inputs":[],"outputs":[{"name":"","type":"address","internalType":"contract FeeCollector"}],"stateMutability":"view"},{"type":"error","name":"DeploymentFailed","inputs":[]}],"bytecode":{"object":"0x60c060405234801561000f575f80fd5b506040516146bb3803806146bb83398101604081905261002e916102a2565b5f61005b5f6040518060200161004390610260565b601f1982820381018352601f90910116604052610190565b905061006781856101d4565b6001600160a01b03166080526040515f9061008a9082906100436020820161026d565b905061009681856101d4565b6001600160a01b0390811660a0819052608051604051637c643b2f60e11b81528b841660048201526024810192909252898316604483015288831660648301529091169063f8c8765e906084015f604051808303815f87803b1580156100fa575f80fd5b505af115801561010c573d5f803e3d5ffd5b505060a05160805160405163cf756fdf60e01b81526001600160a01b038c811660048301528b811660248301529182166044820152606481018890529116925063cf756fdf91506084015f604051808303815f87803b15801561016d575f80fd5b505af115801561017f573d5f803e3d5ffd5b505050505050505050505050610377565b5f815183835260145f60208301855f734e59b44847b379578588920ca78fbf26c0b4956c5af16101c75763301164255f526004601cfd5b5f5192525060601c919050565b5f6101e7826101e2856101ee565b610190565b9392505050565b6060604051806020016102009061027a565b601f1982820381018352601f90910116602081810160409081525f83525161022c928692909101610300565b60408051601f198184030181529082905261024a929160200161035b565b6040516020818303038152906040529050919050565b611ec68061046e83390190565b611fd38061233483390190565b6103b48061430783390190565b80516001600160a01b038116811461029d575f80fd5b919050565b5f805f805f8060c087890312156102b7575f80fd5b6102c087610287565b95506102ce60208801610287565b94506102dc60408801610287565b6060880151608089015160a090990151979a96995090979096909590945092505050565b60018060a01b0383168152604060208201525f82518060408401528060208501606085015e5f606082850101526060601f19601f8301168401019150509392505050565b5f81518060208401855e5f93019283525090919050565b5f61036f6103698386610344565b84610344565b949350505050565b60805160a05160da6103945f395f609101525f6042015260da5ff3fe6080604052348015600e575f80fd5b5060043610603a575f3560e01c806374c4635e14603e578063c415b95c14608d578063ecef25331460b3575b5f80fd5b60647f000000000000000000000000000000000000000000000000000000000000000081565b60405173ffffffffffffffffffffffffffffffffffffffff909116815260200160405180910390f35b60647f000000000000000000000000000000000000000000000000000000000000000081565b6064734e59b44847b379578588920ca78fbf26c0b4956c8156fea164736f6c634300081a000a60a060405230608052348015610013575f80fd5b5061001c610021565b6100d3565b7ff0c57e16840df040f15088dc2f81fe391c3923bec73e23a9662efc9c229c6a00805468010000000000000000900460ff16156100715760405163f92ee8a960e01b815260040160405180910390fd5b80546001600160401b03908116146100d05780546001600160401b0319166001600160401b0390811782556040519081527fc7f505b2f371ae2175ee4913f4499e1f2633a7b5936321eed1cdaeb6115181d29060200160405180910390a15b50565b608051611dcd6100f95f395f8181610da701528181610dd00152610ff10152611dcd5ff3fe6080604052600436106101c4575f3560e01c806380faa57d116100f2578063cc1a378f11610092578063f2fde38b11610062578063f2fde38b14610579578063f3fef3a314610598578063f7c618c1146105b7578063f8c8765e146105e3575f80fd5b8063cc1a378f1461051c578063cd3daf9d1461053b578063df136d651461054f578063ebe2b12b14610564575f80fd5b80638da5cb5b116100cd5780638da5cb5b1461044a578063ad3cb1cc14610493578063adc9772e146104e8578063c8f33c9114610507575f80fd5b806380faa57d146103d35780638980f11f146103e75780638b87634714610406575f80fd5b80633d18b9121161016857806370a082311161013857806370a082311461033d578063715018a61461037e5780637b0a47ee146103925780637f660b01146103a7575f80fd5b80633d18b912146102b25780634f1ef286146102c657806351ed6a30146102d957806352d1902d14610329575f80fd5b80631c1f78eb116101a35780631c1f78eb14610253578063319ce2bb14610267578063386a95251461027c5780633c6b16ab14610291575f80fd5b80628cc262146101c85780630700037d146101fa57806318160ddd1461023e575b5f80fd5b3480156101d3575f80fd5b506101e76101e2366004611ac7565b610602565b6040519081526020015b60405180910390f35b348015610205575f80fd5b506101e7610214366004611ac7565b73ffffffffffffffffffffffffffffffffffffffff165f9081526009602052604090206001015490565b348015610249575f80fd5b506101e760055481565b34801561025e575f80fd5b506101e7610667565b348015610272575f80fd5b506101e760035481565b348015610287575f80fd5b506101e760075481565b34801561029c575f80fd5b506102b06102ab366004611ae0565b610684565b005b3480156102bd575f80fd5b506101e76106d8565b6102b06102d4366004611b24565b6106e3565b3480156102e4575f80fd5b505f546103049073ffffffffffffffffffffffffffffffffffffffff1681565b60405173ffffffffffffffffffffffffffffffffffffffff90911681526020016101f1565b348015610334575f80fd5b506101e7610702565b348015610348575f80fd5b506101e7610357366004611ac7565b73ffffffffffffffffffffffffffffffffffffffff165f9081526009602052604090205490565b348015610389575f80fd5b506102b0610730565b34801561039d575f80fd5b506101e760025481565b3480156103b2575f80fd5b50603c546103049073ffffffffffffffffffffffffffffffffffffffff1681565b3480156103de575f80fd5b506101e7610743565b3480156103f2575f80fd5b506102b0610401366004611c25565b610756565b348015610411575f80fd5b506101e7610420366004611ac7565b73ffffffffffffffffffffffffffffffffffffffff165f9081526009602052604090206002015490565b348015610455575f80fd5b507f9016d09d72d40fdae2fd8ceac6b6234c7706214fd39c1cd1e609a0528c1993005473ffffffffffffffffffffffffffffffffffffffff16610304565b34801561049e575f80fd5b506104db6040518060400160405280600581526020017f352e302e3000000000000000000000000000000000000000000000000000000081525081565b6040516101f19190611c4d565b3480156104f3575f80fd5b506102b0610502366004611c25565b61085d565b348015610512575f80fd5b506101e760085481565b348015610527575f80fd5b506102b0610536366004611ae0565b6108ae565b348015610546575f80fd5b506101e76108bf565b34801561055a575f80fd5b506101e760045481565b34801561056f575f80fd5b506101e760065481565b348015610584575f80fd5b506102b0610593366004611ac7565b610908565b3480156105a3575f80fd5b506102b06105b2366004611c25565b61096d565b3480156105c2575f80fd5b506001546103049073ffffffffffffffffffffffffffffffffffffffff1681565b3480156105ee575f80fd5b506102b06105fd366004611ca0565b6109be565b73ffffffffffffffffffffffffffffffffffffffff81165f908152600960205260408120805460018201546002830154848161063c6108bf565b0390506106528482670de0b6b3a7640000610b80565b61065c9084611d1e565b979650505050505050565b5f61067f600254600754670de0b6b3a7640000610b80565b905090565b603c5473ffffffffffffffffffffffffffffffffffffffff1633146106cc576106cc7f73fcd3fe00000000000000000000000000000000000000000000000000000000610c31565b6106d581610c39565b50565b5f61067f3333610ce8565b6106eb610d8f565b6106f482610e93565b6106fe8282610e9b565b5050565b5f61070b610fd9565b507f360894a13ba1a3210667c828492db98dca3e2076cc3735a920a3ca505d382bbc90565b610738611048565b6107415f6110d6565b565b5f61067f42600654808218908211021890565b61075e611048565b60015473ffffffffffffffffffffffffffffffffffffffff908116908316036107aa576107aa7fe4ea100b00000000000000000000000000000000000000000000000000000000610c31565b6108096107eb7f9016d09d72d40fdae2fd8ceac6b6234c7706214fd39c1cd1e609a0528c1993005473ffffffffffffffffffffffffffffffffffffffff1690565b73ffffffffffffffffffffffffffffffffffffffff8416908361116b565b6040805173ffffffffffffffffffffffffffffffffffffffff84168152602081018390527f8c1256b8896378cd5044f80c202f9772b9d77dc85c8a6eb51967210b09bfaa2891015b60405180910390a15050565b5f5473ffffffffffffffffffffffffffffffffffffffff1633146108a4576108a47f53f0a59600000000000000000000000000000000000000000000000000000000610c31565b6106fe82826111f8565b6108b6611048565b6106d5816112ec565b6005545f908082036108d357505060045490565b5f6008546108df610743565b0390505f6108f06002548385610b80565b9050806004546109009190611d1e565b935050505090565b610910611048565b73ffffffffffffffffffffffffffffffffffffffff8116610964576040517f1e4fbdf70000000000000000000000000000000000000000000000000000000081525f60048201526024015b60405180910390fd5b6106d5816110d6565b5f5473ffffffffffffffffffffffffffffffffffffffff1633146109b4576109b47f53f0a59600000000000000000000000000000000000000000000000000000000610c31565b6106fe8282611357565b5f6109c7611470565b805490915060ff68010000000000000000820416159067ffffffffffffffff165f811580156109f35750825b90505f8267ffffffffffffffff166001148015610a0f5750303b155b905081158015610a1d575080155b15610a54576040517ff92ee8a900000000000000000000000000000000000000000000000000000000815260040160405180910390fd5b84547fffffffffffffffffffffffffffffffffffffffffffffffff00000000000000001660011785558315610ab55784547fffffffffffffffffffffffffffffffffffffffffffffff00ffffffffffffffff16680100000000000000001785555b610abe8761149a565b610acc898762093a806114ab565b610ad461150c565b603c80547fffffffffffffffffffffffff00000000000000000000000000000000000000001673ffffffffffffffffffffffffffffffffffffffff8a161790558315610b755784547fffffffffffffffffffffffffffffffffffffffffffffff00ffffffffffffffff168555604051600181527fc7f505b2f371ae2175ee4913f4499e1f2633a7b5936321eed1cdaeb6115181d29060200160405180910390a15b505050505050505050565b82820281838583041485151702610c26577fffffffffffffffffffffffffffffffffffffffffffffffffffffffffffffffff8385098181108201900382848609835f038416828511610bd95763ae47f7025f526004601cfd5b93849004938382119092035f839003839004600101029203041760026003830281188084028203028084028203028084028203028084028203028084028203028084029091030202610c2a565b8190045b9392505050565b805f5260045ffd5b5f610c4381611514565b610c55670de0b6b3a764000083611d31565b91506005545f14158015610c6a575060065442105b15610c8457610c77611587565b610c819083611d1e565b91505b8160035f828254610c959190611d1e565b90915550610ca390506115a4565b60055415610cb857610cb3611679565b426008555b6040518281527fde88a922e0d3b88b24e9623efeb464919c6bf9f66857a65e2bfcf2ce87a9433d90602001610851565b5f82610cf381611514565b73ffffffffffffffffffffffffffffffffffffffff84165f90815260096020526040902060018101548015610d86575f6001830155610d3285826116c3565b6040805173ffffffffffffffffffffffffffffffffffffffff8781168252602082018490528816917f540798df468d7b23d11f156fdb954cb19ad414d150722a7b6d55ba369dea792e910160405180910390a25b95945050505050565b3073ffffffffffffffffffffffffffffffffffffffff7f0000000000000000000000000000000000000000000000000000000000000000161480610e5c57507f000000000000000000000000000000000000000000000000000000000000000073ffffffffffffffffffffffffffffffffffffffff16610e437f360894a13ba1a3210667c828492db98dca3e2076cc3735a920a3ca505d382bbc5473ffffffffffffffffffffffffffffffffffffffff1690565b73ffffffffffffffffffffffffffffffffffffffff1614155b15610741576040517fe07c8dba00000000000000000000000000000000000000000000000000000000815260040160405180910390fd5b6106d5611048565b8173ffffffffffffffffffffffffffffffffffffffff166352d1902d6040518163ffffffff1660e01b8152600401602060405180830381865afa925050508015610f20575060408051601f3d9081017fffffffffffffffffffffffffffffffffffffffffffffffffffffffffffffffe0168201909252610f1d91810190611d48565b60015b610f6e576040517f4c9c8ce300000000000000000000000000000000000000000000000000000000815273ffffffffffffffffffffffffffffffffffffffff8316600482015260240161095b565b7f360894a13ba1a3210667c828492db98dca3e2076cc3735a920a3ca505d382bbc8114610fca576040517faa1d49a40000000000000000000000000000000000000000000000000000000081526004810182905260240161095b565b610fd483836116e7565b505050565b3073ffffffffffffffffffffffffffffffffffffffff7f00000000000000000000000000000000000000000000000000000000000000001614610741576040517fe07c8dba00000000000000000000000000000000000000000000000000000000815260040160405180910390fd5b336110877f9016d09d72d40fdae2fd8ceac6b6234c7706214fd39c1cd1e609a0528c1993005473ffffffffffffffffffffffffffffffffffffffff1690565b73ffffffffffffffffffffffffffffffffffffffff1614610741576040517f118cdaa700000000000000000000000000000000000000000000000000000000815233600482015260240161095b565b7f9016d09d72d40fdae2fd8ceac6b6234c7706214fd39c1cd1e609a0528c19930080547fffffffffffffffffffffffff0000000000000000000000000000000000000000811673ffffffffffffffffffffffffffffffffffffffff848116918217845560405192169182907f8be0079c531659141344cd1fd0a4f28419497f9722a3daafe3b4186f6b6457e0905f90a3505050565b6040805173ffffffffffffffffffffffffffffffffffffffff8416602482015260448082018490528251808303909101815260649091019091526020810180517bffffffffffffffffffffffffffffffffffffffffffffffffffffffff167fa9059cbb00000000000000000000000000000000000000000000000000000000179052610fd4908490611749565b805f03611228576112287f5ce91fd000000000000000000000000000000000000000000000000000000000610c31565b60055415801561123957505f600354115b1561124657611246611679565b61124f82611514565b600554818101818111611285576112857fe5cfe95700000000000000000000000000000000000000000000000000000000610c31565b6005555073ffffffffffffffffffffffffffffffffffffffff82165f8181526009602090815260409182902080548501905590518381527f9e71bc8eea02a63969f509818f2dafb9254532904319f9dbda79b67bd34a5f3d91015b60405180910390a25050565b805f0361131c5761131c7f359f174d00000000000000000000000000000000000000000000000000000000610c31565b60078190556040518181527ffb46ca5a5e06d4540d6387b930a7c978bce0db5f449ec6b3f5d07c6e1d44f2d39060200160405180910390a150565b805f03611387576113877fa393d14b00000000000000000000000000000000000000000000000000000000610c31565b61139082611514565b73ffffffffffffffffffffffffffffffffffffffff82165f9081526009602052604090208054828110156113e7576113e77ff1bc94d200000000000000000000000000000000000000000000000000000000610c31565b82900390556005805482810390915581148015611405575060065442105b1561142857611412611587565b60035f8282546114229190611d1e565b90915550505b8173ffffffffffffffffffffffffffffffffffffffff167f7084f5476618d8e60b11ef0d7d3f06914655adb8793e28ff7f018d4c76d505d5826040516112e091815260200190565b5f807ff0c57e16840df040f15088dc2f81fe391c3923bec73e23a9662efc9c229c6a005b92915050565b6114a26117ee565b6106d58161182c565b6114b36117ee565b5f805473ffffffffffffffffffffffffffffffffffffffff9485167fffffffffffffffffffffffff0000000000000000000000000000000000000000918216179091556001805493909416921691909117909155600755565b6107416117ee565b5f61151d6108bf565b6004819055905061152c610743565b60085573ffffffffffffffffffffffffffffffffffffffff8216156106fe5773ffffffffffffffffffffffffffffffffffffffff82165f90815260096020526040902061157883610602565b60028201929092556001015550565b5f80426006540390508060025461159e9190611d31565b91505090565b6001546040517f70a0823100000000000000000000000000000000000000000000000000000000815230600482015273ffffffffffffffffffffffffffffffffffffffff909116906370a0823190602401602060405180830381865afa158015611610573d5f803e3d5ffd5b505050506040513d601f19601f820116820180604052508101906116349190611d48565b670de0b6b3a764000060035461164a9190611d5f565b1115610741576107417ff4ba521f00000000000000000000000000000000000000000000000000000000610c31565b6007546003545f9061168c908390611d5f565b6002819055905061169d8242611d1e565b6006556116aa8282611d31565b60035f8282546116ba9190611d97565b90915550505050565b6001546106fe9073ffffffffffffffffffffffffffffffffffffffff16838361116b565b6116f082611834565b60405173ffffffffffffffffffffffffffffffffffffffff8316907fbc7cd75a20ee27fd9adebab32041f755214dbc6bffa90cc0225b39da2e5c2d3b905f90a280511561174157610fd48282611902565b6106fe611978565b5f8060205f8451602086015f885af180611768576040513d5f823e3d81fd5b50505f513d9150811561177f578060011415611799565b73ffffffffffffffffffffffffffffffffffffffff84163b155b156117e8576040517f5274afe700000000000000000000000000000000000000000000000000000000815273ffffffffffffffffffffffffffffffffffffffff8516600482015260240161095b565b50505050565b6117f66119b0565b610741576040517fd7e6bcf800000000000000000000000000000000000000000000000000000000815260040160405180910390fd5b6109106117ee565b8073ffffffffffffffffffffffffffffffffffffffff163b5f0361189c576040517f4c9c8ce300000000000000000000000000000000000000000000000000000000815273ffffffffffffffffffffffffffffffffffffffff8216600482015260240161095b565b7f360894a13ba1a3210667c828492db98dca3e2076cc3735a920a3ca505d382bbc80547fffffffffffffffffffffffff00000000000000000000000000000000000000001673ffffffffffffffffffffffffffffffffffffffff92909216919091179055565b60605f808473ffffffffffffffffffffffffffffffffffffffff168460405161192b9190611daa565b5f60405180830381855af49150503d805f8114611963576040519150601f19603f3d011682016040523d82523d5f602084013e611968565b606091505b5091509150610d868583836119ce565b3415610741576040517fb398979f00000000000000000000000000000000000000000000000000000000815260040160405180910390fd5b5f6119b9611470565b5468010000000000000000900460ff16919050565b6060826119e3576119de82611a5d565b610c2a565b8151158015611a07575073ffffffffffffffffffffffffffffffffffffffff84163b155b15611a56576040517f9996b31500000000000000000000000000000000000000000000000000000000815273ffffffffffffffffffffffffffffffffffffffff8516600482015260240161095b565b5080610c2a565b805115611a6d5780518082602001fd5b6040517fd6bda27500000000000000000000000000000000000000000000000000000000815260040160405180910390fd5b803573ffffffffffffffffffffffffffffffffffffffff81168114611ac2575f80fd5b919050565b5f60208284031215611ad7575f80fd5b610c2a82611a9f565b5f60208284031215611af0575f80fd5b5035919050565b7f4e487b71000000000000000000000000000000000000000000000000000000005f52604160045260245ffd5b5f8060408385031215611b35575f80fd5b611b3e83611a9f565b9150602083013567ffffffffffffffff811115611b59575f80fd5b8301601f81018513611b69575f80fd5b803567ffffffffffffffff811115611b8357611b83611af7565b6040517fffffffffffffffffffffffffffffffffffffffffffffffffffffffffffffffe0603f7fffffffffffffffffffffffffffffffffffffffffffffffffffffffffffffffe0601f8501160116810181811067ffffffffffffffff82111715611bef57611bef611af7565b604052818152828201602001871015611c06575f80fd5b816020840160208301375f602083830101528093505050509250929050565b5f8060408385031215611c36575f80fd5b611c3f83611a9f565b946020939093013593505050565b602081525f82518060208401528060208501604085015e5f6040828501015260407fffffffffffffffffffffffffffffffffffffffffffffffffffffffffffffffe0601f83011684010191505092915050565b5f805f8060808587031215611cb3575f80fd5b611cbc85611a9f565b9350611cca60208601611a9f565b9250611cd860408601611a9f565b9150611ce660608601611a9f565b905092959194509250565b7f4e487b71000000000000000000000000000000000000000000000000000000005f52601160045260245ffd5b8082018082111561149457611494611cf1565b808202811582820484141761149457611494611cf1565b5f60208284031215611d58575f80fd5b5051919050565b5f82611d92577f4e487b71000000000000000000000000000000000000000000000000000000005f52601260045260245ffd5b500490565b8181038181111561149457611494611cf1565b5f82518060208501845e5f92019182525091905056fea164736f6c634300081a000a60a060405230608052348015610013575f80fd5b5061001c610021565b6100d3565b7ff0c57e16840df040f15088dc2f81fe391c3923bec73e23a9662efc9c229c6a00805468010000000000000000900460ff16156100715760405163f92ee8a960e01b815260040160405180910390fd5b80546001600160401b03908116146100d05780546001600160401b0319166001600160401b0390811782556040519081527fc7f505b2f371ae2175ee4913f4499e1f2633a7b5936321eed1cdaeb6115181d29060200160405180910390a15b50565b608051611eda6100f95f395f81816111650152818161118e01526113b30152611eda5ff3fe608060405260043610610178575f3560e01c80636b46c8c3116100d1578063cf756fdf1161007c578063e63ab1e911610057578063e63ab1e9146104ca578063ec87621c146104fd578063f14faf6f14610530575f80fd5b8063cf756fdf14610477578063cfcfba3514610496578063d547741f146104ab575f80fd5b8063a217fddf116100ac578063a217fddf146103f0578063a81d2f4714610403578063ad3cb1cc14610422575f80fd5b80636b46c8c3146103575780638456cb591461036c57806391d1485414610380575f80fd5b80633f4ba83a116101315780634f1ef2861161010c5780634f1ef286146102fa57806352d1902d1461030d5780635c975abb14610321575f80fd5b80633f4ba83a1461029c57806346bc1e7b146102b05780634efa82b6146102cf575f80fd5b8063248a9ca311610161578063248a9ca3146102015780632f2ff15d1461025c57806336568abe1461027d575f80fd5b806301ffc9a71461017c5780631dac30b0146101b0575b5f80fd5b348015610187575f80fd5b5061019b610196366004611b68565b61054f565b60405190151581526020015b60405180910390f35b3480156101bb575f80fd5b506003546101dc9073ffffffffffffffffffffffffffffffffffffffff1681565b60405173ffffffffffffffffffffffffffffffffffffffff90911681526020016101a7565b34801561020c575f80fd5b5061024e61021b366004611ba7565b5f9081527f02dd7bc7dec4dceedda775e58dd541e08a116c6c53815c0bd028192f7b626800602052604090206001015490565b6040519081526020016101a7565b348015610267575f80fd5b5061027b610276366004611be6565b6105e7565b005b348015610288575f80fd5b5061027b610297366004611be6565b610630565b3480156102a7575f80fd5b5061027b61068e565b3480156102bb575f80fd5b5061027b6102ca366004611ba7565b6106c3565b3480156102da575f80fd5b505f546101dc9073ffffffffffffffffffffffffffffffffffffffff1681565b61027b610308366004611c3d565b610740565b348015610318575f80fd5b5061024e61075f565b34801561032c575f80fd5b507fcd5ed15c6e187e77e9aee88184c21f4f2182ab5827cb3b7e07fbedcd63f033005460ff1661019b565b348015610362575f80fd5b5061024e60025481565b348015610377575f80fd5b5061027b61078d565b34801561038b575f80fd5b5061019b61039a366004611be6565b5f9182527f02dd7bc7dec4dceedda775e58dd541e08a116c6c53815c0bd028192f7b6268006020908152604080842073ffffffffffffffffffffffffffffffffffffffff93909316845291905290205460ff1690565b3480156103fb575f80fd5b5061024e5f81565b34801561040e575f80fd5b5061027b61041d366004611d3e565b6107bf565b34801561042d575f80fd5b5061046a6040518060400160405280600581526020017f352e302e3000000000000000000000000000000000000000000000000000000081525081565b6040516101a79190611dbf565b348015610482575f80fd5b5061027b610491366004611e12565b610a40565b3480156104a1575f80fd5b5061024e60015481565b3480156104b6575f80fd5b5061027b6104c5366004611be6565b610d44565b3480156104d5575f80fd5b5061024e7f65d7a28e3265b37a6474929f336521b332c1681b933f6cb9f3376673440d862a81565b348015610508575f80fd5b5061024e7f241ecf16d79d0f8dbfb92cbc07fe17840425976cf0667f022fe9877caa831b0881565b34801561053b575f80fd5b5061027b61054a366004611ba7565b610d87565b5f7fffffffff0000000000000000000000000000000000000000000000000000000082167f7965db0b0000000000000000000000000000000000000000000000000000000014806105e157507f01ffc9a7000000000000000000000000000000000000000000000000000000007fffffffff000000000000000000000000000000000000000000000000000000008316145b92915050565b5f8281527f02dd7bc7dec4dceedda775e58dd541e08a116c6c53815c0bd028192f7b626800602052604090206001015461062081610ea4565b61062a8383610eae565b50505050565b73ffffffffffffffffffffffffffffffffffffffff8116331461067f576040517f6697b23200000000000000000000000000000000000000000000000000000000815260040160405180910390fd5b6106898282610fcc565b505050565b7f241ecf16d79d0f8dbfb92cbc07fe17840425976cf0667f022fe9877caa831b086106b881610ea4565b6106c06110a8565b50565b5f6106cd81610ea4565b815f036106fd576106fd7f546c760000000000000000000000000000000000000000000000000000000000611145565b6002546040805184815260208101929092527fb7310b0cb903ba6be464fcba1f3c608fd3c6e417f0bf397fe8a38ac43e22bdcc910160405180910390a150600155565b61074861114d565b61075182611253565b61075b828261125d565b5050565b5f61076861139b565b507f360894a13ba1a3210667c828492db98dca3e2076cc3735a920a3ca505d382bbc90565b7f65d7a28e3265b37a6474929f336521b332c1681b933f6cb9f3376673440d862a6107b781610ea4565b6106c061140a565b6107c7611483565b6003546002545f546107f79273ffffffffffffffffffffffffffffffffffffffff918216923392909116906114df565b6003546002546040517f3c6b16ab00000000000000000000000000000000000000000000000000000000815273ffffffffffffffffffffffffffffffffffffffff90921691633c6b16ab916108529160040190815260200190565b5f604051808303815f87803b158015610869575f80fd5b505af115801561087b573d5f803e3d5ffd5b505050505f5b818110156109ed575f83838381811061089c5761089c611e5a565b90506020020160208101906108b19190611e87565b6040517f70a082310000000000000000000000000000000000000000000000000000000081523060048201529091505f9073ffffffffffffffffffffffffffffffffffffffff8316906370a0823190602401602060405180830381865afa15801561091e573d5f803e3d5ffd5b505050506040513d601f19601f820116820180604052508101906109429190611ea0565b905061096573ffffffffffffffffffffffffffffffffffffffff83168783611568565b8173ffffffffffffffffffffffffffffffffffffffff168673ffffffffffffffffffffffffffffffffffffffff163373ffffffffffffffffffffffffffffffffffffffff167f34579ce58c22de68fe7e545753ced212a5b682a2e81614171dbf2039de2454d8846040516109db91815260200190565b60405180910390a45050600101610881565b5060405173ffffffffffffffffffffffffffffffffffffffff84169033907fc6650a50e06482f404489255d667b1516ad09a67e97cf0a35b67ee1ab89090c8905f90a360015415610689576106896115a6565b5f610a496115e0565b805490915060ff68010000000000000000820416159067ffffffffffffffff165f81158015610a755750825b90505f8267ffffffffffffffff166001148015610a915750303b155b905081158015610a9f575080155b15610ad6576040517ff92ee8a900000000000000000000000000000000000000000000000000000000815260040160405180910390fd5b84547fffffffffffffffffffffffffffffffffffffffffffffffff00000000000000001660011785558315610b375784547fffffffffffffffffffffffffffffffffffffffffffffff00ffffffffffffffff16680100000000000000001785555b610b3f611608565b610b47611608565b610b4f611608565b73ffffffffffffffffffffffffffffffffffffffff89161580610b86575073ffffffffffffffffffffffffffffffffffffffff8816155b80610ba5575073ffffffffffffffffffffffffffffffffffffffff8716155b15610bd357610bd37fd92e233d00000000000000000000000000000000000000000000000000000000611145565b855f03610c0357610c037f546c760000000000000000000000000000000000000000000000000000000000611145565b610c0d5f8a610eae565b50610c587f65d7a28e3265b37a6474929f336521b332c1681b933f6cb9f3376673440d862a7f241ecf16d79d0f8dbfb92cbc07fe17840425976cf0667f022fe9877caa831b08611610565b5f805473ffffffffffffffffffffffffffffffffffffffff808b167fffffffffffffffffffffffff0000000000000000000000000000000000000000928316178355600289905560038054918b16919092161790556040518791907f8f6c5c01f9385e42ed275713f18de607d67ea7f6673e431418c8b286057a2207908290a38315610d395784547fffffffffffffffffffffffffffffffffffffffffffffff00ffffffffffffffff168555604051600181527fc7f505b2f371ae2175ee4913f4499e1f2633a7b5936321eed1cdaeb6115181d29060200160405180910390a15b505050505050505050565b5f8281527f02dd7bc7dec4dceedda775e58dd541e08a116c6c53815c0bd028192f7b6268006020526040902060010154610d7d81610ea4565b61062a8383610fcc565b610d8f611483565b600254811015610dc257610dc27f89c622a200000000000000000000000000000000000000000000000000000000611145565b6003545f54610ded9173ffffffffffffffffffffffffffffffffffffffff91821691339116846114df565b6003546040517f3c6b16ab0000000000000000000000000000000000000000000000000000000081526004810183905273ffffffffffffffffffffffffffffffffffffffff90911690633c6b16ab906024015f604051808303815f87803b158015610e56575f80fd5b505af1158015610e68573d5f803e3d5ffd5b50506040518381523392507fb494dfeb425281cb224388982470e0463ec89ffe75765370acfb5e6019296ec7915060200160405180910390a250565b6106c081336116b1565b5f8281527f02dd7bc7dec4dceedda775e58dd541e08a116c6c53815c0bd028192f7b6268006020818152604080842073ffffffffffffffffffffffffffffffffffffffff8616855290915282205460ff16610fc3575f8481526020828152604080832073ffffffffffffffffffffffffffffffffffffffff87168452909152902080547fffffffffffffffffffffffffffffffffffffffffffffffffffffffffffffff00166001179055610f5f3390565b73ffffffffffffffffffffffffffffffffffffffff168373ffffffffffffffffffffffffffffffffffffffff16857f2f8788117e7eff1d82e926ec794901d17c78024a50270940304540a733656f0d60405160405180910390a460019150506105e1565b5f9150506105e1565b5f8281527f02dd7bc7dec4dceedda775e58dd541e08a116c6c53815c0bd028192f7b6268006020818152604080842073ffffffffffffffffffffffffffffffffffffffff8616855290915282205460ff1615610fc3575f8481526020828152604080832073ffffffffffffffffffffffffffffffffffffffff8716808552925280832080547fffffffffffffffffffffffffffffffffffffffffffffffffffffffffffffff0016905551339287917ff6391f5c32d9c69d2a47ea670b442974b53935d1edc7fd64eb21e047a839171b9190a460019150506105e1565b6110b0611757565b7fcd5ed15c6e187e77e9aee88184c21f4f2182ab5827cb3b7e07fbedcd63f0330080547fffffffffffffffffffffffffffffffffffffffffffffffffffffffffffffff001681557f5db9ee0a495bf2e6ff9c91a7834c1ba4fdd244a5e8aa4e537bd38aeae4b073aa335b60405173ffffffffffffffffffffffffffffffffffffffff909116815260200160405180910390a150565b805f5260045ffd5b3073ffffffffffffffffffffffffffffffffffffffff7f000000000000000000000000000000000000000000000000000000000000000016148061121a57507f000000000000000000000000000000000000000000000000000000000000000073ffffffffffffffffffffffffffffffffffffffff166112017f360894a13ba1a3210667c828492db98dca3e2076cc3735a920a3ca505d382bbc5473ffffffffffffffffffffffffffffffffffffffff1690565b73ffffffffffffffffffffffffffffffffffffffff1614155b15611251576040517fe07c8dba00000000000000000000000000000000000000000000000000000000815260040160405180910390fd5b565b5f61075b81610ea4565b8173ffffffffffffffffffffffffffffffffffffffff166352d1902d6040518163ffffffff1660e01b8152600401602060405180830381865afa9250505080156112e2575060408051601f3d9081017fffffffffffffffffffffffffffffffffffffffffffffffffffffffffffffffe01682019092526112df91810190611ea0565b60015b611335576040517f4c9c8ce300000000000000000000000000000000000000000000000000000000815273ffffffffffffffffffffffffffffffffffffffff831660048201526024015b60405180910390fd5b7f360894a13ba1a3210667c828492db98dca3e2076cc3735a920a3ca505d382bbc8114611391576040517faa1d49a40000000000000000000000000000000000000000000000000000000081526004810182905260240161132c565b61068983836117b2565b3073ffffffffffffffffffffffffffffffffffffffff7f00000000000000000000000000000000000000000000000000000000000000001614611251576040517fe07c8dba00000000000000000000000000000000000000000000000000000000815260040160405180910390fd5b611412611483565b7fcd5ed15c6e187e77e9aee88184c21f4f2182ab5827cb3b7e07fbedcd63f0330080547fffffffffffffffffffffffffffffffffffffffffffffffffffffffffffffff001660011781557f62e78cea01bee320cd4e420270b5ea74000d11b0c9f74754ebdbfc544b05a2583361111a565b7fcd5ed15c6e187e77e9aee88184c21f4f2182ab5827cb3b7e07fbedcd63f033005460ff1615611251576040517fd93c066500000000000000000000000000000000000000000000000000000000815260040160405180910390fd5b60405173ffffffffffffffffffffffffffffffffffffffff848116602483015283811660448301526064820183905261062a9186918216906323b872dd906084015b604051602081830303815290604052915060e01b6020820180517bffffffffffffffffffffffffffffffffffffffffffffffffffffffff8381831617835250505050611814565b60405173ffffffffffffffffffffffffffffffffffffffff83811660248301526044820183905261068991859182169063a9059cbb90606401611521565b6001546002546040517f8f6c5c01f9385e42ed275713f18de607d67ea7f6673e431418c8b286057a2207905f90a3600180546002555f9055565b5f807ff0c57e16840df040f15088dc2f81fe391c3923bec73e23a9662efc9c229c6a006105e1565b6112516118b3565b7f02dd7bc7dec4dceedda775e58dd541e08a116c6c53815c0bd028192f7b6268005f611669845f9081527f02dd7bc7dec4dceedda775e58dd541e08a116c6c53815c0bd028192f7b626800602052604090206001015490565b5f85815260208490526040808220600101869055519192508491839187917fbd79b86ffe0ab8e8776151514217cd7cacd52c909f66475c3af44e129f0b00ff9190a450505050565b5f8281527f02dd7bc7dec4dceedda775e58dd541e08a116c6c53815c0bd028192f7b6268006020908152604080832073ffffffffffffffffffffffffffffffffffffffff8516845290915290205460ff1661075b576040517fe2517d3f00000000000000000000000000000000000000000000000000000000815273ffffffffffffffffffffffffffffffffffffffff821660048201526024810183905260440161132c565b7fcd5ed15c6e187e77e9aee88184c21f4f2182ab5827cb3b7e07fbedcd63f033005460ff16611251576040517f8dfc202b00000000000000000000000000000000000000000000000000000000815260040160405180910390fd5b6117bb826118f1565b60405173ffffffffffffffffffffffffffffffffffffffff8316907fbc7cd75a20ee27fd9adebab32041f755214dbc6bffa90cc0225b39da2e5c2d3b905f90a280511561180c5761068982826119bf565b61075b611a3e565b5f8060205f8451602086015f885af180611833576040513d5f823e3d81fd5b50505f513d9150811561184a578060011415611864565b73ffffffffffffffffffffffffffffffffffffffff84163b155b1561062a576040517f5274afe700000000000000000000000000000000000000000000000000000000815273ffffffffffffffffffffffffffffffffffffffff8516600482015260240161132c565b6118bb611a76565b611251576040517fd7e6bcf800000000000000000000000000000000000000000000000000000000815260040160405180910390fd5b8073ffffffffffffffffffffffffffffffffffffffff163b5f03611959576040517f4c9c8ce300000000000000000000000000000000000000000000000000000000815273ffffffffffffffffffffffffffffffffffffffff8216600482015260240161132c565b7f360894a13ba1a3210667c828492db98dca3e2076cc3735a920a3ca505d382bbc80547fffffffffffffffffffffffff00000000000000000000000000000000000000001673ffffffffffffffffffffffffffffffffffffffff92909216919091179055565b60605f808473ffffffffffffffffffffffffffffffffffffffff16846040516119e89190611eb7565b5f60405180830381855af49150503d805f8114611a20576040519150601f19603f3d011682016040523d82523d5f602084013e611a25565b606091505b5091509150611a35858383611a94565b95945050505050565b3415611251576040517fb398979f00000000000000000000000000000000000000000000000000000000815260040160405180910390fd5b5f611a7f6115e0565b5468010000000000000000900460ff16919050565b606082611aa957611aa482611b26565b611b1f565b8151158015611acd575073ffffffffffffffffffffffffffffffffffffffff84163b155b15611b1c576040517f9996b31500000000000000000000000000000000000000000000000000000000815273ffffffffffffffffffffffffffffffffffffffff8516600482015260240161132c565b50805b9392505050565b805115611b365780518082602001fd5b6040517fd6bda27500000000000000000000000000000000000000000000000000000000815260040160405180910390fd5b5f60208284031215611b78575f80fd5b81357fffffffff0000000000000000000000000000000000000000000000000000000081168114611b1f575f80fd5b5f60208284031215611bb7575f80fd5b5035919050565b803573ffffffffffffffffffffffffffffffffffffffff81168114611be1575f80fd5b919050565b5f8060408385031215611bf7575f80fd5b82359150611c0760208401611bbe565b90509250929050565b7f4e487b71000000000000000000000000000000000000000000000000000000005f52604160045260245ffd5b5f8060408385031215611c4e575f80fd5b611c5783611bbe565b9150602083013567ffffffffffffffff811115611c72575f80fd5b8301601f81018513611c82575f80fd5b803567ffffffffffffffff811115611c9c57611c9c611c10565b6040517fffffffffffffffffffffffffffffffffffffffffffffffffffffffffffffffe0603f7fffffffffffffffffffffffffffffffffffffffffffffffffffffffffffffffe0601f8501160116810181811067ffffffffffffffff82111715611d0857611d08611c10565b604052818152828201602001871015611d1f575f80fd5b816020840160208301375f602083830101528093505050509250929050565b5f805f60408486031215611d50575f80fd5b611d5984611bbe565b9250602084013567ffffffffffffffff811115611d74575f80fd5b8401601f81018613611d84575f80fd5b803567ffffffffffffffff811115611d9a575f80fd5b8660208260051b8401011115611dae575f80fd5b939660209190910195509293505050565b602081525f82518060208401528060208501604085015e5f6040828501015260407fffffffffffffffffffffffffffffffffffffffffffffffffffffffffffffffe0601f83011684010191505092915050565b5f805f8060808587031215611e25575f80fd5b611e2e85611bbe565b9350611e3c60208601611bbe565b9250611e4a60408601611bbe565b9396929550929360600135925050565b7f4e487b71000000000000000000000000000000000000000000000000000000005f52603260045260245ffd5b5f60208284031215611e97575f80fd5b611b1f82611bbe565b5f60208284031215611eb0575f80fd5b5051919050565b5f82518060208501845e5f92019182525091905056fea164736f6c634300081a000a60806040526040516103b43803806103b48339810160408190526100229161023c565b61002c8282610033565b5050610321565b61003c82610091565b6040516001600160a01b038316907fbc7cd75a20ee27fd9adebab32041f755214dbc6bffa90cc0225b39da2e5c2d3b905f90a280511561008557610080828261010c565b505050565b61008d61017f565b5050565b806001600160a01b03163b5f036100cb57604051634c9c8ce360e01b81526001600160a01b03821660048201526024015b60405180910390fd5b7f360894a13ba1a3210667c828492db98dca3e2076cc3735a920a3ca505d382bbc80546001600160a01b0319166001600160a01b0392909216919091179055565b60605f80846001600160a01b031684604051610128919061030b565b5f60405180830381855af49150503d805f8114610160576040519150601f19603f3d011682016040523d82523d5f602084013e610165565b606091505b5090925090506101768583836101a0565b95945050505050565b341561019e5760405163b398979f60e01b815260040160405180910390fd5b565b6060826101b5576101b0826101ff565b6101f8565b81511580156101cc57506001600160a01b0384163b155b156101f557604051639996b31560e01b81526001600160a01b03851660048201526024016100c2565b50805b9392505050565b80511561020f5780518082602001fd5b60405163d6bda27560e01b815260040160405180910390fd5b634e487b7160e01b5f52604160045260245ffd5b5f806040838503121561024d575f80fd5b82516001600160a01b0381168114610263575f80fd5b60208401519092506001600160401b0381111561027e575f80fd5b8301601f8101851361028e575f80fd5b80516001600160401b038111156102a7576102a7610228565b604051601f8201601f19908116603f011681016001600160401b03811182821017156102d5576102d5610228565b6040528181528282016020018710156102ec575f80fd5b8160208401602083015e5f602083830101528093505050509250929050565b5f82518060208501845e5f920191825250919050565b60878061032d5f395ff3fe6080604052600a600c565b005b60186014601a565b605d565b565b5f60587f360894a13ba1a3210667c828492db98dca3e2076cc3735a920a3ca505d382bbc5473ffffffffffffffffffffffffffffffffffffffff1690565b905090565b365f80375f80365f845af43d5f803e8080156076573d5ff35b3d5ffdfea164736f6c634300081a000a","linkReferences":{}},"methodIdentifiers":{"_CREATE2_FACTORY()":"ecef2533","bgtStaker()":"74c4635e","feeCollector()":"c415b95c"},"storageLayout":{"storage":[],"types":{}},"id":132}