{"abi":[{"type":"function","name":"CLOCK_MODE","inputs":[],"outputs":[{"name":"","type":"string","internalType":"string"}],"stateMutability":"view"},{"type":"function","name":"activateBoost","inputs":[{"name":"user","type":"address","internalType":"address"},{"name":"pubkey","type":"bytes","internalType":"bytes"}],"outputs":[{"name":"","type":"bool","internalType":"bool"}],"stateMutability":"nonpayable"},{"type":"function","name":"activateBoostDelay","inputs":[],"outputs":[{"name":"","type":"uint32","internalType":"uint32"}],"stateMutability":"view"},{"type":"function","name":"allowance","inputs":[{"name":"owner","type":"address","internalType":"address"},{"name":"spender","type":"address","internalType":"address"}],"outputs":[{"name":"","type":"uint256","internalType":"uint256"}],"stateMutability":"view"},{"type":"function","name":"approve","inputs":[{"name":"spender","type":"address","internalType":"address"},{"name":"amount","type":"uint256","internalType":"uint256"}],"outputs":[{"name":"","type":"bool","internalType":"bool"}],"stateMutability":"nonpayable"},{"type":"function","name":"balanceOf","inputs":[{"name":"account","type":"address","internalType":"address"}],"outputs":[{"name":"","type":"uint256","internalType":"uint256"}],"stateMutability":"view"},{"type":"function","name":"bgtTermsAndConditions","inputs":[],"outputs":[{"name":"","type":"string","internalType":"string"}],"stateMutability":"view"},{"type":"function","name":"boosted","inputs":[{"name":"account","type":"address","internalType":"address"},{"name":"pubkey","type":"bytes","internalType":"bytes"}],"outputs":[{"name":"","type":"uint128","internalType":"uint128"}],"stateMutability":"view"},{"type":"function","name":"boostedQueue","inputs":[{"name":"account","type":"address","internalType":"address"},{"name":"pubkey","type":"bytes","internalType":"bytes"}],"outputs":[{"name":"blockNumberLast","type":"uint32","internalType":"uint32"},{"name":"balance","type":"uint128","internalType":"uint128"}],"stateMutability":"view"},{"type":"function","name":"boostees","inputs":[{"name":"pubkey","type":"bytes","internalType":"bytes"}],"outputs":[{"name":"","type":"uint128","internalType":"uint128"}],"stateMutability":"view"},{"type":"function","name":"boosts","inputs":[{"name":"account","type":"address","internalType":"address"}],"outputs":[{"name":"","type":"uint128","internalType":"uint128"}],"stateMutability":"view"},{"type":"function","name":"burnExceedingReserves","inputs":[],"outputs":[],"stateMutability":"nonpayable"},{"type":"function","name":"cancelBoost","inputs":[{"name":"pubkey","type":"bytes","internalType":"bytes"},{"name":"amount","type":"uint128","internalType":"uint128"}],"outputs":[],"stateMutability":"nonpayable"},{"type":"function","name":"cancelDropBoost","inputs":[{"name":"pubkey","type":"bytes","internalType":"bytes"},{"name":"amount","type":"uint128","internalType":"uint128"}],"outputs":[],"stateMutability":"nonpayable"},{"type":"function","name":"checkpoints","inputs":[{"name":"account","type":"address","internalType":"address"},{"name":"pos","type":"uint32","internalType":"uint32"}],"outputs":[{"name":"","type":"tuple","internalType":"struct Checkpoints.Checkpoint208","components":[{"name":"_key","type":"uint48","internalType":"uint48"},{"name":"_value","type":"uint208","internalType":"uint208"}]}],"stateMutability":"view"},{"type":"function","name":"clock","inputs":[],"outputs":[{"name":"","type":"uint48","internalType":"uint48"}],"stateMutability":"view"},{"type":"function","name":"decimals","inputs":[],"outputs":[{"name":"","type":"uint8","internalType":"uint8"}],"stateMutability":"view"},{"type":"function","name":"delegate","inputs":[{"name":"delegatee","type":"address","internalType":"address"}],"outputs":[],"stateMutability":"nonpayable"},{"type":"function","name":"delegateBySig","inputs":[{"name":"delegatee","type":"address","internalType":"address"},{"name":"nonce","type":"uint256","internalType":"uint256"},{"name":"expiry","type":"uint256","internalType":"uint256"},{"name":"v","type":"uint8","internalType":"uint8"},{"name":"r","type":"bytes32","internalType":"bytes32"},{"name":"s","type":"bytes32","internalType":"bytes32"}],"outputs":[],"stateMutability":"nonpayable"},{"type":"function","name":"delegates","inputs":[{"name":"account","type":"address","internalType":"address"}],"outputs":[{"name":"","type":"address","internalType":"address"}],"stateMutability":"view"},{"type":"function","name":"dropBoost","inputs":[{"name":"user","type":"address","internalType":"address"},{"name":"pubkey","type":"bytes","internalType":"bytes"}],"outputs":[{"name":"","type":"bool","internalType":"bool"}],"stateMutability":"nonpayable"},{"type":"function","name":"dropBoostDelay","inputs":[],"outputs":[{"name":"","type":"uint32","internalType":"uint32"}],"stateMutability":"view"},{"type":"function","name":"dropBoostQueue","inputs":[{"name":"account","type":"address","internalType":"address"},{"name":"pubkey","type":"bytes","internalType":"bytes"}],"outputs":[{"name":"blockNumberLast","type":"uint32","internalType":"uint32"},{"name":"balance","type":"uint128","internalType":"uint128"}],"stateMutability":"view"},{"type":"function","name":"eip712Domain","inputs":[],"outputs":[{"name":"fields","type":"bytes1","internalType":"bytes1"},{"name":"name","type":"string","internalType":"string"},{"name":"version","type":"string","internalType":"string"},{"name":"chainId","type":"uint256","internalType":"uint256"},{"name":"verifyingContract","type":"address","internalType":"address"},{"name":"salt","type":"bytes32","internalType":"bytes32"},{"name":"extensions","type":"uint256[]","internalType":"uint256[]"}],"stateMutability":"view"},{"type":"function","name":"getPastTotalSupply","inputs":[{"name":"timepoint","type":"uint256","internalType":"uint256"}],"outputs":[{"name":"","type":"uint256","internalType":"uint256"}],"stateMutability":"view"},{"type":"function","name":"getPastVotes","inputs":[{"name":"account","type":"address","internalType":"address"},{"name":"timepoint","type":"uint256","internalType":"uint256"}],"outputs":[{"name":"","type":"uint256","internalType":"uint256"}],"stateMutability":"view"},{"type":"function","name":"getVotes","inputs":[{"name":"account","type":"address","internalType":"address"}],"outputs":[{"name":"","type":"uint256","internalType":"uint256"}],"stateMutability":"view"},{"type":"function","name":"initialize","inputs":[{"name":"_owner","type":"address","internalType":"address"}],"outputs":[],"stateMutability":"nonpayable"},{"type":"function","name":"isWhitelistedSender","inputs":[{"name":"sender","type":"address","internalType":"address"}],"outputs":[{"name":"","type":"bool","internalType":"bool"}],"stateMutability":"view"},{"type":"function","name":"mint","inputs":[{"name":"distributor","type":"address","internalType":"address"},{"name":"amount","type":"uint256","internalType":"uint256"}],"outputs":[],"stateMutability":"nonpayable"},{"type":"function","name":"minter","inputs":[],"outputs":[{"name":"","type":"address","internalType":"address"}],"stateMutability":"view"},{"type":"function","name":"multicall","inputs":[{"name":"data","type":"bytes[]","internalType":"bytes[]"}],"outputs":[{"name":"","type":"bytes[]","internalType":"bytes[]"}],"stateMutability":"payable"},{"type":"function","name":"name","inputs":[],"outputs":[{"name":"","type":"string","internalType":"string"}],"stateMutability":"pure"},{"type":"function","name":"nonces","inputs":[{"name":"owner","type":"address","internalType":"address"}],"outputs":[{"name":"","type":"uint256","internalType":"uint256"}],"stateMutability":"view"},{"type":"function","name":"normalizedBoost","inputs":[{"name":"pubkey","type":"bytes","internalType":"bytes"}],"outputs":[{"name":"","type":"uint256","internalType":"uint256"}],"stateMutability":"view"},{"type":"function","name":"numCheckpoints","inputs":[{"name":"account","type":"address","internalType":"address"}],"outputs":[{"name":"","type":"uint32","internalType":"uint32"}],"stateMutability":"view"},{"type":"function","name":"owner","inputs":[],"outputs":[{"name":"","type":"address","internalType":"address"}],"stateMutability":"view"},{"type":"function","name":"queueBoost","inputs":[{"name":"pubkey","type":"bytes","internalType":"bytes"},{"name":"amount","type":"uint128","internalType":"uint128"}],"outputs":[],"stateMutability":"nonpayable"},{"type":"function","name":"queueDropBoost","inputs":[{"name":"pubkey","type":"bytes","internalType":"bytes"},{"name":"amount","type":"uint128","internalType":"uint128"}],"outputs":[],"stateMutability":"nonpayable"},{"type":"function","name":"queuedBoost","inputs":[{"name":"account","type":"address","internalType":"address"}],"outputs":[{"name":"","type":"uint128","internalType":"uint128"}],"stateMutability":"view"},{"type":"function","name":"redeem","inputs":[{"name":"receiver","type":"address","internalType":"address"},{"name":"amount","type":"uint256","internalType":"uint256"}],"outputs":[],"stateMutability":"nonpayable"},{"type":"function","name":"renounceOwnership","inputs":[],"outputs":[],"stateMutability":"nonpayable"},{"type":"function","name":"setActivateBoostDelay","inputs":[{"name":"_activateBoostDelay","type":"uint32","internalType":"uint32"}],"outputs":[],"stateMutability":"nonpayable"},{"type":"function","name":"setBgtTermsAndConditions","inputs":[{"name":"_bgtTermsAndConditions","type":"string","internalType":"string"}],"outputs":[],"stateMutability":"nonpayable"},{"type":"function","name":"setDropBoostDelay","inputs":[{"name":"_dropBoostDelay","type":"uint32","internalType":"uint32"}],"outputs":[],"stateMutability":"nonpayable"},{"type":"function","name":"setMinter","inputs":[{"name":"_minter","type":"address","internalType":"address"}],"outputs":[],"stateMutability":"nonpayable"},{"type":"function","name":"setStaker","inputs":[{"name":"_staker","type":"address","internalType":"address"}],"outputs":[],"stateMutability":"nonpayable"},{"type":"function","name":"staker","inputs":[],"outputs":[{"name":"","type":"address","internalType":"address"}],"stateMutability":"view"},{"type":"function","name":"symbol","inputs":[],"outputs":[{"name":"","type":"string","internalType":"string"}],"stateMutability":"pure"},{"type":"function","name":"totalBoosts","inputs":[],"outputs":[{"name":"","type":"uint128","internalType":"uint128"}],"stateMutability":"view"},{"type":"function","name":"totalSupply","inputs":[],"outputs":[{"name":"","type":"uint256","internalType":"uint256"}],"stateMutability":"view"},{"type":"function","name":"transfer","inputs":[{"name":"to","type":"address","internalType":"address"},{"name":"amount","type":"uint256","internalType":"uint256"}],"outputs":[{"name":"","type":"bool","internalType":"bool"}],"stateMutability":"nonpayable"},{"type":"function","name":"transferFrom","inputs":[{"name":"from","type":"address","internalType":"address"},{"name":"to","type":"address","internalType":"address"},{"name":"amount","type":"uint256","internalType":"uint256"}],"outputs":[{"name":"","type":"bool","internalType":"bool"}],"stateMutability":"nonpayable"},{"type":"function","name":"transferOwnership","inputs":[{"name":"newOwner","type":"address","internalType":"address"}],"outputs":[],"stateMutability":"nonpayable"},{"type":"function","name":"unboostedBalanceOf","inputs":[{"name":"account","type":"address","internalType":"address"}],"outputs":[{"name":"","type":"uint256","internalType":"uint256"}],"stateMutability":"view"},{"type":"function","name":"whitelistSender","inputs":[{"name":"sender","type":"address","internalType":"address"},{"name":"approved","type":"bool","internalType":"bool"}],"outputs":[],"stateMutability":"nonpayable"},{"type":"event","name":"ActivateBoost","inputs":[{"name":"sender","type":"address","indexed":true,"internalType":"address"},{"name":"user","type":"address","indexed":true,"internalType":"address"},{"name":"pubkey","type":"bytes","indexed":true,"internalType":"bytes"},{"name":"amount","type":"uint128","indexed":false,"internalType":"uint128"}],"anonymous":false},{"type":"event","name":"ActivateBoostDelayChanged","inputs":[{"name":"newDelay","type":"uint32","indexed":false,"internalType":"uint32"}],"anonymous":false},{"type":"event","name":"Approval","inputs":[{"name":"owner","type":"address","indexed":true,"internalType":"address"},{"name":"spender","type":"address","indexed":true,"internalType":"address"},{"name":"value","type":"uint256","indexed":false,"internalType":"uint256"}],"anonymous":false},{"type":"event","name":"BgtTermsAndConditionsChanged","inputs":[{"name":"newTermsAndConditions","type":"string","indexed":false,"internalType":"string"}],"anonymous":false},{"type":"event","name":"CancelBoost","inputs":[{"name":"user","type":"address","indexed":true,"internalType":"address"},{"name":"pubkey","type":"bytes","indexed":true,"internalType":"bytes"},{"name":"amount","type":"uint128","indexed":false,"internalType":"uint128"}],"anonymous":false},{"type":"event","name":"CancelDropBoost","inputs":[{"name":"user","type":"address","indexed":true,"internalType":"address"},{"name":"pubkey","type":"bytes","indexed":true,"internalType":"bytes"},{"name":"amount","type":"uint128","indexed":false,"internalType":"uint128"}],"anonymous":false},{"type":"event","name":"DelegateChanged","inputs":[{"name":"delegator","type":"address","indexed":true,"internalType":"address"},{"name":"fromDelegate","type":"address","indexed":true,"internalType":"address"},{"name":"toDelegate","type":"address","indexed":true,"internalType":"address"}],"anonymous":false},{"type":"event","name":"DelegateVotesChanged","inputs":[{"name":"delegate","type":"address","indexed":true,"internalType":"address"},{"name":"previousVotes","type":"uint256","indexed":false,"internalType":"uint256"},{"name":"newVotes","type":"uint256","indexed":false,"internalType":"uint256"}],"anonymous":false},{"type":"event","name":"DropBoost","inputs":[{"name":"sender","type":"address","indexed":true,"internalType":"address"},{"name":"user","type":"address","indexed":true,"internalType":"address"},{"name":"pubkey","type":"bytes","indexed":true,"internalType":"bytes"},{"name":"amount","type":"uint128","indexed":false,"internalType":"uint128"}],"anonymous":false},{"type":"event","name":"DropBoostDelayChanged","inputs":[{"name":"newDelay","type":"uint32","indexed":false,"internalType":"uint32"}],"anonymous":false},{"type":"event","name":"EIP712DomainChanged","inputs":[],"anonymous":false},{"type":"event","name":"ExceedingReservesBurnt","inputs":[{"name":"caller","type":"address","indexed":false,"internalType":"address"},{"name":"amount","type":"uint256","indexed":false,"internalType":"uint256"}],"anonymous":false},{"type":"event","name":"Initialized","inputs":[{"name":"version","type":"uint64","indexed":false,"internalType":"uint64"}],"anonymous":false},{"type":"event","name":"MinterChanged","inputs":[{"name":"previous","type":"address","indexed":true,"internalType":"address"},{"name":"current","type":"address","indexed":true,"internalType":"address"}],"anonymous":false},{"type":"event","name":"OwnershipTransferred","inputs":[{"name":"previousOwner","type":"address","indexed":true,"internalType":"address"},{"name":"newOwner","type":"address","indexed":true,"internalType":"address"}],"anonymous":false},{"type":"event","name":"QueueBoost","inputs":[{"name":"user","type":"address","indexed":true,"internalType":"address"},{"name":"pubkey","type":"bytes","indexed":true,"internalType":"bytes"},{"name":"amount","type":"uint128","indexed":false,"internalType":"uint128"}],"anonymous":false},{"type":"event","name":"QueueDropBoost","inputs":[{"name":"user","type":"address","indexed":true,"internalType":"address"},{"name":"pubkey","type":"bytes","indexed":true,"internalType":"bytes"},{"name":"amount","type":"uint128","indexed":false,"internalType":"uint128"}],"anonymous":false},{"type":"event","name":"Redeem","inputs":[{"name":"from","type":"address","indexed":true,"internalType":"address"},{"name":"receiver","type":"address","indexed":true,"internalType":"address"},{"name":"amount","type":"uint256","indexed":false,"internalType":"uint256"}],"anonymous":false},{"type":"event","name":"SenderWhitelisted","inputs":[{"name":"sender","type":"address","indexed":true,"internalType":"address"},{"name":"approved","type":"bool","indexed":false,"internalType":"bool"}],"anonymous":false},{"type":"event","name":"StakerChanged","inputs":[{"name":"previous","type":"address","indexed":true,"internalType":"address"},{"name":"current","type":"address","indexed":true,"internalType":"address"}],"anonymous":false},{"type":"event","name":"Transfer","inputs":[{"name":"from","type":"address","indexed":true,"internalType":"address"},{"name":"to","type":"address","indexed":true,"internalType":"address"},{"name":"value","type":"uint256","indexed":false,"internalType":"uint256"}],"anonymous":false},{"type":"error","name":"AmountLessThanMinIncentiveRate","inputs":[]},{"type":"error","name":"CannotRecoverIncentiveToken","inputs":[]},{"type":"error","name":"CannotRecoverRewardToken","inputs":[]},{"type":"error","name":"CannotRecoverStakingToken","inputs":[]},{"type":"error","name":"CheckpointUnorderedInsertion","inputs":[]},{"type":"error","name":"CommissionChangeAlreadyQueued","inputs":[]},{"type":"error","name":"CommissionNotQueuedOrDelayNotPassed","inputs":[]},{"type":"error","name":"DepositNotMultipleOfGwei","inputs":[]},{"type":"error","name":"DepositValueTooHigh","inputs":[]},{"type":"error","name":"DonateAmountLessThanPayoutAmount","inputs":[]},{"type":"error","name":"ECDSAInvalidSignature","inputs":[]},{"type":"error","name":"ECDSAInvalidSignatureLength","inputs":[{"name":"length","type":"uint256","internalType":"uint256"}]},{"type":"error","name":"ECDSAInvalidSignatureS","inputs":[{"name":"s","type":"bytes32","internalType":"bytes32"}]},{"type":"error","name":"ERC20ExceededSafeSupply","inputs":[{"name":"increasedSupply","type":"uint256","internalType":"uint256"},{"name":"cap","type":"uint256","internalType":"uint256"}]},{"type":"error","name":"ERC20InsufficientAllowance","inputs":[{"name":"spender","type":"address","internalType":"address"},{"name":"allowance","type":"uint256","internalType":"uint256"},{"name":"needed","type":"uint256","internalType":"uint256"}]},{"type":"error","name":"ERC20InsufficientBalance","inputs":[{"name":"sender","type":"address","internalType":"address"},{"name":"balance","type":"uint256","internalType":"uint256"},{"name":"needed","type":"uint256","internalType":"uint256"}]},{"type":"error","name":"ERC20InvalidApprover","inputs":[{"name":"approver","type":"address","internalType":"address"}]},{"type":"error","name":"ERC20InvalidReceiver","inputs":[{"name":"receiver","type":"address","internalType":"address"}]},{"type":"error","name":"ERC20InvalidSender","inputs":[{"name":"sender","type":"address","internalType":"address"}]},{"type":"error","name":"ERC20InvalidSpender","inputs":[{"name":"spender","type":"address","internalType":"address"}]},{"type":"error","name":"ERC5805FutureLookup","inputs":[{"name":"timepoint","type":"uint256","internalType":"uint256"},{"name":"clock","type":"uint48","internalType":"uint48"}]},{"type":"error","name":"ERC6372InconsistentClock","inputs":[]},{"type":"error","name":"IncentiveRateTooHigh","inputs":[]},{"type":"error","name":"IndexOutOfRange","inputs":[]},{"type":"error","name":"InsolventReward","inputs":[]},{"type":"error","name":"InsufficientDelegateStake","inputs":[]},{"type":"error","name":"InsufficientDeposit","inputs":[]},{"type":"error","name":"InsufficientIncentiveTokens","inputs":[]},{"type":"error","name":"InsufficientSelfStake","inputs":[]},{"type":"error","name":"InsufficientStake","inputs":[]},{"type":"error","name":"InvalidAccountNonce","inputs":[{"name":"account","type":"address","internalType":"address"},{"name":"currentNonce","type":"uint256","internalType":"uint256"}]},{"type":"error","name":"InvalidActivateBoostDelay","inputs":[]},{"type":"error","name":"InvalidArray","inputs":[]},{"type":"error","name":"InvalidBaseRate","inputs":[]},{"type":"error","name":"InvalidBoostMultiplier","inputs":[]},{"type":"error","name":"InvalidCommissionChangeDelay","inputs":[]},{"type":"error","name":"InvalidCommissionValue","inputs":[]},{"type":"error","name":"InvalidCredentialsLength","inputs":[]},{"type":"error","name":"InvalidDistribution","inputs":[]},{"type":"error","name":"InvalidDropBoostDelay","inputs":[]},{"type":"error","name":"InvalidIncentiveRate","inputs":[]},{"type":"error","name":"InvalidInitialization","inputs":[]},{"type":"error","name":"InvalidMaxIncentiveTokensCount","inputs":[]},{"type":"error","name":"InvalidMaxWeightPerVault","inputs":[]},{"type":"error","name":"InvalidMerkleRoot","inputs":[]},{"type":"error","name":"InvalidMinBoostedRewardRate","inputs":[]},{"type":"error","name":"InvalidProof","inputs":[]},{"type":"error","name":"InvalidPubKeyLength","inputs":[]},{"type":"error","name":"InvalidRewardAllocationWeights","inputs":[]},{"type":"error","name":"InvalidRewardClaimDelay","inputs":[]},{"type":"error","name":"InvalidRewardConvexity","inputs":[]},{"type":"error","name":"InvalidRewardRate","inputs":[]},{"type":"error","name":"InvalidSignatureLength","inputs":[]},{"type":"error","name":"InvalidStartBlock","inputs":[]},{"type":"error","name":"InvalidToken","inputs":[]},{"type":"error","name":"InvalidWeight","inputs":[]},{"type":"error","name":"InvalidateDefaultRewardAllocation","inputs":[]},{"type":"error","name":"InvariantCheckFailed","inputs":[]},{"type":"error","name":"MaxNumWeightsPerRewardAllocationIsZero","inputs":[]},{"type":"error","name":"MinIncentiveRateIsZero","inputs":[]},{"type":"error","name":"NotAContract","inputs":[]},{"type":"error","name":"NotApprovedSender","inputs":[]},{"type":"error","name":"NotBGT","inputs":[]},{"type":"error","name":"NotBlockRewardController","inputs":[]},{"type":"error","name":"NotDelegate","inputs":[]},{"type":"error","name":"NotDistributor","inputs":[]},{"type":"error","name":"NotEnoughBalance","inputs":[]},{"type":"error","name":"NotEnoughBoostedBalance","inputs":[]},{"type":"error","name":"NotEnoughTime","inputs":[]},{"type":"error","name":"NotFactoryVault","inputs":[]},{"type":"error","name":"NotFeeCollector","inputs":[]},{"type":"error","name":"NotIncentiveManager","inputs":[]},{"type":"error","name":"NotInitializing","inputs":[]},{"type":"error","name":"NotNewOperator","inputs":[]},{"type":"error","name":"NotOperator","inputs":[]},{"type":"error","name":"NotWhitelistedVault","inputs":[]},{"type":"error","name":"OperatorAlreadySet","inputs":[]},{"type":"error","name":"OwnableInvalidOwner","inputs":[{"name":"owner","type":"address","internalType":"address"}]},{"type":"error","name":"OwnableUnauthorizedAccount","inputs":[{"name":"account","type":"address","internalType":"address"}]},{"type":"error","name":"PayoutAmountIsZero","inputs":[]},{"type":"error","name":"RewardAllocationAlreadyQueued","inputs":[]},{"type":"error","name":"RewardAllocationBlockDelayTooLarge","inputs":[]},{"type":"error","name":"RewardCycleNotEnded","inputs":[]},{"type":"error","name":"RewardInactive","inputs":[]},{"type":"error","name":"RewardsDurationIsZero","inputs":[]},{"type":"error","name":"SafeCastOverflowedUintDowncast","inputs":[{"name":"bits","type":"uint8","internalType":"uint8"},{"name":"value","type":"uint256","internalType":"uint256"}]},{"type":"error","name":"StakeAmountIsZero","inputs":[]},{"type":"error","name":"TimestampAlreadyProcessed","inputs":[]},{"type":"error","name":"TokenAlreadyWhitelistedOrLimitReached","inputs":[]},{"type":"error","name":"TokenNotWhitelisted","inputs":[]},{"type":"error","name":"TooManyWeights","inputs":[]},{"type":"error","name":"TotalSupplyOverflow","inputs":[]},{"type":"error","name":"VotesExpiredSignature","inputs":[{"name":"expiry","type":"uint256","internalType":"uint256"}]},{"type":"error","name":"WithdrawAmountIsZero","inputs":[]},{"type":"error","name":"ZeroAddress","inputs":[]},{"type":"error","name":"ZeroOperatorOnFirstDeposit","inputs":[]},{"type":"error","name":"ZeroPercentageWeight","inputs":[]}],"bytecode":{"object":"0x6080604052348015600e575f80fd5b506151528061001c5f395ff3fe60806040526004361061035b575f3560e01c8063715018a6116101bd578063a9059cbb116100f2578063dd62ed3e11610092578063f59f3cbf1161006d578063f59f3cbf14610d26578063fa8ce24514610d45578063fca3b5aa14610dac578063fdabc98614610dcb575f80fd5b8063dd62ed3e14610c39578063f1127ed814610ca9578063f2fde38b14610d07575f80fd5b8063c3cda520116100cd578063c3cda52014610bb4578063c4d66de814610bd3578063d66e54e114610bf2578063dc63bd4014610c1a575f80fd5b8063a9059cbb14610b2c578063ac9650d814610b4b578063c160b28414610b6b575f80fd5b80639203ad5d1161015d5780639ab24eb0116101385780639ab24eb014610ab05780639b05e78114610acf5780639c8b054714610aee578063a29a43bb14610b0d575f80fd5b80639203ad5d14610a2d57806395d89b4114610a4c5780639750aad714610a91575f80fd5b806384b0196e1161019857806384b0196e146109735780638da5cb5b1461099a5780638e539e8c146109e357806391ddadf414610a02575f80fd5b8063715018a6146109215780637ecebe0014610935578063814d261414610954575f80fd5b8063313ce567116102935780634bf5d7e9116102335780635c19a95c1161020e5780635c19a95c146108985780635ebaf1db146108b75780636fcfff45146108e357806370a0823114610902575f80fd5b80634bf5d7e9146107dc578063586d8b4c14610821578063587cde1e14610835575f80fd5b806340c10f191161026e57806340c10f1914610710578063441b76d81461072f578063471b57a3146107a9578063489fa30a146107bd575f80fd5b8063313ce5671461066d5780633a46b1a8146106885780633b6ccac9146106a7575f80fd5b80631b9e2fad116102fe57806321ddb7df116102d957806321ddb7df1461056157806323b872dd146105995780632477e76a146105b85780632b153ce11461064e575f80fd5b80631b9e2fad146104f55780631e569d7b146105235780631e9a695014610542575f80fd5b8063095ea7b311610339578063095ea7b3146104215780630f85da32146104505780631778260f1461046f57806318160ddd146104b8575f80fd5b80630613fef81461035f57806306fdde031461038057806307546172146103d7575b5f80fd5b34801561036a575f80fd5b5061037e6103793660046145ce565b610e1e565b005b34801561038b575f80fd5b5060408051808201909152601581527f4265726120476f7665726e616e636520546f6b656e000000000000000000000060208201525b6040516103ce9190614653565b60405180910390f35b3480156103e2575f80fd5b505f5473ffffffffffffffffffffffffffffffffffffffff165b60405173ffffffffffffffffffffffffffffffffffffffff90911681526020016103ce565b34801561042c575f80fd5b5061044061043b366004614665565b610eaf565b60405190151581526020016103ce565b34801561045b575f80fd5b5061037e61046a3660046146a0565b610f03565b34801561047a575f80fd5b506001546104a39074010000000000000000000000000000000000000000900463ffffffff1681565b60405163ffffffff90911681526020016103ce565b3480156104c3575f80fd5b507f52c63247e1f47db19d5ce0460030c497f067ca4cebf71ba98eeadabe20bace02545b6040519081526020016103ce565b348015610500575f80fd5b5061044061050f3660046146b9565b60096020525f908152604090205460ff1681565b34801561052e575f80fd5b506104e761053d366004614717565b610fd7565b34801561054d575f80fd5b5061037e61055c366004614665565b611047565b34801561056c575f80fd5b506001546104a3907801000000000000000000000000000000000000000000000000900463ffffffff1681565b3480156105a4575f80fd5b506104406105b3366004614756565b6110c2565b3480156105c3575f80fd5b506106216105d2366004614885565b600460209081525f9283526040909220815180830184018051928152908401929093019190912091525463ffffffff81169064010000000090046fffffffffffffffffffffffffffffffff1682565b6040805163ffffffff90931683526fffffffffffffffffffffffffffffffff9091166020830152016103ce565b348015610659575f80fd5b5061037e6106683660046148d0565b61113b565b348015610678575f80fd5b50604051601281526020016103ce565b348015610693575f80fd5b506104e76106a2366004614665565b6112cd565b3480156106b2575f80fd5b506106216106c1366004614885565b600560209081525f9283526040909220815180830184018051928152908401929093019190912091525463ffffffff81169064010000000090046fffffffffffffffffffffffffffffffff1682565b34801561071b575f80fd5b5061037e61072a366004614665565b61134b565b34801561073a575f80fd5b50610788610749366004614885565b600660209081525f928352604090922081518083018401805192815290840192909301919091209152546fffffffffffffffffffffffffffffffff1681565b6040516fffffffffffffffffffffffffffffffff90911681526020016103ce565b3480156107b4575f80fd5b5061037e6113a4565b3480156107c8575f80fd5b5061037e6107d73660046148d0565b6114e1565b3480156107e7575f80fd5b5060408051808201909152600e81527f6d6f64653d74696d657374616d7000000000000000000000000000000000000060208201526103c1565b34801561082c575f80fd5b506103c161164b565b348015610840575f80fd5b506103fc61084f3660046146b9565b73ffffffffffffffffffffffffffffffffffffffff9081165f9081527fe8b26c30fad74198956032a3533d903385d56dd795af560196f9c78d4af40d0060205260409020541690565b3480156108a3575f80fd5b5061037e6108b23660046146b9565b6116d7565b3480156108c2575f80fd5b506001546103fc9073ffffffffffffffffffffffffffffffffffffffff1681565b3480156108ee575f80fd5b506104a36108fd3660046146b9565b6116e2565b34801561090d575f80fd5b506104e761091c3660046146b9565b6116ec565b34801561092c575f80fd5b5061037e61173c565b348015610940575f80fd5b506104e761094f3660046146b9565b61174f565b34801561095f575f80fd5b5061044061096e366004614937565b611777565b34801561097e575f80fd5b50610987611aee565b6040516103ce9796959493929190614986565b3480156109a5575f80fd5b507f9016d09d72d40fdae2fd8ceac6b6234c7706214fd39c1cd1e609a0528c1993005473ffffffffffffffffffffffffffffffffffffffff166103fc565b3480156109ee575f80fd5b506104e76109fd366004614a45565b611bed565b348015610a0d575f80fd5b50610a16611c48565b60405165ffffffffffff90911681526020016103ce565b348015610a38575f80fd5b506104e7610a473660046146b9565b611c56565b348015610a57575f80fd5b5060408051808201909152600381527f424754000000000000000000000000000000000000000000000000000000000060208201526103c1565b348015610a9c575f80fd5b5061037e610aab366004614717565b611cce565b348015610abb575f80fd5b506104e7610aca3660046146b9565b611d21565b348015610ada575f80fd5b50610440610ae9366004614937565b611d8f565b348015610af9575f80fd5b5061037e610b083660046148d0565b612131565b348015610b18575f80fd5b5061037e610b273660046146b9565b612228565b348015610b37575f80fd5b50610440610b46366004614665565b612301565b610b5e610b59366004614a5c565b612363565b6040516103ce9190614acd565b348015610b76575f80fd5b50610788610b85366004614b4e565b80516020818301810180516008825292820191909301209152546fffffffffffffffffffffffffffffffff1681565b348015610bbf575f80fd5b5061037e610bce366004614b80565b612381565b348015610bde575f80fd5b5061037e610bed3660046146b9565b612463565b348015610bfd575f80fd5b50600354610788906fffffffffffffffffffffffffffffffff1681565b348015610c25575f80fd5b5061037e610c343660046146a0565b612684565b348015610c44575f80fd5b506104e7610c53366004614bdb565b73ffffffffffffffffffffffffffffffffffffffff9182165f9081527f52c63247e1f47db19d5ce0460030c497f067ca4cebf71ba98eeadabe20bace016020908152604080832093909416825291909152205490565b348015610cb4575f80fd5b50610cc8610cc3366004614c0c565b612755565b60408051825165ffffffffffff16815260209283015179ffffffffffffffffffffffffffffffffffffffffffffffffffff1692810192909252016103ce565b348015610d12575f80fd5b5061037e610d213660046146b9565b612772565b348015610d31575f80fd5b5061037e610d403660046148d0565b6127d5565b348015610d50575f80fd5b50610788610d5f3660046146b9565b73ffffffffffffffffffffffffffffffffffffffff165f9081526007602052604090205470010000000000000000000000000000000090046fffffffffffffffffffffffffffffffff1690565b348015610db7575f80fd5b5061037e610dc63660046146b9565b6128ef565b348015610dd6575f80fd5b50610788610de53660046146b9565b73ffffffffffffffffffffffffffffffffffffffff165f908152600760205260409020546fffffffffffffffffffffffffffffffff1690565b610e266129c6565b73ffffffffffffffffffffffffffffffffffffffff82165f8181526009602090815260409182902080547fffffffffffffffffffffffffffffffffffffffffffffffffffffffffffffff001685151590811790915591519182527f7cc8eedb33d0513aac63d861ea275788d3526752cda024d59cfad9d9174190ca910160405180910390a25050565b335f8181526009602052604081205490919060ff16610ef157610ef17ff2d81d9500000000000000000000000000000000000000000000000000000000612a54565b610efb8484612a5c565b949350505050565b610f0b6129c6565b63ffffffff81161580610f255750611fff63ffffffff8216115b15610f5357610f537fadd377f600000000000000000000000000000000000000000000000000000000612a54565b600180547fffffffffffffffff00000000ffffffffffffffffffffffffffffffffffffffff167401000000000000000000000000000000000000000063ffffffff8416908102919091179091556040519081527fd257e80fd5337e71c312e3765759b53192ff844bee242248b277a77a9d82c12e906020015b60405180910390a150565b6003545f906fffffffffffffffffffffffffffffffff168103610ffb57505f611041565b61103e60088484604051611010929190614c34565b908152604051908190036020019020546003546fffffffffffffffffffffffffffffffff9182169116612a73565b90505b92915050565b33816110538282612ab5565b61105d3384612aee565b6110678484612b48565b60405183815273ffffffffffffffffffffffffffffffffffffffff85169033907fd12200efa34901b99367694174c3b0d32c99585fdf37c7c26892136ddd0836d99060200160405180910390a350506110be612b61565b5050565b73ffffffffffffffffffffffffffffffffffffffff83165f90815260096020526040812054849060ff16611119576111197ff2d81d9500000000000000000000000000000000000000000000000000000000612a54565b84836111258282612ab5565b611130878787612bb3565b979650505050505050565b335f9081526005602052604080822090516111599086908690614c34565b90815260405190819003602001902080549091505f906111959084906fffffffffffffffffffffffffffffffff64010000000090910416614c70565b335f908152600660205260409081902090519192506fffffffffffffffffffffffffffffffff8316916111cb9088908890614c34565b908152604051908190036020019020546fffffffffffffffffffffffffffffffff16101561121c5761121c7f1496906100000000000000000000000000000000000000000000000000000000612a54565b81546fffffffffffffffffffffffffffffffff8216640100000000027fffffffffffffffffffffffff000000000000000000000000000000000000000090911663ffffffff4316171782556040516112779086908690614c34565b6040519081900381206fffffffffffffffffffffffffffffffff851682529033907faba377162291315e8f2d858c2eb7e5088df2d096757bf9781eea90fe7dda7d2b906020015b60405180910390a35050505050565b5f7fe8b26c30fad74198956032a3533d903385d56dd795af560196f9c78d4af40d006113276112fb84612bd6565b73ffffffffffffffffffffffffffffffffffffffff86165f908152600184016020526040902090612c3d565b79ffffffffffffffffffffffffffffffffffffffffffffffffffff16949350505050565b5f5473ffffffffffffffffffffffffffffffffffffffff163314611392576113927f1b0eb4ec00000000000000000000000000000000000000000000000000000000612a54565b61139c8282612d02565b6110be612b61565b5f8054604080517f38783dc3000000000000000000000000000000000000000000000000000000008152905173ffffffffffffffffffffffffffffffffffffffff909216929183916338783dc39160048083019260209291908290030181865afa158015611414573d5f803e3d5ffd5b505050506040513d601f19601f820116820180604052508101906114389190614c98565b61144490611fff614caf565b9050475f826114717f52c63247e1f47db19d5ce0460030c497f067ca4cebf71ba98eeadabe20bace025490565b61147b9190614cc6565b905080821161148a5750505050565b5f6114958284614cd9565b90506114a15f82612b48565b60408051338152602081018390527fbef567cd1f0f14efefc29842ca1de0d16dff08c828433ba7a31bb8c75ca7a6f0910160405180910390a15050505050565b33816fffffffffffffffffffffffffffffffff166114ff8282612ab5565b335f908152600760205260409020805484919060109061154690849070010000000000000000000000000000000090046fffffffffffffffffffffffffffffffff16614c70565b82546fffffffffffffffffffffffffffffffff9182166101009390930a928302919092021990911617905550335f9081526004602052604080822090516115909088908890614c34565b90815260405190819003602001812080546fffffffffffffffffffffffffffffffff64010000000080830482168901909116027fffffffffffffffffffffffff000000000000000000000000000000000000000090911663ffffffff431617179055611600915086908690614c34565b6040519081900381206fffffffffffffffffffffffffffffffff851682529033907f23031c323c53188b79b7ee95867e49f995174fa03f33678ddcb46c514f07e021906020016112be565b6002805461165890614cec565b80601f016020809104026020016040519081016040528092919081815260200182805461168490614cec565b80156116cf5780601f106116a6576101008083540402835291602001916116cf565b820191905f5260205f20905b8154815290600101906020018083116116b257829003601f168201915b505050505081565b336110be8183612d5c565b5f61104182612e65565b5f807f52c63247e1f47db19d5ce0460030c497f067ca4cebf71ba98eeadabe20bace005b73ffffffffffffffffffffffffffffffffffffffff9093165f9081526020939093525050604090205490565b6117446129c6565b61174d5f612ed4565b565b5f807f5ab42ced628888259c08ac98db1eb0cf702fc1501344311d8b100cd1bfe4bb00611710565b73ffffffffffffffffffffffffffffffffffffffff83165f9081526005602052604080822090518291906117ae9086908690614c34565b908152604051908190036020019020805490915063ffffffff8116906fffffffffffffffffffffffffffffffff6401000000009091041680158061181f575060015461181d9083907801000000000000000000000000000000000000000000000000900463ffffffff16612f69565b155b1561182f575f9350505050611ae7565b73ffffffffffffffffffffffffffffffffffffffff87165f908152600660205260409081902090518291906118679089908990614c34565b90815260408051918290036020908101832080546fffffffffffffffffffffffffffffffff8082169690960386167fffffffffffffffffffffffffffffffff000000000000000000000000000000009182161790915560038054808716889003871690831617905573ffffffffffffffffffffffffffffffffffffffff8c165f908152600790925291902080548085168690039094169390911692909217909155819060089061191a9089908990614c34565b908152604080516020928190038301812080547fffffffffffffffffffffffffffffffff0000000000000000000000000000000081166fffffffffffffffffffffffffffffffff91821696909603169490941790935573ffffffffffffffffffffffffffffffffffffffff8a165f90815260059092529020906119a09088908890614c34565b90815260405190819003602001812080547fffffffffffffffffffffffff00000000000000000000000000000000000000001690556001547ff3fef3a300000000000000000000000000000000000000000000000000000000825273ffffffffffffffffffffffffffffffffffffffff89811660048401526fffffffffffffffffffffffffffffffff84166024840152169063f3fef3a3906044015f604051808303815f87803b158015611a52575f80fd5b505af1158015611a64573d5f803e3d5ffd5b505050508585604051611a78929190614c34565b6040519081900381206fffffffffffffffffffffffffffffffff831682529073ffffffffffffffffffffffffffffffffffffffff89169033907f574d5117cce15ba0f7443c955ec7bfc5f3e9b50ac2314a0f33ab7a9ea94c3ab1906020015b60405180910390a4600193505050505b9392505050565b5f60608082808083817fa16a46d94261c7517cc8ff89f61c0ce93598e3c849801011dee649a6a557d1008054909150158015611b2c57506001810154155b611b97576040517f08c379a000000000000000000000000000000000000000000000000000000000815260206004820152601560248201527f4549503731323a20556e696e697469616c697a6564000000000000000000000060448201526064015b60405180910390fd5b611b9f612f87565b611ba761305a565b604080515f808252602082019092527f0f000000000000000000000000000000000000000000000000000000000000009c939b5091995046985030975095509350915050565b5f7fe8b26c30fad74198956032a3533d903385d56dd795af560196f9c78d4af40d00611c25611c1b84612bd6565b6002830190612c3d565b79ffffffffffffffffffffffffffffffffffffffffffffffffffff169392505050565b5f611c516130ab565b905090565b73ffffffffffffffffffffffffffffffffffffffff81165f90815260076020526040812080546fffffffffffffffffffffffffffffffff808216917001000000000000000000000000000000009004168082611cb1876116ec565b611cbb9190614cd9565b611cc59190614cd9565b95945050505050565b611cd66129c6565b6002611ce3828483614d81565b507f22e8cea885a4b7de3886bb99b58052f39daab345deeee849f6c72087f1b35de98282604051611d15929190614e97565b60405180910390a15050565b73ffffffffffffffffffffffffffffffffffffffff81165f9081527fe8b26c30fad74198956032a3533d903385d56dd795af560196f9c78d4af40d01602052604081207fe8b26c30fad74198956032a3533d903385d56dd795af560196f9c78d4af40d0090611c25906130b5565b73ffffffffffffffffffffffffffffffffffffffff83165f908152600460205260408082209051829190611dc69086908690614c34565b908152604051908190036020019020805490915063ffffffff8116906fffffffffffffffffffffffffffffffff64010000000090910416801580611e335750600154611e3190839074010000000000000000000000000000000000000000900463ffffffff16612f69565b155b15611e43575f9350505050611ae7565b600380548291905f90611e699084906fffffffffffffffffffffffffffffffff16614c70565b92506101000a8154816fffffffffffffffffffffffffffffffff02191690836fffffffffffffffffffffffffffffffff1602179055508060088787604051611eb2929190614c34565b908152604080516020928190038301812080547fffffffffffffffffffffffffffffffff0000000000000000000000000000000081166fffffffffffffffffffffffffffffffff91821696909601169490941790935573ffffffffffffffffffffffffffffffffffffffff8a165f908152600690925290208291611f399089908990614c34565b90815260408051918290036020908101832080546fffffffffffffffffffffffffffffffff80821690960186167fffffffffffffffffffffffffffffffff000000000000000000000000000000009182161790915573ffffffffffffffffffffffffffffffffffffffff8c165f908152600783528381208054808816890188167001000000000000000000000000000000009182900489168a9003909816029092169590951790556004905290912090611ff69088908890614c34565b90815260405190819003602001812080547fffffffffffffffffffffffff00000000000000000000000000000000000000001690556001547fadc9772e00000000000000000000000000000000000000000000000000000000825273ffffffffffffffffffffffffffffffffffffffff89811660048401526fffffffffffffffffffffffffffffffff84166024840152169063adc9772e906044015f604051808303815f87803b1580156120a8575f80fd5b505af11580156120ba573d5f803e3d5ffd5b5050505085856040516120ce929190614c34565b6040519081900381206fffffffffffffffffffffffffffffffff831682529073ffffffffffffffffffffffffffffffffffffffff89169033907f331ddcd7d9830ca2dd8d4e44a2ff8d00f690b6b56827cb02135ee066a702f65f90602001611ad7565b335f90815260056020526040808220905161214f9086908690614c34565b9081526020016040518091039020905081815f0160048282829054906101000a90046fffffffffffffffffffffffffffffffff1661218d9190614ee3565b92506101000a8154816fffffffffffffffffffffffffffffffff02191690836fffffffffffffffffffffffffffffffff16021790555083836040516121d3929190614c34565b6040519081900381206fffffffffffffffffffffffffffffffff841682529033907fae8e6c975978143902c820cfff730990781faf7ad970ce723d9e586557613474906020015b60405180910390a350505050565b6122306129c6565b73ffffffffffffffffffffffffffffffffffffffff8116612274576122747fd92e233d00000000000000000000000000000000000000000000000000000000612a54565b60015460405173ffffffffffffffffffffffffffffffffffffffff8084169216907f96d621126ebae771afc3398d70236d4cec9cda04b8a0888161100f5b7c9b491b905f90a3600180547fffffffffffffffffffffffff00000000000000000000000000000000000000001673ffffffffffffffffffffffffffffffffffffffff92909216919091179055565b335f8181526009602052604081205490919060ff16612343576123437ff2d81d9500000000000000000000000000000000000000000000000000000000612a54565b338361234f8282612ab5565b6123598686613102565b9695505050505050565b6060341561236f575f80fd5b61104161237c848461310f565b61319b565b834211156123be576040517f4683af0e00000000000000000000000000000000000000000000000000000000815260048101859052602401611b8e565b604080517fe48329057bfd03d55e49b547132e39cffd9c1820ad7b9d4c5307691425d15adf602082015273ffffffffffffffffffffffffffffffffffffffff88169181019190915260608101869052608081018590525f906124449061243c9060a001604051602081830303815290604052805190602001206131ac565b8585856131f3565b9050612450818761321f565b61245a8188612d5c565b50505050505050565b5f61246c6132c8565b805490915060ff68010000000000000000820416159067ffffffffffffffff165f811580156124985750825b90505f8267ffffffffffffffff1660011480156124b45750303b155b9050811580156124c2575080155b156124f9576040517ff92ee8a900000000000000000000000000000000000000000000000000000000815260040160405180910390fd5b84547fffffffffffffffffffffffffffffffffffffffffffffffff0000000000000000166001178555831561255a5784547fffffffffffffffffffffffffffffffffffffffffffffff00ffffffffffffffff16680100000000000000001785555b612563866132f0565b6125d76040518060400160405280601581526020017f4265726120476f7665726e616e636520546f6b656e00000000000000000000008152506040518060400160405280600381526020017f4247540000000000000000000000000000000000000000000000000000000000815250613301565b600180547fffffffff0000000000000000ffffffffffffffffffffffffffffffffffffffff16791fff00001fff0000000000000000000000000000000000000000179055831561267c5784547fffffffffffffffffffffffffffffffffffffffffffffff00ffffffffffffffff168555604051600181527fc7f505b2f371ae2175ee4913f4499e1f2633a7b5936321eed1cdaeb6115181d29060200160405180910390a15b505050505050565b61268c6129c6565b63ffffffff811615806126a65750611fff63ffffffff8216115b156126d4576126d47f2f14f4f900000000000000000000000000000000000000000000000000000000612a54565b600180547fffffffff00000000ffffffffffffffffffffffffffffffffffffffffffffffff16780100000000000000000000000000000000000000000000000063ffffffff8416908102919091179091556040519081527fed6ddb1d14a5f2efb1c569e5d75960519ac932e2c3d456e6d95762061c685c9990602001610fcc565b604080518082019091525f808252602082015261103e8383613313565b61277a6129c6565b73ffffffffffffffffffffffffffffffffffffffff81166127c9576040517f1e4fbdf70000000000000000000000000000000000000000000000000000000081525f6004820152602401611b8e565b6127d281612ed4565b50565b335f9081526004602052604080822090516127f39086908690614c34565b9081526020016040518091039020905081815f0160048282829054906101000a90046fffffffffffffffffffffffffffffffff166128319190614ee3565b82546fffffffffffffffffffffffffffffffff9182166101009390930a928302928202191691909117909155335f908152600760205260409081902080547001000000000000000000000000000000008082048516889003851602931692909217909155516128a4915085908590614c34565b6040519081900381206fffffffffffffffffffffffffffffffff841682529033907fabb23fd3a3e0e63d68fab24ef90be479363fa89b757065641e6a77ca49d45ba69060200161221a565b6128f76129c6565b73ffffffffffffffffffffffffffffffffffffffff811661293b5761293b7fd92e233d00000000000000000000000000000000000000000000000000000000612a54565b5f805460405173ffffffffffffffffffffffffffffffffffffffff808516939216917f3b0007eb941cf645526cbb3a4fdaecda9d28ce4843167d9263b536a1f1edc0f691a35f80547fffffffffffffffffffffffff00000000000000000000000000000000000000001673ffffffffffffffffffffffffffffffffffffffff92909216919091179055565b33612a057f9016d09d72d40fdae2fd8ceac6b6234c7706214fd39c1cd1e609a0528c1993005473ffffffffffffffffffffffffffffffffffffffff1690565b73ffffffffffffffffffffffffffffffffffffffff161461174d576040517f118cdaa7000000000000000000000000000000000000000000000000000000008152336004820152602401611b8e565b805f5260045ffd5b5f33612a69818585613394565b5060019392505050565b5f7812725dd1d243aba0e75fe645cc4873f9e65afe688c928e1f2283108202612aa357637c5f487d5f526004601cfd5b50670de0b6b3a7640000919091020490565b80612abf83611c56565b10156110be576110be7fad3a8b9e00000000000000000000000000000000000000000000000000000000612a54565b73ffffffffffffffffffffffffffffffffffffffff8216612b3d576040517f96c6fd1e0000000000000000000000000000000000000000000000000000000081525f6004820152602401611b8e565b6110be825f836133a1565b5f385f3884865af16110be5763b12d13eb5f526004601cfd5b7f52c63247e1f47db19d5ce0460030c497f067ca4cebf71ba98eeadabe20bace025447101561174d5761174d7f8e7572da00000000000000000000000000000000000000000000000000000000612a54565b5f33612bc085828561345f565b612bcb858585613546565b506001949350505050565b5f80612be0611c48565b90508065ffffffffffff168310612c34576040517fecd3f81e0000000000000000000000000000000000000000000000000000000081526004810184905265ffffffffffff82166024820152604401611b8e565b611ae7836135ef565b81545f9081816005811115612c99575f612c568461363e565b612c609085614cd9565b5f8881526020902090915081015465ffffffffffff9081169087161015612c8957809150612c97565b612c94816001614cc6565b92505b505b5f612ca6878785856137a3565b90508015612cf657612cca87612cbd600184614cd9565b5f91825260209091200190565b546601000000000000900479ffffffffffffffffffffffffffffffffffffffffffffffffffff16611130565b5f979650505050505050565b73ffffffffffffffffffffffffffffffffffffffff8216612d51576040517fec442f050000000000000000000000000000000000000000000000000000000081525f6004820152602401611b8e565b6110be5f83836133a1565b7fe8b26c30fad74198956032a3533d903385d56dd795af560196f9c78d4af40d005f612dcb8473ffffffffffffffffffffffffffffffffffffffff9081165f9081527fe8b26c30fad74198956032a3533d903385d56dd795af560196f9c78d4af40d0060205260409020541690565b73ffffffffffffffffffffffffffffffffffffffff8581165f8181526020869052604080822080547fffffffffffffffffffffffff000000000000000000000000000000000000000016898616908117909155905194955093928516927f3134e8a2e6d97e929a7e54011ea5485d7d196dd5f0ba4d4ef95803e8e3fc257f9190a4612e5f8184612e5a87613802565b61380c565b50505050565b73ffffffffffffffffffffffffffffffffffffffff81165f9081527fe8b26c30fad74198956032a3533d903385d56dd795af560196f9c78d4af40d0160205260408120547fe8b26c30fad74198956032a3533d903385d56dd795af560196f9c78d4af40d0090611ae790613a3c565b7f9016d09d72d40fdae2fd8ceac6b6234c7706214fd39c1cd1e609a0528c19930080547fffffffffffffffffffffffff0000000000000000000000000000000000000000811673ffffffffffffffffffffffffffffffffffffffff848116918217845560405192169182907f8be0079c531659141344cd1fd0a4f28419497f9722a3daafe3b4186f6b6457e0905f90a3505050565b5f4383900363ffffffff80841690821611612a69575f915050611041565b7fa16a46d94261c7517cc8ff89f61c0ce93598e3c849801011dee649a6a557d10280546060917fa16a46d94261c7517cc8ff89f61c0ce93598e3c849801011dee649a6a557d10091612fd890614cec565b80601f016020809104026020016040519081016040528092919081815260200182805461300490614cec565b801561304f5780601f106130265761010080835404028352916020019161304f565b820191905f5260205f20905b81548152906001019060200180831161303257829003601f168201915b505050505091505090565b7fa16a46d94261c7517cc8ff89f61c0ce93598e3c849801011dee649a6a557d10380546060917fa16a46d94261c7517cc8ff89f61c0ce93598e3c849801011dee649a6a557d10091612fd890614cec565b5f611c51426135ef565b80545f9080156130fa576130ce83612cbd600184614cd9565b546601000000000000900479ffffffffffffffffffffffffffffffffffffffffffffffffffff16611ae7565b5f9392505050565b5f33612a69818585613546565b5f60405190506020815281816020015280604001808360051b808684378201808515613189575b8351870180356020820183375f38823584305af4613156573d5f873e3d86fd5b5082810384523d815260209384019381013d5f823e5f3d8201523d01601f0167ffffffffffffffe0169050818410613136575b60408181521b90931795945050505050565b8060401c8167ffffffffffffffff16f35b5f6110416131b8613a85565b836040517f19010000000000000000000000000000000000000000000000000000000000008152600281019290925260228201526042902090565b5f805f8061320388888888613a8e565b9250925092506132138282613b81565b50909695505050505050565b73ffffffffffffffffffffffffffffffffffffffff82165f9081527f5ab42ced628888259c08ac98db1eb0cf702fc1501344311d8b100cd1bfe4bb00602052604090208054600181019091558181146132c3576040517f752d88c000000000000000000000000000000000000000000000000000000000815273ffffffffffffffffffffffffffffffffffffffff8416600482015260248101829052604401611b8e565b505050565b5f807ff0c57e16840df040f15088dc2f81fe391c3923bec73e23a9662efc9c229c6a00611041565b6132f8613c84565b6127d281613cc2565b613309613c84565b6110be8282613cca565b6040805180820182525f808252602080830182905273ffffffffffffffffffffffffffffffffffffffff861682527fe8b26c30fad74198956032a3533d903385d56dd795af560196f9c78d4af40d019052919091207fe8b26c30fad74198956032a3533d903385d56dd795af560196f9c78d4af40d0090610efb9084613d2d565b6132c38383836001613db0565b6133ac838383613f11565b73ffffffffffffffffffffffffffffffffffffffff8316613454575f6133f07f52c63247e1f47db19d5ce0460030c497f067ca4cebf71ba98eeadabe20bace025490565b905079ffffffffffffffffffffffffffffffffffffffffffffffffffff80821115613451576040517f1cb15d260000000000000000000000000000000000000000000000000000000081526004810183905260248101829052604401611b8e565b50505b6132c38383836140d0565b73ffffffffffffffffffffffffffffffffffffffff8381165f9081527f52c63247e1f47db19d5ce0460030c497f067ca4cebf71ba98eeadabe20bace0160209081526040808320938616835292905220547fffffffffffffffffffffffffffffffffffffffffffffffffffffffffffffffff811015612e5f5781811015613538576040517ffb8f41b200000000000000000000000000000000000000000000000000000000815273ffffffffffffffffffffffffffffffffffffffff841660048201526024810182905260448101839052606401611b8e565b612e5f84848484035f613db0565b73ffffffffffffffffffffffffffffffffffffffff8316613595576040517f96c6fd1e0000000000000000000000000000000000000000000000000000000081525f6004820152602401611b8e565b73ffffffffffffffffffffffffffffffffffffffff82166135e4576040517fec442f050000000000000000000000000000000000000000000000000000000081525f6004820152602401611b8e565b6132c38383836133a1565b5f65ffffffffffff82111561363a576040517f6dfcc6500000000000000000000000000000000000000000000000000000000081526030600482015260248101839052604401611b8e565b5090565b5f6001821161364b575090565b81600170010000000000000000000000000000000082106136715760809190911c9060401b5b68010000000000000000821061368c5760409190911c9060201b5b64010000000082106136a35760209190911c9060101b5b6201000082106136b85760109190911c9060081b5b61010082106136cc5760089190911c9060041b5b601082106136df5760049190911c9060021b5b600482106136eb5760011b5b600302600190811c9081858161370357613703614f0b565b048201901c9050600181858161371b5761371b614f0b565b048201901c9050600181858161373357613733614f0b565b048201901c9050600181858161374b5761374b614f0b565b048201901c9050600181858161376357613763614f0b565b048201901c9050600181858161377b5761377b614f0b565b048201901c905061379a81858161379457613794614f0b565b04821190565b90039392505050565b5f5b818310156137fa575f6137b884846141b0565b5f8781526020902090915065ffffffffffff86169082015465ffffffffffff1611156137e6578092506137f4565b6137f1816001614cc6565b93505b506137a5565b509392505050565b5f611041826116ec565b7fe8b26c30fad74198956032a3533d903385d56dd795af560196f9c78d4af40d0073ffffffffffffffffffffffffffffffffffffffff8481169084161480159061385557505f82115b15612e5f5773ffffffffffffffffffffffffffffffffffffffff84161561394b5773ffffffffffffffffffffffffffffffffffffffff84165f908152600182016020526040812081906138b3906141ca6138ae876141d5565b614234565b79ffffffffffffffffffffffffffffffffffffffffffffffffffff16915079ffffffffffffffffffffffffffffffffffffffffffffffffffff1691508573ffffffffffffffffffffffffffffffffffffffff167fdec2bacdd2f05b59de34da9b523dff8be42e5e38e818c82fdb0bae774387a7248383604051613940929190918252602082015260400190565b60405180910390a250505b73ffffffffffffffffffffffffffffffffffffffff831615612e5f5773ffffffffffffffffffffffffffffffffffffffff83165f9081526001820160205260408120819061399f9061426c6138ae876141d5565b79ffffffffffffffffffffffffffffffffffffffffffffffffffff16915079ffffffffffffffffffffffffffffffffffffffffffffffffffff1691508473ffffffffffffffffffffffffffffffffffffffff167fdec2bacdd2f05b59de34da9b523dff8be42e5e38e818c82fdb0bae774387a7248383604051613a2c929190918252602082015260400190565b60405180910390a2505050505050565b5f63ffffffff82111561363a576040517f6dfcc6500000000000000000000000000000000000000000000000000000000081526020600482015260248101839052604401611b8e565b5f611c51614277565b5f80807f7fffffffffffffffffffffffffffffff5d576e7357a4501ddfe92f46681b20a0841115613ac757505f91506003905082613b77565b604080515f808252602082018084528a905260ff891692820192909252606081018790526080810186905260019060a0016020604051602081039080840390855afa158015613b18573d5f803e3d5ffd5b50506040517fffffffffffffffffffffffffffffffffffffffffffffffffffffffffffffffe0015191505073ffffffffffffffffffffffffffffffffffffffff8116613b6e57505f925060019150829050613b77565b92505f91508190505b9450945094915050565b5f826003811115613b9457613b94614f38565b03613b9d575050565b6001826003811115613bb157613bb1614f38565b03613be8576040517ff645eedf00000000000000000000000000000000000000000000000000000000815260040160405180910390fd5b6002826003811115613bfc57613bfc614f38565b03613c36576040517ffce698f700000000000000000000000000000000000000000000000000000000815260048101829052602401611b8e565b6003826003811115613c4a57613c4a614f38565b036110be576040517fd78bce0c00000000000000000000000000000000000000000000000000000000815260048101829052602401611b8e565b613c8c6142ea565b61174d576040517fd7e6bcf800000000000000000000000000000000000000000000000000000000815260040160405180910390fd5b61277a613c84565b613cd2613c84565b7f52c63247e1f47db19d5ce0460030c497f067ca4cebf71ba98eeadabe20bace007f52c63247e1f47db19d5ce0460030c497f067ca4cebf71ba98eeadabe20bace03613d1e8482614f65565b5060048101612e5f8382614f65565b604080518082019091525f8082526020820152825f018263ffffffff1681548110613d5a57613d5a61507c565b5f9182526020918290206040805180820190915291015465ffffffffffff811682526601000000000000900479ffffffffffffffffffffffffffffffffffffffffffffffffffff16918101919091529392505050565b7f52c63247e1f47db19d5ce0460030c497f067ca4cebf71ba98eeadabe20bace0073ffffffffffffffffffffffffffffffffffffffff8516613e20576040517fe602df050000000000000000000000000000000000000000000000000000000081525f6004820152602401611b8e565b73ffffffffffffffffffffffffffffffffffffffff8416613e6f576040517f94280d620000000000000000000000000000000000000000000000000000000081525f6004820152602401611b8e565b73ffffffffffffffffffffffffffffffffffffffff8086165f90815260018301602090815260408083209388168352929052208390558115613f0a578373ffffffffffffffffffffffffffffffffffffffff168573ffffffffffffffffffffffffffffffffffffffff167f8c5be1e5ebec7d5bd14f71427d1e84f3dd0314c0f7b2291e5b200ac8c7c3b925856040516112be91815260200190565b5050505050565b7f52c63247e1f47db19d5ce0460030c497f067ca4cebf71ba98eeadabe20bace0073ffffffffffffffffffffffffffffffffffffffff8416613f6b5781816002015f828254613f609190614cc6565b9091555061401b9050565b73ffffffffffffffffffffffffffffffffffffffff84165f9081526020829052604090205482811015613ff0576040517fe450d38c00000000000000000000000000000000000000000000000000000000815273ffffffffffffffffffffffffffffffffffffffff861660048201526024810182905260448101849052606401611b8e565b73ffffffffffffffffffffffffffffffffffffffff85165f9081526020839052604090209083900390555b73ffffffffffffffffffffffffffffffffffffffff8316614046576002810180548390039055614071565b73ffffffffffffffffffffffffffffffffffffffff83165f9081526020829052604090208054830190555b8273ffffffffffffffffffffffffffffffffffffffff168473ffffffffffffffffffffffffffffffffffffffff167fddf252ad1be2c89b69c2b068fc378daa952ba7f163c4a11628f55a4df523b3ef8460405161221a91815260200190565b7fe8b26c30fad74198956032a3533d903385d56dd795af560196f9c78d4af40d0073ffffffffffffffffffffffffffffffffffffffff84166141225761411f8160020161426c6138ae856141d5565b50505b73ffffffffffffffffffffffffffffffffffffffff831661415357614150816002016141ca6138ae856141d5565b50505b73ffffffffffffffffffffffffffffffffffffffff8481165f9081527fe8b26c30fad74198956032a3533d903385d56dd795af560196f9c78d4af40d006020526040808220548684168352912054612e5f9291821691168461380c565b5f6141be60028484186150a9565b61103e90848416614cc6565b5f61103e82846150e1565b5f79ffffffffffffffffffffffffffffffffffffffffffffffffffff82111561363a576040517f6dfcc65000000000000000000000000000000000000000000000000000000000815260d0600482015260248101839052604401611b8e565b5f8061425f614241611c48565b61425761424d886130b5565b868863ffffffff16565b879190614308565b915091505b935093915050565b5f61103e8284615113565b5f7f8b73c3c69bb8fe3d512ecc4cf759cc79239f7b179b0ffacaa9a75d522b39400f6142a1614315565b6142a9614390565b60408051602081019490945283019190915260608201524660808201523060a082015260c00160405160208183030381529060405280519060200120905090565b5f6142f36132c8565b5468010000000000000000900460ff16919050565b5f8061425f8585856143e5565b5f7fa16a46d94261c7517cc8ff89f61c0ce93598e3c849801011dee649a6a557d10081614340612f87565b80519091501561435857805160209091012092915050565b81548015614367579392505050565b7fc5d2460186f7233c927e7db2dcc703c0e500b653ca82273b7bfad8045d85a470935050505090565b5f7fa16a46d94261c7517cc8ff89f61c0ce93598e3c849801011dee649a6a557d100816143bb61305a565b8051909150156143d357805160209091012092915050565b60018201548015614367579392505050565b82545f9081908015614536575f61440187612cbd600185614cd9565b805490915065ffffffffffff808216916601000000000000900479ffffffffffffffffffffffffffffffffffffffffffffffffffff16908816821115614473576040517f2520601d00000000000000000000000000000000000000000000000000000000815260040160405180910390fd5b8765ffffffffffff168265ffffffffffff16036144c257825465ffffffffffff16660100000000000079ffffffffffffffffffffffffffffffffffffffffffffffffffff891602178355614528565b6040805180820190915265ffffffffffff808a16825279ffffffffffffffffffffffffffffffffffffffffffffffffffff808a1660208085019182528d54600181018f555f8f815291909120945191519092166601000000000000029216919091179101555b945085935061426492505050565b50506040805180820190915265ffffffffffff808516825279ffffffffffffffffffffffffffffffffffffffffffffffffffff80851660208085019182528854600181018a555f8a8152918220955192519093166601000000000000029190931617920191909155905081614264565b803573ffffffffffffffffffffffffffffffffffffffff811681146145c9575f80fd5b919050565b5f80604083850312156145df575f80fd5b6145e8836145a6565b9150602083013580151581146145fc575f80fd5b809150509250929050565b5f81518084528060208401602086015e5f6020828601015260207fffffffffffffffffffffffffffffffffffffffffffffffffffffffffffffffe0601f83011685010191505092915050565b602081525f61103e6020830184614607565b5f8060408385031215614676575f80fd5b61467f836145a6565b946020939093013593505050565b803563ffffffff811681146145c9575f80fd5b5f602082840312156146b0575f80fd5b61103e8261468d565b5f602082840312156146c9575f80fd5b61103e826145a6565b5f8083601f8401126146e2575f80fd5b50813567ffffffffffffffff8111156146f9575f80fd5b602083019150836020828501011115614710575f80fd5b9250929050565b5f8060208385031215614728575f80fd5b823567ffffffffffffffff81111561473e575f80fd5b61474a858286016146d2565b90969095509350505050565b5f805f60608486031215614768575f80fd5b614771846145a6565b925061477f602085016145a6565b929592945050506040919091013590565b7f4e487b71000000000000000000000000000000000000000000000000000000005f52604160045260245ffd5b5f82601f8301126147cc575f80fd5b813567ffffffffffffffff8111156147e6576147e6614790565b6040517fffffffffffffffffffffffffffffffffffffffffffffffffffffffffffffffe0603f7fffffffffffffffffffffffffffffffffffffffffffffffffffffffffffffffe0601f8501160116810181811067ffffffffffffffff8211171561485257614852614790565b604052818152838201602001851015614869575f80fd5b816020850160208301375f918101602001919091529392505050565b5f8060408385031215614896575f80fd5b61489f836145a6565b9150602083013567ffffffffffffffff8111156148ba575f80fd5b6148c6858286016147bd565b9150509250929050565b5f805f604084860312156148e2575f80fd5b833567ffffffffffffffff8111156148f8575f80fd5b614904868287016146d2565b90945092505060208401356fffffffffffffffffffffffffffffffff8116811461492c575f80fd5b809150509250925092565b5f805f60408486031215614949575f80fd5b614952846145a6565b9250602084013567ffffffffffffffff81111561496d575f80fd5b614979868287016146d2565b9497909650939450505050565b7fff000000000000000000000000000000000000000000000000000000000000008816815260e060208201525f6149c060e0830189614607565b82810360408401526149d28189614607565b6060840188905273ffffffffffffffffffffffffffffffffffffffff8716608085015260a0840186905283810360c0850152845180825260208087019350909101905f5b81811015614a34578351835260209384019390920191600101614a16565b50909b9a5050505050505050505050565b5f60208284031215614a55575f80fd5b5035919050565b5f8060208385031215614a6d575f80fd5b823567ffffffffffffffff811115614a83575f80fd5b8301601f81018513614a93575f80fd5b803567ffffffffffffffff811115614aa9575f80fd5b8560208260051b8401011115614abd575f80fd5b6020919091019590945092505050565b5f602082016020835280845180835260408501915060408160051b8601019250602086015f5b82811015614b42577fffffffffffffffffffffffffffffffffffffffffffffffffffffffffffffffc0878603018452614b2d858351614607565b94506020938401939190910190600101614af3565b50929695505050505050565b5f60208284031215614b5e575f80fd5b813567ffffffffffffffff811115614b74575f80fd5b610efb848285016147bd565b5f805f805f8060c08789031215614b95575f80fd5b614b9e876145a6565b95506020870135945060408701359350606087013560ff81168114614bc1575f80fd5b9598949750929560808101359460a0909101359350915050565b5f8060408385031215614bec575f80fd5b614bf5836145a6565b9150614c03602084016145a6565b90509250929050565b5f8060408385031215614c1d575f80fd5b614c26836145a6565b9150614c036020840161468d565b818382375f9101908152919050565b7f4e487b71000000000000000000000000000000000000000000000000000000005f52601160045260245ffd5b6fffffffffffffffffffffffffffffffff818116838216019081111561104157611041614c43565b5f60208284031215614ca8575f80fd5b5051919050565b808202811582820484141761104157611041614c43565b8082018082111561104157611041614c43565b8181038181111561104157611041614c43565b600181811c90821680614d0057607f821691505b602082108103614d37577f4e487b71000000000000000000000000000000000000000000000000000000005f52602260045260245ffd5b50919050565b601f8211156132c357805f5260205f20601f840160051c81016020851015614d625750805b601f840160051c820191505b81811015613f0a575f8155600101614d6e565b67ffffffffffffffff831115614d9957614d99614790565b614dad83614da78354614cec565b83614d3d565b5f601f841160018114614dfd575f8515614dc75750838201355b7fffffffffffffffffffffffffffffffffffffffffffffffffffffffffffffffff600387901b1c1916600186901b178355613f0a565b5f838152602081207fffffffffffffffffffffffffffffffffffffffffffffffffffffffffffffffe08716915b82811015614e4a5786850135825560209485019460019092019101614e2a565b5086821015614e85577fffffffffffffffffffffffffffffffffffffffffffffffffffffffffffffffff60f88860031b161c19848701351681555b505060018560011b0183555050505050565b60208152816020820152818360408301375f818301604090810191909152601f9092017fffffffffffffffffffffffffffffffffffffffffffffffffffffffffffffffe0160101919050565b6fffffffffffffffffffffffffffffffff828116828216039081111561104157611041614c43565b7f4e487b71000000000000000000000000000000000000000000000000000000005f52601260045260245ffd5b7f4e487b71000000000000000000000000000000000000000000000000000000005f52602160045260245ffd5b815167ffffffffffffffff811115614f7f57614f7f614790565b614f9381614f8d8454614cec565b84614d3d565b6020601f821160018114614fe4575f8315614fae5750848201515b7fffffffffffffffffffffffffffffffffffffffffffffffffffffffffffffffff600385901b1c1916600184901b178455613f0a565b5f848152602081207fffffffffffffffffffffffffffffffffffffffffffffffffffffffffffffffe08516915b828110156150315787850151825560209485019460019092019101615011565b508482101561506d57868401517fffffffffffffffffffffffffffffffffffffffffffffffffffffffffffffffff600387901b60f8161c191681555b50505050600190811b01905550565b7f4e487b71000000000000000000000000000000000000000000000000000000005f52603260045260245ffd5b5f826150dc577f4e487b71000000000000000000000000000000000000000000000000000000005f52601260045260245ffd5b500490565b79ffffffffffffffffffffffffffffffffffffffffffffffffffff828116828216039081111561104157611041614c43565b79ffffffffffffffffffffffffffffffffffffffffffffffffffff818116838216019081111561104157611041614c4356fea164736f6c634300081a000a","linkReferences":{}},"methodIdentifiers":{"CLOCK_MODE()":"4bf5d7e9","activateBoost(address,bytes)":"9b05e781","activateBoostDelay()":"1778260f","allowance(address,address)":"dd62ed3e","approve(address,uint256)":"095ea7b3","balanceOf(address)":"70a08231","bgtTermsAndConditions()":"586d8b4c","boosted(address,bytes)":"441b76d8","boostedQueue(address,bytes)":"2477e76a","boostees(bytes)":"c160b284","boosts(address)":"fdabc986","burnExceedingReserves()":"471b57a3","cancelBoost(bytes,uint128)":"f59f3cbf","cancelDropBoost(bytes,uint128)":"9c8b0547","checkpoints(address,uint32)":"f1127ed8","clock()":"91ddadf4","decimals()":"313ce567","delegate(address)":"5c19a95c","delegateBySig(address,uint256,uint256,uint8,bytes32,bytes32)":"c3cda520","delegates(address)":"587cde1e","dropBoost(address,bytes)":"814d2614","dropBoostDelay()":"21ddb7df","dropBoostQueue(address,bytes)":"3b6ccac9","eip712Domain()":"84b0196e","getPastTotalSupply(uint256)":"8e539e8c","getPastVotes(address,uint256)":"3a46b1a8","getVotes(address)":"9ab24eb0","initialize(address)":"c4d66de8","isWhitelistedSender(address)":"1b9e2fad","mint(address,uint256)":"40c10f19","minter()":"07546172","multicall(bytes[])":"ac9650d8","name()":"06fdde03","nonces(address)":"7ecebe00","normalizedBoost(bytes)":"1e569d7b","numCheckpoints(address)":"6fcfff45","owner()":"8da5cb5b","queueBoost(bytes,uint128)":"489fa30a","queueDropBoost(bytes,uint128)":"2b153ce1","queuedBoost(address)":"fa8ce245","redeem(address,uint256)":"1e9a6950","renounceOwnership()":"715018a6","setActivateBoostDelay(uint32)":"0f85da32","setBgtTermsAndConditions(string)":"9750aad7","setDropBoostDelay(uint32)":"dc63bd40","setMinter(address)":"fca3b5aa","setStaker(address)":"a29a43bb","staker()":"5ebaf1db","symbol()":"95d89b41","totalBoosts()":"d66e54e1","totalSupply()":"18160ddd","transfer(address,uint256)":"a9059cbb","transferFrom(address,address,uint256)":"23b872dd","transferOwnership(address)":"f2fde38b","unboostedBalanceOf(address)":"9203ad5d","whitelistSender(address,bool)":"0613fef8"},"storageLayout":{"storage":[{"astId":77241,"contract":"src/pol/BGT.sol:BGT","label":"_blockRewardController","offset":0,"slot":"0","type":"t_address"},{"astId":77244,"contract":"src/pol/BGT.sol:BGT","label":"staker","offset":0,"slot":"1","type":"t_address"},{"astId":77247,"contract":"src/pol/BGT.sol:BGT","label":"activateBoostDelay","offset":20,"slot":"1","type":"t_uint32"},{"astId":77250,"contract":"src/pol/BGT.sol:BGT","label":"dropBoostDelay","offset":24,"slot":"1","type":"t_uint32"},{"astId":77253,"contract":"src/pol/BGT.sol:BGT","label":"bgtTermsAndConditions","offset":0,"slot":"2","type":"t_string_storage"},{"astId":77274,"contract":"src/pol/BGT.sol:BGT","label":"totalBoosts","offset":0,"slot":"3","type":"t_uint128"},{"astId":77282,"contract":"src/pol/BGT.sol:BGT","label":"boostedQueue","offset":0,"slot":"4","type":"t_mapping(t_address,t_mapping(t_bytes_memory_ptr,t_struct(QueuedBoost)77259_storage))"},{"astId":77290,"contract":"src/pol/BGT.sol:BGT","label":"dropBoostQueue","offset":0,"slot":"5","type":"t_mapping(t_address,t_mapping(t_bytes_memory_ptr,t_struct(QueuedDropBoost)77265_storage))"},{"astId":77297,"contract":"src/pol/BGT.sol:BGT","label":"boosted","offset":0,"slot":"6","type":"t_mapping(t_address,t_mapping(t_bytes_memory_ptr,t_uint128))"},{"astId":77303,"contract":"src/pol/BGT.sol:BGT","label":"userBoosts","offset":0,"slot":"7","type":"t_mapping(t_address,t_struct(UserBoost)77271_storage)"},{"astId":77308,"contract":"src/pol/BGT.sol:BGT","label":"boostees","offset":0,"slot":"8","type":"t_mapping(t_bytes_memory_ptr,t_uint128)"},{"astId":77313,"contract":"src/pol/BGT.sol:BGT","label":"isWhitelistedSender","offset":0,"slot":"9","type":"t_mapping(t_address,t_bool)"}],"types":{"t_address":{"encoding":"inplace","label":"address","numberOfBytes":"20"},"t_bool":{"encoding":"inplace","label":"bool","numberOfBytes":"1"},"t_bytes_memory_ptr":{"encoding":"bytes","label":"bytes","numberOfBytes":"32"},"t_mapping(t_address,t_bool)":{"encoding":"mapping","key":"t_address","label":"mapping(address => bool)","numberOfBytes":"32","value":"t_bool"},"t_mapping(t_address,t_mapping(t_bytes_memory_ptr,t_struct(QueuedBoost)77259_storage))":{"encoding":"mapping","key":"t_address","label":"mapping(address => mapping(bytes => struct BGT.QueuedBoost))","numberOfBytes":"32","value":"t_mapping(t_bytes_memory_ptr,t_struct(QueuedBoost)77259_storage)"},"t_mapping(t_address,t_mapping(t_bytes_memory_ptr,t_struct(QueuedDropBoost)77265_storage))":{"encoding":"mapping","key":"t_address","label":"mapping(address => mapping(bytes => struct BGT.QueuedDropBoost))","numberOfBytes":"32","value":"t_mapping(t_bytes_memory_ptr,t_struct(QueuedDropBoost)77265_storage)"},"t_mapping(t_address,t_mapping(t_bytes_memory_ptr,t_uint128))":{"encoding":"mapping","key":"t_address","label":"mapping(address => mapping(bytes => uint128))","numberOfBytes":"32","value":"t_mapping(t_bytes_memory_ptr,t_uint128)"},"t_mapping(t_address,t_struct(UserBoost)77271_storage)":{"encoding":"mapping","key":"t_address","label":"mapping(address => struct BGT.UserBoost)","numberOfBytes":"32","value":"t_struct(UserBoost)77271_storage"},"t_mapping(t_bytes_memory_ptr,t_struct(QueuedBoost)77259_storage)":{"encoding":"mapping","key":"t_bytes_memory_ptr","label":"mapping(bytes => struct BGT.QueuedBoost)","numberOfBytes":"32","value":"t_struct(QueuedBoost)77259_storage"},"t_mapping(t_bytes_memory_ptr,t_struct(QueuedDropBoost)77265_storage)":{"encoding":"mapping","key":"t_bytes_memory_ptr","label":"mapping(bytes => struct BGT.QueuedDropBoost)","numberOfBytes":"32","value":"t_struct(QueuedDropBoost)77265_storage"},"t_mapping(t_bytes_memory_ptr,t_uint128)":{"encoding":"mapping","key":"t_bytes_memory_ptr","label":"mapping(bytes => uint128)","numberOfBytes":"32","value":"t_uint128"},"t_string_storage":{"encoding":"bytes","label":"string","numberOfBytes":"32"},"t_struct(QueuedBoost)77259_storage":{"encoding":"inplace","label":"struct BGT.QueuedBoost","numberOfBytes":"32","members":[{"astId":77256,"contract":"src/pol/BGT.sol:BGT","label":"blockNumberLast","offset":0,"slot":"0","type":"t_uint32"},{"astId":77258,"contract":"src/pol/BGT.sol:BGT","label":"balance","offset":4,"slot":"0","type":"t_uint128"}]},"t_struct(QueuedDropBoost)77265_storage":{"encoding":"inplace","label":"struct BGT.QueuedDropBoost","numberOfBytes":"32","members":[{"astId":77262,"contract":"src/pol/BGT.sol:BGT","label":"blockNumberLast","offset":0,"slot":"0","type":"t_uint32"},{"astId":77264,"contract":"src/pol/BGT.sol:BGT","label":"balance","offset":4,"slot":"0","type":"t_uint128"}]},"t_struct(UserBoost)77271_storage":{"encoding":"inplace","label":"struct BGT.UserBoost","numberOfBytes":"32","members":[{"astId":77268,"contract":"src/pol/BGT.sol:BGT","label":"boost","offset":0,"slot":"0","type":"t_uint128"},{"astId":77270,"contract":"src/pol/BGT.sol:BGT","label":"queuedBoost","offset":16,"slot":"0","type":"t_uint128"}]},"t_uint128":{"encoding":"inplace","label":"uint128","numberOfBytes":"16"},"t_uint32":{"encoding":"inplace","label":"uint32","numberOfBytes":"4"}}},"id":131}