{"abi":[{"type":"receive","stateMutability":"payable"},{"type":"function","name":"DOMAIN_SEPARATOR","inputs":[],"outputs":[{"name":"result","type":"bytes32","internalType":"bytes32"}],"stateMutability":"view"},{"type":"function","name":"allowance","inputs":[{"name":"owner","type":"address","internalType":"address"},{"name":"spender","type":"address","internalType":"address"}],"outputs":[{"name":"result","type":"uint256","internalType":"uint256"}],"stateMutability":"view"},{"type":"function","name":"approve","inputs":[{"name":"spender","type":"address","internalType":"address"},{"name":"amount","type":"uint256","internalType":"uint256"}],"outputs":[{"name":"","type":"bool","internalType":"bool"}],"stateMutability":"nonpayable"},{"type":"function","name":"balanceOf","inputs":[{"name":"owner","type":"address","internalType":"address"}],"outputs":[{"name":"result","type":"uint256","internalType":"uint256"}],"stateMutability":"view"},{"type":"function","name":"decimals","inputs":[],"outputs":[{"name":"","type":"uint8","internalType":"uint8"}],"stateMutability":"view"},{"type":"function","name":"deposit","inputs":[],"outputs":[],"stateMutability":"payable"},{"type":"function","name":"name","inputs":[],"outputs":[{"name":"","type":"string","internalType":"string"}],"stateMutability":"pure"},{"type":"function","name":"nonces","inputs":[{"name":"owner","type":"address","internalType":"address"}],"outputs":[{"name":"result","type":"uint256","internalType":"uint256"}],"stateMutability":"view"},{"type":"function","name":"permit","inputs":[{"name":"owner","type":"address","internalType":"address"},{"name":"spender","type":"address","internalType":"address"},{"name":"value","type":"uint256","internalType":"uint256"},{"name":"deadline","type":"uint256","internalType":"uint256"},{"name":"v","type":"uint8","internalType":"uint8"},{"name":"r","type":"bytes32","internalType":"bytes32"},{"name":"s","type":"bytes32","internalType":"bytes32"}],"outputs":[],"stateMutability":"nonpayable"},{"type":"function","name":"symbol","inputs":[],"outputs":[{"name":"","type":"string","internalType":"string"}],"stateMutability":"pure"},{"type":"function","name":"totalSupply","inputs":[],"outputs":[{"name":"result","type":"uint256","internalType":"uint256"}],"stateMutability":"view"},{"type":"function","name":"transfer","inputs":[{"name":"to","type":"address","internalType":"address"},{"name":"amount","type":"uint256","internalType":"uint256"}],"outputs":[{"name":"","type":"bool","internalType":"bool"}],"stateMutability":"nonpayable"},{"type":"function","name":"transferFrom","inputs":[{"name":"from","type":"address","internalType":"address"},{"name":"to","type":"address","internalType":"address"},{"name":"amount","type":"uint256","internalType":"uint256"}],"outputs":[{"name":"","type":"bool","internalType":"bool"}],"stateMutability":"nonpayable"},{"type":"function","name":"withdraw","inputs":[{"name":"amount","type":"uint256","internalType":"uint256"}],"outputs":[],"stateMutability":"nonpayable"},{"type":"event","name":"Approval","inputs":[{"name":"owner","type":"address","indexed":true,"internalType":"address"},{"name":"spender","type":"address","indexed":true,"internalType":"address"},{"name":"amount","type":"uint256","indexed":false,"internalType":"uint256"}],"anonymous":false},{"type":"event","name":"Transfer","inputs":[{"name":"from","type":"address","indexed":true,"internalType":"address"},{"name":"to","type":"address","indexed":true,"internalType":"address"},{"name":"amount","type":"uint256","indexed":false,"internalType":"uint256"}],"anonymous":false},{"type":"error","name":"AllowanceOverflow","inputs":[]},{"type":"error","name":"AllowanceUnderflow","inputs":[]},{"type":"error","name":"ETHTransferFailed","inputs":[]},{"type":"error","name":"InsufficientAllowance","inputs":[]},{"type":"error","name":"InsufficientBalance","inputs":[]},{"type":"error","name":"InvalidPermit","inputs":[]},{"type":"error","name":"Permit2AllowanceIsFixedAtInfinity","inputs":[]},{"type":"error","name":"PermitExpired","inputs":[]},{"type":"error","name":"TotalSupplyOverflow","inputs":[]}],"bytecode":{"object":"0x6080604052348015600e575f80fd5b50610a248061001c5f395ff3fe6080604052600436106100dc575f3560e01c806370a082311161007c578063a9059cbb11610057578063a9059cbb14610365578063d0e30db014610384578063d505accf1461038c578063dd62ed3e146103ab575f80fd5b806370a08231146102be5780637ecebe00146102ef57806395d89b4114610320575f80fd5b806323b872dd116100b757806323b872dd1461019b5780632e1a7d4d146101ba578063313ce567146101d95780633644e515146101f4575f80fd5b806306fdde03146100ef578063095ea7b31461014657806318160ddd14610175575f80fd5b366100eb576100e96103df565b005b5f80fd5b3480156100fa575f80fd5b5060408051808201909152600c81527f577261707065642042657261000000000000000000000000000000000000000060208201525b60405161013d9190610865565b60405180910390f35b348015610151575f80fd5b506101656101603660046108e0565b6103eb565b604051901515815260200161013d565b348015610180575f80fd5b506805345cdf77eb68f44c545b60405190815260200161013d565b3480156101a6575f80fd5b506101656101b5366004610908565b61043a565b3480156101c5575f80fd5b506100e96101d4366004610942565b6104f2565b3480156101e4575f80fd5b506040516012815260200161013d565b3480156101ff575f80fd5b50604080518082018252600c81527f577261707065642042657261000000000000000000000000000000000000000060209182015281517f8b73c3c69bb8fe3d512ecc4cf759cc79239f7b179b0ffacaa9a75d522b39400f81527fb6c9387dd48cdde7d71a807357f57f1fef05232a4af3ed7fdf1f050c8e1a69fe918101919091527fc89efdaa54c0f20c7adf612882df0950f5a951637e0307cdcb4c672f298b8bc69181019190915246606082015230608082015260a0902061018d565b3480156102c9575f80fd5b5061018d6102d8366004610959565b6387a211a2600c9081525f91909152602090205490565b3480156102fa575f80fd5b5061018d610309366004610959565b6338377508600c9081525f91909152602090205490565b34801561032b575f80fd5b5060408051808201909152600581527f57424552410000000000000000000000000000000000000000000000000000006020820152610130565b348015610370575f80fd5b5061016561037f3660046108e0565b610518565b6100e96103df565b348015610397575f80fd5b506100e96103a6366004610979565b61058f565b3480156103b6575f80fd5b5061018d6103c53660046109e6565b602052637f5e9f20600c9081525f91909152603490205490565b6103e93334610768565b565b5f82602052637f5e9f20600c52335f52816034600c2055815f52602c5160601c337f8c5be1e5ebec7d5bd14f71427d1e84f3dd0314c0f7b2291e5b200ac8c7c3b92560205fa350600192915050565b5f8360601b33602052637f5e9f208117600c526034600c2080548019156104765780851115610470576313be252b5f526004601cfd5b84810382555b50506387a211a28117600c526020600c2080548085111561049e5763f4d678b85f526004601cfd5b84810382555050835f526020600c208381540181555082602052600c5160601c8160601c7fddf252ad1be2c89b69c2b068fc378daa952ba7f163c4a11628f55a4df523b3ef602080a3505060019392505050565b6104fc33826107e4565b5f385f3884335af16105155763b12d13eb5f526004601cfd5b50565b5f6387a211a2600c52335f526020600c208054808411156105405763f4d678b85f526004601cfd5b83810382555050825f526020600c208281540181555081602052600c5160601c337fddf252ad1be2c89b69c2b068fc378daa952ba7f163c4a11628f55a4df523b3ef602080a350600192915050565b60408051808201909152600c81527f57726170706564204265726100000000000000000000000000000000000000006020909101527fb6c9387dd48cdde7d71a807357f57f1fef05232a4af3ed7fdf1f050c8e1a69fe7fc89efdaa54c0f20c7adf612882df0950f5a951637e0307cdcb4c672f298b8bc64286101561061b57631a15a3cc5f526004601cfd5b6040518960601b60601c99508860601b60601c985065383775081901600e52895f526020600c2080547f8b73c3c69bb8fe3d512ecc4cf759cc79239f7b179b0ffacaa9a75d522b39400f835284602084015283604084015246606084015230608084015260a08320602e527f6e71edae12b1b97f4d1f60370fef10105fa2faae0126114a169c64845d6126c983528b60208401528a60408401528960608401528060808401528860a084015260c08320604e526042602c205f528760ff16602052866040528560605260208060805f60015afa8c3d51146107035763ddafbaef5f526004601cfd5b019055777f5e9f20000000000000000000000000000000000000000089176040526034602c20889055888a7f8c5be1e5ebec7d5bd14f71427d1e84f3dd0314c0f7b2291e5b200ac8c7c3b925602060608501a360405250505f60605250505050505050565b6805345cdf77eb68f44c548181018181101561078b5763e5cfe9575f526004601cfd5b806805345cdf77eb68f44c5550506387a211a2600c52815f526020600c208181540181555080602052600c5160601c5f7fddf252ad1be2c89b69c2b068fc378daa952ba7f163c4a11628f55a4df523b3ef602080a35050565b6387a211a2600c52815f526020600c2080548083111561080b5763f4d678b85f526004601cfd5b82900390556805345cdf77eb68f44c805482900390555f81815273ffffffffffffffffffffffffffffffffffffffff83167fddf252ad1be2c89b69c2b068fc378daa952ba7f163c4a11628f55a4df523b3ef602083a35050565b602081525f82518060208401528060208501604085015e5f6040828501015260407fffffffffffffffffffffffffffffffffffffffffffffffffffffffffffffffe0601f83011684010191505092915050565b803573ffffffffffffffffffffffffffffffffffffffff811681146108db575f80fd5b919050565b5f80604083850312156108f1575f80fd5b6108fa836108b8565b946020939093013593505050565b5f805f6060848603121561091a575f80fd5b610923846108b8565b9250610931602085016108b8565b929592945050506040919091013590565b5f60208284031215610952575f80fd5b5035919050565b5f60208284031215610969575f80fd5b610972826108b8565b9392505050565b5f805f805f805f60e0888a03121561098f575f80fd5b610998886108b8565b96506109a6602089016108b8565b95506040880135945060608801359350608088013560ff811681146109c9575f80fd5b9699959850939692959460a0840135945060c09093013592915050565b5f80604083850312156109f7575f80fd5b610a00836108b8565b9150610a0e602084016108b8565b9050925092905056fea164736f6c634300081a000a","linkReferences":{}},"methodIdentifiers":{"DOMAIN_SEPARATOR()":"3644e515","allowance(address,address)":"dd62ed3e","approve(address,uint256)":"095ea7b3","balanceOf(address)":"70a08231","decimals()":"313ce567","deposit()":"d0e30db0","name()":"06fdde03","nonces(address)":"7ecebe00","permit(address,address,uint256,uint256,uint8,bytes32,bytes32)":"d505accf","symbol()":"95d89b41","totalSupply()":"18160ddd","transfer(address,uint256)":"a9059cbb","transferFrom(address,address,uint256)":"23b872dd","withdraw(uint256)":"2e1a7d4d"},"storageLayout":{"storage":[],"types":{}},"id":104}