{"abi":[{"type":"constructor","inputs":[{"name":"initialOwner","type":"address","internalType":"address"},{"name":"initialImplementation","type":"address","internalType":"address"}],"stateMutability":"payable"},{"type":"function","name":"implementation","inputs":[],"outputs":[{"name":"result","type":"address","internalType":"address"}],"stateMutability":"view"},{"type":"function","name":"owner","inputs":[],"outputs":[{"name":"result","type":"address","internalType":"address"}],"stateMutability":"view"},{"type":"function","name":"renounceOwnership","inputs":[],"outputs":[],"stateMutability":"nonpayable"},{"type":"function","name":"transferOwnership","inputs":[{"name":"newOwner","type":"address","internalType":"address"}],"outputs":[],"stateMutability":"nonpayable"},{"type":"function","name":"upgradeTo","inputs":[{"name":"newImplementation","type":"address","internalType":"address"}],"outputs":[],"stateMutability":"nonpayable"},{"type":"event","name":"OwnershipTransferred","inputs":[{"name":"oldOwner","type":"address","indexed":true,"internalType":"address"},{"name":"newOwner","type":"address","indexed":true,"internalType":"address"}],"anonymous":false},{"type":"event","name":"Upgraded","inputs":[{"name":"implementation","type":"address","indexed":true,"internalType":"address"}],"anonymous":false},{"type":"error","name":"NewImplementationHasNoCode","inputs":[]},{"type":"error","name":"NewOwnerIsZeroAddress","inputs":[]},{"type":"error","name":"Unauthorized","inputs":[]}],"bytecode":{"object":"0x608060405260405161037c38038061037c83398101604081905261002291610108565b61002c8282610033565b5050610139565b61003d8282610041565b5050565b61004a82610053565b61003d8161009d565b8060601b60601c9050684343a0dc92ed22dbfc5481684343a0dc92ed22dbfc5581817f8be0079c531659141344cd1fd0a4f28419497f9722a3daafe3b4186f6b6457e05f38a35050565b6001600160a01b0316803b6100b957636d3e283b5f526004601cfd5b8068911c5a209f08d5ec5e55807fbc7cd75a20ee27fd9adebab32041f755214dbc6bffa90cc0225b39da2e5c2d3b5f38a250565b80516001600160a01b0381168114610103575f80fd5b919050565b5f8060408385031215610119575f80fd5b610122836100ed565b9150610130602084016100ed565b90509250929050565b610236806101465f395ff3fe608060405234801561000f575f80fd5b5060043610610064575f3560e01c8063715018a61161004d578063715018a6146100b25780638da5cb5b146100ba578063f2fde38b146100ca575f80fd5b80633659cfe6146100685780635c60da1b1461007d575b5f80fd5b61007b6100763660046101ef565b6100dd565b005b68911c5a209f08d5ec5e545b60405173ffffffffffffffffffffffffffffffffffffffff909116815260200160405180910390f35b61007b6100f1565b684343a0dc92ed22dbfc54610089565b61007b6100d83660046101ef565b610104565b6100e561012a565b6100ee81610148565b50565b6100f961012a565b6101025f6101a5565b565b61010c61012a565b8060601b61012157637448fbae5f526004601cfd5b6100ee816101a5565b684343a0dc92ed22dbfc543314610102576382b429005f526004601cfd5b73ffffffffffffffffffffffffffffffffffffffff16803b61017157636d3e283b5f526004601cfd5b8068911c5a209f08d5ec5e55807fbc7cd75a20ee27fd9adebab32041f755214dbc6bffa90cc0225b39da2e5c2d3b5f38a250565b8060601b60601c9050684343a0dc92ed22dbfc5481684343a0dc92ed22dbfc5581817f8be0079c531659141344cd1fd0a4f28419497f9722a3daafe3b4186f6b6457e05f38a35050565b5f602082840312156101ff575f80fd5b813573ffffffffffffffffffffffffffffffffffffffff81168114610222575f80fd5b939250505056fea164736f6c634300081a000a","linkReferences":{}},"methodIdentifiers":{"implementation()":"5c60da1b","owner()":"8da5cb5b","renounceOwnership()":"715018a6","transferOwnership(address)":"f2fde38b","upgradeTo(address)":"3659cfe6"},"storageLayout":{"storage":[],"types":{}},"id":26}