{"abi":[{"type":"function","name":"getPrice","inputs":[{"name":"asset","type":"address","internalType":"address"}],"outputs":[{"name":"data","type":"tuple","internalType":"struct IPriceOracle.Data","components":[{"name":"price","type":"uint256","internalType":"uint256"},{"name":"publishTime","type":"uint256","internalType":"uint256"}]}],"stateMutability":"view"},{"type":"function","name":"getPriceNoOlderThan","inputs":[{"name":"asset","type":"address","internalType":"address"},{"name":"age","type":"uint256","internalType":"uint256"}],"outputs":[{"name":"data","type":"tuple","internalType":"struct IPriceOracle.Data","components":[{"name":"price","type":"uint256","internalType":"uint256"},{"name":"publishTime","type":"uint256","internalType":"uint256"}]}],"stateMutability":"view"},{"type":"function","name":"getPriceUnsafe","inputs":[{"name":"asset","type":"address","internalType":"address"}],"outputs":[{"name":"data","type":"tuple","internalType":"struct IPriceOracle.Data","components":[{"name":"price","type":"uint256","internalType":"uint256"},{"name":"publishTime","type":"uint256","internalType":"uint256"}]}],"stateMutability":"view"},{"type":"function","name":"priceAvailable","inputs":[{"name":"asset","type":"address","internalType":"address"}],"outputs":[{"name":"","type":"bool","internalType":"bool"}],"stateMutability":"pure"},{"type":"error","name":"UnavailableData","inputs":[{"name":"asset","type":"address","internalType":"address"}]},{"type":"error","name":"ZeroAddress","inputs":[]}],"bytecode":{"object":"0x6080604052348015600e575f80fd5b506101c38061001c5f395ff3fe608060405234801561000f575f80fd5b506004361061004a575f3560e01c806341976e091461004e578063b5641f3a14610081578063c442b439146100a5578063f989568d1461004e575b5f80fd5b61006161005c366004610175565b6100b8565b604080518251815260209283015192810192909252015b60405180910390f35b61009561008f366004610175565b50600190565b6040519015158152602001610078565b6100616100b336600461018e565b610102565b604080518082019091525f80825260208201526100fc6040805180820182525f8082526020918201528151808301909252670de0b6b3a76400008252429082015290565b92915050565b604080518082019091525f80825260208201526101466040805180820182525f8082526020918201528151808301909252670de0b6b3a76400008252429082015290565b9392505050565b803573ffffffffffffffffffffffffffffffffffffffff81168114610170575f80fd5b919050565b5f60208284031215610185575f80fd5b6101468261014d565b5f806040838503121561019f575f80fd5b6101a88361014d565b94602093909301359350505056fea164736f6c634300081a000a","linkReferences":{}},"methodIdentifiers":{"getPrice(address)":"41976e09","getPriceNoOlderThan(address,uint256)":"c442b439","getPriceUnsafe(address)":"f989568d","priceAvailable(address)":"b5641f3a"},"storageLayout":{"storage":[],"types":{}},"id":112}