{"abi":[{"type":"constructor","inputs":[],"stateMutability":"nonpayable"},{"type":"function","name":"MAX_BASE_RATE","inputs":[],"outputs":[{"name":"","type":"uint256","internalType":"uint256"}],"stateMutability":"view"},{"type":"function","name":"MAX_BOOST_MULTIPLIER","inputs":[],"outputs":[{"name":"","type":"uint256","internalType":"uint256"}],"stateMutability":"view"},{"type":"function","name":"MAX_MIN_BOOSTED_REWARD_RATE","inputs":[],"outputs":[{"name":"","type":"uint256","internalType":"uint256"}],"stateMutability":"view"},{"type":"function","name":"MAX_REWARD_CONVEXITY","inputs":[],"outputs":[{"name":"","type":"uint256","internalType":"uint256"}],"stateMutability":"view"},{"type":"function","name":"MAX_REWARD_RATE","inputs":[],"outputs":[{"name":"","type":"uint256","internalType":"uint256"}],"stateMutability":"view"},{"type":"function","name":"UPGRADE_INTERFACE_VERSION","inputs":[],"outputs":[{"name":"","type":"string","internalType":"string"}],"stateMutability":"view"},{"type":"function","name":"baseRate","inputs":[],"outputs":[{"name":"","type":"uint256","internalType":"uint256"}],"stateMutability":"view"},{"type":"function","name":"beaconDepositContract","inputs":[],"outputs":[{"name":"","type":"address","internalType":"contract IBeaconDeposit"}],"stateMutability":"view"},{"type":"function","name":"bgt","inputs":[],"outputs":[{"name":"","type":"address","internalType":"contract BGT"}],"stateMutability":"view"},{"type":"function","name":"boostMultiplier","inputs":[],"outputs":[{"name":"","type":"uint256","internalType":"uint256"}],"stateMutability":"view"},{"type":"function","name":"computeReward","inputs":[{"name":"boostPower","type":"uint256","internalType":"uint256"},{"name":"_rewardRate","type":"uint256","internalType":"uint256"},{"name":"_boostMultiplier","type":"uint256","internalType":"uint256"},{"name":"_rewardConvexity","type":"int256","internalType":"int256"}],"outputs":[{"name":"reward","type":"uint256","internalType":"uint256"}],"stateMutability":"pure"},{"type":"function","name":"distributor","inputs":[],"outputs":[{"name":"","type":"address","internalType":"address"}],"stateMutability":"view"},{"type":"function","name":"getMaxBGTPerBlock","inputs":[],"outputs":[{"name":"amount","type":"uint256","internalType":"uint256"}],"stateMutability":"view"},{"type":"function","name":"initialize","inputs":[{"name":"_bgt","type":"address","internalType":"address"},{"name":"_distributor","type":"address","internalType":"address"},{"name":"_beaconDepositContract","type":"address","internalType":"address"},{"name":"_governance","type":"address","internalType":"address"}],"outputs":[],"stateMutability":"nonpayable"},{"type":"function","name":"minBoostedRewardRate","inputs":[],"outputs":[{"name":"","type":"uint256","internalType":"uint256"}],"stateMutability":"view"},{"type":"function","name":"owner","inputs":[],"outputs":[{"name":"","type":"address","internalType":"address"}],"stateMutability":"view"},{"type":"function","name":"processRewards","inputs":[{"name":"pubkey","type":"bytes","internalType":"bytes"},{"name":"nextTimestamp","type":"uint64","internalType":"uint64"},{"name":"isReady","type":"bool","internalType":"bool"}],"outputs":[{"name":"","type":"uint256","internalType":"uint256"}],"stateMutability":"nonpayable"},{"type":"function","name":"proxiableUUID","inputs":[],"outputs":[{"name":"","type":"bytes32","internalType":"bytes32"}],"stateMutability":"view"},{"type":"function","name":"renounceOwnership","inputs":[],"outputs":[],"stateMutability":"nonpayable"},{"type":"function","name":"rewardConvexity","inputs":[],"outputs":[{"name":"","type":"int256","internalType":"int256"}],"stateMutability":"view"},{"type":"function","name":"rewardRate","inputs":[],"outputs":[{"name":"","type":"uint256","internalType":"uint256"}],"stateMutability":"view"},{"type":"function","name":"setBaseRate","inputs":[{"name":"_baseRate","type":"uint256","internalType":"uint256"}],"outputs":[],"stateMutability":"nonpayable"},{"type":"function","name":"setBoostMultiplier","inputs":[{"name":"_boostMultiplier","type":"uint256","internalType":"uint256"}],"outputs":[],"stateMutability":"nonpayable"},{"type":"function","name":"setDistributor","inputs":[{"name":"_distributor","type":"address","internalType":"address"}],"outputs":[],"stateMutability":"nonpayable"},{"type":"function","name":"setMinBoostedRewardRate","inputs":[{"name":"_minBoostedRewardRate","type":"uint256","internalType":"uint256"}],"outputs":[],"stateMutability":"nonpayable"},{"type":"function","name":"setRewardConvexity","inputs":[{"name":"_rewardConvexity","type":"uint256","internalType":"uint256"}],"outputs":[],"stateMutability":"nonpayable"},{"type":"function","name":"setRewardRate","inputs":[{"name":"_rewardRate","type":"uint256","internalType":"uint256"}],"outputs":[],"stateMutability":"nonpayable"},{"type":"function","name":"transferOwnership","inputs":[{"name":"newOwner","type":"address","internalType":"address"}],"outputs":[],"stateMutability":"nonpayable"},{"type":"function","name":"upgradeToAndCall","inputs":[{"name":"newImplementation","type":"address","internalType":"address"},{"name":"data","type":"bytes","internalType":"bytes"}],"outputs":[],"stateMutability":"payable"},{"type":"event","name":"BaseRateChanged","inputs":[{"name":"oldBaseRate","type":"uint256","indexed":false,"internalType":"uint256"},{"name":"newBaseRate","type":"uint256","indexed":false,"internalType":"uint256"}],"anonymous":false},{"type":"event","name":"BlockRewardProcessed","inputs":[{"name":"pubkey","type":"bytes","indexed":true,"internalType":"bytes"},{"name":"nextTimestamp","type":"uint64","indexed":false,"internalType":"uint64"},{"name":"baseRate","type":"uint256","indexed":false,"internalType":"uint256"},{"name":"rewardRate","type":"uint256","indexed":false,"internalType":"uint256"}],"anonymous":false},{"type":"event","name":"BoostMultiplierChanged","inputs":[{"name":"oldBoostMultiplier","type":"uint256","indexed":false,"internalType":"uint256"},{"name":"newBoostMultiplier","type":"uint256","indexed":false,"internalType":"uint256"}],"anonymous":false},{"type":"event","name":"Initialized","inputs":[{"name":"version","type":"uint64","indexed":false,"internalType":"uint64"}],"anonymous":false},{"type":"event","name":"MinBoostedRewardRateChanged","inputs":[{"name":"oldMinBoostedRewardRate","type":"uint256","indexed":false,"internalType":"uint256"},{"name":"newMinBoostedRewardRate","type":"uint256","indexed":false,"internalType":"uint256"}],"anonymous":false},{"type":"event","name":"OwnershipTransferred","inputs":[{"name":"previousOwner","type":"address","indexed":true,"internalType":"address"},{"name":"newOwner","type":"address","indexed":true,"internalType":"address"}],"anonymous":false},{"type":"event","name":"RewardConvexityChanged","inputs":[{"name":"oldRewardConvexity","type":"uint256","indexed":false,"internalType":"uint256"},{"name":"newRewardConvexity","type":"uint256","indexed":false,"internalType":"uint256"}],"anonymous":false},{"type":"event","name":"RewardRateChanged","inputs":[{"name":"oldRewardRate","type":"uint256","indexed":false,"internalType":"uint256"},{"name":"newRewardRate","type":"uint256","indexed":false,"internalType":"uint256"}],"anonymous":false},{"type":"event","name":"SetDistributor","inputs":[{"name":"rewardDistribution","type":"address","indexed":true,"internalType":"address"}],"anonymous":false},{"type":"event","name":"Upgraded","inputs":[{"name":"implementation","type":"address","indexed":true,"internalType":"address"}],"anonymous":false},{"type":"error","name":"AddressEmptyCode","inputs":[{"name":"target","type":"address","internalType":"address"}]},{"type":"error","name":"AmountLessThanMinIncentiveRate","inputs":[]},{"type":"error","name":"CannotRecoverIncentiveToken","inputs":[]},{"type":"error","name":"CannotRecoverRewardToken","inputs":[]},{"type":"error","name":"CannotRecoverStakingToken","inputs":[]},{"type":"error","name":"CommissionChangeAlreadyQueued","inputs":[]},{"type":"error","name":"CommissionNotQueuedOrDelayNotPassed","inputs":[]},{"type":"error","name":"DepositNotMultipleOfGwei","inputs":[]},{"type":"error","name":"DepositValueTooHigh","inputs":[]},{"type":"error","name":"DonateAmountLessThanPayoutAmount","inputs":[]},{"type":"error","name":"ERC1967InvalidImplementation","inputs":[{"name":"implementation","type":"address","internalType":"address"}]},{"type":"error","name":"ERC1967NonPayable","inputs":[]},{"type":"error","name":"FailedCall","inputs":[]},{"type":"error","name":"IncentiveRateTooHigh","inputs":[]},{"type":"error","name":"IndexOutOfRange","inputs":[]},{"type":"error","name":"InsolventReward","inputs":[]},{"type":"error","name":"InsufficientDelegateStake","inputs":[]},{"type":"error","name":"InsufficientDeposit","inputs":[]},{"type":"error","name":"InsufficientIncentiveTokens","inputs":[]},{"type":"error","name":"InsufficientSelfStake","inputs":[]},{"type":"error","name":"InsufficientStake","inputs":[]},{"type":"error","name":"InvalidActivateBoostDelay","inputs":[]},{"type":"error","name":"InvalidArray","inputs":[]},{"type":"error","name":"InvalidBaseRate","inputs":[]},{"type":"error","name":"InvalidBoostMultiplier","inputs":[]},{"type":"error","name":"InvalidCommissionChangeDelay","inputs":[]},{"type":"error","name":"InvalidCommissionValue","inputs":[]},{"type":"error","name":"InvalidCredentialsLength","inputs":[]},{"type":"error","name":"InvalidDistribution","inputs":[]},{"type":"error","name":"InvalidDropBoostDelay","inputs":[]},{"type":"error","name":"InvalidIncentiveRate","inputs":[]},{"type":"error","name":"InvalidInitialization","inputs":[]},{"type":"error","name":"InvalidMaxIncentiveTokensCount","inputs":[]},{"type":"error","name":"InvalidMaxWeightPerVault","inputs":[]},{"type":"error","name":"InvalidMerkleRoot","inputs":[]},{"type":"error","name":"InvalidMinBoostedRewardRate","inputs":[]},{"type":"error","name":"InvalidProof","inputs":[]},{"type":"error","name":"InvalidPubKeyLength","inputs":[]},{"type":"error","name":"InvalidRewardAllocationWeights","inputs":[]},{"type":"error","name":"InvalidRewardClaimDelay","inputs":[]},{"type":"error","name":"InvalidRewardConvexity","inputs":[]},{"type":"error","name":"InvalidRewardRate","inputs":[]},{"type":"error","name":"InvalidSignatureLength","inputs":[]},{"type":"error","name":"InvalidStartBlock","inputs":[]},{"type":"error","name":"InvalidToken","inputs":[]},{"type":"error","name":"InvalidWeight","inputs":[]},{"type":"error","name":"InvalidateDefaultRewardAllocation","inputs":[]},{"type":"error","name":"InvariantCheckFailed","inputs":[]},{"type":"error","name":"MaxNumWeightsPerRewardAllocationIsZero","inputs":[]},{"type":"error","name":"MinIncentiveRateIsZero","inputs":[]},{"type":"error","name":"NotAContract","inputs":[]},{"type":"error","name":"NotApprovedSender","inputs":[]},{"type":"error","name":"NotBGT","inputs":[]},{"type":"error","name":"NotBlockRewardController","inputs":[]},{"type":"error","name":"NotDelegate","inputs":[]},{"type":"error","name":"NotDistributor","inputs":[]},{"type":"error","name":"NotEnoughBalance","inputs":[]},{"type":"error","name":"NotEnoughBoostedBalance","inputs":[]},{"type":"error","name":"NotEnoughTime","inputs":[]},{"type":"error","name":"NotFactoryVault","inputs":[]},{"type":"error","name":"NotFeeCollector","inputs":[]},{"type":"error","name":"NotIncentiveManager","inputs":[]},{"type":"error","name":"NotInitializing","inputs":[]},{"type":"error","name":"NotNewOperator","inputs":[]},{"type":"error","name":"NotOperator","inputs":[]},{"type":"error","name":"NotWhitelistedVault","inputs":[]},{"type":"error","name":"OperatorAlreadySet","inputs":[]},{"type":"error","name":"OwnableInvalidOwner","inputs":[{"name":"owner","type":"address","internalType":"address"}]},{"type":"error","name":"OwnableUnauthorizedAccount","inputs":[{"name":"account","type":"address","internalType":"address"}]},{"type":"error","name":"PayoutAmountIsZero","inputs":[]},{"type":"error","name":"RewardAllocationAlreadyQueued","inputs":[]},{"type":"error","name":"RewardAllocationBlockDelayTooLarge","inputs":[]},{"type":"error","name":"RewardCycleNotEnded","inputs":[]},{"type":"error","name":"RewardInactive","inputs":[]},{"type":"error","name":"RewardsDurationIsZero","inputs":[]},{"type":"error","name":"StakeAmountIsZero","inputs":[]},{"type":"error","name":"TimestampAlreadyProcessed","inputs":[]},{"type":"error","name":"TokenAlreadyWhitelistedOrLimitReached","inputs":[]},{"type":"error","name":"TokenNotWhitelisted","inputs":[]},{"type":"error","name":"TooManyWeights","inputs":[]},{"type":"error","name":"TotalSupplyOverflow","inputs":[]},{"type":"error","name":"UUPSUnauthorizedCallContext","inputs":[]},{"type":"error","name":"UUPSUnsupportedProxiableUUID","inputs":[{"name":"slot","type":"bytes32","internalType":"bytes32"}]},{"type":"error","name":"WithdrawAmountIsZero","inputs":[]},{"type":"error","name":"ZeroAddress","inputs":[]},{"type":"error","name":"ZeroOperatorOnFirstDeposit","inputs":[]},{"type":"error","name":"ZeroPercentageWeight","inputs":[]}],"bytecode":{"object":"0x60a060405230608052348015610013575f80fd5b5061001c610021565b6100d3565b7ff0c57e16840df040f15088dc2f81fe391c3923bec73e23a9662efc9c229c6a00805468010000000000000000900460ff16156100715760405163f92ee8a960e01b815260040160405180910390fd5b80546001600160401b03908116146100d05780546001600160401b0319166001600160401b0390811782556040519081527fc7f505b2f371ae2175ee4913f4499e1f2633a7b5936321eed1cdaeb6115181d29060200160405180910390a15b50565b6080516121576100f95f395f81816110dc01528181611105015261132601526121575ff3fe6080604052600436106101ba575f3560e01c80637bf96014116100f2578063ad3cb1cc11610092578063eafe0f4c11610062578063eafe0f4c146104bd578063f0c389f3146104e9578063f2fde38b14610508578063f8c8765e14610527575f80fd5b8063ad3cb1cc14610408578063add5fb321461045d578063bfe109281461047c578063defc56d0146104a8575f80fd5b806393c46737116100cd57806393c46737146102c45780639a6c31c4146103a95780639e447fc6146103d4578063a003aac4146103f3575f80fd5b80637bf96014146102c45780638da5cb5b1461032b5780638fa158b814610395575f80fd5b806352d1902d1161015d578063718dc3c311610138578063718dc3c3146102c4578063720fd3c7146102d857806375619ab5146102f75780637b0a47ee14610316575f80fd5b806352d1902d1461027d5780636a6ec46614610291578063715018a6146102b0575f80fd5b806338783dc31161019857806338783dc314610222578063399211d414610236578063409dafe0146102555780634f1ef2861461026a575f80fd5b80630e1ef02c146101be5780631d08837b146101ec5780631f68f20a1461020d575b5f80fd5b3480156101c9575f80fd5b506101d9670de0b6b3a764000081565b6040519081526020015b60405180910390f35b3480156101f7575f80fd5b5061020b610206366004611c5a565b610546565b005b348015610218575f80fd5b506101d960035481565b34801561022d575f80fd5b506101d96105d2565b348015610241575f80fd5b506101d9610250366004611c85565b610610565b348015610260575f80fd5b506101d960075481565b61020b610278366004611d6d565b610947565b348015610288575f80fd5b506101d9610966565b34801561029c575f80fd5b506101d96102ab366004611e70565b610994565b3480156102bb575f80fd5b5061020b610a52565b3480156102cf575f80fd5b506101d9610a65565b3480156102e3575f80fd5b5061020b6102f2366004611c5a565b610a7b565b348015610302575f80fd5b5061020b610311366004611e9f565b610b07565b348015610321575f80fd5b506101d960045481565b348015610336575f80fd5b507f9016d09d72d40fdae2fd8ceac6b6234c7706214fd39c1cd1e609a0528c1993005473ffffffffffffffffffffffffffffffffffffffff165b60405173ffffffffffffffffffffffffffffffffffffffff90911681526020016101e3565b3480156103a0575f80fd5b506101d9610bda565b3480156103b4575f80fd5b505f546103709073ffffffffffffffffffffffffffffffffffffffff1681565b3480156103df575f80fd5b5061020b6103ee366004611c5a565b610bed565b3480156103fe575f80fd5b506101d960065481565b348015610413575f80fd5b506104506040518060400160405280600581526020017f352e302e3000000000000000000000000000000000000000000000000000000081525081565b6040516101e39190611eba565b348015610468575f80fd5b5061020b610477366004611c5a565b610c79565b348015610487575f80fd5b506002546103709073ffffffffffffffffffffffffffffffffffffffff1681565b3480156104b3575f80fd5b506101d960055481565b3480156104c8575f80fd5b506001546103709073ffffffffffffffffffffffffffffffffffffffff1681565b3480156104f4575f80fd5b5061020b610503366004611c5a565b610d05565b348015610513575f80fd5b5061020b610522366004611e9f565b610d90565b348015610532575f80fd5b5061020b610541366004611f0d565b610df8565b61054e61102e565b610561670de0b6b3a76400006005611f93565b811115610591576105917f2e2dab43000000000000000000000000000000000000000000000000000000006110bc565b60035460408051918252602082018390527f944c1d84ad06971984342e0672019a63ca753e62770b70a87b329c00162f797a910160405180910390a1600355565b5f6105ed670de0b6b3a7640000600454600654600754610994565b90506005548110156105fe57506005545b60035461060b9082611faa565b905090565b6002545f9073ffffffffffffffffffffffffffffffffffffffff16331461065a5761065a7f385296d5000000000000000000000000000000000000000000000000000000006110bc565b6003545f8315610723575f80546040517f1e569d7b00000000000000000000000000000000000000000000000000000000815273ffffffffffffffffffffffffffffffffffffffff90911690631e569d7b906106bc908b908b90600401611fbd565b602060405180830381865afa1580156106d7573d5f803e3d5ffd5b505050506040513d601f19601f820116820180604052508101906106fb9190612009565b905061070f81600454600654600754610994565b91506005548210156107215760055491505b505b8686604051610733929190612020565b6040805191829003822067ffffffffffffffff8816835260208301859052908201839052907f71458adf598dc170bd3c4161d44819d254109dd7958425c0fb21acc26d6ca69c9060600160405180910390a26001546040517f9eaffa960000000000000000000000000000000000000000000000000000000081525f9173ffffffffffffffffffffffffffffffffffffffff1690639eaffa96906107dd908b908b90600401611fbd565b602060405180830381865afa1580156107f8573d5f803e3d5ffd5b505050506040513d601f19601f8201168201806040525081019061081c919061202f565b905082156108ab575f546040517f40c10f1900000000000000000000000000000000000000000000000000000000815273ffffffffffffffffffffffffffffffffffffffff838116600483015260248201869052909116906340c10f19906044015f604051808303815f87803b158015610894575f80fd5b505af11580156108a6573d5f803e3d5ffd5b505050505b811561093a575f546002546040517f40c10f1900000000000000000000000000000000000000000000000000000000815273ffffffffffffffffffffffffffffffffffffffff9182166004820152602481018590529116906340c10f19906044015f604051808303815f87803b158015610923575f80fd5b505af1158015610935573d5f803e3d5ffd5b505050505b509150505b949350505050565b61094f6110c4565b610958826111c8565b61096282826111d0565b5050565b5f61096f61130e565b507f360894a13ba1a3210667c828492db98dca3e2076cc3735a920a3ca505d382bbc90565b5f841561093f57670de0b6b3a76400007ffffffffffffffffffffffffffffffffffffffffffffffffff21f494c589c000086016109dc576109d5858561137d565b9150610a49565b5f6109e787856113ac565b90505f6109f4868361137d565b6109fe9084611faa565b90505f610a0b84836113e5565b610a15908561204a565b90505f610a2b82610a268a88611faa565b61137d565b905087811115610a385750865b610a42898261137d565b9550505050505b50949350505050565b610a5a61102e565b610a635f611427565b565b610a78670de0b6b3a76400006005611f93565b81565b610a8361102e565b610a96670de0b6b3a76400006005611f93565b811115610ac657610ac67fb7b2319a000000000000000000000000000000000000000000000000000000006110bc565b60065460408051918252602082018390527f2f71d40417082cb60caa4ce5f9517495d32e7d0677aa1b4b37798248fc9ce791910160405180910390a1600655565b610b0f61102e565b73ffffffffffffffffffffffffffffffffffffffff8116610b5357610b537fd92e233d000000000000000000000000000000000000000000000000000000006110bc565b60405173ffffffffffffffffffffffffffffffffffffffff8216907ff52f1295a5bd82818185311d8284477532c0eba12fd2ba17314486d3a8f6810d905f90a2600280547fffffffffffffffffffffffff00000000000000000000000000000000000000001673ffffffffffffffffffffffffffffffffffffffff92909216919091179055565b610a78670de0b6b3a7640000600a611f93565b610bf561102e565b610c08670de0b6b3a76400006005611f93565b811115610c3857610c387f22be2284000000000000000000000000000000000000000000000000000000006110bc565b60045460408051918252602082018390527fc8a368e74acfd5086c83fce19caf792cd058ba8ed9b923eea75fcd0d730a4ebb910160405180910390a1600455565b610c8161102e565b610c94670de0b6b3a7640000600a611f93565b811115610cc457610cc47f15482337000000000000000000000000000000000000000000000000000000006110bc565b60055460408051918252602082018390527fc1e9470c1a871e083bc80123ce2595009b15a9b7cc18c438b911587c67ff78d9910160405180910390a1600555565b610d0d61102e565b801580610d215750670de0b6b3a764000081115b15610d4f57610d4f7f347f95b2000000000000000000000000000000000000000000000000000000006110bc565b60075460408051918252602082018390527f02f3c2ae154350db4835c7289b485a454f66ee8c69d501ffa5543aae52a255a7910160405180910390a1600755565b610d9861102e565b73ffffffffffffffffffffffffffffffffffffffff8116610dec576040517f1e4fbdf70000000000000000000000000000000000000000000000000000000081525f60048201526024015b60405180910390fd5b610df581611427565b50565b5f610e016114bc565b805490915060ff68010000000000000000820416159067ffffffffffffffff165f81158015610e2d5750825b90505f8267ffffffffffffffff166001148015610e495750303b155b905081158015610e57575080155b15610e8e576040517ff92ee8a900000000000000000000000000000000000000000000000000000000815260040160405180910390fd5b84547fffffffffffffffffffffffffffffffffffffffffffffffff00000000000000001660011785558315610eef5784547fffffffffffffffffffffffffffffffffffffffffffffff00ffffffffffffffff16680100000000000000001785555b610ef8866114e4565b610f006114f5565b5f80547fffffffffffffffffffffffff00000000000000000000000000000000000000001673ffffffffffffffffffffffffffffffffffffffff8b8116919091178255604051908a16917ff52f1295a5bd82818185311d8284477532c0eba12fd2ba17314486d3a8f6810d91a26002805473ffffffffffffffffffffffffffffffffffffffff808b167fffffffffffffffffffffffff00000000000000000000000000000000000000009283161790925560018054928a169290911691909117905583156110235784547fffffffffffffffffffffffffffffffffffffffffffffff00ffffffffffffffff168555604051600181527fc7f505b2f371ae2175ee4913f4499e1f2633a7b5936321eed1cdaeb6115181d29060200160405180910390a15b505050505050505050565b3361106d7f9016d09d72d40fdae2fd8ceac6b6234c7706214fd39c1cd1e609a0528c1993005473ffffffffffffffffffffffffffffffffffffffff1690565b73ffffffffffffffffffffffffffffffffffffffff1614610a63576040517f118cdaa7000000000000000000000000000000000000000000000000000000008152336004820152602401610de3565b805f5260045ffd5b3073ffffffffffffffffffffffffffffffffffffffff7f000000000000000000000000000000000000000000000000000000000000000016148061119157507f000000000000000000000000000000000000000000000000000000000000000073ffffffffffffffffffffffffffffffffffffffff166111787f360894a13ba1a3210667c828492db98dca3e2076cc3735a920a3ca505d382bbc5473ffffffffffffffffffffffffffffffffffffffff1690565b73ffffffffffffffffffffffffffffffffffffffff1614155b15610a63576040517fe07c8dba00000000000000000000000000000000000000000000000000000000815260040160405180910390fd5b610df561102e565b8173ffffffffffffffffffffffffffffffffffffffff166352d1902d6040518163ffffffff1660e01b8152600401602060405180830381865afa925050508015611255575060408051601f3d9081017fffffffffffffffffffffffffffffffffffffffffffffffffffffffffffffffe016820190925261125291810190612009565b60015b6112a3576040517f4c9c8ce300000000000000000000000000000000000000000000000000000000815273ffffffffffffffffffffffffffffffffffffffff83166004820152602401610de3565b7f360894a13ba1a3210667c828492db98dca3e2076cc3735a920a3ca505d382bbc81146112ff576040517faa1d49a400000000000000000000000000000000000000000000000000000000815260048101829052602401610de3565b61130983836114fd565b505050565b3073ffffffffffffffffffffffffffffffffffffffff7f00000000000000000000000000000000000000000000000000000000000000001614610a63576040517fe07c8dba00000000000000000000000000000000000000000000000000000000815260040160405180910390fd5b5f815f190483111561139c57811561139c5763bac65e5b5f526004601cfd5b50670de0b6b3a764000091020490565b5f6113dc670de0b6b3a7640000836113c38661155f565b6113cd919061205d565b6113d791906120a8565b6117b8565b90505b92915050565b5f7812725dd1d243aba0e75fe645cc4873f9e65afe688c928e1f228310820261141557637c5f487d5f526004601cfd5b50670de0b6b3a7640000919091020490565b7f9016d09d72d40fdae2fd8ceac6b6234c7706214fd39c1cd1e609a0528c19930080547fffffffffffffffffffffffff0000000000000000000000000000000000000000811673ffffffffffffffffffffffffffffffffffffffff848116918217845560405192169182907f8be0079c531659141344cd1fd0a4f28419497f9722a3daafe3b4186f6b6457e0905f90a3505050565b5f807ff0c57e16840df040f15088dc2f81fe391c3923bec73e23a9662efc9c229c6a006113df565b6114ec61199d565b610df5816119db565b610a6361199d565b611506826119e3565b60405173ffffffffffffffffffffffffffffffffffffffff8316907fbc7cd75a20ee27fd9adebab32041f755214dbc6bffa90cc0225b39da2e5c2d3b905f90a2805115611557576113098282611ab1565b610962611b30565b6fffffffffffffffffffffffffffffffff811160071b81811c67ffffffffffffffff1060061b1781811c63ffffffff1060051b1781811c61ffff1060041b1781811c60ff1060031b175f82136115bc57631615e6385f526004601cfd5b7ff8f9f9faf9fdfafbf9fdfcfdfafbfcfef9fafdfafcfcfbfefafafcfbffffffff6f8421084210842108cc6318c6db6d54be83831c1c601f161a1890811b609f90811c6c465772b2bbbb5f824b15207a3081018102606090811d6d0388eaa27412d5aca026815d636e018202811d6d0df99ac502031bf953eff472fdcc018202811d6d13cdffb29d51d99322bdff5f2211018202811d6d0a0f742023def783a307a986912e018202811d6d01920d8043ca89b5239253284e42018202811d6c0b7a86d7375468fac667a0a527016c29508e458543d8aa4df2abee7883018302821d6d0139601a2efabe717e604cbb4894018302821d6d02247f7a7b6594320649aa03aba1018302821d7fffffffffffffffffffffffffffffffffffffff73c0c716a594e00d54e3c4cbc9018302821d7ffffffffffffffffffffffffffffffffffffffdc7b88c420e53a9890533129f6f01830290911d7fffffffffffffffffffffffffffffffffffffff465fda27eb4d63ded474e5f832019091027ffffffffffffffff5f6af8f7b3396644f18e157960000000000000000000000000105711340daa0d5f769dba1915cef59f0815a5506029190037d0267a36c0c95b3975ab3ee5b203a7614a3f75373f047d803ae7b6687f2b302017d57115e47018c7177eebf7cd370a3356a1b7863008a5ae8028c72b88642840160ae1d90565b5f7ffffffffffffffffffffffffffffffffffffffffffffffffdc0d0570925a462d782136117e557919050565b680755bf798b4a1bf1e582126118025763a37bfec95f526004601cfd5b6503782dace9d9604e83901b0591505f60606bb17217f7d1cf79abc9e3b39884821b056b80000000000000000000000001901d6bb17217f7d1cf79abc9e3b39881029093037fffffffffffffffffffffffffffffffffffffffdbf3ccf1604d263450f02a550481018102606090811d6d0277594991cfc85f6e2461837cd9018202811d7fffffffffffffffffffffffffffffffffffffe5adedaa1cb095af9e4da10e363c018202811d6db1bbb201f443cf962f1a1d3db4a5018202811d7ffffffffffffffffffffffffffffffffffffd38dc772608b0ae56cce01296c0eb018202811d6e05180bb14799ab47a8a8cb2a527d57016d02d16720577bd19bf614176fe9ea6c10fe68e7fd37d0007b713f765084018402831d9081019084017ffffffffffffffffffffffffffffffffffffffe2c69812cf03b0763fd454a8f7e010290911d6e0587f503bb6ea29d25fcb7401964500190910279d835ebba824c98fb31b83b2ca45c000000000000000000000000010574029d9dc38563c32e5c2f6dc192ee70ef65f9978af30260c3939093039290921c92915050565b6119a5611b68565b610a63576040517fd7e6bcf800000000000000000000000000000000000000000000000000000000815260040160405180910390fd5b610d9861199d565b8073ffffffffffffffffffffffffffffffffffffffff163b5f03611a4b576040517f4c9c8ce300000000000000000000000000000000000000000000000000000000815273ffffffffffffffffffffffffffffffffffffffff82166004820152602401610de3565b7f360894a13ba1a3210667c828492db98dca3e2076cc3735a920a3ca505d382bbc80547fffffffffffffffffffffffff00000000000000000000000000000000000000001673ffffffffffffffffffffffffffffffffffffffff92909216919091179055565b60605f808473ffffffffffffffffffffffffffffffffffffffff1684604051611ada9190612134565b5f60405180830381855af49150503d805f8114611b12576040519150601f19603f3d011682016040523d82523d5f602084013e611b17565b606091505b5091509150611b27858383611b86565b95945050505050565b3415610a63576040517fb398979f00000000000000000000000000000000000000000000000000000000815260040160405180910390fd5b5f611b716114bc565b5468010000000000000000900460ff16919050565b606082611b9b57611b9682611c18565b611c11565b8151158015611bbf575073ffffffffffffffffffffffffffffffffffffffff84163b155b15611c0e576040517f9996b31500000000000000000000000000000000000000000000000000000000815273ffffffffffffffffffffffffffffffffffffffff85166004820152602401610de3565b50805b9392505050565b805115611c285780518082602001fd5b6040517fd6bda27500000000000000000000000000000000000000000000000000000000815260040160405180910390fd5b5f60208284031215611c6a575f80fd5b5035919050565b80358015158114611c80575f80fd5b919050565b5f805f8060608587031215611c98575f80fd5b843567ffffffffffffffff811115611cae575f80fd5b8501601f81018713611cbe575f80fd5b803567ffffffffffffffff811115611cd4575f80fd5b876020828401011115611ce5575f80fd5b60209182019550935085013567ffffffffffffffff81168114611d06575f80fd5b9150611d1460408601611c71565b905092959194509250565b73ffffffffffffffffffffffffffffffffffffffff81168114610df5575f80fd5b7f4e487b71000000000000000000000000000000000000000000000000000000005f52604160045260245ffd5b5f8060408385031215611d7e575f80fd5b8235611d8981611d1f565b9150602083013567ffffffffffffffff811115611da4575f80fd5b8301601f81018513611db4575f80fd5b803567ffffffffffffffff811115611dce57611dce611d40565b6040517fffffffffffffffffffffffffffffffffffffffffffffffffffffffffffffffe0603f7fffffffffffffffffffffffffffffffffffffffffffffffffffffffffffffffe0601f8501160116810181811067ffffffffffffffff82111715611e3a57611e3a611d40565b604052818152828201602001871015611e51575f80fd5b816020840160208301375f602083830101528093505050509250929050565b5f805f8060808587031215611e83575f80fd5b5050823594602084013594506040840135936060013592509050565b5f60208284031215611eaf575f80fd5b8135611c1181611d1f565b602081525f82518060208401528060208501604085015e5f6040828501015260407fffffffffffffffffffffffffffffffffffffffffffffffffffffffffffffffe0601f83011684010191505092915050565b5f805f8060808587031215611f20575f80fd5b8435611f2b81611d1f565b93506020850135611f3b81611d1f565b92506040850135611f4b81611d1f565b91506060850135611f5b81611d1f565b939692955090935050565b7f4e487b71000000000000000000000000000000000000000000000000000000005f52601160045260245ffd5b80820281158282048414176113df576113df611f66565b808201808211156113df576113df611f66565b60208152816020820152818360408301375f818301604090810191909152601f9092017fffffffffffffffffffffffffffffffffffffffffffffffffffffffffffffffe0160101919050565b5f60208284031215612019575f80fd5b5051919050565b818382375f9101908152919050565b5f6020828403121561203f575f80fd5b8151611c1181611d1f565b818103818111156113df576113df611f66565b8082025f82127f80000000000000000000000000000000000000000000000000000000000000008414161561209457612094611f66565b81810583148215176113df576113df611f66565b5f826120db577f4e487b71000000000000000000000000000000000000000000000000000000005f52601260045260245ffd5b7fffffffffffffffffffffffffffffffffffffffffffffffffffffffffffffffff83147f80000000000000000000000000000000000000000000000000000000000000008314161561212f5761212f611f66565b500590565b5f82518060208501845e5f92019182525091905056fea164736f6c634300081a000a","linkReferences":{}},"methodIdentifiers":{"MAX_BASE_RATE()":"7bf96014","MAX_BOOST_MULTIPLIER()":"93c46737","MAX_MIN_BOOSTED_REWARD_RATE()":"8fa158b8","MAX_REWARD_CONVEXITY()":"0e1ef02c","MAX_REWARD_RATE()":"718dc3c3","UPGRADE_INTERFACE_VERSION()":"ad3cb1cc","baseRate()":"1f68f20a","beaconDepositContract()":"eafe0f4c","bgt()":"9a6c31c4","boostMultiplier()":"a003aac4","computeReward(uint256,uint256,uint256,int256)":"6a6ec466","distributor()":"bfe10928","getMaxBGTPerBlock()":"38783dc3","initialize(address,address,address,address)":"f8c8765e","minBoostedRewardRate()":"defc56d0","owner()":"8da5cb5b","processRewards(bytes,uint64,bool)":"399211d4","proxiableUUID()":"52d1902d","renounceOwnership()":"715018a6","rewardConvexity()":"409dafe0","rewardRate()":"7b0a47ee","setBaseRate(uint256)":"1d08837b","setBoostMultiplier(uint256)":"720fd3c7","setDistributor(address)":"75619ab5","setMinBoostedRewardRate(uint256)":"add5fb32","setRewardConvexity(uint256)":"f0c389f3","setRewardRate(uint256)":"9e447fc6","transferOwnership(address)":"f2fde38b","upgradeToAndCall(address,bytes)":"4f1ef286"},"storageLayout":{"storage":[{"astId":83562,"contract":"src/pol/rewards/BlockRewardController.sol:BlockRewardController","label":"bgt","offset":0,"slot":"0","type":"t_contract(BGT)78389"},{"astId":83566,"contract":"src/pol/rewards/BlockRewardController.sol:BlockRewardController","label":"beaconDepositContract","offset":0,"slot":"1","type":"t_contract(IBeaconDeposit)80682"},{"astId":83569,"contract":"src/pol/rewards/BlockRewardController.sol:BlockRewardController","label":"distributor","offset":0,"slot":"2","type":"t_address"},{"astId":83572,"contract":"src/pol/rewards/BlockRewardController.sol:BlockRewardController","label":"baseRate","offset":0,"slot":"3","type":"t_uint256"},{"astId":83575,"contract":"src/pol/rewards/BlockRewardController.sol:BlockRewardController","label":"rewardRate","offset":0,"slot":"4","type":"t_uint256"},{"astId":83578,"contract":"src/pol/rewards/BlockRewardController.sol:BlockRewardController","label":"minBoostedRewardRate","offset":0,"slot":"5","type":"t_uint256"},{"astId":83581,"contract":"src/pol/rewards/BlockRewardController.sol:BlockRewardController","label":"boostMultiplier","offset":0,"slot":"6","type":"t_uint256"},{"astId":83584,"contract":"src/pol/rewards/BlockRewardController.sol:BlockRewardController","label":"rewardConvexity","offset":0,"slot":"7","type":"t_int256"}],"types":{"t_address":{"encoding":"inplace","label":"address","numberOfBytes":"20"},"t_contract(BGT)78389":{"encoding":"inplace","label":"contract BGT","numberOfBytes":"20"},"t_contract(IBeaconDeposit)80682":{"encoding":"inplace","label":"contract IBeaconDeposit","numberOfBytes":"20"},"t_int256":{"encoding":"inplace","label":"int256","numberOfBytes":"32"},"t_uint256":{"encoding":"inplace","label":"uint256","numberOfBytes":"32"}}},"id":152}