{"abi":[{"type":"constructor","inputs":[],"stateMutability":"nonpayable"},{"type":"function","name":"DEFAULT_ADMIN_ROLE","inputs":[],"outputs":[{"name":"","type":"bytes32","internalType":"bytes32"}],"stateMutability":"view"},{"type":"function","name":"MANAGER_ROLE","inputs":[],"outputs":[{"name":"","type":"bytes32","internalType":"bytes32"}],"stateMutability":"view"},{"type":"function","name":"UPGRADE_INTERFACE_VERSION","inputs":[],"outputs":[{"name":"","type":"string","internalType":"string"}],"stateMutability":"view"},{"type":"function","name":"beraChef","inputs":[],"outputs":[{"name":"","type":"address","internalType":"contract IBeraChef"}],"stateMutability":"view"},{"type":"function","name":"bgt","inputs":[],"outputs":[{"name":"","type":"address","internalType":"address"}],"stateMutability":"view"},{"type":"function","name":"blockRewardController","inputs":[],"outputs":[{"name":"","type":"address","internalType":"contract IBlockRewardController"}],"stateMutability":"view"},{"type":"function","name":"distributeFor","inputs":[{"name":"nextTimestamp","type":"uint64","internalType":"uint64"},{"name":"proposerIndex","type":"uint64","internalType":"uint64"},{"name":"pubkey","type":"bytes","internalType":"bytes"},{"name":"proposerIndexProof","type":"bytes32[]","internalType":"bytes32[]"},{"name":"pubkeyProof","type":"bytes32[]","internalType":"bytes32[]"}],"outputs":[],"stateMutability":"nonpayable"},{"type":"function","name":"getRoleAdmin","inputs":[{"name":"role","type":"bytes32","internalType":"bytes32"}],"outputs":[{"name":"","type":"bytes32","internalType":"bytes32"}],"stateMutability":"view"},{"type":"function","name":"grantRole","inputs":[{"name":"role","type":"bytes32","internalType":"bytes32"},{"name":"account","type":"address","internalType":"address"}],"outputs":[],"stateMutability":"nonpayable"},{"type":"function","name":"hasRole","inputs":[{"name":"role","type":"bytes32","internalType":"bytes32"},{"name":"account","type":"address","internalType":"address"}],"outputs":[{"name":"","type":"bool","internalType":"bool"}],"stateMutability":"view"},{"type":"function","name":"initialize","inputs":[{"name":"_berachef","type":"address","internalType":"address"},{"name":"_bgt","type":"address","internalType":"address"},{"name":"_blockRewardController","type":"address","internalType":"address"},{"name":"_governance","type":"address","internalType":"address"},{"name":"_zeroValidatorPubkeyGIndex","type":"uint64","internalType":"uint64"},{"name":"_proposerIndexGIndex","type":"uint64","internalType":"uint64"}],"outputs":[],"stateMutability":"nonpayable"},{"type":"function","name":"isTimestampActionable","inputs":[{"name":"timestamp","type":"uint64","internalType":"uint64"}],"outputs":[{"name":"","type":"bool","internalType":"bool"}],"stateMutability":"view"},{"type":"function","name":"multicall","inputs":[{"name":"data","type":"bytes[]","internalType":"bytes[]"}],"outputs":[{"name":"","type":"bytes[]","internalType":"bytes[]"}],"stateMutability":"payable"},{"type":"function","name":"proposerIndexGIndex","inputs":[],"outputs":[{"name":"","type":"uint64","internalType":"uint64"}],"stateMutability":"view"},{"type":"function","name":"proxiableUUID","inputs":[],"outputs":[{"name":"","type":"bytes32","internalType":"bytes32"}],"stateMutability":"view"},{"type":"function","name":"renounceRole","inputs":[{"name":"role","type":"bytes32","internalType":"bytes32"},{"name":"callerConfirmation","type":"address","internalType":"address"}],"outputs":[],"stateMutability":"nonpayable"},{"type":"function","name":"revokeRole","inputs":[{"name":"role","type":"bytes32","internalType":"bytes32"},{"name":"account","type":"address","internalType":"address"}],"outputs":[],"stateMutability":"nonpayable"},{"type":"function","name":"setProposerIndexGIndex","inputs":[{"name":"_proposerIndexGIndex","type":"uint64","internalType":"uint64"}],"outputs":[],"stateMutability":"nonpayable"},{"type":"function","name":"setZeroValidatorPubkeyGIndex","inputs":[{"name":"_zeroValidatorPubkeyGIndex","type":"uint64","internalType":"uint64"}],"outputs":[],"stateMutability":"nonpayable"},{"type":"function","name":"supportsInterface","inputs":[{"name":"interfaceId","type":"bytes4","internalType":"bytes4"}],"outputs":[{"name":"","type":"bool","internalType":"bool"}],"stateMutability":"view"},{"type":"function","name":"upgradeToAndCall","inputs":[{"name":"newImplementation","type":"address","internalType":"address"},{"name":"data","type":"bytes","internalType":"bytes"}],"outputs":[],"stateMutability":"payable"},{"type":"function","name":"zeroValidatorPubkeyGIndex","inputs":[],"outputs":[{"name":"","type":"uint64","internalType":"uint64"}],"stateMutability":"view"},{"type":"event","name":"Distributed","inputs":[{"name":"valPubkey","type":"bytes","indexed":true,"internalType":"bytes"},{"name":"nextTimestamp","type":"uint64","indexed":true,"internalType":"uint64"},{"name":"receiver","type":"address","indexed":true,"internalType":"address"},{"name":"amount","type":"uint256","indexed":false,"internalType":"uint256"}],"anonymous":false},{"type":"event","name":"Initialized","inputs":[{"name":"version","type":"uint64","indexed":false,"internalType":"uint64"}],"anonymous":false},{"type":"event","name":"ProposerIndexGIndexChanged","inputs":[{"name":"newProposerIndexGIndex","type":"uint64","indexed":false,"internalType":"uint64"}],"anonymous":false},{"type":"event","name":"RoleAdminChanged","inputs":[{"name":"role","type":"bytes32","indexed":true,"internalType":"bytes32"},{"name":"previousAdminRole","type":"bytes32","indexed":true,"internalType":"bytes32"},{"name":"newAdminRole","type":"bytes32","indexed":true,"internalType":"bytes32"}],"anonymous":false},{"type":"event","name":"RoleGranted","inputs":[{"name":"role","type":"bytes32","indexed":true,"internalType":"bytes32"},{"name":"account","type":"address","indexed":true,"internalType":"address"},{"name":"sender","type":"address","indexed":true,"internalType":"address"}],"anonymous":false},{"type":"event","name":"RoleRevoked","inputs":[{"name":"role","type":"bytes32","indexed":true,"internalType":"bytes32"},{"name":"account","type":"address","indexed":true,"internalType":"address"},{"name":"sender","type":"address","indexed":true,"internalType":"address"}],"anonymous":false},{"type":"event","name":"TimestampProcessed","inputs":[{"name":"timestamp","type":"uint64","indexed":false,"internalType":"uint64"}],"anonymous":false},{"type":"event","name":"Upgraded","inputs":[{"name":"implementation","type":"address","indexed":true,"internalType":"address"}],"anonymous":false},{"type":"event","name":"ZeroValidatorPubkeyGIndexChanged","inputs":[{"name":"newZeroValidatorPubkeyGIndex","type":"uint64","indexed":false,"internalType":"uint64"}],"anonymous":false},{"type":"error","name":"AccessControlBadConfirmation","inputs":[]},{"type":"error","name":"AccessControlUnauthorizedAccount","inputs":[{"name":"account","type":"address","internalType":"address"},{"name":"neededRole","type":"bytes32","internalType":"bytes32"}]},{"type":"error","name":"AddressEmptyCode","inputs":[{"name":"target","type":"address","internalType":"address"}]},{"type":"error","name":"AmountLessThanMinIncentiveRate","inputs":[]},{"type":"error","name":"CannotRecoverIncentiveToken","inputs":[]},{"type":"error","name":"CannotRecoverRewardToken","inputs":[]},{"type":"error","name":"CannotRecoverStakingToken","inputs":[]},{"type":"error","name":"CommissionChangeAlreadyQueued","inputs":[]},{"type":"error","name":"CommissionNotQueuedOrDelayNotPassed","inputs":[]},{"type":"error","name":"DepositNotMultipleOfGwei","inputs":[]},{"type":"error","name":"DepositValueTooHigh","inputs":[]},{"type":"error","name":"DonateAmountLessThanPayoutAmount","inputs":[]},{"type":"error","name":"ERC1967InvalidImplementation","inputs":[{"name":"implementation","type":"address","internalType":"address"}]},{"type":"error","name":"ERC1967NonPayable","inputs":[]},{"type":"error","name":"FailedCall","inputs":[]},{"type":"error","name":"IncentiveRateTooHigh","inputs":[]},{"type":"error","name":"IndexOutOfRange","inputs":[]},{"type":"error","name":"InsolventReward","inputs":[]},{"type":"error","name":"InsufficientDelegateStake","inputs":[]},{"type":"error","name":"InsufficientDeposit","inputs":[]},{"type":"error","name":"InsufficientIncentiveTokens","inputs":[]},{"type":"error","name":"InsufficientSelfStake","inputs":[]},{"type":"error","name":"InsufficientStake","inputs":[]},{"type":"error","name":"InvalidActivateBoostDelay","inputs":[]},{"type":"error","name":"InvalidArray","inputs":[]},{"type":"error","name":"InvalidBaseRate","inputs":[]},{"type":"error","name":"InvalidBoostMultiplier","inputs":[]},{"type":"error","name":"InvalidCommissionChangeDelay","inputs":[]},{"type":"error","name":"InvalidCommissionValue","inputs":[]},{"type":"error","name":"InvalidCredentialsLength","inputs":[]},{"type":"error","name":"InvalidDistribution","inputs":[]},{"type":"error","name":"InvalidDropBoostDelay","inputs":[]},{"type":"error","name":"InvalidIncentiveRate","inputs":[]},{"type":"error","name":"InvalidInitialization","inputs":[]},{"type":"error","name":"InvalidMaxIncentiveTokensCount","inputs":[]},{"type":"error","name":"InvalidMaxWeightPerVault","inputs":[]},{"type":"error","name":"InvalidMerkleRoot","inputs":[]},{"type":"error","name":"InvalidMinBoostedRewardRate","inputs":[]},{"type":"error","name":"InvalidProof","inputs":[]},{"type":"error","name":"InvalidPubKeyLength","inputs":[]},{"type":"error","name":"InvalidRewardAllocationWeights","inputs":[]},{"type":"error","name":"InvalidRewardClaimDelay","inputs":[]},{"type":"error","name":"InvalidRewardConvexity","inputs":[]},{"type":"error","name":"InvalidRewardRate","inputs":[]},{"type":"error","name":"InvalidSignatureLength","inputs":[]},{"type":"error","name":"InvalidStartBlock","inputs":[]},{"type":"error","name":"InvalidToken","inputs":[]},{"type":"error","name":"InvalidWeight","inputs":[]},{"type":"error","name":"InvalidateDefaultRewardAllocation","inputs":[]},{"type":"error","name":"InvariantCheckFailed","inputs":[]},{"type":"error","name":"MaxNumWeightsPerRewardAllocationIsZero","inputs":[]},{"type":"error","name":"MinIncentiveRateIsZero","inputs":[]},{"type":"error","name":"NotAContract","inputs":[]},{"type":"error","name":"NotApprovedSender","inputs":[]},{"type":"error","name":"NotBGT","inputs":[]},{"type":"error","name":"NotBlockRewardController","inputs":[]},{"type":"error","name":"NotDelegate","inputs":[]},{"type":"error","name":"NotDistributor","inputs":[]},{"type":"error","name":"NotEnoughBalance","inputs":[]},{"type":"error","name":"NotEnoughBoostedBalance","inputs":[]},{"type":"error","name":"NotEnoughTime","inputs":[]},{"type":"error","name":"NotFactoryVault","inputs":[]},{"type":"error","name":"NotFeeCollector","inputs":[]},{"type":"error","name":"NotIncentiveManager","inputs":[]},{"type":"error","name":"NotInitializing","inputs":[]},{"type":"error","name":"NotNewOperator","inputs":[]},{"type":"error","name":"NotOperator","inputs":[]},{"type":"error","name":"NotWhitelistedVault","inputs":[]},{"type":"error","name":"OperatorAlreadySet","inputs":[]},{"type":"error","name":"PayoutAmountIsZero","inputs":[]},{"type":"error","name":"ReentrancyGuardReentrantCall","inputs":[]},{"type":"error","name":"RewardAllocationAlreadyQueued","inputs":[]},{"type":"error","name":"RewardAllocationBlockDelayTooLarge","inputs":[]},{"type":"error","name":"RewardCycleNotEnded","inputs":[]},{"type":"error","name":"RewardInactive","inputs":[]},{"type":"error","name":"RewardsDurationIsZero","inputs":[]},{"type":"error","name":"StakeAmountIsZero","inputs":[]},{"type":"error","name":"TimestampAlreadyProcessed","inputs":[]},{"type":"error","name":"TokenAlreadyWhitelistedOrLimitReached","inputs":[]},{"type":"error","name":"TokenNotWhitelisted","inputs":[]},{"type":"error","name":"TooManyWeights","inputs":[]},{"type":"error","name":"TotalSupplyOverflow","inputs":[]},{"type":"error","name":"UUPSUnauthorizedCallContext","inputs":[]},{"type":"error","name":"UUPSUnsupportedProxiableUUID","inputs":[{"name":"slot","type":"bytes32","internalType":"bytes32"}]},{"type":"error","name":"WithdrawAmountIsZero","inputs":[]},{"type":"error","name":"ZeroAddress","inputs":[]},{"type":"error","name":"ZeroOperatorOnFirstDeposit","inputs":[]},{"type":"error","name":"ZeroPercentageWeight","inputs":[]}],"bytecode":{"object":"0x60a060405230608052348015610013575f80fd5b5061001c610021565b6100d3565b7ff0c57e16840df040f15088dc2f81fe391c3923bec73e23a9662efc9c229c6a00805468010000000000000000900460ff16156100715760405163f92ee8a960e01b815260040160405180910390fd5b80546001600160401b03908116146100d05780546001600160401b0319166001600160401b0390811782556040519081527fc7f505b2f371ae2175ee4913f4499e1f2633a7b5936321eed1cdaeb6115181d29060200160405180910390a15b50565b6080516128286100f95f395f818161150801528181611531015261175601526128285ff3fe60806040526004361061016d575f3560e01c806357c60951116100c6578063ac9650d81161007c578063b23ae19111610057578063b23ae191146104ee578063d547741f1461050d578063ec87621c1461052c575f80fd5b8063ac9650d81461045a578063ad3cb1cc1461047a578063b07292be146104cf575f80fd5b806391d14854116100ac57806391d14854146103aa5780639a6c31c41461041a578063a217fddf14610447575f80fd5b806357c60951146103505780637165e2ce1461037d575f80fd5b80632f2ff15d1161012657806349732f841161010157806349732f841461030a5780634f1ef2861461032957806352d1902d1461033c575f80fd5b80632f2ff15d1461029257806335222ff1146102b157806336568abe146102eb575f80fd5b806308ccd3331161015657806308ccd333146101c65780630dc8b98814610218578063248a9ca314610237575f80fd5b806301ffc9a71461017157806305a77401146101a5575b5f80fd5b34801561017c575f80fd5b5061019061018b366004611f9a565b61055f565b60405190151581526020015b60405180910390f35b3480156101b0575f80fd5b506101c46101bf366004611fee565b6105f7565b005b3480156101d1575f80fd5b50610834546101f39073ffffffffffffffffffffffffffffffffffffffff1681565b60405173ffffffffffffffffffffffffffffffffffffffff909116815260200161019c565b348015610223575f80fd5b506101c4610232366004612051565b61062e565b348015610242575f80fd5b50610284610251366004612143565b5f9081527f02dd7bc7dec4dceedda775e58dd541e08a116c6c53815c0bd028192f7b626800602052604090206001015490565b60405190815260200161019c565b34801561029d575f80fd5b506101c46102ac36600461217b565b61069b565b3480156102bc575f80fd5b50610800546102d29067ffffffffffffffff1681565b60405167ffffffffffffffff909116815260200161019c565b3480156102f6575f80fd5b506101c461030536600461217b565b6106e4565b348015610315575f80fd5b50610190610324366004611fee565b610742565b6101c461033736600461224e565b6107c2565b348015610347575f80fd5b506102846107dd565b34801561035b575f80fd5b50610833546101f39073ffffffffffffffffffffffffffffffffffffffff1681565b348015610388575f80fd5b50610800546102d29068010000000000000000900467ffffffffffffffff1681565b3480156103b5575f80fd5b506101906103c436600461217b565b5f9182527f02dd7bc7dec4dceedda775e58dd541e08a116c6c53815c0bd028192f7b6268006020908152604080842073ffffffffffffffffffffffffffffffffffffffff93909316845291905290205460ff1690565b348015610425575f80fd5b50610835546101f39073ffffffffffffffffffffffffffffffffffffffff1681565b348015610452575f80fd5b506102845f81565b61046d610468366004612313565b61080b565b60405161019c919061239e565b348015610485575f80fd5b506104c26040518060400160405280600581526020017f352e302e3000000000000000000000000000000000000000000000000000000081525081565b60405161019c919061241f565b3480156104da575f80fd5b506101c46104e9366004611fee565b610829565b3480156104f9575f80fd5b506101c4610508366004612431565b61085c565b348015610518575f80fd5b506101c461052736600461217b565b610a5b565b348015610537575f80fd5b506102847f241ecf16d79d0f8dbfb92cbc07fe17840425976cf0667f022fe9877caa831b0881565b5f7fffffffff0000000000000000000000000000000000000000000000000000000082167f7965db0b0000000000000000000000000000000000000000000000000000000014806105f157507f01ffc9a7000000000000000000000000000000000000000000000000000000007fffffffff000000000000000000000000000000000000000000000000000000008316145b92915050565b7f241ecf16d79d0f8dbfb92cbc07fe17840425976cf0667f022fe9877caa831b0861062181610a9e565b61062a82610aab565b5050565b610636610b1a565b5f61064089610b9b565b905061064e8186868b610cdc565b61065c8184848a8a8d610d9f565b61066787878b610e8a565b5061069160017f9b779b17422d0df92223018b32b4d1fa46e071723d6817e2486d003becc55f0055565b5050505050505050565b5f8281527f02dd7bc7dec4dceedda775e58dd541e08a116c6c53815c0bd028192f7b62680060205260409020600101546106d481610a9e565b6106de83836112c9565b50505050565b73ffffffffffffffffffffffffffffffffffffffff81163314610733576040517f6697b23200000000000000000000000000000000000000000000000000000000815260040160405180910390fd5b61073d82826113ee565b505050565b5f6107568267ffffffffffffffff166114ca565b61076157505f919050565b5f61076e611fff846124af565b90508267ffffffffffffffff165f8267ffffffffffffffff16611fff811061079857610798612503565b60048104919091015460039091166008026101000a900467ffffffffffffffff1614159392505050565b6107ca6114f0565b6107d3826115f6565b61062a8282611600565b5f6107e661173e565b507f360894a13ba1a3210667c828492db98dca3e2076cc3735a920a3ca505d382bbc90565b60603415610817575f80fd5b6105f161082484846117ad565b611839565b7f241ecf16d79d0f8dbfb92cbc07fe17840425976cf0667f022fe9877caa831b0861085381610a9e565b61062a8261184a565b5f6108656118c0565b805490915060ff68010000000000000000820416159067ffffffffffffffff165f811580156108915750825b90505f8267ffffffffffffffff1660011480156108ad5750303b155b9050811580156108bb575080155b156108f2576040517ff92ee8a900000000000000000000000000000000000000000000000000000000815260040160405180910390fd5b84547fffffffffffffffffffffffffffffffffffffffffffffffff000000000000000016600117855583156109535784547fffffffffffffffffffffffffffffffffffffffffffffff00ffffffffffffffff16680100000000000000001785555b61095b6118e8565b6109636118f0565b61096b6118e8565b6109755f896112c9565b50610833805473ffffffffffffffffffffffffffffffffffffffff808e167fffffffffffffffffffffffff00000000000000000000000000000000000000009283161790925561083580548d84169083161790556108348054928c16929091169190911790556109e487610aab565b6109ed8661184a565b8315610a4e5784547fffffffffffffffffffffffffffffffffffffffffffffff00ffffffffffffffff168555604051600181527fc7f505b2f371ae2175ee4913f4499e1f2633a7b5936321eed1cdaeb6115181d29060200160405180910390a15b5050505050505050505050565b5f8281527f02dd7bc7dec4dceedda775e58dd541e08a116c6c53815c0bd028192f7b6268006020526040902060010154610a9481610a9e565b6106de83836113ee565b610aa88133611900565b50565b61080080547fffffffffffffffffffffffffffffffffffffffffffffffff00000000000000001667ffffffffffffffff83169081179091556040519081527ff69efed1b8e513b3fd40bbd81db7ee8cefc8d27a1864ef2553eaedf7b2b93acc906020015b60405180910390a150565b7f9b779b17422d0df92223018b32b4d1fa46e071723d6817e2486d003becc55f0080547ffffffffffffffffffffffffffffffffffffffffffffffffffffffffffffffffe01610b95576040517f3ee5aeb500000000000000000000000000000000000000000000000000000000815260040160405180910390fd5b60029055565b5f610baf8267ffffffffffffffff166119a6565b90505f610bbe611fff846124af565b90505f8167ffffffffffffffff16611fff8110610bdd57610bdd612503565b600491828204019190066008029054906101000a900467ffffffffffffffff1667ffffffffffffffff168367ffffffffffffffff1603610c4057610c407f0a431b2a000000000000000000000000000000000000000000000000000000006119e1565b825f8267ffffffffffffffff16611fff8110610c5e57610c5e612503565b600491828204019190066008026101000a81548167ffffffffffffffff021916908367ffffffffffffffff1602179055507f8255105a483ddda7483710381fc023dc4a2bc69f7bdb3b59b52b8fbb28bde00383604051610cce919067ffffffffffffffff91909116815260200190565b60405180910390a150919050565b5f65ff000000ff00600883811b91821664ff000000ff9185901c91821617601090811b67ff000000ff0000009390931666ff000000ff00009290921691909117901c17602081811c63ffffffff1691901b67ffffffff00000000161760c01b9050610d6b8484878461080060089054906101000a900467ffffffffffffffff1667ffffffffffffffff166119e9565b610d9857610d987f09bde339000000000000000000000000000000000000000000000000000000006119e1565b5050505050565b6501000000000067ffffffffffffffff821610610ddf57610ddf7f1390f2a1000000000000000000000000000000000000000000000000000000006119e1565b5f610e1e84848080601f0160208091040260200160405190810160405280939291908181526020018383808284375f92019190915250611a8392505050565b90505f610e2c83600861255d565b61080054610e44919067ffffffffffffffff16612580565b67ffffffffffffffff169050610e5d87878a85856119e9565b610691576106917f09bde339000000000000000000000000000000000000000000000000000000006119e1565b6108345461083354604080517fa094a03100000000000000000000000000000000000000000000000000000000815290515f9373ffffffffffffffffffffffffffffffffffffffff9081169363399211d493899389938993169163a094a0319160048083019260209291908290030181865afa158015610f0c573d5f803e3d5ffd5b505050506040513d601f19601f82011682018060405250810190610f3091906125a0565b6040518563ffffffff1660e01b8152600401610f4f9493929190612606565b6020604051808303815f875af1158015610f6b573d5f803e3d5ffd5b505050506040513d601f19601f82011682018060405250810190610f8f919061263b565b9050805f03610f9e5750505050565b610833546040517f6ed0bf9a00000000000000000000000000000000000000000000000000000000815273ffffffffffffffffffffffffffffffffffffffff90911690636ed0bf9a90610ff79087908790600401612652565b5f604051808303815f87803b15801561100e575f80fd5b505af1158015611020573d5f803e3d5ffd5b5050610833546040517fda6f75630000000000000000000000000000000000000000000000000000000081525f935073ffffffffffffffffffffffffffffffffffffffff909116915063da6f75639061107f9088908890600401612652565b5f60405180830381865afa158015611099573d5f803e3d5ffd5b505050506040513d5f823e601f3d9081017fffffffffffffffffffffffffffffffffffffffffffffffffffffffffffffffe01682016040526110de919081019061266d565b602081015180519192505f91825b81811015611298575f83828151811061110757611107612503565b602090810291909101015180519091505f6111236001866127ad565b840361113a57611133878a6127ad565b9050611176565b6111678984602001516bffffffffffffffffffffffff166127106bffffffffffffffffffffffff16611acd565b905061117381886127c0565b96505b6108355461119b9073ffffffffffffffffffffffffffffffffffffffff168383611b7e565b6040517fe434eee000000000000000000000000000000000000000000000000000000000815273ffffffffffffffffffffffffffffffffffffffff83169063e434eee0906111f1908f908f9086906004016127d3565b5f604051808303815f87803b158015611208575f80fd5b505af115801561121a573d5f803e3d5ffd5b505050508173ffffffffffffffffffffffffffffffffffffffff168a67ffffffffffffffff168d8d6040516112509291906127f6565b604051908190038120848252907f027042b00b5da1362792832f3775452610369da8ce2c07af183cdabd276e3a119060200160405180910390a48360010193505050506110ec565b505050505050505050565b60017f9b779b17422d0df92223018b32b4d1fa46e071723d6817e2486d003becc55f0055565b5f8281527f02dd7bc7dec4dceedda775e58dd541e08a116c6c53815c0bd028192f7b6268006020818152604080842073ffffffffffffffffffffffffffffffffffffffff8616855290915282205460ff166113de575f8481526020828152604080832073ffffffffffffffffffffffffffffffffffffffff87168452909152902080547fffffffffffffffffffffffffffffffffffffffffffffffffffffffffffffff0016600117905561137a3390565b73ffffffffffffffffffffffffffffffffffffffff168373ffffffffffffffffffffffffffffffffffffffff16857f2f8788117e7eff1d82e926ec794901d17c78024a50270940304540a733656f0d60405160405180910390a460019150506105f1565b5f9150506105f1565b5092915050565b5f8281527f02dd7bc7dec4dceedda775e58dd541e08a116c6c53815c0bd028192f7b6268006020818152604080842073ffffffffffffffffffffffffffffffffffffffff8616855290915282205460ff16156113de575f8481526020828152604080832073ffffffffffffffffffffffffffffffffffffffff8716808552925280832080547fffffffffffffffffffffffffffffffffffffffffffffffffffffffffffffff0016905551339287917ff6391f5c32d9c69d2a47ea670b442974b53935d1edc7fd64eb21e047a839171b9190a460019150506105f1565b5f815f5260205f60205f720f3df6d732807ef1319fb7b8bb8522d0beac025afa92915050565b3073ffffffffffffffffffffffffffffffffffffffff7f00000000000000000000000000000000000000000000000000000000000000001614806115bd57507f000000000000000000000000000000000000000000000000000000000000000073ffffffffffffffffffffffffffffffffffffffff166115a47f360894a13ba1a3210667c828492db98dca3e2076cc3735a920a3ca505d382bbc5473ffffffffffffffffffffffffffffffffffffffff1690565b73ffffffffffffffffffffffffffffffffffffffff1614155b156115f4576040517fe07c8dba00000000000000000000000000000000000000000000000000000000815260040160405180910390fd5b565b5f61062a81610a9e565b8173ffffffffffffffffffffffffffffffffffffffff166352d1902d6040518163ffffffff1660e01b8152600401602060405180830381865afa925050508015611685575060408051601f3d9081017fffffffffffffffffffffffffffffffffffffffffffffffffffffffffffffffe01682019092526116829181019061263b565b60015b6116d8576040517f4c9c8ce300000000000000000000000000000000000000000000000000000000815273ffffffffffffffffffffffffffffffffffffffff831660048201526024015b60405180910390fd5b7f360894a13ba1a3210667c828492db98dca3e2076cc3735a920a3ca505d382bbc8114611734576040517faa1d49a4000000000000000000000000000000000000000000000000000000008152600481018290526024016116cf565b61073d8383611be1565b3073ffffffffffffffffffffffffffffffffffffffff7f000000000000000000000000000000000000000000000000000000000000000016146115f4576040517fe07c8dba00000000000000000000000000000000000000000000000000000000815260040160405180910390fd5b5f60405190506020815281816020015280604001808360051b808684378201808515611827575b8351870180356020820183375f38823584305af46117f4573d5f873e3d86fd5b5082810384523d815260209384019381013d5f823e5f3d8201523d01601f0167ffffffffffffffe01690508184106117d4575b60408181521b90931795945050505050565b8060401c8167ffffffffffffffff16f35b61080080547fffffffffffffffffffffffffffffffff0000000000000000ffffffffffffffff166801000000000000000067ffffffffffffffff8416908102919091179091556040519081527fad21f7eb8017dd534724f9d5d46117a5a4612da4941b67678fecf4efb850433a90602001610b0f565b5f807ff0c57e16840df040f15088dc2f81fe391c3923bec73e23a9662efc9c229c6a006105f1565b6115f4611c43565b6118f8611c43565b6115f4611c81565b5f8281527f02dd7bc7dec4dceedda775e58dd541e08a116c6c53815c0bd028192f7b6268006020908152604080832073ffffffffffffffffffffffffffffffffffffffff8516845290915290205460ff1661062a576040517fe2517d3f00000000000000000000000000000000000000000000000000000000815273ffffffffffffffffffffffffffffffffffffffff82166004820152602481018390526044016116cf565b5f815f5260205f60205f720f3df6d732807ef1319fb7b8bb8522d0beac025afa806119d857633033b0ff5f526004601cfd5b50505f51919050565b805f5260045ffd5b5f8415611a45578460051b8601865b6001841660051b8460011c945084611a1757635849603f5f526004601cfd5b85815281356020918218525f60408160025afa80611a33575f80fd5b505f5194506020018181106119f85750505b7fffffffffffffffffffffffffffffffffffffffffffffffffffffffffffffffff820115611a7a57631b6661c35f526004601cfd5b50501492915050565b80515f90603014611ab757611ab77f5f4167e9000000000000000000000000000000000000000000000000000000006119e1565b60205f60406020850160025afa806119d8575f80fd5b82820281838583041485151702611b73577fffffffffffffffffffffffffffffffffffffffffffffffffffffffffffffffff8385098181108201900382848609835f038416828511611b265763ae47f7025f526004601cfd5b93849004938382119092035f839003839004600101029203041760026003830281188084028203028084028203028084028203028084028203028084028203028084029091030202611b77565b8190045b9392505050565b5f611b8a843085611c89565b905081810181811015611bc057611bc07f1011dc51000000000000000000000000000000000000000000000000000000006119e1565b610d9873ffffffffffffffffffffffffffffffffffffffff86168583611cd3565b611bea82611d26565b60405173ffffffffffffffffffffffffffffffffffffffff8316907fbc7cd75a20ee27fd9adebab32041f755214dbc6bffa90cc0225b39da2e5c2d3b905f90a2805115611c3b5761073d8282611df4565b61062a611e73565b611c4b611eab565b6115f4576040517fd7e6bcf800000000000000000000000000000000000000000000000000000000815260040160405180910390fd5b6112a3611c43565b5f7fdd62ed3e000000000000000000000000000000000000000000000000000000005f52826004528160245260205f60445f875afa601f3d11165f510290505f6024529392505050565b81601452806034526f095ea7b30000000000000000000000005f5260205f604460105f875af18060015f511416611d1c57803d853b151710611d1c57633e3f8f735f526004601cfd5b505f603452505050565b8073ffffffffffffffffffffffffffffffffffffffff163b5f03611d8e576040517f4c9c8ce300000000000000000000000000000000000000000000000000000000815273ffffffffffffffffffffffffffffffffffffffff821660048201526024016116cf565b7f360894a13ba1a3210667c828492db98dca3e2076cc3735a920a3ca505d382bbc80547fffffffffffffffffffffffff00000000000000000000000000000000000000001673ffffffffffffffffffffffffffffffffffffffff92909216919091179055565b60605f808473ffffffffffffffffffffffffffffffffffffffff1684604051611e1d9190612805565b5f60405180830381855af49150503d805f8114611e55576040519150601f19603f3d011682016040523d82523d5f602084013e611e5a565b606091505b5091509150611e6a858383611ec9565b95945050505050565b34156115f4576040517fb398979f00000000000000000000000000000000000000000000000000000000815260040160405180910390fd5b5f611eb46118c0565b5468010000000000000000900460ff16919050565b606082611ede57611ed982611f58565b611b77565b8151158015611f02575073ffffffffffffffffffffffffffffffffffffffff84163b155b15611f51576040517f9996b31500000000000000000000000000000000000000000000000000000000815273ffffffffffffffffffffffffffffffffffffffff851660048201526024016116cf565b5080611b77565b805115611f685780518082602001fd5b6040517fd6bda27500000000000000000000000000000000000000000000000000000000815260040160405180910390fd5b5f60208284031215611faa575f80fd5b81357fffffffff0000000000000000000000000000000000000000000000000000000081168114611b77575f80fd5b67ffffffffffffffff81168114610aa8575f80fd5b5f60208284031215611ffe575f80fd5b8135611b7781611fd9565b5f8083601f840112612019575f80fd5b50813567ffffffffffffffff811115612030575f80fd5b6020830191508360208260051b850101111561204a575f80fd5b9250929050565b5f805f805f805f8060a0898b031215612068575f80fd5b883561207381611fd9565b9750602089013561208381611fd9565b9650604089013567ffffffffffffffff81111561209e575f80fd5b8901601f81018b136120ae575f80fd5b803567ffffffffffffffff8111156120c4575f80fd5b8b60208284010111156120d5575f80fd5b60209190910196509450606089013567ffffffffffffffff8111156120f8575f80fd5b6121048b828c01612009565b909550935050608089013567ffffffffffffffff811115612123575f80fd5b61212f8b828c01612009565b999c989b5096995094979396929594505050565b5f60208284031215612153575f80fd5b5035919050565b73ffffffffffffffffffffffffffffffffffffffff81168114610aa8575f80fd5b5f806040838503121561218c575f80fd5b82359150602083013561219e8161215a565b809150509250929050565b7f4e487b71000000000000000000000000000000000000000000000000000000005f52604160045260245ffd5b6040805190810167ffffffffffffffff811182821017156121f9576121f96121a9565b60405290565b604051601f82017fffffffffffffffffffffffffffffffffffffffffffffffffffffffffffffffe016810167ffffffffffffffff81118282101715612246576122466121a9565b604052919050565b5f806040838503121561225f575f80fd5b823561226a8161215a565b9150602083013567ffffffffffffffff811115612285575f80fd5b8301601f81018513612295575f80fd5b803567ffffffffffffffff8111156122af576122af6121a9565b6122e060207fffffffffffffffffffffffffffffffffffffffffffffffffffffffffffffffe0601f840116016121ff565b8181528660208385010111156122f4575f80fd5b816020840160208301375f602083830101528093505050509250929050565b5f8060208385031215612324575f80fd5b823567ffffffffffffffff81111561233a575f80fd5b61234685828601612009565b90969095509350505050565b5f81518084528060208401602086015e5f6020828601015260207fffffffffffffffffffffffffffffffffffffffffffffffffffffffffffffffe0601f83011685010191505092915050565b5f602082016020835280845180835260408501915060408160051b8601019250602086015f5b82811015612413577fffffffffffffffffffffffffffffffffffffffffffffffffffffffffffffffc08786030184526123fe858351612352565b945060209384019391909101906001016123c4565b50929695505050505050565b602081525f611b776020830184612352565b5f805f805f8060c08789031215612446575f80fd5b86356124518161215a565b955060208701356124618161215a565b945060408701356124718161215a565b935060608701356124818161215a565b9250608087013561249181611fd9565b915060a08701356124a181611fd9565b809150509295509295509295565b5f67ffffffffffffffff8316806124ed577f4e487b71000000000000000000000000000000000000000000000000000000005f52601260045260245ffd5b8067ffffffffffffffff84160691505092915050565b7f4e487b71000000000000000000000000000000000000000000000000000000005f52603260045260245ffd5b7f4e487b71000000000000000000000000000000000000000000000000000000005f52601160045260245ffd5b67ffffffffffffffff81811683821602908116908181146113e7576113e7612530565b67ffffffffffffffff81811683821601908111156105f1576105f1612530565b5f602082840312156125b0575f80fd5b81518015158114611b77575f80fd5b81835281816020850137505f602082840101525f60207fffffffffffffffffffffffffffffffffffffffffffffffffffffffffffffffe0601f840116840101905092915050565b606081525f6126196060830186886125bf565b67ffffffffffffffff9490941660208301525090151560409091015292915050565b5f6020828403121561264b575f80fd5b5051919050565b602081525f6126656020830184866125bf565b949350505050565b5f6020828403121561267d575f80fd5b815167ffffffffffffffff811115612693575f80fd5b8201604081850312156126a4575f80fd5b6126ac6121d6565b81516126b781611fd9565b8152602082015167ffffffffffffffff8111156126d2575f80fd5b80830192505084601f8301126126e6575f80fd5b815167ffffffffffffffff811115612700576127006121a9565b61270f60208260051b016121ff565b8082825260208201915060208360061b860101925087831115612730575f80fd5b6020850194505b8285101561279d576040858903121561274e575f80fd5b6127566121d6565b85516127618161215a565b815260208601516bffffffffffffffffffffffff81168114612781575f80fd5b8060208301525080835250602082019150604085019450612737565b6020840152509095945050505050565b818103818111156105f1576105f1612530565b808201808211156105f1576105f1612530565b604081525f6127e66040830185876125bf565b9050826020830152949350505050565b818382375f9101908152919050565b5f82518060208501845e5f92019182525091905056fea164736f6c634300081a000a","linkReferences":{}},"methodIdentifiers":{"DEFAULT_ADMIN_ROLE()":"a217fddf","MANAGER_ROLE()":"ec87621c","UPGRADE_INTERFACE_VERSION()":"ad3cb1cc","beraChef()":"57c60951","bgt()":"9a6c31c4","blockRewardController()":"08ccd333","distributeFor(uint64,uint64,bytes,bytes32[],bytes32[])":"0dc8b988","getRoleAdmin(bytes32)":"248a9ca3","grantRole(bytes32,address)":"2f2ff15d","hasRole(bytes32,address)":"91d14854","initialize(address,address,address,address,uint64,uint64)":"b23ae191","isTimestampActionable(uint64)":"49732f84","multicall(bytes[])":"ac9650d8","proposerIndexGIndex()":"7165e2ce","proxiableUUID()":"52d1902d","renounceRole(bytes32,address)":"36568abe","revokeRole(bytes32,address)":"d547741f","setProposerIndexGIndex(uint64)":"b07292be","setZeroValidatorPubkeyGIndex(uint64)":"05a77401","supportsInterface(bytes4)":"01ffc9a7","upgradeToAndCall(address,bytes)":"4f1ef286","zeroValidatorPubkeyGIndex()":"35222ff1"},"storageLayout":{"storage":[{"astId":79280,"contract":"src/pol/rewards/Distributor.sol:Distributor","label":"_processedTimestampsBuffer","offset":0,"slot":"0","type":"t_array(t_uint64)8191_storage"},{"astId":79283,"contract":"src/pol/rewards/Distributor.sol:Distributor","label":"zeroValidatorPubkeyGIndex","offset":0,"slot":"2048","type":"t_uint64"},{"astId":79286,"contract":"src/pol/rewards/Distributor.sol:Distributor","label":"proposerIndexGIndex","offset":8,"slot":"2048","type":"t_uint64"},{"astId":79291,"contract":"src/pol/rewards/Distributor.sol:Distributor","label":"_gap","offset":0,"slot":"2049","type":"t_array(t_uint256)50_storage"},{"astId":84126,"contract":"src/pol/rewards/Distributor.sol:Distributor","label":"beraChef","offset":0,"slot":"2099","type":"t_contract(IBeraChef)80954"},{"astId":84130,"contract":"src/pol/rewards/Distributor.sol:Distributor","label":"blockRewardController","offset":0,"slot":"2100","type":"t_contract(IBlockRewardController)81110"},{"astId":84133,"contract":"src/pol/rewards/Distributor.sol:Distributor","label":"bgt","offset":0,"slot":"2101","type":"t_address"}],"types":{"t_address":{"encoding":"inplace","label":"address","numberOfBytes":"20"},"t_array(t_uint256)50_storage":{"encoding":"inplace","label":"uint256[50]","numberOfBytes":"1600","base":"t_uint256"},"t_array(t_uint64)8191_storage":{"encoding":"inplace","label":"uint64[8191]","numberOfBytes":"65536","base":"t_uint64"},"t_contract(IBeraChef)80954":{"encoding":"inplace","label":"contract IBeraChef","numberOfBytes":"20"},"t_contract(IBlockRewardController)81110":{"encoding":"inplace","label":"contract IBlockRewardController","numberOfBytes":"20"},"t_uint256":{"encoding":"inplace","label":"uint256","numberOfBytes":"32"},"t_uint64":{"encoding":"inplace","label":"uint64","numberOfBytes":"8"}}},"id":153}