{"abi":[{"type":"function","name":"convertToUint","inputs":[{"name":"price","type":"int64","internalType":"int64"},{"name":"expo","type":"int32","internalType":"int32"},{"name":"targetDecimals","type":"uint8","internalType":"uint8"}],"outputs":[{"name":"","type":"uint256","internalType":"uint256"}],"stateMutability":"pure"}],"bytecode":{"object":"0x6103a0610034600b8282823980515f1a607314602857634e487b7160e01b5f525f60045260245ffd5b305f52607381538281f3fe7300000000000000000000000000000000000000003014608060405260043610610034575f3560e01c8063b55522b214610038575b5f80fd5b61004b610046366004610148565b61005d565b60405190815260200160405180910390f35b5f808460070b128061007157505f8360030b135b8061009e57507fffffffffffffffffffffffffffffffffffffffffffffffffffffffffffffff018360030b125b156100a7575f80fd5b5f6100d2847fffffffffffffffffffffffffffffffffffffffffffffffffffffffffffffffff6101cd565b90508060ff168360ff1610610115576100eb81846101f3565b6100f99060ff16600a610333565b61010d9067ffffffffffffffff8716610344565b915050610141565b61011f83826101f3565b61012d9060ff16600a610333565b61010d9067ffffffffffffffff871661035b565b9392505050565b5f805f6060848603121561015a575f80fd5b83358060070b811461016a575f80fd5b92506020840135600381900b8114610180575f80fd5b9150604084013560ff81168114610195575f80fd5b809150509250925092565b7f4e487b71000000000000000000000000000000000000000000000000000000005f52601160045260245ffd5b5f8260030b8260030b028060030b91508082146101ec576101ec6101a0565b5092915050565b60ff828116828216039081111561020c5761020c6101a0565b92915050565b6001815b600184111561024d57808504811115610231576102316101a0565b600184161561023f57908102905b60019390931c928002610216565b935093915050565b5f826102635750600161020c565b8161026f57505f61020c565b8160018114610285576002811461028f576102ab565b600191505061020c565b60ff8411156102a0576102a06101a0565b50506001821b61020c565b5060208310610133831016604e8410600b84101617156102ce575081810a61020c565b6102f97fffffffffffffffffffffffffffffffffffffffffffffffffffffffffffffffff8484610212565b807fffffffffffffffffffffffffffffffffffffffffffffffffffffffffffffffff0482111561032b5761032b6101a0565b029392505050565b5f61014163ffffffff841683610255565b808202811582820484141761020c5761020c6101a0565b5f8261038e577f4e487b71000000000000000000000000000000000000000000000000000000005f52601260045260245ffd5b50049056fea164736f6c634300081a000a","linkReferences":{}},"methodIdentifiers":{"convertToUint(int64,int32,uint8)":"b55522b2"},"storageLayout":{"storage":[],"types":{}},"id":96}