{"abi":[{"type":"constructor","inputs":[],"stateMutability":"nonpayable"},{"type":"function","name":"DOMAIN_SEPARATOR","inputs":[],"outputs":[{"name":"result","type":"bytes32","internalType":"bytes32"}],"stateMutability":"view"},{"type":"function","name":"allowance","inputs":[{"name":"owner","type":"address","internalType":"address"},{"name":"spender","type":"address","internalType":"address"}],"outputs":[{"name":"result","type":"uint256","internalType":"uint256"}],"stateMutability":"view"},{"type":"function","name":"approve","inputs":[{"name":"spender","type":"address","internalType":"address"},{"name":"amount","type":"uint256","internalType":"uint256"}],"outputs":[{"name":"","type":"bool","internalType":"bool"}],"stateMutability":"nonpayable"},{"type":"function","name":"balanceOf","inputs":[{"name":"owner","type":"address","internalType":"address"}],"outputs":[{"name":"result","type":"uint256","internalType":"uint256"}],"stateMutability":"view"},{"type":"function","name":"burn","inputs":[{"name":"from","type":"address","internalType":"address"},{"name":"amount","type":"uint256","internalType":"uint256"}],"outputs":[],"stateMutability":"nonpayable"},{"type":"function","name":"cancelOwnershipHandover","inputs":[],"outputs":[],"stateMutability":"payable"},{"type":"function","name":"completeOwnershipHandover","inputs":[{"name":"pendingOwner","type":"address","internalType":"address"}],"outputs":[],"stateMutability":"payable"},{"type":"function","name":"decimals","inputs":[],"outputs":[{"name":"","type":"uint8","internalType":"uint8"}],"stateMutability":"pure"},{"type":"function","name":"mint","inputs":[{"name":"to","type":"address","internalType":"address"},{"name":"amount","type":"uint256","internalType":"uint256"}],"outputs":[],"stateMutability":"nonpayable"},{"type":"function","name":"name","inputs":[],"outputs":[{"name":"","type":"string","internalType":"string"}],"stateMutability":"pure"},{"type":"function","name":"nonces","inputs":[{"name":"owner","type":"address","internalType":"address"}],"outputs":[{"name":"result","type":"uint256","internalType":"uint256"}],"stateMutability":"view"},{"type":"function","name":"owner","inputs":[],"outputs":[{"name":"result","type":"address","internalType":"address"}],"stateMutability":"view"},{"type":"function","name":"ownershipHandoverExpiresAt","inputs":[{"name":"pendingOwner","type":"address","internalType":"address"}],"outputs":[{"name":"result","type":"uint256","internalType":"uint256"}],"stateMutability":"view"},{"type":"function","name":"permit","inputs":[{"name":"owner","type":"address","internalType":"address"},{"name":"spender","type":"address","internalType":"address"},{"name":"value","type":"uint256","internalType":"uint256"},{"name":"deadline","type":"uint256","internalType":"uint256"},{"name":"v","type":"uint8","internalType":"uint8"},{"name":"r","type":"bytes32","internalType":"bytes32"},{"name":"s","type":"bytes32","internalType":"bytes32"}],"outputs":[],"stateMutability":"nonpayable"},{"type":"function","name":"renounceOwnership","inputs":[],"outputs":[],"stateMutability":"payable"},{"type":"function","name":"requestOwnershipHandover","inputs":[],"outputs":[],"stateMutability":"payable"},{"type":"function","name":"symbol","inputs":[],"outputs":[{"name":"","type":"string","internalType":"string"}],"stateMutability":"pure"},{"type":"function","name":"totalSupply","inputs":[],"outputs":[{"name":"result","type":"uint256","internalType":"uint256"}],"stateMutability":"view"},{"type":"function","name":"transfer","inputs":[{"name":"to","type":"address","internalType":"address"},{"name":"amount","type":"uint256","internalType":"uint256"}],"outputs":[{"name":"","type":"bool","internalType":"bool"}],"stateMutability":"nonpayable"},{"type":"function","name":"transferFrom","inputs":[{"name":"from","type":"address","internalType":"address"},{"name":"to","type":"address","internalType":"address"},{"name":"amount","type":"uint256","internalType":"uint256"}],"outputs":[{"name":"","type":"bool","internalType":"bool"}],"stateMutability":"nonpayable"},{"type":"function","name":"transferOwnership","inputs":[{"name":"newOwner","type":"address","internalType":"address"}],"outputs":[],"stateMutability":"payable"},{"type":"event","name":"Approval","inputs":[{"name":"owner","type":"address","indexed":true,"internalType":"address"},{"name":"spender","type":"address","indexed":true,"internalType":"address"},{"name":"amount","type":"uint256","indexed":false,"internalType":"uint256"}],"anonymous":false},{"type":"event","name":"OwnershipHandoverCanceled","inputs":[{"name":"pendingOwner","type":"address","indexed":true,"internalType":"address"}],"anonymous":false},{"type":"event","name":"OwnershipHandoverRequested","inputs":[{"name":"pendingOwner","type":"address","indexed":true,"internalType":"address"}],"anonymous":false},{"type":"event","name":"OwnershipTransferred","inputs":[{"name":"oldOwner","type":"address","indexed":true,"internalType":"address"},{"name":"newOwner","type":"address","indexed":true,"internalType":"address"}],"anonymous":false},{"type":"event","name":"Transfer","inputs":[{"name":"from","type":"address","indexed":true,"internalType":"address"},{"name":"to","type":"address","indexed":true,"internalType":"address"},{"name":"amount","type":"uint256","indexed":false,"internalType":"uint256"}],"anonymous":false},{"type":"error","name":"AllowanceOverflow","inputs":[]},{"type":"error","name":"AllowanceUnderflow","inputs":[]},{"type":"error","name":"AlreadyInitialized","inputs":[]},{"type":"error","name":"InsufficientAllowance","inputs":[]},{"type":"error","name":"InsufficientBalance","inputs":[]},{"type":"error","name":"InvalidPermit","inputs":[]},{"type":"error","name":"NewOwnerIsZeroAddress","inputs":[]},{"type":"error","name":"NoHandoverRequest","inputs":[]},{"type":"error","name":"Permit2AllowanceIsFixedAtInfinity","inputs":[]},{"type":"error","name":"PermitExpired","inputs":[]},{"type":"error","name":"TotalSupplyOverflow","inputs":[]},{"type":"error","name":"Unauthorized","inputs":[]}],"bytecode":{"object":"0x6080604052348015600e575f80fd5b50601633601a565b6055565b6001600160a01b0316638b78c6d819819055805f7f8be0079c531659141344cd1fd0a4f28419497f9722a3daafe3b4186f6b6457e08180a350565b610ceb806100625f395ff3fe608060405260043610610162575f3560e01c8063715018a6116100c6578063a9059cbb1161007c578063f04e283e11610057578063f04e283e146104da578063f2fde38b146104ed578063fee81cf414610500575f80fd5b8063a9059cbb14610468578063d505accf14610487578063dd62ed3e146104a6575f80fd5b80638da5cb5b116100ac5780638da5cb5b146103b157806395d89b41146104045780639dc29fac14610449575f80fd5b8063715018a6146103785780637ecebe0014610380575f80fd5b8063313ce5671161011b57806340c10f191161010157806340c10f191461032057806354d1f13d1461033f57806370a0823114610347575f80fd5b8063313ce5671461023b5780633644e51514610256575f80fd5b806318160ddd1161014b57806318160ddd146101ec57806323b872dd146102125780632569296214610231575f80fd5b806306fdde0314610166578063095ea7b3146101bd575b5f80fd5b348015610171575f80fd5b5060408051808201909152601181527f446563656e7472616c697a65642055534400000000000000000000000000000060208201525b6040516101b49190610b43565b60405180910390f35b3480156101c8575f80fd5b506101dc6101d7366004610bbe565b610531565b60405190151581526020016101b4565b3480156101f7575f80fd5b506805345cdf77eb68f44c545b6040519081526020016101b4565b34801561021d575f80fd5b506101dc61022c366004610be6565b610580565b610239610638565b005b348015610246575f80fd5b50604051601281526020016101b4565b348015610261575f80fd5b50604080518082018252601181527f446563656e7472616c697a65642055534400000000000000000000000000000060209182015281517f8b73c3c69bb8fe3d512ecc4cf759cc79239f7b179b0ffacaa9a75d522b39400f81527f4f9ab08425927603a712378e3ccd3521aeb46b6bf8781155088effd7176573f5918101919091527fc89efdaa54c0f20c7adf612882df0950f5a951637e0307cdcb4c672f298b8bc69181019190915246606082015230608082015260a09020610204565b34801561032b575f80fd5b5061023961033a366004610bbe565b610685565b61023961069b565b348015610352575f80fd5b50610204610361366004610c20565b6387a211a2600c9081525f91909152602090205490565b6102396106d4565b34801561038b575f80fd5b5061020461039a366004610c20565b6338377508600c9081525f91909152602090205490565b3480156103bc575f80fd5b507fffffffffffffffffffffffffffffffffffffffffffffffffffffffff748739275460405173ffffffffffffffffffffffffffffffffffffffff90911681526020016101b4565b34801561040f575f80fd5b5060408051808201909152600381527f444149000000000000000000000000000000000000000000000000000000000060208201526101a7565b348015610454575f80fd5b50610239610463366004610bbe565b6106e7565b348015610473575f80fd5b506101dc610482366004610bbe565b6106f9565b348015610492575f80fd5b506102396104a1366004610c40565b610770565b3480156104b1575f80fd5b506102046104c0366004610cad565b602052637f5e9f20600c9081525f91909152603490205490565b6102396104e8366004610c20565b610949565b6102396104fb366004610c20565b610986565b34801561050b575f80fd5b5061020461051a366004610c20565b63389a75e1600c9081525f91909152602090205490565b5f82602052637f5e9f20600c52335f52816034600c2055815f52602c5160601c337f8c5be1e5ebec7d5bd14f71427d1e84f3dd0314c0f7b2291e5b200ac8c7c3b92560205fa350600192915050565b5f8360601b33602052637f5e9f208117600c526034600c2080548019156105bc57808511156105b6576313be252b5f526004601cfd5b84810382555b50506387a211a28117600c526020600c208054808511156105e45763f4d678b85f526004601cfd5b84810382555050835f526020600c208381540181555082602052600c5160601c8160601c7fddf252ad1be2c89b69c2b068fc378daa952ba7f163c4a11628f55a4df523b3ef602080a3505060019392505050565b5f6202a30067ffffffffffffffff164201905063389a75e1600c52335f52806020600c2055337fdbf36a107da19e49527a7176a1babf963b4b0ff8cde35ee35d6cd8f1f9ac7e1d5f80a250565b61068d6109ac565b61069782826109e1565b5050565b63389a75e1600c52335f525f6020600c2055337ffa7b8eab7da67f412cc9575ed43464468f9bfbae89d1675917346ca6d8fe3c925f80a2565b6106dc6109ac565b6106e55f610a5d565b565b6106ef6109ac565b6106978282610ac2565b5f6387a211a2600c52335f526020600c208054808411156107215763f4d678b85f526004601cfd5b83810382555050825f526020600c208281540181555081602052600c5160601c337fddf252ad1be2c89b69c2b068fc378daa952ba7f163c4a11628f55a4df523b3ef602080a350600192915050565b60408051808201909152601181527f446563656e7472616c697a6564205553440000000000000000000000000000006020909101527f4f9ab08425927603a712378e3ccd3521aeb46b6bf8781155088effd7176573f57fc89efdaa54c0f20c7adf612882df0950f5a951637e0307cdcb4c672f298b8bc6428610156107fc57631a15a3cc5f526004601cfd5b6040518960601b60601c99508860601b60601c985065383775081901600e52895f526020600c2080547f8b73c3c69bb8fe3d512ecc4cf759cc79239f7b179b0ffacaa9a75d522b39400f835284602084015283604084015246606084015230608084015260a08320602e527f6e71edae12b1b97f4d1f60370fef10105fa2faae0126114a169c64845d6126c983528b60208401528a60408401528960608401528060808401528860a084015260c08320604e526042602c205f528760ff16602052866040528560605260208060805f60015afa8c3d51146108e45763ddafbaef5f526004601cfd5b019055777f5e9f20000000000000000000000000000000000000000089176040526034602c20889055888a7f8c5be1e5ebec7d5bd14f71427d1e84f3dd0314c0f7b2291e5b200ac8c7c3b925602060608501a360405250505f60605250505050505050565b6109516109ac565b63389a75e1600c52805f526020600c20805442111561097757636f5e88185f526004601cfd5b5f905561098381610a5d565b50565b61098e6109ac565b8060601b6109a357637448fbae5f526004601cfd5b61098381610a5d565b7fffffffffffffffffffffffffffffffffffffffffffffffffffffffff748739275433146106e5576382b429005f526004601cfd5b6805345cdf77eb68f44c5481810181811015610a045763e5cfe9575f526004601cfd5b806805345cdf77eb68f44c5550506387a211a2600c52815f526020600c208181540181555080602052600c5160601c5f7fddf252ad1be2c89b69c2b068fc378daa952ba7f163c4a11628f55a4df523b3ef602080a35050565b7fffffffffffffffffffffffffffffffffffffffffffffffffffffffff74873927805473ffffffffffffffffffffffffffffffffffffffff9092169182907f8be0079c531659141344cd1fd0a4f28419497f9722a3daafe3b4186f6b6457e05f80a355565b6387a211a2600c52815f526020600c20805480831115610ae95763f4d678b85f526004601cfd5b82900390556805345cdf77eb68f44c805482900390555f81815273ffffffffffffffffffffffffffffffffffffffff83167fddf252ad1be2c89b69c2b068fc378daa952ba7f163c4a11628f55a4df523b3ef602083a35050565b602081525f82518060208401528060208501604085015e5f6040828501015260407fffffffffffffffffffffffffffffffffffffffffffffffffffffffffffffffe0601f83011684010191505092915050565b803573ffffffffffffffffffffffffffffffffffffffff81168114610bb9575f80fd5b919050565b5f8060408385031215610bcf575f80fd5b610bd883610b96565b946020939093013593505050565b5f805f60608486031215610bf8575f80fd5b610c0184610b96565b9250610c0f60208501610b96565b929592945050506040919091013590565b5f60208284031215610c30575f80fd5b610c3982610b96565b9392505050565b5f805f805f805f60e0888a031215610c56575f80fd5b610c5f88610b96565b9650610c6d60208901610b96565b95506040880135945060608801359350608088013560ff81168114610c90575f80fd5b9699959850939692959460a0840135945060c09093013592915050565b5f8060408385031215610cbe575f80fd5b610cc783610b96565b9150610cd560208401610b96565b9050925092905056fea164736f6c634300081a000a","linkReferences":{}},"methodIdentifiers":{"DOMAIN_SEPARATOR()":"3644e515","allowance(address,address)":"dd62ed3e","approve(address,uint256)":"095ea7b3","balanceOf(address)":"70a08231","burn(address,uint256)":"9dc29fac","cancelOwnershipHandover()":"54d1f13d","completeOwnershipHandover(address)":"f04e283e","decimals()":"313ce567","mint(address,uint256)":"40c10f19","name()":"06fdde03","nonces(address)":"7ecebe00","owner()":"8da5cb5b","ownershipHandoverExpiresAt(address)":"fee81cf4","permit(address,address,uint256,uint256,uint8,bytes32,bytes32)":"d505accf","renounceOwnership()":"715018a6","requestOwnershipHandover()":"25692962","symbol()":"95d89b41","totalSupply()":"18160ddd","transfer(address,uint256)":"a9059cbb","transferFrom(address,address,uint256)":"23b872dd","transferOwnership(address)":"f2fde38b"},"storageLayout":{"storage":[],"types":{}},"id":28}