{"abi":[{"type":"constructor","inputs":[],"stateMutability":"nonpayable"},{"type":"function","name":"MAX_REWARD_ALLOCATION_BLOCK_DELAY","inputs":[],"outputs":[{"name":"","type":"uint64","internalType":"uint64"}],"stateMutability":"view"},{"type":"function","name":"UPGRADE_INTERFACE_VERSION","inputs":[],"outputs":[{"name":"","type":"string","internalType":"string"}],"stateMutability":"view"},{"type":"function","name":"activateQueuedValCommission","inputs":[{"name":"valPubkey","type":"bytes","internalType":"bytes"}],"outputs":[],"stateMutability":"nonpayable"},{"type":"function","name":"activateReadyQueuedRewardAllocation","inputs":[{"name":"valPubkey","type":"bytes","internalType":"bytes"}],"outputs":[],"stateMutability":"nonpayable"},{"type":"function","name":"beaconDepositContract","inputs":[],"outputs":[{"name":"","type":"address","internalType":"contract IBeaconDeposit"}],"stateMutability":"view"},{"type":"function","name":"commissionChangeDelay","inputs":[],"outputs":[{"name":"","type":"uint64","internalType":"uint64"}],"stateMutability":"view"},{"type":"function","name":"distributor","inputs":[],"outputs":[{"name":"","type":"address","internalType":"address"}],"stateMutability":"view"},{"type":"function","name":"factory","inputs":[],"outputs":[{"name":"","type":"address","internalType":"address"}],"stateMutability":"view"},{"type":"function","name":"getActiveRewardAllocation","inputs":[{"name":"valPubkey","type":"bytes","internalType":"bytes"}],"outputs":[{"name":"","type":"tuple","internalType":"struct IBeraChef_V1.RewardAllocation","components":[{"name":"startBlock","type":"uint64","internalType":"uint64"},{"name":"weights","type":"tuple[]","internalType":"struct IBeraChef_V1.Weight[]","components":[{"name":"receiver","type":"address","internalType":"address"},{"name":"percentageNumerator","type":"uint96","internalType":"uint96"}]}]}],"stateMutability":"view"},{"type":"function","name":"getDefaultRewardAllocation","inputs":[],"outputs":[{"name":"","type":"tuple","internalType":"struct IBeraChef_V1.RewardAllocation","components":[{"name":"startBlock","type":"uint64","internalType":"uint64"},{"name":"weights","type":"tuple[]","internalType":"struct IBeraChef_V1.Weight[]","components":[{"name":"receiver","type":"address","internalType":"address"},{"name":"percentageNumerator","type":"uint96","internalType":"uint96"}]}]}],"stateMutability":"view"},{"type":"function","name":"getQueuedRewardAllocation","inputs":[{"name":"valPubkey","type":"bytes","internalType":"bytes"}],"outputs":[{"name":"","type":"tuple","internalType":"struct IBeraChef_V1.RewardAllocation","components":[{"name":"startBlock","type":"uint64","internalType":"uint64"},{"name":"weights","type":"tuple[]","internalType":"struct IBeraChef_V1.Weight[]","components":[{"name":"receiver","type":"address","internalType":"address"},{"name":"percentageNumerator","type":"uint96","internalType":"uint96"}]}]}],"stateMutability":"view"},{"type":"function","name":"getSetActiveRewardAllocation","inputs":[{"name":"valPubkey","type":"bytes","internalType":"bytes"}],"outputs":[{"name":"","type":"tuple","internalType":"struct IBeraChef_V1.RewardAllocation","components":[{"name":"startBlock","type":"uint64","internalType":"uint64"},{"name":"weights","type":"tuple[]","internalType":"struct IBeraChef_V1.Weight[]","components":[{"name":"receiver","type":"address","internalType":"address"},{"name":"percentageNumerator","type":"uint96","internalType":"uint96"}]}]}],"stateMutability":"view"},{"type":"function","name":"getValCommissionOnIncentiveTokens","inputs":[{"name":"valPubkey","type":"bytes","internalType":"bytes"}],"outputs":[{"name":"","type":"uint96","internalType":"uint96"}],"stateMutability":"view"},{"type":"function","name":"getValQueuedCommissionOnIncentiveTokens","inputs":[{"name":"valPubkey","type":"bytes","internalType":"bytes"}],"outputs":[{"name":"","type":"tuple","internalType":"struct IBeraChef_V1.QueuedCommissionRateChange","components":[{"name":"blockNumberLast","type":"uint32","internalType":"uint32"},{"name":"commissionRate","type":"uint96","internalType":"uint96"}]}],"stateMutability":"view"},{"type":"function","name":"getValidatorIncentiveTokenShare","inputs":[{"name":"valPubkey","type":"bytes","internalType":"bytes"},{"name":"incentiveTokenAmount","type":"uint256","internalType":"uint256"}],"outputs":[{"name":"","type":"uint256","internalType":"uint256"}],"stateMutability":"view"},{"type":"function","name":"initialize","inputs":[{"name":"_distributor","type":"address","internalType":"address"},{"name":"_factory","type":"address","internalType":"address"},{"name":"_governance","type":"address","internalType":"address"},{"name":"_beaconDepositContract","type":"address","internalType":"address"},{"name":"_maxNumWeightsPerRewardAllocation","type":"uint8","internalType":"uint8"}],"outputs":[],"stateMutability":"nonpayable"},{"type":"function","name":"isQueuedRewardAllocationReady","inputs":[{"name":"valPubkey","type":"bytes","internalType":"bytes"},{"name":"blockNumber","type":"uint256","internalType":"uint256"}],"outputs":[{"name":"","type":"bool","internalType":"bool"}],"stateMutability":"view"},{"type":"function","name":"isReady","inputs":[],"outputs":[{"name":"","type":"bool","internalType":"bool"}],"stateMutability":"view"},{"type":"function","name":"isWhitelistedVault","inputs":[{"name":"receiver","type":"address","internalType":"address"}],"outputs":[{"name":"","type":"bool","internalType":"bool"}],"stateMutability":"view"},{"type":"function","name":"maxNumWeightsPerRewardAllocation","inputs":[],"outputs":[{"name":"","type":"uint8","internalType":"uint8"}],"stateMutability":"view"},{"type":"function","name":"owner","inputs":[],"outputs":[{"name":"","type":"address","internalType":"address"}],"stateMutability":"view"},{"type":"function","name":"proxiableUUID","inputs":[],"outputs":[{"name":"","type":"bytes32","internalType":"bytes32"}],"stateMutability":"view"},{"type":"function","name":"queueNewRewardAllocation","inputs":[{"name":"valPubkey","type":"bytes","internalType":"bytes"},{"name":"startBlock","type":"uint64","internalType":"uint64"},{"name":"weights","type":"tuple[]","internalType":"struct IBeraChef_V1.Weight[]","components":[{"name":"receiver","type":"address","internalType":"address"},{"name":"percentageNumerator","type":"uint96","internalType":"uint96"}]}],"outputs":[],"stateMutability":"nonpayable"},{"type":"function","name":"queueValCommission","inputs":[{"name":"valPubkey","type":"bytes","internalType":"bytes"},{"name":"commissionRate","type":"uint96","internalType":"uint96"}],"outputs":[],"stateMutability":"nonpayable"},{"type":"function","name":"renounceOwnership","inputs":[],"outputs":[],"stateMutability":"nonpayable"},{"type":"function","name":"rewardAllocationBlockDelay","inputs":[],"outputs":[{"name":"","type":"uint64","internalType":"uint64"}],"stateMutability":"view"},{"type":"function","name":"setCommissionChangeDelay","inputs":[{"name":"_commissionChangeDelay","type":"uint64","internalType":"uint64"}],"outputs":[],"stateMutability":"nonpayable"},{"type":"function","name":"setDefaultRewardAllocation","inputs":[{"name":"ra","type":"tuple","internalType":"struct IBeraChef_V1.RewardAllocation","components":[{"name":"startBlock","type":"uint64","internalType":"uint64"},{"name":"weights","type":"tuple[]","internalType":"struct IBeraChef_V1.Weight[]","components":[{"name":"receiver","type":"address","internalType":"address"},{"name":"percentageNumerator","type":"uint96","internalType":"uint96"}]}]}],"outputs":[],"stateMutability":"nonpayable"},{"type":"function","name":"setMaxNumWeightsPerRewardAllocation","inputs":[{"name":"_maxNumWeightsPerRewardAllocation","type":"uint8","internalType":"uint8"}],"outputs":[],"stateMutability":"nonpayable"},{"type":"function","name":"setRewardAllocationBlockDelay","inputs":[{"name":"_rewardAllocationBlockDelay","type":"uint64","internalType":"uint64"}],"outputs":[],"stateMutability":"nonpayable"},{"type":"function","name":"setVaultWhitelistedStatus","inputs":[{"name":"receiver","type":"address","internalType":"address"},{"name":"isWhitelisted","type":"bool","internalType":"bool"},{"name":"metadata","type":"string","internalType":"string"}],"outputs":[],"stateMutability":"nonpayable"},{"type":"function","name":"transferOwnership","inputs":[{"name":"newOwner","type":"address","internalType":"address"}],"outputs":[],"stateMutability":"nonpayable"},{"type":"function","name":"updateWhitelistedVaultMetadata","inputs":[{"name":"vault","type":"address","internalType":"address"},{"name":"metadata","type":"string","internalType":"string"}],"outputs":[],"stateMutability":"nonpayable"},{"type":"function","name":"upgradeToAndCall","inputs":[{"name":"newImplementation","type":"address","internalType":"address"},{"name":"data","type":"bytes","internalType":"bytes"}],"outputs":[],"stateMutability":"payable"},{"type":"event","name":"ActivateRewardAllocation","inputs":[{"name":"valPubkey","type":"bytes","indexed":true,"internalType":"bytes"},{"name":"startBlock","type":"uint64","indexed":false,"internalType":"uint64"},{"name":"weights","type":"tuple[]","indexed":false,"internalType":"struct IBeraChef_V1.Weight[]","components":[{"name":"receiver","type":"address","internalType":"address"},{"name":"percentageNumerator","type":"uint96","internalType":"uint96"}]}],"anonymous":false},{"type":"event","name":"CommissionChangeDelaySet","inputs":[{"name":"commissionChangeDelay","type":"uint64","indexed":false,"internalType":"uint64"}],"anonymous":false},{"type":"event","name":"Initialized","inputs":[{"name":"version","type":"uint64","indexed":false,"internalType":"uint64"}],"anonymous":false},{"type":"event","name":"MaxNumWeightsPerRewardAllocationSet","inputs":[{"name":"maxNumWeightsPerRewardAllocation","type":"uint8","indexed":false,"internalType":"uint8"}],"anonymous":false},{"type":"event","name":"OwnershipTransferred","inputs":[{"name":"previousOwner","type":"address","indexed":true,"internalType":"address"},{"name":"newOwner","type":"address","indexed":true,"internalType":"address"}],"anonymous":false},{"type":"event","name":"QueueRewardAllocation","inputs":[{"name":"valPubkey","type":"bytes","indexed":true,"internalType":"bytes"},{"name":"startBlock","type":"uint64","indexed":false,"internalType":"uint64"},{"name":"weights","type":"tuple[]","indexed":false,"internalType":"struct IBeraChef_V1.Weight[]","components":[{"name":"receiver","type":"address","internalType":"address"},{"name":"percentageNumerator","type":"uint96","internalType":"uint96"}]}],"anonymous":false},{"type":"event","name":"QueuedValCommission","inputs":[{"name":"valPubkey","type":"bytes","indexed":true,"internalType":"bytes"},{"name":"queuedCommissionRate","type":"uint96","indexed":false,"internalType":"uint96"}],"anonymous":false},{"type":"event","name":"RewardAllocationBlockDelaySet","inputs":[{"name":"rewardAllocationBlockDelay","type":"uint64","indexed":false,"internalType":"uint64"}],"anonymous":false},{"type":"event","name":"SetDefaultRewardAllocation","inputs":[{"name":"rewardAllocation","type":"tuple","indexed":false,"internalType":"struct IBeraChef_V1.RewardAllocation","components":[{"name":"startBlock","type":"uint64","internalType":"uint64"},{"name":"weights","type":"tuple[]","internalType":"struct IBeraChef_V1.Weight[]","components":[{"name":"receiver","type":"address","internalType":"address"},{"name":"percentageNumerator","type":"uint96","internalType":"uint96"}]}]}],"anonymous":false},{"type":"event","name":"Upgraded","inputs":[{"name":"implementation","type":"address","indexed":true,"internalType":"address"}],"anonymous":false},{"type":"event","name":"ValCommissionSet","inputs":[{"name":"valPubkey","type":"bytes","indexed":true,"internalType":"bytes"},{"name":"oldCommissionRate","type":"uint96","indexed":false,"internalType":"uint96"},{"name":"newCommissionRate","type":"uint96","indexed":false,"internalType":"uint96"}],"anonymous":false},{"type":"event","name":"VaultWhitelistedStatusUpdated","inputs":[{"name":"receiver","type":"address","indexed":true,"internalType":"address"},{"name":"isWhitelisted","type":"bool","indexed":true,"internalType":"bool"},{"name":"metadata","type":"string","indexed":false,"internalType":"string"}],"anonymous":false},{"type":"event","name":"WhitelistedVaultMetadataUpdated","inputs":[{"name":"receiver","type":"address","indexed":true,"internalType":"address"},{"name":"metadata","type":"string","indexed":false,"internalType":"string"}],"anonymous":false},{"type":"error","name":"AddressEmptyCode","inputs":[{"name":"target","type":"address","internalType":"address"}]},{"type":"error","name":"AmountLessThanMinIncentiveRate","inputs":[]},{"type":"error","name":"CannotRecoverIncentiveToken","inputs":[]},{"type":"error","name":"CannotRecoverRewardToken","inputs":[]},{"type":"error","name":"CannotRecoverStakingToken","inputs":[]},{"type":"error","name":"CommissionChangeAlreadyQueued","inputs":[]},{"type":"error","name":"CommissionNotQueuedOrDelayNotPassed","inputs":[]},{"type":"error","name":"DepositNotMultipleOfGwei","inputs":[]},{"type":"error","name":"DepositValueTooHigh","inputs":[]},{"type":"error","name":"DonateAmountLessThanPayoutAmount","inputs":[]},{"type":"error","name":"ERC1967InvalidImplementation","inputs":[{"name":"implementation","type":"address","internalType":"address"}]},{"type":"error","name":"ERC1967NonPayable","inputs":[]},{"type":"error","name":"FailedCall","inputs":[]},{"type":"error","name":"IncentiveRateTooHigh","inputs":[]},{"type":"error","name":"IndexOutOfRange","inputs":[]},{"type":"error","name":"InsolventReward","inputs":[]},{"type":"error","name":"InsufficientDelegateStake","inputs":[]},{"type":"error","name":"InsufficientDeposit","inputs":[]},{"type":"error","name":"InsufficientIncentiveTokens","inputs":[]},{"type":"error","name":"InsufficientSelfStake","inputs":[]},{"type":"error","name":"InsufficientStake","inputs":[]},{"type":"error","name":"InvalidActivateBoostDelay","inputs":[]},{"type":"error","name":"InvalidArray","inputs":[]},{"type":"error","name":"InvalidBaseRate","inputs":[]},{"type":"error","name":"InvalidBoostMultiplier","inputs":[]},{"type":"error","name":"InvalidCommissionChangeDelay","inputs":[]},{"type":"error","name":"InvalidCommissionValue","inputs":[]},{"type":"error","name":"InvalidCredentialsLength","inputs":[]},{"type":"error","name":"InvalidDistribution","inputs":[]},{"type":"error","name":"InvalidDropBoostDelay","inputs":[]},{"type":"error","name":"InvalidIncentiveRate","inputs":[]},{"type":"error","name":"InvalidInitialization","inputs":[]},{"type":"error","name":"InvalidMaxIncentiveTokensCount","inputs":[]},{"type":"error","name":"InvalidMaxWeightPerVault","inputs":[]},{"type":"error","name":"InvalidMerkleRoot","inputs":[]},{"type":"error","name":"InvalidMinBoostedRewardRate","inputs":[]},{"type":"error","name":"InvalidProof","inputs":[]},{"type":"error","name":"InvalidPubKeyLength","inputs":[]},{"type":"error","name":"InvalidRewardAllocationWeights","inputs":[]},{"type":"error","name":"InvalidRewardClaimDelay","inputs":[]},{"type":"error","name":"InvalidRewardConvexity","inputs":[]},{"type":"error","name":"InvalidRewardRate","inputs":[]},{"type":"error","name":"InvalidSignatureLength","inputs":[]},{"type":"error","name":"InvalidStartBlock","inputs":[]},{"type":"error","name":"InvalidToken","inputs":[]},{"type":"error","name":"InvalidWeight","inputs":[]},{"type":"error","name":"InvalidateDefaultRewardAllocation","inputs":[]},{"type":"error","name":"InvariantCheckFailed","inputs":[]},{"type":"error","name":"MaxNumWeightsPerRewardAllocationIsZero","inputs":[]},{"type":"error","name":"MinIncentiveRateIsZero","inputs":[]},{"type":"error","name":"NotAContract","inputs":[]},{"type":"error","name":"NotApprovedSender","inputs":[]},{"type":"error","name":"NotBGT","inputs":[]},{"type":"error","name":"NotBlockRewardController","inputs":[]},{"type":"error","name":"NotDelegate","inputs":[]},{"type":"error","name":"NotDistributor","inputs":[]},{"type":"error","name":"NotEnoughBalance","inputs":[]},{"type":"error","name":"NotEnoughBoostedBalance","inputs":[]},{"type":"error","name":"NotEnoughTime","inputs":[]},{"type":"error","name":"NotFactoryVault","inputs":[]},{"type":"error","name":"NotFeeCollector","inputs":[]},{"type":"error","name":"NotIncentiveManager","inputs":[]},{"type":"error","name":"NotInitializing","inputs":[]},{"type":"error","name":"NotNewOperator","inputs":[]},{"type":"error","name":"NotOperator","inputs":[]},{"type":"error","name":"NotWhitelistedVault","inputs":[]},{"type":"error","name":"OperatorAlreadySet","inputs":[]},{"type":"error","name":"OwnableInvalidOwner","inputs":[{"name":"owner","type":"address","internalType":"address"}]},{"type":"error","name":"OwnableUnauthorizedAccount","inputs":[{"name":"account","type":"address","internalType":"address"}]},{"type":"error","name":"PayoutAmountIsZero","inputs":[]},{"type":"error","name":"RewardAllocationAlreadyQueued","inputs":[]},{"type":"error","name":"RewardAllocationBlockDelayTooLarge","inputs":[]},{"type":"error","name":"RewardCycleNotEnded","inputs":[]},{"type":"error","name":"RewardInactive","inputs":[]},{"type":"error","name":"RewardsDurationIsZero","inputs":[]},{"type":"error","name":"StakeAmountIsZero","inputs":[]},{"type":"error","name":"TimestampAlreadyProcessed","inputs":[]},{"type":"error","name":"TokenAlreadyWhitelistedOrLimitReached","inputs":[]},{"type":"error","name":"TokenNotWhitelisted","inputs":[]},{"type":"error","name":"TooManyWeights","inputs":[]},{"type":"error","name":"TotalSupplyOverflow","inputs":[]},{"type":"error","name":"UUPSUnauthorizedCallContext","inputs":[]},{"type":"error","name":"UUPSUnsupportedProxiableUUID","inputs":[{"name":"slot","type":"bytes32","internalType":"bytes32"}]},{"type":"error","name":"WithdrawAmountIsZero","inputs":[]},{"type":"error","name":"ZeroAddress","inputs":[]},{"type":"error","name":"ZeroOperatorOnFirstDeposit","inputs":[]},{"type":"error","name":"ZeroPercentageWeight","inputs":[]}],"bytecode":{"object":"0x60a060405230608052348015610013575f80fd5b5061001c610021565b6100d3565b7ff0c57e16840df040f15088dc2f81fe391c3923bec73e23a9662efc9c229c6a00805468010000000000000000900460ff16156100715760405163f92ee8a960e01b815260040160405180910390fd5b80546001600160401b03908116146100d05780546001600160401b0319166001600160401b0390811782556040519081527fc7f505b2f371ae2175ee4913f4499e1f2633a7b5936321eed1cdaeb6115181d29060200160405180910390a15b50565b6080516135086100f95f395f8181611f9e01528181611fc701526121e301526135085ff3fe60806040526004361061020e575f3560e01c80637239e8ca11610117578063bfe10928116100ac578063da6f75631161007c578063eafe0f4c11610062578063eafe0f4c1461071e578063f2fde38b1461074a578063fb9f6fde14610769575f80fd5b8063da6f7563146106e0578063e5eb90aa146106ff575f80fd5b8063bfe109281461061f578063c35569cd1461064a578063c45a015514610695578063c89f2665146106c1575f80fd5b8063a094a031116100e7578063a094a03114610538578063a2ce27731461054e578063a83f08171461057c578063ad3cb1cc146105ca575f80fd5b80637239e8ca146104715780638da5cb5b146104905780638f7e0f0b146104fa5780639ca2626c14610519575f80fd5b806352d1902d116101a757806366204c78116101775780636ed0bf9a1161015d5780636ed0bf9a1461040f578063715018a61461042e578063722f8e0a14610442575f80fd5b806366204c78146103d157806369ed1708146103f0575f80fd5b806352d1902d1461032957806353a35d1d1461033d57806361b8b56014610375578063620a12b7146103b1575f80fd5b80633909cbd5116101e25780633909cbd51461029b5780634ce34525146102c85780634ecbf5c0146102f75780634f1ef28614610316575f80fd5b80628c26761461021257806317dbf27014610233578063230288ce1461025d57806337e4c5bf1461027c575b5f80fd5b34801561021d575f80fd5b5061023161022c3660046129ce565b610788565b005b34801561023e575f80fd5b50610247610a0f565b6040516102549190612a37565b60405180910390f35b348015610268575f80fd5b50610247610277366004612b11565b610ae0565b348015610287575f80fd5b50610231610296366004612b11565b610bd0565b3480156102a6575f80fd5b506102ba6102b5366004612b50565b610dd5565b604051908152602001610254565b3480156102d3575f80fd5b506102de621410b881565b60405167ffffffffffffffff9091168152602001610254565b348015610302575f80fd5b50610247610311366004612b11565b610e15565b610231610324366004612c5a565b610e3b565b348015610334575f80fd5b506102ba610e5a565b348015610348575f80fd5b506002546102de9074010000000000000000000000000000000000000000900467ffffffffffffffff1681565b348015610380575f80fd5b5061039461038f366004612b11565b610e88565b6040516bffffffffffffffffffffffff9091168152602001610254565b3480156103bc575f80fd5b506008546102de9067ffffffffffffffff1681565b3480156103dc575f80fd5b506102316103eb366004612cba565b610e93565b3480156103fb575f80fd5b5061023161040a366004612cf1565b610f8d565b34801561041a575f80fd5b50610231610429366004612b11565b61103c565b348015610439575f80fd5b506102316111e3565b34801561044d575f80fd5b5061046161045c366004612b50565b6111f6565b6040519015158152602001610254565b34801561047c575f80fd5b5061023161048b366004612d49565b611248565b34801561049b575f80fd5b507f9016d09d72d40fdae2fd8ceac6b6234c7706214fd39c1cd1e609a0528c1993005473ffffffffffffffffffffffffffffffffffffffff165b60405173ffffffffffffffffffffffffffffffffffffffff9091168152602001610254565b348015610505575f80fd5b50610231610514366004612d7d565b611307565b348015610524575f80fd5b50610231610533366004612d49565b611560565b348015610543575f80fd5b506007541515610461565b348015610559575f80fd5b50610461610568366004612dd0565b60056020525f908152604090205460ff1681565b348015610587575f80fd5b5061059b610596366004612b11565b611627565b60408051825163ffffffff1681526020928301516bffffffffffffffffffffffff169281019290925201610254565b3480156105d5575f80fd5b506106126040518060400160405280600581526020017f352e302e3000000000000000000000000000000000000000000000000000000081525081565b6040516102549190612deb565b34801561062a575f80fd5b505f546104d59073ffffffffffffffffffffffffffffffffffffffff1681565b348015610655575f80fd5b50600254610683907c0100000000000000000000000000000000000000000000000000000000900460ff1681565b60405160ff9091168152602001610254565b3480156106a0575f80fd5b506001546104d59073ffffffffffffffffffffffffffffffffffffffff1681565b3480156106cc575f80fd5b506102316106db366004612e3e565b611692565b3480156106eb575f80fd5b506102476106fa366004612b11565b6116f8565b34801561070a575f80fd5b50610231610719366004612e75565b6118d0565b348015610729575f80fd5b506002546104d59073ffffffffffffffffffffffffffffffffffffffff1681565b348015610755575f80fd5b50610231610764366004612dd0565b611b7e565b348015610774575f80fd5b50610231610783366004612f25565b611be6565b5f610791611eca565b805490915060ff68010000000000000000820416159067ffffffffffffffff165f811580156107bd5750825b90505f8267ffffffffffffffff1660011480156107d95750303b155b9050811580156107e7575080155b1561081e576040517ff92ee8a900000000000000000000000000000000000000000000000000000000815260040160405180910390fd5b84547fffffffffffffffffffffffffffffffffffffffffffffffff0000000000000000166001178555831561087f5784547fffffffffffffffffffffffffffffffffffffffffffffff00ffffffffffffffff16680100000000000000001785555b61088888611ef2565b610890611f03565b5f805473ffffffffffffffffffffffffffffffffffffffff808d167fffffffffffffffffffffffff0000000000000000000000000000000000000000928316178355600180548d831690841617905560028054918b169190921617905560ff87169003610920576109207fa4cc22ed00000000000000000000000000000000000000000000000000000000611f0b565b60405160ff871681527f1f427f3160f84ab8033ba8e3550b2a3f178241305e86660a221c0dc52f3bc9ae9060200160405180910390a1600280547fffffff00ffffffffffffffffffffffffffffffffffffffffffffffffffffffff167c010000000000000000000000000000000000000000000000000000000060ff8916021790558315610a035784547fffffffffffffffffffffffffffffffffffffffffffffff00ffffffffffffffff168555604051600181527fc7f505b2f371ae2175ee4913f4499e1f2633a7b5936321eed1cdaeb6115181d29060200160405180910390a15b50505050505050505050565b604080518082019091525f8152606060208201526040805180820182526006805467ffffffffffffffff1682526007805484516020828102820181019096528181529394929383860193909291905f9084015b82821015610ad3575f848152602090819020604080518082019091529084015473ffffffffffffffffffffffffffffffffffffffff811682527401000000000000000000000000000000000000000090046bffffffffffffffffffffffff1681830152825260019092019101610a62565b5050505081525050905090565b604080518082019091525f81526060602082015260038383604051610b06929190612f87565b9081526040805191829003602090810183208383018352805467ffffffffffffffff1684526001810180548451818502810185019095528085529193858401939092905f9084015b82821015610bbf575f848152602090819020604080518082019091529084015473ffffffffffffffffffffffffffffffffffffffff811682527401000000000000000000000000000000000000000090046bffffffffffffffffffffffff1681830152825260019092019101610b4e565b505050508152505090505b92915050565b5f60098383604051610be3929190612f87565b908152604051908190036020019020805460085491925063ffffffff8116916bffffffffffffffffffffffff64010000000090920491909116905f90610c339067ffffffffffffffff1684612fc3565b905063ffffffff83161580610c4d57508063ffffffff1643105b15610c7b57610c7b7fe926944600000000000000000000000000000000000000000000000000000000611f0b565b5f610c868787611f13565b905060405180604001604052808363ffffffff168152602001846bffffffffffffffffffffffff16815250600a8888604051610cc3929190612f87565b90815260405190819003602090810182208351815494909201516bffffffffffffffffffffffff16640100000000027fffffffffffffffffffffffffffffffff0000000000000000000000000000000090941663ffffffff9092169190911792909217909155610d369088908890612f87565b604080519182900382206bffffffffffffffffffffffff808516845286166020840152917f154e6b9420982ca77402c0dd255e23fef1199d854e122d1231ec746266d0cf48910160405180910390a260098787604051610d97929190612f87565b90815260405190819003602001902080547fffffffffffffffffffffffffffffffff0000000000000000000000000000000016905550505050505050565b5f80610de18585611f13565b90505f612710610dff6bffffffffffffffffffffffff841686612fe3565b610e099190612ffa565b925050505b9392505050565b604080518082019091525f81526060602082015260048383604051610b06929190612f87565b610e43611f86565b610e4c8261208a565b610e568282612092565b5050565b5f610e636121cb565b507f360894a13ba1a3210667c828492db98dca3e2076cc3735a920a3ca505d382bbc90565b5f610e0e8383611f13565b610e9b61223a565b8060ff165f03610ece57610ece7fa4cc22ed00000000000000000000000000000000000000000000000000000000611f0b565b60075460ff82161015610f0457610f047f3e38573f00000000000000000000000000000000000000000000000000000000611f0b565b600280547fffffff00ffffffffffffffffffffffffffffffffffffffffffffffffffffffff167c010000000000000000000000000000000000000000000000000000000060ff8416908102919091179091556040519081527f1f427f3160f84ab8033ba8e3550b2a3f178241305e86660a221c0dc52f3bc9ae906020015b60405180910390a150565b610f9561223a565b73ffffffffffffffffffffffffffffffffffffffff82165f9081526005602052604090205460ff16610fea57610fea7f3640785000000000000000000000000000000000000000000000000000000000611f0b565b8173ffffffffffffffffffffffffffffffffffffffff167fb10c3a0623fdc435deba8729692b1a7c6c1886b7466c8cffa3ccdb42042ffbc5826040516110309190612deb565b60405180910390a25050565b5f5473ffffffffffffffffffffffffffffffffffffffff163314611083576110837f385296d500000000000000000000000000000000000000000000000000000000611f0b565b61108e8282436111f6565b15610e56575f600483836040516110a6929190612f87565b908152604051908190036020018120805490925067ffffffffffffffff169082906003906110d79087908790612f87565b908152604051908190036020019020815481547fffffffffffffffffffffffffffffffffffffffffffffffff00000000000000001667ffffffffffffffff9091161781556001808301805461112f92840191906128b4565b5050604051611142915085908590612f87565b60405180910390207f09fed3850dff4fef07a5284847da937f94021882ecab1c143fcacd69e5451bd8828460010160405161117e929190613032565b60405180910390a260048484604051611198929190612f87565b90815260405190819003602001902080547fffffffffffffffffffffffffffffffffffffffffffffffff00000000000000001681555f6111db600183018261296d565b505050505050565b6111eb61223a565b6111f45f6122c8565b565b5f806004858560405161120a929190612f87565b9081526040519081900360200190205467ffffffffffffffff169050801580159061123f5750828167ffffffffffffffff1611155b95945050505050565b61125061223a565b67ffffffffffffffff811615806112725750613ffe67ffffffffffffffff8216115b156112a0576112a07fc1abde5300000000000000000000000000000000000000000000000000000000611f0b565b600880547fffffffffffffffffffffffffffffffffffffffffffffffff00000000000000001667ffffffffffffffff83169081179091556040519081527f64362e066c3e2aa8c9ade9c3c475eca8e99702a002a5adbe13a4404fc05dfee390602001610f82565b6002546040517f9eaffa960000000000000000000000000000000000000000000000000000000081528491849173ffffffffffffffffffffffffffffffffffffffff90911690639eaffa969061136390859085906004016130ab565b602060405180830381865afa15801561137e573d5f803e3d5ffd5b505050506040513d601f19601f820116820180604052508101906113a291906130f7565b73ffffffffffffffffffffffffffffffffffffffff163373ffffffffffffffffffffffffffffffffffffffff16146113fd576113fd7f7c214f0400000000000000000000000000000000000000000000000000000000611f0b565b6127106bffffffffffffffffffffffff8416111561143e5761143e7fab396d1100000000000000000000000000000000000000000000000000000000611f0b565b5f60098686604051611451929190612f87565b908152604051908190036020019020805490915063ffffffff1615611499576114997f0c32c4fa00000000000000000000000000000000000000000000000000000000611f0b565b80547fffffffffffffffffffffffffffffffff00000000000000000000000000000000166401000000006bffffffffffffffffffffffff8616027fffffffffffffffffffffffffffffffffffffffffffffffffffffffff0000000016174363ffffffff161781556040516115109087908790612f87565b6040519081900381206bffffffffffffffffffffffff86168252907f6c1fd7992c5cda804ff20cff8ec6eb7622a74aa084ff0f7bfd15b9f30a4a5a739060200160405180910390a2505050505050565b61156861223a565b621410b867ffffffffffffffff821611156115a6576115a67f462a2bb200000000000000000000000000000000000000000000000000000000611f0b565b600280547fffffffff0000000000000000ffffffffffffffffffffffffffffffffffffffff167401000000000000000000000000000000000000000067ffffffffffffffff8416908102919091179091556040519081527fd30a76f5419042e46e49eaf91b6a0f0feaaa673b6db586a63d3e8e79d4bf208190602001610f82565b604080518082019091525f80825260208201526009838360405161164c929190612f87565b908152604080519182900360209081018320838301909252905463ffffffff811683526bffffffffffffffffffffffff6401000000009091041690820152905092915050565b61169a61223a565b6116af6116aa6020830183613112565b61235d565b7f63a1be039047941d4150a7feb1920b5fadcbf022e1a21334fba542a52eabdaf7816040516116de91906131ee565b60405180910390a18060066116f38282613309565b505050565b604080518082019091525f8152606060208201525f6003848460405161171f929190612f87565b9081526040805191829003602090810183208383018352805467ffffffffffffffff1684526001810180548451818502810185019095528085529193858401939092905f9084015b828210156117d8575f848152602090819020604080518082019091529084015473ffffffffffffffffffffffffffffffffffffffff811682527401000000000000000000000000000000000000000090046bffffffffffffffffffffffff1681830152825260019092019101611767565b50505091525050805190915067ffffffffffffffff1615801590611804575061180481602001516124f5565b15611810579050610bca565b6040805180820182526006805467ffffffffffffffff1682526007805484516020828102820181019096528181529394929383860193909291905f9084015b828210156118c0575f848152602090819020604080518082019091529084015473ffffffffffffffffffffffffffffffffffffffff811682527401000000000000000000000000000000000000000090046bffffffffffffffffffffffff168183015282526001909201910161184f565b5050509152509095945050505050565b6002546040517f9eaffa960000000000000000000000000000000000000000000000000000000081528691869173ffffffffffffffffffffffffffffffffffffffff90911690639eaffa969061192c90859085906004016130ab565b602060405180830381865afa158015611947573d5f803e3d5ffd5b505050506040513d601f19601f8201168201806040525081019061196b91906130f7565b73ffffffffffffffffffffffffffffffffffffffff163373ffffffffffffffffffffffffffffffffffffffff16146119c6576119c67f7c214f0400000000000000000000000000000000000000000000000000000000611f0b565b6002546119f59074010000000000000000000000000000000000000000900467ffffffffffffffff164361342c565b8567ffffffffffffffff1611611a2e57611a2e7fec2caa0d00000000000000000000000000000000000000000000000000000000611f0b565b5f60048888604051611a41929190612f87565b908152604051908190036020019020805490915067ffffffffffffffff1615611a8d57611a8d7f3be31f8c00000000000000000000000000000000000000000000000000000000611f0b565b611a97858561235d565b80547fffffffffffffffffffffffffffffffffffffffffffffffff00000000000000001667ffffffffffffffff8716178155600181015f5b85811015611b1f5781878783818110611aea57611aea61343f565b83546001810185555f948552602090942060409091029290920192919091019050611b158282613284565b5050600101611acf565b508888604051611b30929190612f87565b60405180910390207f22fe555512d9a04d20e3735ac5fe7a73227c2c6398f1453a5d60ce7aaf5de2ae888888604051611b6b9392919061346c565b60405180910390a2505050505050505050565b611b8661223a565b73ffffffffffffffffffffffffffffffffffffffff8116611bda576040517f1e4fbdf70000000000000000000000000000000000000000000000000000000081525f60048201526024015b60405180910390fd5b611be3816122c8565b50565b611bee61223a565b5f8373ffffffffffffffffffffffffffffffffffffffff166351ed6a306040518163ffffffff1660e01b8152600401602060405180830381865afa158015611c38573d5f803e3d5ffd5b505050506040513d601f19601f82011682018060405250810190611c5c91906130f7565b6001546040517f0eb9af3800000000000000000000000000000000000000000000000000000000815273ffffffffffffffffffffffffffffffffffffffff80841660048301529293505f9290911690630eb9af3890602401602060405180830381865afa158015611ccf573d5f803e3d5ffd5b505050506040513d601f19601f82011682018060405250810190611cf391906130f7565b90508073ffffffffffffffffffffffffffffffffffffffff168573ffffffffffffffffffffffffffffffffffffffff1614611d5157611d517f08519afa00000000000000000000000000000000000000000000000000000000611f0b565b73ffffffffffffffffffffffffffffffffffffffff85165f90815260056020526040902080547fffffffffffffffffffffffffffffffffffffffffffffffffffffffffffffff001685151517905583611e7257611e456006600101805480602002602001604051908101604052809291908181526020015f905b82821015611e3c575f848152602090819020604080518082019091529084015473ffffffffffffffffffffffffffffffffffffffff811682527401000000000000000000000000000000000000000090046bffffffffffffffffffffffff1681830152825260019092019101611dcb565b505050506124f5565b611e7257611e727f13134d2400000000000000000000000000000000000000000000000000000000611f0b565b8315158573ffffffffffffffffffffffffffffffffffffffff167fad865159180d43e1aedae6624a0e9e20d86e07afb82a96f8f9a8b2f3294e16c085604051611ebb9190612deb565b60405180910390a35050505050565b5f807ff0c57e16840df040f15088dc2f81fe391c3923bec73e23a9662efc9c229c6a00610bca565b611efa6125a1565b611be3816125df565b6111f46125a1565b805f5260045ffd5b5f80600a8484604051611f27929190612f87565b9081526040805160209281900383018120818301909252905463ffffffff81168083526401000000009091046bffffffffffffffffffffffff169282019290925291505f03611f7b576101f4915050610bca565b602001519392505050565b3073ffffffffffffffffffffffffffffffffffffffff7f000000000000000000000000000000000000000000000000000000000000000016148061205357507f000000000000000000000000000000000000000000000000000000000000000073ffffffffffffffffffffffffffffffffffffffff1661203a7f360894a13ba1a3210667c828492db98dca3e2076cc3735a920a3ca505d382bbc5473ffffffffffffffffffffffffffffffffffffffff1690565b73ffffffffffffffffffffffffffffffffffffffff1614155b156111f4576040517fe07c8dba00000000000000000000000000000000000000000000000000000000815260040160405180910390fd5b611be361223a565b8173ffffffffffffffffffffffffffffffffffffffff166352d1902d6040518163ffffffff1660e01b8152600401602060405180830381865afa925050508015612117575060408051601f3d9081017fffffffffffffffffffffffffffffffffffffffffffffffffffffffffffffffe01682019092526121149181019061348f565b60015b612165576040517f4c9c8ce300000000000000000000000000000000000000000000000000000000815273ffffffffffffffffffffffffffffffffffffffff83166004820152602401611bd1565b7f360894a13ba1a3210667c828492db98dca3e2076cc3735a920a3ca505d382bbc81146121c1576040517faa1d49a400000000000000000000000000000000000000000000000000000000815260048101829052602401611bd1565b6116f383836125e7565b3073ffffffffffffffffffffffffffffffffffffffff7f000000000000000000000000000000000000000000000000000000000000000016146111f4576040517fe07c8dba00000000000000000000000000000000000000000000000000000000815260040160405180910390fd5b336122797f9016d09d72d40fdae2fd8ceac6b6234c7706214fd39c1cd1e609a0528c1993005473ffffffffffffffffffffffffffffffffffffffff1690565b73ffffffffffffffffffffffffffffffffffffffff16146111f4576040517f118cdaa7000000000000000000000000000000000000000000000000000000008152336004820152602401611bd1565b7f9016d09d72d40fdae2fd8ceac6b6234c7706214fd39c1cd1e609a0528c19930080547fffffffffffffffffffffffff0000000000000000000000000000000000000000811673ffffffffffffffffffffffffffffffffffffffff848116918217845560405192169182907f8be0079c531659141344cd1fd0a4f28419497f9722a3daafe3b4186f6b6457e0905f90a3505050565b6002547c0100000000000000000000000000000000000000000000000000000000900460ff168111156123b3576123b37ff6fae72100000000000000000000000000000000000000000000000000000000611f0b565b5f805b828110156124b457368484838181106123d1576123d161343f565b90506040020190508060200160208101906123ec91906134a6565b6bffffffffffffffffffffffff165f03612429576124297f978dc04000000000000000000000000000000000000000000000000000000000611f0b565b60055f6124396020840184612dd0565b73ffffffffffffffffffffffffffffffffffffffff16815260208101919091526040015f205460ff1661248f5761248f7f3640785000000000000000000000000000000000000000000000000000000000611f0b565b61249f60408201602083016134a6565b6124a990846134c1565b9250506001016123b6565b506bffffffffffffffffffffffff8116612710146116f3576116f37f13134d2400000000000000000000000000000000000000000000000000000000611f0b565b80516002545f91907c0100000000000000000000000000000000000000000000000000000000900460ff1681111561252f57505f92915050565b5f5b818110156125975760055f85838151811061254e5761254e61343f565b6020908102919091018101515173ffffffffffffffffffffffffffffffffffffffff1682528101919091526040015f205460ff1661258f57505f9392505050565b600101612531565b5060019392505050565b6125a9612649565b6111f4576040517fd7e6bcf800000000000000000000000000000000000000000000000000000000815260040160405180910390fd5b611b866125a1565b6125f082612667565b60405173ffffffffffffffffffffffffffffffffffffffff8316907fbc7cd75a20ee27fd9adebab32041f755214dbc6bffa90cc0225b39da2e5c2d3b905f90a2805115612641576116f38282612735565b610e566127ab565b5f612652611eca565b5468010000000000000000900460ff16919050565b8073ffffffffffffffffffffffffffffffffffffffff163b5f036126cf576040517f4c9c8ce300000000000000000000000000000000000000000000000000000000815273ffffffffffffffffffffffffffffffffffffffff82166004820152602401611bd1565b7f360894a13ba1a3210667c828492db98dca3e2076cc3735a920a3ca505d382bbc80547fffffffffffffffffffffffff00000000000000000000000000000000000000001673ffffffffffffffffffffffffffffffffffffffff92909216919091179055565b60605f808473ffffffffffffffffffffffffffffffffffffffff168460405161275e91906134e5565b5f60405180830381855af49150503d805f8114612796576040519150601f19603f3d011682016040523d82523d5f602084013e61279b565b606091505b509150915061123f8583836127e3565b34156111f4576040517fb398979f00000000000000000000000000000000000000000000000000000000815260040160405180910390fd5b6060826127f8576127f382612872565b610e0e565b815115801561281c575073ffffffffffffffffffffffffffffffffffffffff84163b155b1561286b576040517f9996b31500000000000000000000000000000000000000000000000000000000815273ffffffffffffffffffffffffffffffffffffffff85166004820152602401611bd1565b5080610e0e565b8051156128825780518082602001fd5b6040517fd6bda27500000000000000000000000000000000000000000000000000000000815260040160405180910390fd5b828054828255905f5260205f2090810192821561295d575f5260205f209182015b8281111561295d57825482547fffffffffffffffffffffffff00000000000000000000000000000000000000001673ffffffffffffffffffffffffffffffffffffffff909116908117835583546bffffffffffffffffffffffff74010000000000000000000000000000000000000000918290041602178255600192830192909101906128d5565b50612969929150612984565b5090565b5080545f8255905f5260205f2090810190611be391905b5b80821115612969575f8155600101612985565b73ffffffffffffffffffffffffffffffffffffffff81168114611be3575f80fd5b803560ff811681146129c9575f80fd5b919050565b5f805f805f60a086880312156129e2575f80fd5b85356129ed81612998565b945060208601356129fd81612998565b93506040860135612a0d81612998565b92506060860135612a1d81612998565b9150612a2b608087016129b9565b90509295509295909350565b6020808252825167ffffffffffffffff1682820152828101516040808401528051606084018190525f929190910190829060808501905b80831015612ac257835173ffffffffffffffffffffffffffffffffffffffff81511683526bffffffffffffffffffffffff602082015116602084015250604082019150602084019350600183019250612a6e565b5095945050505050565b5f8083601f840112612adc575f80fd5b50813567ffffffffffffffff811115612af3575f80fd5b602083019150836020828501011115612b0a575f80fd5b9250929050565b5f8060208385031215612b22575f80fd5b823567ffffffffffffffff811115612b38575f80fd5b612b4485828601612acc565b90969095509350505050565b5f805f60408486031215612b62575f80fd5b833567ffffffffffffffff811115612b78575f80fd5b612b8486828701612acc565b909790965060209590950135949350505050565b7f4e487b71000000000000000000000000000000000000000000000000000000005f52604160045260245ffd5b5f8067ffffffffffffffff841115612bdf57612bdf612b98565b506040517fffffffffffffffffffffffffffffffffffffffffffffffffffffffffffffffe0601f85018116603f0116810181811067ffffffffffffffff82111715612c2c57612c2c612b98565b604052838152905080828401851015612c43575f80fd5b838360208301375f60208583010152509392505050565b5f8060408385031215612c6b575f80fd5b8235612c7681612998565b9150602083013567ffffffffffffffff811115612c91575f80fd5b8301601f81018513612ca1575f80fd5b612cb085823560208401612bc5565b9150509250929050565b5f60208284031215612cca575f80fd5b610e0e826129b9565b5f82601f830112612ce2575f80fd5b610e0e83833560208501612bc5565b5f8060408385031215612d02575f80fd5b8235612d0d81612998565b9150602083013567ffffffffffffffff811115612d28575f80fd5b612cb085828601612cd3565b67ffffffffffffffff81168114611be3575f80fd5b5f60208284031215612d59575f80fd5b8135610e0e81612d34565b6bffffffffffffffffffffffff81168114611be3575f80fd5b5f805f60408486031215612d8f575f80fd5b833567ffffffffffffffff811115612da5575f80fd5b612db186828701612acc565b9094509250506020840135612dc581612d64565b809150509250925092565b5f60208284031215612de0575f80fd5b8135610e0e81612998565b602081525f82518060208401528060208501604085015e5f6040828501015260407fffffffffffffffffffffffffffffffffffffffffffffffffffffffffffffffe0601f83011684010191505092915050565b5f60208284031215612e4e575f80fd5b813567ffffffffffffffff811115612e64575f80fd5b820160408185031215610e0e575f80fd5b5f805f805f60608688031215612e89575f80fd5b853567ffffffffffffffff811115612e9f575f80fd5b612eab88828901612acc565b9096509450506020860135612ebf81612d34565b9250604086013567ffffffffffffffff811115612eda575f80fd5b8601601f81018813612eea575f80fd5b803567ffffffffffffffff811115612f00575f80fd5b8860208260061b8401011115612f14575f80fd5b959894975092955050506020019190565b5f805f60608486031215612f37575f80fd5b8335612f4281612998565b925060208401358015158114612f56575f80fd5b9150604084013567ffffffffffffffff811115612f71575f80fd5b612f7d86828701612cd3565b9150509250925092565b818382375f9101908152919050565b7f4e487b71000000000000000000000000000000000000000000000000000000005f52601160045260245ffd5b67ffffffffffffffff8181168382160190811115610bca57610bca612f96565b8082028115828204841417610bca57610bca612f96565b5f8261302d577f4e487b71000000000000000000000000000000000000000000000000000000005f52601260045260245ffd5b500490565b5f6040820167ffffffffffffffff8516835260406020840152808454808352606085019150855f5260205f2092505f5b8181101561309f57835473ffffffffffffffffffffffffffffffffffffffff8116845260a01c602084015260019384019360409093019201613062565b50909695505050505050565b60208152816020820152818360408301375f818301604090810191909152601f9092017fffffffffffffffffffffffffffffffffffffffffffffffffffffffffffffffe0160101919050565b5f60208284031215613107575f80fd5b8151610e0e81612998565b5f8083357fffffffffffffffffffffffffffffffffffffffffffffffffffffffffffffffe1843603018112613145575f80fd5b83018035915067ffffffffffffffff82111561315f575f80fd5b6020019150600681901b3603821315612b0a575f80fd5b8183526020830192505f815f5b848110156131e4575f823561319781612998565b73ffffffffffffffffffffffffffffffffffffffff16875260208301356131bd81612d64565b6bffffffffffffffffffffffff166020880152506040958601959190910190600101613183565b5093949350505050565b602081525f82356131fe81612d34565b67ffffffffffffffff811660208401525060208301357fffffffffffffffffffffffffffffffffffffffffffffffffffffffffffffffe1843603018112613243575f80fd5b830160208101903567ffffffffffffffff81111561325f575f80fd5b8060061b3603821315613270575f80fd5b60408085015261123f606085018284613176565b813561328f81612998565b73ffffffffffffffffffffffffffffffffffffffff81169050807fffffffffffffffffffffffff000000000000000000000000000000000000000083541617825560208301356132de81612d64565b60a01b7fffffffffffffffffffffffff00000000000000000000000000000000000000001617905550565b813561331481612d34565b67ffffffffffffffff81167fffffffffffffffffffffffffffffffffffffffffffffffff00000000000000008354161782555060208201357fffffffffffffffffffffffffffffffffffffffffffffffffffffffffffffffe183360301811261337b575f80fd5b8201803567ffffffffffffffff811115613393575f80fd5b6020820191508060061b36038213156133aa575f80fd5b60018301680100000000000000008211156133c7576133c7612b98565b8054828255808310156133fc575f828152602090208381019082015b808210156133f9575f82556001820191506133e3565b50505b505f90815260208120905b828110156111db576134198483613284565b6040939093019260019182019101613407565b80820180821115610bca57610bca612f96565b7f4e487b71000000000000000000000000000000000000000000000000000000005f52603260045260245ffd5b67ffffffffffffffff84168152604060208201525f61123f604083018486613176565b5f6020828403121561349f575f80fd5b5051919050565b5f602082840312156134b6575f80fd5b8135610e0e81612d64565b6bffffffffffffffffffffffff8181168382160190811115610bca57610bca612f96565b5f82518060208501845e5f92019182525091905056fea164736f6c634300081a000a","linkReferences":{}},"methodIdentifiers":{"MAX_REWARD_ALLOCATION_BLOCK_DELAY()":"4ce34525","UPGRADE_INTERFACE_VERSION()":"ad3cb1cc","activateQueuedValCommission(bytes)":"37e4c5bf","activateReadyQueuedRewardAllocation(bytes)":"6ed0bf9a","beaconDepositContract()":"eafe0f4c","commissionChangeDelay()":"620a12b7","distributor()":"bfe10928","factory()":"c45a0155","getActiveRewardAllocation(bytes)":"da6f7563","getDefaultRewardAllocation()":"17dbf270","getQueuedRewardAllocation(bytes)":"4ecbf5c0","getSetActiveRewardAllocation(bytes)":"230288ce","getValCommissionOnIncentiveTokens(bytes)":"61b8b560","getValQueuedCommissionOnIncentiveTokens(bytes)":"a83f0817","getValidatorIncentiveTokenShare(bytes,uint256)":"3909cbd5","initialize(address,address,address,address,uint8)":"008c2676","isQueuedRewardAllocationReady(bytes,uint256)":"722f8e0a","isReady()":"a094a031","isWhitelistedVault(address)":"a2ce2773","maxNumWeightsPerRewardAllocation()":"c35569cd","owner()":"8da5cb5b","proxiableUUID()":"52d1902d","queueNewRewardAllocation(bytes,uint64,(address,uint96)[])":"e5eb90aa","queueValCommission(bytes,uint96)":"8f7e0f0b","renounceOwnership()":"715018a6","rewardAllocationBlockDelay()":"53a35d1d","setCommissionChangeDelay(uint64)":"7239e8ca","setDefaultRewardAllocation((uint64,(address,uint96)[]))":"c89f2665","setMaxNumWeightsPerRewardAllocation(uint8)":"66204c78","setRewardAllocationBlockDelay(uint64)":"9ca2626c","setVaultWhitelistedStatus(address,bool,string)":"fb9f6fde","transferOwnership(address)":"f2fde38b","updateWhitelistedVaultMetadata(address,string)":"69ed1708","upgradeToAndCall(address,bytes)":"4f1ef286"},"storageLayout":{"storage":[{"astId":62336,"contract":"src/V1_Contracts/BeraChef_V1.sol:BeraChef_V1","label":"distributor","offset":0,"slot":"0","type":"t_address"},{"astId":62339,"contract":"src/V1_Contracts/BeraChef_V1.sol:BeraChef_V1","label":"factory","offset":0,"slot":"1","type":"t_address"},{"astId":62342,"contract":"src/V1_Contracts/BeraChef_V1.sol:BeraChef_V1","label":"beaconDepositContract","offset":0,"slot":"2","type":"t_contract(IBeaconDeposit)80682"},{"astId":62345,"contract":"src/V1_Contracts/BeraChef_V1.sol:BeraChef_V1","label":"rewardAllocationBlockDelay","offset":20,"slot":"2","type":"t_uint64"},{"astId":62348,"contract":"src/V1_Contracts/BeraChef_V1.sol:BeraChef_V1","label":"maxNumWeightsPerRewardAllocation","offset":28,"slot":"2","type":"t_uint8"},{"astId":62354,"contract":"src/V1_Contracts/BeraChef_V1.sol:BeraChef_V1","label":"activeRewardAllocations","offset":0,"slot":"3","type":"t_mapping(t_bytes_memory_ptr,t_struct(RewardAllocation)64790_storage)"},{"astId":62360,"contract":"src/V1_Contracts/BeraChef_V1.sol:BeraChef_V1","label":"queuedRewardAllocations","offset":0,"slot":"4","type":"t_mapping(t_bytes_memory_ptr,t_struct(RewardAllocation)64790_storage)"},{"astId":62365,"contract":"src/V1_Contracts/BeraChef_V1.sol:BeraChef_V1","label":"isWhitelistedVault","offset":0,"slot":"5","type":"t_mapping(t_address,t_bool)"},{"astId":62369,"contract":"src/V1_Contracts/BeraChef_V1.sol:BeraChef_V1","label":"defaultRewardAllocation","offset":0,"slot":"6","type":"t_struct(RewardAllocation)64790_storage"},{"astId":62372,"contract":"src/V1_Contracts/BeraChef_V1.sol:BeraChef_V1","label":"commissionChangeDelay","offset":0,"slot":"8","type":"t_uint64"},{"astId":62378,"contract":"src/V1_Contracts/BeraChef_V1.sol:BeraChef_V1","label":"valQueuedCommission","offset":0,"slot":"9","type":"t_mapping(t_bytes_memory_ptr,t_struct(QueuedCommissionRateChange)64802_storage)"},{"astId":62384,"contract":"src/V1_Contracts/BeraChef_V1.sol:BeraChef_V1","label":"valCommission","offset":0,"slot":"10","type":"t_mapping(t_bytes_memory_ptr,t_struct(CommissionRate)64808_storage)"}],"types":{"t_address":{"encoding":"inplace","label":"address","numberOfBytes":"20"},"t_array(t_struct(Weight)64796_storage)dyn_storage":{"encoding":"dynamic_array","label":"struct IBeraChef_V1.Weight[]","numberOfBytes":"32","base":"t_struct(Weight)64796_storage"},"t_bool":{"encoding":"inplace","label":"bool","numberOfBytes":"1"},"t_bytes_memory_ptr":{"encoding":"bytes","label":"bytes","numberOfBytes":"32"},"t_contract(IBeaconDeposit)80682":{"encoding":"inplace","label":"contract IBeaconDeposit","numberOfBytes":"20"},"t_mapping(t_address,t_bool)":{"encoding":"mapping","key":"t_address","label":"mapping(address => bool)","numberOfBytes":"32","value":"t_bool"},"t_mapping(t_bytes_memory_ptr,t_struct(CommissionRate)64808_storage)":{"encoding":"mapping","key":"t_bytes_memory_ptr","label":"mapping(bytes => struct IBeraChef_V1.CommissionRate)","numberOfBytes":"32","value":"t_struct(CommissionRate)64808_storage"},"t_mapping(t_bytes_memory_ptr,t_struct(QueuedCommissionRateChange)64802_storage)":{"encoding":"mapping","key":"t_bytes_memory_ptr","label":"mapping(bytes => struct IBeraChef_V1.QueuedCommissionRateChange)","numberOfBytes":"32","value":"t_struct(QueuedCommissionRateChange)64802_storage"},"t_mapping(t_bytes_memory_ptr,t_struct(RewardAllocation)64790_storage)":{"encoding":"mapping","key":"t_bytes_memory_ptr","label":"mapping(bytes => struct IBeraChef_V1.RewardAllocation)","numberOfBytes":"32","value":"t_struct(RewardAllocation)64790_storage"},"t_struct(CommissionRate)64808_storage":{"encoding":"inplace","label":"struct IBeraChef_V1.CommissionRate","numberOfBytes":"32","members":[{"astId":64805,"contract":"src/V1_Contracts/BeraChef_V1.sol:BeraChef_V1","label":"activationBlock","offset":0,"slot":"0","type":"t_uint32"},{"astId":64807,"contract":"src/V1_Contracts/BeraChef_V1.sol:BeraChef_V1","label":"commissionRate","offset":4,"slot":"0","type":"t_uint96"}]},"t_struct(QueuedCommissionRateChange)64802_storage":{"encoding":"inplace","label":"struct IBeraChef_V1.QueuedCommissionRateChange","numberOfBytes":"32","members":[{"astId":64799,"contract":"src/V1_Contracts/BeraChef_V1.sol:BeraChef_V1","label":"blockNumberLast","offset":0,"slot":"0","type":"t_uint32"},{"astId":64801,"contract":"src/V1_Contracts/BeraChef_V1.sol:BeraChef_V1","label":"commissionRate","offset":4,"slot":"0","type":"t_uint96"}]},"t_struct(RewardAllocation)64790_storage":{"encoding":"inplace","label":"struct IBeraChef_V1.RewardAllocation","numberOfBytes":"64","members":[{"astId":64785,"contract":"src/V1_Contracts/BeraChef_V1.sol:BeraChef_V1","label":"startBlock","offset":0,"slot":"0","type":"t_uint64"},{"astId":64789,"contract":"src/V1_Contracts/BeraChef_V1.sol:BeraChef_V1","label":"weights","offset":0,"slot":"1","type":"t_array(t_struct(Weight)64796_storage)dyn_storage"}]},"t_struct(Weight)64796_storage":{"encoding":"inplace","label":"struct IBeraChef_V1.Weight","numberOfBytes":"32","members":[{"astId":64793,"contract":"src/V1_Contracts/BeraChef_V1.sol:BeraChef_V1","label":"receiver","offset":0,"slot":"0","type":"t_address"},{"astId":64795,"contract":"src/V1_Contracts/BeraChef_V1.sol:BeraChef_V1","label":"percentageNumerator","offset":20,"slot":"0","type":"t_uint96"}]},"t_uint32":{"encoding":"inplace","label":"uint32","numberOfBytes":"4"},"t_uint64":{"encoding":"inplace","label":"uint64","numberOfBytes":"8"},"t_uint8":{"encoding":"inplace","label":"uint8","numberOfBytes":"1"},"t_uint96":{"encoding":"inplace","label":"uint96","numberOfBytes":"12"}}},"id":98}