{"abi":[{"type":"constructor","inputs":[],"stateMutability":"nonpayable"},{"type":"function","name":"DOMAIN_SEPARATOR","inputs":[],"outputs":[{"name":"result","type":"bytes32","internalType":"bytes32"}],"stateMutability":"view"},{"type":"function","name":"allowance","inputs":[{"name":"owner","type":"address","internalType":"address"},{"name":"spender","type":"address","internalType":"address"}],"outputs":[{"name":"result","type":"uint256","internalType":"uint256"}],"stateMutability":"view"},{"type":"function","name":"approve","inputs":[{"name":"spender","type":"address","internalType":"address"},{"name":"amount","type":"uint256","internalType":"uint256"}],"outputs":[{"name":"","type":"bool","internalType":"bool"}],"stateMutability":"nonpayable"},{"type":"function","name":"asset","inputs":[],"outputs":[{"name":"","type":"address","internalType":"address"}],"stateMutability":"view"},{"type":"function","name":"balanceOf","inputs":[{"name":"owner","type":"address","internalType":"address"}],"outputs":[{"name":"result","type":"uint256","internalType":"uint256"}],"stateMutability":"view"},{"type":"function","name":"convertToAssets","inputs":[{"name":"shares","type":"uint256","internalType":"uint256"}],"outputs":[{"name":"","type":"uint256","internalType":"uint256"}],"stateMutability":"view"},{"type":"function","name":"convertToShares","inputs":[{"name":"assets","type":"uint256","internalType":"uint256"}],"outputs":[{"name":"","type":"uint256","internalType":"uint256"}],"stateMutability":"view"},{"type":"function","name":"custodyInfo","inputs":[],"outputs":[{"name":"isCustodyVault","type":"bool","internalType":"bool"},{"name":"custodyAddress","type":"address","internalType":"address"}],"stateMutability":"view"},{"type":"function","name":"decimals","inputs":[],"outputs":[{"name":"","type":"uint8","internalType":"uint8"}],"stateMutability":"view"},{"type":"function","name":"deposit","inputs":[{"name":"assets","type":"uint256","internalType":"uint256"},{"name":"receiver","type":"address","internalType":"address"}],"outputs":[{"name":"","type":"uint256","internalType":"uint256"}],"stateMutability":"nonpayable"},{"type":"function","name":"factory","inputs":[],"outputs":[{"name":"","type":"address","internalType":"address"}],"stateMutability":"view"},{"type":"function","name":"initialize","inputs":[{"name":"asset_","type":"address","internalType":"address"},{"name":"_factory","type":"address","internalType":"address"}],"outputs":[],"stateMutability":"nonpayable"},{"type":"function","name":"maxDeposit","inputs":[{"name":"to","type":"address","internalType":"address"}],"outputs":[{"name":"maxAssets","type":"uint256","internalType":"uint256"}],"stateMutability":"view"},{"type":"function","name":"maxMint","inputs":[{"name":"to","type":"address","internalType":"address"}],"outputs":[{"name":"maxShares","type":"uint256","internalType":"uint256"}],"stateMutability":"view"},{"type":"function","name":"maxRedeem","inputs":[{"name":"owner","type":"address","internalType":"address"}],"outputs":[{"name":"maxShares","type":"uint256","internalType":"uint256"}],"stateMutability":"view"},{"type":"function","name":"maxWithdraw","inputs":[{"name":"owner","type":"address","internalType":"address"}],"outputs":[{"name":"maxAssets","type":"uint256","internalType":"uint256"}],"stateMutability":"view"},{"type":"function","name":"mint","inputs":[{"name":"shares","type":"uint256","internalType":"uint256"},{"name":"receiver","type":"address","internalType":"address"}],"outputs":[{"name":"","type":"uint256","internalType":"uint256"}],"stateMutability":"nonpayable"},{"type":"function","name":"name","inputs":[],"outputs":[{"name":"","type":"string","internalType":"string"}],"stateMutability":"view"},{"type":"function","name":"nonces","inputs":[{"name":"owner","type":"address","internalType":"address"}],"outputs":[{"name":"result","type":"uint256","internalType":"uint256"}],"stateMutability":"view"},{"type":"function","name":"pause","inputs":[],"outputs":[],"stateMutability":"nonpayable"},{"type":"function","name":"paused","inputs":[],"outputs":[{"name":"","type":"bool","internalType":"bool"}],"stateMutability":"view"},{"type":"function","name":"permit","inputs":[{"name":"owner","type":"address","internalType":"address"},{"name":"spender","type":"address","internalType":"address"},{"name":"value","type":"uint256","internalType":"uint256"},{"name":"deadline","type":"uint256","internalType":"uint256"},{"name":"v","type":"uint8","internalType":"uint8"},{"name":"r","type":"bytes32","internalType":"bytes32"},{"name":"s","type":"bytes32","internalType":"bytes32"}],"outputs":[],"stateMutability":"nonpayable"},{"type":"function","name":"previewDeposit","inputs":[{"name":"assets","type":"uint256","internalType":"uint256"}],"outputs":[{"name":"shares","type":"uint256","internalType":"uint256"}],"stateMutability":"view"},{"type":"function","name":"previewMint","inputs":[{"name":"shares","type":"uint256","internalType":"uint256"}],"outputs":[{"name":"assets","type":"uint256","internalType":"uint256"}],"stateMutability":"view"},{"type":"function","name":"previewRedeem","inputs":[{"name":"shares","type":"uint256","internalType":"uint256"}],"outputs":[{"name":"assets","type":"uint256","internalType":"uint256"}],"stateMutability":"view"},{"type":"function","name":"previewWithdraw","inputs":[{"name":"assets","type":"uint256","internalType":"uint256"}],"outputs":[{"name":"shares","type":"uint256","internalType":"uint256"}],"stateMutability":"view"},{"type":"function","name":"redeem","inputs":[{"name":"shares","type":"uint256","internalType":"uint256"},{"name":"receiver","type":"address","internalType":"address"},{"name":"owner","type":"address","internalType":"address"}],"outputs":[{"name":"","type":"uint256","internalType":"uint256"}],"stateMutability":"nonpayable"},{"type":"function","name":"setCustodyInfo","inputs":[{"name":"_isCustodyVault","type":"bool","internalType":"bool"},{"name":"_custodyAddress","type":"address","internalType":"address"}],"outputs":[],"stateMutability":"nonpayable"},{"type":"function","name":"symbol","inputs":[],"outputs":[{"name":"","type":"string","internalType":"string"}],"stateMutability":"view"},{"type":"function","name":"totalAssets","inputs":[],"outputs":[{"name":"","type":"uint256","internalType":"uint256"}],"stateMutability":"view"},{"type":"function","name":"totalSupply","inputs":[],"outputs":[{"name":"result","type":"uint256","internalType":"uint256"}],"stateMutability":"view"},{"type":"function","name":"transfer","inputs":[{"name":"to","type":"address","internalType":"address"},{"name":"amount","type":"uint256","internalType":"uint256"}],"outputs":[{"name":"","type":"bool","internalType":"bool"}],"stateMutability":"nonpayable"},{"type":"function","name":"transferFrom","inputs":[{"name":"from","type":"address","internalType":"address"},{"name":"to","type":"address","internalType":"address"},{"name":"amount","type":"uint256","internalType":"uint256"}],"outputs":[{"name":"","type":"bool","internalType":"bool"}],"stateMutability":"nonpayable"},{"type":"function","name":"unpause","inputs":[],"outputs":[],"stateMutability":"nonpayable"},{"type":"function","name":"withdraw","inputs":[{"name":"assets","type":"uint256","internalType":"uint256"},{"name":"receiver","type":"address","internalType":"address"},{"name":"owner","type":"address","internalType":"address"}],"outputs":[{"name":"","type":"uint256","internalType":"uint256"}],"stateMutability":"nonpayable"},{"type":"event","name":"Approval","inputs":[{"name":"owner","type":"address","indexed":true,"internalType":"address"},{"name":"spender","type":"address","indexed":true,"internalType":"address"},{"name":"amount","type":"uint256","indexed":false,"internalType":"uint256"}],"anonymous":false},{"type":"event","name":"CustodyInfoSet","inputs":[{"name":"isCustodyVault","type":"bool","indexed":true,"internalType":"bool"},{"name":"custodyAddress","type":"address","indexed":true,"internalType":"address"}],"anonymous":false},{"type":"event","name":"Deposit","inputs":[{"name":"by","type":"address","indexed":true,"internalType":"address"},{"name":"owner","type":"address","indexed":true,"internalType":"address"},{"name":"assets","type":"uint256","indexed":false,"internalType":"uint256"},{"name":"shares","type":"uint256","indexed":false,"internalType":"uint256"}],"anonymous":false},{"type":"event","name":"Initialized","inputs":[{"name":"version","type":"uint64","indexed":false,"internalType":"uint64"}],"anonymous":false},{"type":"event","name":"Paused","inputs":[{"name":"account","type":"address","indexed":false,"internalType":"address"}],"anonymous":false},{"type":"event","name":"Transfer","inputs":[{"name":"from","type":"address","indexed":true,"internalType":"address"},{"name":"to","type":"address","indexed":true,"internalType":"address"},{"name":"amount","type":"uint256","indexed":false,"internalType":"uint256"}],"anonymous":false},{"type":"event","name":"Unpaused","inputs":[{"name":"account","type":"address","indexed":false,"internalType":"address"}],"anonymous":false},{"type":"event","name":"Withdraw","inputs":[{"name":"by","type":"address","indexed":true,"internalType":"address"},{"name":"to","type":"address","indexed":true,"internalType":"address"},{"name":"owner","type":"address","indexed":true,"internalType":"address"},{"name":"assets","type":"uint256","indexed":false,"internalType":"uint256"},{"name":"shares","type":"uint256","indexed":false,"internalType":"uint256"}],"anonymous":false},{"type":"error","name":"AllowanceOverflow","inputs":[]},{"type":"error","name":"AllowanceUnderflow","inputs":[]},{"type":"error","name":"AmountOutOfRange","inputs":[]},{"type":"error","name":"AssetIsBadCollateral","inputs":[{"name":"asset","type":"address","internalType":"address"}]},{"type":"error","name":"AssetIsNotBadCollateral","inputs":[{"name":"asset","type":"address","internalType":"address"}]},{"type":"error","name":"AssetNotRegistered","inputs":[{"name":"asset","type":"address","internalType":"address"}]},{"type":"error","name":"CapCanCauseDenialOfService","inputs":[]},{"type":"error","name":"DepositMoreThanMax","inputs":[]},{"type":"error","name":"EnforcedPause","inputs":[]},{"type":"error","name":"ExceedGlobalCap","inputs":[]},{"type":"error","name":"ExceedRelativeCap","inputs":[]},{"type":"error","name":"ExpectedPause","inputs":[]},{"type":"error","name":"InsufficientAllowance","inputs":[]},{"type":"error","name":"InsufficientAssets","inputs":[{"name":"assets","type":"uint256","internalType":"uint256"},{"name":"shares","type":"uint256","internalType":"uint256"}]},{"type":"error","name":"InsufficientBalance","inputs":[]},{"type":"error","name":"InsufficientRecapitalizeAmount","inputs":[{"name":"amount","type":"uint256","internalType":"uint256"}]},{"type":"error","name":"InvalidCustodyInfoInput","inputs":[]},{"type":"error","name":"InvalidInitialization","inputs":[]},{"type":"error","name":"InvalidPermit","inputs":[]},{"type":"error","name":"LiquidationDisabled","inputs":[]},{"type":"error","name":"LiquidationWithReferenceCollateral","inputs":[]},{"type":"error","name":"MintMoreThanMax","inputs":[]},{"type":"error","name":"MismatchedOwner","inputs":[{"name":"owner","type":"address","internalType":"address"},{"name":"expectedOwner","type":"address","internalType":"address"}]},{"type":"error","name":"NotFactory","inputs":[]},{"type":"error","name":"NotInitializing","inputs":[]},{"type":"error","name":"NotPegged","inputs":[{"name":"asset","type":"address","internalType":"address"}]},{"type":"error","name":"OverOneHundredPercentRate","inputs":[{"name":"rate","type":"uint256","internalType":"uint256"}]},{"type":"error","name":"Permit2AllowanceIsFixedAtInfinity","inputs":[]},{"type":"error","name":"PermitExpired","inputs":[]},{"type":"error","name":"RecapitalizeNotNeeded","inputs":[{"name":"asset","type":"address","internalType":"address"}]},{"type":"error","name":"RedeemMoreThanMax","inputs":[]},{"type":"error","name":"TotalSupplyOverflow","inputs":[]},{"type":"error","name":"UnauthorizedCaller","inputs":[{"name":"caller","type":"address","internalType":"address"},{"name":"expectedCaller","type":"address","internalType":"address"}]},{"type":"error","name":"UnderNinetyEightPercentRate","inputs":[{"name":"rate","type":"uint256","internalType":"uint256"}]},{"type":"error","name":"UnexpectedBasketModeStatus","inputs":[]},{"type":"error","name":"VaultAlreadyRegistered","inputs":[{"name":"asset","type":"address","internalType":"address"}]},{"type":"error","name":"VaultPaused","inputs":[]},{"type":"error","name":"WithdrawMoreThanMax","inputs":[]},{"type":"error","name":"ZeroAddress","inputs":[]},{"type":"error","name":"ZeroAmount","inputs":[]},{"type":"error","name":"ZeroWeight","inputs":[{"name":"asset","type":"address","internalType":"address"}]}],"bytecode":{"object":"0x6080604052348015600e575f80fd5b5060156019565b60c9565b7ff0c57e16840df040f15088dc2f81fe391c3923bec73e23a9662efc9c229c6a00805468010000000000000000900460ff161560685760405163f92ee8a960e01b815260040160405180910390fd5b80546001600160401b039081161460c65780546001600160401b0319166001600160401b0390811782556040519081527fc7f505b2f371ae2175ee4913f4499e1f2633a7b5936321eed1cdaeb6115181d29060200160405180910390a15b50565b612426806100d65f395ff3fe608060405234801561000f575f80fd5b5060043610610235575f3560e01c806370a082311161013d578063ba087652116100b8578063ce96cb7711610088578063d905777e1161006e578063d905777e14610545578063dd62ed3e14610558578063ef8b30f714610580575f80fd5b8063ce96cb771461051f578063d505accf14610532575f80fd5b8063ba087652146104d9578063c45a0155146104ec578063c63d75b614610334578063c6e6f5921461050c575f80fd5b806394bf804d1161010d578063a9059cbb116100f3578063a9059cbb146104a0578063b3d7f6b9146104b3578063b460af94146104c6575f80fd5b806394bf804d1461048557806395d89b4114610498575f80fd5b806370a08231146103dd57806372d4b21a146104025780637ecebe00146104585780638456cb591461047d575f80fd5b80633644e515116101cd578063442c01a41161019d5780634cdad506116101835780634cdad5061461038d5780635c975abb146103a05780636e553f65146103ca575f80fd5b8063442c01a414610367578063485cc9551461037a575f80fd5b80633644e515146102e457806338d52e0f146102ec5780633f4ba83a1461032a578063402d267d14610334575f80fd5b80630a28a477116102085780630a28a4771461029f57806318160ddd146102b257806323b872dd146102c2578063313ce567146102d5575f80fd5b806301e1d1141461023957806306fdde031461025457806307a2d13a14610269578063095ea7b31461027c575b5f80fd5b610241610593565b6040519081526020015b60405180910390f35b61025c6105b2565b60405161024b9190611d0c565b610241610277366004611d5f565b610642565b61028f61028a366004611d9e565b610652565b604051901515815260200161024b565b6102416102ad366004611d5f565b6106a1565b6805345cdf77eb68f44c54610241565b61028f6102d0366004611dc6565b6106e6565b6040516012815260200161024b565b6102416107b4565b5f5473ffffffffffffffffffffffffffffffffffffffff165b60405173ffffffffffffffffffffffffffffffffffffffff909116815260200161024b565b610332610830565b005b610241610342366004611e00565b507fffffffffffffffffffffffffffffffffffffffffffffffffffffffffffffffff90565b610332610375366004611e19565b610842565b610332610388366004611e50565b610c54565b61024161039b366004611d5f565b610dbf565b7fcd5ed15c6e187e77e9aee88184c21f4f2182ab5827cb3b7e07fbedcd63f033005460ff1661028f565b6102416103d8366004611e6a565b610dc9565b6102416103eb366004611e00565b6387a211a2600c9081525f91909152602090205490565b60045461042c9060ff811690610100900473ffffffffffffffffffffffffffffffffffffffff1682565b60408051921515835273ffffffffffffffffffffffffffffffffffffffff90911660208301520161024b565b610241610466366004611e00565b6338377508600c9081525f91909152602090205490565b610332610de4565b610241610493366004611e6a565b610df4565b61025c610e0f565b61028f6104ae366004611d9e565b610e1e565b6102416104c1366004611d5f565b610eab565b6102416104d4366004611e8b565b610ee1565b6102416104e7366004611e8b565b610f05565b6003546103059073ffffffffffffffffffffffffffffffffffffffff1681565b61024161051a366004611d5f565b610f21565b61024161052d366004611e00565b610f2b565b610332610540366004611ed5565b610f48565b610241610553366004611e00565b6110dd565b610241610566366004611e50565b602052637f5e9f20600c9081525f91909152603490205490565b61024161058e366004611d5f565b6110f6565b5f6105ad6105a86805345cdf77eb68f44c5490565b611100565b905090565b6060600180546105c190611f3d565b80601f01602080910402602001604051908101604052809291908181526020018280546105ed90611f3d565b80156106385780601f1061060f57610100808354040283529160200191610638565b820191905f5260205f20905b81548152906001019060200180831161061b57829003601f168201915b5050505050905090565b5f61064c82611100565b92915050565b5f82602052637f5e9f20600c52335f52816034600c2055815f52602c5160601c337f8c5be1e5ebec7d5bd14f71427d1e84f3dd0314c0f7b2291e5b200ac8c7c3b92560205fa350600192915050565b5f806106b46805345cdf77eb68f44c5490565b905080158315176106d6576106d183826106cc610593565b6111e8565b6106df565b6106df83610f21565b9392505050565b5f6106f2848484610c4e565b8360601b33602052637f5e9f208117600c526034600c20805480191561072d5780851115610727576313be252b5f526004601cfd5b84810382555b50506387a211a28117600c526020600c208054808511156107555763f4d678b85f526004601cfd5b84810382555050835f526020600c208381540181555082602052600c5160601c8160601c7fddf252ad1be2c89b69c2b068fc378daa952ba7f163c4a11628f55a4df523b3ef602080a3506107aa848484610c4e565b5060019392505050565b5f806107be6105b2565b805190602001209050604080517f8b73c3c69bb8fe3d512ecc4cf759cc79239f7b179b0ffacaa9a75d522b39400f815260208101929092527fc89efdaa54c0f20c7adf612882df0950f5a951637e0307cdcb4c672f298b8bc69082015246606082015230608082015260a09020919050565b610838611214565b61084061125c565b565b61084a611214565b81801561086b575073ffffffffffffffffffffffffffffffffffffffff8116155b15610899576108997fd92e233d000000000000000000000000000000000000000000000000000000006112f9565b6040805180820190915260045460ff811615158252610100900473ffffffffffffffffffffffffffffffffffffffff1660208201528280156108f35750602081015173ffffffffffffffffffffffffffffffffffffffff16155b15610a7a576109cb6109195f5473ffffffffffffffffffffffffffffffffffffffff1690565b836109385f5473ffffffffffffffffffffffffffffffffffffffff1690565b6040517f70a0823100000000000000000000000000000000000000000000000000000000815230600482015273ffffffffffffffffffffffffffffffffffffffff91909116906370a0823190602401602060405180830381865afa1580156109a2573d5f803e3d5ffd5b505050506040513d601f19601f820116820180604052508101906109c691906120e7565b611301565b60408051808201825284151580825273ffffffffffffffffffffffffffffffffffffffff85166020909201829052600480547fffffffffffffffffffffff000000000000000000000000000000000000000000167fffffffffffffffffffffff0000000000000000000000000000000000000000ff831617610100840217905591519091907ff44e502d332c7adaa464477e4d7ccdc6759273729e1f82a0498f14b1041e17f1905f90a3505050565b82158015610ab757508173ffffffffffffffffffffffffffffffffffffffff16816020015173ffffffffffffffffffffffffffffffffffffffff16145b15610c2557610b92610add5f5473ffffffffffffffffffffffffffffffffffffffff1690565b8330610afd5f5473ffffffffffffffffffffffffffffffffffffffff1690565b6040517f70a0823100000000000000000000000000000000000000000000000000000000815273ffffffffffffffffffffffffffffffffffffffff888116600483015291909116906370a0823190602401602060405180830381865afa158015610b69573d5f803e3d5ffd5b505050506040513d601f19601f82011682018060405250810190610b8d91906120e7565b611354565b6040805180820182528415158082525f6020909201829052600480547fffffffffffffffffffffff000000000000000000000000000000000000000000167fffffffffffffffffffffff0000000000000000000000000000000000000000ff831617905591519091907ff44e502d332c7adaa464477e4d7ccdc6759273729e1f82a0498f14b1041e17f1908390a3505050565b610c4e7fcd09f603000000000000000000000000000000000000000000000000000000006112f9565b505b5050565b5f610c5d6113b6565b805490915060ff68010000000000000000820416159067ffffffffffffffff165f81158015610c895750825b90505f8267ffffffffffffffff166001148015610ca55750303b155b905081158015610cb3575080155b15610cea576040517ff92ee8a900000000000000000000000000000000000000000000000000000000815260040160405180910390fd5b84547fffffffffffffffffffffffffffffffffffffffffffffffff00000000000000001660011785558315610d4b5784547fffffffffffffffffffffffffffffffffffffffffffffff00ffffffffffffffff16680100000000000000001785555b610d5587876113de565b8315610db65784547fffffffffffffffffffffffffffffffffffffffffffffff00ffffffffffffffff168555604051600181527fc7f505b2f371ae2175ee4913f4499e1f2633a7b5936321eed1cdaeb6115181d29060200160405180910390a15b50505050505050565b5f61064c82610642565b5f610dd2611214565b610dda611607565b6106df8383611679565b610dec611214565b610840611691565b5f610dfd611214565b610e05611607565b6106df838361170a565b6060600280546105c190611f3d565b5f610e2a338484610c4e565b6387a211a2600c52335f526020600c20805480841115610e515763f4d678b85f526004601cfd5b83810382555050825f526020600c208281540181555081602052600c5160601c337fddf252ad1be2c89b69c2b068fc378daa952ba7f163c4a11628f55a4df523b3ef602080a3610ea2338484610c4e565b50600192915050565b5f80610ebe6805345cdf77eb68f44c5490565b90508015610ed8576106d183610ed2610593565b836111e8565b6106df83610642565b5f610eea611214565b610ef2611607565b610efd848484611722565b949350505050565b5f610f0e611214565b610f16611607565b610efd848484611758565b5f61064c8261178e565b6387a211a2600c9081525f82815260209091205461064c90610642565b5f610f516105b2565b8051906020012090507fc89efdaa54c0f20c7adf612882df0950f5a951637e0307cdcb4c672f298b8bc642861015610f9057631a15a3cc5f526004601cfd5b6040518960601b60601c99508860601b60601c985065383775081901600e52895f526020600c2080547f8b73c3c69bb8fe3d512ecc4cf759cc79239f7b179b0ffacaa9a75d522b39400f835284602084015283604084015246606084015230608084015260a08320602e527f6e71edae12b1b97f4d1f60370fef10105fa2faae0126114a169c64845d6126c983528b60208401528a60408401528960608401528060808401528860a084015260c08320604e526042602c205f528760ff16602052866040528560605260208060805f60015afa8c3d51146110785763ddafbaef5f526004601cfd5b019055777f5e9f20000000000000000000000000000000000000000089176040526034602c20889055888a7f8c5be1e5ebec7d5bd14f71427d1e84f3dd0314c0f7b2291e5b200ac8c7c3b925602060608501a360405250505f60605250505050505050565b6387a211a2600c9081525f82815260209091205461064c565b5f61064c82610f21565b5f8054604080517f313ce5670000000000000000000000000000000000000000000000000000000081529051601292849273ffffffffffffffffffffffffffffffffffffffff9091169163313ce567916004808201926020929091908290030181865afa158015611173573d5f803e3d5ffd5b505050506040513d601f19601f8201168201806040525081019061119791906120fe565b90505f8160ff168360ff16106111cc575060ff818303166111b981600a6120dc565b6111c39086612119565b95945050505050565b5060ff828203166111de81600a6120dc565b6111c39086612151565b5f6111f4848484611859565b905081838509156106df57600101806106df5763ae47f7025f526004601cfd5b60035473ffffffffffffffffffffffffffffffffffffffff163314610840576108407f32cc7236000000000000000000000000000000000000000000000000000000006112f9565b611264611906565b7fcd5ed15c6e187e77e9aee88184c21f4f2182ab5827cb3b7e07fbedcd63f0330080547fffffffffffffffffffffffffffffffffffffffffffffffffffffffffffffff001681557f5db9ee0a495bf2e6ff9c91a7834c1ba4fdd244a5e8aa4e537bd38aeae4b073aa335b60405173ffffffffffffffffffffffffffffffffffffffff909116815260200160405180910390a150565b805f5260045ffd5b81601452806034526fa9059cbb0000000000000000000000005f5260205f604460105f875af18060015f51141661134a57803d853b15171061134a576390b8ec185f526004601cfd5b505f603452505050565b60405181606052826040528360601b602c526f23b872dd000000000000000000000000600c5260205f6064601c5f895af18060015f5114166113a857803d873b1517106113a857637939f4245f526004601cfd5b505f60605260405250505050565b5f807ff0c57e16840df040f15088dc2f81fe391c3923bec73e23a9662efc9c229c6a0061064c565b6113e6611961565b6113ee61199f565b73ffffffffffffffffffffffffffffffffffffffff8116611432576114327fd92e233d000000000000000000000000000000000000000000000000000000006112f9565b6003805473ffffffffffffffffffffffffffffffffffffffff8084167fffffffffffffffffffffffff0000000000000000000000000000000000000000928316179092555f80549285169290911682178155604080517f06fdde0300000000000000000000000000000000000000000000000000000000815290518593926306fdde0392600480820193918290030181865afa1580156114d4573d5f803e3d5ffd5b505050506040513d5f823e601f3d9081017fffffffffffffffffffffffffffffffffffffffffffffffffffffffffffffffe01682016040526115199190810190612195565b6040516020016115299190612285565b604051602081830303815290604052600190816115469190612302565b508073ffffffffffffffffffffffffffffffffffffffff166395d89b416040518163ffffffff1660e01b81526004015f60405180830381865afa15801561158f573d5f803e3d5ffd5b505050506040513d5f823e601f3d9081017fffffffffffffffffffffffffffffffffffffffffffffffffffffffffffffffe01682016040526115d49190810190612195565b6040516020016115e49190612285565b604051602081830303815290604052600290816116019190612302565b50505050565b7fcd5ed15c6e187e77e9aee88184c21f4f2182ab5827cb3b7e07fbedcd63f033005460ff1615610840576108406116525f5473ffffffffffffffffffffffffffffffffffffffff1690565b7fda9f8b3400000000000000000000000000000000000000000000000000000000906119a7565b5f611683836110f6565b905061064c338385846119bc565b611699611607565b7fcd5ed15c6e187e77e9aee88184c21f4f2182ab5827cb3b7e07fbedcd63f0330080547fffffffffffffffffffffffffffffffffffffffffffffffffffffffffffffff001660011781557f62e78cea01bee320cd4e420270b5ea74000d11b0c9f74754ebdbfc544b05a258336112ce565b5f61171483610eab565b905061064c338383866119bc565b5f61172c82610f2b565b8411156117405761174063936941fc6119b3565b611749846106a1565b90506106df3384848785611a31565b5f611762826110dd565b84111561177657611776634656425a6119b3565b61177f84610dbf565b90506106df3384848488611a31565b5f8054604080517f313ce5670000000000000000000000000000000000000000000000000000000081529051601292849273ffffffffffffffffffffffffffffffffffffffff9091169163313ce567916004808201926020929091908290030181865afa158015611801573d5f803e3d5ffd5b505050506040513d601f19601f8201168201806040525081019061182591906120fe565b90505f8160ff168360ff1610611847575060ff818303166111de81600a6120dc565b5060ff828203166111b981600a6120dc565b828202818385830414851517026118ff577fffffffffffffffffffffffffffffffffffffffffffffffffffffffffffffffff8385098181108201900382848609835f0384168285116118b25763ae47f7025f526004601cfd5b93849004938382119092035f8390038390046001010292030417600260038302811880840282030280840282030280840282030280840282030280840282030280840290910302026106df565b0492915050565b7fcd5ed15c6e187e77e9aee88184c21f4f2182ab5827cb3b7e07fbedcd63f033005460ff16610840576040517f8dfc202b00000000000000000000000000000000000000000000000000000000815260040160405180910390fd5b611969611aed565b610840576040517fd7e6bcf800000000000000000000000000000000000000000000000000000000815260040160405180910390fd5b610840611961565b815f528060045260245ffd5b805f526004601cfd5b6119e56119dd5f5473ffffffffffffffffffffffffffffffffffffffff1690565b853085611354565b6119ef8382611b0b565b815f52806020525f1960601c8381168582167fdcbc1c05240f31ff3ad067ef1ee35ce4997762752e3a095284754544f4c709d760405fa3506116018282611b99565b8273ffffffffffffffffffffffffffffffffffffffff168573ffffffffffffffffffffffffffffffffffffffff1614611a6f57611a6f838683611be9565b611a798282611c28565b611a838382611c79565b611aab611aa45f5473ffffffffffffffffffffffffffffffffffffffff1690565b8584611301565b815f52806020525f1960601c8381168582168783167ffbde797d201c681b91056529119e0b02407c7bb96a4a2c75c01fc9667232c8db60405fa4505050505050565b5f611af66113b6565b5468010000000000000000900460ff16919050565b611b165f8383610c4e565b6805345cdf77eb68f44c5481810181811015611b395763e5cfe9575f526004601cfd5b806805345cdf77eb68f44c5550506387a211a2600c52815f526020600c208181540181555080602052600c5160601c5f7fddf252ad1be2c89b69c2b068fc378daa952ba7f163c4a11628f55a4df523b3ef602080a3610c505f8383610c4e565b60045460ff1615610c5057610c50611bc55f5473ffffffffffffffffffffffffffffffffffffffff1690565b600454610100900473ffffffffffffffffffffffffffffffffffffffff1684611301565b81602052637f5e9f20600c52825f526034600c208054801915611c215780831115611c1b576313be252b5f526004601cfd5b82810382555b5050505050565b60045460ff1615610c5057610c50611c545f5473ffffffffffffffffffffffffffffffffffffffff1690565b600454610100900473ffffffffffffffffffffffffffffffffffffffff163085611354565b611c84825f83610c4e565b6387a211a2600c52815f526020600c20805480831115611cab5763f4d678b85f526004601cfd5b82900390556805345cdf77eb68f44c805482900390555f81815273ffffffffffffffffffffffffffffffffffffffff83167fddf252ad1be2c89b69c2b068fc378daa952ba7f163c4a11628f55a4df523b3ef602083a3610c50825f83610c4e565b602081525f82518060208401528060208501604085015e5f6040828501015260407fffffffffffffffffffffffffffffffffffffffffffffffffffffffffffffffe0601f83011684010191505092915050565b5f60208284031215611d6f575f80fd5b5035919050565b803573ffffffffffffffffffffffffffffffffffffffff81168114611d99575f80fd5b919050565b5f8060408385031215611daf575f80fd5b611db883611d76565b946020939093013593505050565b5f805f60608486031215611dd8575f80fd5b611de184611d76565b9250611def60208501611d76565b929592945050506040919091013590565b5f60208284031215611e10575f80fd5b6106df82611d76565b5f8060408385031215611e2a575f80fd5b82358015158114611e39575f80fd5b9150611e4760208401611d76565b90509250929050565b5f8060408385031215611e61575f80fd5b611e3983611d76565b5f8060408385031215611e7b575f80fd5b82359150611e4760208401611d76565b5f805f60608486031215611e9d575f80fd5b83359250611ead60208501611d76565b9150611ebb60408501611d76565b90509250925092565b60ff81168114611ed2575f80fd5b50565b5f805f805f805f60e0888a031215611eeb575f80fd5b611ef488611d76565b9650611f0260208901611d76565b955060408801359450606088013593506080880135611f2081611ec4565b9699959850939692959460a0840135945060c09093013592915050565b600181811c90821680611f5157607f821691505b602082108103611f88577f4e487b71000000000000000000000000000000000000000000000000000000005f52602260045260245ffd5b50919050565b7f4e487b71000000000000000000000000000000000000000000000000000000005f52601160045260245ffd5b6001815b6001841115611ff657808504811115611fda57611fda611f8e565b6001841615611fe857908102905b60019390931c928002611fbf565b935093915050565b5f8261200c5750600161064c565b8161201857505f61064c565b816001811461202e576002811461203857612054565b600191505061064c565b60ff84111561204957612049611f8e565b50506001821b61064c565b5060208310610133831016604e8410600b8410161715612077575081810a61064c565b6120a27fffffffffffffffffffffffffffffffffffffffffffffffffffffffffffffffff8484611fbb565b807fffffffffffffffffffffffffffffffffffffffffffffffffffffffffffffffff048211156120d4576120d4611f8e565b029392505050565b5f6106df8383611ffe565b5f602082840312156120f7575f80fd5b5051919050565b5f6020828403121561210e575f80fd5b81516106df81611ec4565b5f8261214c577f4e487b71000000000000000000000000000000000000000000000000000000005f52601260045260245ffd5b500490565b808202811582820484141761064c5761064c611f8e565b7f4e487b71000000000000000000000000000000000000000000000000000000005f52604160045260245ffd5b5f602082840312156121a5575f80fd5b815167ffffffffffffffff8111156121bb575f80fd5b8201601f810184136121cb575f80fd5b805167ffffffffffffffff8111156121e5576121e5612168565b6040517fffffffffffffffffffffffffffffffffffffffffffffffffffffffffffffffe0603f7fffffffffffffffffffffffffffffffffffffffffffffffffffffffffffffffe0601f8501160116810181811067ffffffffffffffff8211171561225157612251612168565b604052818152828201602001861015612268575f80fd5b8160208401602083015e5f91810160200191909152949350505050565b5f82518060208501845e7f5661756c74000000000000000000000000000000000000000000000000000000920191825250600501919050565b601f821115610c4e57805f5260205f20601f840160051c810160208510156122e35750805b601f840160051c820191505b81811015611c21575f81556001016122ef565b815167ffffffffffffffff81111561231c5761231c612168565b6123308161232a8454611f3d565b846122be565b6020601f821160018114612381575f831561234b5750848201515b7fffffffffffffffffffffffffffffffffffffffffffffffffffffffffffffffff600385901b1c1916600184901b178455611c21565b5f848152602081207fffffffffffffffffffffffffffffffffffffffffffffffffffffffffffffffe08516915b828110156123ce57878501518255602094850194600190920191016123ae565b508482101561240a57868401517fffffffffffffffffffffffffffffffffffffffffffffffffffffffffffffffff600387901b60f8161c191681555b50505050600190811b0190555056fea164736f6c634300081a000a","linkReferences":{}},"methodIdentifiers":{"DOMAIN_SEPARATOR()":"3644e515","allowance(address,address)":"dd62ed3e","approve(address,uint256)":"095ea7b3","asset()":"38d52e0f","balanceOf(address)":"70a08231","convertToAssets(uint256)":"07a2d13a","convertToShares(uint256)":"c6e6f592","custodyInfo()":"72d4b21a","decimals()":"313ce567","deposit(uint256,address)":"6e553f65","factory()":"c45a0155","initialize(address,address)":"485cc955","maxDeposit(address)":"402d267d","maxMint(address)":"c63d75b6","maxRedeem(address)":"d905777e","maxWithdraw(address)":"ce96cb77","mint(uint256,address)":"94bf804d","name()":"06fdde03","nonces(address)":"7ecebe00","pause()":"8456cb59","paused()":"5c975abb","permit(address,address,uint256,uint256,uint8,bytes32,bytes32)":"d505accf","previewDeposit(uint256)":"ef8b30f7","previewMint(uint256)":"b3d7f6b9","previewRedeem(uint256)":"4cdad506","previewWithdraw(uint256)":"0a28a477","redeem(uint256,address,address)":"ba087652","setCustodyInfo(bool,address)":"442c01a4","symbol()":"95d89b41","totalAssets()":"01e1d114","totalSupply()":"18160ddd","transfer(address,uint256)":"a9059cbb","transferFrom(address,address,uint256)":"23b872dd","unpause()":"3f4ba83a","withdraw(uint256,address,address)":"b460af94"},"storageLayout":{"storage":[{"astId":71592,"contract":"src/honey/CollateralVault.sol:CollateralVault","label":"_vaultAsset","offset":0,"slot":"0","type":"t_contract(ERC20)36988"},{"astId":71594,"contract":"src/honey/CollateralVault.sol:CollateralVault","label":"_name","offset":0,"slot":"1","type":"t_string_storage"},{"astId":71596,"contract":"src/honey/CollateralVault.sol:CollateralVault","label":"_symbol","offset":0,"slot":"2","type":"t_string_storage"},{"astId":71599,"contract":"src/honey/CollateralVault.sol:CollateralVault","label":"factory","offset":0,"slot":"3","type":"t_address"},{"astId":71603,"contract":"src/honey/CollateralVault.sol:CollateralVault","label":"custodyInfo","offset":0,"slot":"4","type":"t_struct(CustodyInfo)71609_storage"}],"types":{"t_address":{"encoding":"inplace","label":"address","numberOfBytes":"20"},"t_bool":{"encoding":"inplace","label":"bool","numberOfBytes":"1"},"t_contract(ERC20)36988":{"encoding":"inplace","label":"contract ERC20","numberOfBytes":"20"},"t_string_storage":{"encoding":"bytes","label":"string","numberOfBytes":"32"},"t_struct(CustodyInfo)71609_storage":{"encoding":"inplace","label":"struct CollateralVault.CustodyInfo","numberOfBytes":"32","members":[{"astId":71606,"contract":"src/honey/CollateralVault.sol:CollateralVault","label":"isCustodyVault","offset":0,"slot":"0","type":"t_bool"},{"astId":71608,"contract":"src/honey/CollateralVault.sol:CollateralVault","label":"custodyAddress","offset":1,"slot":"0","type":"t_address"}]}}},"id":120}